:100000000C94F0080C94310C0C9437090C943709BB
:100010000C9437090C9437090C9437090C94370960
:100020000C9437090C9437090C94982D0C946B2E72
:100030000C943F210C9437090C9437090C94370920
:100040000C9437090C9437090C9437090C94370930
:100050000C9437090C94C0210C9437090C9437097F
:100060000C9437090C9437090C9437090C94370910
:100070000C9437090C9437090C9437090C94370900
:100080000C9437090C9437090C9437090C943709F0
:100090000C9437090C9437090C9437090C943709E0
:1000A0000C9437090C9437090C9437090A00253051
:1000B000313662003A200025303258000A722F6330
:1000C00020303132333435363738394142434445B4
:1000D000460A004B4C3A206B633A2025752C20636E
:1000E0006F6C3A2025752C20726F773A2025752C7D
:1000F00020707265737365643A2025750A0001E308
:1001000001E0014F024F02E002E30001E301E001E0
:1001100050025002E002E30001E30115021574FFF2
:1001200002E374FF01060206011002100107020734
:100130000128022874FF01130213010C020C0111A3
:100140000211010A020A012C022C01E00119021914
:1001500002E00001E30115021502E30106020601B7
:10016000100210010702070128022874FF74FF0122
:100170000C020C0113021301060206011202120105
:1001800011021101090209010C020C010A020A0103
:100190002C022C0138023801040204010F020F0165
:1001A0000F020F012802280001E30115021574FF58
:1001B00002E374FF010602060110021001070207A4
:1001C000012802280001E0010402040106020602DF
:1001D000E00001E00119021902E00001E00106025D
:1001E0000602E000757365726E616D65012B7061CA
:1001F0007373012B012800750A012B022B010C02DD
:100200000C01110211012B022B01280228012B02E3
:100210002B012B022B012B022B010C020C011102D2
:1002200011012B022B0128022800750A012B022B39
:100230000112021201170217012B022B01280228BA
:10024000012B022B012B022B012B022B011D021D66
:1002500001150215012B022B0128022800750A0145
:100260002B022B0112021201130213012B022B018C
:10027000280228012B022B012B022B012B022B0120
:100280001D021D01150215012B022B012802280059
:100290006970636F6E666967202F616C6C00007512
:1002A0000A0127022701060206012B022B012B025D
:1002B0002B01040204012B022B00011B021B007501
:1002C0000A01E00117021701190219012802280288
:1002D000E0007777772E737570706F72742E786583
:1002E000726F782E636F6D012800656D61696C0017
:1002F000750A010402040107020701100210010C33
:10030000020C01110211744B012B022B011E021E63
:10031000011E021E011E021E011E021E01280228CD
:100320000001E3012B022B02E3001C001D001E0054
:100330001F00200021002B0014001A0008001500E7
:1003400017002A0004001600070009000A0029000F
:100350001D001B00060019000500E0001D01E20061
:10036000E300015100004E004B00E2000651000086
:1003700000004C0028620000000000000000220085
:10038000230024002500260027003100130012005E
:100390000C0018001C00340033420F000E000D004A
:1003A0000B00E500380037003600100011004F0048
:1003B00052005100500001510000E60006514A0071
:1003C0004D000000000028002C000000000000008C
:1003D00000001C001D001E001F0020002100010065
:1003E0001E021F022F02300231022D0220022102C2
:1003F0002602270235000100220223022F003000CE
:1004000035020100010001000100010000004E0062
:100410004B00E2000651000000004C00E10000002B
:100420000000000000002200230024002500260018
:1004300027002D00550026002500240036022E003E
:100440002D00230022002100370201005700200068
:100450001F001E0024020100540037002700010085
:100460000000E60006514D004A0000000000280090
:100470002C0000000000000000001C001D001E00F9
:100480001F0020002100010001000100F000010018
:10049000010001000100F200F100F3000100010081
:1004A0000100010001000100010001000100010044
:1004B0000100010000004E004B00E2000651000068
:1004C0000000F500F4000000000000000000220021
:1004D0002300240025002600270001000100010060
:1004E000FA004C050F08AE000100FB00F900FC000B
:1004F000010001000100A900AA00AB00AC0001004E
:1005000001000100010001000000E60006514D005D
:100510004A0000000000F500F400000000000000A8
:1005200000000000000000000000000000000000CB
:1005300000000000000000000000000000000000BB
:1005400000000000000000000000000000000000AB
:10055000000000000000000000000000000000009B
:10056000000000000000000000000000000000008B
:10057000000000000000000000000000000000007B
:10058000000000000000000000000000000000006B
:10059000000000000000000000000000000000005B
:1005A000000000000000000000000000000000004B
:1005B000000000000000000000000000000000003B
:1005C000000000000000000000000000000000002B
:1005D000000000000000000000000000000000001B
:1005E000000000000000000000000000000000000B
:1005F00000000000000000000000000000000000FB
:1006000000000000000000000000000000000000EA
:1006100000000000000000000000000000000000DA
:1006200000000000000000000000000000000000CA
:1006300000000000000000000000000000000000BA
:1006400000000000000000000000000000000000AA
:10065000000000000000000000000000000000009A
:10066000000000000000000000000000000000008A
:10067000000000000000000000000000000000007A
:10068000000000000000000000000000000000006A
:10069000000000000000000000000000000000005A
:1006A000000000000000000000000000000000004A
:1006B000000000000000000000000000000000003A
:1006C000000000000000000000000000000000002A
:1006D000000000000000000000000000000000001A
:1006E000000000000000000000000000000000000A
:1006F00000000000000000000000000000000000FA
:1007000000000000000000000000000000000000E9
:10071000000000000000000000001C001D001E0082
:100720001F00200021000709130D240925092609AF
:10073000150950094F092109220923090100500B0D
:100740004F0B1E091F0920090100500C4F0C01001E
:100750002709010000004E004B00E2000651000096
:1007600000004C00E100000000000000000022003A
:10077000230024002500260027000709130D260961
:100780002509240901004F095009230922092109DB
:1007900001004F0B500B20091F091E0901004F0CCF
:1007A000500C0100270901000000E60006514D0031
:1007B0004A000000000028002C000000000000009B
:1007C000000044454255473A20656E61626C65649D
:1007D0002E0A0000000000000000002A2B28000064
:1007E00000000000000000000000000000002900E0
:1007F0000000002C1E3420212224342627252E36EA
:100800002D3738271E1F2021222324252633333657
:100810002E37381F0405060708090A0B0C0D0E0FAA
:10082000101112131415161718191A1B1C1D2F312D
:1008300030232D350405060708090A0B0C0D0E0F91
:10084000101112131415161718191A1B1C1D2F310D
:1008500030354C00000000000000000000000000E7
:100860000000000000000000000000000000000088
:10087000000000000101010101010001010101006E
:100880000000000000000000000000000001000166
:100890000001010101010101010101010101010149
:1008A000010101010101010101010101010100003A
:1008B0000001010000000000000000000000000036
:1008C0000000000000000000000000000000010126
:1008D0000101000A002530325820006B6579626FF3
:1008E0006172645F7265706F72743A20000A00254D
:1008F000303258006B6579626F6172645F73657442
:100900005F6C65643A2000290A002575002F0025D8
:1009100075005D2800256400200025640020002566
:10092000640020002564007C0025303258006D6F83
:100930007573656B6579205B62746E7C78207920B5
:100940007620685D287265702F61636C293A205BA0
:10095000006D6B5F776865656C5F74696D655F746A
:100960006F5F6D6178203D2025640A006D6B5F77B5
:100970006865656C5F6D61785F7370656564203D67
:100980002025640A006D6B5F74696D655F746F5F2D
:100990006D6178203D2025640A006D6B5F6D617884
:1009A0005F7370656564203D2025640A006D6B5F90
:1009B000696E74657276616C203D2025640A006D55
:1009C0006B5F64656C6179203D2025640A006D6B66
:1009D0005F776865656C5F74696D655F746F5F6D87
:1009E0006178203D2025640A006D6B5F776865653E
:1009F0006C5F6D61785F7370656564203D20256470
:100A00000A006D6B5F74696D655F746F5F6D61780F
:100A1000203D2025640A006D6B5F6D61785F737007
:100A2000656564203D2025640A006D6B5F696E7406
:100A3000657276616C203D2025640A006D6B5F64F1
:100A4000656C6179203D2025640A000A0025750047
:100A5000363A20776865656C5F74696D655F746FA1
:100A60005F6D61783A20000A00257500353A2077DD
:100A70006865656C5F6D61785F73706565643A2069
:100A8000000A00257500343A2074696D655F746F43
:100A90005F6D61783A20000A00257500333A206DB9
:100AA00061785F73706565643A20000A00257500FF
:100AB000323A20696E74657276616C286D73293ADA
:100AC00020000A00257500313A2064656C617928A0
:100AD0002A31306D73293A20000A092D2056616CA5
:100AE000756573202D0A004D3E004D25643E2000A3
:100AF0003F007365742064656661756C740A004319
:100B00003E200077686572652064656C74613A20E8
:100B1000637572736F723D25642C20776865656C10
:100B20003D25640A53656520687474703A2F2F65FB
:100B30006E2E77696B6970656469612E6F72672FBD
:100B400077696B692F4D6F7573655F6B6579730A94
:100B5000000A092D204D6F7573656B6579202D0A8C
:100B60004553432F713A09717569740A313A096422
:100B7000656C6179282A31306D73290A323A096926
:100B80006E74657276616C286D73290A333A096D4B
:100B900061785F73706565640A343A0974696D65DC
:100BA0005F746F5F6D61780A353A09776865656CC7
:100BB0005F6D61785F73706565640A363A097768BE
:100BC00065656C5F74696D655F746F5F6D61780AF0
:100BD0000A703A097072696E742076616C7565737B
:100BE0000A643A097365742064656661756C747390
:100BF0000A75703A092B310A646F776E3A092D3104
:100C00000A706775703A092B31300A7067646F7724
:100C10006E3A092D31300A0A7370656564203D20F3
:100C200064656C7461202A206D61785F73706565FE
:100C300064202A2028726570656174202F207469F1
:100C40006D655F746F5F6D6178290A003F004D3EEE
:100C50002000433E20004C25640A0074696D6572D3
:100C60005F72656164333228293A202530346C582C
:100C70000A006B6579626F6172645F69646C653AE2
:100C80002025580A006B6579626F6172645F70722B
:100C90006F746F636F6C3A2025580A00686F737425
:100CA0005F6B6579626F6172645F6C65647328293C
:100CB0003A2025580A000A092D205374617475736F
:100CC000202D0A004743433A20392E332E3020414D
:100CD00056522D4C4942433A20322E302E3020417C
:100CE00056525F415243483A20617672350A004FAE
:100CF0005054494F4E533A204C554641204D4F5584
:100D000053454B45592045585452414B4559204372
:100D10004F4E534F4C4520434F4D4D414E44203490
:100D20003039360A004255494C443A202263313664
:100D30003638332D646972747922202830393A3478
:100D4000313A3539204F6374203138203230323116
:100D5000290A005649443A203078464545442843FC
:100D60004820626F784D6F647329205049443A20BF
:100D70003078333036302844616374796C292056DA
:100D800045523A203078303030310A0044455343E0
:100D90003A20412073706C6974206572676F6E6FC2
:100DA0006D6963206B6579626F61726420666F7232
:100DB0002074686520616476656E7465726F757302
:100DC000206D616B6572730A000A092D20566572E9
:100DD00073696F6E202D0A000A092D20436F6E7310
:100DE0006F6C65202D0A4553432F713A097175695F
:100DF000740A6D3A096D6F7573656B65790A000A3F
:100E0000092D204D61676963202D0A443A09446524
:100E1000627567204D65737361676520546F6767FE
:100E20006C650A583A094D617472697820446562AC
:100E30007567204D6F646520546F67676C65202D62
:100E40002053686F77206B65797072657373657373
:100E500020696E206D617472697820677269640A16
:100E60004B3A094B6579626F617264204465627523
:100E70006720546F67676C65202D2053686F77205B
:100E80006B65797072657373207265706F72740A26
:100E90004D3A094465627567204D6F75736520543E
:100EA0006F67676C650A563A0956657273696F6EAB
:100EB0000A533A095374617475730A433A094163DA
:100EC00074697661746520436F6E736F6C65204D35
:100ED0006F64650A46312D4631303A09537769749B
:100EE000636820746F204C6179657220302D392041
:100EF00028463130203D204C30290A302D393A091E
:100F000053776974636820746F204C61796572202F
:100F1000302D390A4553433A095377697463682081
:100F2000746F204C6179657220302028616C746583
:100F3000726E617465206B65792031290A475241D0
:100F400056453A0953776974636820746F204C6181
:100F500079657220302028616C7465726E617465E9
:100F6000206B65792032290A50415553453A094A88
:100F7000756D7020746F20426F6F746C6F61646563
:100F80007220285265736574290A003F000A6D6F4C
:100F90007573653A206F66660A000A6D6F75736532
:100FA0003A206F6E0A000A6B6579626F6172643A6B
:100FB000206F66660A000A6B6579626F6172643A37
:100FC000206F6E0A000A6D61747269783A206F664C
:100FD000660A000A6D61747269783A206F6E0A00C1
:100FE0000A64656275673A206F66660A000A64657E
:100FF0006275673A206F6E0A000A0A4A756D706959
:101000006E6720746F20626F6F746C6F61646572BD
:101010002E2E2E2000433E20005B735D004B657931
:10102000626F6172642073746172742E0A005B5780
:101030005D005B535D005B525D005B445D005B43A4
:101040005D000403300000000E03440061006300F3
:10105000740079006C000000160343004800200073
:1010600062006F0078004D006F00640073000000A4
:101070000403090409027400040100A0FA09040031
:1010800000010301010009211101000122400007B4
:1010900005810308000A0904010001030102000997
:1010A0002111010001224D000705820308000A09F1
:1010B0000402000103000000092111010001223691
:1010C000000705830308000A090403000203000067
:1010D00000092111010001222200070584032000DC
:1010E000010705040320000112011001000000089F
:1010F000EDFE60300100010203010631FF0974A119
:10110000010975150026FF009520750881020976F2
:10111000150026FF00952075089102C00501098081
:10112000A10185021601002603001A81002A83000E
:10113000751095018100C0050C0901A101850316F8
:101140000100269C021A01002A9C0275109501815B
:1011500000C005010902A1010901A1000509190149
:101160002905150025019505750181029501750375
:1011700081010501093009311581257F9502750826
:10118000810609381581257F950175088106050CB2
:101190000A38021581257F950175088106C0C005B2
:1011A000010906A101050719E029E71500250195A8
:1011B0000875018102950175088101050819012949
:1011C00005950575019102950175039101050719B2
:1011D0000029FF150026FF00950675088100C00054
:1011E00011241FBECFEFDAE0DEBFCDBF04B603FE91
:1011F00027C080916B0290916C02A0916D02B0911A
:101200006E028730904BA740B04BD1F410926B0226
:1012100010926C0210926D0210926E0214BE84B78E
:10122000877F84BF0FB6F894A8958091600088618D
:1012300080936000109260000FBEE0E0F8E3099533
:1012400011E0A0E0B1E0ECEDF1E602C005900D92F6
:10125000A639B107D9F722E0A6E9B1E001C01D9295
:10126000AB36B207E1F70E94BE2A0C948C300C9486
:101270000000FF93EF93E0919601F0919701309772
:1012800009F00995EF91FF910895FC018591803057
:1012900011F0EFDFFBCF0895FF27E0E230E247FFD8
:1012A0000CC0419597FF09C0EDE26095709580955F
:1012B0009095611D711D811D911D27FF02C0219513
:1012C00030E350E2AA27660F771F881F991FAA1FD5
:1012D000A41710F0A41B63955A95A9F7AA3008F03B
:1012E000A95FA05DAF93F395611571058105910527
:1012F00041F7ED3211F4EF93F395F21718F43F93A1
:10130000F395FBCF8F91B5DFFA95E1F70895E99159
:10131000F9918591803021F0853219F0AADFF9CF5B
:10132000089520E0E89455915532C1F3503311F4FB
:10133000689455915A3348F4505390F3220F022E7B
:10134000220F220F200D250FF4CF0EF42195899145
:101350009991533619F3533729F1533559F1BC019B
:1013600088279927E8945C3621F4899199916894AB
:101370005591543639F446EF7EF077FF0DC08FEF6C
:101380009FEF0AC055374AE039F0583540E121F067
:10139000523642E009F00895FF93EF937DDFEF911D
:1013A000FF91B7CFFF93EF93FC0181918030B9F3A8
:1013B00060DFFBCFFF93EF9368DFF1CFDF93CF9335
:1013C000CDB7DEB72596A3DFCF91DF9108950C94BA
:1013D000B00D80913A028B6080933A02AAE6B1E0A8
:1013E00061E070E08D91E82FE295EF70F0E041A1AF
:1013F0008F709B0101C0220F8A95EAF7922F90957A
:10140000942391A382A1822B82A381E0A137B80704
:1014100049F7A4E6B1E061E070E08D91E82FE29534
:10142000EF70F0E041A18F709B0101C0220F8A95FF
:10143000EAF7922F9095942391A382A1822B82A305
:1014400081E0AA36B80749F7559A209AE8E9F1E011
:10145000A7EAB1E086EA91E011921D928E179F07EC
:10146000D9F70C94BF0F3F924F925F926F927F9289
:101470008F929F92AF92BF92CF92DF92EF92FF92A4
:101480000F931F93CF93DF9300D000D0CDB7DEB77B
:10149000809100018111B0C087E090E09A83898338
:1014A00009811A8109551E4F8AE6E82E81E0F82E3F
:1014B0006801AA24A394B12C8824839424E0922E5A
:1014C000D6016D906D01FD011292FC83EB83D70173
:1014D0008D917D01E82FE295EF70F0E091A18F7082
:1014E000B50101C0660F8A95EAF7892F862B81A383
:1014F00082A1762E7094872182A3B0EABA95F1F783
:1015000044E651E090E080E0DA015D90AD01252DE8
:1015100022952F7030E0D90190963C90AB81BC8130
:101520004C90352D3F70D50102C0AA0FBB1F3A95D4
:10153000E2F79D01232109F062C02A2D082E01C087
:10154000220F0A94EAF72429AB81BC812C930196DF
:1015500086309105C9F681A1782271A282A1682BFB
:1015600062A38C91681659F08092B5010E946F2198
:101570009093B7018093B6018BB189258BB9B1E700
:10158000EB16B1E0FB0609F09BCF8091B5018823F3
:10159000E1F08091B6019091B7010E949B210697DE
:1015A000A0F0E981FA81E856FE4FFA83E98380E0F2
:1015B000D8019D918D01E981FA819193FA83E983A4
:1015C0008F5F8730A9F71092B50181E00F900F90DF
:1015D0000F900F90DF91CF911F910F91FF90EF909F
:1015E000DF90CF90BF90AF909F908F907F906F9043
:1015F0005F904F903F9008951A82198251CF20E05A
:10160000A2CFCF93DF9380910001D0E0C0E0882388
:1016100011F0C7E0D0E00E94960C009789F4C856FC
:10162000DE4F30E020E0F901E654FE4F408149935F
:101630002F5F3F4F27303105B1F7DF91CF910895EC
:1016400081E090E0FACFCF930E94330AC82F0E9426
:10165000010B892BE1F05D989091A6019F5F90931B
:10166000A601963078F080910001F0E0E0E0882358
:1016700011F0E7E0F0E0E856FE4F87E090E01192CD
:101680000197E9F70E94C10F8C2FCF9108955D9AC1
:101690001092A601F7CF0E94330A80910001E7E083
:1016A000F0E0882311F0F0E0E0E0E856FE4F90E033
:1016B00080E02191DC01A654BE4F2C930196873027
:1016C0009105B9F70895E82FF0E0E856FE4F8081C4
:1016D0000895CF92DF92EF92FF920F931F93CF93D3
:1016E000DF938CEB90E00E94450988E9E82E81E0C9
:1016F000F82ED0E0C0E097EBC92E90E0D92E0EEA8C
:1017000010E0DF93CF93DF92CF920E94DE0984EB4B
:1017100090E00E944509F70181917F0190E00E94CD
:1017200071209F938F931F930F930E94DE098CEA81
:1017300090E00E94450921968DB79EB708960FB696
:10174000F8949EBF0FBE8DBFCE30D105D1F6DF918C
:10175000CF911F910F91FF90EF90DF90CF90089560
:10176000E8EDF0E08081806180838AE18A95F1F77D
:1017700000C08091D900817008950E94B00B8093C1
:1017800000010E94B00B882321F00E94240C789461
:1017900008950E9466210E94280CF9CF0E94E90951
:1017A0000E944B0BFDCF0E94BD0B0E94B00B81111C
:1017B00002C00E94CE0B0895509A08955098589AEE
:1017C0000895589A08950E94DE0B489BFECF80E84A
:1017D0008A95F1F708950E94DE0B98E080E029B128
:1017E000880F2170822B20E82A95F1F725E02A95B1
:1017F000F1F70000915099F708951F93CF93DF936D
:10180000C82F0E94DC0B18E0D0E0115020F4DF91CB
:10181000CF911F910895CE01012E02C09595879515
:101820000A94E2F780FF06C00E94E10B80E88A95E7
:10183000F1F7EBCF5898FACF0E94DC0B589880E86C
:101840008A95F1F70C94E10B0E94DC0B0C94E10BF0
:101850000E94DE0BE89AE9E6F0E080818C7F8083CD
:1018600008951F920F920FB60F921124EF92FF92DC
:101870001F932F933F934F935F936F937F938F9318
:101880009F93AF93BF93CF93DF93EF93FF930E9408
:101890001C0CD0E0C0E010E0CE0186549E4F7C01CD
:1018A000FC0180810E94FD0B0E941C0CF7018081CD
:1018B000180F2196C730D10579F7812F0E94FD0BB3
:1018C0000E941C0CF0E8FA95F1F780E48A95F1F794
:1018D0000E94EB0B8093B9010E941C0CD091B901BE
:1018E0000E94EB0BC82F0E941C0C0E94DE0B809103
:1018F000B801CD17C9F081608093B801FF91EF91D5
:10190000DF91CF91BF91AF919F918F917F916F9117
:101910005F914F913F912F911F91FF90EF900F900A
:101920000FBE0F901F9018958E7FE6CFEF92FF921B
:101930001F93CF93DF93F8940E94DC0B589825E017
:101940002A95F1F700000E94DE0B0E94E10B30E8BF
:101950003A95F1F789B1182F117080FF09C078947A
:1019600081E090E0DF91CF911F91FF90EF9008957B
:101970000E94E30BD0E0C0E00E94EB0BFE01E654B6
:10198000FE4F7F0180830E94E30BF7018081180FD7
:101990002196C730D10581F70E94EB0BC82F0E941A
:1019A000E30BC113DCCF8091B9010E94FD0B0E94B3
:1019B000E30B8091B9010E94FD0B0E94E30B0E9492
:1019C000DC0B0E94E10B789490E080E0CBCF0C948C
:1019D000AF0DFC018081813021F48BED91E00C94FE
:1019E000001D823019F482ED91E0F9CF85EC91E091
:1019F000F6CFFC018081813021F488EA91E00C94DB
:101A0000001D823019F483E591E0F9CF88E191E07F
:101A1000F6CFFC018081813021F48BE091E00C94C1
:101A2000001D823019F48EEF90E0F9CF0895FC018B
:101A30008081813031F488E30E94641588E30C943E
:101A40003F1681E30E94641581E3F9CFDC01603128
:101A5000C8F4E62FF0E0E257FF4C0C943C301296AD
:101A60008C911297811163C012968C9112978111FB
:101A700061C012968C911297882339F08AEE92E019
:101A80000E94BC0F90E080E0089512968C9112970E
:101A9000882319F082ED92E0F3CF12968C91129781
:101AA00081114BC015968C911597982F907F1296A7
:101AB0002C91222341F0992311F080FFE3CF83E0A2
:101AC0000E943E1EDFCF992311F080FF39C083E0D2
:101AD0000E946F1ED7CF12968C911297811133C03E
:101AE00012968C911297882319F08EE992E0C8CF54
:101AF00012968C911297882319F080E992E0C0CF5A
:101B000012968C911297811121C012968C91129786
:101B100081111FC012968C91129781111DC01296CF
:101B20008C91882309F4AECF84EE91E0A9CF81E2B5
:101B300093E0089580EF92E008958FEB92E008958E
:101B40008AEB92E008958FE992E008958DE592E0A6
:101B500008958AE292E0089587EF91E0089508954C
:101B60000895FB0122811F922F9321811F922F93B1
:101B700020811F922F939F938F9383ED90E09F93EB
:101B80008F930E94DE098DB79EB70A960FB6F89420
:101B90009EBF0FBE8DBF81E0089581E008950C9433
:101BA000B10D0E948E192FEF84E39CE021508040FC
:101BB0009040E1F700C0000087E797E790930108A5
:101BC000809300080C94E4210F931F93CF93DF932D
:101BD0008C01FC01C081D181CE010E944E1FBE014B
:101BE0000E94CB0FEC01B8010E94DB12B801CE01BC
:101BF0000E94CF0D882309F483C0B801CE010E9452
:101C00002013882309F47CC0B801CE010E942E1253
:101C1000882309F475C0C33DFCE5DF0709F4FEC065
:101C2000B0F5C531ECE5DE07D0F4C230FCE5DF07E6
:101C300008F082C0C1158CE5D80709F45CC0C1303A
:101C4000DC4509F463C081E08093C6018093C7013D
:101C5000C801DF91CF911F910F910C94CD0DC5312B
:101C6000DC4589F70E941620F8019281992309F436
:101C700021C18A7A91E009F490E09093C101811129
:101C800017C189E20E949F1F0E94E31F39C0C83D0F
:101C90008CE5D80709F448C020F5C43DFCE5DF0712
:101CA00009F4E3C0C53DDC4571F6F801828181117C
:101CB000E0C08091C7018111F9C08091C401909169
:101CC000C5010E949B218639910508F0EFC080E292
:101CD0000E94951688E20E94641588E20E943F16D1
:101CE0000FC0C93DDC4509F0AECFF80182818823E1
:101CF00039F082E01EC0F801828181110E94D10D6D
:101D000080E0DF91CF911F910F910895F8018281BA
:101D10008823B1F380913A02816080933A0282EC89
:101D200097E00E944509ECCFF8018281882341F3B6
:101D300080E00E94682BE4CFF8018281882309F4B7
:101D400087CF0E949820811102C00E947E200E94AD
:101D5000AB2090E090935D0280935C02FE01E35023
:101D6000FC4580915C028160E231F10538F4E25675
:101D7000FF4C0C943C3080915C02826080935C024A
:101D800080915C020E94AF200E948E19B9CF809191
:101D90005C028460F3CF80915C028860EFCF809119
:101DA0005C028061EBCF80915C028062E7CF809122
:101DB0005C028064E3CF80915C028068DFCF809119
:101DC0005C028C60DBCF80915C028E7FD7CF8091EC
:101DD0005C028D7FD3CF80915C028B7FCFCF8091CF
:101DE0005C02877FCBCF80915C028F7EC7CF8091D2
:101DF0005C028F7DC3CF80915C028F7BBFCF8091CF
:101E00005C028F77BBCF80915C02837FB7CF9091CC
:101E10005C02892F97FB87F98058B0CFF801828147
:101E2000882361F01092C6010E946F219093C30134
:101E30008093C20182E00E948E1662CF8091C6011B
:101E400081110FC08091C2019091C3010E949B211A
:101E50008639910530F486E20E94641586E20E947C
:101E60003F1682E00E9495164BCFF80182818823AD
:101E700051F01092C7010E946F219093C501809389
:101E8000C40180E2D8CF8091C70181110FC0809139
:101E9000C4019091C5010E949B218639910530F4BF
:101EA00087E20E94641587E20E943F1680E2DACF43
:101EB00085E3E8CE8091C101811104C089E20E94CE
:101EC000A61FE2CE85E3FBCFCF9390E0FC01ED525D
:101ED000F84FC4918D5A974FFC018491882369F083
:101EE00081EE0E9464158C2F0E9464158C2F0E9435
:101EF0003F1681EECF910C943F168C2F0E946415F3
:101F00008C2FF8CFFF920F931F93CF93DF93EC01A9
:101F1000F62EFE018491882349F18E010F5F1F4F39
:101F2000813049F4F801C4918C2F0E9464158C2FE4
:101F30000E943F1606C0823081F4F80184910E940D
:101F40006415E80121968F2D815018F3EFE9FFE029
:101F50003197F1F700C00000F7CF833019F4F80192
:101F60008491E6CF0E94640F8E01EBCFDF91CF9179
:101F70001F910F91FF90089560E00C94820F0C94D4
:101F8000E70C0E947A130C94E70908950C94C50F8E
:101F90000C94C60F0895972F70E026E0929F600D75
:101FA000711D1124FB0194E5899FE00DF11D1124A1
:101FB000EE0FFF1FE65DFC4F859194910895FC01A3
:101FC000EE0FFF1FED52F74F859194910895CF9337
:101FD000DF930E94CB0F0E948F11EC01811520E549
:101FE000920708F09CC0811530E4930708F00BC1FC
:101FF000803E910508F072C0803C910508F0ECC06D
:10200000883A910580F4853A910508F0EBC081305B
:10201000910509F474C00497813A910508F46FC0E2
:10202000D0E0C0E06CC0885A91094597C8F7C83A1B
:10203000D10509F435C1C93AD10509F434C1CA3A08
:10204000D10509F433C1CB3AD10509F432C1CC3AF8
:10205000D10509F431C1CB3BD10509F430C1CC3BEA
:10206000D10509F42FC1CD3AD10509F42EC1C03BE9
:10207000D10509F42DC1CE3AD10509F42CC1CF3ACE
:10208000D10509F42BC1C13BD10509F42AC1C23BDA
:10209000D10509F429C1C33BD10509F428C1C43BCA
:1020A000D10509F427C1C53BD10509F426C1C63BBA
:1020B000D10509F425C1C73BD10509F424C1C83BAA
:1020C000D10509F423C1C93BD10509F422C1CA3B9A
:1020D000D10509F421C1C0E0D4E411C0811540E26A
:1020E000940788F48F3F910509F048F4883E9105E4
:1020F00030F0805F9109D065409708F091CFCE0114
:10210000DF91CF910895C11580E3D80708F475C019
:10211000CE019927D3FD74C0EC01D06CF0CFC1156E
:1021200095E5D90760F5C11524E5D20708F09CC0F4
:10213000C11533E5D30778F4C11542E5D40708F09B
:1021400082C0C11581E5D80708F460C0DC2FCC2718
:10215000C16FD06AD4CFCE018370992721E030E0DF
:1021600002C0220F331F8A95E2F7C695C69590E20A
:10217000C99FE0011124C22BD32BDA68C0CFC1154F
:102180002AE5D207B0F4C11539E5D30708F077C0C6
:10219000C11546E5D40708F46CC0CE0198558F3FB1
:1021A000910511F008F03CCFDC2FCC27C06FD06A2E
:1021B000A6CFCE0190568115904208F031CF8D2FD9
:1021C0008F710E940A1290E0982F882788279F71AC
:1021D0009C012C2BE90151C0805C91090E94DF0F0A
:1021E000EC018DCF853A910509F454C0863A9105EA
:1021F00009F053C0C2E8D0E482CFCE019F70EECF89
:10220000EC01D86C7CCFDF70D06A79CFCE0174E05E
:10221000969587957A95E1F783702C2F26952695CC
:10222000237040E2249F90011124382B8C2F83705F
:10223000C1E0D0E002C0CC0FDD1F8A95E2F7C22BCF
:10224000D32BDC685CCFCE018370992721E030E08E
:1022500002C0220F331F8A95E2F7C695C69580E229
:10226000C89FE0011124EBCFDC2FCC27C46FD06ACC
:1022700046CFDC2FCC27CC27DF71D06240CFCE01F8
:1022800034E0969587953A95E1F78F70CF70C06EE0
:10229000D82FBACFC1E8D0E432CFC3E8D0E42FCFF3
:1022A000C2EED4E42CCFC9EED4E429CFCAEED4E4F4
:1022B00026CFC5EBD4E423CFC6EBD4E420CFC3EBC9
:1022C000D4E41DCFC4EBD4E41ACFC7EBD4E417CFCA
:1022D000CCECD4E414CFCDECD4E411CFC3E8D5E4F6
:1022E0000ECFCAE8D5E40BCFC2E9D5E408CFC4E9E4
:1022F000D5E405CFC1E2D6E402CFC3E2D6E4FFCEF7
:10230000C4E2D6E4FCCEC5E2D6E4F9CEC6E2D6E419
:10231000F6CEC7E2D6E4F3CECAE2D6E4F0CE803EF3
:10232000910581F1C8F48133910509F462C048F444
:102330008932910509F456C08A32910509F460C0CA
:10234000089589339105B9F082389105A1F085335C
:10235000910509F440C00895863E910561F138F475
:10236000823E9105B1F0833E9105E1F00895873EEC
:10237000910551F1089520915C022370D9F080EE0F
:1023800090E0089520915C0220FF14C089E390E062
:10239000089520915C0222FF0DC024FD09C083EE48
:1023A00090E0089520915C0222FD31C024FF02C01C
:1023B00090E080E0089520915C0223FFFBCF24FD94
:1023C000F7CF87EE90E0089520915C0223FFEECFD7
:1023D00086EE90E0089520915C0225FFEBCF89E224
:1023E00090E0089520915C0225FFE4CF85E390E022
:1023F000089520915C0226FFDDCF8AE290E00895E7
:1024000020915C0226FFD6CF81E390E0089582EE12
:1024100090E0089590915C0292FF06C0282F2871E9
:10242000283069F4877F846093FF06C0282F2871C5
:10243000283161F4877E846194FD877E0895282F7A
:102440002471243089F78B7F8860EECF282F247188
:10245000243191F78B7E8861EFCF08950F931F93FE
:10246000CF938C01FB018281811106C0C1E08C2FCA
:10247000CF911F910F910895C091D501C11125C031
:1024800006311C4599F70E942D1281E08093D501F9
:102490000E946F219093D4018093D3011092C801C0
:1024A0001092CA011092C9011092CC011092CB0176
:1024B0001092CE011092CD011092D0011092CF0156
:1024C0001092D2011092D101D2CF8091D30190917C
:1024D000D4010E949B218C32914040F68091C8012A
:1024E000E82FF0E0EE0FFF1FE753FE4F118300834C
:1024F0008F5F8093C801C0E0BACFCF93DF93EC0128
:1025000081E08F878F810E94192088850E942D206D
:102510000E94E31FEA81FB81309739F06A897B8949
:10252000CE010696DF91CF910994DF91CF91089566
:10253000EF92FF920F931F93CF93DF93EC01888567
:10254000811132C0EB80FC8087E5F81A24E12E9DD2
:10255000C0012F9D900D1124DC01AF5FBE4F14967A
:10256000ED91FC911597309731F052966D917C91D9
:10257000895F9E4F099584E18E9D80018F9D100D8E
:1025800011240F5F1E4FF80187810E941F20F80160
:1025900080850E9433200E94E31F18821F821986C3
:1025A0001092D7011092D601DF91CF911F910F9118
:1025B000FF90EF900895DF92EF92FF920F931F9399
:1025C000CF93DF938C01FB018281882391F080916E
:1025D00051018F3F71F0C1E0D1E0F12CE12CDD24FD
:1025E000D39480915101082E000C990B8E159F05F4
:1025F00044F4DF91CF911F910F91FF90EF90DF9006
:1026000008958E818823B9F089859A85801791076E
:1026100039F48091D6019091D7018017910759F034
:10262000DD868F85811103C0CE010E947D12CE010F
:1026300006960E949812FFEFEF1AFF0A6496D1CF18
:10264000EF92FF920F931F93CF93DF938C01FB01C7
:1026500097558F3F910509F0D0F520915101022E39
:10266000000C330B2817390714F480935101228191
:1026700034E1389F7001399FF00C1124E701CF5FDE
:10268000DE4F2E8792818E81992349F11A8709871F
:102690008F5F8E830E946F219C878B870E945520BD
:1026A0008F830E94162088870E942A209885982B65
:1026B0009887E881F981309731F06A897B89C70171
:1026C000895F9E4F09951093D7010093D60181E051
:1026D000DF91CF911F910F91FF90EF900895882384
:1026E000B1F38F85882399F3C701895F9E4F0E94BC
:1026F0009812EDCFEF92FF920F931F93CF93DF933A
:102700008091510110E004E18F3FC1F5DF91CF913D
:102710001F910F91FF90EF900895029FF001039F8A
:10272000F00D1124EF5FFE4FE088F188E114F10411
:1027300019F486E9E82EF12C029FE001039FD00DE9
:102740001124CF5FDE4F8E818823B9F08B859C8565
:102750000E949B21E816F90680F4109F7001112455
:102760008F85811105C0C7018F5F9E4F0E947D122A
:10277000C701895F9E4F0E9498121F5F212F30E092
:1027800080915101082E000C990B821793072CF6AB
:10279000BDCF9093DD018093DC010895E091DC01D1
:1027A000F091DD01309721F00190F081E02D099446
:1027B00080E00895EF92FF920F931F93CF93DF93E2
:1027C0008C01E091DC01F091DD013097C1F10280D4
:1027D000F381E02D099580913A0282FF30C080FF9D
:1027E00004C08BED98E00E944509D0E0C0E085ED83
:1027F000E82E88E0F82E80913A0280FF0EC0F801A2
:10280000EC0FFD1F80811F928F93FF92EF920E9429
:10281000DE090F900F900F900F902196C830D105D0
:1028200051F780913A0280FF0AC083ED98E0DF9172
:10283000CF911F910F91FF90EF900C944509DF917C
:10284000CF911F910F91FF90EF900895E091DC01DF
:10285000F091DD01309721F00480F581E02D09949D
:1028600008952091DA013091DB012817390771F0C2
:102870009093DB018093DA01E091DC01F091DD01BE
:10288000309721F00680F781E02D0994089520917A
:10289000D8013091D9012817390771F09093D901E7
:1028A0008093D801E091DC01F091DD01309721F0B7
:1028B0000084F185E02D099408950C94D30B81E0F8
:1028C00008950E9466210E94E9090C94F521CF9396
:1028D000C82F80913A0282FF1EC080FF1CC084EF87
:1028E00098E00E94450980913A0280FF14C01F922F
:1028F000CF938FEE98E09F938F930E94DE09809193
:102900003A020F900F900F900F9080FF04C08DEE51
:1029100098E00E9445098C2FCF910C94C80FBF926C
:10292000CF92DF92EF92FF920F931F93CF93DF939B
:1029300000D000D00F92CDB7DEB70E94230B0E94CB
:102940005F14882309F472C08FEDC82E81E0D82E61
:1029500010E000E0E02E802F0E94630BB82EF601FD
:10296000F1906F01F81609F45BC080913A0281FD85
:102970000E94690BFB2430E020E04F2D50E0922FA5
:10298000BA01022E02C0759567950A94E2F760FFBE
:1029900041C02983EA8221E030E0790102C0EE0CD7
:1029A000FF1C9A95E2F72B2D30E02E213F2181E08C
:1029B000232B09F480E08B830E946F218160782FA4
:1029C0009D838C8349815A816B818D810E9436154C
:1029D000F801E152FE4F80818E2580830E941724EA
:1029E0000E94CE139091DE01891789F10E94CE13C7
:1029F0008093DE010F900F900F900F900F90DF915A
:102A0000CF911F910F91FF90EF90DF90CF90BF90EB
:102A10000C9467142F5F3F4F2630310509F0AFCF7C
:102A20000F5F1F4F0E30110509F094CF8FEF898390
:102A30008A831B820E946F218160782F9D838C8303
:102A400049815A816B818D810E943615C7CF0F90C5
:102A50000F900F900F900F90DF91CF911F910F91DA
:102A6000FF90EF90DF90CF90BF900895CF93DF93CA
:102A7000CDB7DEB72B970FB6F894DEBF0FBECDBF34
:102A80004F83588769877A878B871E8285E0FE018E
:102A90003796DE01119601900D928A95E1F74981F2
:102AA0005A816B817C818D819E812B960FB6F89423
:102AB000DEBF0FBECDBFDF91CF910C94601CFC0137
:102AC000808191810C94901FCF93C82F882309F4A3
:102AD000D4C08238C1F40E94CE1381FDCEC089E3F8
:102AE0000E949F1F0E94E31F2FEF81EE94E0215070
:102AF00080409040E1F700C0000089E30E94A61FDB
:102B0000CF910C94E31F8338A1F40E94CE1380FD73
:102B1000B4C083E50E949F1F0E94E31F2FEF81EE48
:102B200094E0215080409040E1F700C0000083E530
:102B3000E5CF8438A1F40E94CE1382FD9EC087E4C5
:102B40000E949F1F0E94E31F2FEF81EE94E021500F
:102B500080409040E1F700C0000087E4CFCF8CEFC9
:102B60008C0F813A48F48C2F0E941627811185C062
:102B70008C2F0E949F1FC4CF80E28C0F883048F4B6
:102B8000C77081E001C0880FCA95EAF70E9419203A
:102B9000B7CF8BE58C0F833068F481E890E0C53ABD
:102BA00031F083E890E0C63A11F482E890E0CF91EA
:102BB0000C94311488E58C0F853108F05EC082EEEC
:102BC00090E0C83A09F456C089EE90E0C93A09F499
:102BD00051C08AEE90E0CA3A09F44CC085EB90E00F
:102BE000CB3A09F447C086EB90E0CC3A09F442C0F6
:102BF00083EB90E0CB3BF1F184EB90E0CC3BD1F167
:102C000087EB90E0CD3AB1F18CEC90E0C03B91F1D4
:102C10008DEC90E0CE3A71F183E891E0CF3A51F13A
:102C20008AE891E0C13B31F182E991E0C23B11F1C8
:102C300084E991E0C33BF1F081E292E0C43BD1F042
:102C400083E292E0C53BB1F084E292E0C63B91F0B2
:102C500085E292E0C73B71F086E292E0C83B51F01A
:102C600087E292E0C93B31F090E080E0CA3B11F48A
:102C70008AE292E0CF910C944714CF910895882373
:102C800009F44BC0823871F40E94CE1381FF45C015
:102C900089E30E949F1F0E94E31F89E30E94A61FF1
:102CA0000C94E31F833859F40E94CE1380FF35C083
:102CB00083E50E949F1F0E94E31F83E5EFCF8438C6
:102CC00059F40E94CE1382FF28C087E40E949F1F00
:102CD0000E94E31F87E4E2CF9CEF980F913AF0F255
:102CE00090E2980F983050F4877091E001C0990FEE
:102CF0008A95EAF7892F0E941F20D2CF9BE5980F73
:102D0000933020F490E080E00C943114885A85319F
:102D100020F490E080E00C9447140895882321F07B
:102D20000E9419200C94E31F0895882321F00E942B
:102D30001F200C94E31F08958F929F92AF92BF9231
:102D4000DF92EF92FF920F931F93CF93DF9300D008
:102D500000D00F92CDB7DEB77C016D837983FC0183
:102D6000058102950F70128111110E943B200E9473
:102D7000DC1FD82E882371F01123B1F08D81805E85
:102D8000883090F082E00E94C61F0E94DC1F91E014
:102D9000D82ED926B980B2949FE0B922EB2DF0E06D
:102DA000E055FF4C0C943C30D12CF4CF09810F70CE
:102DB000F981F07F11F00295007F1123B1F000231B
:102DC00061F08D81805E883018F02D81211109C05D
:102DD000802F0E9419200E94E31F8D810E9464159C
:102DE00015C0802F0E942D20F6CF8D810E943F16A6
:102DF000002361F08D81805E883018F03D813111B3
:102E000029C0802F0E941F200E94E31FDD2009F4AB
:102E100036C20E94B91F80FD32C2F70112820E94A1
:102E2000B31F0E943E1EC7010E9450190E94B31F8B
:102E30000F900F900F900F900F90DF91CF911F91F7
:102E40000F91FF90EF90DF90BF90AF909F908F9089
:102E50000C946F1E802F0E943320D6CF49814F7073
:102E6000B42E5981507F503219F0B29480EFB822BD
:102E70008D81882369F0813049F1112391F100237C
:102E800051F1F701858180FFA8CF8F70858323C022
:102E9000112381F0011106C00E9455208B290E9448
:102EA0008E16B4CF0130C1F70E9455208B290E94A5
:102EB0004F20ACCF011106C00E9452208B2D0E94E2
:102EC0009516A4CF013009F4A1CFF6CF112329F034
:102ED000063008F09BCF8B2DE2CF053008F096CF5F
:102EE000EDCF002359F38D810E943F168FCF89814A
:102EF00086958695837049F0813089F086E08B0D48
:102F00008F70823008F4A5C081CF8D819981937034
:102F1000111102C090E080E00E94311477CF8D81C2
:102F200099819370111102C090E080E00E944714D3
:102F30006DCF112311F1FD81F53F99F0F63FB9F006
:102F4000F43F49F48091560290915702816090932A
:102F50005702809356028D810E94A3220E948A23E9
:102F600055CF80915602909157028260F0CF8091A8
:102F70005602909157028460EACF2D81253F89F057
:102F8000263FA9F0243F49F48091560290915702C0
:102F90008E7F90935702809356028D810E940B235F
:102FA000DDCF80915602909157028D7FF2CF8091B4
:102FB0005602909157028B7FECCF8981837009F084
:102FC00063C0111146C02D81229526952770220FCE
:102FD000220F8D818F7090E0B0E0A0E04C015D0188
:102FE000022E04C0880C991CAA1CBB1C0A94D2F7A0
:102FF0003D8160E070E0CB0134FF0FC06FE070E016
:1030000080E090E004C0660F771F881F991F2A9503
:10301000D2F7609570958095909549814695469533
:1030200043704D834230D1F0433039F19B01AC0104
:10303000282939294A295B2929833A834B835C83D0
:103040003D8169817A818B819C813130D1F00E94F0
:10305000B41D0E94CE130E94C80FD8CE9B01AC01B4
:10306000282939294A295B2929833A834B835C83A0
:10307000CA01B9010E94DC1DECCF0E94B41DC5013C
:10308000B4010E948C1DE5CF8695112311F0898132
:1030900081708823F1F22D81229526952770220FC9
:1030A000220F8D818F7090E0B0E0A0E04C015D01B7
:1030B000022E04C0880C991CAA1CBB1C0A94D2F7CF
:1030C0003D8160E070E0CB0134FF0FC06FE070E045
:1030D00080E090E004C0660F771F881F991F2A9533
:1030E000D2F7609570958095909549814695469563
:1030F00043704D834230B1F0433019F19B01AC0174
:10310000282939294A295B2929833A834B835C83FF
:103110003D8169817A818B819C813130B1F00E943F
:10312000FD1E97CF9B01AC01282939294A295B292B
:1031300029833A834B835C83CA01B9010E94251F0E
:1031400088CF0E94FD1EC501B4010E94D51E81CF0B
:103150003D81323F09F451C098F4303FD9F1313FFD
:1031600009F444C0832F805E8031E8F0112309F414
:1031700061C0002309F45BC08D810E9464151FC0EB
:103180004D81433F09F440C0443F81F7112309F4C6
:1031900045C089818F7189830E943E1E63E08981C9
:1031A0000E94BD1F0CC05D815F705D8389818F713E
:1031B000112351F00E943E1E8D810E948E1638E030
:1031C000B31609F446CF9ACE0E946F1E8D810E94DD
:1031D0009516F5CF112339F0053088F789818F7165
:1031E0000E94A41EECCF063050F7F8CF89818F7172
:1031F000112339F00E943E1EE2CF89818F71112385
:10320000C9F30E946F1EDBCF112329F089818F71D2
:103210000E94191ED4CF0E94141ED1CF81E00E94BB
:10322000C61F023060F282E00E94C61FC8CF8981AB
:103230008F71E0CF002381F09D81993349F4EFEF46
:10324000F7EE23E0E150F0402040E1F700C000003D
:103250008D810E943F16B3CF89818F71D2CF498172
:103260004F706D81C7010E94260D0E94001DCECDBA
:1032700049814F706D81C7010E94CA0FC7CD0F9061
:103280000F900F900F900F90DF91CF911F910F91A2
:10329000FF90EF90DF90BF90AF909F908F90089538
:1032A0000F931F93CF93DF93EC018B819C81892B2C
:1032B00029F08881998189238F3F29F4DF91CF916B
:1032C0001F910F910895CE010E94E40D8823B1F360
:1032D000688179818A810E949C1F8C010E944D1F08
:1032E0000E94891DB801CE01DF91CF911F910F91EE
:1032F0000C949C160E943B200E944C200E94AD1F03
:103300000E94E31F0E94A1240E948A2390E080E093
:103310000E94311490E080E00C9447140E94272012
:103320000C947A190E94901F282F892F82958F70F4
:10333000903C80F48A30B0F4843020F4823090F4F1
:1033400080E008958630E1F781E0203E88F0213F5B
:10335000B9F70EC08C3011F08F3091F793FB8827AE
:1033600080F9089581E0203F39F018F4203E40F7BD
:103370000895243F29F7FCCF0895CF93DF9300D021
:1033800000D00F92CDB7DEB70F900F900F900F9037
:103390000F90DF91CF910895CF93DF9300D000D0AD
:1033A00000D0CDB7DEB726960FB6F894DEBF0FBEBD
:1033B000CDBFDF91CF9108951F93CF93DF93E0911D
:1033C000ED0116E08091EE018E1304C0DF91CF91E4
:1033D0001F910895CE2FD0E01E9FF0011124E151DE
:1033E000FE4F4081518162817381848195810E9469
:1033F000CC19FE013196E770E5CF40911F02509144
:10340000200260912102709122028091230290910A
:1034100024020C94CC19E091ED019091EE0156E05C
:10342000E91302C080E008952E2F30E05E9FF00186
:103430001124E151FE4F7181761306C0708178131B
:1034400003C07281741304C0F9013196E770E8CFAC
:1034500081E008951F93CF93DF9380912402807FB2
:10346000C1F4809121028823A1F08091ED01C091E7
:10347000EE0160911F027091200240912202509152
:103480002302D62FD723DA01A095B09516E0C813F2
:1034900004C0DF91CF911F91089590E0411551052F
:1034A00011F0DF3F31F401968770F1CF2A0F3B1FF7
:1034B00017C0189FF001199FF00D1124E151FE4F24
:1034C00021812713F0CF20812613EDCF22812111F6
:1034D000EACF238134812417350740F3241B350BB1
:1034E0002639310500F7209124022F7020612093A6
:1034F000240226E0289FF001299FF00D1124EC50B2
:10350000FE4F80818F70806180838FE192E00E9406
:103510005019DF91CF911F910C94DC197F928F92FB
:103520009F92AF92BF92CF92DF92EF92FF920F9352
:103530001F93CF93DF93CDB7DEB72B970FB6F894D9
:10354000DEBF0FBECDBF8C0185E0F801DE0117960E
:1035500001900D928A95E1F7D801EC901196DC90DC
:1035600011971296CC90129780912202909123028B
:10357000009709F483C120911F0230912002432F4C
:1035800042234F3F09F47AC11396AD90BC907090DE
:103590002102772009F40EC1A816B90608F441C02B
:1035A000F501E81BF90BCF01FF24F394863991054F
:1035B00008F0F12C8FE1882E82E0982E8091240271
:1035C000982F907FFF2009F4CBC0911192C0FC2C62
:1035D0003D112CC02E112AC0C11028C08F708061EF
:1035E000809324020E94FD19C4010E945019809109
:1035F0002402D80115968C938F2D2B960FB6F89434
:10360000DEBF0FBECDBFDF91CF911F910F91FF9015
:10361000EF90DF90CF90BF90AF909F908F907F9072
:103620000895809590958A0D9B1DBECFA114B1047D
:1036300029F08E2D8D218F3F09F03FC180E080FF62
:1036400016C04C2D6D2D8E2D0E940B1A882379F0FB
:103650008FE192E00E94501986E0EFE1F2E0DF0195
:103660001D928A95E9F70E94FD19F12CC5CFAB2870
:1036700029F08E2D8D218F3F09F01CC180E0B82FDD
:10368000B170BB2E80FF2CC04C2D6D2D8E2D0E9455
:103690000B1AA82E811124C0EF82D8868F819885BD
:1036A0000E94901F292F22952F70903248F0225FA0
:1036B0002F70223068F0C8010E945019AB2C0EC048
:1036C0009F7011F0882351F0805E883038F0F3CF7E
:1036D0009F70D1F3F8019581907FB1F7FA2C8CCFD0
:1036E000CC2009F489CF8091240281608093240248
:1036F000BCCF3D1106C02E1104C0D801CC2009F466
:103700007FC0EF82D8868F8198850E949219882386
:1037100019F1CC2009F180912402803270F02091BF
:103720001F02309120023A8329831B82BD82AC8222
:103730008E83CE0101960E94501986E0F801AFE118
:10374000B2E001900D928A95E1F70E942A1A0E9438
:10375000FD19FF24F39450CFC8010E945019F9CFEE
:10376000911115C07A2DBB86AA864E2D5D2D6C2D2C
:103770008B850E94BD198FE192E00E94501986E06E
:10378000F40111928A95E9F70E94FD1935CF3D1198
:10379000B8CF2E11B6CFC110B4CFD80115968C93E7
:1037A000C8010E94501986E0F40111928A95E9F748
:1037B000F72C22CFA816B90688F1A501481B590B92
:1037C000CA01F12C8639910508F047C0FC2CCC20A9
:1037D00009F4C2CF3D1130C02E112EC080912402B9
:1037E00080FD21C0982F907FF1F0D80115968C9321
:1037F0001597903F39F0982F907F905F8F70892BAD
:1038000015968C93C8010E94501986E0F801AFE12B
:10381000B2E001900D928A95E1F7B6CF8095909530
:103820008A0D9B1DCECF86E0F801AFE1B2E001909A
:103830000D928A95E1F7E0CEEF82D8868F81988548
:103840000E949219811179CF809124028160809326
:103850002402C8010E945019CFCE7A2DBB86AA86B9
:103860004E2D5D2D6C2D8B850E94BD1986E0EFE1FC
:10387000F2E0DF011D928A95E9F786CFCC2009F4AA
:103880006BCFEF82D8868F8198850E949219F82E8F
:10389000882309F461CF86E0F801AFE1B2E001903E
:1038A0000D928A95E1F78FE192E00E945F150E94E8
:1038B0002A1A6ACF81E08C25E2CE81E08C25BFCE2A
:1038C0001F93CF93DF93CDB7DEB72C970FB6F89445
:1038D000DEBF0FBECDBF4F83588769877A878B873E
:1038E0009C87CE0107960E948E1A882369F08A85EC
:1038F0009B85892B39F04F815885842F85238F3FF5
:1039000009F077C016E065C086E0FE013796DE015B
:10391000119601900D928A95E1F76A857B85611574
:10392000710581F35F814885842F85238F3F51F393
:103930002091EE0130E0C901019687709927E0914E
:10394000ED01E817190671F40E948E191092EE012C
:103950001092ED0186E0EFE1F2E0DF011D928A9521
:10396000E9F7D0CF59834A837D836C8396E0929F99
:10397000D001939FB00D1124A151BE4FFE0131968D
:1039800001900D929A95E1F78093EE010E94DC1967
:10399000B9CF819FC001112481519E4F0E948E1A80
:1039A0008823E9F0E091ED011E9FF0011124E1511F
:1039B000FE4F4081518162817381848195810E9493
:1039C000CC198091ED0190E0019687709927809342
:1039D000ED018091ED019091EE018913DACF2C96E3
:1039E0000FB6F894DEBF0FBECDBFDF91CF911F9110
:1039F000089569857A858B859C850E94CC1982CF34
:103A0000EF92FF920F931F93CF93DF938C01892B3B
:103A100089F0F12CEE24E394E8012196F8018491D9
:103A2000843709F457C0A0F4823009F43EC048F44A
:103A30008130D1F0DF91CF911F910F91FF90EF90E6
:103A400008959CEF980F9037A8F70E9464150AC05C
:103A5000853709F44CC09CE7980F903758F78F775B
:103A60000E943F168E0116C00E5F1F4FFE0184910B
:103A700090E2980F983060F48770FE2D01C0FF0F20
:103A80008A95EAF78F2F0E943E200E94E31F02C012
:103A90000E9464158F2D815008F4BECFEFE9FFE03E
:103AA0003197F1F700C00000F6CF0E5F1F4FFE0107
:103AB000849190E2980F983050F48770FE2D01C0E9
:103AC000FF0F8A95EAF78F2F0E944420DECF0E94D5
:103AD0003F16E0CF0E5F1F4FFE01C491C150D0F2E0
:103AE0008FE99FE00197F1F700C00000F7CF0E5F6C
:103AF0001F4FFE01F490CECF08950E947C1D60936D
:103B0000290270932A0280932B0290932C020C942A
:103B10007A1908950C947D1DCF93DF9300D000D0C7
:103B2000CDB7DEB769837A838B839C83809129022A
:103B300090912A02A0912B02B0912C0229813A8106
:103B40004B815C81282B392B4A2B5B2B29833A83B1
:103B50004B835C83CA01B9010F900F900F900F90B7
:103B6000DF91CF910C947D1DCF93DF9300D000D0D7
:103B7000CDB7DEB769837A838B839C8380912902DA
:103B800090912A02A0912B02B0912C0229813A81B6
:103B90004B815C81282339234A235B2329833A8381
:103BA0004B835C83CA01B9010F900F900F900F9067
:103BB000DF91CF910C947D1DCF93DF9300D000D087
:103BC000CDB7DEB769837A838B839C83809129028A
:103BD00090912A02A0912B02B0912C0229813A8166
:103BE0004B815C81282739274A275B2729833A8321
:103BF0004B835C83CA01B9010F900F900F900F9017
:103C0000DF91CF910C947D1D0C947C1D0C94041EAF
:103C10000E94061E6093250270932602809327025D
:103C2000909328020C947A1960E070E0CB010C9418
:103C3000081E0F931F93CF93DF9300D000D0CDB712
:103C4000DEB741E050E060E070E08A019B0104C013
:103C5000000F111F221F331F8A95D2F709831A8381
:103C60002B833C83C901B8010F900F900F900F90E8
:103C7000DF91CF911F910F910C94081E0F931F930A
:103C8000CF93DF9300D000D0CDB7DEB741E050E056
:103C900060E070E004C0440F551F661F771F8A95CF
:103CA000D2F78091250290912602A0912702B0912F
:103CB00028028A019B01082B192B2A2B3B2B0983F5
:103CC0001A832B833C83C901B8010F900F900F908A
:103CD0000F90DF91CF911F910F910C94081E0F93BD
:103CE0001F93CF93DF9300D000D0CDB7DEB741E074
:103CF00050E060E070E004C0440F551F661F771F5E
:103D00008A95D2F7409550956095709580912502DF
:103D100090912602A0912702B09128028A019B016E
:103D2000082319232A233B2309831A832B833C83EB
:103D3000C901B8010F900F900F900F90DF91CF91B4
:103D40001F910F910C94081E0F931F93CF93DF9335
:103D500000D000D0CDB7DEB741E050E060E070E0C9
:103D600004C0440F551F661F771F8A95D2F78091B4
:103D7000250290912602A0912702B09128028A0183
:103D80009B01082719272A273B2709831A832B839E
:103D90003C83C901B8010F900F900F900F90DF91F5
:103DA000CF911F910F910C94081ECF93DF9300D0F9
:103DB00000D0CDB7DEB769837A838B839C838091F3
:103DC000250290912602A0912702B0912802298114
:103DD0003A814B815C81282B392B4A2B5B2B298321
:103DE0003A834B835C83CA01B9010F900F900F9007
:103DF0000F90DF91CF910C94081ECF93DF9300D0EA
:103E000000D0CDB7DEB769837A838B839C838091A2
:103E1000250290912602A0912702B09128022981C3
:103E20003A814B815C81282339234A235B232983F0
:103E30003A834B835C83CA01B9010F900F900F90B6
:103E40000F90DF91CF910C94081ECF93DF9300D099
:103E500000D0CDB7DEB769837A838B839C83809152
:103E6000250290912602A0912702B0912802298173
:103E70003A814B815C81282739274A275B27298390
:103E80003A834B835C83CA01B9010F900F900F9066
:103E90000F90DF91CF910C94081E0895BF92CF929E
:103EA000DF92EF92FF920F931F93CF93DF938C01DA
:103EB000C0902502D0902602E0902702F0902802C0
:103EC0008091290290912A02A0912B02B0912C029C
:103ED000C82AD92AEA2AFB2ACFE1D0E0BC2ED70192
:103EE000C6010C2E04C0B695A795979587950A94A0
:103EF000D2F780FD0EC0219788F7B12C8B2DDF9172
:103F0000CF911F910F91FF90EF90DF90CF90BF90D6
:103F10000895B8018C2F0E94E70F019761F3EECF4F
:103F2000CF93DF93D82FC92F0E944E1F6D2F7C2F68
:103F3000DF91CF910C94E70FCB010C94901F682F69
:103F400080915201909153010C94EA20682F809146
:103F50005201909153010C94EC2080915201909168
:103F600053010C94EE2080912D02859585958595C1
:103F7000089580912D028770089598E0899F90019F
:103F80001124622B60932D020C943E1E90912D0201
:103F90008095892380932D02282F277061F4282F84
:103FA000082E000C330B9217130629F08595859582
:103FB00085950C946F1E089590912D02977081E065
:103FC00009F480E00895E0915201F091530180914D
:103FD00039028083E0915201F091530180819091E8
:103FE0003802892B8083E0915201F0915301808146
:103FF00090913702892B808390912E02992381F032
:10400000E0915201F09153018081892B808380914E
:104010005201909153010E94B420811110922E02FE
:1040200080915201909153010C94DA1380913902DE
:10403000089590913902982B909339020895982F02
:1040400090958091390289238093390208951092C6
:104050003902089580913802089590913802982B82
:10406000909338020895982F909580913802892373
:104070008093380208951092380208959091370283
:10408000982B909337020895982F9095809137023E
:104090008923809337020895109237020895809300
:1040A0002E02089510922E02089580912E020895F6
:1040B00090939701809396010895829594E0899F4B
:1040C000900111242C7C869586958373282B30E0F3
:1040D000C901880F991F8A7A359527952575822BF6
:1040E0000895CF93DF93D92F0E945D20C82F8D2F85
:1040F0000E945D209C2FDF91CF9108956DEE7EEFA1
:1041000090E080E00E94763060E082E090E00E94E3
:10411000643060E083E090E00E94643060E084E01E
:1041200090E00E94643060E085E090E00C946430A0
:1041300090E080E00E945E309C0181E02D3E3E4F89
:1041400009F080E0089582E090E00C94563083E01E
:1041500090E00C94563084E090E00C945630682F38
:1041600084E090E00C9464309C01FC013196285F5F
:104170003F4F80E0919191118F5FE217F307D1F7E4
:1041800008959C01FC0132968FEF90E04191461713
:1041900051F08F3F19F4411101C0892F9F5F963074
:1041A000A9F78F3F09F40895280F311D87FD3A952F
:1041B000F901628308959C01FC013296285F3F4F0C
:1041C0008191861303C0DF0111971C92E217F30758
:1041D000B9F708950C94C1200C94DB20FC011182E6
:1041E000128213821482158216821782089580919A
:1041F0006202843039F110923B0288E190E020E4C1
:104200000FB6F894A895809360000FBE20936000CD
:1042100080E00E94C80F83B7817F846083BF83B72B
:10422000816083BF7894889583B78E7F83BF0FB6F4
:10423000F894A89580916000886180936000109246
:1042400060000FBE089508950895CF930E94232122
:104250000E94230B0E942421C0E08C2F0E94630B3C
:10426000811105C0CF5FCE30C1F7CF91089581E0B5
:10427000FCCF0E948E190E94CE130C94C80F1F927F
:104280001FB61F9211248F939F93AF93BF9380917A
:104290003B02811113C08091580290915902A09164
:1042A0005A02B0915B024196A11DB11D8093580244
:1042B00090935902A0935A02B0935B02BF91AF91C1
:1042C0009F918F911F901FBE1F90189582E084BD13
:1042D00093E095BD9AEF97BD80936E0008952FB738
:1042E000F8948091580290915902A0915A02B0918D
:1042F0005B022FBF0895CF93DF9300D000D0CDB7DE
:10430000DEB78FB7F894209158023091590240914E
:104310005A0250915B0229833A834B835C838FBF9F
:1043200069817A818B819C810F900F900F900F9003
:10433000DF91CF910895CF92DF92EF92FF929C018F
:104340004FB7F8948091580290915902A0915A0267
:10435000B0915B024FBF6C017D01EE24FF24A901E7
:1043600070E060E0C416D506E606F70638F0821B5A
:10437000930BFF90EF90DF90CF9008950197F7CFC8
:1043800078941F921FB61F9211248F939F93AF931F
:10439000BF938091580290915902A0915A02B09116
:1043A0005B020196A11DB11D8093580290935902A2
:1043B000A0935A02B0935B02BF91AF919F918F91EE
:1043C0001F901FBE1F90189587E797E790930108ED
:1043D0008093000888E19AE00FB6F894A89580933E
:1043E00060000FBE90936000FFCFCF93DF9300D0AB
:1043F00000D0CDB7DEB70E949820811102C00E9484
:104400007E200E94A32080933A020E94AB2090E07D
:1044100090935D0280935C020E94A720282F30E0D9
:1044200050E040E029833A834B835C83CA01B901A1
:104430000F900F900F900F90DF91CF910C948A1DE9
:1044400080913F0280FF12C06091570185E0689F14
:10445000B00111247595679575956795603871055C
:10446000A8F561157105A1F1862F089581FF09C096
:104470006091570185E0689FB0011124759567959B
:10448000EDCF6091570182FD0AC0809140028823E0
:10449000D1F09091560160915701891728F085E07D
:1044A000689FB0011124DACF869FB001112485E006
:1044B000869F9001879F300D1124692F70E0C901FC
:1044C0000E942830CBCF65E070E0CECF8FE7089513
:1044D00081E0089580913F0280FF0CC060915501FA
:1044E00070E075956795759567956115710549F14A
:1044F000862F089581FF06C06091550170E0759583
:104500006795F3CF6091550182FD0BC090914002F9
:104510009923A1F06091540180915501961738F0CC
:10452000682F70E06038710500F38FE70895899F68
:10453000C001112470E00E942830F4CF61E070E0E7
:10454000D7CF81E00895803F31F40E9420228195E9
:10455000809343020895813F19F40E942022F8CFEE
:10456000823F31F40E942022819580934202089577
:10457000833F19F40E942022F8CF893F29F40E943A
:104580006A228093440208958A3F21F40E946A229D
:104590008195F7CF8B3F31F40E946A2281958093F9
:1045A000450208958C3F19F40E946A22F8CF843F97
:1045B00031F4809141028160809341020895853FEA
:1045C00021F4809141028260F7CF863F21F48091EF
:1045D00041028460F1CF873F21F4809141028860DD
:1045E000EBCF883F21F4809141028061E5CF8D3F80
:1045F00031F480913F02816080933F0208958E3FA5
:1046000021F480913F028260F7CF8F3FB9F780910C
:104610003F028460F1CF90914202803F41F480914B
:10462000430287FD10924302992371F00895813F60
:1046300029F4809143021816ACF3F6CF823F81F43F
:1046400097FFF2CF10924202809143029091440270
:10465000892B90914502892B49F7109240020895C9
:10466000833F19F4191674F3DFCF893F39F4809131
:1046700044021816CCF610924402D6CF8A3F29F491
:104680008091440287FFD0CFF6CF8B3F39F48091E1
:10469000450287FFC9CF10924502C6CF8C3F29F44F
:1046A000809145021816BCF3BFCF843F31F480914E
:1046B00041028E7F80934102B7CF853F21F48091E4
:1046C00041028D7FF7CF863F21F4809141028B7F9D
:1046D000F1CF873F21F480914102877FEBCF883F64
:1046E00021F4809141028F7EE5CF8D3F31F480919E
:1046F0003F028E7F80933F0297CF8E3F21F48091BF
:104700003F028D7FF7CF8F3F09F08ECF80913F0220
:104710008B7FF0CF80913A0283FF7EC08EE299E0DA
:104720000E944509809141021F928F9389E299E08E
:104730009F938F930E94DE0987E299E00E944509CA
:1047400080914202282F082E000C330B3F938F9349
:1047500084E299E09F938F930E94DE0982E299E0C0
:104760000E94450980914302282F082E000C330B2C
:104770003F938F938FE199E09F938F930E94DE097F
:104780008DE199E00E94450980914402282F082E6E
:10479000000C330B3F938F938AE199E09F938F93A3
:1047A0000E94DE0988E199E00E9445098091450256
:1047B000282F082E000C330B3F938F9385E199E04F
:1047C0009F938F930E94DE0982E199E00E94450940
:1047D000809140021F928F938FE099E09F938F9377
:1047E0000E94DE098DE099E00E94450980913F0218
:1047F0001F928F938AE099E09F938F930E94DE0926
:1048000087E099E00E9445098DB79EB74C960FB698
:10481000F8949EBF0FBE8DBF81E492E00E942614E3
:104820000E946F2190933D0280933C0208951F9354
:10483000CF93DF9380913C0290913D020E949B2197
:10484000AC01809140022091580130E0811106C0F6
:1048500020913E029AE0299F9001112442175307AC
:1048600078F020914202C091430210914402D0910D
:104870004502211109C09C2F912B9D2B09F05DC091
:10488000DF91CF911F9108958F3F19F08F5F809333
:104890004002121624F40E9420228093420280914A
:1048A000420287FF05C00E94202281958093420228
:1048B0001C1624F40E94202280934302809143021C
:1048C00087FF05C00E94202281958093430240917A
:1048D0004202442379F030914302332359F025EB0F
:1048E0004203A0011124509342023203900111248B
:1048F00030934302111624F40E946A2280934402EA
:104900008091440287FF05C00E946A2281958093AE
:1049100044021D1624F40E946A228093450280916D
:10492000450287FF05C00E946A2281958093450257
:10493000DF91CF911F910C948A238F3F09F0A6CF6E
:10494000B7CF85E0E1E4F2E0DF011D928A95E9F757
:104950001092400210923F02089581E59BE00E9470
:1049600045091F9281E08F931F9285E08F9383E02A
:104970009BE09F938F930E94DE090F900F900F9002
:104980000F900F900F900895843009F45DC040F4AB
:10499000823061F1833009F440C0813041F00895E4
:1049A000853009F468C0863009F47CC00895809190
:1049B0003E02482F460F5527551F4F3F510594F48F
:1049C000680F60933E0280913E021F928F938CE3AA
:1049D0009AE09F938F930E94DE090F900F900F90A3
:1049E0000F9008958FEF80933E02EDCF8091580194
:1049F000482F460F5527551F4F3F510554F4680F58
:104A000060935801809158011F928F938AE29AE037
:104A1000E0CF8FEF80935801F5CF80915701482F59
:104A2000460F5527551F4F3F510554F4680F6093AB
:104A30005701809157011F928F9387E19AE0C9CF68
:104A40008FEF80935701F5CF80915601482F460F85
:104A50005527551F4F3F510554F4680F6093560179
:104A6000809156011F928F9382E09AE0B2CF8FEF30
:104A700080935601F5CF80915501482F460F552759
:104A8000551F4F3F510554F4680F609355018091B5
:104A900055011F928F9389EE99E09BCF8FEF809302
:104AA0005501F5CF80915401482F460F5527551FCA
:104AB0004F3F510554F4680F6093540180915401A5
:104AC0001F928F938EEC99E084CF8FEF80935401E7
:104AD000F5CF843009F44AC038F4823029F18330AC
:104AE000A1F1813041F00895853009F450C086303D
:104AF00009F45EC0089580913E02681790F4861B09
:104B000080933E0280913E021F928F938FEB99E03B
:104B10009F938F930E94DE090F900F900F900F903C
:104B2000089510923E02EECF80915801681750F41C
:104B3000861B80935801809158011F928F938DEAB4
:104B400099E0E6CF10925801F6CF8091570168178F
:104B500050F4861B80935701809157011F928F93C9
:104B60008AE999E0D5CF10925701F6CF809156018E
:104B7000681750F4861B80935601809156011F924E
:104B80008F9385E899E0C4CF10925601F6CF8091BB
:104B90005501681750F4861B80935501809155018B
:104BA0001F928F938CE699E0B3CF10925501F6CF08
:104BB00080915401681750F4861B809354018091B2
:104BC00054011F928F9381E599E0A2CF1092540176
:104BD000F6CFCF93DF9300D000D0CDB7DEB7898377
:104BE0001F928F9386E59CE09F938F930E94DE092E
:104BF00081E090E0A0E0B0E09C01AD01098004C03C
:104C0000220F331F441F551F0A94D2F729833A837A
:104C10004B835C83CA01B9010E948A1D0F900F90DB
:104C20000F900F900F900F900F900F90DF91CF91FA
:104C30000C948E198A3258F4863098F0EAEFE80F17
:104C4000E43278F4F0E0E054FF4C0C943C308334D0
:104C500070F48A3308F0D7C0853309F4D0C08833A4
:104C6000F1F08BE89FE00E94450980E008958334CD
:104C700009F4C5C08834A9F70E948E1989EF9FE016
:104C80000E9445092FEF83ED90E321508040904032
:104C9000E1F700C000000E94E42181E008958FEF59
:104CA0009DE00E944509F9CF80913A02807F809370
:104CB0003A0288ED9DE00E94450985E190E10E945D
:104CC000450981E080934702089590913A02892F27
:104CD0008E7F90FF816080933A0280FF03C08DEE4B
:104CE0009FE0DFCF80EE9FE00E94450980913A026D
:104CF000817F80933A02D1CF90913A02892F8D7FA4
:104D000091FF826080933A0281FF08C083ED9FE0AB
:104D10000E94450980913A028160EBCF85EC9FE0CB
:104D2000C0CF90913A02892F8B7F92FF846080934D
:104D30003A0282FF03C086EB9FE0EACF86EA9FE05B
:104D4000B0CF90913A02892F877F93FF886080933C
:104D50003A0283FF03C08AE99FE0DACF8DE89FE043
:104D6000A0CF89EC9DE00E9445098CE89DE00E945F
:104D7000450983E59DE00E94450985E29DE00E948A
:104D800045098FEE9CE00E94450984EC9CE089CFA8
:104D900086EB9CE00E9445090E94CE131F928F93E0
:104DA0008CE99CE09F938F930E94DE0980916301C0
:104DB0001F928F9385E89CE09F938F930E94DE095A
:104DC000809154021F928F9382E79CE09F938F9370
:104DD0000E94DE090E947B219F938F937F936F93A4
:104DE0008BE59CE09F938F930E94DE098DB79EB761
:104DF00042960FB6F8949EBF0FBE8DBF4ECF80E097
:104E00000E94E9254ACF8953FBCF8D51F9CF80E02D
:104E100008950C9407278E518A3030F4E82FF0E083
:104E2000E858FE4F8081089580E00895CF93C82F01
:104E3000809147028130C1F0823009F44CC0811169
:104E40003AC1E0915201F09153018081823209F020
:104E500034C18C2F0E94072781111EC08C2F0E9405
:104E60001A268170CF910895E0915201F09153017B
:104E70008081823271F38C2F0E94092781111BC01F
:104E8000C431D9F060F4CB3071F0C031D1F08CE492
:104E90009CE00E94450913C081E090E0E2CFC93256
:104EA00061F0C833A1F788ED9DE00E94450982E5D5
:104EB0009CE00E94450981E0D4CF1092470280E037
:104EC000D0CF0E94AD248EE49CE00E94450982E090
:104ED00080934702F0CFC93209F445C060F5C33171
:104EE00009F450C050F4C73009F4CDC0CB30C1F143
:104EF00080EF9AE00E9445091CC0C431A1F182EE06
:104F00008C0F8630A8F78C2F0E940B2780934602C7
:104F100080914602882309F4CBC01F928F938AEEBA
:104F20009AE09F938F930E94DE090F900F900F904D
:104F30000F9081E097CFCE3409F4A3C050F4C8336A
:104F400079F06AE0CB34A1F6809146020E94C42435
:104F5000DFCFC13509F48FC061E0C235A9F3C8CFF6
:104F60000E94AD24D5CF80914602882319F010927B
:104F70004602CECF8FEF9AE00E94450981E08093F0
:104F8000470270CF89ED9AE00E94450987EC9AE0CC
:104F90000E94450980913E021F928F9384EC9AE013
:104FA0009F938F930E94DE0982EC9AE00E9445094C
:104FB00080EB9AE00E944509809158011F928F93DF
:104FC0008DEA9AE09F938F930E94DE098BEA9AE024
:104FD0000E9445098CE99AE00E9445098091570199
:104FE0001F928F9389E99AE09F938F930E94DE0925
:104FF00087E99AE00E94450986E89AE00E944509FF
:10500000809156011F928F9383E89AE09F938F932C
:105010000E94DE0981E89AE00E9445098CE69AE048
:105020000E944509809155011F928F9389E69AE06D
:105030009F938F930E94DE0987E69AE00E944509BC
:1050400080E59AE00E944509809154011F928F9358
:105050008DE49AE09F938F930E94DE098BE49AE09F
:105060000E9445098DB79EB748960FB6F8949EBF2B
:105070000FBE8DBF4DCF61E0809146020E94692531
:1050800047CF6AE0F9CF10923E0280E18093580149
:10509000C09357018CE38093560188E080935501BB
:1050A00088E28093540182EF9AE00E94450930CF54
:1050B00087EE9AE01FCF1092470280E0D3CE809116
:1050C000530208959FB7F89410924A029FBF90919F
:1050D0006202943009F048C02091E9002F703091AD
:1050E000EC00932F917030FD90E8922B24E02093F8
:1050F000E9002091EB0020FF34C02091EE0027FF53
:1051000030C020914802222321F02091E80025FFA1
:1051100028C01092480226E03091E80035FF14C004
:105120008093F1008091E80085FD27C08091E80020
:1051300080FFFCCF8091E8008E778093E8009F701D
:105140009093E90080E0089530916202343049F490
:105150003091EB0035FD05C0215041F481E0809392
:1051600048029F709093E9008FEF0895EFE9FFE008
:105170003197F1F700C00000CFCF8FB7F89421E04E
:1051800020934A028FBFDBCF0F931F93CF93DF9300
:1051900000D00F92CDB7DEB78C010E94782B823001
:1051A00011F0843019F583E089830A831B8380938F
:1051B000E9008FEF9091E800815095FD06C095EDD4
:1051C0009A95F1F700008111F5CF8091E80085FFF5
:1051D0000DC050E040E063E070E0CE0101960E9417
:1051E000952B8091E8008E778093E8000F900F90C8
:1051F0000F90DF91CF911F910F910895CF93DF937F
:1052000000D00F92CDB7DEB79C018091620284304E
:1052100031F582E08983205831093B832A8383E07A
:105220008093E9008FEF9091E800815095FD06C0D2
:1052300095ED9A95F1F700008111F5CF8091E80086
:1052400085FF0DC050E040E063E070E0CE010196C4
:105250000E94952B8091E8008E778093E8000F9054
:105260000F900F90DF91CF910895CF93DF93D82FB8
:10527000C92F0E94782B823011F0843001F582E032
:105280008093E9008FEF9091E800815095FD06C072
:1052900095ED9A95F1F700008111F5CF8091E80026
:1052A00085FF0DC050E040E065E070E08D2F9C2F41
:1052B0000E94952B8091E8008E778093E800DF9123
:1052C000CF910895CF93DF93D82FC92F0E94782BC9
:1052D000823011F0843049F581E08093E9008FEF4E
:1052E0009091E800815095FD06C095ED9A95F1F7F3
:1052F00000008111F5CF8091E80085FF16C050E0D5
:1053000040E068E070E08D2F9C2F0E94952B8091EB
:10531000E8008E778093E80088E0ED2FFC2FABE467
:10532000B2E001900D928A95E1F7DF91CF91089557
:105330008EE390E10E94450980916102811109C0CC
:105340000E941D2D0E947A2D8091E200846080933E
:10535000E20008958AE390E10E94450910926102FB
:10536000089586E390E10C94450982E390E10C9462
:1053700045098EE290E10E9445090C943921209163
:1053800049022F5F822F62E30E941C30992319F09B
:105390002093490208951092490280914A0288237D
:1053A000F1F0809162028430C1F49091E9009F7025
:1053B0002091EC00822F817020FD80E8892B94E001
:1053C0009093E9009091EB0090FF04C09091EE0063
:1053D00097FD08C08F708093E90010924A020895EB
:1053E0001092F1009091E80095FDFACF9091E800BD
:1053F00090FFF0CF9091E8009E779093E800EACF7D
:1054000042E061EC81E00E94992C42E061EC82E094
:105410000E94992C42E061EC83E00E94992C42E2C8
:1054200061EC84E00C94992C80916402893081F1C4
:1054300048F4823009F491C0833009F44CC08130C3
:1054400041F008958A3009F478C08B3009F45EC0C9
:10545000089580916302813AE9F58091E800877FA1
:105460008093E8008091670290916802892B61F433
:1054700068E08BE492E070E00E94E42B8091E80009
:105480008B778093E800089560E090E080E0F3CFB0
:10549000809163028132F1F48091670290916802F9
:1054A000892BC1F48091E800877F8093E800809188
:1054B000E80082FF0BC08091F1008093530280913D
:1054C000E8008B778093E8000C94CD2C80916202E9
:1054D0008111EDCF089580916302813AD9F78091CF
:1054E000670290916802892BA9F78091E800877F75
:1054F0008093E8008091E80080FFFCCF80916301F9
:105500008093F1008091E8008E77DCCF8091630278
:10551000813201F78091670290916802892BD1F660
:105520008091E800877F8093E8000E94CD2C8091D5
:105530006502809363010C948E198091630281321D
:1055400049F68091E800877F8093E8000E94CD2C87
:105550008091660280935402089580916302813A9B
:1055600009F0B8CF8091E800877F8093E8008091B0
:10557000E80080FFFCCF80915402C2CF84B7877FC0
:1055800084BF0FB6F894A8958091600088618093DD
:105590006000109260000FBE80E88093610010925E
:1055A00061000E945D140E941D2D0E947A2D809141
:1055B000E20084608093E20082E698E20E94582034
:1055C00078940E9401300E94611489E591E00E9464
:1055D000C9138DE190E10E944509809162028530F6
:1055E00019F00E948F14F9CF89E190E10E944509DA
:1055F0000E94F72080916002882379F30E94252180
:10560000882359F30E947F2BE8CF0C94072BFC01D1
:10561000CB01DA012F2F332723303105D1F070F47D
:105620002130310509F44EC02230310569F484E798
:1056300090E024E730E12D933C9308952132310529
:1056400021F12232310571F190E080E030E020E07C
:10565000F2CFCF019927E230A9F08330910550F4C1
:10566000009769F0E8E5F0E1019771F7849190E027
:105670009F01E1CFE2E4F0E10397C1F3E5CFE0E77A
:10568000F0E1F4CFE8E4F0E1F1CF64307105E0F649
:10569000880F991FFC01E257FE4F2081318189E07C
:1056A00090E0C9CF6430710578F6FB01EE0FFF1F63
:1056B000EA57FE4F208131818E579E4FFC01808139
:1056C00090E0B9CF82E190E028EE30E1B4CF0895C8
:1056D000CF93C82F0E94672BC0935502CF91089596
:1056E00080916202843011F482E0089581E008958F
:1056F00080915502811102C00C94702B089580E1B5
:1057000089BD82E189BD09B400FEFDCF8091D8003A
:105710008F7D8093D8008091E00082608093E000CC
:105720008091E00081FDFCCF0895AF92BF92CF92AF
:10573000DF92FF920F931F93CF93DF936C01EB01E6
:105740008A010E94EC2CF82E811123C0011511054D
:1057500039F0F80180819181C81BD90BC80ED91E80
:10576000B12CA12C2097A9F08091E80085FD22C0E2
:105770008091E8008E778093E80001151105A1F073
:10578000F80180819181A80EB91EB182A08285E0C6
:10579000F82E8F2DDF91CF911F910F91FF90DF9009
:1057A000CF90BF90AF9008950E94EC2C8823D1F247
:1057B000F82EEFCFF60181916F018093F1002197D0
:1057C000FFEFAF1ABF0ACECFFC01CB0120916902D7
:1057D00030916A022617370790F0009729F420913C
:1057E000E8002E772093E80040E0009751F4411143
:1057F00008C08091E80082FF31C080E00895C901AF
:10580000F3CF209162022223A9F12530A9F1209142
:10581000E80023FD2DC02091E80022FDEACF209171
:10582000E80020FFE2CF3091F3002091F2000097D2
:1058300019F02830310558F041E02830310509F0E1
:1058400040E02091E8002E772093E800CECF4191F0
:105850004093F10001972F5F3F4FE9CF80916202A3
:10586000882341F0853041F08091E80083FFC1CF6B
:1058700081E0089582E0089583E00895FC01CB0162
:105880002091690230916A022617370790F000973D
:1058900029F42091E8002E772093E80040E000975B
:1058A00051F4411108C08091E80082FF32C080E0CD
:1058B0000895C901F3CF209162022223B1F125306E
:1058C000B1F12091E80023FD2EC02091E80022FDD7
:1058D000EACF2091E80020FFE2CF3091F300209141
:1058E000F200009719F02830310558F041E02830D7
:1058F000310509F040E02091E8002E772093E80080
:10590000CECF44914093F100319601972F5F3F4FE6
:10591000E8CF80916202882341F0853041F0809188
:10592000E80083FFC0CF81E0089582E0089583E01E
:105930000895982F973028F08F708093E90081E0C8
:1059400008959093E900242F762F50E0981731F0B6
:105950007091EC002091ED005091F00021FD02C00B
:105960009F5FE8CF3091EB003E7F3093EB003091AA
:10597000ED003D7F3093ED003091EB0031603093CE
:10598000EB007093EC002093ED005093F000209119
:10599000EE0027FDE5CF80E008958091630287FF48
:1059A00013C08091E80082FF06C08091E8008B77E9
:1059B0008093E80004C0809162028111F2CF0895C3
:1059C000809162028823D9F38091E80080FFF8CFAC
:1059D0008091E8008E77ECCF2091E4003091E500D3
:1059E00095E6A9012091EC00822F817020FF06C06E
:1059F0008091E80080FF06C080E008952091E800D3
:105A000022FD1AC080916202882389F0853089F0D6
:105A10008091EB0085FD0FC02091E4003091E500FE
:105A200042175307F9F29150E1F684E0089582E0BD
:105A3000089583E0089581E008950E948B2D0E94CF
:105A4000932DE0EEF0E0808181608083E8EDF0E06E
:105A500080818F77808319BCA7EDB0E08C918E7F19
:105A60008C9380818F7E80831092610208950F93C2
:105A70001F93CF93DF930E948B2D0E94932DC8ED2F
:105A8000D0E088818F778883888180688883888147
:105A90008F7D888319BC1092620210925E02109270
:105AA000600210925F0200EE10E0F80180818B7FAF
:105AB000808388818160888342E060E080E00E948A
:105AC000992CE1EEF0E080818E7F8083E2EEF0E0C1
:105AD000808181608083808188608083F8018081FB
