:100000000C949A0C0C94F20F0C94E10C0C94E10CEF
:100010000C94E10C0C94E10C0C94E10C0C94E10CAC
:100020000C94E10C0C94E10C0C94B4300C948631DB
:100030000C943F240C94E10C0C94E10C0C94E10C16
:100040000C94E10C0C94E10C0C94E10C0C94E10C7C
:100050000C94E10C0C94B3240C94E10C0C94E10C82
:100060000C94E10C0C94E10C0C94E10C0C94E10C5C
:100070000C94E10C0C94E10C0C94E10C0C94E10C4C
:100080000C94E10C0C94E10C0C94E10C0C94E10C3C
:100090000C94E10C0C94E10C0C94E10C0C94E10C2C
:1000A0000C94E10C0C94E10C0C94E10C0B1110116C
:1000B00015111D1125112A1145118A118A118A1154
:1000C0004A1152115A115F116411691153125512DC
:1000D0006012571259125B125D125F1262126412A3
:1000E0006612711268126A126C126E12701273121A
:1000F000E21AE21A141B141B521B721BE21CE21CB4
:10010000B41BE21C611C611CD21CE21CE21CDB1C47
:100110006E1C6E1C6E1C6E1C6E1C6E1C6E1C6E1C8F
:100120006E1C6E1C6E1C6E1C6E1C6E1C6E1C6E1C7F
:100130007F1C8D1C941C9B1CA51C711D711D831D97
:10014000831D7A1D831D831D831D711D711D7F1DE0
:10015000831D831D7F1DF3311A320C331A320C3389
:10016000663289320C33DF32EE320A002530313606
:1001700062003A200025303258000A722F63203086
:100180003132333435363738394142434445460AF3
:10019000004B4C3A206B633A2025752C20636F6C22
:1001A0003A2025752C20726F773A2025752C207007
:1001B0007265737365643A2025750A0001E301E0F6
:1001C000014F024F02E002E30001E301E0015002AF
:1001D0005002E002E30001E30115021574FF02E39F
:1001E00074FF010602060110021001070207012830
:1001F000022874FF01130213010C020C01110211F9
:10020000010A020A012C022C01E00119021902E084
:100210000001E30115021502E301060206011002C6
:1002200010010702070128022874FF74FF010C0265
:100230000C0113021301060206011202120111023F
:100240001101090209010C020C010A020A012C0227
:100250002C0138023801040204010F020F010F02C1
:100260000F012802280001E30115021574FF02E3C3
:1002700074FF01060206011002100107020701289F
:1002800002280001E0010402040106020602E00067
:1002900001E00119021902E00001E0010602060274
:1002A000E000757365726E616D65012B706173732B
:1002B000012B012800750A012B022B010C020C01F5
:1002C000110211012B022B01280228012B022B0104
:1002D0002B022B012B022B010C020C01110211012C
:1002E0002B022B0128022800750A012B022B011278
:1002F000021201170217012B022B01280228012BE1
:10030000022B012B022B012B022B011D021D0115BB
:100310000215012B022B0128022800750A012B026D
:100320002B0112021201130213012B022B012802CE
:1003300028012B022B012B022B012B022B011D026A
:100340001D01150215012B022B01280228006970DE
:10035000636F6E666967202F616C6C0000750A011F
:1003600027022701060206012B022B012B022B017B
:10037000040204012B022B00011B021B00750A0161
:10038000E001170217011902190128022802E000F2
:100390007777772E737570706F72742E7865726FC1
:1003A000782E636F6D012800656D61696C00750AB8
:1003B000010402040107020701100210010C020CE3
:1003C00001110211744B012B022B011E021E011E92
:1003D000021E011E021E011E021E0128022800012B
:1003E000E3012B022B02E3002B0014001A0008008B
:1003F000150017002A0004001600070009000A0073
:1004000029001D001B00060019000500E0001D0169
:10041000E200E3000151140004000500060007009B
:100420001E001F000C000D002000210022002300F0
:100430000C000D00200021002200230031001300D9
:1004400012000C0018001C00340033420F000E0094
:100450000D000B00E50038003700360010001100D9
:100460004F00520051005000015124004C004D003B
:100470004A00E5002500260028002C0004000500A5
:10048000060007001E001F0020002100220023009C
:1004900001001E021F022F02300231022D02200233
:1004A00021022602270235000100220223022F002A
:1004B00030003502010001000100010001001E02B0
:1004C00004000500060007001E001F000C000D00C0
:1004D00020002100220023000C000D00200021003C
:1004E000220023002D00550026002500240036029E
:1004F0002E00560023002200210037020100570081
:1005000020001F001E0024020100540037002700B5
:10051000010024004C004D004A00E50025002600A3
:1005200028002C0004000500060007001E001F0024
:100530002000210022002300010001000100F00042
:100540000100010001000100F200F100F3000100D0
:100550000100010001000100010001000100010093
:100560000100010001000100040005000600070071
:100570001E001F000C000D0020002100220023009F
:100580000C000D00200021002200230001000100CA
:100590000100F9004C050F08AE000100FC00FA0054
:1005A000FB00010001000100A900AA00AB00AC00A3
:1005B0000100010001000100010024004C004D0079
:1005C0004A00E50025002600F500F40004000500BF
:1005D000060007001E001F0020002100220023004B
:1005E00045003A003B003C003D003E000100010098
:1005F0000330023001000F3001000630010001001D
:1006000001000100005C01000130010001003A001E
:100610004B004E004A004D001E001F000030DE5C03
:1006200020002100220023000030DE5C2000210099
:1006300022002300440043004200410040003F00EC
:1006400001000A3001000100010001000100010069
:100650000B305200010001000100005C01004F005E
:100660005100240046004C002A00E100250026002D
:1006700028002C0004000500060007001E001F00D3
:1006800020002100220023002E431E001F00200016
:100690002100220025001E0003301E001E001E0047
:1006A00025001E001E001E001E001E00005C1E0015
:1006B0001E001E001E001E004B004E004A004D0092
:1006C0001E001F000030DE5C2000210022002300FD
:1006D0000030DE5C20002100220023002D002700D6
:1006E00026002500240023000000560023002200DD
:1006F000210000000000570020001F001E00000025
:10070000005C0000370027002700240046004C0052
:100710002A00E1002500260028002C000400050026
:10072000060007001E001F002000210022002300F9
:1007300045003A003B003C003D003E000100200027
:1007400020002000200020000100010052000100D4
:10075000010001000100500051004F0001003A006B
:100760004B004E004D004A001E001F000030DE5CB2
:1007700020002100220023000030DE5C2000210048
:1007800022002300440043004200410040003F009B
:100790000100010001000100010001000100520000
:1007A00001000100010001004F0051005000010054
:1007B0000400240046004C002A00DD5C25002600D1
:1007C00028002C0004000500060007001E001F0082
:1007D0002000210022002300000000000000000093
:1007E0000000000000000000000000000000000009
:1007F00000000000000000000000000000000000F9
:1008000000000000000000000000000000000000E8
:1008100000000000000000000000000000000000D8
:100E600000000000000000000100DB5CDC5CDA5CDC
:100E7000C15CC45C0100DB5C01001D5C1E5C135C9A
:100E800001001E001E000100010001000100010020
:100E90000100DA5C0100DB5C0100010001000100DF
:100EA0001E001F000100010020002100220023007D
:100EB0000100010020002100220023000100C75C86
:100EC000C85CC55CC65CC35C01000100DC5CDA5C2C
:100ED000DB5C0A5C0100010001000100010001006F
:100EE000005C01000100010001002400010001007C
:100EF000010001002500260001000100040005009A
:100F0000060007001E001F00200021002200230011
:100F100044454255473A20656E61626C65642E0A0D
:100F20000000000000000000002A2B280000000044
:100F30000000000000000000000000002900000088
:100F4000002C1E3420212224342627252E362D372E
:100F500038271E1F202122232425263333362E37FF
:100F6000381F0405060708090A0B0C0D0E0F101197
:100F700012131415161718191A1B1C1D2F313023A4
:100F80002D350405060708090A0B0C0D0E0F10116C
:100F900012131415161718191A1B1C1D2F31303572
:100FA0004C000000000000000000000000000000F5
:100FB0000000000000000000000000000000000031
:100FC0000000010101010101000101010100000017
:100FD000000000000000000000000001000100010E
:100FE00001010101010101010101010101010101F1
:100FF00001010101010101010101010100000001E4
:1010000001000000000000000000000000000000DF
:1010100000000000000000000000000001010101CC
:10102000000A002530325820006B6579626F6172CA
:10103000645F7265706F72743A20000A0025303266
:1010400058006B6579626F6172645F7365745F6C81
:1010500065643A2000290A002575002F00257500D7
:101060005D28002564002000256400200025640020
:1010700020002564007C0025303258006D6F7573A8
:10108000656B6579205B62746E7C782079207620B0
:10109000685D287265702F61636C293A205B006D72
:1010A0006B5F776865656C5F74696D655F746F5FB2
:1010B0006D6178203D2025640A006D6B5F7768655F
:1010C000656C5F6D61785F7370656564203D202598
:1010D000640A006D6B5F74696D655F746F5F6D614D
:1010E00078203D2025640A006D6B5F6D61785F7329
:1010F00070656564203D2025640A006D6B5F696E34
:1011000074657276616C203D2025640A006D6B5F0A
:1011100064656C6179203D2025640A006D6B5F7702
:101120006865656C5F74696D655F746F5F6D61782C
:10113000203D2025640A006D6B5F776865656C5FF4
:101140006D61785F7370656564203D2025640A00D9
:101150006D6B5F74696D655F746F5F6D6178203D65
:101160002025640A006D6B5F6D61785F7370656543
:1011700064203D2025640A006D6B5F696E746572A2
:1011800076616C203D2025640A006D6B5F64656CA0
:101190006179203D2025640A000A00257500363A51
:1011A00020776865656C5F74696D655F746F5F6DEE
:1011B00061783A20000A00257500353A2077686585
:1011C000656C5F6D61785F73706565643A20000AD5
:1011D00000257500343A2074696D655F746F5F6D2A
:1011E00061783A20000A00257500333A206D617855
:1011F0005F73706565643A20000A00257500323A15
:1012000020696E74657276616C286D73293A2000CE
:101210000A00257500313A2064656C6179282A310D
:10122000306D73293A20000A092D2056616C7565CE
:1012300073202D0A004D3E004D25643E20003F00E6
:101240007365742064656661756C740A00433E20A2
:101250000077686572652064656C74613A20637517
:1012600072736F723D25642C20776865656C3D252F
:10127000640A53656520687474703A2F2F656E2E6A
:1012800077696B6970656469612E6F72672F776922
:101290006B692F4D6F7573655F6B6579730A000A13
:1012A000092D204D6F7573656B6579202D0A4553A7
:1012B000432F713A09717569740A313A0964656C92
:1012C0006179282A31306D73290A323A09696E74BE
:1012D000657276616C286D73290A333A096D6178FD
:1012E0005F73706565640A343A0974696D655F748B
:1012F0006F5F6D61780A353A09776865656C5F6D77
:1013000061785F73706565640A363A097768656568
:101310006C5F74696D655F746F5F6D61780A0A70E8
:101320003A097072696E742076616C7565730A642F
:101330003A097365742064656661756C74730A7527
:10134000703A092B310A646F776E3A092D310A70B1
:101350006775703A092B31300A7067646F776E3A9F
:10136000092D31300A0A7370656564203D2064657B
:101370006C7461202A206D61785F737065656420EC
:101380002A2028726570656174202F2074696D654C
:101390005F746F5F6D6178290A003F004D3E200049
:1013A000433E20004C25640A0074696D65725F72CB
:1013B000656164333228293A202530346C580A009C
:1013C0006B6579626F6172645F69646C653A202550
:1013D000580A006B6579626F6172645F70726F7436
:1013E0006F636F6C3A2025580A00686F73745F6BE7
:1013F0006579626F6172645F6C65647328293A2055
:1014000025580A000A092D20537461747573202D24
:101410000A004743433A20342E392E322041565297
:101420002D4C4942433A20322E302E302041565224
:101430005F415243483A20617672350A004F50545A
:10144000494F4E533A204C554641204D4F55534538
:101450004B45592045585452414B455920434F4E16
:10146000534F4C4520434F4D4D414E44203430396D
:10147000360A004255494C443A2022323032302D4F
:1014800030322D31332D30393A30313A3534222053
:101490002830393A30323A303220466562203133D2
:1014A0002032303230290A005649443A20307846FA
:1014B00045454428434820626F784D6F6473292066
:1014C0005049443A203078333036302844616374D0
:1014D000796C29205645523A203078303030310A24
:1014E00000444553433A20412073706C6974206571
:1014F00072676F6E6F6D6963206B6579626F617281
:101500006420666F722074686520616476656E740D
:1015100065726F7573206D616B6572730A000A09DD
:101520002D2056657273696F6E202D0A000A092DF1
:1015300020436F6E736F6C65202D0A4553432F71E6
:101540003A09717569740A6D3A096D6F7573656B47
:1015500065790A000A092D204D61676963202D0A0B
:10156000443A094465627567204D65737361676528
:1015700020546F67676C650A583A094D6174726947
:1015800078204465627567204D6F646520546F67ED
:10159000676C65202D2053686F77206B65797072BA
:1015A000657373657320696E206D6174726978204C
:1015B000677269640A4B3A094B6579626F617264BC
:1015C00020446562756720546F67676C65202D2025
:1015D00053686F77206B65797072657373207265DD
:1015E000706F72740A4D3A094465627567204D6FD9
:1015F00075736520546F67676C650A563A095665BE
:101600007273696F6E0A533A095374617475730A81
:10161000433A09416374697661746520436F6E7360
:101620006F6C65204D6F64650A46312D4631303A46
:101630000953776974636820746F204C617965720F
:1016400020302D392028463130203D204C30290AC9
:10165000302D393A0953776974636820746F204CD0
:101660006179657220302D390A4553433A09537721
:101670006974636820746F204C6179657220302032
:1016800028616C7465726E617465206B65792031B8
:10169000290A47524156453A0953776974636820CD
:1016A000746F204C6179657220302028616C7465FC
:1016B000726E617465206B65792032290A5041553C
:1016C00053453A094A756D7020746F20426F6F74EC
:1016D0006C6F6164657220285265736574290A0015
:1016E0003F000A6D6F7573653A206F66660A000ADF
:1016F0006D6F7573653A206F6E0A000A6B657962CB
:101700006F6172643A206F66660A000A6B657962DF
:101710006F6172643A206F6E0A000A6D61747269BB
:10172000783A206F66660A000A6D61747269783AC9
:10173000206F6E0A000A64656275673A206F6666FC
:101740000A000A64656275673A206F6E0A000A0A29
:101750004A756D70696E6720746F20626F6F746C6C
:101760006F616465722E2E2E2000433E20005B7355
:101770005D004B6579626F6172642073746172748D
:101780002E0A005B575D005B535D005B525D005BA2
:10179000445D005B435D000403300000000E034421
:1017A0000061006300740079006C000000160343C0
:1017B000004800200062006F0078004D006F006458
:1017C000007300000004030904090274000401000E
:1017D000A0FA090400000103010100092111010020
:1017E000012240000705810308000A0904010001E5
:1017F00003010200092111010001224D00070582A9
:101800000308000A09040200010300000009211175
:101810000100012236000705830308000A090403BA
:10182000000203000000092111010001222200072B
:1018300005840320000107050403200001120110A4
:101840000100000008EDFE60300100010203010606
:1018500031FF0974A1010975150026FF0095207557
:101860000881020976150026FF009520750891026F
:10187000C005010980A10185021601002603001A96
:1018800081002A8300751095018100C0050C0901B3
:10189000A1018503160100269C021A01002A9C0260
:1018A000751095018100C005010902A1010901A17E
:1018B0000005091901290515002501950575018106
:1018C0000295017503810105010930093115812552
:1018D0007F95027508810609381581257F95017568
:1018E000088106050C0A38021581257F95017508C7
:1018F0008106C0C005010906A101050719E029E715
:101900001500250195087501810295017508810171
:1019100005081901290595057501910295017503C1
:1019200091010507190029FF150026FF009506758E
:10193000088100C011241FBECFEFDAE0DEBFCDBFAB
:1019400004B603FE27C080916B0290916C02A091B7
:101950006D02B0916E028730904BA740B04BD1F42E
:1019600010926B0210926C0210926D0210926E0235
:1019700014BE84B7877F84BF0FB6F894A895809172
:101980006000886180936000109260000FBEE0E00C
:10199000F8E3099511E0A0E0B1E0E2E6F7E602C065
:1019A00005900D92A639B107D9F722E0A6E9B1E07A
:1019B00001C01D92AB36B207E1F70E94CF2D0C9407
:1019C000AF330C940000FF93EF93E0919601F091F8
:1019D0009701309709F00995EF91FF910895FC0167
:1019E0008591803011F0EFDFFBCF0895FF27E0E213
:1019F00030E247FF0CC0419597FF09C0EDE26095CA
:101A0000709580959095611D711D811D911D27FF19
:101A100002C0219530E350E2AA27660F771F881F86
:101A2000991FAA1FA41710F0A41B63955A95A9F734
:101A3000AA3008F0A95FA05DAF93F3956115710519
:101A40008105910541F7ED3211F4EF93F395F2170B
:101A500018F43F93F395FBCF8F91B5DFFA95E1F73B
:101A60000895E991F9918591803021F0853219F03E
:101A7000AADFF9CF089520E0E89455915532C1F3DB
:101A8000503311F4689455915A3348F4505390F3FD
:101A9000220F022E220F220F200D250FF4CF0EF45D
:101AA000219589919991533619F3533729F153357B
:101AB00059F1BC0188279927E8945C3621F4899173
:101AC000999168945591543639F446EF7EF077FF3A
:101AD0000DC08FEF9FEF0AC055374AE039F05835F7
:101AE00040E121F0523642E009F00895FF93EF9370
:101AF0007DDFEF91FF91B7CFFF93EF93FC018191D1
:101B00008030B9F360DFFBCFFF93EF9368DFF1CF55
:101B1000DF93CF93CDB7DEB72596A3DFCF91DF91CB
:101B200008950C948E1180913A02836088608093AE
:101B30003A02AAE6B1E041E050E027E02A0F8D9199
:101B4000E82FE295EF70F0E031A18F70BA0102C08A
:101B5000660F771F8A95E2F7CB01962F9095932316
:101B600091A392A1892B82A32A13E9CFA4E6B1E025
:101B700041E050E026E02A0F8D91E82FE295EF70CA
:101B8000F0E031A18F70BA0102C0660F771F8A950D
:101B9000E2F7CB01962F9095932391A392A1892BE5
:101BA00082A32A13E9CF559A209AA7EAB1E0E8E97F
:101BB000F1E08EE08E0F11921D928E13FCCF0C94EB
:101BC00089132F923F924F925F926F927F928F92E2
:101BD0009F92AF92BF92CF92DF92EF92FF920F93BC
:101BE0001F93CF93DF9300D000D0CDB7DEB78091A5
:101BF0000001811104C037E0C32ED12C02C0C12CDA
:101C0000D12C960129553E4F79013C832B830AE65E
:101C100011E0AA24A394B12C8824839494E0992EF3
:101C200027E0722E700E6B817C81DB015C901C9230
:101C3000F80181918F01E82FE295EF70F0E021A18A
:101C40008F70A50102C0440F551F8A95E2F7CA01A3
:101C5000242B21A322A1642E6094262122A350EAE2
:101C60005A95F1F7A4E6B1E0BA83A98320E030E009
:101C7000A981BA813D90BA83A983432D42954F70C3
:101C800050E0DA0190962C90AB81BC814C90432DB2
:101C90004F70D50102C0AA0FBB1F4A95E2F7AD01F4
:101CA000422139F44A2D022E01C0440F0A94EAF76A
:101CB00001C040E04429AB81BC814C932F5F3F4F72
:101CC00026303105A9F691A1692261A292A1892B42
:101CD00082A31196BC83AB83FB018081581659F017
:101CE0008092B5010E9471249093B7018093B60150
:101CF0008BB189258BB9701296CF8091B50188235D
:101D0000D1F08091B6019091B7010E948924069785
:101D100090F080E090E0FC01EC0DFD1DE856FE4FD8
:101D2000D701A80FB91F2C91208301968730910508
:101D300091F71092B50181E00F900F900F900F90E6
:101D4000DF91CF911F910F91FF90EF90DF90CF9097
:101D5000BF90AF909F908F907F906F905F904F90CB
:101D60003F902F900895CF93DF93809100018111D0
:101D700003C0C0E0D0E002C0C7E0D0E00E94651020
:101D8000009791F420E030E0F901E654FE4F4081E5
:101D9000F901EC0FFD1FE856FE4F40832F5F3F4FC8
:101DA0002730310589F702C081E090E0DF91CF91C3
:101DB0000895CF930E94E10DC82F0E94B30E892B86
:101DC000F9F05D989091A6019F5F9093A6019630DF
:101DD000D0F080910001811103C040E050E002C0CA
:101DE00047E050E020E030E0F901E40FF51FE8564D
:101DF000FE4F10822F5F3F4F27303105A9F703C0F8
:101E00005D9A1092A6010E948B138C2FCF9108959A
:101E10000E94E10D80910001811103C027E030E0B4
:101E200002C020E030E080E090E0FC01E20FF31F10
:101E3000E856FE4F4081FC01E654FE4F4083019678
:101E40008730910591F70895E82FF0E0E856FE4FAE
:101E500080810895CF92DF92EF92FF920F931F93AC
:101E6000CF93DF938AE791E00E94EF0C88E9E82E98
:101E700081E0F82EC0E0D0E095E7C92E91E0D92EA0
:101E80000CE611E0DF93CF93DF92CF920E94880D92
:101E900082E791E00E94EF0CF70181917F0190E0D1
:101EA0000E9468239F938F931F930F930E94880D26
:101EB0008AE691E00E94EF0C21968DB79EB70896B6
:101EC0000FB6F8949EBF0FBE8DBFCE30D105D1F6B0
:101ED000DF91CF911F910F91FF90EF90DF90CF9006
:101EE0000895E8EDF0E08081806180838AE18A9541
:101EF000F1F700C08091D900817008950E94710FA0
:101F0000809300010E94710F882319F00E94E50F51
:101F100004C00E9468240E94E90F789408950E94EA
:101F2000930D0E94080FFDCF0E947E0F0E94710F3B
:101F3000811102C00E948F0F0895509A0895509801
:101F4000589A0895589A08950E949D0F589880E8CD
:101F50008A95F1F70C94A20F0E949F0F489BFECF29
:101F600080E88A95F1F708950E949F0F98E080E03D
:101F700029B12170880F822B20E82A95F1F725E0FE
:101F80002A95F1F70000915099F708950F931F9348
:101F9000CF93082F0E949D0FC8E010E0C15088F039
:101FA000C8010C2E02C0959587950A94E2F780FF30
:101FB00003C00E94A20F01C0589880E88A95F1F7EB
:101FC000EDCFCF911F910F9108950E949D0F0C941A
:101FD000A20F0E949F0FE89AE9E6F0E080818C7FD3
:101FE000808308951F920F920FB60F921124CF9203
:101FF000DF92EF92FF921F932F933F934F935F9344
:102000006F937F938F939F93AF93BF93EF93FF93C0
:10201000CF93DF931F92CDB7DEB70E94A40FC12CE0
:10202000D12C10E0C60186549E4F7C01FC018081BA
:102030000E94C60F0E94A40FF7018081180FFFEFC6
:10204000CF1ADF0A87E0C816D10461F7812F0E94FA
:10205000C60F0E94A40F90E89A95F1F7E0E4EA9584
:10206000F1F70E94B40F8093B9010E94A40F109160
:10207000B9010E94B40F89830E94A40F0E949F0F90
:102080008981181721F08091B801816003C0809187
:10209000B8018E7F8093B8010F90DF91CF91FF91AF
:1020A000EF91BF91AF919F918F917F916F915F91D0
:1020B0004F913F912F911F91FF90EF90DF90CF9024
:1020C0000F900FBE0F901F901895CF92DF92EF9256
:1020D000FF921F93CF93DF931F92CDB7DEB7F89493
:1020E0000E949D0F589825E02A95F1F700000E9464
:1020F0009F0F0E94A20F30E83A95F1F7489934C03B
:102100000E94AC0FC12CD12C10E00E94B40FF6013C
:10211000E654FE4F7F0180830E94AC0FF70180815F
:10212000180FFFEFCF1ADF0A27E0C216D10469F7B4
:102130000E94B40F89830E94AC0F8981181314C0C8
:102140008091B9010E94C60F0E94AC0F8091B90125
:102150000E94C60F0E94AC0F0E949D0F0E94A20F0A
:10216000789480E090E003C0789481E090E00F9054
:10217000DF91CF911F91FF90EF90DF90CF90089566
:102180000C948D11FC018081813019F489E992E071
:1021900007C0823019F480E992E002C083E892E03F
:1021A0000C94D220FC018081813019F486E692E003
:1021B00007C0823019F481E192E002C086ED91E01F
:1021C0000C94D220FC018081813019F489EC91E0DB
:1021D00004C0823021F48CEB91E00C94D22008955D
:1021E000FC018081813029F488E30E94301988E362
:1021F00004C081E30E94301981E30C943F1A462FFA
:1022000050E04031510508F085C0DC01FA01EA5A7E
:10221000FF4F0C945F3312968C911297811162C01C
:1022200012968C911297811160C012968C91129720
:10223000882319F088EA93E052C012968C91129785
:10224000882319F080E993E04AC012968C91129786
:1022500081114EC012969C91129715968C919923DC
:1022600051F0982F92959F7011F080FF53C083E03A
:102270000E94BE214FC0982F92959F7011F080FF51
:102280003AC083E00E94DF2145C012968C911297DC
:10229000811134C012968C911297882319F08CE525
:1022A00093E01DC012968C911297882319F08EE44A
:1022B00093E015C012968C911297811122C012964C
:1022C0008C911297811120C012968C9112978111D6
:1022D0001EC012968C918823E9F082EA92E00E9457
:1022E000861318C08FED93E008958EEA93E0089569
:1022F0008DE793E0089588E793E008958DE593E0F6
:1023000008958BE193E0089588EE92E0089585EBBF
:1023100092E0089580E090E0089508950895FB010B
:1023200022811F922F9321811F922F9320811F9230
:102330002F939F938F9381E991E09F938F930E94B6
:10234000880D8DB79EB70A960FB6F8949EBF0FBE44
:102350008DBF81E0089581E008950C948F110E9453
:102360005F1D2FEF84E39CE0215080409040E1F717
:1023700000C0000087E797E790930108809300086A
:102380000C94D9240F931F93CF93DF938C01FC01FE
:10239000C081D181CE010E945C22BE010E949513B2
:1023A000EC01B8010E94A616B801CE010E94AD1141
:1023B000882309F44CC1B801CE010E94E816882395
:1023C00009F445C1B801CE010E94F315882309F430
:1023D0003EC1C531FCE5DF0739F50E940E23282FE9
:1023E000F80182814091520150915301882379F084
:1023F0002A7A91E009F490E09093C101911102C012
:1024000069E201C065E3CA010E94EB230AC0809122
:10241000C101811102C069E201C065E3CA010E94E5
:10242000ED230E94DB2213C1C6318CE5D80708F0EA
:1024300081C0C130ECE5DE0779F4F80182818823A0
:1024400009F405C180913A02816080933A0280E1EB
:102450009FE00E94EF0CFBC0C230FCE5DF0708F4F0
:1024600052C0F8018281882309F455C00E949C2340
:10247000811102C00E9482230E94AF2390E09093BA
:102480005D0280935C02FE01E350FC45E231F10500
:1024900030F4EA59FF4F80915C020C945F338091D5
:1024A0005C02816027C0826025C0846023C0806197
:1024B00021C080621FC080641DC080681BC0846012
:1024C000886018C08E7F16C08D7F14C08B7F12C0AD
:1024D0008F7E10C08F7D0EC08F7B0CC08F770AC09F
:1024E0008B7F877F07C087FB222720F991E0922707
:1024F00090FB87F980935C0280915C020E94B32379
:102500000E945F1DA4C0C115DC4561F081E080938D
:10251000C6018093C701C801DF91CF911F910F9130
:102520000C94AB11F8018281882309F490C00E94B9
:10253000AF118DC0C53DECE5DE0759F5F80182818C
:10254000882361F01092C7010E9471249093C50105
:102550008093C40180E20E949E1A79C08091C701D5
:10256000882321F080E20E94A51A71C08091C401E5
:102570009091C5010E9489248639910598F780E2DF
:102580000E94A51A88E20E94301988E20E943F1A30
:102590005EC0C63DFCE5DF0708F044C0C33D8CE5E6
:1025A000D80719F5F8018281882351F01092C601ED
:1025B0000E9471249093C3018093C20182E0CBCF2B
:1025C0008091C60181110FC08091C2019091C30119
:1025D0000E9489248639910530F486E20E943019E0
:1025E00086E20E943F1A82E0BECFC43DDC4509F07E
:1025F0008DCFF80182818111A5CF8091C701811112
:10260000B1CF8091C4019091C5010E94892486397F
:10261000910508F0A7CF87E20E94301987E20E9457
:102620003F1AA0CFC83DFCE5DF0731F4F8018281F5
:10263000882369F080E009C0C93DDC4509F066CF18
:10264000F8018281882319F082E00E94772E80E0D1
:10265000DF91CF911F910F910895CF93282F30E0F4
:10266000F901EF5DF04FC491F901EF55F04F24915E
:10267000222359F081EE0E9430198C2F0E943019CC
:102680008C2F0E943F1A81EE04C08C2F0E943019BB
:102690008C2FCF910C943F1A0F931F93CF93DF93FE
:1026A000EC01062FFE018491882359F19E012F5FD2
:1026B0003F4F813041F4E901F9011491812F0E94CB
:1026C0003019812F0DC0823031F4E901F901849174
:1026D0000E9430190AC0833031F4E901F901849174
:1026E0000E943F1A02C00E942D132196802F88233A
:1026F000C9F2EFE9FFE03197F1F700C00000815027
:10270000F6CFDF91CF911F910F91089560E00C9467
:102710004C130C94C0100E9444170C94910D089512
:102720000C948F130C949013089596E0799FF00108
:10273000112494E5899FE00DF11D1124E60FF11D90
:10274000EE0FFF1FE851FC4F859194910895880F7B
:10275000991FFC01EF5DFF4E859194910895CF93F1
:10276000DF930E9495130E945215EC01811520E51C
:102770009207F0F5811530E4930708F018C1883E00
:10278000910500F5803E910508F088C1883A9105D1
:1027900070F4853A910508F09AC08130910509F4EA
:1027A0007DC108F434C1049708F078C130C18D3B75
:1027B000910508F497C0803C910508F428C1805C1D
:1027C0009109E7C08115904258F4C11581E0D807FE
:1027D00008F064C1C03FD10508F419C1D0655EC1DD
:1027E000C11590E3D90708F0D8C0CE019F70D1C0C1
:1027F000811525E5920708F043C0811534E593075C
:1028000008F0ECC0811542E5940708F5C11581E593
:10281000D80708F0CFC02C2F237081E090E002C0D1
:10282000880F991F2A95E2F79C689E0174E03695FF
:1028300027957A95E1F72370922BCF70C695C695B0
:1028400030E2C39FE0011124C82BD92B27C1869504
:1028500086959E0123703327C115D34508F0AFC07C
:1028600040E2849FC0011124C1E0D0E002C0CC0F3F
:10287000DD1F2A95E2F78C2B9D2BEC01DC680EC145
:10288000811529E5920778F4811538E5930708F05A
:10289000AAC08115964508F0BAC0CF71DD27DC2F9C
:1028A000CC27D062FBC0C1158AE5D80708F4A0C0C8
:1028B000CE0190568115904208F0A9C08D2F8F71DE
:1028C0000E94CF15DD27D0628F71D82BE7C0853AE3
:1028D000910509F49FC0863A910509F09EC0C2E8AF
:1028E000D0E4DCC0883A910509F49AC0893A910590
:1028F00009F499C08A3A910509F498C08B3A910578
:1029000009F497C08C3A910509F496C08B3B910568
:1029100009F495C08C3B910509F494C08D3A91055A
:1029200009F493C0803B910509F492C08E3A910559
:1029300009F491C08F3A910509F490C0813B91054B
:1029400009F48FC0823B910509F48EC0833B910549
:1029500009F48DC0843B910509F48CC0853B910539
:1029600009F48BC0863B910509F48AC0873B910529
:1029700009F489C0883B910509F488C0893B910519
:1029800009F487C08A3B910509F486C0C0E0D4E40D
:1029900085C00E94A713EC0181C0CE019927D3FF07
:1029A00003C0EC01D86C7AC0EC01D06C77C0DF704A
:1029B000D06A74C0DC2FCC27C16FD06A6FC040E2F0
:1029C000849FC0011124C1E0D0E002C0CC0FDD1F04
:1029D0002A95E2F7C82BD92BDA6860C0D82FCC270C
:1029E000C46FD06A5BC0D82FCC27C06FD06A56C0E6
:1029F0008C2F8F70806E90E0906A24E0D695C795FA
:102A00002A95E1F7CF709C013C2BE90147C0C0E05B
:102A1000D0E044C0C1E8D0E441C0C3E8D0E43EC047
:102A2000C2EED4E43BC0C9EED4E438C0CAEED4E46C
:102A300035C0C5EBD4E432C0C6EBD4E42FC0C3EB41
:102A4000D4E42CC0C4EBD4E429C0C7EBD4E426C042
:102A5000CCECD4E423C0CDECD4E420C0C3E8D5E46E
:102A60001DC0CAE8D5E41AC0C2E9D5E417C0C4E95C
:102A7000D5E414C0C1E2D6E411C0C3E2D6E40EC06E
:102A8000C4E2D6E40BC0C5E2D6E408C0C6E2D6E490
:102A900005C0C7E2D6E402C0CAE2D6E4CE01DF91A7
:102AA000CF9108958238910549F1B0F481339105B1
:102AB00009F458C048F48932910509F44EC08A32AD
:102AC000910509F454C008958533910509F440C077
:102AD0008933910599F00895833E910529F138F4E1
:102AE000803E910591F0823E9105A1F00895863EC9
:102AF0009105F9F0873E910531F1089520915C022E
:102B000020FD3AC021FD38C0089580915C0280FD0F
:102B100035C032C080915C0282FF32C080915C027D
:102B200084FD30C083EE39C080915C0282FD28C0F4
:102B3000F5CF80915C0283FF27C080915C0284FD09
:102B400021C087EE2AC080915C0283FD1DC0F5CFB5
:102B500080915C0285FD1AC01BC080915C0285FDDE
:102B600017C014C080915C0286FD14C015C080910E
:102B70005C0286FD11C00EC080EE0FC089E30DC05F
:102B800082EE0BC080E009C086EE07C089E205C076
:102B900085E303C08AE201C081E390E0089590914B
:102BA0005C0292FF0DC0282F2871283019F4877F0E
:102BB000846006C0282F2471243011F48B7F886034
:102BC00093FF0DC0282F2871283119F4877E846166
:102BD00006C0282F2471243111F48B7E886194FD66
:102BE000877E089508950F931F93CF93FB01228151
:102BF000211102C0C1E041C08C01C091D501C111B9
:102C000025C086319C45B1F70E94F21581E0809382
:102C1000D5010E9471249093D4018093D301109226
:102C2000C8011092CA011092C9011092CC011092F1
:102C3000CB011092CE011092CD011092D0011092D2
:102C4000CF011092D2011092D10117C08091D3010F
:102C50009091D4010E9489248C32914058F6909131
:102C6000C801E92FF0E0EE0FFF1FE753FE4F11837D
:102C700000839F5F9093C801C0E08C2FCF911F917C
:102C80000F910895CF93DF93FC012785211116C082
:102C9000EC0181E0878787810E94112388850E944B
:102CA00024230E94DB22EA81FB816A897B89CE0191
:102CB0000696309719F0DF91CF910994DF91CF916B
:102CC0000895EF92FF920F931F93CF93DF93FC0130
:102CD0002085211134C0EC01E380F480F7E5FF1A70
:102CE00024E12E9DC0012F9D900D1124DC01AF5FCA
:102CF000BE4F1496ED91FC91159752966D917C9173
:102D00005397895F9E4F309709F0099584E18E9D16
:102D100080018F9D100D11240F5F1E4FF8018781D8
:102D20000E941723F80180850E942A230E94DB223B
:102D300018821F8219861092D7011092D601DF9156
:102D4000CF911F910F91FF90EF900895DF92EF9236
:102D5000FF920F931F93CF93DF93FB0122812223D6
:102D600079F1209151012F3F59F18C01C7E0D1E059
:102D7000E12CF12CDD24D39480915101082E000C1C
:102D8000990B8E159F05E4F088818823A1F08B8133
:102D90009C810817190739F48091D6019091D701C9
:102DA0000817190741F0DF82CE0106970E944216EC
:102DB000CE010E946116FFEFEF1AFF0A6496DCCF86
:102DC000DF91CF911F910F91FF90EF90DF900895C9
:102DD000EF92FF920F931F93CF93DF939C01375590
:102DE0002F3F310511F008F047C040915101042EEA
:102DF000000C550B4217530714F420935101FB01AB
:102E00007C01828194E1929F8001939F100D112497
:102E1000E801CF5FDE4F8E8792818E81992311F179
:102E2000FA86E9868F5F8E830E9471249C878B8748
:102E30000E944A238F830E940E2388870E942123A9
:102E40009885892B8887E881F9816A897B89C801FF
:102E5000895F9E4F309709F00995F092D701E09273
:102E6000D6010AC0882341F08F85882329F0C80144
:102E7000895F9E4F0E94611681E0DF91CF911F9183
:102E80000F91FF90EF900895CF92DF92EF92FF9213
:102E90000F931F93CF93DF93809151018F3FC1F127
:102EA000C0E0D4E12C2F30E080915101082E000CBD
:102EB000990B8217930764F1D29FF001D39FF00D15
:102EC0001124EF5FFE4FE088F188E114F10419F45A
:102ED00086E9E82EF12CD29F6001D39FD00C1124FB
:102EE00086010F5F1E4FF8018681882379F0838564
:102EF00094850E948924E816F90640F4C8010E94CE
:102F00004216C601895F9E4F0E946116CF5FCACFED
:102F1000DF91CF911F910F91FF90EF90DF90CF90B5
:102F200008959093DD018093DC010895E091DC0128
:102F3000F091DD01309721F00190F081E02D0994AE
:102F400080E00895EF92FF920F931F93CF93DF934A
:102F5000E091DC01F091DD013097B1F18C0102804C
:102F6000F381E02D099580913A0282FF2DC080FF08
:102F700004C089E290E10E94EF0CE80118E083E2CE
:102F8000E82E80E1F82E80913A0280FF0BC0888104
:102F90001F928F93FF92EF920E94880D0F900F90D7
:102FA0000F900F90115021961111EDCF80913A02A0
:102FB00080FF0AC081E290E1DF91CF911F910F91D4
:102FC000FF90EF900C94EF0CDF91CF911F910F9138
:102FD000FF90EF900895E091DC01F091DD013097D2
:102FE00021F00480F581E02D099408952091DA0103
:102FF0003091DB018217930771F09093DB0180938E
:10300000DA01E091DC01F091DD01309721F00680DA
:10301000F781E02D099408952091D8013091D901CC
:103020008217930771F09093D9018093D801E091B2
:10303000DC01F091DD01309721F00084F185E02D75
:10304000099408950C94940F81E008950E946824D7
:103050000E94930D0C94EA24CF93C82F80913A02DA
:1030600082FF1EC080FF04C082E490E10E94EF0C4A
:1030700080913A0280FF0CC01F92CF938DE390E1C4
:103080009F938F930E94880D0F900F900F900F9039
:1030900080913A0280FF04C08BE390E10E94EF0C24
:1030A0008C2FCF910C949213CF92DF92EF92FF92DC
:1030B0000F931F93CF93DF93CDB7DEB72B970FB648
:1030C000F894DEBF0FBECDBF0E94D90E0E94241817
:1030D000811111C08FEF89838A831B820E94712422
:1030E0008160782F9D838C8349815A816B818D818A
:1030F0000E94FC1856C08FEDC82E81E0D82E00E04B
:1031000010E0E02E802F0E94240FF60141916F0104
:10311000F42EF82631F40F5F1F4F0E30110589F79A
:10312000D9CF90913A0291FF04C08B870E942A0F59
:103130008B8520E030E04F2D50E0922FBA01022E17
:1031400002C0759567950A94E2F760FF24C02E834C
:10315000EF8221E030E0690102C0CC0CDD1C9A95C1
:10316000E2F790E08C219D21892B09F420E028874B
:103170000E9471248160782F9A8789874E815F81B0
:1031800068858A850E94FC18F801E152FE4F808113
:10319000C826C08206C02F5F3F4F2630310569F632
:1031A000BACF0E94FF261091DE010E9496171817D1
:1031B000A1F00E9496178093DE012B960FB6F8942B
:1031C000DEBF0FBECDBFDF91CF911F910F91FF905A
:1031D000EF90DF90CF900C942C182B960FB6F894AC
:1031E000DEBF0FBECDBFDF91CF911F910F91FF903A
:1031F000EF90DF90CF900895CF93DF93CDB7DEB7F8
:103200002B970FB6F894DEBF0FBECDBF4F83588704
:1032100069877A878B87DE01119686E0FD0111921E
:103220008A95E9F785E0FE01379601900D928A951F
:10323000E1F749815A816B817C818D819E810E9459
:103240002E202B960FB6F894DEBF0FBECDBFDF91B8
:10325000CF910895FC01808191810E949B22089565
:10326000CF93DF931F92CDB7DEB7882309F403C154
:10327000682F8238C1F40E94961781FDFCC069E373
:1032800080915201909153010E94EB230E94DB2216
:103290002FEF81EE94E0215080409040E1F700C094
:1032A000000069E319C0833811F50E94961780FD6C
:1032B000E2C063E580915201909153010E94EB239B
:1032C0000E94DB222FEF81EE94E02150804090405D
:1032D000E1F700C0000063E5809152019091530135
:1032E0000E94ED230F90DF91CF910C94DB22843864
:1032F000C1F40E94961782FDBEC067E4809152011E
:10330000909153010E94EB230E94DB222FEF81EE6C
:1033100094E0215080409040E1F700C0000067E455
:10332000DBCF8CEF860F813A70F4862F69830E9481
:103330001F2A698181119FC0809152019091530190
:103340000E94EB23CFCF80E2860F883048F467706D
:1033500081E001C0880F6A95EAF70E941123C2CF6D
:103360008BE5860F833088F4653A29F0663A31F0B0
:1033700083E890E005C081E890E002C082E890E038
:103380000F90DF91CF910C94F61788E5860F853169
:1033900008F071C0683A61F1693A69F16A3A71F10D
:1033A0006B3A79F16C3A81F16B3B89F16C3B91F1AD
:1033B0006D3A99F1603BA1F16E3AA9F16F3AB1F122
:1033C000613BB9F1623BC1F1633BC9F1643BD1F1AF
:1033D000653BD9F1663BE1F1673BE9F1683BF1F10F
:1033E000693BF9F16A3B09F43FC080E090E03EC0E0
:1033F00082EE90E03BC089EE90E038C08AEE90E02B
:1034000035C085EB90E032C086EB90E02FC083EBB7
:1034100090E02CC084EB90E029C087EB90E026C0C0
:103420008CEC90E023C08DEC90E020C083E891E02C
:103430001DC08AE891E01AC082E991E017C084E9D2
:1034400091E014C081E292E011C083E292E00EC0EC
:1034500084E292E00BC085E292E008C086E292E04E
:1034600005C087E292E002C08AE292E00F90DF910D
:10347000CF910C940C180F90DF91CF910895882371
:1034800009F45BC0682F823879F40E94961781FF97
:1034900054C069E380915201909153010E94EB2343
:1034A0000E94DB2269E310C08338B1F40E949617B2
:1034B00080FF43C063E580915201909153010E94C7
:1034C000EB230E94DB2263E580915201909153012E
:1034D0000E94ED230C94DB22843879F40E94961725
:1034E00082FF2BC067E480915201909153010E94AA
:1034F000EB230E94DB2267E4E7CF8CEF860F813A53
:1035000018F380E2860F883048F4677081E001C0CC
:10351000880F6A95EAF70E941723DCCF8BE5860FA8
:10352000833020F480E090E00C94F617685A6531FF
:1035300020F480E090E00C940C180895882321F08A
:103540000E9411230C94DB220895882321F00E940D
:1035500017230C94DB2208954F925F926F927F9213
:10356000BF92CF92DF92EF92FF920F931F93CF9370
:10357000DF937C01D62FC72FFC01058102950F70C8
:10358000128111110E9431230E94D422882379F0E4
:10359000112369F080E28D0F883048F082E00E94AC
:1035A000BD220E94D42291E0B82EB92601C0B12CD0
:1035B000CC2EC2948FE0C822D12CF601E858FF4FE0
:1035C0000C945F338C2F807FCF70882311F0C295CD
:1035D000C07F112399F0CC2309F4CFC180E28D0F75
:1035E000883010F0D11104C08C2F0E94112303C029
:1035F0008C2F0E9424230E94DB22BFC18D2F0E94AA
:103600003F1ACC2309F4DEC180E28D0F883010F020
:10361000D11104C08C2F0E94172303C08C2F0E944D
:103620002A230E94DB22CEC18C2F807FCF70803274
:1036300011F0C295C07FDD2319F0D130C9F022C04E
:10364000112371F0002341F0013031F40E944A232C
:103650008C2B0E944423B6C10E944A238C2B46C166
:10366000002319F0013009F4ADC10E94472318C0AE
:10367000112321F0063008F0A5C10EC0053008F076
:10368000A1C10EC0112351F0002331F0F701858153
:1036900080FF73C18F7085838C2F28C101117EC17B
:1036A0008C2F2AC18C2F86958695837090E0009789
:1036B00019F0019761F086C1112321F08D2F9C2F05
:1036C000937002C080E090E00E94F6178BC1112336
:1036D00021F08D2F9C2F937002C080E090E00E941B
:1036E0000C1880C11123F9F0D53F51F0D63F71F08D
:1036F000D43FA9F4809156029091570281600BC08B
:103700008091560290915702826005C080915602C6
:1037100090915702846090935702809356028D2FA8
:103720000E9485251EC0D53F51F0D63F71F0D43F91
:10373000A9F480915602909157028E7F0BC0809120
:103740005602909157028D7F05C08091560290914C
:1037500057028B7F90935702809356028D2F0E94C1
:10376000ED250E9472263EC18C2F837009F050C057
:10377000111134C18D2F829586958770880F880F1F
:103780009D2F9F70492E512C612C712C082E04C046
:10379000440C551C661C771C0A94D2F7D4FF14C045
:1037A0000FE010E020E030E0B901A80104C0440FB0
:1037B000551F661F771F8A95D2F7CB01BA01609516
:1037C00070958095909503C060E070E0CB01C69540
:1037D000C695C370D0E0C230D10561F0C330D105C9
:1037E00081F06429752986299729219771F00E9413
:1037F0007121F4C064297529862997290E948321A3
:10380000EDC00E947121C301B2010E945F21E6C098
:10381000112319F08C2F817001C08695882309F43B
:10382000DDC08D2F829586958770880F880F9D2F1C
:103830009F70492E512C612C712C082E04C0440C11
:10384000551C661C771C0A94D2F7D4FF14C00FE0F5
:1038500010E020E030E0B901A80104C0440F551F7A
:10386000661F771F8A95D2F7CB01BA0160957095D4
:103870008095909503C060E070E0CB01C695C69539
:10388000C3704C2F50E04230510569F04330510570
:1038900089F064297529862997294130510571F0ED
:1038A0000E9437229BC064297529862997290E9486
:1038B000492294C00E943722C301B2010E942522EE
:1038C0008DC08D2F90E0FC01E05EF109E531F1053E
:1038D00008F04FC0E857FF4F0C945F33DF708C2F18
:1038E0008F71112331F00E94BE218D2F0E949E1AEC
:1038F00069C00E94DF218D2F0E94A51A63C0112389
:1039000041F0053008F05EC08C2F8F710E940422B8
:1039100059C0063008F056C0F7CF112339F08C2F6C
:103920008F710E94BE214EC01123C9F38C2F8F715D
:103930000E94DF2147C0112329F08C2F8F710E9434
:10394000A92140C00E94A4213DC0112349F0CF719C
:103950008C2F0E94BE2163E08C2F0E94B42232C0C3
:1039600081E00E94BD22023068F182E00E94BD2207
:1039700029C0112331F0002391F28D2F0E943019BC
:1039800021C0002399F2D93349F45FEF67EE73E069
:10399000515060407040E1F700C000008D2F0E9440
:1039A0003F1A10C04C2F4F706D2FC7010E94FF109F
:1039B0000E94D22017C04C2F4F706D2FC7010E945C
:1039C000941310C088E0C816D10441F05CF0EAE01E
:1039D000CE1AD108F2E0CF16D10420F40E94961737
:1039E0000E949213BB20F1F00E94B02280FD1AC009
:1039F000F70112820E94AA220E94BE21C7010E94E2
:103A0000201D0E94AA22DF91CF911F910F91FF905C
:103A1000EF90DF90CF90BF907F906F905F904F902E
:103A20000C94DF21DF91CF911F910F91FF90EF90C8
:103A3000DF90CF90BF907F906F905F904F900895F0
:103A40000F931F93CF93DF93EC01888199812B8192
:103A50003C81232BB9F09F3F11F48F3F99F0CE01A9
:103A60000E94C211882371F0688179818A810E9445
:103A7000A6228C010E945B220E945C21B801CE012B
:103A80000E94AC1ADF91CF911F910F9108950E946F
:103A900031230E94412380915201909153010E9451
:103AA000EF230E94DB220E948D270E94722680E075
:103AB00090E00E94F61780E090E00C940C180E94B1
:103AC0001E230C94471D0E949B22E92FE295EF7064
:103AD000F0E03297EE30F105B0F4E356FF4F0C946E
:103AE0005F33803F91F018F4803E68F40EC0843F4D
:103AF00051F40BC0803E48F0813F29F406C093FB8F
:103B0000882780F9089580E0089581E00895CF9393
:103B1000DF9300D000D01F92CDB7DEB70F900F908B
:103B20000F900F900F90DF91CF910895CF93DF9377
:103B300000D000D000D0CDB7DEB726960FB6F894EF
:103B4000DEBF0FBECDBFDF91CF9108951F93CF93FE
:103B5000DF93C091ED0116E08091EE01C81799F056
:103B6000D0E01C9FF0011D9FF00D1124E151FE4F8C
:103B70004081518162817381848195810E94961D6B
:103B80002196C770E9CFDF91CF911F9108954091A1
:103B90001F025091200260912102709122028091B7
:103BA0002302909124020C94961D2091ED01909196
:103BB000EE0156E02917A9F030E0529FF001539F23
:103BC000F00D1124E151FE4F7181671306C0708121
:103BD000871303C07281471306C02F5F3F4F2770C2
:103BE000E9CF80E0089581E00895809124028295D4
:103BF0008F7009F054C080912102882309F44FC0CE
:103C00008091ED01A091EE0160911F027091200260
:103C10004091220250912302B6E08A1709F43FC076
:103C200090E041155105C1F17F3F11F46F3FA1F1C3
:103C3000B89FF001B99FF00D1124E151FE4F218191
:103C400072132AC02081621327C02281211124C04F
:103C5000238134812417350710F421503109241BA6
:103C6000350B26393105C0F4209124022F702061D4
:103C70002093240226E0289FF001299FF00D1124B3
:103C8000EC50FE4F80818F70806180838FE192E0E5
:103C90000E94201D0C94A61D01968770BECF08952A
:103CA000AF92BF92CF92DF92EF92FF920F931F934A
:103CB000CF93DF93CDB7DEB762970FB6F894DEBF30
:103CC0000FBECDBF7C0185E0F701DE011D9601909E
:103CD0000D928A95E1F7D7010C9111965C9111979D
:103CE0001296BC9012971396CD90DC901497309159
:103CF0001F0240912002809122029091230200979E
:103D000009F47DC14F3F19F43F3F09F478C1A090F9
:103D10002102AA2009F40DC120912402C816D90657
:103D200028F0F601E81BF90BCF0104C080959095AF
:103D30008C0D9D1D11E08639910588F010E0207FE3
:103D400009F0BEC07C2DD98AC88A402F6B2D898985
:103D50000E94871D8FE192E00E94201D48C1822FA2
:103D6000807F09F075C0451314C0301312C0B11024
:103D700010C02F702061209324020E94C71D8FE184
:103D800092E00E94201D80912402D70115968C9309
:103D900020C0CD2809F452C05F3F19F40F3F09F449
:103DA0004DC0B11018C040E0652F802F5A8B0E9483
:103DB000D51D5A89882379F08FE192E00E94201D59
:103DC000EFE1F2E086E0DF011D928A95E9F70E94BB
:103DD000C71D10E031C15F3F11F40F3F79F1B11001
:103DE0002DC040E0652F802F5A8B0E94D51D182FC3
:103DF0005A89811123C00D875E878D859E850E941B
:103E00009B22292F22952F7030E02230310524F09B
:103E10002430310534F05EC09F7051F0811108C02C
:103E20000BC19F7029F0F7019581907F09F404C1BF
:103E300090E2980F983008F04DC0FEC01B2DBB20BB
:103E400009F4FAC080912402816080932402C1CFDA
:103E5000451308C0301306C0B11004C0809124027D
:103E6000D7019DC00D875E878D859E850E94631D4D
:103E7000882381F1BB2071F120912402822F829549
:103E80008F7090E0029774F080911F029091200251
:103E900098878F831986DB86CA862C87CE01079682
:103EA0000E94201D86E0F701AFE1B2E001900D9283
:103EB0008A95E1F70E94F51D0E94C71D11E0BCC064
:103EC000451761F00D875E878D859E850E94631D75
:103ED000811118C0C7010E94201DF0CF3013F2CF0E
:103EE000B110F0CF80912402F7018583C7010E94B1
:103EF000201D86E0EFE1F2E0DF011D928A95E9F7EF
:103F00001A2D9AC0BB2031F320912402822F829572
:103F10008F7090E0029734F280911F0290912002FE
:103F20009A8389831B82DD82CC822E83CE01019607
:103F3000B7CFC816D90628F0F601E81BF90BCF0158
:103F400004C0809590958C0D9D1D8639910550F08B
:103F500010E07C2DD98AC88A402F6B2D89890E9458
:103F6000871D45C01B2DBB2009F4B4CF45132EC0BF
:103F700030132CC02091240220FD1FC0822F829577
:103F80008F70D9F0D70115962C9315978F3049F083
:103F90008F5F982F9295907F822F8F70892B159627
:103FA0008C93C7010E94201D86E0F701AFE1B2E0CB
:103FB00001900D928A95E1F73DC086E0F701AFE1EF
:103FC000B2E001900D928A95E1F736C00D875E87C9
:103FD0008D859E850E94631D811164CF809124028E
:103FE000816080932402C7010E94201D25C0EFE15B
:103FF000F2E086E0DF011D928A95E9F71BC0BB2045
:1040000009F468CF0D875E878D859E850E94631DAC
:10401000182F882309F45ECF86E0F701AFE1B2E004
:1040200001900D928A95E1F78FE192E00E942A19A2
:104030000E94F51D0E94C71D812F62960FB6F8944D
:10404000DEBF0FBECDBFDF91CF911F910F91FF90CB
:10405000EF90DF90CF90BF90AF9008951F93CF93D4
:10406000DF93CDB7DEB72C970FB6F894DEBF0FBE47
:10407000CDBF4F83588769877A878B879C87CE010E
:1040800007960E94501E882369F08F8198852A85A3
:104090003B85232BF1F19F3F09F063C08F3F09F06F
:1040A00060C037C086E0FE013796DE0111960190B0
:1040B0000D928A95E1F76F817885EA85FB853097C7
:1040C00041F17F3F11F46F3F21F12091EE0130E08B
:1040D000C9010196877099274091ED0150E084173E
:1040E000950709F447C069837A83FD83EC8396E0E2
:1040F000929FD001939FB00D1124A151BE4FFE019C
:10410000319601900D929A95E1F78093EE010E940D
:10411000A61D16E08091ED019091EE018917C1F185
:10412000189FC001112481519E4F0E94501E882368
:1041300079F1E091ED011E9FF0011124E151FE4F54
:104140004081518162817381848195810E94961D95
:104150008091ED0190E00196877099278093ED01A1
:10416000D9CF4F81588569857A858B859C850E943A
:10417000961DCFCF0E945F1D1092EE011092ED01AF
:10418000EFE1F2E086E0DF011D928A95E9F7C1CF09
:104190002C960FB6F894DEBF0FBECDBFDF91CF9146
:1041A0001F910895EF92FF920F931F93CF93DF9388
:1041B0008C01892B09F46CC0F12CEE24E394E80106
:1041C0002196F8018491843740F4843008F051C07E
:1041D000813081F0823019F15BC0853709F444C029
:1041E000A8F19CE7980F903708F052C08F770E9493
:1041F0003F1A41C00E5F1F4FFE01C49180E28C0F39
:10420000883048F4C7708E2D01C0880FCA95EAF730
:104210000E94342314C08C2F0E9430192DC00E5FD1
:104220001F4FFE01C49180E28C0F883058F4C77094
:104230008E2D01C0880FCA95EAF70E943A230E948A
:10424000DB221AC08C2F0E943F1A16C00E5F1F4F30
:10425000FE01C491CC2381F08FE99FE00197F1F733
:1042600000C00000C150F6CF0E5F1F4FFE01F4905A
:1042700003C00E9430198E018F2D882309F49FCF2F
:10428000EFE9FFE03197F1F700C000008150F5CF72
:10429000DF91CF911F910F91FF90EF9008950895B6
:1042A0000E944F216093290270932A0280932B026F
:1042B00090932C020C94471D08950C9450210F9359
:1042C0001F930091290210912A0220912B02309114
:1042D0002C02602B712B822B932B1F910F910C942E
:1042E00050210F931F930091290210912A022091CF
:1042F0002B0230912C0260237123822393231F9180
:104300000F910C9450210F931F930091290210914B
:104310002A0220912B0230912C02602771278227DC
:1043200093271F910F910C94502108950C9495217F
:104330000E949621609325027093260280932702A3
:10434000909328020C94471D60E070E0CB010C9420
:1043500098210F931F9341E050E060E070E08A01E4
:104360009B0104C0000F111F221F331F8A95D2F733
:10437000C901B8011F910F910C9498210F931F93BD
:1043800041E050E060E070E004C0440F551F661F3C
:10439000771F8A95D2F78091250290912602A091ED
:1043A0002702B09128028A019B01082B192B2A2B86
:1043B0003B2BC901B8011F910F910C9498210F93C9
:1043C0001F9341E050E060E070E004C0440F551FCF
:1043D000661F771F8A95D2F7409550956095709526
:1043E0008091250290912602A0912702B091280287
:1043F0008A019B01082319232A233B23C901B80101
:104400001F910F910C9498210F931F9341E050E05E
:1044100060E070E004C0440F551F661F771F8A9547
:10442000D2F78091250290912602A0912702B091A7
:1044300028028A019B01082719272A273B27C9013F
:10444000B8011F910F910C9498210F931F93009125
:104450002502109126022091270230912802602B1C
:10446000712B822B932B1F910F910C9498210F93FA
:104470001F9300912502109126022091270230916E
:10448000280260237123822393231F910F910C94A0
:1044900098210F931F9300912502109126022091DD
:1044A00027023091280260277127822793271F91C6
:1044B0000F910C9498210895CF92DF92EF92FF9282
:1044C0000F931F93CF93DF938C01C0902902D0905C
:1044D0002A02E0902B02F0902C028091250290910C
:1044E0002602A0912702B0912802C82AD92AEA2AD6
:1044F000FB2ACFE1D0E0D701C6010C2E04C0B6954F
:10450000A795979587950A94D2F780FF06C0B801C2
:104510008C2F0E94AF13019721F4219760F780E060
:1045200001C08C2FDF91CF911F910F91FF90EF90E1
:10453000DF90CF900895CF93DF93EC010E945C222F
:10454000BE010E94AF13DF91CF910895CB010E946D
:104550009B22089580912D028595859585950895D6
:1045600080912D028770089598E0899F9001112411
:10457000262B20932D020C94BE2120912D02809594
:10458000822380932D02982F977069F430E0482F92
:10459000082E000C550B2417350729F085958595B5
:1045A00085950C94DF21089590912D02977081E0FC
:1045B00009F480E00895E0915201F0915301809157
:1045C00039028083E0915201F091530190818091F2
:1045D0003802892B8083E0915201F0915301908140
:1045E00080913702892B808380912E02882381F06D
:1045F000E0915201F09153019081892B8083809149
:104600005201909153010E94B823811110922E0201
:1046100080915201909153010C94A217809139021C
:10462000089590913902892B8093390208958095DD
:1046300090913902892380933902089510923902AA
:10464000089580913802089590913802892B8093C3
:10465000380208958095909138028923809338021A
:10466000089510923802089590913702892B809313
:1046700037020895809590913702892380933702FD
:10468000089510923702089580932E020895109293
:104690002E02089580912E020895909397018093A1
:1046A000960108958295982F9C7C392F36953695E2
:1046B000282F237344E0249FC0011124932F982BAB
:1046C000292F2A7A2695892F8575880F822B0895A0
:1046D0001F93CF93DF931F92CDB7DEB799830E94CC
:1046E0005223182F9981892F0E945223212F30E0C5
:1046F000322F2227A901482BCA010F90DF91CF91B9
:104700001F9108956DEE7EEF80E090E00E94993356
:1047100060E082E090E00E94873360E083E090E018
:104720000E94873360E084E090E00E94873360E07D
:1047300085E090E00C94873380E090E00E94813324
:1047400021E08D3E9E4F09F020E0822F089582E007
:1047500090E00C94793383E090E00C94793384E01A
:1047600090E00C947933682F84E090E00C948733C8
:10477000FC0131969C01285F3F4F80E0919191119F
:104780008F5FE217F307D1F708959C01FC01329681
:104790009FEF80E04191461789F09F3F19F4411146
:1047A00001C0982F8F5F8630A9F79F3F39F0F9013C
:1047B000E90FF11D97FDFA95628308950895FC01B4
:1047C000329608962081261301C010823196E81790
:1047D000F907C1F708950C94C5230C94DF23FC015D
:1047E000319608961192E817F907E1F7089580913C
:1047F0006202843039F110923B0220E488E190E0BB
:104800000FB6F894A895809360000FBE20936000C7
:1048100080E00E94921383B7817F846083BF83B757
:10482000816083BF7894889583B78E7F83BF0FB6EE
:10483000F894A89580916000886180936000109240
:1048400060000FBE089508950895CF930E94232419
:104850000E94D90E0E942424C0E08C2F0E94240FB5
:10486000811104C0CF5FCE30C1F701C081E0CF918C
:1048700008950E945F1D0E9496170C9492131F9238
:104880000F920FB60F9211248F939F93AF93BF9304
:1048900080913B02811113C080915802909159027E
:1048A000A0915A02B0915B024196A11DB11D809367
:1048B000580290935902A0935A02B0935B02BF91A1
:1048C000AF919F918F910F900FBE0F901F901895F1
:1048D00082E084BD93E095BD9AEF97BD80936E0012
:1048E00008952FB7F8948091580290915902A091A1
:1048F0005A02B0915B022FBF08952FB7F8946091D0
:1049000058027091590280915A0290915B022FBF18
:104910000895CF92DF92EF92FF920F931F932FB7DC
:10492000F894409158025091590260915A02709146
:104930005B022FBF6A017B01EE24FF248C0120E083
:1049400030E0C016D106E206F30610F441505109DA
:104950009A01281B390BC9011F910F91FF90EF900D
:10496000DF90CF90089578941F920F920FB60F9218
:1049700011248F939F93AF93BF938091580290918E
:104980005902A0915A02B0915B020196A11DB11D7E
:104990008093580290935902A0935A02B0935B02FD
:1049A000BF91AF919F918F910F900FBE0F901F906D
:1049B000189587E797E790930108809300089AE09D
:1049C00088E10FB6F894A895809360000FBE90938D
:1049D0006000FFCF0E949C23811102C00E948223AD
:1049E0000E94A72380933A020E94AF2390E0909305
:1049F0005D0280935C020E94AB23682F70E080E030
:104A000090E00C945D2180913F0280FF0BC060918B
:104A1000570185E0689FB0011124759567957595DC
:104A200067952BC081FF09C06091570185E0689FA1
:104A3000B00111247595679520C082FF07C0609171
:104A4000570185E0689FB001112417C09091400282
:104A50009923D1F060915601961788F7209157015C
:104A600085E0289F90011124929FA001939F500DF3
:104A7000112470E0CA010E944B336038710540F484
:104A80006115710539F002C065E070E0862F089568
:104A90008FE7089581E0089580913F0280FF08C06C
:104AA0006091550170E0759567957595679521C082
:104AB00081FF06C06091550170E07595679519C03A
:104AC00082FF04C06091550170E010C090914002D7
:104AD0009923C1F0609154019617A0F78091550178
:104AE000899FC001112470E00E944B33603871052A
:104AF00028F46115710521F0862F08958FE7089538
:104B000081E0089561E070E0F4CF803F21F40E94DD
:104B10000325819504C0813F29F40E9403258093D9
:104B200043020895823F21F40E940325819504C029
:104B3000833F29F40E940325809342020895893F10
:104B400019F40E944C2505C08A3F31F40E944C257F
:104B500081958093440208958B3F21F40E944C2557
:104B6000819504C08C3F29F40E944C258093450216
:104B70000895843F21F480914102816017C0853FF0
:104B800021F480914102826011C0863F21F480911E
:104B9000410284600BC0873F21F48091410288600C
:104BA00005C0883F31F480914102806180934102C9
:104BB00008958D3F21F480913F0281600BC08E3FAC
:104BC00021F480913F02826005C08F3F29F48091DB
:104BD0003F02846080933F020895803F39F48091C2
:104BE000430287FF6CC01092430269C0813F29F4E1
:104BF000809143021816BCF362C090914202823F3A
:104C000029F497FF5CC01092420259C0833F19F407
:104C10001916CCF354C0893F41F480914402181610
:104C20000CF04DC0109244024AC08A3F29F4809192
:104C3000440287FF44C0F6CF8B3F39F48091450290
:104C400087FF3DC0109245023AC08C3F29F4809105
:104C500045021816BCF333C0843F21F48091410211
:104C60008E7F17C0853F21F4809141028D7F11C056
:104C7000863F21F4809141028B7F0BC0873F21F456
:104C800080914102877F05C0883F31F480914102C5
:104C90008F7E8093410213C08D3F21F480913F02AB
:104CA0008E7F0BC08E3F21F480913F028D7F05C027
:104CB0008F3F29F480913F028B7F80933F02809148
:104CC000420281110EC08091430281110AC080917D
:104CD0004402811106C080914502811102C01092E8
:104CE0004002089580913A0283FF7EC08CE790E1F4
:104CF0000E94EF0C809141021F928F9387E790E111
:104D00009F938F930E94880D85E790E10E94EF0C9E
:104D100080914202282F082E000C330B3F938F9373
:104D200082E790E19F938F930E94880D80E790E146
:104D30000E94EF0C80914302282F082E000C330BA9
:104D40003F938F938DE690E19F938F930E94880D00
:104D50008BE690E10E94EF0C80914402282F082EF0
:104D6000000C330B3F938F9388E690E19F938F93D2
:104D70000E94880D86E690E10E94EF0C809145022A
:104D8000282F082E000C330B3F938F9383E690E17E
:104D90009F938F930E94880D80E690E10E94EF0C14
:104DA000809140021F928F938DE590E19F938F93A6
:104DB0000E94880D8BE590E10E94EF0C80913F02EC
:104DC0001F928F9388E590E19F938F930E94880DA7
:104DD00085E590E10E94EF0C8DB79EB74C960FB61B
:104DE000F8949EBF0FBE8DBF81E492E00E94EB1746
:104DF0000E94712490933D0280933C0208951F937A
:104E0000CF93DF9380913C0290913D020E948924D0
:104E1000AC0190914002992321F02091580130E09B
:104E200006C020913E028AE0289F9001112442177B
:104E3000530708F46EC080914202C0914302D091A2
:104E4000440210914502811107C0C1115EC0D11109
:104E50005CC011115AC05DC09F3F19F09F5F9093D5
:104E60004002181624F40E94032580934202809188
:104E7000420287FF05C00E9403258195809342026C
:104E80001C1624F40E940325809343028091430260
:104E900087FF05C00E9403258195809343024091BE
:104EA0004202442379F030914302332359F025EB39
:104EB0004203A0011124509342023203C001112485
:104EC000909343021D1624F40E944C2580934402C3
:104ED0008091440287FF05C00E944C2581958093F4
:104EE0004402111624F40E944C25809345028091BF
:104EF000450287FF05C00E944C258195809345029D
:104F0000DF91CF911F910C9472269F3F09F0A6CF9D
:104F1000AECFDF91CF911F910895E1E4F2E085E0FB
:104F2000DF011D928A95E9F71092400210923F022C
:104F300008958FE992E10E94EF0C1F9281E08F9318
:104F40001F9285E08F9381E592E19F938F930E945A
:104F5000880D0F900F900F900F900F900F90089565
:104F60008330E9F128F4813061F0823009F108954D
:104F7000853009F462C008F449C0863009F474C071
:104F8000089580913E02262F30E0280F311D2F3FDB
:104F9000310524F4680F60933E0203C08FEF8093C5
:104FA0003E0280913E021F928F938AE891E172C087
:104FB00080915801262F30E0280F311D2F3F3105F9
:104FC00024F4680F6093580103C08FEF8093580159
:104FD000809158011F928F9388E791E15BC0809187
:104FE0005701262F30E0280F311D2F3F310524F4C3
:104FF000680F6093570103C08FEF80935701809132
:1050000057011F928F9385E691E144C0809156012C
:10501000262F30E0280F311D2F3F310524F4680F73
:105020006093560103C08FEF809356018091560123
:105030001F928F9380E591E12DC080915501262F1D
:1050400030E0280F311D2F3F310524F4680F6093A5
:10505000550103C08FEF80935501809155011F9238
:105060008F9387E391E116C080915401262F30E0A1
:10507000280F311D2F3F310524F4680F6093540130
:1050800003C08FEF80935401809154011F928F933E
:105090008CE191E19F938F930E94880D0F900F9068
:1050A0000F900F900895833081F128F4813059F0EA
:1050B0008230D1F00895853009F449C0B8F18630C6
:1050C00009F456C0089580913E02681720F4861BAB
:1050D00080933E0202C010923E0280913E021F92D7
:1050E0008F938DE091E154C080915801681720F4AE
:1050F000861B8093580102C010925801809158017C
:105100001F928F938BEF90E143C0809157016817F6
:1051100020F4861B8093570102C0109257018091A2
:1051200057011F928F9388EE90E132C08091560113
:10513000681720F4861B8093560102C01092560116
:10514000809156011F928F9383ED90E121C0809151
:105150005501681720F4861B8093550102C01092F8
:105160005501809155011F928F938AEB90E110C0F9
:1051700080915401681720F4861B8093540102C06B
:1051800010925401809154011F928F938FE990E106
:105190009F938F930E94880D0F900F900F900F9008
:1051A0000895CF93C82F1F928F9384EA93E19F9322
:1051B0008F930E94880D81E090E0A0E0B0E0BC01F8
:1051C000CD0104C0660F771F881F991FCA95D2F7BB
:1051D0000E945D210F900F900F900F90CF910C9433
:1051E0005F1DCF93873288F58E3108F00BC18E306A
:1051F00009F489C0D8F4873009F461C08B3009F410
:105200004FC0863009F004C180913A02817F8E7FC1
:1052100080933A028DE295E10E94EF0C8AE697E1D5
:105220000E94EF0C81E08093470247C0863109F469
:10523000B2C020F4803109F47CC0EAC0893109F49D
:1052400093C08B3109F44BC0E3C0883349F150F46B
:10525000893209F4D9C0853309F4D6C0873209F4FC
:10526000D3C0D6C0833409F4CFC028F48A3308F4FD
:10527000CFC08953CAC0883409F0CAC00E945F1DDC
:105280008EE497E10E94EF0C2FEF83ED90E3215025
:1052900080409040E1F700C000000E94D9240DC07A
:1052A00084E595E143C085E397E10E94EF0C80918E
:1052B0003A02897F877F80933A02C1E0AEC0809135
:1052C0003A02C82FC095C170C0FB80F980933A02A2
:1052D000CC2349F382E497E10E94EF0C9EC09091A9
:1052E0003A0291FBCC27C0F981E0C827892FC0FB87
:1052F00081F980933A02CC2319F088E297E129C022
:105300008AE197E113C090913A0292FBCC27C0F951
:1053100081E0C827892FC0FB82F980933A02CC2311
:1053200019F08BE097E115C08BEF96E10E94EF0C2E
:10533000C4CF90913A0293FBCC27C0F981E0C827F3
:10534000892FC0FB83F980933A02CC2351F08FEE72
:1053500096E10E94EF0C80913A02816080933A02BC
:105360005CC082EE96E1E2CF8EE195E10E94EF0C07
:1053700081EE94E10E94EF0C88EA94E10E94EF0C28
:1053800083E794E10E94EF0C8DE394E10E94EF0C1F
:1053900082E194E1CBCF84E094E10E94EF0C0E9483
:1053A00096171F928F938AEE93E19F938F930E949B
:1053B000880D809163011F928F9383ED93E19F93FA
:1053C0008F930E94880D809154021F928F9380ECDE
:1053D00093E19F938F930E94880D0E947D249F9359
:1053E0008F937F936F9389EA93E19F938F930E94AA
:1053F000880D8DB79EB742960FB6F8949EBF0FBE2C
:105400008DBF5BCF8D5101C080E00E94D12855CF68
:1054100080EE96E10E94EF0CC0E08C2FCF910895B2
:1054200080E0089580E008958E518A3030F4E82FAE
:10543000F0E0E858FE4F8081089580E00895CF9312
:10544000C82F80914702813071F020F0823009F43A
:105450004BC03DC1E0915201F091530180818232F5
:1054600009F037C107C0E0915201F09153018081EA
:10547000823261F48C2F0E94102A811104C08C2F7B
:105480000E94F1282FC081E090E02CC08C2F0E9458
:10549000122A811126C0C431E1F070F4CB3081F0C2
:1054A000C031D1F40E9499278CE993E10E94EF0C5E
:1054B00082E08093470215C0C93259F0C83361F4C5
:1054C0008DE295E10E94EF0C80EA93E10E94EF0CDF
:1054D00008C010924702FFC08AE993E10E94EF0CD6
:1054E000FAC081E08170F9C0C43218F5CE3108F0FD
:1054F000BFC0CB3091F1C0F4C73009F0CEC01092DC
:105500003E0280E180935801C09357018CE3809361
:10551000560188E08093550188E28093540180E42D
:1055200092E10E94EF0CBCC0C33149F1C431C1F01B
:10553000B4C0CB3409F4A6C028F4C93289F0C8330A
:1055400061F0ABC0C13509F49BC0C23509F496C007
:10555000CE3409F0A2C06AE09BC00E949927A0C087
:1055600080914602882319F01092460299C08DE47A
:1055700092E10E94EF0C81E080934702AEC087E287
:1055800092E10E94EF0C85E192E10E94EF0C809184
:105590003E021F928F9382E192E19F938F930E942C
:1055A000880D80E192E10E94EF0C8EEF91E10E9464
:1055B000EF0C809158011F928F938BEF91E19F9395
:1055C0008F930E94880D89EF91E10E94EF0C8AEE83
:1055D00091E10E94EF0C809157011F928F9387EE0B
:1055E00091E19F938F930E94880D85EE91E10E9437
:1055F000EF0C84ED91E10E94EF0C809156011F9217
:105600008F9381ED91E19F938F930E94880D8FEC92
:1056100091E10E94EF0C8AEB91E10E94EF0C8091E6
:1056200055011F928F9387EB91E19F938F930E9477
:10563000880D85EB91E10E94EF0C8EE991E10E94CB
:10564000EF0C809154011F928F938BE991E19F930E
:105650008F930E94880D89E991E10E94EF0C8DB72C
:105660009EB748960FB6F8949EBF0FBE8DBF18C068
:105670008C2F0E94142A8093460212C061E003C05E
:1056800061E006C06AE0809146020E94B02708C02F
:10569000809146020E94532803C08EE392E113C01A
:1056A00080914602882369F01F928F9388E392E1EC
:1056B0009F938F930E94880D0F900F900F900F90E3
:1056C00004C085E392E10E94EF0C81E006C01092D5
:1056D000470280E002C080E005CFCF91089580911D
:1056E000530208959FB7F89410924A029FBF909179
:1056F0006202943009F057C09091E9009F70309198
:10570000EC00232F217030FD20E8922B24E0209321
:10571000E9002091EB0020FF43C02091EE0027FF1D
:105720003FC020914802222321F02091E80025FF6C
:1057300037C01092480226E03091E80035FD15C0D0
:1057400030916202343061F53091EB0035FD28C0B4
:10575000215021F481E08093480222C0EFE9FFE06C
:105760003197F1F700C00000E7CF8093F1008091FE
:10577000E80085FD0AC08091E80080FFFCCF8091A1
:10578000E8008E778093E80006C08FB7F89421E098
:1057900020934A028FBF9F709093E90080E00895A4
:1057A0009F709093E9008FEF08950F931F93CF930D
:1057B000DF9300D01F92CDB7DEB78C010E94872EF9
:1057C000823011F0843019F593E099831B830A83AA
:1057D0009093E9008FEF9091E800815095FD06C00D
:1057E00095ED9A95F1F700008111F5CF8091E800D1
:1057F00085FF0DC040E050E063E070E0CE0101960F
:105800000E94A42E8091E8008E778093E8000F908C
:105810000F900F90DF91CF911F910F910895CF932B
:10582000DF9300D01F92CDB7DEB720916202243003
:1058300031F522E02983805891099B838A8383E094
:105840008093E9008FEF9091E800815095FD06C0AC
:1058500095ED9A95F1F700008111F5CF8091E80060
:1058600085FF0DC040E050E063E070E0CE0101969E
:105870000E94A42E8091E8008E778093E8000F901C
:105880000F900F90DF91CF910895CF93DF93EC01AC
:105890000E94872E823011F08430F9F482E08093E8
:1058A000E9009FEF8091E800915085FD06C085EDED
:1058B0008A95F1F700009111F5CF8091E80085FFFE
:1058C0000CC040E050E065E070E0CE010E94A42EE4
:1058D0008091E8008E778093E800DF91CF91089562
:1058E000CF93DF93EC010E94872E823011F0843039
:1058F00039F581E08093E9009FEF8091E8009150B5
:1059000085FD06C085ED8A95F1F700009111F5CF70
:105910008091E80085FF14C040E050E068E070E04E
:10592000CE010E94A42E9091E8009E779093E8000B
:1059300098E0FE01ABE4B2E001900D929A95E1F798
:10594000DF91CF91089583E997E10E94EF0C809158
:105950006102811109C00E9439300E949630809105
:10596000E20084608093E20008958FE897E10E944E
:10597000EF0C1092610208958BE897E10C94EF0C04
:1059800087E897E10C94EF0C83E897E10E94EF0C15
:105990000C943924209149022F5F822F62E30E94E8
:1059A0003F33992319F02093490208951092490238
:1059B00080914A02882371F180916202843041F51E
:1059C0008091E9008F702091EC00922F917020FD62
:1059D00090E8892B94E09093E9009091EB0090FF80
:1059E00014C09091EE0097FF10C09091E80095FFD1
:1059F00003C01092F100F9CF9091E80090FF05C02C
:105A00009091E8009E779093E8008F708093E90072
:105A100010924A02089542E061EC81E00E94B32FA7
:105A200042E061EC82E00E94B32F42E061EC83E04F
:105A30000E94B32F42E261EC84E00C94B32F80917A
:105A40006402833009F453C030F4813071F0823045
:105A500009F48CC008958A3009F478C08B3009F4B9
:105A60005EC0893009F09AC020C080916302813AFB
:105A700009F094C08091E800877F8093E8008091CE
:105A8000670290916802892B21F468E08BE492E030
:105A900003C060E080E090E070E00E94EF2E809113
:105AA000E8008B778093E80008958091630281324B
:105AB00009F074C08091670290916802892B09F007
:105AC0006DC08091E800877F8093E8008091E800B6
:105AD00082FD05C0809162028111F8CF5FC0809184
:105AE000F100809353028091E8008B7753C080913E
:105AF0006302813A09F052C0809167029091680276
:105B0000892B09F04BC08091E800877F8093E800E3
:105B10008091E80080FFFCCF8091630136C08091C6
:105B200063028132D9F58091670290916802892BD6
:105B3000A9F58091E800877F8093E8000E94E82F14
:105B400080916502809363010C945F1D80916302D4
:105B5000813221F58091E800877F8093E8000E94E0
:105B6000E82F809166028093540208958091630229
:105B7000813AA1F48091E800877F8093E8008091CA
:105B8000E80080FFFCCF809154028093F100809167
:105B9000E8008E778093E8000C94E82F089584B78E
:105BA000877F84BF0FB6F894A895809160008861C4
:105BB00080936000109260000FBE80E880936100C7
:105BC000109261000E9422180E9439300E94963083
:105BD0008091E20084608093E20082E79BE20E9471
:105BE0004D2378940E9424330E94261889E591E081
:105BF0000E94911782E797E10E94EF0C8091620268
:105C0000853089F48EE697E10E94EF0C0E94F7231D
:105C100080916002882391F30E942524882371F3E8
:105C20000E948E2EEBCF0E945418E8CF0C94182EB1
:105C3000292F332723303105C9F064F42130310591
:105C400081F02230310509F049C084E790E029EC69
:105C500037E148C02132310521F12232310571F19D
:105C60003DC082E190E02DE338E13CC099278130CE
:105C7000910571F02CF4892B89F5E5ECF7E10DC065
:105C80008230910541F0039749F5E7E9F7E105C056
:105C9000EDEAF7E102C0EDE9F7E1849190E09F01C0
:105CA00021C064307105D0F4660F771FFB01E25705
:105CB000FE4F2081318189E090E014C0643071058D
:105CC00068F4FB01EE0FFF1FEA57FE4F2081318180
:105CD000FB01EE57FE4F808190E004C080E090E031
:105CE00020E030E0FA013183208308950895CF93B6
:105CF000C82F0E94762EC0935502CF9108958091AF
:105D00006202843011F081E0089582E0089580916C
:105D10005502811102C00C947F2E089580E189BD47
:105D200082E189BD09B400FEFDCF8091D8008F7D4E
:105D30008093D8008091E00082608093E0008091A1
:105D4000E00081FDFCCF0895CF92DF92EF92FF92A9
:105D50000F931F93CF93DF93EC018B016A010E9495
:105D60000730811133C0C114D10439F0F6018081AC
:105D70009181081B190BC80FD91FE12CF12C0115BB
:105D8000110519F18091E80085FD16C08091E800A9
:105D90008E778093E800C114D10449F0F601808128
:105DA0009181E80EF91EF182E08285E00FC00E9429
:105DB0000730882321F30AC089918093F1000150B4
:105DC0001109FFEFEF1AFF0ADACF80E0DF91CF91E0
:105DD0001F910F91FF90EF90DF90CF900895209149
:105DE000690230916A022617370748F0611571057C
:105DF00039F42091E8002E772093E80001C0B90122
:105E000040E061157105A9F120916202222309F495
:105E100043C0253009F442C02091E80023FD40C072
:105E20002091E80022FD32C02091E80020FFE9CF58
:105E30004091F3002091F20030E0342BFC01CF01BF
:105E40006115710559F02830310540F48191809336
:105E5000F100615071092F5F3F4FF1CF41E02830D1
:105E6000310509F040E02091E8002E772093E8000A
:105E7000C8CF4111C9CF0AC080916202882361F066
:105E8000853061F08091E80083FD0AC08091E800D0
:105E900082FFF2CF80E0089582E0089583E00895C4
:105EA00081E008952091690230916A022617370730
:105EB00048F06115710539F42091E8002E772093A0
:105EC000E80001C0B901FC0120E06115710591F104
:105ED00080916202882309F440C0853009F43FC0F4
:105EE0008091E80083FD3DC08091E80082FD2FC0D5
:105EF0008091E80080FFE9CF2091F3008091F200CB
:105F000090E0922B6115710559F08830910540F4AD
:105F100024912093F1003196615071090196F2CFDE
:105F200021E0089709F020E08091E8008E778093C7
:105F3000E800CBCF2111CCCF0AC080916202882328
:105F400061F0853061F08091E80083FD0AC08091A6
:105F5000E80082FFF2CF80E0089582E0089583E0B8
:105F6000089581E00895982F973058F59093E900AF
:105F7000981739F07091EC002091ED005091F000ED
:105F800003C0242F762F50E021FF19C03091EB0081
:105F90003E7F3093EB003091ED003D7F3093ED007C
:105FA0003091EB0031603093EB007093EC00209364
:105FB000ED005093F0002091EE0027FF07C09F5F97
:105FC000D3CF8F708093E90081E0089580E0089539
:105FD0008091630287FF11C08091E80082FD05C0B7
:105FE000809162028111F8CF11C08091E8008B7717
:105FF0000BC080916202882349F08091E80080FF05
:10600000F8CF8091E8008E778093E8000895209182
:10601000E4003091E50095E64091EC00842F81701A
:1060200040FF22C08091E80080FD1CC08091620288
:10603000882391F0853091F08091EB0085FD10C0B0
:106040004091E4005091E5004217530729F39A016B
:10605000915011F784E0089582E0089583E0089557
:1060600081E0089580E008954091E80042FFDECF8E
:1060700008950E94A7300E94AF30E0EEF0E08081EA
:1060800081608083E8EDF0E080818F77808319BCA8
:10609000A7EDB0E08C918E7F8C9380818F7E808382
:1060A0001092610208950F931F93CF93DF930E9484
:1060B000A7300E94AF30C8EDD0E088818F77888309
:1060C00088818068888388818F7D888319BC10923D
:1060D000620210925E021092600210925F0200EE65
:1060E00010E0F80180818B7F8083888181608883C4
:1060F00042E060E080E00E94B32FE1EEF0E08081BA
:106100008E7F8083E2EEF0E08081816080838081F9
:1061100088608083F80180818E7F808388818061A0
