:100000000C94F0080C94310C0C9437090C943709BB
:100010000C9437090C9437090C9437090C94370960
:100020000C9437090C9437090C943C2C0C94102D2B
:100030000C9408200C9437090C9437090C94370958
:100040000C9437090C9437090C9437090C94370930
:100050000C9437090C947A200C9437090C943709C6
:100060000C9437090C9437090C9437090C94370910
:100070000C9437090C9437090C9437090C94370900
:100080000C9437090C9437090C9437090C943709F0
:100090000C9437090C9437090C9437090C943709E0
:1000A0000C9437090C9437090C9437090A00253051
:1000B000313662003A200025303258000A722F6330
:1000C00020303132333435363738394142434445B4
:1000D000460A004B4C3A206B633A2025752C20636E
:1000E0006F6C3A2025752C20726F773A2025752C7D
:1000F00020707265737365643A2025750A0001E308
:1001000001E0014F024F02E002E30001E301E001E0
:1001100050025002E002E30001E30115021574FFF2
:1001200002E374FF01060206011002100107020734
:100130000128022874FF01130213010C020C0111A3
:100140000211010A020A012C022C01E00119021914
:1001500002E00001E30115021502E30106020601B7
:10016000100210010702070128022874FF74FF0122
:100170000C020C0113021301060206011202120105
:1001800011021101090209010C020C010A020A0103
:100190002C022C0138023801040204010F020F0165
:1001A0000F020F012802280001E30115021574FF58
:1001B00002E374FF010602060110021001070207A4
:1001C000012802280001E0010402040106020602DF
:1001D000E00001E00119021902E00001E00106025D
:1001E0000602E000757365726E616D65012B7061CA
:1001F0007373012B012800750A012B022B010C02DD
:100200000C01110211012B022B01280228012B02E3
:100210002B012B022B012B022B010C020C011102D2
:1002200011012B022B0128022800750A012B022B39
:100230000112021201170217012B022B01280228BA
:10024000012B022B012B022B012B022B011D021D66
:1002500001150215012B022B0128022800750A0145
:100260002B022B0112021201130213012B022B018C
:10027000280228012B022B012B022B012B022B0120
:100280001D021D01150215012B022B012802280059
:100290006970636F6E666967202F616C6C00007512
:1002A0000A0127022701060206012B022B012B025D
:1002B0002B01040204012B022B00011B021B007501
:1002C0000A01E00117021701190219012802280288
:1002D000E0007777772E737570706F72742E786583
:1002E000726F782E636F6D012800656D61696C0017
:1002F000750A010402040107020701100210010C33
:10030000020C01110211744B012B022B011E021E63
:10031000011E021E011E021E011E021E01280228CD
:100320000001E3012B022B02E3001C001D001E0054
:100330001F00200021002B0014001A0008001500E7
:1003400017002A0004001600070009000A0029000F
:100350001D001B00060019000500E0001D01E20061
:10036000E300015100004E004B004D004A00000028
:1003700000004C00E100000000000000000022002E
:10038000230024002500260027003100130012005E
:100390000C0018001C00340033420F000E000D004A
:1003A0000B00E500380037003600100011004F0048
:1003B00052005100500001510000E300E400280009
:1003C00006510000000028002C0000000000000082
:1003D00000001C001D001E001F0020002100010065
:1003E0001E021F022F02300231022D0220022102C2
:1003F0002602270235000100220223022F003000CE
:1004000035020100010001000100010000004E0062
:100410004B004D004A00000000004C00E1000000CD
:100420000000000000002200230024002500260018
:1004300027002D00550026002500240036022E003E
:100440002D00230022002100370201005700200068
:100450001F001E0024020100540037002700010085
:100460000000E300E400280006510000000028001E
:100470002C0000000000000000001C001D001E00F9
:100480001F0020002100010001000100F000010018
:10049000010001000100F200F100F3000100010081
:1004A0000100010001000100010001000100010044
:1004B0000100010000004E004B004D004A0000000A
:1004C0000000F500F4000000000000000000220021
:1004D0002300240025002600270001000100010060
:1004E000FA004C050F08AE000100FB00F900FC000B
:1004F000010001000100A900AA00AB00AC0001004E
:1005000001000100010001000000E300E4002800F8
:10051000065100000000F500F4000000000000009B
:1005200000000000000000000000000000000000CB
:1005300000000000000000000000000000000000BB
:1005400000000000000000000000000000000000AB
:10055000000000000000000000000000000000009B
:10056000000000000000000000000000000000008B
:10057000000000000000000000000000000000007B
:10058000000000000000000000000000000000006B
:10059000000000000000000000000000000000005B
:1005A000000000000000000000000000000000004B
:1005B000000000000000000000000000000000003B
:1005C000000000000000000000000000000000002B
:1005D000000000000000000000000000000000001B
:1005E000000000000000000000000000000000000B
:1005F00000000000000000000000000000000000FB
:1006000000000000000000000000000000000000EA
:1006100000000000000000000000000000000000DA
:1006200000000000000000000000000000000000CA
:1006300000000000000000000000000000000000BA
:1006400000000000000000000000000000000000AA
:10065000000000000000000000000000000000009A
:10066000000000000000000000000000000000008A
:10067000000000000000000000000000000000007A
:10068000000000000000000000000000000000006A
:10069000000000000000000000000000000000005A
:1006A000000000000000000000000000000000004A
:1006B000000000000000000000000000000000003A
:1006C000000000000000000000000000000000002A
:1006D000000000000000000000000000000000001A
:1006E000000000000000000000000000000000000A
:1006F00000000000000000000000000000000000FA
:1007000000000000000000000000000000000000E9
:10071000000000000000000000001C001D001E0082
:100720001F00200021000100010001000100150947
:1007300001000100010001000100010001000100B1
:1007400001000100010001000100010001000100A1
:100750000100010000004E004B004D004A00000067
:100760000000F500F400000000000000000022007E
:10077000230024002500260027000709130D260961
:100780002509240901004F095009230922092109DB
:1007900001004F0B500B20091F091E090100010029
:1007A00027090100010001000000E300E400280027
:1007B000065100000000F500F400000000000000F9
:1007C000000044454255473A20656E61626C65649D
:1007D0002E0A0000000000000000002A2B28000064
:1007E00000000000000000000000000000002900E0
:1007F0000000002C1E3420212224342627252E36EA
:100800002D3738271E1F2021222324252633333657
:100810002E37381F0405060708090A0B0C0D0E0FAA
:10082000101112131415161718191A1B1C1D2F312D
:1008300030232D350405060708090A0B0C0D0E0F91
:10084000101112131415161718191A1B1C1D2F310D
:1008500030354C00000000000000000000000000E7
:100860000000000000000000000000000000000088
:10087000000000000101010101010001010101006E
:100880000000000000000000000000000001000166
:100890000001010101010101010101010101010149
:1008A000010101010101010101010101010100003A
:1008B0000001010000000000000000000000000036
:1008C0000000000000000000000000000000010126
:1008D0000101000A002530325820006B6579626FF3
:1008E0006172645F7265706F72743A20000A00254D
:1008F000303258006B6579626F6172645F73657442
:100900005F6C65643A2000290A002575002F0025D8
:1009100075005D2800256400200025640020002566
:10092000640020002564007C0025303258006D6F83
:100930007573656B6579205B62746E7C78207920B5
:100940007620685D287265702F61636C293A205BA0
:10095000006D6B5F776865656C5F74696D655F746A
:100960006F5F6D6178203D2025640A006D6B5F77B5
:100970006865656C5F6D61785F7370656564203D67
:100980002025640A006D6B5F74696D655F746F5F2D
:100990006D6178203D2025640A006D6B5F6D617884
:1009A0005F7370656564203D2025640A006D6B5F90
:1009B000696E74657276616C203D2025640A006D55
:1009C0006B5F64656C6179203D2025640A006D6B66
:1009D0005F776865656C5F74696D655F746F5F6D87
:1009E0006178203D2025640A006D6B5F776865653E
:1009F0006C5F6D61785F7370656564203D20256470
:100A00000A006D6B5F74696D655F746F5F6D61780F
:100A1000203D2025640A006D6B5F6D61785F737007
:100A2000656564203D2025640A006D6B5F696E7406
:100A3000657276616C203D2025640A006D6B5F64F1
:100A4000656C6179203D2025640A000A0025750047
:100A5000363A20776865656C5F74696D655F746FA1
:100A60005F6D61783A20000A00257500353A2077DD
:100A70006865656C5F6D61785F73706565643A2069
:100A8000000A00257500343A2074696D655F746F43
:100A90005F6D61783A20000A00257500333A206DB9
:100AA00061785F73706565643A20000A00257500FF
:100AB000323A20696E74657276616C286D73293ADA
:100AC00020000A00257500313A2064656C617928A0
:100AD0002A31306D73293A20000A092D2056616CA5
:100AE000756573202D0A004D3E004D25643E2000A3
:100AF0003F007365742064656661756C740A004319
:100B00003E200077686572652064656C74613A20E8
:100B1000637572736F723D25642C20776865656C10
:100B20003D25640A53656520687474703A2F2F65FB
:100B30006E2E77696B6970656469612E6F72672FBD
:100B400077696B692F4D6F7573655F6B6579730A94
:100B5000000A092D204D6F7573656B6579202D0A8C
:100B60004553432F713A09717569740A313A096422
:100B7000656C6179282A31306D73290A323A096926
:100B80006E74657276616C286D73290A333A096D4B
:100B900061785F73706565640A343A0974696D65DC
:100BA0005F746F5F6D61780A353A09776865656CC7
:100BB0005F6D61785F73706565640A363A097768BE
:100BC00065656C5F74696D655F746F5F6D61780AF0
:100BD0000A703A097072696E742076616C7565737B
:100BE0000A643A097365742064656661756C747390
:100BF0000A75703A092B310A646F776E3A092D3104
:100C00000A706775703A092B31300A7067646F7724
:100C10006E3A092D31300A0A7370656564203D20F3
:100C200064656C7461202A206D61785F73706565FE
:100C300064202A2028726570656174202F207469F1
:100C40006D655F746F5F6D6178290A003F004D3EEE
:100C50002000433E20004C25640A0074696D6572D3
:100C60005F72656164333228293A202530346C582C
:100C70000A006B6579626F6172645F69646C653AE2
:100C80002025580A006B6579626F6172645F70722B
:100C90006F746F636F6C3A2025580A00686F737425
:100CA0005F6B6579626F6172645F6C65647328293C
:100CB0003A2025580A000A092D205374617475736F
:100CC000202D0A004743433A20382E332E3020414E
:100CD00056522D4C4942433A20322E302E3020417C
:100CE00056525F415243483A20617672350A004FAE
:100CF0005054494F4E533A204C554641204D4F5584
:100D000053454B45592045585452414B4559204372
:100D10004F4E534F4C4520434F4D4D414E44203490
:100D20003039360A004255494C443A202265343263
:100D30006461342D646972747922202831363A3521
:100D4000383A3332204A756C202036203230323027
:100D5000290A005649443A203078464545442843FC
:100D60004820626F784D6F647329205049443A20BF
:100D70003078333036302844616374796C292056DA
:100D800045523A203078303030310A0044455343E0
:100D90003A20412073706C6974206572676F6E6FC2
:100DA0006D6963206B6579626F61726420666F7232
:100DB0002074686520616476656E7465726F757302
:100DC000206D616B6572730A000A092D20566572E9
:100DD00073696F6E202D0A000A092D20436F6E7310
:100DE0006F6C65202D0A4553432F713A097175695F
:100DF000740A6D3A096D6F7573656B65790A000A3F
:100E0000092D204D61676963202D0A443A09446524
:100E1000627567204D65737361676520546F6767FE
:100E20006C650A583A094D617472697820446562AC
:100E30007567204D6F646520546F67676C65202D62
:100E40002053686F77206B65797072657373657373
:100E500020696E206D617472697820677269640A16
:100E60004B3A094B6579626F617264204465627523
:100E70006720546F67676C65202D2053686F77205B
:100E80006B65797072657373207265706F72740A26
:100E90004D3A094465627567204D6F75736520543E
:100EA0006F67676C650A563A0956657273696F6EAB
:100EB0000A533A095374617475730A433A094163DA
:100EC00074697661746520436F6E736F6C65204D35
:100ED0006F64650A46312D4631303A09537769749B
:100EE000636820746F204C6179657220302D392041
:100EF00028463130203D204C30290A302D393A091E
:100F000053776974636820746F204C61796572202F
:100F1000302D390A4553433A095377697463682081
:100F2000746F204C6179657220302028616C746583
:100F3000726E617465206B65792031290A475241D0
:100F400056453A0953776974636820746F204C6181
:100F500079657220302028616C7465726E617465E9
:100F6000206B65792032290A50415553453A094A88
:100F7000756D7020746F20426F6F746C6F61646563
:100F80007220285265736574290A003F000A6D6F4C
:100F90007573653A206F66660A000A6D6F75736532
:100FA0003A206F6E0A000A6B6579626F6172643A6B
:100FB000206F66660A000A6B6579626F6172643A37
:100FC000206F6E0A000A6D61747269783A206F664C
:100FD000660A000A6D61747269783A206F6E0A00C1
:100FE0000A64656275673A206F66660A000A64657E
:100FF0006275673A206F6E0A000A0A4A756D706959
:101000006E6720746F20626F6F746C6F61646572BD
:101010002E2E2E2000433E20005B735D004B657931
:10102000626F6172642073746172742E0A005B5780
:101030005D005B535D005B525D005B445D005B43A4
:101040005D000403300000000E03440061006300F3
:10105000740079006C000000160343004800200073
:1010600062006F0078004D006F00640073000000A4
:101070000403090409027400040100A0FA09040031
:1010800000010301010009211101000122400007B4
:1010900005810308000A0904010001030102000997
:1010A0002111010001224D000705820308000A09F1
:1010B0000402000103000000092111010001223691
:1010C000000705830308000A090403000203000067
:1010D00000092111010001222200070584032000DC
:1010E000010705040320000112011001000000089F
:1010F000EDFE60300100010203010631FF0974A119
:10110000010975150026FF009520750881020976F2
:10111000150026FF00952075089102C00501098081
:10112000A10185021601002603001A81002A83000E
:10113000751095018100C0050C0901A101850316F8
:101140000100269C021A01002A9C0275109501815B
:1011500000C005010902A1010901A1000509190149
:101160002905150025019505750181029501750375
:1011700081010501093009311581257F9502750826
:10118000810609381581257F950175088106050CB2
:101190000A38021581257F950175088106C0C005B2
:1011A000010906A101050719E029E71500250195A8
:1011B0000875018102950175088101050819012949
:1011C00005950575019102950175039101050719B2
:1011D0000029FF150026FF00950675088100C00054
:1011E00011241FBECFEFDAE0DEBFCDBF04B603FE91
:1011F00027C080916B0290916C02A0916D02B0911A
:101200006E028730904BA740B04BD1F410926B0226
:1012100010926C0210926D0210926E0214BE84B78E
:10122000877F84BF0FB6F894A8958091600088618D
:1012300080936000109260000FBEE0E0F8E3099533
:1012400011E0A0E0B1E0E4E2FFE502C005900D92FC
:10125000A639B107D9F722E0A6E9B1E001C01D9295
:10126000AB36B207E1F70E945D290C94312F0C9444
:101270000000FF93EF93E0919601F0919701309772
:1012800009F00995EF91FF910895FC018591803057
:1012900011F0EFDFFBCF0895FF27E0E230E247FFD8
:1012A0000CC0419597FF09C0EDE26095709580955F
:1012B0009095611D711D811D911D27FF02C0219513
:1012C00030E350E2AA27660F771F881F991FAA1FD5
:1012D000A41710F0A41B63955A95A9F7AA3008F03B
:1012E000A95FA05DAF93F395611571058105910527
:1012F00041F7ED3211F4EF93F395F21718F43F93A1
:10130000F395FBCF8F91B5DFFA95E1F70895E99159
:10131000F9918591803021F0853219F0AADFF9CF5B
:10132000089520E0E89455915532C1F3503311F4FB
:10133000689455915A3348F4505390F3220F022E7B
:10134000220F220F200D250FF4CF0EF42195899145
:101350009991533619F3533729F1533559F1BC019B
:1013600088279927E8945C3621F4899199916894AB
:101370005591543639F446EF7EF077FF0DC08FEF6C
:101380009FEF0AC055374AE039F0583540E121F067
:10139000523642E009F00895FF93EF937DDFEF911D
:1013A000FF91B7CFFF93EF93FC0181918030B9F3A8
:1013B00060DFFBCFFF93EF9368DFF1CFDF93CF9335
:1013C000CDB7DEB72596A3DFCF91DF9108950C94BA
:1013D000B00D80913A028B6080933A02AAE6B1E0A8
:1013E00061E070E08D91E82FE295EF70F0E041A1AF
:1013F0008F709B0101C0220F8A95EAF7922F90957A
:10140000942391A382A1822B82A381E0A137B80704
:1014100049F7A4E6B1E061E070E08D91E82FE29534
:10142000EF70F0E041A18F709B0101C0220F8A95FF
:10143000EAF7922F9095942391A382A1822B82A305
:1014400081E0AA36B80749F7559A209AE8E9F1E011
:10145000A7EAB1E086EA91E011921D928E179F07EC
:10146000D9F70C94B60F3F924F925F926F927F9292
:101470008F929F92AF92BF92CF92DF92EF92FF92A4
:101480000F931F93CF93DF9300D000D0CDB7DEB77B
:10149000809100018111B0C087E090E09A83898338
:1014A00009811A8109551E4F8AE6E82E81E0F82E3F
:1014B0006801AA24A394B12C8824839424E0922E5A
:1014C000D6016D906D01FD011292FC83EB83D70173
:1014D0008D917D01E82FE295EF70F0E091A18F7082
:1014E000B50101C0660F8A95EAF7892F862B81A383
:1014F00082A1762E7094872182A3B0EABA95F1F783
:1015000044E651E090E080E0DA015D90AD01252DE8
:1015100022952F7030E0D90190963C90AB81BC8130
:101520004C90352D3F70D50102C0AA0FBB1F3A95D4
:10153000E2F79D01232109F062C02A2D082E01C087
:10154000220F0A94EAF72429AB81BC812C930196DF
:1015500086309105C9F681A1782271A282A1682BFB
:1015600062A38C91681659F08092B5010E943820D0
:101570009093B7018093B6018BB189258BB9B1E700
:10158000EB16B1E0FB0609F09BCF8091B5018823F3
:10159000E1F08091B6019091B7010E94502006972A
:1015A000A0F0E981FA81E856FE4FFA83E98380E0F2
:1015B000D8019D918D01E981FA819193FA83E983A4
:1015C0008F5F8730A9F71092B50181E00F900F90DF
:1015D0000F900F90DF91CF911F910F91FF90EF909F
:1015E000DF90CF90BF90AF909F908F907F906F9043
:1015F0005F904F903F9008951A82198251CF20E05A
:10160000A2CFCF93DF9380910001D0E0C0E0882388
:1016100011F0C7E0D0E00E94960C009789F4C856FC
:10162000DE4F30E020E0F901E654FE4F408149935F
:101630002F5F3F4F27303105B1F7DF91CF910895EC
:1016400081E090E0FACFCF930E94330AC82F0E9426
:10165000010B892BE1F05D988091A6018F5F80934B
:10166000A601863078F080910001F0E0E0E0882368
:1016700011F0E7E0F0E0E856FE4F87E090E01192CD
:101680000197E9F70E94B80F8C2FCF9108955D9ACA
:101690001092A601F7CF0E94330A80910001E7E083
:1016A000F0E0882311F0F0E0E0E0E856FE4F90E033
:1016B00080E02191DC01A654BE4F2C930196873027
:1016C0009105B9F70895E82FF0E0E856FE4F8081C4
:1016D0000895CF92DF92EF92FF920F931F93CF93D3
:1016E000DF938CEB90E00E94450988E9E82E81E0C9
:1016F000F82ED0E0C0E097EBC92E90E0D92E0EEA8C
:1017000010E0DF93CF93DF92CF920E94DE0984EB4B
:1017100090E00E944509F70181917F0190E00E94CD
:101720003C1F9F938F931F930F930E94DE098CEAB7
:1017300090E00E94450921968DB79EB708960FB696
:10174000F8949EBF0FBE8DBFCE30D105D1F6DF918C
:10175000CF911F910F91FF90EF90DF90CF90089560
:10176000E8EDF0E08081806180838AE18A95F1F77D
:1017700000C08091D900817008950E94B00B8093C1
:1017800000010E94B00B882321F00E94240C789461
:1017900008950E942F200E94280CF9CF0E94E90989
:1017A0000E944B0BFDCF0E94BD0B0E94B00B81111C
:1017B00002C00E94CE0B0895509A08955098589AEE
:1017C0000895589A08950E94DE0B489BFECF80E84A
:1017D0008A95F1F708950E94DE0B98E080E029B128
:1017E000880F2170822B20E82A95F1F725E02A95B1
:1017F000F1F70000915099F708950F931F93CF933D
:10180000082F0E94DC0BC8E010E0C15020F4CF91FB
:101810001F910F910895C8010C2E02C095958795D0
:101820000A94E2F780FF06C00E94E10B80E88A95E7
:10183000F1F7EBCF5898FACF0E94DC0B589880E86C
:101840008A95F1F70C94E10B0E94DC0B0C94E10BF0
:101850000E94DE0BE89AE9E6F0E080818C7F8083CD
:1018600008951F920F920FB60F921124EF92FF92DC
:101870001F932F933F934F935F936F937F938F9318
:101880009F93AF93BF93CF93DF93EF93FF930E9408
:101890001C0CD0E0C0E010E0CE0186549E4F7C01CD
:1018A000FC0180810E94FD0B0E941C0CF7018081CD
:1018B000180F2196C730D10579F7812F0E94FD0BB3
:1018C0000E941C0CF0E8FA95F1F780E48A95F1F794
:1018D0000E94EB0B8093B9010E941C0CD091B901BE
:1018E0000E94EB0BC82F0E941C0C0E94DE0B809103
:1018F000B801DC17C9F081608093B801FF91EF91C6
:10190000DF91CF91BF91AF919F918F917F916F9117
:101910005F914F913F912F911F91FF90EF900F900A
:101920000FBE0F901F9018958E7FE6CFEF92FF921B
:101930001F93CF93DF93F8940E94DC0B589825E017
:101940002A95F1F700000E94DE0B0E94E10B30E8BF
:101950003A95F1F789B1182F117080FF09C078947A
:1019600081E090E0DF91CF911F91FF90EF9008957B
:101970000E94E30BD0E0C0E00E94EB0BFE01E654B6
:10198000FE4F7F0180830E94E30BF7018081180FD7
:101990002196C730D10581F70E94EB0BC82F0E941A
:1019A000E30B1C13DCCF8091B9010E94FD0B0E9458
:1019B000E30B8091B9010E94FD0B0E94E30B0E9492
:1019C000DC0B0E94E10B789490E080E0CBCF0C948C
:1019D000AF0DFC018081813021F48BED91E00C94FE
:1019E000961C823019F482ED91E0F9CF85EC91E0FC
:1019F000F6CFFC018081813021F488EA91E00C94DB
:101A0000961C823019F483E591E0F9CF88E191E0EA
:101A1000F6CFFC018081813021F48BE091E00C94C1
:101A2000961C823019F48EEF90E0F9CF0895FC01F6
:101A30008081813031F488E30E94561588E30C944C
:101A4000311681E30E94561581E3F9CFDC01603144
:101A5000C8F4E62FF0E0ED5CF04D0C94E12E129608
:101A60008C911297811163C012968C9112978111FB
:101A700061C012968C911297882339F08AEE92E019
:101A80000E94B30F90E080E0089512968C91129717
:101A9000882319F082ED92E0F3CF12968C91129781
:101AA00081114BC015968C911597982F907F1296A7
:101AB0002C91222341F0992311F080FFE3CF83E0A2
:101AC0000E947E1DDFCF992311F080FF39C083E093
:101AD0000E949F1DD7CF12968C911297811133C00F
:101AE00012968C911297882319F08EE992E0C8CF54
:101AF00012968C911297882319F080E992E0C0CF5A
:101B000012968C911297811121C012968C91129786
:101B100081111FC012968C91129781111DC01296CF
:101B20008C91882309F4AECF84EE91E0A9CF81E2B5
:101B300093E0089580EF92E008958FEB92E008958E
:101B40008AEB92E008958FE992E008958DE592E0A6
:101B500008958AE292E0089587EF91E0089508954C
:101B60000895FB0122811F922F9321811F922F93B1
:101B700020811F922F939F938F9383ED90E09F93EB
:101B80008F930E94DE098DB79EB70A960FB6F89420
:101B90009EBF0FBE8DBF81E0089581E008950C9433
:101BA000B10D0E9426192FEF84E39CE02150804064
:101BB0009040E1F700C0000087E797E790930108A5
:101BC000809300080C949E200F931F93CF93DF9374
:101BD0008C01FC01C081D181CE010E941A1EBE0180
:101BE0000E94C20FEC01B8010E94CA12B801CE01D6
:101BF0000E94CF0D882309F459C0B801CE010E947C
:101C00000E13882309F452C0B801CE010E941D12A0
:101C1000882309F44BC0C531FCE5DF0709F42BC16B
:101C2000B0F4C130ECE5DE0709F446C008F05AC054
:101C3000C115DC45B1F181E08093C6018093C701F5
:101C4000C801DF91CF911F910F910C94CD0DC53D2F
:101C5000ECE5DE0709F4F4C0B8F4C33D8CE5D80721
:101C600009F4B2C0C43DDC4531F7F8018281882314
:101C700009F4D1C01092C7010E9438209093C50189
:101C80008093C40180E2ADC0C83DFCE5DF0711F1DF
:101C9000C93DDC4581F6F8018281882339F082E074
:101CA0001EC0F801828181110E94D10D80E0DF9178
:101CB000CF911F910F910895F80182818823B1F38C
:101CC00080913A02816080933A0282EC97E00E9410
:101CD0004509ECCFF8018281882341F380E00E941E
:101CE000042AE4CFF8018281882309F4A9CF0E9455
:101CF000631F811102C00E94491F0E94761F90E05D
:101D000090935D0280935C02FE01E350FC4580915C
:101D10005C028160E231F10538F4ED5BF04D0C942A
:101D2000E12E80915C02826080935C0280915C0273
:101D30000E947A1F0E942619B9CF80915C028460AC
:101D4000F3CF80915C028860EFCF80915C0280616C
:101D5000EBCF80915C028062E7CF80915C0280646F
:101D6000E3CF80915C028068DFCF80915C028C6061
:101D7000DBCF80915C028E7FD7CF80915C028D7F1C
:101D8000D3CF80915C028B7FCFCF80915C02877F25
:101D9000CBCF80915C028F7EC7CF80915C028F7D1C
:101DA000C3CF80915C028F7BBFCF80915C028F7725
:101DB000BBCF80915C02837FB7CF90915C02892F6B
:101DC00097FB87F98058B0CFF8018281882361F0B2
:101DD0001092C6010E9438209093C3018093C201E3
:101DE00082E00E94801662CF8091C60181110FC0EF
:101DF0008091C2019091C3010E94502086399105C3
:101E000030F486E20E94561586E20E94311682E086
:101E10000E9487164BCF8091C70181110FC080911E
:101E2000C4019091C5010E9450208639910530F47B
:101E300087E20E94561587E20E94311680E2E8CFC1
:101E4000F8018281811116CF8091C7018111F6CFEF
:101E50008091C4019091C5010E945020863991055E
:101E600068F780E20E94871688E20E94561588E291
:101E70000E9431161BCF0E94E01EF8019281992327
:101E800081F08A7A91E009F490E09093C101811188
:101E900006C089E20E94691E0E94AD1E07CF85E33D
:101EA000F9CF8091C101811104C089E20E94701EA6
:101EB000F3CF85E3FBCFCF9390E0FC01ED52F84FD9
:101EC000C4918D5A974FFC018491882369F081EE6B
:101ED0000E9456158C2F0E9456158C2F0E94311689
:101EE00081EECF910C9431168C2F0E9456158C2FB9
:101EF000F8CFFF920F931F93CF93DF938C01F62EB1
:101F0000F8018491882349F1E8012196813049F450
:101F1000FE011491812F0E945615812F0E943116C7
:101F200006C0823089F4FE0184910E9456158E010C
:101F30000F5F1F4F8F2D815018F3EFE9FFE03197AE
:101F4000F1F700C00000F7CF833019F4FE0184914F
:101F5000E5CF0E945B0FE801EACFDF91CF911F919F
:101F60000F91FF90089560E00C94790F0C94E70CAA
:101F70000E9468130C94E70908950C94BC0F0C940C
:101F8000BD0F0895972F70E026E0929F600D711DA0
:101F90001124FB0194E5899FE00DF11D1124EE0F42
:101FA000FF1FE65DFC4F859194910895FC01EE0FB3
:101FB000FF1FED52F74F859194910895CF93DF93D2
:101FC0000E94C20F0E947E11EC01811520E592074C
:101FD00008F042C0811530E4930708F007C1883E3D
:101FE000910528F5803E910508F09BC0883A91053F
:101FF00088F4853A910508F08AC08130910509F48A
:1020000090C0009709F48DC0049708F08AC0D0E012
:10201000C0E087C08D3B910508F487C0805C9109C2
:10202000C03CD105A0F30E94D60FEC017AC0811507
:10203000904250F4C11581E0D80708F072C0C03F4B
:10204000D10528F3D0656DC0C11590E3D90708F01C
:10205000C3C0CE019F70E7CF811525E5920758F5E3
:10206000811534E5930708F0F0C0811542E5940727
:1020700050F4C11581E5D80708F4BBC0DC2FCC278C
:10208000C16FD06A4EC0982F969596959E01237089
:102090003327C115D34508F0C9C0C1E0D0E002C064
:1020A000CC0FDD1F2A95E2F720E2929FC001112498
:1020B000C82BD92BB9C0C11589E5D80780F4C11543
:1020C00098E5D90708F0C6C0C11526E5D20708F083
:1020D0009ECFDC2FCC27CC27DF71D06222C0CE016F
:1020E000C1153AE5D30708F4BAC09056811590425D
:1020F00008F08DCF8D2F8F710E94F91190E0982FED
:10210000882788279F719C012C2BE901E6CF853A0F
:10211000910509F4AEC0863A910509F0ADC0C2E858
:10212000D0E4CE01DF91CF910895883A910509F46A
:10213000A6C0893A910509F4A5C08A3A910509F427
:10214000A4C08B3A910509F4A3C08C3A910509F417
:10215000A2C08B3B910509F4A1C08C3B910509F409
:10216000A0C08D3A910509F49FC0803B910509F408
:102170009EC08E3A910509F49DC08F3A910509F4ED
:102180009CC0813B910509F49BC0823B910509F4F9
:102190009AC0833B910509F499C0843B910509F4E9
:1021A00098C0853B910509F497C0863B910509F4D9
:1021B00096C0873B910509F495C0883B910509F4C9
:1021C00094C0893B910509F493C08A3B910509F4B9
:1021D00092C0C0E0D4E4A5CFCE019927D3FF03C0BD
:1021E000EC01D86C9ECFEC01D06C9BCFDF70D06A35
:1021F00098CFCE01E4E096958795EA95E1F7837054
:102200002C2F26952695237090E2299F900111246A
:10221000382B8C2F8370C1E0D0E002C0CC0FDD1FC3
:102220008A95E2F7C22BD32BDC687BCFC1E0D0E0EC
:1022300002C0CC0FDD1F2A95E2F730E2939FC00168
:102240001124C82BD92BDA686CCFD82FCC27C46FB8
:10225000D06A67CFDC2FCC27C06FD06A62CF34E062
:10226000969587953A95E1F78F70CF70C06ED82F0D
:10227000BECFC1E8D0E455CFC3E8D0E452CFC2EE20
:10228000D4E44FCFC9EED4E44CCFCAEED4E449CF66
:10229000C5EBD4E446CFC6EBD4E443CFC3EBD4E4E0
:1022A00040CFC4EBD4E43DCFC7EBD4E43ACFCCEC81
:1022B000D4E437CFCDECD4E434CFC3E8D5E431CF88
:1022C000CAE8D5E42ECFC2E9D5E42BCFC4E9D5E4E2
:1022D00028CFC1E2D6E425CFC3E2D6E422CFC4E2C0
:1022E000D6E41FCFC5E2D6E41CCFC6E2D6E419CFB0
:1022F000C7E2D6E416CFCAE2D6E413CF82389105FE
:1023000049F1B0F48133910509F462C048F489328F
:10231000910509F456C08A32910509F460C0089508
:102320008533910509F446C08933910599F00895E4
:10233000833E910531F138F4803E910591F0823E63
:102340009105B1F00895863E910521F1873E9105F2
:1023500051F1089520915C022370D9F080EE90E055
:10236000089520915C0220FF14C089E390E0089555
:1023700020915C0222FF0DC024FD09C083EE90E095
:10238000089520915C0222FD31C024FF02C090E03C
:1023900080E0089520915C0223FFFBCF24FDF7CF5E
:1023A00087EE90E0089520915C0223FFEECF86EE49
:1023B00090E0089520915C0225FFEBCF89E290E048
:1023C000089520915C0225FFE4CF85E390E0089515
:1023D00020915C0226FFDDCF8AE290E008952091F3
:1023E0005C0226FFD6CF81E390E0089582EE90E074
:1023F000089590915C0292FF06C0282F2871283022
:1024000069F4877F846093FF06C0282F28712831E4
:1024100061F4877E846194FD877E0895282F24715E
:10242000243089F78B7F8860EECF282F24712431E8
:1024300091F78B7E8861EFCF08950F931F93CF9311
:102440008C01FB018281811106C0C1E08C2FCF91EC
:102450001F910F910895C091D501C11125C006317A
:102460001C4599F70E941C1281E08093D5010E94BF
:1024700038209093D4018093D3011092C801109218
:10248000CA011092C9011092CC011092CB01109296
:10249000CE011092CD011092D0011092CF01109276
:1024A000D2011092D101D2CF8091D3019091D40169
:1024B0000E9450208C32914040F68091C801E82F54
:1024C000F0E0EE0FFF1FE753FE4F118300838F5F95
:1024D0008093C801C0E0BACFCF93DF93EC0181E0D5
:1024E0008F878F810E94E31E88850E94F61E0E94BE
:1024F000AD1EEA81FB81309739F06A897B89CE0174
:102500000696DF91CF910994DF91CF910895EF92D4
:10251000FF920F931F93CF93DF93EC018885811176
:1025200032C0EB80FC8087E5F81A24E12E9DC001C3
:102530002F9D900D1124DC01AF5FBE4F1496ED91DD
:10254000FC911597309731F052966D917C91895F8F
:102550009E4F099584E18E9D80018F9D100D112461
:102560000F5F1E4FF80187810E94E91EF8018085E8
:102570000E94FC1E0E94AD1E18821F8219861092B6
:10258000D7011092D601DF91CF911F910F91FF904B
:10259000EF900895DF92EF92FF920F931F93CF93E6
:1025A000DF937C01FB018281882391F080915101AE
:1025B0008F3F71F0C1E0D1E010E000E0DD24D39462
:1025C00080915101082E000C990B8017910744F45B
:1025D000DF91CF911F910F91FF90EF90DF900895C1
:1025E0008E818823B9F089859A858E159F0539F4E7
:1025F0008091D6019091D7018E159F0559F0DD8607
:102600008F85811103C0CE010E946C12CE01069607
:102610000E9487120F5F1F4F6496D2CFEF92FF92F6
:102620000F931F93CF93DF937C0197558F3F9105B5
:1026300009F0D8F520915101022E000C330B281718
:10264000390714F480935101FB01228134E1389F52
:102650008001399F100D1124E801CF5FDE4F2E87D6
:1026600092818E81992349F1FA86E9868F5F8E8364
:102670000E9438209C878B870E941C1F8F830E949A
:10268000E01E88870E94F31E9885892B8887E88141
:10269000F981309731F06A897B89C801895F9E4F43
:1026A0000995F092D701E092D60181E0DF91CF91B8
:1026B0001F910F91FF90EF9008958823B1F38F85BC
:1026C000882399F3C801895F9E4F0E948712EDCF3E
:1026D000EF92FF920F931F93CF93DF93809151015D
:1026E00010E004E18F3FC1F5DF91CF911F910F9171
:1026F000FF90EF900895029FF001039FF00D1124C9
:10270000EF5FFE4FE088F188E114F10419F486E9E7
:10271000E82EF12C029FE001039FD00D1124CF5F22
:10272000DE4F8E818823B9F08B859C850E945020D6
:10273000E816F90680F4109F700111248F8581112D
:1027400005C0C7018F5F9E4F0E946C12C701895F51
:102750009E4F0E9487121F5F212F30E08091510110
:10276000082E000C990B821793072CF6BDCF90937F
:10277000DD018093DC010895E091DC01F091DD0141
:10278000309721F00190F081E02D099480E00895C8
:10279000EF92FF920F931F93CF93DF938C01E09101
:1027A000DC01F091DD013097C1F10280F381E02D71
:1027B000099580913A0282FF30C080FF04C08BED02
:1027C00098E00E944509D0E0C0E085EDE82E88E061
:1027D000F82E80913A0280FF0EC0F801EC0FFD1F29
:1027E00080811F928F93FF92EF920E94DE090F90DB
:1027F0000F900F900F902196C830D10551F780911E
:102800003A0280FF0AC083ED98E0DF91CF911F91DB
:102810000F91FF90EF900C944509DF91CF911F919C
:102820000F91FF90EF900895E091DC01F091DD01B0
:10283000309721F00480F581E02D099408952091CE
:10284000DA013091DB012817390771F09093DB0131
:102850008093DA01E091DC01F091DD01309721F005
:102860000680F781E02D099408952091D8013091D8
:10287000D9012817390771F09093D9018093D801B5
:10288000E091DC01F091DD01309721F00084F185C9
:10289000E02D099408950C94D30B81E008950E94D3
:1028A0002F200E94E9090C94AF20CF93C82F80916C
:1028B0003A0282FF1EC080FF1CC084EF98E00E9495
:1028C000450980913A0280FF14C01F92CF938FEE8A
:1028D00098E09F938F930E94DE0980913A020F90B7
:1028E0000F900F900F9080FF04C08DEE98E00E9433
:1028F00045098C2FCF910C94BF0FBF92CF92DF92DE
:10290000EF92FF920F931F93CF93DF93CDB7DEB774
:102910002A970FB6F894DEBF0FBECDBF0E94230BDF
:102920000E944D14882309F471C08FEDC82E81E0F8
:10293000D82E10E000E0B02E802F0E94630BE82E0E
:10294000F601F1906F01F81609F45AC080913A022D
:1029500081FD0E94690B90E080E0FE242F2D30E085
:10296000482FB901082E02C0759567950A94E2F7C1
:1029700060FF41C08E83BF8281E090E06C0102C0A5
:10298000CC0CDD1C4A95E2F72E2D30E02C213D21A8
:10299000232B09F480E088870E9438208160782FFB
:1029A0009A8789874E815F8168858A850E9427156D
:1029B000F801E152FE4F80818C2580830E94BF2266
:1029C0000E94BC139091DE01891789F10E94BC130B
:1029D0008093DE012A960FB6F894DEBF0FBECDBFFE
:1029E000DF91CF911F910F91FF90EF90DF90CF90EB
:1029F000BF900C94551401968630910509F0B0CF24
:102A00000F5F1F4F0E30110509F095CF8FEF8983AF
:102A10008A831B820E9438208160782F9D838C835B
:102A200049815A816B818D810E942715C7CF2A96D3
:102A30000FB6F894DEBF0FBECDBFDF91CF911F91CF
:102A40000F91FF90EF90DF90CF90BF900895CF93BC
:102A5000DF93CDB7DEB72B970FB6F894DEBF0FBE6E
:102A6000CDBF4F83588769877A878B871E821D82E7
:102A700085E0FE013796DE01119601900D928A9550
:102A8000E1F749815A816B817C818D819E812B96F2
:102A90000FB6F894DEBF0FBECDBFDF91CF910C947F
:102AA000FC1BFC01808191810C945C1ECF93C82F8C
:102AB000882309F4D4C08238C1F40E94BC1381FD7C
:102AC000CEC089E30E94691E0E94AD1E2FEF81EEE9
:102AD00094E0215080409040E1F700C0000089E37D
:102AE0000E94701ECF910C94AD1E8338A1F40E94F9
:102AF000BC1380FDB4C083E50E94691E0E94AD1E18
:102B00002FEF81EE94E0215080409040E1F700C02B
:102B1000000083E5E5CF8438A1F40E94BC1382FD58
:102B20009EC087E40E94691E0E94AD1E2FEF81EEB9
:102B300094E0215080409040E1F700C0000087E41D
:102B4000CFCF8CEF8C0F813A48F48C2F0E94BD259B
:102B5000811185C08C2F0E94691EC4CF80E28C0F2A
:102B6000883048F4C77081E001C0880FCA95EAF741
:102B70000E94E31EB7CF8BE58C0F833068F481E8A9
:102B800090E0C53A31F083E890E0C63A11F482E86B
:102B900090E0CF910C941F1488E58C0F853108F0DC
:102BA0005EC082EE90E0C83A09F456C089EE90E02B
:102BB000C93A09F451C08AEE90E0CA3A09F44CC00F
:102BC00085EB90E0CB3A09F447C086EB90E0CC3A35
:102BD00009F442C083EB90E0CB3BF1F184EB90E051
:102BE000CC3BD1F187EB90E0CD3AB1F18CEC90E0A9
:102BF000C03B91F18DEC90E0CE3A71F183E891E029
:102C0000CF3A51F18AE891E0C13B31F182E991E09C
:102C1000C23B11F184E991E0C33BF1F081E292E023
:102C2000C43BD1F083E292E0C53BB1F084E292E094
:102C3000C63B91F085E292E0C73B71F086E292E0FC
:102C4000C83B51F087E292E0C93B31F090E080E070
:102C5000CA3B11F48AE292E0CF910C943514CF91E3
:102C60000895882309F44BC0823871F40E94BC1384
:102C700081FF45C089E30E94691E0E94AD1E89E361
:102C80000E94701E0C94AD1E833859F40E94BC1330
:102C900080FF35C083E50E94691E0E94AD1E83E55A
:102CA000EFCF843859F40E94BC1382FF28C087E418
:102CB0000E94691E0E94AD1E87E4E2CF9CEF980F30
:102CC000913AF0F290E2980F983050F4877091E0CA
:102CD00001C0990F8A95EAF7892F0E94E91ED2CF89
:102CE0009BE5980F933020F490E080E00C941F1443
:102CF000885A853120F490E080E00C9435140895D2
:102D0000882321F00E94E31E0C94AD1E08958823B1
:102D100021F00E94E91E0C94AD1E08958F929F929F
:102D2000AF92BF92CF92DF92EF92FF920F931F93D9
:102D3000CF93DF937C01D62FC72FFC01058102952D
:102D40000F70128111110E94031F0E94A61EC82E2F
:102D5000882371F01123B1F080E28D0F883090F05C
:102D600082E00E94901E0E94A61E91E0C82EC926F5
:102D7000DC2ED2949FE0D922ED2DF0E0EB5AF04DFD
:102D80000C94E12EC12CF4CF0C2F0F70C07F11F0EA
:102D90000295007F1123A9F0002359F080E28D0FE6
:102DA000883010F0D11109C0802F0E94E31E0E94CC
:102DB000AD1E8D2F0E94561514C0802F0E94F61E46
:102DC000F6CF8D2F0E943116002359F080E28D0F2F
:102DD000883010F0D11133C0802F0E94E91E0E946C
:102DE000AD1E98E0D91639F0D91648F086E08D0D61
:102DF0008F70823020F40E94BC130E94BF0FCC2041
:102E000009F4D9C10E94831E80FDD5C1F701128249
:102E10000E947D1E0E947E1DC7010E94E8180E942C
:102E20007D1EDF91CF911F910F91FF90EF90DF906A
:102E3000CF90BF90AF909F908F900C949F1D802F4C
:102E40000E94FC1ECCCFFC2FFF70BF2EC07FC03273
:102E500019F0B29480EFB822DD2369F0D13049F146
:102E6000112391F1002351F1F701858180FFA1CF5A
:102E70008F70858323C0112381F0011106C00E9449
:102E80001C1F8B290E948016ACCF0130C1F70E9415
:102E90001C1F8B290E94161FA4CF011106C00E947F
:102EA000191F8B2D0E9487169CCF013009F499CFF2
:102EB000F6CF112329F0063008F093CF8B2DE2CF07
:102EC000053008F08ECFEDCF002359F38D2F0E94EF
:102ED000311687CF8C2F86958695837069F0813067
:102EE00009F07FCF8D2F9C2F9370111102C090E0BD
:102EF00080E00E94351475CF8D2F9C2F9370111197
:102F000002C090E080E00E941F146BCF112309F1F2
:102F1000D53F99F0D63FB9F0D43F49F4809156029D
:102F200090915702816090935702809356028D2FA3
:102F30000E944B210E94322254CF809156029091E0
:102F400057028260F0CF80915602909157028460C0
:102F5000EACFD53F89F0D63FA9F0D43F49F480911C
:102F60005602909157028E7F90935702809356029B
:102F70008D2F0E94B321DECF80915602909157028F
:102F80008D7FF2CF80915602909157028B7FECCFCC
:102F90008C2F837009F047C0111123CF2D2F22955C
:102FA00026952770220F220F6D2F6F70862E912C81
:102FB000B12CA12C022E04C0880C991CAA1CBB1C8D
:102FC0000A94D2F760E070E0CB01D4FF0FC06FE04D
:102FD00070E080E090E004C0660F771F881F991FA3
:102FE0002A95D2F76095709580959095C695C6956F
:102FF000C370C23051F080F4682979298A299B294D
:10300000C13071F00E94301DECCE682979298A29DF
:103010009B290E94421DE5CE0E94301DC501B401CE
:103020000E941E1DDECE8695112311F08C2F81701B
:10303000882309F4D6CE2D2F229526952770220FAE
:10304000220F6D2F6F70862E912CB12CA12C022E89
:1030500004C0880C991CAA1CBB1C0A94D2F760E01F
:1030600070E0CB01D4FF0FC06FE070E080E090E033
:1030700004C0660F771F881F991F2A95D2F76095A5
:10308000709580959095C695C695C370C23051F0E5
:1030900080F4682979298A299B29C13071F00E941E
:1030A000F51D9FCE682979298A299B290E94071E30
:1030B00098CE0E94F51DC501B4010E94E31D91CE7A
:1030C000E0E2ED0FE53108F04DC0F0E0EB59F04DD6
:1030D0000C94E12EDF708C2F8F71112321F00E9450
:1030E0007E1D8D2FCFCE0E949F1D8D2FDBCE1123F5
:1030F00041F0053008F075CE8C2F8F710E94C21DF3
:1031000070CE063008F06DCEF7CF8C2F8F71112363
:1031100039F00E947E1D65CE8C2F8F711123C9F36B
:103120000E949F1D5ECE112329F08C2F8F710E946B
:10313000691D57CE0E94641D54CE112349F0CF71F2
:103140008C2F0E947E1D63E08C2F0E94871E49CE2B
:1031500081E00E94901E023008F443CE82E00E947B
:10316000901E3FCE112329F0011123CE8C2F8F7199
:10317000D0CF002369F0D93309F0A8CEFFEF27EEB6
:1031800083E0F15020408040E1F700C000009ECE77
:103190008C2F8F71C5CF4C2F4F706D2FC7010E94A0
:1031A000260D0E94961C1DCE4C2F4F706D2FC7010F
:1031B0000E94C10F16CEDF91CF911F910F91FF900A
:1031C000EF90DF90CF90BF90AF909F908F90089539
:1031D0000F931F93CF93DF93EC018B819C81892BFD
:1031E00029F08881998189238F3F29F4DF91CF913C
:1031F0001F910F910895CE010E94E40D8823B1F331
:10320000688179818A810E94661E8C010E94191E44
:103210000E941B1DB801CE01DF91CF911F910F912C
:103220000C948E160E94031F0E94131F0E94771E8B
:103230000E94AD1E0E9449230E94322290E080E04D
:103240000E941F1490E080E00C9435140E94F01E40
:103250000C9412190E945C1EE92FE295EF70E25067
:10326000EE3070F4F0E0E658F04D0C94E12E803F23
:1032700019F020F4803E20F481E00895843FE1F3CA
:1032800080E00895803EC0F3813FD1F7F5CF93FBF6
:10329000882780F90895CF93DF9300D000D00F9254
:1032A000CDB7DEB70F900F900F900F900F90DF917A
:1032B000CF910895CF93DF9300D000D000D0CDB749
:1032C000DEB726960FB6F894DEBF0FBECDBFDF91F6
:1032D000CF9108951F93CF93DF93C091ED0116E036
:1032E0008091EE018C1304C0DF91CF911F9108955E
:1032F000D0E01C9FF0011D9FF00D1124E151FE4F05
:103300004081518162817381848195810E945A1923
:103310002196C770E5CF40911F0250912002609125
:1033200021027091220280912302909124020C9438
:103330005A192091ED019091EE0156E0291302C037
:1033400080E0089530E0529FF001539FF00D11246A
:10335000E151FE4F7181761306C07081781303C06E
:103360007281741304C02F5F3F4F2770E7CF81E055
:1033700008951F93CF93DF9380912402807FC1F43F
:10338000809121028823A1F08091ED01C091EE018E
:1033900060911F02709120024091220250912302FD
:1033A000D62FD723DA01A095B09516E0C81304C034
:1033B000DF91CF911F91089590E04115510511F0D3
:1033C000DF3F31F401968770F1CF2A0F3B1F17C002
:1033D000189FF001199FF00D1124E151FE4F21813A
:1033E0002713F0CF20812613EDCF22812111EACFC0
:1033F000238134812417350740F3241B350B2639EC
:10340000310500F7209124022F70206120932402BF
:1034100026E0289FF001299FF00D1124EC50FE4F6B
:1034200080818F70806180838FE192E00E94E81834
:10343000DF91CF911F910C946A199F92AF92BF9226
:10344000CF92DF92EF92FF920F931F93CF93DF9370
:10345000CDB7DEB761970FB6F894DEBF0FBECDBF14
:103460008C0185E0F801DE011D9601900D928A9590
:10347000E1F7D801DC901196EC9011971296CC9060
:1034800012978091220290912302009709F492C131
:1034900020911F0230912002422F43234F3F09F415
:1034A00089C11396AD90BC9090902102992009F4A7
:1034B00022C1A816B906E0F1F501E81BF90BCF010E
:1034C000FF24F3948639910508F0F12C80912402B1
:1034D000982F907FFF2009F4C7C091118EC0FC2C5B
:1034E0003E112BC02D1129C0C11027C08F708061E3
:1034F000809324020E948B198FE192E00E94E818C9
:1035000080912402D80115968C938F2D61960FB669
:10351000F894DEBF0FBECDBFDF91CF911F910F9109
:10352000FF90EF90DF90CF90BF90AF909F90089565
:10353000809590958A0D9B1DC3CFA114B10429F0ED
:103540008E2D8D218F3F09F054C180E080FF16C081
:103550004C2D6E2D8D2D0E949919882379F08FE1C5
:1035600092E00E94E81886E0EFE1F2E0DF011D92B0
:103570008A95E9F70E948B19F12CC7CFAB2829F067
:103580008E2D8D218F3F09F031C180E0B82FB170B1
:10359000AB2E80FF29C04C2D6E2D8D2D0E949919C8
:1035A000B82E811121C0DD86EE868D859E850E9414
:1035B0005C1E292F22952F70223050F0243078F491
:1035C0009F7051F0F8019581907F31F4FB2C9DCFD5
:1035D0009F7011F08823D1F3805E8830B8F3C80162
:1035E0000E94E818BA2CF2CFCC2009F48ECF80913B
:1035F0002402816080932402BFCF3E1106C02D11AA
:1036000004C0D801CC2009F49CC0DD86EE868D85EF
:103610009E850E942A19882319F1CC2009F18091F6
:103620002402803270F020911F02309120023887EE
:103630002F831986BB86AA868C87CE0107960E94A7
:10364000E81886E0F801AFE1B2E001900D928A95AA
:10365000E1F70E94B9190E948B19FF24F39455CF0A
:10366000C8010E94E818F9CF911115C07A2DB98AC6
:10367000A88A4D2D5E2D6C2D89890E944B198FE1F2
:1036800092E00E94E81886E0EFE1F2E0DF011D928F
:103690008A95E9F763C03E1112C02D1110C0C11008
:1036A0000EC0F8018583C8010E94E818EFE1F2E03E
:1036B00086E0DF011D928A95E9F7F92C26CFDD8699
:1036C000EE868D859E850E942A19882349F2CC209A
:1036D00039F280912402803208F4B3CF20911F0286
:1036E000309120023A8329831B82BD82AC828E8373
:1036F000CE010196A4CFA816B90698F1F501E81BF2
:10370000F90BCF01F12C8639910508F049C0FC2C4A
:10371000CC2009F4A5CF3E1132C02D1130C08091CC
:10372000240280FD23C0982F907F01F1D8011596C7
:103730008C931597903F39F0982F907F905F8F7002
:10374000892B15968C93C8010E94E81886E0F80131
:10375000AFE1B2E001900D928A95E1F70E948B19DA
:10376000D4CE809590958A0D9B1DCCCF86E0F80134
:10377000AFE1B2E001900D928A95E1F7C6CEDD8609
:10378000EE868D859E850E942A1981115ACF8091DF
:103790002402816080932402C8010E94E818B5CEFB
:1037A0007A2DB98AA88A4D2D5E2D6C2D89890E94AB
:1037B0004B1969CFCC2009F453CFDD86EE868D8579
:1037C0009E850E942A19F82E882309F449CF86E0A5
:1037D000F801AFE1B2E001900D928A95E1F78FE137
:1037E00092E00E9451150E94B919B8CF81E08C2552
:1037F000CDCE81E08C25AACE1F93CF93DF93CDB79A
:10380000DEB72C970FB6F894DEBF0FBECDBF4F8347
:10381000588769877A878B879C87CE0107960E9495
:103820001D1A882369F08A859B85892B39F04F8181
:103830005885842F85238F3F09F071C016E05FC043
:1038400086E0FE013796DE01119601900D928A9571
:10385000E1F78A859B85892B89F388859F81892358
:103860008F3F61F32091EE0130E0C901019687702E
:1038700099274091ED014817190671F40E94261905
:103880001092EE011092ED0186E0EFE1F2E0DF012F
:103890001D928A95E9F7D2CF96E0929FD001939F2F
:1038A000B00D1124A151BE4FFE01319601900D9231
:1038B0009A95E1F78093EE010E946A19BFCF819F2C
:1038C000C001112481519E4F0E941D1A8823E9F0E6
:1038D000E091ED011E9FF0011124E151FE4F408166
:1038E000518162817381848195810E945A198091EE
:1038F000ED0190E00196877099278093ED0180910A
:10390000ED019091EE018913DACF2C960FB6F89461
:10391000DEBF0FBECDBFDF91CF911F9108956985A6
:103920007A858B859C850E945A1988CFEF92FF92E9
:103930000F931F93CF93DF938C01892B81F0F12C90
:10394000EE24E394E8012196F8018491843770F421
:10395000843008F05FC08130B1F08230A1F1DF9196
:10396000CF911F910F91FF90EF900895853709F443
:103970004CC008F43DC09CE7980F903780F78F77D4
:103980000E94311649C00E5F1F4FFE01849190E2E4
:10399000980F983060F48770FE2D01C0FF0F8A9554
:1039A000EAF78F2F0E94061F0E94AD1E02C00E94E0
:1039B00056158F2D815030F2EFE9FFE03197F1F786
:1039C00000C00000F7CF0E5F1F4FFE01849190E210
:1039D000980F983050F48770FE2D01C0FF0F8A9524
:1039E000EAF78F2F0E940C1FDFCF0E943116E1CF24
:1039F0000E5F1F4FFE01C491C150D8F28FE99FE0C6
:103A00000197F1F700C00000F7CF0E5F1F4FFE01D6
:103A1000F490CFCF0E9456158E01CBCF08950E940F
:103A20000E1D6093290270932A0280932B029093BB
:103A30002C020C94121908950C940F1D0F931F93D0
:103A40000091290210912A0220912B0230912C0220
:103A5000602B712B822B932B1F910F910C940F1DB8
:103A60000F931F930091290210912A0220912B029B
:103A700030912C0260237123822393231F910F9195
:103A80000C940F1D0F931F930091290210912A028D
:103A900020912B0230912C026027712782279327D7
:103AA0001F910F910C940F1D0C940E1D0C94541D1E
:103AB0000E94561D60932502709326028093270270
:103AC000909328020C94121960E070E0CB010C94E2
:103AD000581D0F931F9341E050E060E070E08A01B1
:103AE0009B0104C0000F111F221F331F8A95D2F7BC
:103AF000C901B8011F910F910C94581D0F931F938A
:103B000041E050E060E070E004C0440F551F661FC4
:103B1000771F8A95D2F78091250290912602A09175
:103B20002702B09128028A019B01082B192B2A2B0E
:103B30003B2BC901B8011F910F910C94581D0F9395
:103B40001F9341E050E060E070E004C0440F551F57
:103B5000661F771F8A95D2F7CB01BA0160957095E1
:103B600080959095009125021091260220912702C0
:103B70003091280260237123822393231F910F9198
:103B80000C94581D0F931F9341E050E060E070E0EB
:103B900004C0440F551F661F771F8A95D2F7809186
:103BA000250290912602A0912702B09128028A0155
:103BB0009B01082719272A273B27C901B8011F9114
:103BC0000F910C94581D0F931F9300912502109193
:103BD00026022091270230912802602B712B822B24
:103BE000932B1F910F910C94581D0F931F930091CD
:103BF000250210912602209127023091280260238D
:103C00007123822393231F910F910C94581D0F93BE
:103C10001F930091250210912602209127023091D6
:103C2000280260277127822793271F910F910C94F8
:103C3000581D0895BF92CF92DF92EF92FF920F939B
:103C40001F93CF93DF938C01C0902502D090260262
:103C5000E0902702F09028028091290290912A0298
:103C6000A0912B02B0912C02C82AD92AEA2AFB2A59
:103C7000CFE1D0E0BC2ED701C6010C2E04C0B69512
:103C8000A795979587950A94D2F780FD0EC0219746
:103C900088F7B12C8B2DDF91CF911F910F91FF9061
:103CA000EF90DF90CF90BF900895B8018C2F0E94C5
:103CB000DE0F019761F3EECFCF93DF93EC010E940B
:103CC0001A1EBE01DF91CF910C94DE0FCB010C9434
:103CD0005C1E682F80915201909153010C94B31F88
:103CE000682F80915201909153010C94B51F8091DF
:103CF0005201909153010C94B71F80912D0285952C
:103D000085958595089580912D028770089598E096
:103D1000899F90011124622B60932D020C947E1DCB
:103D200090912D028095892380932D02282F277052
:103D300061F4282F082E000C330B9217130629F07C
:103D40008595859585950C949F1D089590912D02DC
:103D5000977081E009F480E00895E0915201F091BC
:103D60005301809139028083E0915201F091530117
:103D7000808190913802892B8083E0915201F091EB
:103D80005301808190913702892B808390912E027C
:103D9000992381F0E0915201F09153018081892BA8
:103DA000808380915201909153010E947F1F811165
:103DB00010922E0280915201909153010C94C813DD
:103DC00080913902089590913902892B80933902AC
:103DD000089580959091390298239093390208951F
:103DE0001092390208958091380208959091380216
:103DF000892B8093380208958095909138029823FA
:103E000090933802089510923802089590913702E5
:103E1000892B8093370208958095909137029823DB
:103E200090933702089510923702089580932E02DE
:103E3000089510922E02089580912E020895909375
:103E40009701809396010895829590E09C01220F3E
:103E5000331F220F331F2C7C959587959595879559
:103E60008373282B30E0C901880F991F8A7A359512
:103E700027952575822B0895CF93DF93D92F0E9424
:103E8000241FC82F8D2F0E94241F9C2FDF91CF91BC
:103E900008956DEE7EEF90E080E00E941B2F60E0C1
:103EA00082E090E00E94092F60E083E090E00E94B1
:103EB000092F60E084E090E00E94092F60E085E037
:103EC00090E00C94092F90E080E00E94032F21E005
:103ED0008D3E9E4F09F020E0822F089582E090E011
:103EE0000C94FB2E83E090E00C94FB2E84E090E099
:103EF0000C94FB2E682F84E090E00C94092FFC01B9
:103F000031969C01285F3F4F80E0919191118F5F26
:103F1000E217F307D1F708959C01FC0132969FEF59
:103F200080E04191461751F09F3F19F4411101C0C3
:103F3000982F8F5F8630A9F79F3F09F40895290FC6
:103F4000311D97FD3A95F90162830895FC0132967F
:103F500008962191261303C0DF0111971C92E817E0
:103F6000F907B9F708950C948C1F0C94A61FFC0157
:103F7000118212821382148215821682178208958A
:103F800080916202843039F110923B0288E190E026
:103F900020E40FB6F894A895809360000FBE20939C
:103FA000600080E00E94BF0F83B7817F846083BF81
:103FB00083B7816083BF7894889583B78E7F83BFF2
:103FC0000FB6F894A8958091600088618093600096
:103FD000109260000FBE089508950895CF930E9437
:103FE000EC1F0E94230B0E94ED1FC0E08C2F0E944B
:103FF000630B811105C0CF5FCE30C1F7CF9108951B
:1040000081E0FCCF0E9426190E94BC130C94BF0FC4
:104010001F921FB61F9211248F939F93AF93BF934C
:1040200080913B02811113C08091580290915902F6
:10403000A0915A02B0915B024196A11DB11D8093DF
:10404000580290935902A0935A02B0935B02BF9119
:10405000AF919F918F911F901FBE1F90189582E086
:1040600084BD93E095BD9AEF97BD80936E0008954F
:104070002FB7F8948091580290915902A0915A025A
:10408000B0915B022FBF08952FB7F894609158024A
:104090007091590280915A0290915B022FBF08954E
:1040A000CF92DF92EF92FF920F931F932FB7F89466
:1040B000409158025091590260915A0270915B02EE
:1040C0002FBF6A017B01EE24FF248C0130E020E049
:1040D000C016D106E206F30650F0481B590BCA0180
:1040E0001F910F91FF90EF90DF90CF900895415076
:1040F0005109F3CF78941F921FB61F9211248F930A
:104100009F93AF93BF938091580290915902A091D1
:104110005A02B0915B020196A11DB11D8093580215
:1041200090935902A0935A02B0935B02BF91AF9152
:104130009F918F911F901FBE1F90189587E797E75B
:10414000909301088093000888E19AE00FB6F894F4
:10415000A895809360000FBE90936000FFCF0E94EF
:10416000631F811102C00E94491F0E946E1F80932D
:104170003A020E94761F90E090935D0280935C0269
:104180000E94721F682F70E090E080E00C941C1D6C
:1041900080913F0280FF12C06091570185E0689FC7
:1041A000B00111247595679575956795603871050F
:1041B000A8F561157105A1F1862F089581FF09C049
:1041C0006091570185E0689FB0011124759567954E
:1041D000EDCF6091570182FD0AC080914002882393
:1041E000D1F09091560160915701891728F085E030
:1041F000689FB0011124DACF869FB001112485E0B9
:10420000869F9001879F300D1124692F70E0C901AE
:104210000E94CD2ECBCF65E070E0CECF8FE7089522
:1042200081E0089580913F0280FF0CC060915501AC
:1042300070E075956795759567956115710549F1FC
:10424000862F089581FF06C06091550170E0759535
:104250006795F3CF6091550182FD0BC090914002AC
:104260009923A1F06091540180915501961738F07F
:10427000682F70E06038710500F38FE70895899F1B
:10428000C001112470E00E94CD2EF4CF61E070E0F7
:10429000D7CF81E00895803F31F40E94C8208195F6
:1042A000809343020895813F19F40E94C820F8CFFB
:1042B000823F31F40E94C820819580934202089584
:1042C000833F19F40E94C820F8CF893F29F40E9447
:1042D00012218093440208958A3F21F40E94122102
:1042E0008195F7CF8B3F31F40E9412218195809305
:1042F000450208958C3F19F40E941221F8CF843FA3
:1043000031F4809141028160809341020895853F9C
:1043100021F4809141028260F7CF863F21F48091A1
:1043200041028460F1CF873F21F48091410288608F
:10433000EBCF883F21F4809141028061E5CF8D3F32
:1043400031F480913F02816080933F0208958E3F57
:1043500021F480913F028260F7CF8F3FB9F78091BF
:104360003F028460F1CF90914202803F41F48091FE
:10437000430287FD10924302992371F00895813F13
:1043800029F4809143021816ACF3F6CF823F81F4F2
:1043900097FFF2CF10924202809143029091440223
:1043A000892B90914502892B49F71092400208957C
:1043B000833F19F4191674F3DFCF893F39F48091E4
:1043C00044021816CCF610924402D6CF8A3F29F444
:1043D0008091440287FFD0CFF6CF8B3F39F4809194
:1043E000450287FFC9CF10924502C6CF8C3F29F402
:1043F000809145021816BCF3BFCF843F31F4809101
:1044000041028E7F80934102B7CF853F21F4809196
:1044100041028D7FF7CF863F21F4809141028B7F4F
:10442000F1CF873F21F480914102877FEBCF883F16
:1044300021F4809141028F7EE5CF8D3F31F4809150
:104440003F028E7F80933F0297CF8E3F21F4809171
:104450003F028D7FF7CF8F3F09F08ECF80913F02D3
:104460008B7FF0CF80913A0283FF7EC08EE299E08D
:104470000E944509809141021F928F9389E299E041
:104480009F938F930E94DE0987E299E00E9445097D
:1044900080914202282F082E000C330B3F938F93FC
:1044A00084E299E09F938F930E94DE0982E299E073
:1044B0000E94450980914302282F082E000C330BDF
:1044C0003F938F938FE199E09F938F930E94DE0932
:1044D0008DE199E00E94450980914402282F082E21
:1044E000000C330B3F938F938AE199E09F938F9356
:1044F0000E94DE0988E199E00E9445098091450209
:10450000282F082E000C330B3F938F9385E199E001
:104510009F938F930E94DE0982E199E00E944509F2
:10452000809140021F928F938FE099E09F938F9329
:104530000E94DE098DE099E00E94450980913F02CA
:104540001F928F938AE099E09F938F930E94DE09D8
:1045500087E099E00E9445098DB79EB74C960FB64B
:10456000F8949EBF0FBE8DBF81E492E00E941414A8
:104570000E94382090933D0280933C0208951F933F
:10458000CF93DF9380913C0290913D020E94502096
:10459000AC01909140022091580130E0911106C089
:1045A00020913E028AE0289F900111244217530770
:1045B00078F020914202C0914302D09144021091C0
:1045C0004502211109C08C2F8D2B812B09F05DC074
:1045D000DF91CF911F9108959F3F19F09F5F9093B6
:1045E0004002121624F40E94C82080934202809157
:1045F000420287FF05C00E94C82081958093420235
:104600001C1624F40E94C820809343028091430228
:1046100087FF05C00E94C820819580934302409186
:104620004202442379F030914302332359F025EBC1
:104630004203A0011124509342023203900111243D
:10464000309343021D1624F40E94122180934402E9
:104650008091440287FF05C00E94122181958093BA
:104660004402111624F40E94122180934502809185
:10467000450287FF05C00E94122181958093450263
:10468000DF91CF911F910C9432229F3F09F0A6CF6A
:10469000B7CF85E0E1E4F2E0DF011D928A95E9F70A
:1046A0001092400210923F02089581E59BE00E9423
:1046B00045091F9281E08F931F9285E08F9383E0DD
:1046C0009BE09F938F930E94DE090F900F900F90B5
:1046D0000F900F900F900895833009F445C028F48F
:1046E000813061F0823049F10895853009F46AC063
:1046F00008F451C0863009F47CC0089580913E02D0
:10470000482F460F5527551F4F3F510594F4680F0A
:1047100060933E0280913E021F928F938CE39AE059
:104720009F938F930E94DE090F900F900F900F9030
:1047300008958FEF80933E02EDCF80915801482F6E
:10474000460F5527551F4F3F510554F4680F60938E
:104750005801809158011F928F938AE29AE0E0CF2E
:104760008FEF80935801F5CF80915701482F460F66
:104770005527551F4F3F510554F4680F609357015B
:10478000809157011F928F9387E19AE0C9CF8FEFF5
:1047900080935701F5CF80915601482F460F55273A
:1047A000551F4F3F510554F4680F60935601809197
:1047B00056011F928F9382E09AE0B2CF8FEF8093E1
:1047C0005601F5CF80915501482F460F5527551FAB
:1047D0004F3F510554F4680F609355018091550186
:1047E0001F928F9389EE99E09BCF8FEF80935501B5
:1047F000F5CF80915401482F460F5527551F4F3F45
:10480000510554F4680F60935401809154011F9234
:104810008F938EEC99E084CF8FEF80935401F5CF86
:104820008330C9F128F4813061F0823019F10895A4
:10483000853009F452C008F43FC0863009F45EC0E8
:10484000089580913E02681790F4861B80933E0283
:1048500080913E021F928F938FEB99E09F938F93ED
:104860000E94DE090F900F900F900F900895109204
:104870003E02EECF80915801681750F4861B80935A
:104880005801809158011F928F938DEA99E0E6CFED
:1048900010925801F6CF80915701681750F4861B8B
:1048A00080935701809157011F928F938AE999E075
:1048B000D5CF10925701F6CF80915601681750F46A
:1048C000861B80935601809156011F928F9385E835
:1048D00099E0C4CF10925601F6CF80915501681728
:1048E00050F4861B80935501809155011F928F9340
:1048F0008CE699E0B3CF10925501F6CF8091540128
:10490000681750F4861B80935401809154011F92C4
:104910008F9381E599E0A2CF10925401F6CFCF9307
:10492000C82F1F928F9386E59CE09F938F930E94E0
:10493000DE0961E070E080E090E004C0660F771F60
:10494000881F991FCA95D2F70E941C1D0F900F90C7
:104950000F900F90CF910C942619873208F040C029
:104960008E3108F0F9C08E3009F495C078F48730A4
:1049700009F477C08B3009F45EC0863009F460C05A
:104980008BE89FE00E94450980E00895863109F494
:10499000ACC078F48031A1F790913A02892F877FDB
:1049A00093FF886080933A0283FF85C08AE99FE085
:1049B00011C0893109F482C08B3111F790913A020C
:1049C000892F8D7F91FF826080933A0281FF60C0C2
:1049D00083ED9FE00E94450980913A02816055C0B5
:1049E000883349F150F4893221F0853311F0873250
:1049F00039F680E00E948F241CC08334D1F328F460
:104A00008A3308F4BDCF8953F5CF883409F0B8CF85
:104A10000E94261989EF9FE00E9445092FEF83ED40
:104A200090E3215080409040E1F700C000000E94D8
:104A30009E2081E008958FEF9DE00E944509F9CF07
:104A400080913A02807F80933A0288ED9DE00E9437
:104A5000450985E190E10E94450981E08093470284
:104A6000089590913A02892F8E7F90FF8160809304
:104A70003A0280FF03C08DEE9FE0DFCF80EE9FE023
:104A80000E94450980913A02817F80933A02D1CFFA
:104A900085EC9FE0D2CF90913A02892F8B7F92FFD5
:104AA000846080933A0282FF03C086EB9FE092CF3E
:104AB00086EA9FE0C2CF8DE89FE0BFCF89EC9DE002
:104AC0000E9445098CE89DE00E94450983E59DE030
:104AD0000E94450985E29DE00E9445098FEE9CE019
:104AE0000E94450984EC9CE0A8CF86EB9CE00E94E4
:104AF00045090E94BC131F928F938CE99CE09F9301
:104B00008F930E94DE09809163011F928F9385E845
:104B10009CE09F938F930E94DE09809154021F9224
:104B20008F9382E79CE09F938F930E94DE090E94FF
:104B300044209F938F937F936F938BE59CE09F938B
:104B40008F930E94DE098DB79EB742960FB6F894F8
:104B50009EBF0FBE8DBF6DCF8D514CCF80E00895AD
:104B60000C94AE258E518A3030F4E82FF0E0E858EE
:104B7000FE4F8081089580E00895CF93C82F8091E3
:104B800047028130D9F0882339F0823009F44DC0D2
:104B90001092470280E010C0E0915201F091530161
:104BA00080818232B9F78C2F0E94AE2581111EC000
:104BB0008C2F0E94AD248170CF910895E091520115
:104BC000F09153018081823271F38C2F0E94B025C5
:104BD00081111BC0C431D9F060F4CB3071F0C03109
:104BE000D1F08CE49CE00E94450913C081E090E084
:104BF000E2CFC93261F0C833A1F788ED9DE00E9491
:104C0000450982E59CE00E94450981E0D4CF1092DD
:104C1000470280E0D0CF0E9455238EE49CE00E94A2
:104C2000450982E080934702F0CFC432C8F4CE3108
:104C300008F0BEC0CB30E1F040F4C73009F4CCC07E
:104C400080EF9AE00E94450926C0C331C1F1C4310A
:104C5000B9F780914602882351F1109246020AC0AA
:104C6000CB3409F4B7C0C8F4C93299F3C83341F75B
:104C70000E94552380914602882309F4C2C01F92E6
:104C80008F938AEE9AE09F938F930E94DE090F9094
:104C90000F900F900F9081E08FCFC13509F494C031
:104CA000C23509F48BC0CE3459F66AE08EC08FEF5E
:104CB0009AE00E94450981E0809347027DCF89ED0B
:104CC0009AE00E94450987EC9AE00E94450980918C
:104CD0003E021F928F9384EC9AE09F938F930E94E1
:104CE000DE0982EC9AE00E94450980EB9AE00E947E
:104CF0004509809158011F928F938DEA9AE09F9306
:104D00008F930E94DE098BEA9AE00E9445098CE9A4
:104D10009AE00E944509809157011F928F9389E97B
:104D20009AE09F938F930E94DE0987E99AE00E94A0
:104D3000450986E89AE00E944509809156011F9234
:104D40008F9383E89AE09F938F930E94DE0981E816
:104D50009AE00E9445098CE69AE00E9445098091FC
:104D600055011F928F9389E69AE09F938F930E943B
:104D7000DE0987E69AE00E94450980E59AE00E94F4
:104D80004509809154011F928F938DE49AE09F937F
:104D90008F930E94DE098BE49AE00E9445098DB74B
:104DA0009EB748960FB6F8949EBF0FBE8DBF62CFD8
:104DB0008C2F0E94B225809346025CCF61E08091E7
:104DC00046020E946C2356CF61E0809146020E9409
:104DD000102450CF6AE0F3CF10923E0280E180931E
:104DE0005801C09357018CE38093560188E080936B
:104DF000550188E28093540182EF9AE00E944509B0
:104E000039CF87EE9AE01ECF8091530208959FB765
:104E1000F89410924A029FBF90916202943009F078
:104E200048C02091E9002F703091EC00932F9170D1
:104E300030FD90E8922B24E02093E9002091EB00D4
:104E400020FF34C02091EE0027FF30C0209148029F
:104E5000222321F02091E80025FF28C0109248026B
:104E600026E03091E80035FF14C08093F100809176
:104E7000E80085FD27C08091E80080FFFCCF80918D
:104E8000E8008E778093E8009F709093E90080E0BF
:104E9000089530916202343049F43091EB0035FDD1
:104EA00005C0215041F481E0809348029F709093A7
:104EB000E9008FEF0895EFE9FFE03197F1F700C0C7
:104EC0000000CFCF8FB7F89421E020934A028FBF24
:104ED000DBCF0F931F93CF93DF9300D00F92CDB70B
:104EE000DEB78C010E94142A823011F0843019F54B
:104EF00083E089831B830A838093E9008FEF90917D
:104F0000E800815095FD06C095ED9A95F1F70000F7
:104F10008111F5CF8091E80085FF0DC050E040E0A1
:104F200063E070E0CE0101960E94312A8091E80092
:104F30008E778093E8000F900F900F90DF91CF91C4
:104F40001F910F910895CF93DF9300D00F92CDB7AB
:104F5000DEB720916202243031F522E029838058A7
:104F600091099B838A8383E08093E9008FEF90917E
:104F7000E800815095FD06C095ED9A95F1F7000087
:104F80008111F5CF8091E80085FF0DC050E040E031
:104F900063E070E0CE0101960E94312A8091E80022
:104FA0008E778093E8000F900F900F90DF91CF9154
:104FB0000895CF93DF93EC010E94142A823011F000
:104FC0008430F9F482E08093E9008FEF9091E8005B
:104FD000815095FD06C095ED9A95F1F7000081117D
:104FE000F5CF8091E80085FF0CC050E040E065E01F
:104FF00070E0CE010E94312A8091E8008E77809384
:10500000E800DF91CF910895CF93DF93EC010E94E8
:10501000142A823011F0843039F581E08093E90060
:105020008FEF9091E800815095FD06C095ED9A951F
:10503000F1F700008111F5CF8091E80085FF14C0E1
:1050400050E040E068E070E0CE010E94312A80919B
:10505000E8008E778093E80088E0FE01ABE4B2E0E0
:1050600001900D928A95E1F7DF91CF9108958EE33B
:1050700090E10E94450980916102811109C00E945E
:10508000C12B0E941E2C8091E20084608093E2007C
:1050900008958AE390E10E94450910926102089503
:1050A00086E390E10C94450982E390E10C94450974
:1050B0008EE290E10E9445090C9402202091490261
:1050C0002F5F822F62E30E94C12E992319F0209353
:1050D000490208951092490280914A028823F1F012
:1050E000809162028430C1F49091E9009F70209118
:1050F000EC00822F817020FD80E8892B94E0909352
:10510000E9009091EB0090FF04C09091EE0097FDB4
:1051100008C08F708093E90010924A02089510929F
:10512000F1009091E80095FDFACF9091E80090FF92
:10513000F0CF9091E8009E779093E800EACF42E0AC
:1051400061EC81E00E943D2B42E061EC82E00E9434
:105150003D2B42E061EC83E00E943D2B42E261EC9A
:1051600084E00C943D2B80916402833009F452C09A
:1051700030F4813059F1823009F48EC008958A30BC
:1051800009F47AC08B3009F460C0893009F041C05D
:10519000809163028132E9F5809167029091680203
:1051A000892BB9F58091E800877F8093E800809192
:1051B000E80082FF2AC08091F10080935302809121
:1051C000E8008B778093E8000C94712B8091630248
:1051D000813AF9F48091E800877F8093E80080911C
:1051E000670290916802892B61F468E08BE492E099
:1051F00070E00E94802A8091E8008B778093E8001D
:10520000089560E090E080E0F3CF80916202811128
:10521000CECF089580916302813AD9F780916702D9
:1052200090916802892BA9F78091E800877F80938D
:10523000E8008091E80080FFFCCF809163018093BB
:10524000F1008091E8008E77BDCF809163028132BA
:1052500001F78091670290916802892BD1F68091C5
:10526000E800877F8093E8000E94712B809165029F
:10527000809363010C94261980916302813249F670
:105280008091E800877F8093E8000E94712B8091D5
:10529000660280935402089580916302813A09F076
:1052A000B8CF8091E800877F8093E8008091E80084
:1052B00080FFFCCF80915402C2CF84B7877F84BF28
:1052C0000FB6F894A8958091600088618093600083
:1052D000109260000FBE80E8809361001092610020
:1052E0000E944B140E94C12B0E941E2C8091E20050
:1052F00084608093E20087E097E20E941F1F789409
:105300000E94A62E0E944F1489E591E00E94B713D7
:105310008DE190E10E94450980916202853019F08B
:105320000E947D14F9CF89E190E10E9445090E9415
:10533000C01F80916002882379F30E94EE1F8823AA
:1053400059F30E941B2AE8CF0C94A629292F332752
:105350002330310521F168F42130310509F449C0C9
:105360002230310509F44AC090E080E030E020E0CE
:1053700029C02132310581F122323105A9F764308B
:10538000710590F7FB01EE0FFF1FEA57FE4F2081DA
:1053900031816E577E4FFB01808190E013C09927C9
:1053A0008130910599F0009741F08230910589F0A4
:1053B0000397D1F6E2E4F0E102C0E0E7F0E1849186
:1053C00090E09F01FA01318320830895E8E5F0E140
:1053D000F6CFE8E4F0E1F3CF6430710528F6660F0C
:1053E000771FFB01E257FE4F2081318189E090E079
:1053F000E9CF82E190E028EE30E1E4CF84E790E06D
:1054000024E730E1DFCF0895CF93C82F0E94032A0D
:10541000C0935502CF91089580916202843011F4B7
:1054200082E0089581E0089580915502811102C0C3
:105430000C940C2A089580E189BD82E189BD09B4EC
:1054400000FEFDCF8091D8008F7D8093D8008091A1
:10545000E00082608093E0008091E00081FDFCCF5D
:105460000895AF92BF92CF92DF92FF920F931F9356
:10547000CF93DF936C01EB018A010E94902BF82EF1
:10548000811123C00115110539F0F8018081918146
:10549000C81BD90BC80ED91EB12CA12C2097A9F07E
:1054A0008091E80085FD22C08091E8008E7780938E
:1054B000E80001151105A1F0F80180819181A80E85
:1054C000B91EB182A08285E0F82E8F2DDF91CF9199
:1054D0001F910F91FF90DF90CF90BF90AF900895F4
:1054E0000E94902B8823D1F2F82EEFCFF601819104
:1054F0006F018093F1002197FFEFAF1ABF0ACECF63
:10550000FC018091690290916A0286179707A0F0CA
:105510006115710529F49091E8009E779093E80059
:1055200090E06115710551F4911108C08091E80077
:1055300082FF34C080E00895BC01F2CF8091620206
:105540008823C1F18530C1F18091E80083FD30C02E
:105550008091E80082FDEACF8091E80080FFE1CFF2
:105560008091F3002091F200382F6115710519F038
:105570002830310558F091E02830310509F090E0ED
:105580002091E8002E772093E800CBCF8191809383
:10559000F100615071092F5F3F4FE7CF80916202A8
:1055A000882341F0853041F08091E80083FFBECF31
:1055B00081E0089582E0089583E00895FC018091E0
:1055C000690290916A0286179707A0F0611571052C
:1055D00029F48091E8008E778093E80090E06115CF
:1055E000710551F4911108C08091E80082FF35C027
:1055F00080E00895BC01F2CF809162028823C9F156
:105600008530C9F18091E80083FD31C08091E800C8
:1056100082FDEACF8091E80080FFE1CF8091F30026
:105620002091F200382F6115710519F028303105ED
:1056300058F091E02830310509F090E08091E800C1
:105640008E778093E800CBCF84918093F1003196E0
:10565000615071092F5F3F4FE6CF8091620288232E
:1056600041F0853041F08091E80083FFBDCF81E0BB
:10567000089582E0089583E00895982F973028F0E8
:105680008F708093E90081E008959093E900242FC2
:10569000762F50E0981731F07091EC002091ED00DA
:1056A0005091F00021FD02C09F5FE8CF3091EB00E8
:1056B0003E7F3093EB003091ED003D7F3093ED0065
:1056C0003091EB0031603093EB007093EC0020934D
:1056D000ED005093F0002091EE0027FDE5CF80E033
:1056E00008958091630287FF13C08091E80082FFD4
:1056F00006C08091E8008B778093E80004C0809119
:1057000062028111F2CF0895809162028823D9F359
:105710008091E80080FFF8CF8091E8008E77ECCF91
:105720002091E4003091E50095E6A9012091EC007C
:10573000822F817020FF06C08091E80080FF06C0A4
:1057400080E008952091E80022FD1AC08091620255
:10575000882389F0853089F08091EB0085FD0FC0AA
:105760002091E4003091E50042175307F9F291507F
:10577000E1F684E0089582E0089583E0089581E0F1
:1057800008950E942F2C0E94372CE0EEF0E08081DB
:1057900081608083E8EDF0E080818F77808319BCA1
:1057A000A7EDB0E08C918E7F8C9380818F7E80837B
:1057B0001092610208950F931F93CF93DF930E947D
:1057C0002F2C0E94372CC8EDD0E088818F778883FA
:1057D00088818068888388818F7D888319BC109236
:1057E000620210925E021092600210925F0200EE5E
:1057F00010E0F80180818B7F8083888181608883BD
:1058000042E060E080E00E943D2BE1EEF0E080812C
:105810008E7F8083E2EEF0E08081816080838081F2
:1058200088608083F80180818E7F80838881806199
:105830008883DF91CF911F910F910895E8EDF0E0FB
:1058400080818F7E8083E7EDF0E0808181608083BE
:1058500084E082BF81E0809361020C94DB2BE8ED51
:10586000F0E080818E7F80831092E2000895109294
:10587000DA001092E10008951F920F920FB60F9276
:1058800011242F933F934F935F936F937F938F9345
:105890009F93AF93BF93EF93FF938091E10082FFBB
:1058A0000BC08091E20082FF07C08091E1008B7FF6
:1058B0008093E1000E945E288091DA0080FF19C089
:1058C0008091D80080FF15C08091DA008E7F809390
:1058D000DA008091D90080FF96C080E189BD82E125
:1058E00089BD09B400FEFDCF81E0809362020E9471
:1058F00037288091E10080FF19C08091E20080FF8D
:1059000015C08091E2008E7F8093E2008091E200DA
:1059100080618093E2008091D80080628093D800FB
:1059200019BC85E0809362020E9454288091E100B6
:1059300084FF2BC08091E20084FF27C080E189BDF5
:1059400082E189BD89B5982F917080FFFBCF80914E
:10595000D8008F7D8093D8008091E1008F7E809366
:10596000E1008091E2008F7E8093E2008091E2006E
:1059700081608093E20080915E02882309F449C02F
:1059800084E0809362020E9458288091E10083FFA6
:1059900029C08091E20083FF25C08091E100877FCC
:1059A0008093E10082E08093620210925E02809117
:1059B000E1008E7F8093E1008091E2008E7F8093F2
:1059C000E2008091E20080618093E20042E060E0CA
:1059D00080E00E943D2B8091F00088608093F00071
:1059E0000E945028FF91EF91BF91AF919F918F91AD
:1059F0007F916F915F914F913F912F910F900FBECB
:105A00000F901F90189519BC109262020E944928AD
:105A100070CF8091E30087FD93E090936202B3CF53
:105A20001F920F920FB60F9211242F933F934F9313
:105A30005F936F937F938F939F93AF93BF93CF9316
:105A4000DF93EF93FF93D091E900DF708091EC003A
:105A5000C82FC17080FDC0E81092E9008091F0006D
:105A6000877F8093F00078940E94542D1092E90073
:105A70008091F00088608093F000CD2BCF70C093B0
:105A8000E900FF91EF91DF91CF91BF91AF919F918D
:105A90008F917F916F915F914F913F912F910F90D7
:105AA0000FBE0F901F9018951F93CF93DF93CDB724
:105AB000DEB7AA970FB6F894DEBF0FBECDBF83E660
:105AC00092E02091F100FC012193CF01F2E08B36AE
:105AD0009F07B9F70E94B3288091E80083FF1EC199
