:100000000C947C070C94BF0A0C94C3070C94C30790
:100010000C94C3070C94C3070C94C3070C94C30738
:100020000C94C3070C94C3070C94CA2A0C949E2BFF
:100030000C94961E0C94C3070C94C3070C94C3072E
:100040000C94C3070C94C3070C94C3070C94C30708
:100050000C94C3070C94081F0C94C3070C94C3079B
:100060000C94C3070C94C3070C94C3070C94C307E8
:100070000C94C3070C94C3070C94C3070C94C307D8
:100080000C94C3070C94C3070C94C3070C94C307C8
:100090000C94C3070C94C3070C94C3070C94C307B8
:1000A0000C94C3070C94C3070C94C3070A002530B3
:1000B000313662003A200025303258000A722F6330
:1000C00020303132333435363738394142434445B4
:1000D000460A004B4C3A206B633A2025752C20636E
:1000E0006F6C3A2025752C20726F773A2025752C7D
:1000F00020707265737365643A2025750A0001E308
:1001000001E0014F024F02E002E30001E301E001E0
:1001100050025002E002E30001E30115021574FFF2
:1001200002E374FF01060206011002100107020734
:100130000128022874FF01130213010C020C0111A3
:100140000211010A020A012C022C01E00119021914
:1001500002E00001E30115021502E30106020601B7
:10016000100210010702070128022874FF74FF0122
:100170000C020C0113021301060206011202120105
:1001800011021101090209010C020C010A020A0103
:100190002C022C0138023801040204010F020F0165
:1001A0000F020F012802280001E30115021574FF58
:1001B00002E374FF010602060110021001070207A4
:1001C000012802280001E0010402040106020602DF
:1001D000E00001E00119021902E00001E00106025D
:1001E0000602E000757365726E616D65012B7061CA
:1001F0007373012B012800750A012B022B010C02DD
:100200000C01110211012B022B01280228012B02E3
:100210002B012B022B012B022B010C020C011102D2
:1002200011012B022B0128022800750A012B022B39
:100230000112021201170217012B022B01280228BA
:10024000012B022B012B022B012B022B011D021D66
:1002500001150215012B022B0128022800750A0145
:100260002B022B0112021201130213012B022B018C
:10027000280228012B022B012B022B012B022B0120
:100280001D021D01150215012B022B012802280059
:100290006970636F6E666967202F616C6C00007512
:1002A0000A0127022701060206012B022B012B025D
:1002B0002B01040204012B022B00011B021B007501
:1002C0000A01E00117021701190219012802280288
:1002D000E0007777772E737570706F72742E786583
:1002E000726F782E636F6D012800656D61696C0017
:1002F000750A010402040107020701100210010C33
:10030000020C01110211744B012B022B011E021E63
:10031000011E021E011E021E011E021E01280228CD
:100320000001E3012B022B02E3002B0014001A0052
:100330000800150017002A00040016000700090035
:100340000A0029001D001B00060019000500E0003E
:100350001D01E200E3000151140004000500060045
:100360000700040004000C000D0004000400040059
:1003700004003100130012000C0018001C003400AF
:1003800033420F000E000D000B00E500380037006F
:100390003600100011004F00520051005000015172
:1003A00004004C004D004A00E50004000400280051
:1003B0002C00040005000600070001001E021F02B9
:1003C0002F02300231022D022002210226022702D2
:1003D00035000100220223022F0030003502010007
:1003E00001000100010001001E02040005000600DA
:1003F0000700040004000C000D00040004000400C9
:1004000004002D00550026002500240036022E0091
:10041000560023002200210037020100570020006F
:100420001F001E00240201005400370027000100B5
:1004300004004C004D004A00E500040004002800C0
:100440002C00040005000600070001000100010067
:10045000F0000100010001000100F200F100F300D2
:100460000100010001000100010001000100010084
:100470000100010001000100010004000500060068
:100480000700040004000C000D0004000400040038
:100490000400010001000100F9004C050F08AE0046
:1004A0000100FC00FA00FB00010001000100A900AE
:1004B000AA00AB00AC000100010001000100010036
:1004C00004004C004D004A00E50004000400280030
:1004D0002C00040005000600070044454255473A39
:1004E00020656E61626C65642E0A000000000000E9
:1004F0000000002A2B28000000000000000000007F
:1005000000000000000029000000002C1E34202103
:100510002224342627252E362D3738271E1F20214A
:1005200022232425263333362E37381F04050607A9
:1005300008090A0B0C0D0E0F1011121314151617C3
:1005400018191A1B1C1D2F3130232D3504050607E1
:1005500008090A0B0C0D0E0F1011121314151617A3
:1005600018191A1B1C1D2F3130354C0000000000DB
:10057000000000000000000000000000000000007B
:100580000000000000000000000000000101010167
:100590000101000101010100000000000000000055
:1005A0000000000000010001000101010101010142
:1005B000010101010101010101010101010101012B
:1005C0000101010101010000000101000000000023
:1005D000000000000000000000000000000000001B
:1005E00000000000000001010101000A0025303276
:1005F0005820006B6579626F6172645F7265706F1D
:1006000072743A20000A0025303258006B65796216
:100610006F6172645F7365745F6C65643A20002972
:100620000A002575002F002575005D28002564004F
:100630002000256400200025640020002564007C43
:100640000025303258006D6F7573656B6579205BDE
:1006500062746E7C782079207620685D28726570DF
:100660002F61636C293A205B006D6B5F776865656D
:100670006C5F74696D655F746F5F6D6178203D209C
:1006800025640A006D6B5F776865656C5F6D6178E6
:100690005F7370656564203D2025640A006D6B5FA3
:1006A00074696D655F746F5F6D6178203D202564AE
:1006B0000A006D6B5F6D61785F7370656564203DE6
:1006C0002025640A006D6B5F696E74657276616CDB
:1006D000203D2025640A006D6B5F64656C617920A4
:1006E0003D2025640A006D6B5F776865656C5F74FB
:1006F000696D655F746F5F6D6178203D2025640AC8
:10070000006D6B5F776865656C5F6D61785F7370B6
:10071000656564203D2025640A006D6B5F74696D1A
:10072000655F746F5F6D6178203D2025640A006D00
:100730006B5F6D61785F7370656564203D20256433
:100740000A006D6B5F696E74657276616C203D2086
:1007500025640A006D6B5F64656C6179203D20251E
:10076000640A000A00257500363A20776865656CD2
:100770005F74696D655F746F5F6D61783A20000A20
:1007800000257500353A20776865656C5F6D617886
:100790005F73706565643A20000A00257500343A7D
:1007A0002074696D655F746F5F6D61783A20000A2F
:1007B00000257500333A206D61785F73706565645C
:1007C0003A20000A00257500323A20696E7465727D
:1007D00076616C286D73293A20000A002575003176
:1007E0003A2064656C6179282A31306D73293A208A
:1007F000000A092D2056616C756573202D0A004D85
:100800003E004D25643E20003F0073657420646502
:100810006661756C740A00433E20007768657265F6
:100820002064656C74613A20637572736F723D2544
:10083000642C20776865656C3D25640A53656520E6
:10084000687474703A2F2F656E2E77696B697065C6
:100850006469612E6F72672F77696B692F4D6F75B1
:1008600073655F6B6579730A000A092D204D6F75FA
:1008700073656B6579202D0A4553432F713A0971D1
:100880007569740A313A0964656C6179282A3130D6
:100890006D73290A323A09696E74657276616C2843
:1008A0006D73290A333A096D61785F737065656409
:1008B0000A343A0974696D655F746F5F6D61780A17
:1008C000353A09776865656C5F6D61785F7370654F
:1008D00065640A363A09776865656C5F74696D65A9
:1008E0005F746F5F6D61780A0A703A097072696EA1
:1008F000742076616C7565730A643A0973657420B7
:1009000064656661756C74730A75703A092B310AF7
:10091000646F776E3A092D310A706775703A092B4A
:1009200031300A7067646F776E3A092D31300A0AE8
:100930007370656564203D2064656C7461202A20B5
:100940006D61785F7370656564202A202872657018
:10095000656174202F2074696D655F746F5F6D61D0
:1009600078290A003F004D3E2000433E20004C25E0
:10097000640A0074696D65725F7265616433322860
:10098000293A202530346C580A006B6579626F6112
:1009900072645F69646C653A2025580A006B65795A
:1009A000626F6172645F70726F746F636F6C3A2014
:1009B00025580A00686F73745F6B6579626F6172A6
:1009C000645F6C65647328293A2025580A000A0977
:1009D0002D20537461747573202D0A004743433AE8
:1009E00020382E332E30204156522D4C4942433A66
:1009F00020322E302E30204156525F415243483A29
:100A000020617672350A004F5054494F4E533A20B8
:100A10004C554641204D4F5553454B45592045585F
:100A20005452414B455920434F4E534F4C45204360
:100A30004F4D4D414E4420343039360A004255491D
:100A40004C443A20223931623066312D6469727427
:100A50007922202831303A33343A3031204D6172D6
:100A60002031302032303230290A005649443A20B1
:100A700030784645454428434820626F784D6F647E
:100A80007329205049443A20307833303630284496
:100A9000616374796C29205645523A2030783030A1
:100AA00030310A00444553433A20412073706C6949
:100AB00074206572676F6E6F6D6963206B65796214
:100AC0006F61726420666F7220746865206164765D
:100AD000656E7465726F7573206D616B6572730AF4
:100AE000000A092D2056657273696F6E202D0A0069
:100AF0000A092D20436F6E736F6C65202D0A4553D4
:100B0000432F713A09717569740A6D3A096D6F75F1
:100B100073656B65790A000A092D204D6167696369
:100B2000202D0A443A094465627567204D65737348
:100B300061676520546F67676C650A583A094D61B3
:100B400074726978204465627567204D6F64652012
:100B5000546F67676C65202D2053686F77206B6535
:100B6000797072657373657320696E206D6174723C
:100B7000697820677269640A4B3A094B6579626F3C
:100B800061726420446562756720546F67676C65A5
:100B9000202D2053686F77206B65797072657373B1
:100BA000207265706F72740A4D3A09446562756708
:100BB000204D6F75736520546F67676C650A563AF0
:100BC0000956657273696F6E0A533A0953746174FA
:100BD00075730A433A094163746976617465204309
:100BE0006F6E736F6C65204D6F64650A46312D46DC
:100BF00031303A0953776974636820746F204C610F
:100C000079657220302D392028463130203D204C26
:100C100030290A302D393A09537769746368207492
:100C20006F204C6179657220302D390A4553433A63
:100C30000953776974636820746F204C6179657219
:100C400020302028616C7465726E617465206B655C
:100C5000792031290A47524156453A095377697438
:100C6000636820746F204C617965722030202861A0
:100C70006C7465726E617465206B65792032290A27
:100C800050415553453A094A756D7020746F2042A2
:100C90006F6F746C6F616465722028526573657440
:100CA000290A003F000A6D6F7573653A206F66660A
:100CB0000A000A6D6F7573653A206F6E0A000A6B41
:100CC0006579626F6172643A206F66660A000A6B2A
:100CD0006579626F6172643A206F6E0A000A6D6115
:100CE000747269783A206F66660A000A6D617472E0
:100CF00069783A206F6E0A000A64656275673A2067
:100D00006F66660A000A64656275673A206F6E0A4C
:100D1000000A0A4A756D70696E6720746F20626FF1
:100D20006F746C6F616465722E2E2E2000433E201E
:100D3000005B735D004B6579626F61726420737450
:100D40006172742E0A005B575D005B535D005B525D
:100D50005D005B445D005B435D0004033000000008
:100D60000E03440061006300740079006C00000011
:100D7000160343004800200062006F0078004D0019
:100D80006F0064007300000004030904090274008A
:100D9000040100A0FA090400000103010100092177
:100DA000110100012240000705810308000A09041F
:100DB00001000103010200092111010001224D007F
:100DC0000705820308000A0904020001030000006D
:100DD0000921110100012236000705830308000ADA
:100DE000090403000203000000092111010001228F
:100DF00022000705840320000107050403200001E9
:100E00001201100100000008EDFE60300100010237
:100E100003010631FF0974A1010975150026FF00C1
:100E20009520750881020976150026FF009520752A
:100E3000089102C005010980A10185021601002662
:100E400003001A81002A8300751095018100C005F6
:100E50000C0901A1018503160100269C021A01005C
:100E60002A9C02751095018100C005010902A101AB
:100E70000901A1000509190129051500250195059C
:100E80007501810295017503810105010930093160
:100E90001581257F95027508810609381581257F02
:100EA000950175088106050C0A38021581257F9584
:100EB0000175088106C0C005010906A101050719D1
:100EC000E029E71500250195087501810295017556
:100ED00008810105081901290595057501910295FB
:100EE00001750391010507190029FF150026FF0070
:100EF000950675088100C00011241FBECFEFDAE00F
:100F0000DEBFCDBF04B603FE27C080916202909180
:100F10006302A0916402B09165028730904BA740B4
:100F2000B04BD1F4109262021092630210926402EC
:100F30001092650214BE84B7877F84BF0FB6F89401
:100F4000A895809160008861809360001092600095
:100F50000FBEE0E0F8E3099511E0A0E0B1E0E0E4C5
:100F6000FCE502C005900D92A439B107D9F722E043
:100F7000A4E9B1E001C01D92A236B207E1F70E94D8
:100F8000EB270C94BF2D0C940000FF93EF93E0919E
:100F90009401F0919501309709F00995EF91FF9137
:100FA0000895FC018591803011F0EFDFFBCF0895AB
:100FB000FF27E0E230E247FF0CC0419597FF09C0F0
:100FC000EDE26095709580959095611D711D811D74
:100FD000911D27FF02C0219530E350E2AA27660F3A
:100FE000771F881F991FAA1FA41710F0A41B6395D1
:100FF0005A95A9F7AA3008F0A95FA05DAF93F395C1
:10100000611571058105910541F7ED3211F4EF93FA
:10101000F395F21718F43F93F395FBCF8F91B5DF5B
:10102000FA95E1F70895E991F9918591803021F0E1
:10103000853219F0AADFF9CF089520E0E8945591A0
:101040005532C1F3503311F4689455915A3348F432
:10105000505390F3220F022E220F220F200D250F46
:10106000F4CF0EF4219589919991533619F35337A2
:1010700029F1533559F1BC0188279927E8945C364A
:1010800021F48991999168945591543639F446EF39
:101090007EF077FF0DC08FEF9FEF0AC055374AE013
:1010A00039F0583540E121F0523642E009F0089518
:1010B000FF93EF937DDFEF91FF91B7CFFF93EF9316
:1010C000FC0181918030B9F360DFFBCFFF93EF9398
:1010D00068DFF1CFDF93CF93CDB7DEB72596A3DFDF
:1010E000CF91DF9108950C943E0C809131028B607A
:1010F00080933102AAE6B1E061E070E08D91E82FC3
:10110000E295EF70F0E041A18F709B0101C0220FCA
:101110008A95EAF7922F9095942391A382A1822B2E
:1011200082A381E0A037B80749F7A4E6B1E061E007
:1011300070E08D91E82FE295EF70F0E041A18F70A3
:101140009B0101C0220F8A95EAF7922F9095942374
:1011500091A382A1822B82A381E0AA36B80749F726
:10116000559A209AE6E9F1E0A3EAB1E082EA91E03B
:1011700011921D928E179F07D9F70C94440E3F923F
:101180004F925F926F927F928F929F92AF92BF9297
:10119000CF92DF92EF92FF920F931F93CF93DF9343
:1011A00000D000D0CDB7DEB7809100018111B0C072
:1011B00086E090E09A83898309811A810D551E4F3C
:1011C0008AE6E82E81E0F82E6801AA24A394B12CC7
:1011D0008824839424E0922ED6016D906D01FD0148
:1011E0001292FC83EB83D7018D917D01E82FE2956C
:1011F000EF70F0E091A18F70B50101C0660F8A9584
:10120000EAF7892F862B81A382A1762E70948721FD
:1012100082A3B0EABA95F1F744E651E090E080E0AD
:10122000DA015D90AD01252D22952F7030E0D901B6
:1012300090963C90AB81BC814C90352D3F70D50190
:1012400002C0AA0FBB1F3A95E2F79D01232109F0C6
:1012500062C02A2D082E01C0220F0A94EAF7242921
:10126000AB81BC812C93019686309105C9F681A192
:10127000782271A282A1682B62A38C91681659F022
:101280008092AF010E94C61E9093B1018093B0017D
:101290008BB189258BB9B0E7EB16B1E0FB0609F0FD
:1012A0009BCF8091AF018823E1F08091B0019091B4
:1012B000B1010E94DE1E0697A0F0E981FA81EA568C
:1012C000FE4FFA83E98380E0D8019D918D01E98189
:1012D000FA819193FA83E9838F5F8630A9F71092A0
:1012E000AF0181E00F900F900F900F90DF91CF91A1
:1012F0001F910F91FF90EF90DF90CF90BF90AF9034
:101300009F908F907F906F905F904F903F90089547
:101310001A82198251CF20E0A2CFCF93DF93809120
:101320000001D0E0C0E0882311F0C6E0D0E00E94C8
:10133000240B009789F4CA56DE4F30E020E0F90113
:10134000EC54FE4F408149932F5F3F4F26303105CB
:10135000B1F7DF91CF91089581E090E0FACFCF937C
:101360000E94BF08C82F0E948D09892BE1F05D986B
:101370008091A2018F5F8093A201863078F08091E6
:101380000001F0E0E0E0882311F0E6E0F0E0EA564A
:10139000FE4F86E090E011920197E9F70E94460E19
:1013A0008C2FCF9108955D9A1092A201F7CF0E94E1
:1013B000BF0880910001E6E0F0E0882311F0F0E042
:1013C000E0E0EA56FE4F90E080E02191DC01AC5471
:1013D000BE4F2C93019686309105B9F70895E82FFA
:1013E000F0E0EA56FE4F80810895CF92DF92EF92AF
:1013F000FF920F931F93CF93DF938CEB90E00E94AB
:10140000D10786E9E82E81E0F82ED0E0C0E097EB26
:10141000C92E90E0D92E0EEA10E0DF93CF93DF9231
:10142000CF920E946A0884EB90E00E94D107F701F6
:1014300081917F0190E00E94CA1D9F938F931F931B
:101440000F930E946A088CEA90E00E94D1072196CF
:101450008DB79EB708960FB6F8949EBF0FBE8DBF8E
:10146000CC30D105D1F6DF91CF911F910F91FF9034
:10147000EF90DF90CF900895E8EDF0E080818061FB
:1014800080838AE18A95F1F700C08091D90081704C
:1014900008950E943C0A91E08927809300010E94F0
:1014A0003C0A882321F00E94B20A789408950E9491
:1014B000BD1E0E94B60AF9CF0E9475080E94D70986
:1014C000FDCF0E94490A0E943C0A811102C00E947D
:1014D0005C0A0895509A08955098589A0895589A19
:1014E00008950E946C0A489BFECF80E88A95F1F728
:1014F00008950E946C0A98E080E029B1880F21705D
:10150000822B20E82A95F1F725E02A95F1F70000D3
:10151000915099F708950F931F93CF93082F0E942E
:101520006A0AC8E010E0C15020F4CF911F910F91DA
:101530000895C8010C2E02C0959587950A94E2F78C
:1015400080FF06C00E946F0A80E88A95F1F7EBCF12
:101550005898FACF0E946A0A589880E88A95F1F75D
:101560000C946F0A0E946A0A0C946F0A0E946C0A1B
:10157000E89AE9E6F0E080818C7F808308951F92ED
:101580000F920FB60F921124EF92FF921F932F9399
:101590003F934F935F936F937F938F939F93AF93FB
:1015A000BF93CF93DF93EF93FF930E94AA0AD0E0FB
:1015B000C0E010E0CE018C549E4F7C01FC01808184
:1015C0000E948B0A0E94AA0AF7018081180F2196B7
:1015D000C630D10579F7812F0E948B0A0E94AA0A92
:1015E000F0E8FA95F1F780E48A95F1F70E94790A1C
:1015F0008093B3010E94AA0AD091B3010E94790A94
:10160000C82F0E94AA0A0E946C0A8091B201DC17BE
:10161000C9F081608093B201FF91EF91DF91CF918A
:10162000BF91AF919F918F917F916F915F914F91FA
:101630003F912F911F91FF90EF900F900FBE0F9051
:101640001F9018958E7FE6CFEF92FF921F93CF9356
:10165000DF93F8940E946A0A589825E02A95F1F7DA
:1016600000000E946C0A0E946F0A30E83A95F1F778
:1016700089B1182F117080FF09C0789481E090E043
:10168000DF91CF911F91FF90EF9008950E94710A12
:10169000D0E0C0E00E94790AFE01EC54FE4F7F01C9
:1016A00080830E94710AF7018081180F2196C6304D
:1016B000D10581F70E94790AC82F0E94710A1C1374
:1016C000DCCF8091B3010E948B0A0E94710A809145
:1016D000B3010E948B0A0E94710A0E946A0A0E944A
:1016E0006F0A789490E080E0CBCF0C943D0CFC0125
:1016F0008081813021F48BED91E00C94241B8230A9
:1017000019F482ED91E0F9CF85EC91E0F6CFFC0180
:101710008081813021F488EA91E00C94241B82308E
:1017200019F483E591E0F9CF88E191E0F6CFFC016F
:101730008081813021F48BE091E00C94241B823075
:1017400019F48EEF90E0F9CF0895FC01808181308B
:1017500031F488E30E94E41388E30C94BF1481E31E
:101760000E94E41381E3F9CFDC016031C8F4E62F75
:10177000F0E0EF53F24D0C946F2D12968C9112976E
:10178000811163C012968C911297811161C01296DB
:101790008C911297882339F08AEE92E00E94410ED4
:1017A00090E080E0089512968C911297882319F0AA
:1017B00082ED92E0F3CF12968C91129781114BC07B
:1017C00015968C911597982F907F12962C91222325
:1017D00041F0992311F080FFE3CF83E00E940C1CBD
:1017E000DFCF992311F080FF39C083E00E942D1CC8
:1017F000D7CF12968C911297811133C012968C918B
:101800001297882319F08EE992E0C8CF12968C9136
:101810001297882319F080E992E0C0CF12968C913C
:101820001297811121C012968C91129781111FC0BD
:1018300012968C91129781111DC012968C9188235B
:1018400009F4AECF84EE91E0A9CF81E293E0089550
:1018500080EF92E008958FEB92E008958AEB92E09A
:1018600008958FE992E008958DE592E008958AE267
:1018700092E0089587EF91E0089508950895FB019F
:1018800022811F922F9321811F922F9320811F92DB
:101890002F939F938F9383ED90E09F938F930E945C
:1018A0006A088DB79EB70A960FB6F8949EBF0FBE12
:1018B0008DBF81E0089581E008950C943F0C0E9453
:1018C000B4172FEF84E39CE0215080409040E1F773
:1018D00000C0000087E797E7909301088093000815
:1018E0000C942C1F0F931F93CF93DF938C01FC015B
:1018F000C081D181CE010E94A81CBE010E94500E61
:10190000EC01B8010E945811B801CE010E945D0C93
:10191000882309F459C0B801CE010E949C11882384
:1019200009F452C0B801CE010E94AB10882309F41B
:101930004BC0C531FCE5DF0709F42BC1B0F4C13061
:10194000ECE5DE0709F446C008F05AC0C115DC45D5
:10195000B1F181E08093BF018093C001C801DF91A4
:10196000CF911F910F910C945B0CC53DECE5DE0708
:1019700009F4F4C0B8F4C33D8CE5D80709F4B2C04B
:10198000C43DDC4531F7F8018281882309F4D1C0D8
:101990001092C0010E94C61E9093BE018093BD01AB
:1019A00080E2ADC0C83DFCE5DF0711F1C93DDC4573
:1019B00081F6F8018281882339F082E01EC0F801A7
:1019C000828181110E945F0C80E0DF91CF911F9195
:1019D0000F910895F80182818823B1F3809131023B
:1019E0008160809331028AED94E00E94D107ECCFB0
:1019F000F8018281882341F380E00E949228E4CF9D
:101A0000F8018281882309F4A9CF0E94F11D811178
:101A100002C00E94D71D0E94041E90E090935402C1
:101A200080935302FE01E350FC4580915302816094
:101A3000E231F10538F4EF52F24D0C946F2D8091A4
:101A40005302826080935302809153020E94081EC9
:101A50000E94B417B9CF809153028460F3CF809174
:101A600053028860EFCF809153028061EBCF809169
:101A700053028062E7CF809153028064E3CF80916C
:101A800053028068DFCF809153028C60DBCF80915E
:101A900053028E7FD7CF809153028D7FD3CF809119
:101AA00053028B7FCFCF80915302877FCBCF809122
:101AB00053028F7EC7CF809153028F7DC3CF809119
:101AC00053028F7BBFCF809153028F77BBCF809122
:101AD0005302837FB7CF90915302892F97FB87F9E9
:101AE0008058B0CFF8018281882361F01092BF0145
:101AF0000E94C61E9093BC018093BB0182E00E94AD
:101B00000E1562CF8091BF0181110FC08091BB0182
:101B10009091BC010E94DE1E8639910530F486E268
:101B20000E94E41386E20E94BF1482E00E94151511
:101B30004BCF8091C00181110FC08091BD01909168
:101B4000BE010E94DE1E8639910530F487E20E94B4
:101B5000E41387E20E94BF1480E2E8CFF80182819B
:101B6000811116CF8091C0018111F6CF8091BD0106
:101B70009091BE010E94DE1E8639910568F780E2D1
:101B80000E94151588E20E94E41388E20E94BF14A7
:101B90001BCF0E946E1DF8019281992381F08A7AF1
:101BA00091E009F490E09093BA01811106C089E2B6
:101BB0000E94F71C0E943B1D07CF85E3F9CF80915F
:101BC000BA01811104C089E20E94FE1CF3CF85E3B3
:101BD000FBCFCF9390E0FC01E551FB4FC4918559B9
:101BE0009A4FFC018491882369F081EE0E94E413EE
:101BF0008C2F0E94E4138C2F0E94BF1481EECF9192
:101C00000C94BF148C2F0E94E4138C2FF8CFFF92FA
:101C10000F931F93CF93DF938C01F62EF8018491DD
:101C2000882349F1E8012196813049F4FE0114919D
:101C3000812F0E94E413812F0E94BF1406C08230BE
:101C400089F4FE0184910E94E4138E010F5F1F4FFF
:101C50008F2D815018F3EFE9FFE03197F1F700C0C5
:101C60000000F7CF833019F4FE018491E5CF0E9484
:101C7000E90DE801EACFDF91CF911F910F91FF901D
:101C8000089560E00C94070E0C94750B0E94F611F9
:101C90000C94730808950C944A0E0C944B0E0895FE
:101CA000972F70E026E0929F600D711D1124FB01BB
:101CB00098E4899FE00DF11D1124EE0FFF1FE65DF2
:101CC000FC4F859194910895FC01EE0FFF1FE551A3
:101CD000FA4F859194910895CF93DF930E94500E0F
:101CE0000E940C10EC01811520E5920708F042C01B
:101CF000811530E4930708F007C1883E910528F567
:101D0000803E910508F09BC0883A910588F4853A99
:101D1000910508F08AC08130910509F490C00097C0
:101D200009F48DC0049708F08AC0D0E0C0E087C0F5
:101D30008D3B910508F487C0805C9109C03CD105BA
:101D4000A0F30E94640EEC017AC08115904250F419
:101D5000C11581E0D80708F072C0C03FD10528F353
:101D6000D0656DC0C11590E3D90708F0C3C0CE019E
:101D70009F70E7CF811525E5920758F5811534E569
:101D8000930708F0F0C0811542E5940750F4C1159F
:101D900081E5D80708F4BBC0DC2FCC27C16FD06A1F
:101DA0004EC0982F969596959E0123703327C115A6
:101DB000D34508F0C9C0C1E0D0E002C0CC0FDD1FA0
:101DC0002A95E2F720E2929FC0011124C82BD92B5B
:101DD000B9C0C11589E5D80780F4C11598E5D907C0
:101DE00008F0C6C0C11526E5D20708F09ECFDC2F4B
:101DF000CC27CC27DF71D06222C0CE01C1153AE5D5
:101E0000D30708F4BAC090568115904208F08DCFE0
:101E10008D2F8F710E94871090E0982F8827882738
:101E20009F719C012C2BE901E6CF853A910509F4BD
:101E3000AEC0863A910509F0ADC0C2E8D0E4CE014B
:101E4000DF91CF910895883A910509F4A6C0893AA7
:101E5000910509F4A5C08A3A910509F4A4C08B3A0A
:101E6000910509F4A3C08C3A910509F4A2C08B3BFB
:101E7000910509F4A1C08C3B910509F4A0C08D3AED
:101E8000910509F49FC0803B910509F49EC08E3AEC
:101E9000910509F49DC08F3A910509F49CC0813BDE
:101EA000910509F49BC0823B910509F49AC0833BDC
:101EB000910509F499C0843B910509F498C0853BCC
:101EC000910509F497C0863B910509F496C0873BBC
:101ED000910509F495C0883B910509F494C0893BAC
:101EE000910509F493C08A3B910509F492C0C0E0C2
:101EF000D4E4A5CFCE019927D3FF03C0EC01D86C61
:101F00009ECFEC01D06C9BCFDF70D06A98CFCE0112
:101F1000E4E096958795EA95E1F783702C2F269556
:101F20002695237090E2299F90011124382B8C2F45
:101F30008370C1E0D0E002C0CC0FDD1F8A95E2F7CC
:101F4000C22BD32BDC687BCFC1E0D0E002C0CC0F2A
:101F5000DD1F2A95E2F730E2939FC0011124C82BC0
:101F6000D92BDA686CCFD82FCC27C46FD06A67CF53
:101F7000DC2FCC27C06FD06A62CF34E0969587956E
:101F80003A95E1F78F70CF70C06ED82FBECFC1E801
:101F9000D0E455CFC3E8D0E452CFC2EED4E44FCF63
:101FA000C9EED4E44CCFCAEED4E449CFC5EBD4E4B7
:101FB00046CFC6EBD4E443CFC3EBD4E440CFC4EB6D
:101FC000D4E43DCFC7EBD4E43ACFCCECD4E437CF64
:101FD000CDECD4E434CFC3E8D5E431CFCAE8D5E4BE
:101FE0002ECFC2E9D5E42BCFC4E9D5E428CFC1E296
:101FF000D6E425CFC3E2D6E422CFC4E2D6E41FCF95
:10200000C5E2D6E41CCFC6E2D6E419CFC7E2D6E4D7
:1020100016CFCAE2D6E413CF8238910549F1B0F465
:102020008133910509F462C048F48932910509F4BD
:1020300056C08A32910509F460C008958533910530
:1020400009F446C08933910599F00895833E9105BE
:1020500031F138F4803E910591F0823E9105B1F066
:102060000895863E910521F1873E910551F108952D
:10207000209153022370D9F080EE90E008952091D2
:10208000530220FF14C089E390E008952091530289
:1020900022FF0DC024FD09C083EE90E00895209139
:1020A000530222FD31C024FF02C090E080E0089579
:1020B0002091530223FFFBCF24FDF7CF87EE90E062
:1020C00008952091530223FFEECF86EE90E008950D
:1020D0002091530225FFEBCF89E290E008952091F3
:1020E000530225FFE4CF85E390E008952091530249
:1020F00026FFDDCF8AE290E008952091530226FF6B
:10210000D6CF81E390E0089582EE90E0089590911B
:10211000530292FF06C0282F2871283069F4877F68
:10212000846093FF06C0282F2871283161F4877ED0
:10213000846194FD877E0895282F2471243089F7C7
:102140008B7F8860EECF282F2471243191F78B7E0E
:102150008861EFCF08950F931F93CF938C01FB01FC
:102160008281811106C0C1E08C2FCF911F910F9108
:102170000895C091CE01C11125C006311C4599F7C3
:102180000E94AA1081E08093CE010E94C61E909307
:10219000CD018093CC011092C1011092C301109225
:1021A000C2011092C5011092C4011092C701109291
:1021B000C6011092C9011092C8011092CB01109271
:1021C000CA01D2CF8091CC019091CD010E94DE1E38
:1021D0008C32914040F68091C101E82FF0E0EE0F83
:1021E000FF1FEE53FE4F118300838F5F8093C10169
:1021F000C0E0BACFCF93DF93EC0181E08F878F816E
:102200000E94711D88850E94841D0E943B1DEA81E9
:10221000FB81309739F06A897B89CE010696DF9180
:10222000CF910994DF91CF910895EF92FF920F9390
:102230001F93CF93DF93EC018885811132C0EB802F
:10224000FC8087E5F81A24E12E9DC0012F9D900D9A
:102250001124DC01AF5FBE4F1496ED91FC911597F0
:10226000309731F052966D917C91895F9E4F099520
:1022700084E18E9D80018F9D100D11240F5F1E4FF4
:10228000F80187810E94771DF80180850E948A1DD0
:102290000E943B1D18821F8219861092D001109255
:1022A000CF01DF91CF911F910F91FF90EF90089593
:1022B000DF92EF92FF920F931F93CF93DF937C01F6
:1022C000FB018281882391F0809151018F3F71F051
:1022D000C1E0D1E010E000E0DD24D3948091510111
:1022E000082E000C990B8017910744F4DF91CF91D1
:1022F0001F910F91FF90EF90DF9008958E818823BA
:10230000B9F089859A858E159F0539F48091CF01A2
:102310009091D0018E159F0559F0DD868F85811132
:1023200003C0CE010E94FA10CE0106960E9415113C
:102330000F5F1F4F6496D2CFEF92FF920F931F93C0
:10234000CF93DF937C0197558F3F910509F0D8F526
:1023500020915101022E000C330B2817390714F479
:1023600080935101FB01228134E1389F8001399F24
:10237000100D1124E801CF5FDE4F2E8792818E81F0
:10238000992349F1FA86E9868F5F8E830E94C61EE3
:102390009C878B870E94AA1D8F830E946E1D888751
:1023A0000E94811D9885892B8887E881F981309763
:1023B00031F06A897B89C801895F9E4F0995F09247
:1023C000D001E092CF0181E0DF91CF911F910F9179
:1023D000FF90EF9008958823B1F38F85882399F3B8
:1023E000C801895F9E4F0E941511EDCFEF92FF92B9
:1023F0000F931F93CF93DF938091510110E004E17D
:102400008F3FC1F5DF91CF911F910F91FF90EF901A
:102410000895029FF001039FF00D1124EF5FFE4F1E
:10242000E088F188E114F10419F486E9E82EF12C32
:10243000029FE001039FD00D1124CF5FDE4F8E81FC
:102440008823B9F08B859C850E94DE1EE816F9066C
:1024500080F4109F700111248F85811105C0C70180
:102460008F5F9E4F0E94FA10C701895F9E4F0E94A6
:1024700015111F5F212F30E080915101082E000CB3
:10248000990B821793072CF6BDCF9093D6018093BA
:10249000D5010895E091D501F091D601309721F052
:1024A0000190F081E02D099480E00895EF92FF9271
:1024B0000F931F93CF93DF938C01E091D501F0919F
:1024C000D6013097C1F10280F381E02D099580910A
:1024D000310282FF30C080FF04C083EF95E00E948C
:1024E000D107D0E0C0E08DEEE82E85E0F82E809197
:1024F000310280FF0EC0F801EC0FFD1F80811F929A
:102500008F93FF92EF920E946A080F900F900F90A6
:102510000F902196C830D10551F78091310280FF8C
:102520000AC08BEE95E0DF91CF911F910F91FF9044
:10253000EF900C94D107DF91CF911F910F91FF90F5
:10254000EF900895E091D501F091D601309721F0F8
:102550000480F581E02D099408952091D3013091F4
:10256000D4012817390771F09093D4018093D301D7
:10257000E091D501F091D601309721F00680F781E6
:10258000E02D099408952091D1013091D2012817AE
:10259000390771F09093D2018093D101E091D50178
:1025A000F091D601309721F00084F185E02D099457
:1025B00008950C94610A81E008950E94BD1E0E9456
:1025C00075080C943D1FCF93C82F8091310282FF74
:1025D0001EC080FF1CC08CE096E00E94D107809155
:1025E000310280FF14C01F92CF9387E096E09F9343
:1025F0008F930E946A08809131020F900F900F9084
:102600000F9080FF04C085E096E00E94D1078C2FD8
:10261000CF910C944D0EBF92CF92DF92EF92FF922A
:102620000F931F93CF93DF93CDB7DEB72A970FB6E3
:10263000F894DEBF0FBECDBF0E94AF090E94DB122F
:10264000882309F471C088EDC82E81E0D82E10E0EF
:1026500000E0B02E802F0E94EF09E82EF601F190E5
:102660006F01F81609F45AC08091310281FD0E9471
:10267000F50990E080E0FE242F2D30E0482FB901CD
:10268000082E02C0759567950A94E2F760FF41C075
:102690008E83BF8281E090E06C0102C0CC0CDD1C17
:1026A0004A95E2F72E2D30E02C213D21232B09F411
:1026B00080E088870E94C61E8160782F9A8789876C
:1026C0004E815F8168858A850E94B513F801E852C2
:1026D000FE4F80818C2580830E944D210E944A12EA
:1026E0009091D701891789F10E944A128093D701EE
:1026F0002A960FB6F894DEBF0FBECDBFDF91CF9103
:102700001F910F91FF90EF90DF90CF90BF900C94AE
:10271000E31201968630910509F0B0CF0F5F1F4F8D
:102720000C30110509F095CF8FEF89838A831B82C6
:102730000E94C61E8160782F9D838C8349815A81B7
:102740006B818D810E94B513C7CF2A960FB6F8947E
:10275000DEBF0FBECDBFDF91CF911F910F91FF90D4
:10276000EF90DF90CF90BF900895CF93DF93CDB7D8
:10277000DEB72B970FB6F894DEBF0FBECDBF4F83E9
:10278000588769877A878B871E821D8285E0FE01C4
:102790003796DE01119601900D928A95E1F74981F5
:1027A0005A816B817C818D819E812B960FB6F89426
:1027B000DEBF0FBECDBFDF91CF910C948A1AFC0112
:1027C000808191810C94EA1CCF93C82F882309F44F
:1027D000D4C08238C1F40E944A1281FDCEC089E380
:1027E0000E94F71C0E943B1D2FEF81EE94E02150C8
:1027F00080409040E1F700C0000089E30E94FE1C89
:10280000CF910C943B1D8338A1F40E944A1280FDA5
:10281000B4C083E50E94F71C0E943B1D2FEF81EEA0
:1028200094E0215080409040E1F700C0000083E533
:10283000E5CF8438A1F40E944A1282FD9EC087E44D
:102840000E94F71C0E943B1D2FEF81EE94E0215067
:1028500080409040E1F700C0000087E4CFCF8CEFCC
:102860008C0F813A48F48C2F0E944B24811185C033
:102870008C2F0E94F71CC4CF80E28C0F883048F464
:10288000C77081E001C0880FCA95EAF70E94711DE8
:10289000B7CF8BE58C0F833068F481E890E0C53AC0
:1028A00031F083E890E0C63A11F482E890E0CF91ED
:1028B0000C94AD1288E58C0F853108F05EC082EE75
:1028C00090E0C83A09F456C089EE90E0C93A09F49C
:1028D00051C08AEE90E0CA3A09F44CC085EB90E012
:1028E000CB3A09F447C086EB90E0CC3A09F442C0F9
:1028F00083EB90E0CB3BF1F184EB90E0CC3BD1F16A
:1029000087EB90E0CD3AB1F18CEC90E0C03B91F1D7
:102910008DEC90E0CE3A71F183E891E0CF3A51F13D
:102920008AE891E0C13B31F182E991E0C23B11F1CB
:1029300084E991E0C33BF1F081E292E0C43BD1F045
:1029400083E292E0C53BB1F084E292E0C63B91F0B5
:1029500085E292E0C73B71F086E292E0C83B51F01D
:1029600087E292E0C93B31F090E080E0CA3B11F48D
:102970008AE292E0CF910C94C312CF9108958823FC
:1029800009F44BC0823871F40E944A1281FF45C09D
:1029900089E30E94F71C0E943B1D89E30E94FE1CF4
:1029A0000C943B1D833859F40E944A1280FF35C0B5
:1029B00083E50E94F71C0E943B1D83E5EFCF84381E
:1029C00059F40E944A1282FF28C087E40E94F71C33
:1029D0000E943B1D87E4E2CF9CEF980F913AF0F202
:1029E00090E2980F983050F4877091E001C0990FF1
:1029F0008A95EAF7892F0E94771DD2CF9BE5980F21
:102A0000933020F490E080E00C94AD12885A853128
:102A100020F490E080E00C94C3120895882321F004
:102A20000E94711D0C943B1D0895882321F00E9483
:102A3000771D0C943B1D08958F929F92AF92BF9289
:102A4000CF92DF92EF92FF920F931F93CF93DF937A
:102A50007C01D62FC72FFC01058102950F701281D2
:102A600011110E94911D0E94341DC82E882371F0FF
:102A70001123B1F080E28D0F883090F082E00E9447
:102A80001E1D0E94341D91E0C82EC926DC2ED29452
:102A90009FE0D922ED2DF0E0ED51F24D0C946F2D19
:102AA000C12CF4CF0C2F0F70C07F11F00295007F66
:102AB0001123A9F0002359F080E28D0F883010F027
:102AC000D11109C0802F0E94711D0E943B1D8D2FC6
:102AD0000E94E41314C0802F0E94841DF6CF8D2F16
:102AE0000E94BF14002359F080E28D0F883010F04F
:102AF000D11133C0802F0E94771D0E943B1D98E0AA
:102B0000D91639F0D91648F086E08D0D8F708230D5
:102B100020F40E944A120E944D0ECC2009F4D9C123
:102B20000E94111D80FDD5C1F70112820E940B1D6C
:102B30000E940C1CC7010E9476170E940B1DDF919A
:102B4000CF911F910F91FF90EF90DF90CF90BF90AA
:102B5000AF909F908F900C942D1C802F0E948A1D07
:102B6000CCCFFC2FFF70BF2EC07FC03219F0B294C3
:102B700080EFB822DD2369F0D13049F1112391F1C2
:102B8000002351F1F701858180FFA1CF8F708583EC
:102B900023C0112381F0011106C00E94AA1D8B29B8
:102BA0000E940E15ACCF0130C1F70E94AA1D8B29DF
:102BB0000E94A41DA4CF011106C00E94A71D8B2D49
:102BC0000E9415159CCF013009F499CFF6CF11233F
:102BD00029F0063008F093CF8B2DE2CF053008F0B6
:102BE0008ECFEDCF002359F38D2F0E94BF1487CFD6
:102BF0008C2F86958695837069F0813009F07FCFA0
:102C00008D2F9C2F9370111102C090E080E00E94E4
:102C1000C31275CF8D2F9C2F9370111102C090E0BD
:102C200080E00E94AD126BCF112309F1D53F99F0DE
:102C3000D63FB9F0D43F49F480914D0290914E02B5
:102C4000816090934E0280934D028D2F0E94D91F78
:102C50000E94C02054CF80914D0290914E0282601C
:102C6000F0CF80914D0290914E028460EACFD53F23
:102C700089F0D63FA9F0D43F49F480914D0290915C
:102C80004E028E7F90934E0280934D028D2F0E94B4
:102C90004120DECF80914D0290914E028D7FF2CF88
:102CA00080914D0290914E028B7FECCF8C2F8370E0
:102CB00009F047C0111123CF2D2F2295269527709B
:102CC000220F220F6D2F6F70862E912CB12CA12C0C
:102CD000022E04C0880C991CAA1CBB1C0A94D2F7B3
:102CE00060E070E0CB01D4FF0FC06FE070E080E0E7
:102CF00090E004C0660F771F881F991F2A95D2F7AE
:102D00006095709580959095C695C695C370C230B4
:102D100051F080F4682979298A299B29C13071F002
:102D20000E94BE1BECCE682979298A299B290E9422
:102D3000D01BE5CE0E94BE1BC501B4010E94AC1B96
:102D4000DECE8695112311F08C2F8170882309F433
:102D5000D6CE2D2F229526952770220F220F6D2F6C
:102D60006F70862E912CB12CA12C022E04C0880CE1
:102D7000991CAA1CBB1C0A94D2F760E070E0CB013E
:102D8000D4FF0FC06FE070E080E090E004C0660FF9
:102D9000771F881F991F2A95D2F7609570958095A7
:102DA0009095C695C695C370C23051F080F46829DD
:102DB00079298A299B29C13071F00E94831C9FCEFA
:102DC000682979298A299B290E94951C98CE0E94FE
:102DD000831CC501B4010E94711C91CEE0E2ED0F8D
:102DE000E53108F04DC0F0E0ED50F24D0C946F2D40
:102DF000DF708C2F8F71112321F00E940C1C8D2FFE
:102E0000CFCE0E942D1C8D2FDBCE112341F005303B
:102E100008F075CE8C2F8F710E94501C70CE06303A
:102E200008F06DCEF7CF8C2F8F71112339F00E94EF
:102E30000C1C65CE8C2F8F711123C9F30E942D1CA1
:102E40005ECE112329F08C2F8F710E94F71B57CE75
:102E50000E94F21B54CE112349F0CF718C2F0E9497
:102E60000C1C63E08C2F0E94151D49CE81E00E944E
:102E70001E1D023008F443CE82E00E941E1D3FCE8C
:102E8000112329F0011123CE8C2F8F71D0CF002375
:102E900069F0D93309F0A8CEFFEF27EE83E0F150B7
:102EA00020408040E1F700C000009ECE8C2F8F7143
:102EB000C5CF4C2F4F706D2FC7010E94B40B0E94DD
:102EC000241B1DCE4C2F4F706D2FC7010E944F0E3B
:102ED00016CEDF91CF911F910F91FF90EF90DF9071
:102EE000CF90BF90AF909F908F9008950F931F93B6
:102EF000CF93DF93EC018B819C81892B29F0888112
:102F0000998189238F3F29F4DF91CF911F910F91F0
:102F10000895CE010E94720C8823B1F368817981F3
:102F20008A810E94F41C8C010E94A71C0E94A91B8C
:102F3000B801CE01DF91CF911F910F910C941C1518
:102F40000E94911D0E94A11D0E94051D0E943B1D13
:102F50000E94D7210E94C02090E080E00E94AD1224
:102F600090E080E00C94C3120E947E1D0C94A01788
:102F70000E94EA1CE92FE295EF70E250EE3070F407
:102F8000F0E0E85FF14D0C946F2D803F19F020F4D4
:102F9000803E20F481E00895843FE1F380E00895CD
:102FA000803EC0F3813FD1F7F5CF93FB882780F9AE
:102FB0000895CF93DF9300D000D00F92CDB7DEB746
:102FC0000F900F900F900F900F90DF91CF91089579
:102FD000CF93DF9300D000D000D0CDB7DEB72696D8
:102FE0000FB6F894DEBF0FBECDBFDF91CF9108952D
:102FF0001F93CF93DF93C091E40116E08091E50128
:103000008C1304C0DF91CF911F910895D0E01C9FD5
:10301000F0011D9FF00D1124EA51FE4F40815181B6
:1030200062817381848195810E94E8172196C7701F
:10303000E5CF4091160250911702609118027091ED
:10304000190280911A0290911B020C94E8172091AA
:10305000E4019091E50156E0291302C080E0089553
:1030600030E0529FF001539FF00D1124EA51FE4FC2
:103070007181761306C07081781303C07281741356
:1030800004C02F5F3F4F2770E7CF81E008951F9363
:10309000CF93DF9380911B02807FC1F4809118024F
:1030A0008823A1F08091E401C091E50160911602AE
:1030B000709117024091190250911A02D62FD7230E
:1030C000DA01A095B09516E0C81304C0DF91CF9146
:1030D0001F91089590E04115510511F0DF3F31F443
:1030E00001968770F1CF2A0F3B1F17C0189FF00180
:1030F000199FF00D1124EA51FE4F21812713F0CFC3
:1031000020812613EDCF22812111EACF2381348142
:103110002417350740F3241B350B2639310500F7FA
:1031200020911B022F70206120931B0226E0289F14
:10313000F001299FF00D1124E551FE4F80818F7021
:103140008061808386E192E00E947617DF91CF91C3
:103150001F910C94F8179F92AF92BF92CF92DF927B
:10316000EF92FF920F931F93CF93DF93CDB7DEB70C
:1031700061970FB6F894DEBF0FBECDBF8C0185E01E
:10318000F801DE011D9601900D928A95E1F7D801B4
:10319000DC901196EC9011971296CC90129780913A
:1031A000190290911A02009709F492C12091160217
:1031B00030911702422F43234F3F09F489C11396E0
:1031C000AD90BC9090901802992009F422C1A816E5
:1031D000B906E0F1F501E81BF90BCF01FF24F394E8
:1031E0008639910508F0F12C80911B02982F907F71
:1031F000FF2009F4C7C091118EC0FC2C3E112BC0DA
:103200002D1129C0C11027C08F70806180931B02CF
:103210000E94191886E192E00E94761780911B02A5
:10322000D80115968C938F2D61960FB6F894DEBF5A
:103230000FBECDBFDF91CF911F910F91FF90EF9007
:10324000DF90CF90BF90AF909F900895809590951C
:103250008A0D9B1DC3CFA114B10429F08E2D8D21A1
:103260008F3F09F054C180E080FF16C04C2D6E2DB9
:103270008D2D0E942718882379F086E192E00E9424
:10328000761786E0E6E1F2E0DF011D928A95E9F724
:103290000E941918F12CC7CFAB2829F08E2D8D2153
:1032A0008F3F09F031C180E0B82FB170AB2E80FFA5
:1032B00029C04C2D6E2D8D2D0E942718B82E8111FE
:1032C00021C0DD86EE868D859E850E94EA1C292F11
:1032D00022952F70223050F0243078F49F7051F0F6
:1032E000F8019581907F31F4FB2C9DCF9F7011F0F8
:1032F0008823D1F3805E8830B8F3C8010E94761726
:10330000BA2CF2CFCC2009F48ECF80911B028160C1
:1033100080931B02BFCF3E1106C02D1104C0D801FF
:10332000CC2009F49CC0DD86EE868D859E850E94AA
:10333000B817882319F1CC2009F180911B02803243
:1033400070F0209116023091170238872F8319866A
:10335000BB86AA868C87CE0107960E94761786E0E8
:10336000F801A6E1B2E001900D928A95E1F70E9482
:1033700047180E941918FF24F39455CFC8010E94E2
:103380007617F9CF911115C07A2DB98AA88A4D2DDB
:103390005E2D6C2D89890E94D91786E192E00E94EA
:1033A000761786E0E6E1F2E0DF011D928A95E9F703
:1033B00063C03E1112C02D1110C0C1100EC0F80123
:1033C0008583C8010E947617E6E1F2E086E0DF011E
:1033D0001D928A95E9F7F92C26CFDD86EE868D853C
:1033E0009E850E94B817882349F2CC2039F280913B
:1033F0001B02803208F4B3CF2091160230911702DD
:103400003A8329831B82BD82AC828E83CE010196D2
:10341000A4CFA816B90698F1F501E81BF90BCF0166
:10342000F12C8639910508F049C0FC2CCC2009F418
:10343000A5CF3E1132C02D1130C080911B0280FDFE
:1034400023C0982F907F01F1D80115968C93159782
:10345000903F39F0982F907F905F8F70892B159651
:103460008C93C8010E94761786E0F801A6E1B2E0CD
:1034700001900D928A95E1F70E941918D4CE80959B
:1034800090958A0D9B1DCCCF86E0F801A6E1B2E0B5
:1034900001900D928A95E1F7C6CEDD86EE868D8588
:1034A0009E850E94B81781115ACF80911B028160BE
:1034B00080931B02C8010E947617B5CE7A2DB98A77
:1034C000A88A4D2D5E2D6C2D89890E94D91769CF50
:1034D000CC2009F453CFDD86EE868D859E850E9433
:1034E000B817F82E882309F449CF86E0F801A6E141
:1034F000B2E001900D928A95E1F786E192E00E9498
:10350000DF130E944718B8CF81E08C25CDCE81E033
:103510008C25AACE1F93CF93DF93CDB7DEB72C9720
:103520000FB6F894DEBF0FBECDBF4F8358876987B3
:103530007A878B879C87CE0107960E94AB188823D9
:1035400069F08A859B85892B39F04F815885842FB6
:1035500085238F3F09F071C016E05FC086E0FE0151
:103560003796DE01119601900D928A95E1F78A85D2
:103570009B85892B89F388859F8189238F3F61F300
:103580002091E50130E0C9010196877099274091AB
:10359000E4014817190671F40E94B4171092E5016E
:1035A0001092E40186E0E6E1F2E0DF011D928A95E7
:1035B000E9F7D2CF96E0929FD001939FB00D1124EE
:1035C000AA51BE4FFE01319601900D929A95E1F7F6
:1035D0008093E5010E94F817BFCF819FC00111249D
:1035E0008A519E4F0E94AB188823E9F0E091E401D4
:1035F0001E9FF0011124EA51FE4F408151816281EA
:103600007381848195810E94E8178091E40190E0A4
:103610000196877099278093E4018091E40190914D
:10362000E5018913DACF2C960FB6F894DEBF0FBEF2
:10363000CDBFDF91CF911F91089569857A858B85E4
:103640009C850E94E81788CFEF92FF920F931F93FB
:10365000CF93DF938C01892B81F0F12CEE24E3943E
:10366000E8012196F8018491843770F4843008F0E1
:103670005FC08130B1F08230A1F1DF91CF911F9115
:103680000F91FF90EF900895853709F44CC008F42E
:103690003DC09CE7980F903780F78F770E94BF144A
:1036A00049C00E5F1F4FFE01849190E2980F983041
:1036B00060F48770FE2D01C0FF0F8A95EAF78F2F07
:1036C0000E94941D0E943B1D02C00E94E4138F2D96
:1036D000815030F2EFE9FFE03197F1F700C00000D0
:1036E000F7CF0E5F1F4FFE01849190E2980F983044
:1036F00050F48770FE2D01C0FF0F8A95EAF78F2FD7
:103700000E949A1DDFCF0E94BF14E1CF0E5F1F4FB2
:10371000FE01C491C150D8F28FE99FE00197F1F703
:1037200000C00000F7CF0E5F1F4FFE01F490CFCF17
:103730000E94E4138E01CBCF08950E949C1B6093DE
:1037400020027093210280932202909323020C9412
:10375000A01708950C949D1B0F931F9300912002B6
:10376000109121022091220230912302602B712BB3
:10377000822B932B1F910F910C949D1B0F931F93E2
:103780000091200210912102209122023091230207
:1037900060237123822393231F910F910C949D1B0F
:1037A0000F931F9300912002109121022091220279
:1037B0003091230260277127822793271F910F9151
:1037C0000C949D1B0C949C1B0C94E21B0E94E41B0C
:1037D00060931C0270931D0280931E0290931F023F
:1037E0000C94A01760E070E0CB010C94E61B0F93E3
:1037F0001F9341E050E060E070E08A019B0104C04B
:10380000000F111F221F331F8A95D2F7C901B8017B
:103810001F910F910C94E61B0F931F9341E050E012
:1038200060E070E004C0440F551F661F771F8A9543
:10383000D2F780911C0290911D02A0911E02B091BE
:103840001F028A019B01082B192B2A2B3B2BC90134
:10385000B8011F910F910C94E61B0F931F9341E049
:1038600050E060E070E004C0440F551F661F771FF2
:103870008A95D2F7CB01BA016095709580959095A5
:1038800000911C0210911D0220911E0230911F0216
:1038900060237123822393231F910F910C94E61BC5
:1038A0000F931F9341E050E060E070E004C0440FCC
:1038B000551F661F771F8A95D2F780911C02909141
:1038C0001D02A0911E02B0911F028A019B010827D0
:1038D00019272A273B27C901B8011F910F910C9482
:1038E000E61B0F931F9300911C0210911D02209163
:1038F0001E0230911F02602B712B822B932B1F9184
:103900000F910C94E61B0F931F9300911C021091D2
:103910001D0220911E0230911F0260237123822319
:1039200093231F910F910C94E61B0F931F9300910B
:103930001C0210911D0220911E0230911F0260276F
:103940007127822793271F910F910C94E61B0895EE
:10395000BF92CF92DF92EF92FF920F931F93CF937C
:10396000DF938C01C0901C02D0901D02E0901E02DB
:10397000F0901F028091200290912102A0912202DA
:10398000B0912302C82AD92AEA2AFB2ACFE1D0E043
:10399000BC2ED701C6010C2E04C0B695A7959795ED
:1039A00087950A94D2F780FD0EC0219788F7B12C35
:1039B0008B2DDF91CF911F910F91FF90EF90DF90B2
:1039C000CF90BF900895B8018C2F0E946C0E019784
:1039D00061F3EECFCF93DF93EC010E94A81CBE01F0
:1039E000DF91CF910C946C0ECB010C94EA1C682FE4
:1039F00080915201909153010C94411E682F809147
:103A00005201909153010C94431E80915201909168
:103A100053010C94451E80912402859585958595CA
:103A20000895809124028770089598E0899F9001FD
:103A30001124622B609324020C940C1C909124029C
:103A40008095892380932402282F277061F4282FE2
:103A5000082E000C330B9217130629F085958595D7
:103A600085950C942D1C089590912402977081E007
:103A700009F480E00895E0915201F09153018091A2
:103A800030028083E0915201F09153018081909146
:103A90002F02892B8083E0915201F09153018081A4
:103AA00090912E02892B808390912502992381F099
:103AB000E0915201F09153018081892B80838091A4
:103AC0005201909153010E940D1E81111092250206
:103AD00080915201909153010C94561280913002C2
:103AE000089590913002892B80933002089580953B
:103AF00090913002982390933002089510923002F2
:103B0000089580912F02089590912F02892B809320
:103B10002F020895809590912F02982390932F0261
:103B2000089510922F02089590912E02892B809370
:103B30002E020895809590912E02982390932E0244
:103B4000089510922E0208958093250208951092F0
:103B50002502089580912502089590939501809300
:103B600094010895829590E09C01220F331F220F4B
:103B7000331F2C7C95958795959587958373282B76
:103B800030E0C901880F991F8A7A359527952575E8
:103B9000822B0895CF93DF93D92F0E94B21DC82F97
:103BA0008D2F0E94B21D9C2FDF91CF9108956DEE55
:103BB0007EEF90E080E00E94A92D60E082E090E03E
:103BC0000E94972D60E083E090E00E94972D60E0D6
:103BD00084E090E00E94972D60E085E090E00C94F6
:103BE000972D90E080E00E94912D21E08D3E9E4F28
:103BF00009F020E0822F089582E090E00C94892D56
:103C000083E090E00C94892D84E090E00C94892D61
:103C1000682F84E090E00C94972DFC0131969C0174
:103C2000285F3F4F80E0919191118F5FE217F3077A
:103C3000D1F708959C01FC0132969FEF80E04191FD
:103C4000461751F09F3F19F4411101C0982F8F5F23
:103C50008630A9F79F3F09F40895290F311D97FD7C
:103C60003A95F90162830895FC01329608962191F4
:103C7000261303C0DF0111971C92E817F907B9F763
:103C800008950C941A1E0C94341EFC0111821282A9
:103C90001382148215821682178208958091590228
:103CA000843039F11092320288E190E020E40FB6BE
:103CB000F894A895809360000FBE2093600080E088
:103CC0000E944D0E83B7817F846083BF83B781607C
:103CD00083BF7894889583B78E7F83BF0FB6F8949F
:103CE000A8958091600088618093600010926000C8
:103CF0000FBE089508950895CF930E947A1E0E94E2
:103D0000AF090E947B1EC0E08C2F0E94EF09811139
:103D100005C0CF5FCC30C1F7CF91089581E0FCCFD3
:103D20000E94B4170E944A120C944D0E1F921FB6A7
:103D30001F9211248F939F93AF93BF938091320270
:103D4000811113C080914F0290915002A0915102B5
:103D5000B09152024196A11DB11D80934F029093E4
:103D60005002A0935102B0935202BF91AF919F9124
:103D70008F911F901FBE1F90189582E084BD93E025
:103D800095BD9AEF97BD80936E0008952FB7F89474
:103D900080914F0290915002A0915102B091520235
:103DA0002FBF08952FB7F89460914F027091500281
:103DB00080915102909152022FBF0895CF92DF92CD
:103DC000EF92FF920F931F932FB7F89440914F02F9
:103DD0005091500260915102709152022FBF6A01BE
:103DE0007B01EE24FF248C0130E020E0C016D106D8
:103DF000E206F30650F0481B590BCA011F910F91C0
:103E0000FF90EF90DF90CF90089541505109F3CF8C
:103E100078941F921FB61F9211248F939F93AF9394
:103E2000BF9380914F0290915002A0915102B091A6
:103E300052020196A11DB11D80934F029093500232
:103E4000A0935102B0935202BF91AF919F918F9175
:103E50001F901FBE1F90189587E797E79093010862
:103E60008093000888E19AE00FB6F894A8958093B3
:103E700060000FBE90936000FFCF0E94F11D811182
:103E800002C00E94D71D0E94FC1D809331020E9437
:103E9000041E90E090935402809353020E94001EEF
:103EA000682F70E090E080E00C94AA1B80913602AD
:103EB00080FF12C06091570185E0689FB001112416
:103EC000759567957595679560387105A8F56115C5
:103ED0007105A1F1862F089581FF09C060915701F6
:103EE00085E0689FB001112475956795EDCF6091CD
:103EF000570182FD0AC0809137028823D1F090914A
:103F0000560160915701891728F085E0689FB0013C
:103F10001124DACF869FB001112485E0869F90019D
:103F2000879F300D1124692F70E0C9010E945B2D1D
:103F3000CBCF65E070E0CECF8FE7089581E00895A4
:103F40008091360280FF0CC06091550170E075953C
:103F50006795759567956115710549F1862F0895E7
:103F600081FF06C06091550170E075956795F3CFAC
:103F70006091550182FD0BC0909137029923A1F009
:103F80006091540180915501961738F0682F70E0C8
:103F90006038710500F38FE70895899FC0011124EF
:103FA00070E00E945B2DF4CF61E070E0D7CF81E03C
:103FB0000895803F31F40E94561F819580933A0204
:103FC0000895813F19F40E94561FF8CF823F31F4C3
:103FD0000E94561F8195809339020895833F19F4FA
:103FE0000E94561FF8CF893F29F40E94A01F80939A
:103FF0003B0208958A3F21F40E94A01F8195F7CFCC
:104000008B3F31F40E94A01F819580933C0208955C
:104010008C3F19F40E94A01FF8CF843F31F48091A7
:1040200038028160809338020895853F21F48091A1
:1040300038028260F7CF863F21F480913802846095
:10404000F1CF873F21F4809138028860EBCF883F21
:1040500021F4809138028061E5CF8D3F31F4809169
:10406000360281608093360208958E3F21F480915C
:1040700036028260F7CF8F3FB9F7809136028460B5
:10408000F1CF90913902803F41F480913A0287FD4F
:1040900010923A02992371F00895813F29F480919A
:1040A0003A021816ACF3F6CF823F81F497FFF2CFB5
:1040B0001092390280913A0290913B02892B9091A3
:1040C0003C02892B49F7109237020895833F19F477
:1040D000191674F3DFCF893F39F480913B0218162B
:1040E000CCF610923B02D6CF8A3F29F480913B0256
:1040F00087FFD0CFF6CF8B3F39F480913C0287FF0A
:10410000C9CF10923C02C6CF8C3F29F480913C026B
:104110001816BCF3BFCF843F31F4809138028E7FF4
:1041200080933802B7CF853F21F4809138028D7F8C
:10413000F7CF863F21F4809138028B7FF1CF873F04
:1041400021F480913802877FEBCF883F21F4809162
:1041500038028F7EE5CF8D3F31F4809136028E7F1D
:104160008093360297CF8E3F21F4809136028D7F67
:10417000F7CF8F3F09F08ECF809136028B7FF0CF43
:104180008091310283FF7EC086E496E00E94D107D1
:10419000809138021F928F9381E496E09F938F93D2
:1041A0000E946A088FE396E00E94D107809139024D
:1041B000282F082E000C330B3F938F938CE396E04F
:1041C0009F938F930E946A088AE396E00E94D1072A
:1041D00080913A02282F082E000C330B3F938F93C7
:1041E00087E396E09F938F930E946A0885E396E0A9
:1041F0000E94D10780913B02282F082E000C330B20
:104200003F938F9382E396E09F938F930E946A0877
:1042100080E396E00E94D10780913C02282F082E6F
:10422000000C330B3F938F938DE296E09F938F9317
:104230000E946A088AE296E00E94D10780913702C4
:104240001F928F9387E296E09F938F930E946A0854
:1042500085E296E00E94D107809136021F928F93EB
:1042600082E296E09F938F930E946A088FE196E026
:104270000E94D1078DB79EB74C960FB6F8949EBF9B
:104280000FBE8DBF88E392E00E94A2120E94C61E5C
:10429000909334028093330208951F93CF93DF935A
:1042A00080913302909134020E94DE1EAC01909105
:1042B00037022091580130E0911106C0209135025B
:1042C0008AE0289F900111244217530778F020912B
:1042D0003902C0913A02D0913B0210913C02211167
:1042E00009C08C2F8D2B812B09F05DC0DF91CF9100
:1042F0001F9108959F3F19F09F5F90933702121608
:1043000024F40E94561F809339028091390287FF5E
:1043100005C00E94561F8195809339021C1624F413
:104320000E94561F80933A0280913A0287FF05C08F
:104330000E94561F819580933A024091390244238E
:1043400079F030913A02332359F025EB4203A00172
:1043500011245093390232039001112430933A0210
:104360001D1624F40E94A01F80933B0280913B0203
:1043700087FF05C00E94A01F819580933B02111604
:1043800024F40E94A01F80933C0280913C0287FF8E
:1043900005C00E94A01F819580933C02DF91CF91C0
:1043A0001F910C94C0209F3F09F0A6CFB7CF85E0A6
:1043B000E8E3F2E0DF011D928A95E9F710923702F7
:1043C00010923602089589E698E00E94D1071F9264
:1043D00081E08F931F9285E08F938BE198E09F930C
:1043E0008F930E946A080F900F900F900F900F907C
:1043F0000F900895833009F445C028F4813061F0AE
:10440000823049F10895853009F46AC008F451C03A
:10441000863009F47CC0089580913502482F460FFC
:104420005527551F4F3F510594F4680F609335028F
:10443000809135021F928F9384E597E09F938F932D
:104440000E946A080F900F900F900F9008958FEFC1
:1044500080933502EDCF80915801482F460F5527A4
:10446000551F4F3F510554F4680F609358018091D8
:1044700058011F928F9382E497E0E0CF8FEF8093F3
:104480005801F5CF80915701482F460F5527551FEA
:104490004F3F510554F4680F6093570180915701C5
:1044A0001F928F938FE297E0C9CF8FEF80935701D0
:1044B000F5CF80915601482F460F5527551F4F3F86
:1044C000510554F4680F60935601809156011F9274
:1044D0008F938AE197E0B2CF8FEF80935601F5CFAB
:1044E00080915501482F460F5527551F4F3F5105C5
:1044F00054F4680F60935501809155011F928F937A
:1045000081E097E09BCF8FEF80935501F5CF8091AD
:104510005401482F460F5527551F4F3F510554F45E
:10452000680F60935401809154011F928F9386EE1F
:1045300096E084CF8FEF80935401F5CF8330C9F19B
:1045400028F4813061F0823019F10895853009F442
:1045500052C008F43FC0863009F45EC008958091CF
:104560003502681790F4861B8093350280913502DE
:104570001F928F9387ED96E09F938F930E946A0816
:104580000F900F900F900F90089510923502EECF7C
:1045900080915801681750F4861B809358018091D0
:1045A00058011F928F9385EC96E0E6CF1092580148
:1045B000F6CF80915701681750F4861B80935701FE
:1045C000809157011F928F9382EB96E0D5CF109286
:1045D0005701F6CF80915601681750F4861B8093DF
:1045E0005601809156011F928F938DE996E0C4CFBA
:1045F00010925601F6CF80915501681750F4861B32
:1046000080935501809155011F928F9384E896E025
:10461000B3CF10925501F6CF80915401681750F432
:10462000861B80935401809154011F928F9389E6D9
:1046300096E0A2CF10925401F6CFCF93C82F1F92CD
:104640008F938EE699E09F938F930E946A0861E0B2
:1046500070E080E090E004C0660F771F881F991F0C
:10466000CA95D2F70E94AA1B0F900F900F900F903F
:10467000CF910C94B417873208F040C08E3108F007
:10468000F9C08E3009F495C078F4873009F477C00A
:104690008B3009F45EC0863009F460C083EA9CE088
:1046A0000E94D10780E00895863109F4ACC078F407
:1046B0008031A1F790913102892F877F93FF886025
:1046C0008093310283FF85C082EB9CE011C0893169
:1046D00009F482C08B3111F790913102892F8D7FBF
:1046E00091FF82608093310281FF60C08BEE9CE07D
:1046F0000E94D10780913102816055C0883349F111
:1047000050F4893221F0853311F0873239F680E098
:104710000E941D231CC08334D1F328F48A3308F48B
:10472000BDCF8953F5CF883409F0B8CF0E94B417B4
:1047300081E19DE00E94D1072FEF83ED90E32150AE
:1047400080409040E1F700C000000E942C1F81E0F3
:10475000089587E19BE00E94D107F9CF8091310253
:10476000807F8093310280EF9AE00E94D1078DE232
:104770009DE00E94D10781E080933E0208959091D0
:104780003102892F8E7F90FF81608093310280FFFC
:1047900003C085E09DE0DFCF88EF9CE00E94D10759
:1047A00080913102817F80933102D1CF8DED9CE0E9
:1047B000D2CF90913102892F8B7F92FF84608093BA
:1047C000310282FF03C08EEC9CE092CF8EEB9CE026
:1047D000C2CF85EA9CE0BFCF81EE9AE00E94D1076C
:1047E00084EA9AE00E94D1078BE69AE00E94D10702
:1047F0008DE39AE00E94D10787E09AE00E94D107FA
:104800008CED99E0A8CF8EEC99E00E94D1070E9430
:104810004A121F928F9384EB99E09F938F930E948B
:104820006A08809163011F928F938DE999E09F93AD
:104830008F930E946A0880914B021F928F938AE89F
:1048400099E09F938F930E946A080E94D21E9F93C3
:104850008F937F936F9383E799E09F938F930E9449
:104860006A088DB79EB742960FB6F8949EBF0FBEEA
:104870008DBF6DCF8D514CCF80E008950C943C24BA
:104880008E518A3030F4E82FF0E0EA58FE4F8081F4
:10489000089580E00895CF93C82F80913E02813023
:1048A000D9F0882339F0823009F44DC010923E02CD
:1048B00080E010C0E0915201F0915301808182327A
:1048C000B9F78C2F0E943C2481111EC08C2F0E94AE
:1048D0003B238170CF910895E0915201F0915301F3
:1048E0008081823271F38C2F0E943E2481111BC083
:1048F000C431D9F060F4CB3071F0C031D1F084E62E
:1049000099E00E94D10713C081E090E0E2CFC93264
:1049100061F0C833A1F780EF9AE00E94D1078AE6E0
:1049200099E00E94D10781E0D4CF10923E0280E04E
:10493000D0CF0E94E32186E699E00E94D10782E071
:1049400080933E02F0CFC432C8F4CE3108F0BEC02E
:10495000CB30E1F040F4C73009F4CCC088E098E0F7
:104960000E94D10726C0C331C1F1C431B9F780918B
:104970003D02882351F110923D020AC0CB3409F464
:10498000B7C0C8F4C93299F3C83341F70E94E32194
:1049900080913D02882309F4C2C01F928F9382E068
:1049A00098E09F938F930E946A080F900F900F904A
:1049B0000F9081E08FCFC13509F494C0C23509F45E
:1049C0008BC0CE3459F66AE08EC087E198E00E9431
:1049D000D10781E080933E027DCF81EF97E00E9476
:1049E000D1078FED97E00E94D107809135021F9289
:1049F0008F938CED97E09F938F930E946A088AEDC6
:104A000097E00E94D10788EC97E00E94D10780913F
:104A100058011F928F9385EC97E09F938F930E948C
:104A20006A0883EC97E00E94D10784EB97E00E942C
:104A3000D107809157011F928F9381EB97E09F934D
:104A40008F930E946A088FEA97E00E94D1078EE94F
:104A500097E00E94D107809156011F928F938BE9B6
:104A600097E09F938F930E946A0889E997E00E94DC
:104A7000D10784E897E00E94D107809155011F92E9
:104A80008F9381E897E09F938F930E946A088FE746
:104A900097E00E94D10788E697E00E94D1078091B5
:104AA00054011F928F9385E697E09F938F930E9406
:104AB0006A0883E697E00E94D1078DB79EB74896B3
:104AC0000FB6F8949EBF0FBE8DBF62CF8C2F0E9491
:104AD000402480933D025CCF61E080913D020E94C2
:104AE000FA2156CF61E080913D020E949E2250CF74
:104AF0006AE0F3CF1092350280E180935801C093B1
:104B000057018CE38093560188E08093550188E239
:104B1000809354018AE098E00E94D10739CF8FEF4B
:104B200097E01ECF80914A0208959FB7F8941092A3
:104B300041029FBF90915902943009F048C02091E2
:104B4000E9002F703091EC00932F917030FD90E8C8
:104B5000922B24E02093E9002091EB0020FF34C049
:104B60002091EE0027FF30C020913F02222321F048
:104B70002091E80025FF28C010923F0226E03091E6
:104B8000E80035FF14C08093F1008091E80085FDB6
:104B900027C08091E80080FFFCCF8091E8008E77ED
:104BA0008093E8009F709093E90080E00895309131
:104BB0005902343049F43091EB0035FD05C02150E5
:104BC00041F481E080933F029F709093E9008FEF62
:104BD0000895EFE9FFE03197F1F700C00000CFCF73
:104BE0008FB7F89421E0209341028FBFDBCF0F9362
:104BF0001F93CF93DF9300D00F92CDB7DEB78C0118
:104C00000E94A228823011F0843019F583E0898354
:104C10001B830A838093E9008FEF9091E800815015
:104C200095FD06C095ED9A95F1F700008111F5CF3D
:104C30008091E80085FF0DC050E040E063E070E047
:104C4000CE0101960E94BF288091E8008E77809364
:104C5000E8000F900F900F90DF91CF911F910F916F
:104C60000895CF93DF9300D00F92CDB7DEB7209198
:104C70005902243031F522E02983805891099B8321
:104C80008A8383E08093E9008FEF9091E800815060
:104C900095FD06C095ED9A95F1F700008111F5CFCD
:104CA0008091E80085FF0DC050E040E063E070E0D7
:104CB000CE0101960E94BF288091E8008E778093F4
:104CC000E8000F900F900F90DF91CF910895CF9350
:104CD000DF93EC010E94A228823011F08430F9F4B5
:104CE00082E08093E9008FEF9091E800815095FD7C
:104CF00006C095ED9A95F1F700008111F5CF8091EE
:104D0000E80085FF0CC050E040E065E070E0CE01B7
:104D10000E94BF288091E8008E778093E800DF91A1
:104D2000CF910895CF93DF93EC010E94A2288230A7
:104D300011F0843039F581E08093E9008FEF909194
:104D4000E800815095FD06C095ED9A95F1F70000B9
:104D50008111F5CF8091E80085FF14C050E040E05C
:104D600068E070E0CE010E94BF288091E8008E7755
:104D70008093E80088E0FE01A2E4B2E001900D9289
:104D80008A95E1F7DF91CF91089586E59DE00E9435
:104D9000D10780915802811109C00E944F2A0E94B8
:104DA000AC2A8091E20084608093E200089582E55D
:104DB0009DE00E94D1071092580208958EE49DE074
:104DC0000C94D1078AE49DE00C94D10786E49DE021
:104DD0000E94D1070C94901E209140022F5F822FD9
:104DE00062E30E944F2D992319F020934002089509
:104DF00010924002809141028823F1F08091590283
:104E00008430C1F49091E9009F702091EC00822FD2
:104E1000817020FD80E8892B94E09093E9009091C7
:104E2000EB0090FF04C09091EE0097FD08C08F70DA
:104E30008093E9001092410208951092F100909140
:104E4000E80095FDFACF9091E80090FFF0CF9091A7
:104E5000E8009E779093E800EACF42E061EC81E0C1
:104E60000E94CB2942E061EC82E00E94CB2942E023
:104E700061EC83E00E94CB2942E261EC84E00C9477
:104E8000CB2980915B02833009F452C030F4813029
:104E900059F1823009F48EC008958A3009F47AC03D
:104EA0008B3009F460C0893009F041C080915A020A
:104EB0008132E9F580915E0290915F02892BB9F50C
:104EC0008091E800877F8093E8008091E80082FF6E
:104ED0002AC08091F10080934A028091E8008B778C
:104EE0008093E8000C94FF2980915A02813AF9F4EA
:104EF0008091E800877F8093E80080915E02909126
:104F00005F02892B61F468E082E492E070E00E9425
:104F10000E298091E8008B778093E800089560E087
:104F200090E080E0F3CF809159028111CECF0895B7
:104F300080915A02813AD9F780915E0290915F0286
:104F4000892BA9F78091E800877F8093E800809102
:104F5000E80080FFFCCF809163018093F100809195
:104F6000E8008E77BDCF80915A02813201F780919F
:104F70005E0290915F02892BD1F68091E800877FD5
:104F80008093E8000E94FF2980915C028093630176
:104F90000C94B41780915A02813249F68091E8004E
:104FA000877F8093E8000E94FF2980915D028093B3
:104FB0004B02089580915A02813A09F0B8CF80914E
:104FC000E800877F8093E8008091E80080FFFCCFB5
:104FD00080914B02C2CF84B7877F84BF0FB6F8940D
:104FE000A8958091600088618093600010926000B5
:104FF0000FBE80E880936100109261000E94D91278
:105000000E944F2A0E94AC2A8091E2008460809323
:10501000E20085E995E20E94AD1D78940E94342D4E
:105020000E94DD1289E591E00E94451285E39DE032
:105030000E94D10780915902853019F00E940B130C
:10504000F9CF81E39DE00E94D1070E944E1E80911E
:105050005702882379F30E947C1E882359F30E940B
:10506000A928E8CF0C943428292F33272330310581
:1050700021F168F42130310509F449C022303105AD
:1050800009F44AC090E080E030E020E029C02132FD
:10509000310581F122323105A9F76430710590F7AD
:1050A000FB01EE0FFF1FEC57FE4F2081318160584E
:1050B0007E4FFB01808190E013C0992781309105DC
:1050C00099F0009741F08230910589F00397D1F66D
:1050D000EAE5FDE002C0E8E8FDE0849190E09F0190
:1050E000FA01318320830895E0E7FDE0F6CFE0E6A2
:1050F000FDE0F3CF6430710528F6660F771FFB01E2
:10510000E457FE4F2081318189E090E0E9CF82E1D0
:1051100090E020E03EE0E4CF84E790E02CE83DE042
:10512000DFCF0895CF93C82F0E949128C0934C02DF
:10513000CF91089580915902843011F482E008954E
:1051400081E0089580914C02811102C00C949A284C
:10515000089580E189BD82E189BD09B400FEFDCFDB
:105160008091D8008F7D8093D8008091E00082608C
:105170008093E0008091E00081FDFCCF0895AF9224
:10518000BF92CF92DF92FF920F931F93CF93DF9343
:105190006C01EB018A010E941E2AF82E811123C0A6
:1051A0000115110539F0F80180819181C81BD90BD7
:1051B000C80ED91EB12CA12C2097A9F08091E8002F
:1051C00085FD22C08091E8008E778093E80001156C
:1051D0001105A1F0F80180819181A80EB91EB1825C
:1051E000A08285E0F82E8F2DDF91CF911F910F9136
:1051F000FF90DF90CF90BF90AF9008950E941E2A3D
:105200008823D1F2F82EEFCFF60181916F018093C0
:10521000F1002197FFEFAF1ABF0ACECFFC018091BA
:1052200060029091610286179707A0F061157105E1
:1052300029F49091E8009E779093E80090E0611542
:10524000710551F4911108C08091E80082FF34C0CB
:1052500080E00895BC01F2CF809159028823C1F10A
:105260008530C1F18091E80083FD30C08091E80075
:1052700082FDEACF8091E80080FFE1CF8091F300CA
:105280002091F200382F6115710519F02830310591
:1052900058F091E02830310509F090E02091E800C5
:1052A0002E772093E800CBCF81918093F10061505D
:1052B00071092F5F3F4FE7CF80915902882341F05A
:1052C000853041F08091E80083FFBECF81E00895F2
:1052D00082E0089583E00895FC018091600290913E
:1052E000610286179707A0F06115710529F4809176
:1052F000E8008E778093E80090E06115710551F425
:10530000911108C08091E80082FF35C080E00895C7
:10531000BC01F2CF809159028823C9F18530C9F1CF
:105320008091E80083FD31C08091E80082FDEACFE2
:105330008091E80080FFE1CF8091F3002091F2009E
:10534000382F6115710519F02830310558F091E0BA
:105350002830310509F090E08091E8008E77809345
:10536000E800CBCF84918093F100319661507109B0
:105370002F5F3F4FE6CF80915902882341F085305F
:1053800041F08091E80083FFBDCF81E0089582E085
:10539000089583E00895982F973028F08F708093B8
:1053A000E90081E008959093E900242F762F50E0E2
:1053B000981731F07091EC002091ED005091F000C1
:1053C00021FD02C09F5FE8CF3091EB003E7F30931C
:1053D000EB003091ED003D7F3093ED003091EB001C
:1053E00031603093EB007093EC002093ED0050930C
:1053F000F0002091EE0027FDE5CF80E00895809138
:105400005A0287FF13C08091E80082FF06C0809196
:10541000E8008B778093E80004C0809159028111E5
:10542000F2CF0895809159028823D9F38091E80042
:1054300080FFF8CF8091E8008E77ECCF2091E400D8
:105440003091E50095E6A9012091EC00822F817052
:1054500020FF06C08091E80080FF06C080E008952C
:105460002091E80022FD1AC080915902882389F01A
:10547000853089F08091EB0085FD0FC02091E4001C
:105480003091E50042175307F9F29150E1F684E0BC
:10549000089582E0089583E0089581E008950E94D0
:1054A000BD2A0E94C52AE0EEF0E080818160808301
:1054B000E8EDF0E080818F77808319BCA7EDB0E044
:1054C0008C918E7F8C9380818F7E80831092580286
:1054D00008950F931F93CF93DF930E94BD2A0E94DC
:1054E000C52AC8EDD0E088818F778883888180685D
:1054F000888388818F7D888319BC1092590210920D
:105500005502109257021092560200EE10E0F80178
:1055100080818B7F808388818160888342E060E026
:1055200080E00E94CB29E1EEF0E080818E7F8083D5
:10553000E2EEF0E0808181608083808188608083FA
:10554000F80180818E7F8083888180618883DF91EC
:10555000CF911F910F910895E8EDF0E080818F7E4B
:105560008083E7EDF0E080818160808384E082BF0A
:1055700081E0809358020C94692AE8EDF0E0808184
:105580008E7F80831092E20008951092DA001092CC
:10559000E10008951F920F920FB60F9211242F93DE
:1055A0003F934F935F936F937F938F939F93AF93AB
:1055B000BF93EF93FF938091E10082FF0BC0809136
:1055C000E20082FF07C08091E1008B7F8093E100C1
:1055D0000E94EC268091DA0080FF19C08091D800EB
:1055E00080FF15C08091DA008E7F8093DA00809171
:1055F000D90080FF96C080E189BD82E189BD09B4F0
:1056000000FEFDCF81E0809359020E94C526809163
:10561000E10080FF19C08091E20080FF15C08091F9
:10562000E2008E7F8093E2008091E20080618093AF
:10563000E2008091D80080628093D80019BC85E098
:10564000809359020E94E2268091E10084FF2BC0E2
:105650008091E20084FF27C080E189BD82E189BD9D
:1056600089B5982F917080FFFBCF8091D8008F7DF6
:105670008093D8008091E1008F7E8093E10080913B
:10568000E2008F7E8093E2008091E200816080934F
:10569000E20080915502882309F449C084E0809398
:1056A00059020E94E6268091E10083FF29C0809183
:1056B000E20083FF25C08091E100877F8093E100B5
:1056C00082E080935902109255028091E1008E7F12
:1056D0008093E1008091E2008E7F8093E2008091D0
:1056E000E20080618093E20042E060E080E00E949E
:1056F000CB298091F00088608093F0000E94DE2624
:10570000FF91EF91BF91AF919F918F917F916F9199
:105710005F914F913F912F910F900FBE0F901F906F
:10572000189519BC109259020E94D72670CF80910B
:10573000E30087FD93E090935902B3CF1F920F923D
:105740000FB60F9211242F933F934F935F936F9354
:105750007F938F939F93AF93BF93CF93DF93EF93F9
:10576000FF93D091E900DF708091EC00C82FC170E9
:1057700080FDC0E81092E9008091F000877F80935F
:10578000F00078940E94E22B1092E9008091F000E2
:1057900088608093F000CD2BCF70C093E900FF911B
:1057A000EF91DF91CF91BF91AF919F918F917F91B9
:1057B0006F915F914F913F912F910F900FBE0F907E
:1057C0001F9018951F93CF93DF93CDB7DEB7AA979D
:1057D0000FB6F894DEBF0FBECDBF8AE592E02091F0
:1057E000F100FC012193CF01F2E082369F07B9F767
:1057F0000E9441278091E80083FF1EC180915A02D8
:1058000090915B029A3008F017C1E92FF0E0EA5E50
:10581000F14D0C946F2D803899F0823809F00CC14D
:1058200080915E028F70873008F006C18093E90096
:105830008091EB0085FB882780F91092E90006C073
:105840008091560290915702911182609091E800E8
:10585000977F9093E8008093F1001092F10080917F
:10586000E8008E77E5C0882309F4D3C0823009F0C0
:10587000E3C080915C028111D6C080915E028F707E
:105880002FEF280F263008F0D7C08093E900209131
:10589000EB0020FFC8C0933031F48091EB008062B0
:1058A0008093EB00C0C09091EB0090619093EB006F
:1058B00021E030E001C0220F8A95EAF72093EA0048
:1058C0001092EA008091EB008860EACF8111B4C0A9
:1058D00010915C021F778091E3008078812B809388
:1058E000E3008091E800877F8093E8000E94FF2911
:1058F0008091E80080FFFCCF8091E3008068809376
:10590000E30082E0111183E08093590295C0805832
:10591000823008F091C080915C0290915D028C3DD4
:1059200023E09207A1F583E08A838AE289834FB757
:10593000F894DE01139620E03EE051E2E32FF0E020
:1059400050935700E49120FF03C0E295EF703F5F52
:10595000EF708E2F90E0EA30C0F0C7968D939D9344
:105960002F5F243159F74FBF8091E800877F8093E4
:10597000E8006AE270E0CE0101960E940E29809153
:10598000E8008B778093E80057C0C096E7CF60911E
:105990005E0270915F02AE014F5F5F4F0E9432283E
:1059A000BC01892B09F448C09091E800977F90933F
:1059B000E80089819A810E946C29E1CF8038E1F565
:1059C0008091E800877F8093E80080915502809362
:1059D000F10045CF811130C090915C02923060F5AA
:1059E0008091E800877F8093E800909355020E94A1
:1059F000FF2980915502882311F084E005C0809131
:105A0000E30087FDFACF81E0809359020E942D27A1
:105A100013C080915C02813079F481E0933009F009
:105A200080E0809357021092E9008091E800877F20
:105A30008093E8000E94FF298091E80083FF0AC05C
:105A40008091E800877F8093E8008091EB0080627E
:105A50008093EB00AA960FB6F894DEBF0FBECDBFC1
:105A6000DF91CF911F910895CF93809159028823A0
:105A7000A1F0C091E900CF709091EC00892F817066
:105A800090FD80E8C82B1092E9008091E80083FD2A
:105A90000E94E22BCF70C093E900CF910895991B2B
:105AA00079E004C0991F961708F0961B881F7A9515
:105AB000C9F78095089597FB072E16F4009407D038
:105AC00077FD09D00E94752D07FC05D03EF4909516
:105AD00081959F4F0895709561957F4F0895EE0FC2
