:100000000C94DE080C94310B0C9425090C942509F2
:100010000C9425090C9425090C9425090C942509A8
:100020000C9425090C9425090C94492F0C941D302F
:100030000C941B260C9425090C9425090C94250975
:100040000C9425090C9425090C9425090C94250978
:100050000C9425090C9481260C9425090C942509EF
:100060000C9425090C9425090C9425090C94250958
:100070000C9425090C9425090C9425090C94250948
:100080000C9425090C9425090C9425090C94250938
:100090000C9425090C9425090C9425090C94250928
:1000A0000C9425090C9425090C9425090763423604
:1000B000B79BD8A71A39685618AEBAAB558C1D3CF9
:1000C000B7CC5763BD6DEDFD753EF6177231BF00BD
:1000D0000000803F05A84CCDB2D44EB93836A902F5
:1000E0000C50B9918688083CA6AAAA2ABE00000036
:1000F000803F01E301E0014F024F02E002E3000113
:10010000E301E00150025002E002E30001E30115C7
:10011000021574FF02E374FF0106020601100210CB
:10012000010702070128022874FF01130213010CC2
:10013000020C01110211010A020A012C022C01E039
:100140000119021902E00001E30115021502E301A1
:100150000602060110021001070207012802287496
:10016000FF74FF010C020C011302130106020601C9
:100170001202120111021101090209010C020C0103
:100180000A020A012C022C0138023801040204017F
:100190000F020F010F020F012802280001E30115D1
:1001A000021574FF02E374FF01060206011002103B
:1001B00001070207012802280001E00104020401EE
:1001C00006020602E00001E00119021902E0000146
:1001D000E00106020602E000757365726E616D65EE
:1001E000012B70617373012B012800750A012B022A
:1001F0002B010C020C01110211012B022B01280210
:1002000028012B022B012B022B012B022B010C02AC
:100210000C01110211012B022B0128022800750A82
:10022000012B022B0112021201170217012B022BC4
:1002300001280228012B022B012B022B012B022B60
:10024000011D021D01150215012B022B0128022898
:1002500000750A012B022B01120212011302130175
:100260002B022B01280228012B022B012B022B0130
:100270002B022B011D021D01150215012B022B0162
:10028000280228006970636F6E666967202F616CB1
:100290006C0000750A0127022701060206012B02E5
:1002A0002B012B022B01040204012B022B00011B4A
:1002B000021B00750A01E00117021701190219015A
:1002C00028022802E0007777772E737570706F72BE
:1002D000742E7865726F782E636F6D012800656DDE
:1002E00061696C00750A010402040107020701102C
:1002F0000210010C020C01110211744B012B022B94
:10030000011E021E011E021E011E021E011E021EF1
:10031000012802280001E3012B022B02E3002E003A
:100320001E001F002000210022002B0014001A00D4
:100330000800150017002800040016000700090037
:100340000A00E1001D001B000600190005002961DC
:10035000E200E30050004F000100DD5CE0004E00D1
:100360004B0000000000E1002A0000000000000037
:1003700000002D0027002600250024002300310066
:10038000130012000C0018001C00280033000F009E
:100390000E000D000B00350038003700360010004D
:1003A00011003400510052004F0050000100DE5C8B
:1003B0004C004A0035000000000028002C0000001E
:1003C0000000000000002E001E001F002000210081
:1003D00022002B4514001A00090013000A002840CF
:1003E00004001500160017000700E1001D001B00A7
:1003F0000600190005002961E200E30050004F00EB
:100400002A00DD5CE0004E004B0000000000E1002F
:100410002A0000000000000000002D002700260038
:10042000250024002300310033001C0018000F00B9
:100430000D00280012000C00080011000B00350010
:1004400038003700360010000E0034005100520012
:100450004F0050002C00DE5C4C004A0035000000CC
:10046000000028002C0000000000000000002E000A
:100470001E001F002000210022002B003400360047
:10048000370013001C002961040012000800180046
:100490000C00E100330014000D000E001B002B4582
:1004A000E000E200E300DD5C2C00DD5CE0004E00DB
:1004B0004B0000000000E1002A00000000000000E6
:1004C00000002D00270026002500240023002D0019
:1004D0000F00150006000A00090038001600110080
:1004E00017000B00070028401D0019001A0010001B
:1004F00005004F0052005100500052002A00DE5CFF
:100500004C004A0035000000000028002C000000CC
:1005100000000000000001003A003B003C003D00EC
:100520003E0001001E021F022F02300231020100B4
:1005300020022102260227023500010022022302A6
:100540002F0030003502005C0100010001000100B5
:100550000100DD5CE0004E004B0000000000E10007
:100560002A00000000000000000044004300420098
:10057000410040003F0045002502260025002400E0
:10058000520001002E022300220021005100010030
:10059000310020001F001E00240201002E00270051
:1005A000370001000100DE5C4C004A00350000000D
:1005B000000028002C0000000000000000003500B2
:1005C0001E001F0020002100220025001E00033015
:1005D0001E001E001E0025001E001E001E001E0024
:1005E000C15C25001E001E001E001E00C05C005CD9
:1005F0001E001E001E001E000100DD5CE0004E001B
:100600004B0000000000E1002A0000000000000094
:1006100000002D00270026002500240023000000F4
:100620005600230022002100000000005700200097
:100630001F001E00000000000000370027002700F8
:10064000C05C005C00000000550054000000DE5C4F
:100650004C004A0035000000000028002C0000007B
:10066000000000000000000000000000000000008A
:10067000000000000000000000000000000000007A
:10068000000000000000000000000000000000006A
:10069000000000000000000000000000000000005A
:100D90000000000000000000000000000000DB5C1C
:100DA000C05CC15CC25CC45CC35CCB5CCC5CCD5C35
:100DB000CE5C01000100CF5CD05CD15CD25C010054
:100DC00001000100010001000100010001001E00FE
:100DD0001F002000210001000100010001000100AE
:100DE0000100000000000100010000000000000000
:100DF000000001000100C75CC85CC55CC65C010066
:100E000001000100010001000100010001000100DA
:100E100001000100010001000100010001000100CA
:100E20000100010001002500240023002200010030
:100E300001000100010000000000010001000000AD
:100E400000000000000000000000000000002A2B4D
:100E5000280000000000000000000000000000006A
:100E60000029000000002C1E3420212224342627D3
:100E7000252E362D3738271E1F20212223242526F4
:100E80003333362E37381F0405060708090A0B0CC2
:100E90000D0E0F101112131415161718191A1B1C0A
:100EA0001D2F3130232D350405060708090A0B0CC8
:100EB0000D0E0F101112131415161718191A1B1CEA
:100EC0001D2F3130354C00000000000000000000F4
:100ED0000000000000000000000000000000000012
:100EE00000000000000000010101010101000101FA
:100EF00001010000000000000000000000000000F0
:100F000001000100010101010101010101010101D3
:100F100001010101010101010101010101010101C1
:100F200001000000010100000000000000000000BE
:100F300000000000000000000000000000000000B1
:100F40000001010101006801F000B40078005A00BE
:100F50007F3F1F643214643214783C1E1E140A054D
:100F60000000000000010101010101010101020274
:100F70000202020202020203030303030303030447
:100F8000040404040405050505050606060606070F
:100F9000070707080808080909090A0A0A0A0B0BC3
:100FA0000B0C0C0C0D0D0D0E0E0F0F0F1010111160
:100FB00011121213131414151516161717181819E1
:100FC000191A1A1B1C1C1D1D1E1F1F202021222246
:100FD0002324252526272728292A2B2B2C2D2E2F85
:100FE0002F30313233343536363738393A3B3C3DA1
:100FF0003E3F4041424344464748494A4B4C4D4F8F
:1010000050515253555657585A5B5C5E5F6062634D
:10101000646667696A6C6D6E707173747678797BDB
:101020007C7E8081838486888A8B8D8F9192949632
:10103000989A9B9D9FA1A3A5A7A9ABADAFB1B3B54E
:10104000B7B9BBBDBFC1C4C6C8CACCCFD1D3D6D82F
:10105000DADCDFE1E4E6E8EBEDF0F2F5F7FAFCFFCD
:101060000403300000000E034400610063007400BC
:1010700079006C0000001603430048002000620065
:101080006F0078004D006F006400730000000403DF
:10109000090409025400030100A0FA090400000138
:1010A000030101000921110100012240000705810F
:1010B0000308000A090401000103010200092111CB
:1010C000010001224D000705820308000A090402FD
:1010D0000001030000000921110100012236000770
:1010E00005830308000A1201100100000008EDFE4C
:1010F000603001000102030105010980A1018502A0
:101100001601002603001A81002A8300751095013C
:101110008100C0050C0901A1018503160100269C70
:10112000021A01002A9C02751095018100C0050178
:101130000902A1010901A1000509190129051500EC
:101140002501950575018102950175038101050150
:10115000093009311581257F950275088106093806
:101160001581257F950175088106050C0A38021541
:1011700081257F950175088106C0C005010906A17A
:1011800001050719E029E71500250195087501817A
:101190000295017508810105081901290595057554
:1011A0000191029501750391010507190029FF15A9
:1011B0000026FF00950675088100C00011241FBE9F
:1011C000CFEFDAE0DEBFCDBF04B603FE27C08091CB
:1011D000B4029091B502A091B602B091B7028730E7
:1011E000904BA740B04BD1F41092B4021092B502CC
:1011F0001092B6021092B70214BE84B7877F84BFE4
:101200000FB6F894A8958091600088618093600083
:10121000109260000FBEE0E0F8E3099511E0A0E055
:10122000B1E0EEEDFBE602C005900D92A439B107E6
:10123000D9F722E0A4E9B1E001C01D92A43BB207B6
:10124000E1F70E94742C0C948E350C9400000C94E1
:10125000BC0C80914D028B6080934D02ADE6B1E0F5
:1012600061E070E08D91E82FE295EF70F0E041A130
:101270008F709B0101C0220F8A95EAF7922F9095FB
:10128000942391A382A1822B82A381E0A437B80783
:1012900049F7A7E6B1E061E070E08D91E82FE295B3
:1012A000EF70F0E041A18F709B0101C0220F8A9581
:1012B000EAF7922F9095942391A382A1822B82A387
:1012C00081E0AD36B80749F7559A209AE4E9F1E094
:1012D000A3EAB1E082EA91E011921D928E179F0776
:1012E000D9F70C9480103F924F925F926F927F9249
:1012F0008F929F92AF92BF92CF92DF92EF92FF9226
:101300000F931F93CF93DF9300D000D0CDB7DEB7FC
:10131000809100018111B0C087E090E09A838983B9
:1013200009811A810D551E4F8DE6E82E81E0F82EB9
:101330006801AA24A394B12C8824839424E0922EDB
:10134000D6016D906D01FD011292FC83EB83D701F4
:101350008D917D01E82FE295EF70F0E091A18F7003
:10136000B50101C0660F8A95EAF7892F862B81A304
:1013700082A1762E7094872182A3B0EABA95F1F704
:1013800047E651E090E080E0DA015D90AD01252D67
:1013900022952F7030E0D90190963C90AB81BC81B2
:1013A0004C90352D3F70D50102C0AA0FBB1F3A9556
:1013B000E2F79D01232109F062C02A2D082E01C009
:1013C000220F0A94EAF72429AB81BC812C93019661
:1013D00086309105C9F681A1782271A282A1682B7D
:1013E00062A38C91681659F08092B1010E944B263D
:1013F0009093B3018093B2018BB189258BB9B4E787
:10140000EB16B1E0FB0609F09BCF8091B101882378
:10141000E1F08091B2019091B3010E9457260697A6
:10142000A0F0E981FA81EC56FE4FFA83E98380E06F
:10143000D8019D918D01E981FA819193FA83E98325
:101440008F5F8730A9F71092B10181E00F900F9064
:101450000F900F90DF91CF911F910F91FF90EF9020
:10146000DF90CF90BF90AF909F908F907F906F90C4
:101470005F904F903F9008951A82198251CF20E0DB
:10148000A2CFCF93DF9380910001D0E0C0E088230A
:1014900011F0C7E0D0E00E94960B009789F4CC567B
:1014A000DE4F30E020E0F901EA54FE4F40814993DD
:1014B0002F5F3F4F27303105B1F7DF91CF9108956E
:1014C00081E090E0FACFCF930E947309C82F0E9469
:1014D000410A892BE1F05D988091A2018F5F809392
:1014E000A201863078F080910001F0E0E0E08823EE
:1014F00011F0E7E0F0E0EC56FE4F87E090E011924B
:101500000197E9F70E9482108C2FCF9108955D9A80
:101510001092A201F7CF0E94730980910001E7E0C9
:10152000F0E0882311F0F0E0E0E0EC56FE4F90E0B0
:1015300080E02191DC01AA54BE4F2C9301968730A4
:101540009105B9F70895E82FF0E0EC56FE4F808141
:1015500008950895E8EDF0E08081806180838AE15C
:101560008A95F1F700C08091D900817008958EE0CE
:1015700090E00E94463591E0811101C090E0909387
:1015800000010E94AA0A882321F00E94240B78946B
:1015900008950E9442260E94280BF9CF0E94290933
:1015A0000E948B0AFDCF0E94B70A0E94AA0A8111ED
:1015B00002C00E94CE0A0895509A08955098589AF1
:1015C0000895589A08950E94DE0A489BFECF80E84D
:1015D0008A95F1F708950E94DE0A98E080E029B12B
:1015E000880F2170822B20E82A95F1F725E02A95B3
:1015F000F1F70000915099F708950F931F93CF933F
:10160000082F0E94DC0AC8E010E0C15020F4CF91FE
:101610001F910F910895C8010C2E02C095958795D2
:101620000A94E2F780FF06C00E94E10A80E88A95EA
:10163000F1F7EBCF5898FACF0E94DC0A589880E86F
:101640008A95F1F70C94E10A0E94DC0A0C94E10AF5
:101650000E94DE0AE89AE9E6F0E080818C7F8083D0
:1016600008951F920F920FB60F921124EF92FF92DE
:101670001F932F933F934F935F936F937F938F931A
:101680009F93AF93BF93CF93DF93EF93FF930E940A
:101690001C0BD0E0C0E010E0CE018A549E4F7C01CC
:1016A000FC0180810E94FD0A0E941C0BF7018081D1
:1016B000180F2196C730D10579F7812F0E94FD0AB6
:1016C0000E941C0BF0E8FA95F1F780E48A95F1F797
:1016D0000E94EB0A8093B5010E941C0BD091B501CA
:1016E0000E94EB0AC82F0E941C0B0E94DE0A809108
:1016F000B401DC17C9F081608093B401FF91EF91D0
:10170000DF91CF91BF91AF919F918F917F916F9119
:101710005F914F913F912F911F91FF90EF900F900C
:101720000FBE0F901F9018958E7FE6CFEF92FF921D
:101730001F93CF93DF93F8940E94DC0A589825E01A
:101740002A95F1F700000E94DE0A0E94E10A30E8C3
:101750003A95F1F789B1182F117080FF09C078947C
:1017600081E090E0DF91CF911F91FF90EF9008957D
:101770000E94E30AD0E0C0E00E94EB0AFE01EA54B6
:10178000FE4F7F0180830E94E30AF7018081180FDA
:101790002196C730D10581F70E94EB0AC82F0E941D
:1017A000E30A1C13DCCF8091B5010E94FD0A0E9460
:1017B000E30A8091B5010E94FD0A0E94E30A0E949B
:1017C000DC0A0E94E10A789490E080E0CBCF0C9490
:1017D000BB0CFC018081813021F48FEC91E00C94F2
:1017E000C722823019F486EC91E0F9CF89EB91E0C1
:1017F000F6CFFC018081813021F48CE991E00C94DA
:10180000C722823019F487E491E0F9CF8CE091E0AF
:10181000F6CFFC018081813021F48FEF90E00C94B1
:10182000C722823019F482EF90E0F9CF0895FC01CD
:101830008081813031F488E30E94871B88E30C9417
:10184000621C81E30E94871B81E3F9CFCF93DF9372
:10185000EC010E948425BE0190E080E0DF91CF91F1
:101860000C944D23DC016031C8F4E62FF0E0E05722
:10187000FA4C0C94403512968C911297811163C0EA
:1018800012968C911297811161C012968C911297C9
:10189000882339F08EED92E00E94171090E080E0EE
:1018A000089512968C911297882319F086EC92E095
:1018B000F3CF12968C91129781114BC015968C9193
:1018C0001597982F907F12962C91222341F09923FF
:1018D00011F080FFE3CF83E00E94AF23DFCF992395
:1018E00011F080FF39C083E00E94D023D7CF129639
:1018F0008C911297811133C012968C911297882384
:1019000019F082E992E0C8CF12968C911297882341
:1019100019F084E892E0C0CF12968C911297811151
:1019200021C012968C91129781111FC012968C9132
:10193000129781111DC012968C91882309F4AECFA5
:1019400088ED91E0A9CF85E193E0089584EE92E0DF
:10195000089583EB92E008958EEA92E0089583E97A
:1019600092E0089581E592E008958EE192E0089575
:101970008BEE91E0089508950895CF93FB018C3D7F
:101980002CE5920751F158F48A3D2CE59207F9F0C5
:101990008B3D9C4599F0C1E08C2FCF9108958E3DF1
:1019A0002CE5920761F1F8F0803E9C45A1F7C281D9
:1019B00080E1CC2379F10E94AF2307C0C28181E08E
:1019C00090E0CC2349F30E94260CC0E0E5CFC28111
:1019D00082E090E0CC2301F3F6CFC281CC23E1F288
:1019E00084E090E0F0CFC28183E0CC2359F00E94E4
:1019F000AF2340E164E083E00E946E10E6CFC28135
:101A000084E0F3CF0E94D02340E164E083E00E94B1
:101A10006E10C2CF0E94D023BFCF81E008950C94F6
:101A2000BD0C0E94571F2FEF84E39CE021508040A3
:101A30009040E1F700C0000087E797E79093010826
:101A4000809300080C94A5260F931F93CF93DF93E8
:101A50008C01FC01C081D181CE010E944B24BE01CA
:101A60000E948C10EC01B8010E946219B801CE01ED
:101A70000E940F0D882309F4F3C0B801CE010E9423
:101A8000A619882309F4ECC0B801CE010E94E71220
:101A9000882309F4E5C0C93CFCE5DF0709F418C157
:101AA00008F056C0C13C9CE5D90709F4E9C070F5BF
:101AB000C531FCE5DF07D0F4C2308CE5D80708F06B
:101AC00092C1C1159CE5D90709F4C5C0C130DC45F8
:101AD00009F4CCC081E08093C2018093C301C801A6
:101AE000DF91CF911F910F910C940D0DC531FCE545
:101AF000DF0709F424C2C03CDC4561F7F8018281AC
:101B0000882309F4ADC00E947416AAC0F80182812E
:101B1000C53CFCE5DF0709F4CCC068F4C33CECE548
:101B2000DE0709F4C1C008F4B6C0882309F498C0E0
:101B30000E943B1595C0C73C9CE5D90709F4C3C07A
:101B400008F4BCC0882309F48BC00E94A21588C089
:101B5000C03DFCE5DF0709F407C1A8F5CC3C9CE5D6
:101B6000D90709F4C4C090F4CA3CFCE5DF0709F4C6
:101B7000B6C0CB3CDC4509F0ADCFF80182818823AB
:101B800009F46EC081E00E94BA156AC0F801828132
:101B9000CE3CFCE5DF0709F4D3C008F4BDC08823C0
:101BA00009F45EC00E94C4136F3071058105910570
:101BB00040F00E94C413643171058105910508F459
:101BC00070C08FE0E0CFC43DECE5DE0709F494C1BE
:101BD000C0F4F8018281C23DFCE5DF0709F4DFC0F3
:101BE00008F4D8C0882309F470C11092C2010E9481
:101BF0004B269093BF018093BE0182E00E94B11CEE
:101C00002FC0C83DECE5DE0709F4DDC0C93DFCE5A9
:101C1000DF0709F4E1C0C53DDC4509F05BCFF80101
:101C2000828181116DC18091C301811186C1809132
:101C3000C0019091C1010E9457268639910508F094
:101C40007CC180E20E94B81C88E20E94871B88E267
:101C50000E94621C05C0F801828181110E94110D51
:101C600080E0DF91CF911F910F910895F80182815B
:101C70008823B1F380914D02816080934D02F0CFB3
:101C8000F8018281882361F30E941125827249F054
:101C90000E943F16E5CF882319F30E941125827216
:101CA000B9F30E943516DCCF8823D1F20E942315A8
:101CB000D7CF8823A9F20E945A15D2CF882381F268
:101CC0000E947215CDCF882359F20E948A15C8CF81
:101CD000F8018281882321F20E94D213C1CFF8013A
:101CE0008281882309F4BCCF0E94E713B9CFF801A1
:101CF0008281882309F4B4CF0E94C4136230710535
:101D00008105910538F00E94C41365307105810585
:101D1000910538F282E037CF882309F4A1CF0E94E1
:101D2000C413663071058105910540F00E94C4130B
:101D3000683071058105910508F4B3CF86E023CFA3
:101D4000882309F48DCF0E94C41369307105810581
:101D5000910540F00E94C4136E3071058105910514
:101D600008F49FCF89E00FCFF8018281882309F41E
:101D700077CF0E94C413653171058105910540F04C
:101D80000E94C413673171058105910508F489CF5C
:101D900085E1F9CE882309F463CF88E1F4CE882366
:101DA00009F45ECF0E94C413693171058105910564
:101DB00040F00E94C413623271058105910508F458
:101DC00070CF89E1E0CEF8018281882309F448CF01
:101DD00080E00E94112D44CFF8018281882309F40C
:101DE0003FCF82E0F6CFF8018281882309F477CED5
:101DF0000E947125811102C00E9450250E948925F0
:101E000090E09093A6028093A502FE01E350FC456A
:101E10008091A5028160E231F10538F4E056FA4C78
:101E20000C9440358091A50282608093A502809138
:101E3000A5020E948D250E94571F12CF8091A502F6
:101E40008460F3CF8091A5028860EFCF8091A502D6
:101E50008061EBCF8091A5028062E7CF8091A502DF
:101E60008064E3CF8091A5028068DFCF8091A502D6
:101E70008C60DBCF8091A5028E7FD7CF8091A502A9
:101E80008D7FD3CF8091A5028B7FCFCF8091A5028C
:101E9000877FCBCF8091A5028F7EC7CF8091A5028F
:101EA0008F7DC3CF8091A5028F7BBFCF8091A5028C
:101EB0008F77BBCF8091A502837FB7CF9091A5028A
:101EC000892F97FB87F98058B0CF8091C20181118B
:101ED0000FC08091BE019091BF010E9457268639A4
:101EE000910530F486E20E94871B86E20E94621C04
:101EF00082E00E94B81CB4CEF8018281882351F0A0
:101F00001092C3010E944B269093C1018093C0019F
:101F100080E274CE8091C30181110FC08091C00115
:101F20009091C1010E9457268639910530F487E2CD
:101F30000E94871B87E20E94621C80E2DACF0E9427
:101F40001125F8019281992381F08A7A91E009F4B0
:101F500090E09093BD01811106C089E20E949A240D
:101F60000E94DE247DCE85E3F9CF8091BD018111F1
:101F700004C089E20E94A124F3CF85E3FBCFCF9375
:101F800090E0FC01EA5BF14FC4918A53914FFC0150
:101F90008491882369F081EE0E94871B8C2F0E9418
:101FA000871B8C2F0E94621C81EECF910C94621CC7
:101FB0008C2F0E94871B8C2FF8CFFF920F931F93BB
:101FC000CF93DF938C01F62EF8018491882349F199
:101FD000E8012196813049F4FE011491812F0E947D
:101FE000871B812F0E94621C06C0823089F4FE018B
:101FF00084910E94871B8E010F5F1F4F8F2D815090
:1020000018F3EFE9FFE03197F1F700C00000F7CFD8
:10201000833019F4FE018491E5CF0E94BF0FE801DF
:10202000EACFDF91CF911F910F91FF90089560E06B
:102030000C94DD0F8F929F92AF92BF92CF92DF925E
:10204000EF92FF920F931F936B017C0181E090E070
:10205000A0E0B0E04C015D0104C0880C991CAA1CF2
:10206000BB1C4A95D2F7B501A4014C015D0104C027
:10207000880C991CAA1CBB1C2A95D2F748295929FF
:102080006A297B2904C0880F991FAA1FBB1F0A95C4
:10209000D2F78A019B010C211D212E213F2104171B
:1020A00015072607370789F48C299D29AE29BF29F2
:1020B000BC01CD011F910F91FF90EF90DF90CF9069
:1020C000BF90AF909F908F90089580959095A09528
:1020D000B0958C219D21AE21BF21EACF0F93382FDF
:1020E000262F609138027091390280913A029091C6
:1020F0003B02042F432F0E941A100F910C94892346
:102100000C94E70B0E94001A0C94270908950C9474
:1021100086100C9487100895972F70E026E0929F08
:10212000600D711D1124FB0194E5899FE00DF11DE7
:102130001124EE0FFF1FE25EFC4F859194910895EC
:10214000FC01EE0FFF1FEA5BF04F8591949108951B
:10215000CF93DF930E948C100E944812EC018115EE
:1021600020E5920708F042C0811530E4930708F09B
:1021700007C1883E910528F5803E910508F09BC077
:10218000883A910588F4853A910508F08AC0813033
:10219000910509F490C0009709F48DC0049708F0E8
:1021A0008AC0D0E0C0E087C08D3B910508F487C0AD
:1021B000805C9109C03CD105A0F30E94A010EC0105
:1021C0007AC08115904250F4C11581E0D80708F01B
:1021D00072C0C03FD10528F3D0656DC0C11590E332
:1021E000D90708F0C3C0CE019F70E7CF811525E560
:1021F000920758F5811534E5930708F0F0C0811572
:1022000042E5940750F4C11581E5D80708F4BBC036
:10221000DC2FCC27C16FD06A4EC0982F969596952B
:102220009E0123703327C115D34508F0C9C0C1E012
:10223000D0E002C0CC0FDD1F2A95E2F720E2929F8A
:10224000C0011124C82BD92BB9C0C11589E5D80705
:1022500080F4C11598E5D90708F0C6C0C11526E578
:10226000D20708F09ECFDC2FCC27CC27DF71D062BD
:1022700022C0CE01C1153AE5D30708F4BAC0905682
:102280008115904208F08DCF8D2F8F710E94C3125F
:1022900090E0982F882788279F719C012C2BE901BB
:1022A000E6CF853A910509F4AEC0863A910509F06A
:1022B000ADC0C2E8D0E4CE01DF91CF910895883A55
:1022C000910509F4A6C0893A910509F4A5C08A3A96
:1022D000910509F4A4C08B3A910509F4A3C08C3A86
:1022E000910509F4A2C08B3B910509F4A1C08C3B78
:1022F000910509F4A0C08D3A910509F49FC0803B77
:10230000910509F49EC08E3A910509F49DC08F3A5B
:10231000910509F49CC0813B910509F49BC0823B67
:10232000910509F49AC0833B910509F499C0843B57
:10233000910509F498C0853B910509F497C0863B47
:10234000910509F496C0873B910509F495C0883B37
:10235000910509F494C0893B910509F493C08A3B27
:10236000910509F492C0C0E0D4E4A5CFCE0199272D
:10237000D3FF03C0EC01D86C9ECFEC01D06C9BCF97
:10238000DF70D06A98CFCE01E4E096958795EA9504
:10239000E1F783702C2F26952695237090E2299FD4
:1023A00090011124382B8C2F8370C1E0D0E002C043
:1023B000CC0FDD1F8A95E2F7C22BD32BDC687BCFD5
:1023C000C1E0D0E002C0CC0FDD1F2A95E2F730E279
:1023D000939FC0011124C82BD92BDA686CCFD82F5A
:1023E000CC27C46FD06A67CFDC2FCC27C06FD06AF0
:1023F00062CF34E0969587953A95E1F78F70CF706C
:10240000C06ED82FBECFC1E8D0E455CFC3E8D0E42A
:1024100052CFC2EED4E44FCFC9EED4E44CCFCAEED3
:10242000D4E449CFC5EBD4E446CFC6EBD4E443CFE4
:10243000C3EBD4E440CFC4EBD4E43DCFC7EBD4E44A
:102440003ACFCCECD4E437CFCDECD4E434CFC3E8EE
:10245000D5E431CFCAE8D5E42ECFC2E9D5E42BCFFD
:10246000C4E9D5E428CFC1E2D6E425CFC3E2D6E45F
:1024700022CFC4E2D6E41FCFC5E2D6E41CCFC6E229
:10248000D6E419CFC7E2D6E416CFCAE2D6E413CF1A
:102490008238910549F1B0F48133910509F462C0A5
:1024A00048F48932910509F456C08A32910509F43D
:1024B00060C008958533910509F446C089339105BC
:1024C00099F00895833E910531F138F4803E9105ED
:1024D00091F0823E9105B1F00895863E910521F17B
:1024E000873E910551F108952091A5022370D9F0FE
:1024F00080EE90E008952091A50220FF14C089E3AA
:1025000090E008952091A50222FF0DC024FD09C08E
:1025100083EE90E008952091A50222FD31C024FFB2
:1025200002C090E080E008952091A50223FFFBCF38
:1025300024FDF7CF87EE90E008952091A50223FFB8
:10254000EECF86EE90E008952091A50225FFEBCF17
:1025500089E290E008952091A50225FFE4CF85E36C
:1025600090E008952091A50226FFDDCF8AE290E059
:1025700008952091A50226FFD6CF81E390E008952B
:1025800082EE90E008959091A50292FF06C0282F58
:102590002871283069F4877F846093FF06C0282F54
:1025A0002871283161F4877E846194FD877E0895C7
:1025B000282F2471243089F78B7F8860EECF282F55
:1025C0002471243191F78B7E8861EFCF08950F93AA
:1025D0001F93CF938C01FB018281811106C0C1E062
:1025E0008C2FCF911F910F910895C091D101C111EE
:1025F00025C006311C4599F70E94E61281E08093C0
:10260000D1010E944B269093D0018093CF0110926C
:10261000C4011092C6011092C5011092C801109217
:10262000C7011092CA011092C9011092CC011092F8
:10263000CB011092CE011092CD01D2CF8091CF016B
:102640009091D0010E9457268C32914040F68091A3
:10265000C401E82FF0E0EE0FFF1FEB53FE4F118394
:1026600000838F5F8093C401C0E0BACFCF92DF9226
:10267000EF92FF920F931F93CF93DF93E9016623AD
:1026800009F466C0E42EF12CEFEFF0E0E61BF1094F
:10269000EE9D8001EF9D100DFE9D100D1124212F48
:1026A000E12FFF27EE1AFF0A5CE3C52ED12CB601FD
:1026B0000E941835FB01BC01E69EC001E79E900D0B
:1026C000F69E900D1124B6010E941835E230F105F6
:1026D00089F168F4812F262F210F309781F0242F64
:1026E000461B319761F080E020E040E008C0E43014
:1026F000F10551F128F1842F861B3597A1F7E42FBE
:10270000F0E0E05AF04F4491E22FF0E0E05AF04F51
:102710009491E82FF0E0E05AF04FE49149839883D8
:10272000EA83DF91CF911F910F91FF90EF90DF909F
:10273000CF900895862F810FE42F412F2E2FDFCFCA
:10274000E42FE61B842FF9CF842F462F410FD7CFDC
:10275000842F242FD4CF88E090E00C944E35AB0129
:10276000BC0188E090E00C946C35E5E6F2E083E093
:10277000808311828FEF82838383148260817181D1
:10278000828193810C94AF136091650260FF06C053
:1027900066956F7370E090E080E0089560E070E00F
:1027A000CB0108958091690290E0019684309105F3
:1027B00014F083E090E0809369026091650270916B
:1027C000660280916702909168020C94AF13809129
:1027D00069028150990B97FF02C090E080E084303D
:1027E000910514F083E090E08093690260916502A6
:1027F0007091660280916702909168020C94AF1309
:1028000080916502EFE6F2E080FF06C060E170E0D3
:102810008FE692E00C940119118210821282339695
:1028200082E0EF39F807C1F7F1CF9091650290FF90
:102830000CC0EFE6F2E0818360834283339692E03E
:10284000EF39F907C1F70C9400140895EF92FF9245
:102850000F931F93CF93DF9300D00F92CDB7DEB7C6
:10286000182FE92EF62E042F8091650290916602B2
:10287000A0916702B091680280936A0290936B0204
:10288000A0936C02B0936D028091650280FF1FC01F
:102890009E012F5F3F4F812F9E2D0E943613809106
:1028A0006A0210FB87F980936A02169580916B0289
:1028B0008078812BE0FA87F980936B02F0926C02AA
:1028C00000936D024B8169818A810E9415140F90DB
:1028D0000F900F90DF91CF911F910F91FF90EF908C
:1028E00008956F927F928F929F92AF92BF92CF92F4
:1028F000DF92EF92FF920F931F93CF93DF93EC0140
:10290000662E742E8091650280FF8EC0982F9E7770
:10291000923079F5CE010E942614809165029C2F99
:10292000C0FB87F980936502969580916602807856
:10293000892BD0FB87F980936602609267027092C0
:1029400068026091650270916602809167029091C1
:102950006802DF91CF911F910F91FF90EF90DF9070
:10296000CF90BF90AF909F908F907F906F900C947E
:10297000AF13E82FE695EF739EE39E0F9F7394309D
:1029800018F470906802C9CF9AE39E0F9F73993034
:1029900070F4881F8827881F90916602292F220FC4
:1029A000C22FC82B97FB992790F9D92FB6CF87E272
:1029B0008E0F8F738A3008F0B0CFE951FF0B21E002
:1029C000E0FD2FEFEE7FEA5BF04F8591949134E0CC
:1029D000969587953A95E1F7AC0124035001259F20
:1029E000B00C11247E0158E9E51A5EEFF50A0FE6F6
:1029F00012E04FE9C42E42E0D42E58E6852E9924E9
:102A00009394C701B4010E9418359801472D662D93
:102A10000E943613EA0CFB1C0D5F1F4FC016D10637
:102A200081F70E94001479CFDF91CF911F910F9110
:102A3000FF90EF90DF90CF90BF90AF909F908F90DE
:102A40007F906F900895E5E6F2E02081221F222713
:102A5000221F30916602432F440F842F822B37FBB5
:102A6000992790F9089668E671E00E942C35438119
:102A700062810C94711420916502221F2227221F6B
:102A800030916602432F440F842F822B37FB992706
:102A900090F98830910540F4805A9E4F4091680229
:102AA000609167020C947114089768E671E00E94C7
:102AB0002C35F4CF60916702683F90F4685F809195
:102AC0006502881F8827881F90916602292F220F90
:102AD00097FB992790F940916802822B0C9471140E
:102AE0006FEFEDCF60916702683090F06850809191
:102AF0006502881F8827881F90916602292F220F60
:102B000097FB992790F940916802822B0C947114DD
:102B100060E0EDCF40916802483F90F4485F8091BB
:102B20006502881F8827881F90916602292F220F2F
:102B300097FB992790F960916702822B0C9471148E
:102B40004FEFEDCF40916802483090F048508091AF
:102B50006502881F8827881F90916602292F220FFF
:102B600097FB992790F960916702822B0C9471145E
:102B700040E0EDCF9091650290FF42C091788111C5
:102B800026C0926090936502609165027091660222
:102B900080916702909168020E94AF138091650254
:102BA000982F9E779230D9F41092E701881F8827DA
:102BB000881F90916602292F220F97FB992790F981
:102BC0004091680260916702822B0C9471148332E9
:102BD00010F09464D7CF8F73880F982BD3CF982F92
:102BE00096959F732EE3290F2F73273120F491E0E0
:102BF0009093E701DBCF995D9F739A30B8F6D4CFFD
:102C0000089580914D02816080934D0281E0809310
:102C1000E8010E947125811104C00E9450250E9484
:102C2000B5130E94AB1360936502709366028093A4
:102C30006702909368026E7761F40E94B5130E9458
:102C4000AB13609365027093660280936702909362
:102C5000680281E08093E7018091650280FF04C0F3
:102C600086958F730C94BA150895809165028695A8
:102C70008F738F5F833208F081E00C94BA158091D6
:102C8000650286958F73815009F482E20C94BA151F
:102C9000CF93DF93C5E6D2E0888181608883688125
:102CA00079818A819B810E94AF13888186958F7379
:102CB000DF91CF910C94BA15E5E6F2E080818E7F2A
:102CC000808360817181828193810E94AF13109211
:102CD000E7012FEF80E792E0215080409040E1F73C
:102CE00000C000000C9400148091650280FD0C94DB
:102CF0005C160C944816CF93C82F8091E5019091F3
:102D0000E6010E945726EC2FF0E0E45AF04FE491E0
:102D1000E817190611F008F042C00E944B26909364
:102D2000E6018093E5016091E40170E090E080E0CD
:102D30000E94193320E030E04FE753E40E943C3218
:102D40002BED3FE049E450E40E9442340E94AF344E
:102D50000E94B6322BE43AE34EE25FE30E94CF31A9
:102D600020EF3BEF48ED52E40E9442340E94E832EB
:102D7000462F80916502881F8827881F90916602E0
:102D8000292F220F97FB992790F960916702822BD8
:102D90000E9426148091E4018F5F8093E401CF911B
:102DA0000895CF93C82F8091E2019091E3010E9492
:102DB0005726EC2FF0E0E75AF04FE491E817190698
:102DC00009F0E8F40E944B269093E3018093E2011E
:102DD00040916802609167028091E0019091E10169
:102DE0000E9426148091E0019091E101019668E62D
:102DF00071E00E9418359093E1018093E001CF913A
:102E00000895DF92EF92FF920F931F93CF93DF937A
:102E1000D82E8091DE019091DF010E945726ED2D82
:102E2000E695F0E0EA5AF04FE491E817190609F048
:102E3000A8F50E944B269093DF018093DE010FE6F8
:102E400012E0D0E0C0E088E6E82EFF24F394809101
:102E5000DC019091DD018C0F9D1FB7010E94183598
:102E6000980140916802609167020E94361366964D
:102E70000D5F1F4FC03681E0D80749F70E9400144C
:102E80008091DC019091DD01D0FE10C00196B70168
:102E90000E9418359093DD018093DC01DF91CF9182
:102EA0001F910F91FF90EF90DF9008950197F2CF5F
:102EB000CF92DF92EF92FF920F931F93CF93DF9306
:102EC000C82FFF24FA9480FD02C0FF24F394809160
:102ED000DA019091DB010E945726C695EC2FF0E0B5
:102EE000ED5AF04FE491E817190611F008F050C0C0
:102EF0000E944B269093DB018093DA01CFE6D2E06B
:102F000010E000E0198218821A8294E0C92ED12CB8
:102F1000E12C8091D9018E0D87FD805F082E000C79
:102F2000990B80179107E9F4809168028C9DA001AC
:102F30008D9D500D11245595479555954795809138
:102F40006502881F8827881F90916602592F550FA8
:102F500097FB992790F99E0160916702852B0E944B
:102F60003613EF0C81E0C81AD10899F60F5F1F4F96
:102F700023960031110531F60E9400148091D90189
:102F800091E0F91210C081110CC08FE08093D9013B
:102F9000DF91CF911F910F91FF90EF90DF90CF9035
:102FA00008958150F3CF90E001968F709927EECF6E
:102FB0000F931F93CF93DF93C82F8091D7019091E8
:102FC000D8010E945726EC2FF0E0E05BF04FE4912F
:102FD000E817190611F008F052C00E944B26909392
:102FE000D8018093D701CFE6D2E0FE011182108292
:102FF0001282339682E0EF39F807C1F710E000E063
:103000008091D601082E000C990B08171907E4F1DE
:1030100080915201082E000C990B80179107A4F1A2
:1030200080916502881F8827881F90916602592F1A
:10303000550F97FB992790F99E0140916802609186
:103040006702852B0E9436130F5F1F4F23960031B6
:103050001105B1F60E940014809151019091D601A2
:10306000980F9093D60120915201280F209352017E
:10307000121614F49F301CF0819580935101DF915A
:10308000CF911F910F910895198218821A82DCCF77
:10309000EF92FF920F931F93CF93DF938091D40110
:1030A0009091D5010E945726883E9340C8F10E9416
:1030B0004B269093D5018093D401C091D201D09139
:1030C000D3012196C170DD27D093D301C093D201E3
:1030D0008FE6E82E82E0F82E10E008E7812F869533
:1030E0008C0F9D2F911D8170992797014091680247
:1030F00060916702FC010E9FC0010F9F900D11248B
:103100000E9436131F5FF3E0EF0EF11C103131F710
:10311000DF91CF911F910F91FF90EF900C940014CD
:10312000DF91CF911F910F91FF90EF9008958091C3
:10313000E701882391F190916502892F86958F731D
:103140002EE3280F2F73243018F482500C947B1632
:103150002AE3280F2F73233018F486500C94D116CD
:1031600027E3280F2F73263018F489500C94011789
:1031700021E3280F2F73263018F48F500C94581722
:103180002BE2280F2F73233018F485510C94D81795
:103190009E77903311F40C944818089531B3242F7E
:1031A0002095232331B3432B3FB7F894680F791F41
:1031B0008617970711F43FBF0895FC015191CF0185
:1031C000E8E041BB000000C057FF21BB550F0000E5
:1031D00000C000C000C021BB00C0EA9591F7E8CF55
:1031E00020B3242B20BB9B01220F331F620F731FC0
:1031F0000E94CE1887EC90E00197F1F700C0000024
:10320000089540E10C94F018CF93DF93EC0181E036
:103210008F878F810E94142588850E9427250E9410
:10322000DE24EA81FB81309739F06A897B89CE01FF
:103230000696DF91CF910994DF91CF910895EF9297
:10324000FF920F931F93CF93DF93EC018885811139
:1032500032C0EB80FC8087E5F81A24E12E9DC00186
:103260002F9D900D1124DC01AF5FBE4F1496ED91A0
:10327000FC911597309731F052966D917C91895F52
:103280009E4F099584E18E9D80018F9D100D112424
:103290000F5F1E4FF80187810E941A25F801808573
:1032A0000E942D250E94DE2418821F82198610920A
:1032B000EA011092E901DF91CF911F910F91FF90E8
:1032C000EF900895DF92EF92FF920F931F93CF93A9
:1032D000DF937C01FB018281882391F0809153016F
:1032E0008F3F71F0C1E0D1E010E000E0DD24D39425
:1032F00080915301082E000C990B8017910744F41C
:10330000DF91CF911F910F91FF90EF90DF90089583
:103310008E818823B9F089859A858E159F0539F4A9
:103320008091E9019091EA018E159F0559F0DD86A3
:103330008F85811103C0CE010E940419CE0106962B
:103340000E941F190F5F1F4F6496D2CFEF92FF921A
:103350000F931F93CF93DF937C0197558F3F910578
:1033600009F0D8F520915301022E000C330B2817D9
:10337000390714F480935301FB01228134E1389F13
:103380008001399F100D1124E801CF5FDE4F2E8799
:1033900092818E81992349F1FA86E9868F5F8E8327
:1033A0000E944B269C878B870E944D258F830E940D
:1033B000112588870E9424259885892B8887E88194
:1033C000F981309731F06A897B89C801895F9E4F06
:1033D0000995F092EA01E092E90181E0DF91CF9155
:1033E0001F910F91FF90EF9008958823B1F38F857F
:1033F000882399F3C801895F9E4F0E941F19EDCF62
:10340000EF92FF920F931F93CF93DF93809153011D
:1034100010E004E18F3FC1F5DF91CF911F910F9133
:10342000FF90EF900895029FF001039FF00D11248B
:10343000EF5FFE4FE088F188E114F10419F486E9AA
:10344000E82EF12C029FE001039FD00D1124CF5FE5
:10345000DE4F8E818823B9F08B859C850E9457268C
:10346000E816F90680F4109F700111248F858111F0
:1034700005C0C7018F5F9E4F0E940419C701895F75
:103480009E4F0E941F191F5F212F30E08091530132
:10349000082E000C990B821793072CF6BDCF909342
:1034A000F0018093EF010895E091EF01F091F001B8
:1034B000309721F00190F081E02D099480E008958B
:1034C000E091EF01F091F001309721F00280F3815B
:1034D000E02D09940895E091EF01F091F00130970B
:1034E00021F00480F581E02D099408952091ED01EB
:1034F0003091EE012817390771F09093EE01809317
:10350000ED01E091EF01F091F001309721F006809C
:10351000F781E02D099408952091EB013091EC01A1
:103520002817390771F09093EC018093EB01E0913B
:10353000EF01F091F001309721F00084F185E02D4A
:10354000099408950C94D30A81E008950E944226BC
:103550000E9429090E94B6260C940116BF92CF92B0
:10356000DF92EF92FF920F931F93CF93DF93CDB72C
:10357000DEB72A970FB6F894DEBF0FBECDBF0E940C
:10358000630A0E94A41A882309F471C082EFC82E2E
:1035900081E0D82E10E000E0B02E802F0E94A30A18
:1035A000E82EF601F1906F01F81609F45AC08091E7
:1035B0004D0281FD0E94A90A90E080E0FE242F2D9B
:1035C00030E0482FB901082E02C0759567950A941E
:1035D000E2F760FF41C08E83BF8281E090E06C0122
:1035E00002C0CC0CDD1C4A95E2F72E2D30E02C21D8
:1035F0003D21232B09F480E088870E944B268160BF
:10360000782F9A8789874E815F8168858A850E9495
:10361000581BF801EE50FE4F80818C2580830E945C
:1036200044280E94541A9091F101891789F10E944F
:10363000541A8093F1012A960FB6F894DEBF0FBE9C
:10364000CDBFDF91CF911F910F91FF90EF90DF9051
:10365000CF90BF900C94891001968630910509F0A7
:10366000B0CF0F5F1F4F0E30110509F095CF8FEFD0
:1036700089838A831B820E944B268160782F9D83D9
:103680008C8349815A816B818D810E94581BC7CFE1
:103690002A960FB6F894DEBF0FBECDBFDF91CF9153
:1036A0001F910F91FF90EF90DF90CF90BF90089502
:1036B000CF93DF93CDB7DEB72B970FB6F894DEBF6D
:1036C0000FBECDBF4F83588769877A878B871E824D
:1036D0001D8285E0FE013796DE01119601900D9264
:1036E0008A95E1F749815A816B817C818D819E8128
:1036F0002B960FB6F894DEBF0FBECDBFDF91CF91F2
:103700000C942D22FC01808191810C948D24CF9307
:10371000C82F882309F4D4C08238C1F40E94541AF7
:1037200081FDCEC089E30E949A240E94DE242FEFFF
:1037300081EE94E0215080409040E1F700C000000D
:1037400089E30E94A124CF910C94DE248338A1F454
:103750000E94541A80FDB4C083E50E949A240E94FE
:10376000DE242FEF81EE94E0215080409040E1F77D
:1037700000C0000083E5E5CF8438A1F40E94541A0C
:1037800082FD9EC087E40E949A240E94DE242FEFCF
:1037900081EE94E0215080409040E1F700C00000AD
:1037A00087E4CFCF8CEF8C0F813A48F48C2F0E94A6
:1037B000462A811185C08C2F0E949A24C4CF80E2B2
:1037C0008C0F883048F4C77081E001C0880FCA951B
:1037D000EAF70E941425B7CF8BE58C0F833068F48D
:1037E00081E890E0C53A31F083E890E0C63A11F400
:1037F00082E890E0CF910C94761A88E58C0F8531A1
:1038000008F05EC082EE90E0C83A09F456C089EE36
:1038100090E0C93A09F451C08AEE90E0CA3A09F43E
:103820004CC085EB90E0CB3A09F447C086EB90E0C2
:10383000CC3A09F442C083EB90E0CB3BF1F184EB4E
:1038400090E0CC3BD1F187EB90E0CD3AB1F18CEC3C
:1038500090E0C03B91F18DEC90E0CE3A71F183E8BD
:1038600091E0CF3A51F18AE891E0C13B31F182E930
:1038700091E0C23B11F184E991E0C33BF1F081E2B8
:1038800092E0C43BD1F083E292E0C53BB1F084E228
:1038900092E0C63B91F085E292E0C73B71F086E290
:1038A00092E0C83B51F087E292E0C93B31F090E0F2
:1038B00080E0CA3B11F48AE292E0CF910C948C1A1A
:1038C000CF910895882309F44BC0823871F40E9487
:1038D000541A81FF45C089E30E949A240E94DE2485
:1038E00089E30E94A1240C94DE24833859F40E94B9
:1038F000541A80FF35C083E50E949A240E94DE247A
:1039000083E5EFCF843859F40E94541A82FF28C00F
:1039100087E40E949A240E94DE2487E4E2CF9CEF91
:10392000980F913AF0F290E2980F983050F4877027
:1039300091E001C0990F8A95EAF7892F0E941A2514
:10394000D2CF9BE5980F933020F490E080E00C9468
:10395000761A885A853120F490E080E00C948C1A15
:103960000895882321F00E9414250C94DE240895E4
:10397000882321F00E941A250C94DE2408958F924A
:103980009F92AF92BF92CF92DF92EF92FF920F93EE
:103990001F93CF93DF937C01D62FC72FFC010581A6
:1039A00002950F70128111110E9434250E94D724B4
:1039B000C82E882371F01123B1F080E28D0F88307A
:1039C00090F082E00E94C1240E94D72491E0C82E8A
:1039D000C926DC2ED2949FE0D922ED2DF0E0EE54E2
:1039E000FA4C0C944035C12CF4CF0C2F0F70C07FD3
:1039F00011F00295007F1123A9F0002359F080E215
:103A00008D0F883010F0D11109C0802F0E9414252D
:103A10000E94DE248D2F0E94871B14C0802F0E94DD
:103A20002725F6CF8D2F0E94621C002359F080E2DB
:103A30008D0F883010F0D11133C0802F0E941A25CD
:103A40000E94DE2498E0D91639F0D91648F086E0B5
:103A50008D0D8F70823020F40E94541A0E948910BC
:103A6000CC2009F4D9C10E94B42480FDD5C1F7014E
:103A700012820E94AE240E94AF23C7010E94191F28
:103A80000E94AE24DF91CF911F910F91FF90EF9094
:103A9000DF90CF90BF90AF909F908F900C94D023E9
:103AA000802F0E942D25CCCFFC2FFF70BF2EC07F12
:103AB000C03219F0B29480EFB822DD2369F0D13022
:103AC00049F1112391F1002351F1F701858180FF24
:103AD000A1CF8F70858323C0112381F0011106C00F
:103AE0000E944D258B290E94B11CACCF0130C1F73B
:103AF0000E944D258B290E944725A4CF011106C0A5
:103B00000E944A258B2D0E94B81C9CCF013009F4DD
:103B100099CFF6CF112329F0063008F093CF8B2DE3
:103B2000E2CF053008F08ECFEDCF002359F38D2F73
:103B30000E94621C87CF8C2F86958695837069F0D2
:103B4000813009F07FCF8D2F9C2F9370111102C00F
:103B500090E080E00E948C1A75CF8D2F9C2F93707F
:103B6000111102C090E080E00E94761A6BCF112301
:103B700009F1D53F99F0D63FB9F0D43F49F480918F
:103B80009F029091A00281609093A00280939F0277
:103B90008D2F0E9452270E94392854CF80919F0276
:103BA0009091A0028260F0CF80919F029091A0023C
:103BB0008460EACFD53F89F0D63FA9F0D43F49F4DD
:103BC00080919F029091A0028E7F9093A00280939B
:103BD0009F028D2F0E94BA27DECF80919F02909185
:103BE000A0028D7FF2CF80919F029091A0028B7FE7
:103BF000ECCF8C2F837009F047C0111123CF2D2FEC
:103C0000229526952770220F220F6D2F6F70862E1A
:103C1000912CB12CA12C022E04C0880C991CAA1C3A
:103C2000BB1C0A94D2F760E070E0CB01D4FF0FC058
:103C30006FE070E080E090E004C0660F771F881F9F
:103C4000991F2A95D2F76095709580959095C695A5
:103C5000C695C370C23051F080F4682979298A2949
:103C60009B29C13071F00E946123ECCE682979292B
:103C70008A299B290E947323E5CE0E946123C501F6
:103C8000B4010E944F23DECE8695112311F08C2FB4
:103C90008170882309F4D6CE2D2F22952695277082
:103CA000220F220F6D2F6F70862E912CB12CA12C1C
:103CB000022E04C0880C991CAA1CBB1C0A94D2F7C3
:103CC00060E070E0CB01D4FF0FC06FE070E080E0F7
:103CD00090E004C0660F771F881F991F2A95D2F7BE
:103CE0006095709580959095C695C695C370C230C5
:103CF00051F080F4682979298A299B29C13071F013
:103D00000E9426249FCE682979298A299B290E940E
:103D1000382498CE0E942624C501B4010E941424A0
:103D200091CEE0E2ED0FE53108F04DC0F0E0EE534A
:103D3000FA4C0C944035DF708C2F8F71112321F0D9
:103D40000E94AF238D2FCFCE0E94D0238D2FDBCEAC
:103D5000112341F0053008F075CE8C2F8F710E9431
:103D6000F32370CE063008F06DCEF7CF8C2F8F7115
:103D7000112339F00E94AF2365CE8C2F8F71112350
:103D8000C9F30E94D0235ECE112329F08C2F8F71AE
:103D90000E949A2357CE0E94952354CE112349F0B6
:103DA000CF718C2F0E94AF2363E08C2F0E94B82428
:103DB00049CE81E00E94C124023008F443CE82E063
:103DC0000E94C1243FCE112329F0011123CE8C2F54
:103DD0008F71D0CF002369F0D93309F0A8CEFFEF5F
:103DE00027EE83E0F15020408040E1F700C0000062
:103DF0009ECE8C2F8F71C5CF4C2F4F706D2FC7016A
:103E00000E94320C0E94C7221DCE4C2F4F706D2F86
:103E1000C7010E948B1016CEDF91CF911F910F9199
:103E2000FF90EF90DF90CF90BF90AF909F908F90DA
:103E300008950F931F93CF93DF93EC018B819C81A7
:103E4000892B29F08881998189238F3F29F4DF917B
:103E5000CF911F910F910895CE010E94240D8823C8
:103E6000B1F3688179818A810E9497248C010E9434
:103E70004A240E944C23B801CE01DF91CF911F91BB
:103E80000F910C94BF1C0E9434250E9444250E946F
:103E9000A8240E94DE240E94CE280E94392890E0A7
:103EA00080E00E94761A90E080E00C948C1A0E94C8
:103EB00021250C94431F0E948D24E92FE295EF7079
:103EC000E250EE3070F4F0E0E952FA4C0C944035D8
:103ED000803F19F020F4803E20F481E00895843F73
:103EE000E1F380E00895803EC0F3813FD1F7F5CF44
:103EF00093FB882780F90895CF93DF9300D000D0FB
:103F00000F92CDB7DEB70F900F900F900F900F90DC
:103F1000DF91CF910895CF93DF9300D000D000D0F0
:103F2000CDB7DEB726960FB6F894DEBF0FBECDBF75
:103F3000DF91CF9108951F93CF93DF93C09100023B
:103F400016E0809101028C1304C0DF91CF911F9184
:103F50000895D0E01C9FF0011D9FF00D1124EE5F2D
:103F6000FD4F4081518162817381848195810E94DE
:103F70008B1F2196C770E5CF4091320250913302DA
:103F8000609134027091350280913602909137022F
:103F90000C948B1F209100029091010256E029138E
:103FA00002C080E0089530E0529FF001539FF00D71
:103FB0001124EE5FFD4F7181761306C07081781376
:103FC00003C07281741304C02F5F3F4F2770E7CF87
:103FD00081E008951F93CF93DF9380913702807F14
:103FE000C1F4809134028823A1F080910002C09135
:103FF000010260913202709133024091350250917A
:104000003602D62FD723DA01A095B09516E0C81353
:1040100004C0DF91CF911F91089590E041155105A3
:1040200011F0DF3F31F401968770F1CF2A0F3B1F6B
:1040300017C0189FF001199FF00D1124EE5FFD4F7E
:1040400021812713F0CF20812613EDCF228121116A
:10405000EACF238134812417350740F3241B350B25
:104060002639310500F7209137022F702061209307
:10407000370226E0289FF001299FF00D1124E95F07
:10408000FD4F80818F708061808382E392E00E9487
:10409000191FDF91CF911F910C949B1F9F92AF929C
:1040A000BF92CF92DF92EF92FF920F931F93CF9325
:1040B000DF93CDB7DEB761970FB6F894DEBF0FBEC2
:1040C000CDBF8C0185E0F801DE011D9601900D92B7
:1040D0008A95E1F7D801DC901196EC901197129631
:1040E000CC9012978091350290913602009709F496
:1040F00092C12091320230913302422F43234F3F2D
:1041000009F489C11396AD90BC9090903402992027
:1041100009F422C1A816B906E0F1F501E81BF90B74
:10412000CF01FF24F3948639910508F0F12C80919A
:104130003702982F907FFF2009F4C7C091118EC0DD
:10414000FC2C3E112BC02D1129C0C11027C08F702F
:104150008061809337020E94BC1F82E392E00E943C
:10416000191F80913702D80115968C938F2D619677
:104170000FB6F894DEBF0FBECDBFDF91CF911F9178
:104180000F91FF90EF90DF90CF90BF90AF909F90F6
:104190000895809590958A0D9B1DC3CFA114B104FD
:1041A00029F08E2D8D218F3F09F054C180E080FFD2
:1041B00016C04C2D6E2D8D2D0E94CA1F882379F0BC
:1041C00082E392E00E94191F86E0E2E3F2E0DF0161
:1041D0001D928A95E9F70E94BC1FF12CC7CFAB282E
:1041E00029F08E2D8D218F3F09F031C180E0B82F4D
:1041F000B170AB2E80FF29C04C2D6E2D8D2D0E94ED
:10420000CA1FB82E811121C0DD86EE868D859E8560
:104210000E948D24292F22952F70223050F02430B7
:1042200078F49F7051F0F8019581907F31F4FB2C68
:104230009DCF9F7011F08823D1F3805E8830B8F352
:10424000C8010E94191FBA2CF2CFCC2009F48ECFDE
:1042500080913702816080933702BFCF3E1106C044
:104260002D1104C0D801CC2009F49CC0DD86EE8657
:104270008D859E850E945B1F882319F1CC2009F152
:1042800080913702803270F02091320230913302F7
:1042900038872F831986BB86AA868C87CE0107961E
:1042A0000E94191F86E0F801A2E3B2E001900D928E
:1042B0008A95E1F70E94EA1F0E94BC1FFF24F39435
:1042C00055CFC8010E94191FF9CF911115C07A2D41
:1042D000B98AA88A4D2D5E2D6C2D89890E947C1F7C
:1042E00082E392E00E94191F86E0E2E3F2E0DF0140
:1042F0001D928A95E9F763C03E1112C02D1110C0BE
:10430000C1100EC0F8018583C8010E94191FE2E3A5
:10431000F2E086E0DF011D928A95E9F7F92C26CFBD
:10432000DD86EE868D859E850E945B1F882349F27F
:10433000CC2039F280913702803208F4B3CF20913B
:104340003202309133023A8329831B82BD82AC82D0
:104350008E83CE010196A4CFA816B90698F1F50177
:10436000E81BF90BCF01F12C8639910508F049C003
:10437000FC2CCC2009F4A5CF3E1132C02D1130C049
:104380008091370280FD23C0982F907F01F1D801E2
:1043900015968C931597903F39F0982F907F905FEA
:1043A0008F70892B15968C93C8010E94191F86E087
:1043B000F801A2E3B2E001900D928A95E1F70E9424
:1043C000BC1FD4CE809590958A0D9B1DCCCF86E0E6
:1043D000F801A2E3B2E001900D928A95E1F7C6CE12
:1043E000DD86EE868D859E850E945B1F81115ACFEA
:1043F00080913702816080933702C8010E94191FA3
:10440000B5CE7A2DB98AA88A4D2D5E2D6C2D89895D
:104410000E947C1F69CFCC2009F453CFDD86EE8645
:104420008D859E850E945B1FF82E882309F449CF55
:1044300086E0F801A2E3B2E001900D928A95E1F7DF
:1044400082E392E00E94821B0E94EA1FB8CF81E0C3
:104450008C25CDCE81E08C25AACE1F93CF93DF9300
:10446000CDB7DEB72C970FB6F894DEBF0FBECDBF29
:104470004F83588769877A878B879C87CE010796F9
:104480000E944E20882369F08A859B85892B39F00C
:104490004F815885842F85238F3F09F071C016E026
:1044A0005FC086E0FE013796DE01119601900D9205
:1044B0008A95E1F78A859B85892B89F388859F8179
:1044C00089238F3F61F32091010230E0C9010196F9
:1044D00087709927409100024817190671F40E94CD
:1044E000571F109201021092000286E0E2E3F2E010
:1044F000DF011D928A95E9F7D2CF96E0929FD00115
:10450000939FB00D1124AE5FBD4FFE013196019017
:104510000D929A95E1F7809301020E949B1FBFCFF5
:10452000819FC00111248E5F9D4F0E944E208823E1
:10453000E9F0E09100021E9FF0011124EE5FFD4FB3
:104540004081518162817381848195810E948B1F9A
:104550008091000290E00196877099278093000275
:1045600080910002909101028913DACF2C960FB648
:10457000F894DEBF0FBECDBFDF91CF911F9108959C
:1045800069857A858B859C850E948B1F88CFEF92E9
:10459000FF920F931F93CF93DF938C01892B81F0B0
:1045A000F12CEE24E394E8012196F80184918437FC
:1045B00070F4843008F05FC08130B1F08230A1F136
:1045C000DF91CF911F910F91FF90EF900895853764
:1045D00009F44CC008F43DC09CE7980F903780F771
:1045E0008F770E94621C49C00E5F1F4FFE018491AD
:1045F00090E2980F983060F48770FE2D01C0FF0F95
:104600008A95EAF78F2F0E9437250E94DE2402C088
:104610000E94871B8F2D815030F2EFE9FFE0319728
:10462000F1F700C00000F7CF0E5F1F4FFE0184912D
:1046300090E2980F983050F48770FE2D01C0FF0F64
:104640008A95EAF78F2F0E943D25DFCF0E94621CDA
:10465000E1CF0E5F1F4FFE01C491C150D8F28FE928
:104660009FE00197F1F700C00000F7CF0E5F1F4FEA
:10467000FE01F490CFCF0E94871B8E01CBCF08950F
:104680000E943F2360933C0270933D0280933E0260
:1046900090933F020C94431F08950C9440230F9372
:1046A0001F9300913C0210913D0220913E023091F7
:1046B0003F02602B712B822B932B1F910F910C9437
:1046C00040230F931F9300913C0210913D022091D3
:1046D0003E0230913F0260237123822393231F9176
:1046E0000F910C9440230F931F9300913C02109163
:1046F0003D0220913E0230913F02602771278227C0
:1047000093271F910F910C9440230C943F230C94FA
:1047100085230E9487236093380270933902809327
:104720003A0290933B020C94431F60E070E0CB018F
:104730000C9489230F931F9341E050E060E070E0F8
:104740008A019B0104C0000F111F221F331F8A958D
:10475000D2F7C901B8011F910F910C9489230F93CF
:104760001F9341E050E060E070E004C0440F551F2B
:10477000661F771F8A95D2F780913802909139028F
:10478000A0913A02B0913B028A019B01082B192BA0
:104790002A2B3B2BC901B8011F910F910C9489233F
:1047A0000F931F9341E050E060E070E004C0440FBD
:1047B000551F661F771F8A95D2F7CB01BA01609506
:1047C0007095809590950091380210913902209152
:1047D0003A0230913B0260237123822393231F917D
:1047E0000F910C9489230F931F9341E050E060E0F8
:1047F00070E004C0440F551F661F771F8A95D2F7DB
:104800008091380290913902A0913A02B0913B0216
:104810008A019B01082719272A273B27C901B801CC
:104820001F910F910C9489230F931F9300913802CD
:104830001091390220913A0230913B02602B712B8A
:10484000822B932B1F910F910C9489230F931F930D
:10485000009138021091390220913A0230913B02C6
:1048600060237123822393231F910F910C9489233A
:104870000F931F93009138021091390220913A0250
:1048800030913B0260277127822793271F910F9158
:104890000C9489230895BF92CF92DF92EF92FF92FA
:1048A0000F931F93CF93DF938C01C0903802D09069
:1048B0003902E0903A02F0903B0280913C029091E4
:1048C0003D02A0913E02B0913F02C82AD92AEA2AAD
:1048D000FB2ACFE1D0E0BC2ED701C6010C2E04C0CC
:1048E000B695A795979587950A94D2F780FD0EC047
:1048F000219788F7B12C8B2DDF91CF911F910F91CC
:10490000FF90EF90DF90CF90BF900895B8018C2F6B
:104910000E94A810019761F3EECFCF93DF93EC01D3
:104920000E944B24BE01DF91CF910C94A810CB01C3
:104930000C948D24682F80915401909155010C9412
:10494000C625682F80915401909155010C94C8257B
:1049500080915401909155010C94CA258091400298
:104960008595859585950895809140028770089575
:1049700098E0899F90011124622B609340020C946F
:10498000AF23909140028095892380934002282F85
:10499000277061F4282F082E000C330B9217130692
:1049A00029F08595859585950C94D023089590914F
:1049B0004002977081E009F480E00895E09154018D
:1049C000F091550180914C028083E0915401F09167
:1049D0005501808190914B02892B8083E091540195
:1049E000F0915501808190914A02892B80839091AA
:1049F0004102992381F0E0915401F09155018081A9
:104A0000892B808380915401909155010E949225B9
:104A100081111092410280915401909155010C94A2
:104A2000601A80914C02089590914C02892B8093DA
:104A30004C020895809590914C02982390934C02DB
:104A4000089510924C02089580914B020895909120
:104A50004B02892B80934B020895809590914B02D5
:104A6000982390934B02089510924B0208959091D1
:104A70004A02892B80934A020895809590914A02B8
:104A8000982390934A02089510924A0208958093C1
:104A900041020895109241020895809141020895C3
:104AA0006DEE7EEF90E080E00E94783560E082E07D
:104AB00090E00E945A3560E083E090E00E945A3511
:104AC00060E084E090E00E945A3560E085E090E08C
:104AD0000E945A3540E050E0BA0188E090E00C9422
:104AE0006C3590E080E00E94543521E08D3E9E4F71
:104AF00009F020E0822F089582E090E00C94463582
:104B000083E090E00C944635682F83E090E00C94AD
:104B10005A3584E090E00C944635682F84E090E0AC
:104B20000C945A35FC0131969C01285F3F4F80E080
:104B3000919191118F5FE217F307D1F708959C01CE
:104B4000FC0132969FEF80E04191461751F09F3F64
:104B500019F4411101C0982F8F5F8630A9F79F3F4C
:104B600009F40895290F311D97FD3A95F9016283E3
:104B70000895FC01329608962191261303C0DF01A7
:104B800011971C92E817F907B9F708950C949F251F
:104B90000C94B925FC0111821282138214821582B1
:104BA0001682178208958091AB02843039F11092F9
:104BB0004E0288E190E020E40FB6F894A895809327
:104BC00060000FBE2093600080E00E94891083B7D0
:104BD000817F846083BF83B7816083BF7894889529
:104BE00083B78E7F83BF0FB6F894A895809160003D
:104BF000886180936000109260000FBE0895089550
:104C00000895CF930E94FF250E94630A0E94002608
:104C1000C0E08C2F0E94A30A811105C0CF5FCE3067
:104C2000C1F7CF91089581E0FCCF0E94571F0E94E9
:104C3000541A0C9489101F921FB61F9211248F933F
:104C40009F93AF93BF9380914E02811113C08091C7
:104C5000A1029091A202A091A302B091A402419658
:104C6000A11DB11D8093A1029093A202A093A30263
:104C7000B093A402BF91AF919F918F911F901FBEDF
:104C80001F90189582E084BD93E095BD9AEF97BD83
:104C900080936E0008952FB7F8948091A1029091AF
:104CA000A202A091A302B091A4022FBF0895CF92B7
:104CB000DF92EF92FF920F931F932FB7F8944091DA
:104CC000A1025091A2026091A3027091A4022FBF91
:104CD0006A017B01EE24FF248C0130E020E0C01645
:104CE000D106E206F30650F0481B590BCA011F918A
:104CF0000F91FF90EF90DF90CF90089541505109B0
:104D0000F3CF78941F921FB61F9211248F939F9315
:104D1000AF93BF938091A1029091A202A091A302B0
:104D2000B091A4020196A11DB11D8093A1029093A0
:104D3000A202A093A302B093A402BF91AF919F914E
:104D40008F911F901FBE1F90189587E797E790934C
:104D500001088093000888E19AE00FB6F894A895BE
:104D6000809360000FBE90936000FFCF0E9471257A
:104D7000811102C00E9450250E947C2580934D0223
:104D80000E94892590E09093A6028093A5020E943C
:104D90008025682F70E090E080E00C944D23809196
:104DA000510280FF12C06091590185E0689FB001F7
:104DB0001124759567957595679560387105A8F507
:104DC00061157105A1F1862F089581FF09C06091D9
:104DD000590185E0689FB001112475956795EDCF65
:104DE0006091590182FD0AC0809152028823D1F05E
:104DF0009091580160915901891728F085E0689FCA
:104E0000B0011124DACF869FB001112485E0869F7E
:104E10009001879F300D1124692F70E0C9010E9415
:104E20002C35CBCF65E070E0CECF8FE7089581E0E1
:104E300008958091510280FF0CC06091570170E08D
:104E400075956795759567956115710549F1862F7B
:104E5000089581FF06C06091570170E075956795D0
:104E6000F3CF6091570182FD0BC0909152029923BC
:104E7000A1F06091560180915701961738F0682F84
:104E800070E06038710500F38FE70895899FC001D5
:104E9000112470E00E942C35F4CF61E070E0D7CF90
:104EA00081E00895803F31F40E94CF268195809360
:104EB00055020895813F19F40E94CF26F8CF823F12
:104EC00031F40E94CF268195809354020895833F48
:104ED00019F40E94CF26F8CF893F29F40E941927A0
:104EE0008093560208958A3F21F40E9419278195E4
:104EF000F7CF8B3F31F40E94192781958093570299
:104F000008958C3F19F40E941927F8CF843F31F49B
:104F1000809153028160809353020895853F21F46C
:104F2000809153028260F7CF863F21F48091530233
:104F30008460F1CF873F21F4809153028860EBCFEA
:104F4000883F21F4809153028061E5CF8D3F31F499
:104F50008091510281608093510208958E3F21F427
:104F6000809151028260F7CF8F3FB9F78091510253
:104F70008460F1CF90915402803F41F480915502BA
:104F800087FD10925502992371F00895813F29F40D
:104F9000809155021816ACF3F6CF823F81F497FF4B
:104FA000F2CF109254028091550290915602892BB3
:104FB00090915702892B49F7109252020895833F2E
:104FC00019F4191674F3DFCF893F39F48091560232
:104FD0001816CCF610925602D6CF8A3F29F480914B
:104FE000560287FFD0CFF6CF8B3F39F4809157021E
:104FF00087FFC9CF10925702C6CF8C3F29F480910A
:1050000057021816BCF3BFCF843F31F4809153028E
:105010008E7F80935302B7CF853F21F48091530256
:105020008D7FF7CF863F21F4809153028B7FF1CFA4
:10503000873F21F480915302877FEBCF883F21F493
:10504000809153028F7EE5CF8D3F31F480915102E4
:105050008E7F8093510297CF8E3F21F48091510231
:105060008D7FF7CF8F3F09F08ECF809151028B7FDC
:10507000F0CF83E592E00E946B1A0E944B2690933A
:10508000500280934F0208951F93CF93DF93809136
:105090004F02909150020E945726AC01909152020B
:1050A00020915A0130E0911106C020915B018AE005
:1050B000289F900111244217530778F02091540241
:1050C000C0915502D091560210915702211109C08A
:1050D0008C2F8D2B812B09F05DC0DF91CF911F911B
:1050E00008959F3F19F09F5F90935202121624F487
:1050F0000E94CF26809354028091540287FF05C0FE
:105100000E94CF268195809354021C1624F40E949D
:10511000CF26809355028091550287FF05C00E94DB
:10512000CF2681958093550240915402442379F013
:1051300030915502332359F025EB4203A00111248D
:1051400050935402320390011124309355021D16DE
:1051500024F40E941927809356028091560287FFFB
:1051600005C00E941927819580935602111624F4D8
:105170000E941927809357028091570287FF05C02C
:105180000E941927819580935702DF91CF911F913B
:105190000C9439289F3F09F0A6CFB7CF85E0E3E50F
:1051A000F2E0DF011D928A95E9F710925202109207
:1051B00051020895833081F128F4813059F0823012
:1051C000D1F00895853009F449C0B8F1863009F46A
:1051D00056C0089580915B01482F460F5527551FF3
:1051E0004F3F510524F4680F60935B0108958FEFE2
:1051F00080935B01089580915A01482F460F5527EF
:10520000551F4F3F510524F4680F60935A010895CC
:105210008FEF80935A01089580915901482F460FCE
:105220005527551F4F3F510524F4680F60935901CE
:1052300008958FEF80935901089580915801482F68
:10524000460F5527551F4F3F510524F4680F6093B3
:10525000580108958FEF8093580108958091570168
:10526000482F460F5527551F4F3F510524F4680F0F
:105270006093570108958FEF8093570108958091AF
:105280005601482F460F5527551F4F3F510524F40F
:10529000680F6093560108958FEF8093560108952B
:1052A000833011F128F4813049F0823091F0089573
:1052B000853081F120F18630C1F1089580915B0144
:1052C000681720F4861B80935B01089510925B01A0
:1052D000089580915A01681720F4861B80935A0123
:1052E000089510925A01089580915901681720F489
:1052F000861B809359010895109259010895809159
:105300005801681720F4861B809358010895109265
:105310005801089580915701681720F4861B8093E7
:10532000570108951092570108958091560168170A
:1053300020F4861B8093560108951092560108951B
:105340000F931F9341E050E060E070E08A019B0101
:1053500004C0000F111F221F331F8A95D2F7C90105
:10536000B8010E944D231F910F910C94571F873253
:10537000A8F58E3108F079C08E3009F46BC058F46E
:10538000873009F459C08B3009F44BC0863009F4DA
:105390004AC080E00895863109F443C068F4803142
:1053A000C1F790914D02892F877F93FF886080938A
:1053B0004D0283FD0FC035C0893199F18B3149F71A
:1053C00090914D02892F8D7F91FF826080934D02D5
:1053D00081FF27C080914D02816039C0883309F177
:1053E00050F4893221F0853311F0873291F680E054
:1053F0000E94A02916C08334D1F320F48A3348F2E6
:105400008953F6CF883429F60E94571F2FEF83ED7A
:1054100090E3215080409040E1F700C000000E94DE
:10542000A52681E0089580914D02807F80934D02F2
:1054300081E080935902089590914D02892F8E7FCB
:1054400090FF816080934D0280FDEBCF817F809340
:105450004D02E7CF90914D02892F8B7F92FF8460A0
:1054600080934D0282FDB6CFDCCF8D51C1CF80E05D
:1054700008950C94372A8E518A3030F4E82FF0E0EA
:10548000E558FE4F8081089580E00895CF93C82F9E
:10549000809159028130D1F0882331F08230D1F1EE
:1054A0001092590280E010C0E0915401F091550132
:1054B00080818232B9F78C2F0E94372A81111EC059
:1054C0008C2F0E94B7298170CF910895E0915401EB
:1054D000F09155018081823271F38C2F0E94392A1C
:1054E00081110AC0C43199F060F4CB3029F0C03189
:1054F00051F782E08093590281E0E5CF81E090E0AE
:10550000E2CFC93221F0C833B9F380E0DCCF10928A
:105510005902FBCFC93219F188F4C43101F120F4EA
:10552000C73081F181E0D0CF82EE8C0F8630D0F78A
:105530008C2F0E943B2A80935802F4CFCE3401F185
:1055400040F46AE0CB3471F7809158020E94DA2867
:10555000E9CFC13579F061E0C235B1F3E3CF809195
:105560005802882319F010925802DCCF81E0809312
:105570005902AACF61E0809158020E945029D2CFEF
:105580006AE0F9CF8EE180935B0182E380935A0158
:105590008AE08093590184E18093580188E08093E8
:1055A000570188E280935601BDCF80916202089531
:1055B0000F931F93CF93DF9300D00F92CDB7DEB739
:1055C0008C010E94212D823011F0843019F583E086
:1055D00089831B830A838093E9008FEF9091E80011
:1055E000815095FD06C095ED9A95F1F70000811167
:1055F000F5CF8091E80085FF0DC050E040E063E00A
:1056000070E0CE0101960E943E2D8091E8008E77D9
:105610008093E8000F900F900F90DF91CF911F9132
:105620000F910895CF93DF9300D00F92CDB7DEB7DF
:105630002091AB02243031F522E029838058910972
:105640009B838A8383E08093E9008FEF9091E80049
:10565000815095FD06C095ED9A95F1F700008111F6
:10566000F5CF8091E80085FF0DC050E040E063E099
:1056700070E0CE0101960E943E2D8091E8008E7769
:105680008093E8000F900F900F90DF91CF910895D5
:10569000CF93DF93EC010E94212D823011F08430F2
:1056A000F9F482E08093E9008FEF9091E800815057
:1056B00095FD06C095ED9A95F1F700008111F5CFA3
:1056C0008091E80085FF0CC050E040E065E070E0AC
:1056D000CE010E943E2D8091E8008E778093E800F5
:1056E000DF91CF910895CF93DF93EC010E94212D9C
:1056F000823011F0843039F581E08093E9008FEF3A
:105700009091E800815095FD06C095ED9A95F1F7CE
:1057100000008111F5CF8091E80085FF14C050E0B2
:1057200040E068E070E0CE010E943E2D8091E800EC
:105730008E778093E80088E0FE01AAE5B2E0019050
:105740000D928A95E1F7DF91CF9108958091AA0299
:10575000811109C00E94CE2E0E942B2F8091E20061
:1057600084608093E20008951092AA02089508953B
:1057700008950C94152642E061EC81E00E944A2EC7
:1057800042E061EC82E00E944A2E42E061EC83E05C
:105790000C944A2E8091AD02833009F452C030F44B
:1057A000813059F1823009F48EC008958A3009F4AD
:1057B0007AC08B3009F460C0893009F041C0809113
:1057C000AC028132E9F58091B0029091B102892B4F
:1057D000B9F58091E800877F8093E8008091E80028
:1057E00082FF2AC08091F100809362028091E800DC
:1057F0008B778093E8000C947E2E8091AC02813AE6
:10580000F9F48091E800877F8093E8008091B002EE
:105810009091B102892B61F468E08AE592E070E032
:105820000E948D2D8091E8008B778093E800089589
:1058300060E090E080E0F3CF8091AB028111CECFA9
:1058400008958091AC02813AD9F78091B00290918D
:10585000B102892BA9F78091E800877F8093E80047
:105860008091E80080FFFCCF809166018093F10079
:105870008091E8008E77BDCF8091AC02813201F734
:105880008091B0029091B102892BD1F68091E8000D
:10589000877F8093E8000E947E2E8091AE028093E5
:1058A00066010C94571F8091AC02813249F68091B9
:1058B000E800877F8093E8000E947E2E8091AF02EF
:1058C0008093630208958091AC02813A09F0B8CFC9
:1058D0008091E800877F8093E8008091E80080FF56
:1058E000FCCF80916302C2CF84B7877F84BF0FB69D
:1058F000F894A89580916000886180936000109270
:1059000060000FBE80E880936100109261000E94E9
:10591000A21A0E94CE2E0E942B2F8091E20084605A
:105920008093E20078940E94B4310E94A61A8CE51C
:1059300091E00E944F1A8091AB02853029F00E94BD
:10594000AE1A0E949718F7CF0E94D3258091A90222
:10595000882389F30E940126882369F30E94282D59
:10596000EACF0C94B32C292F33272330310521F1B2
:1059700068F42130310509F449C02230310509F4B9
:105980004AC090E080E030E020E029C021323105BB
:1059900081F122323105A9F76330710590F7FB01DF
:1059A000EE0FFF1FE857FE4F208131816B577E4F6E
:1059B000FB01808190E013C099278130910599F017
:1059C000009741F08230910589F00397D1F6E0E627
:1059D000F0E102C0EEE8F0E1849190E09F01FA016D
:1059E000318320830895E6E7F0E1F6CFE6E6F0E1C3
:1059F000F3CF6330710528F6660F771FFB01E2577E
:105A0000FE4F2081318189E090E0E9CF82E190E092
:105A100026EE30E1E4CF84E590E022E930E1DFCF0B
:105A20000895CF93C82F0E94102DC0936402CF9188
:105A300008958091AB02843011F482E0089581E0F2
:105A4000089580916402811102C00C94192D08956B
:105A500080E189BD82E189BD09B400FEFDCF80915E
:105A6000D8008F7D8093D8008091E0008260809381
:105A7000E0008091E00081FDFCCF0895AF92BF92DD
:105A8000CF92DF92FF920F931F93CF93DF936C011E
:105A9000EB018A010E949D2EF82E811123C0011571
:105AA000110539F0F80180819181C81BD90BC80E0E
:105AB000D91EB12CA12C2097A9F08091E80085FD7A
:105AC00022C08091E8008E778093E80001151105CF
:105AD000A1F0F80180819181A80EB91EB182A08247
:105AE00085E0F82E8F2DDF91CF911F910F91FF90C0
:105AF000DF90CF90BF90AF9008950E949D2E882395
:105B0000D1F2F82EEFCFF60181916F018093F10071
:105B10002197FFEFAF1ABF0ACECFFC018091B202EE
:105B20009091B30286179707A0F06115710529F4CB
:105B30009091E8009E779093E80090E061157105E0
:105B400051F4911108C08091E80082FF34C080E0D8
:105B50000895BC01F2CF8091AB028823C1F185305A
:105B6000C1F18091E80083FD30C08091E80082FDA2
:105B7000EACF8091E80080FFE1CF8091F30020918F
:105B8000F200382F6115710519F02830310558F0F1
:105B900091E02830310509F090E02091E8002E775F
:105BA0002093E800CBCF81918093F100615071097F
:105BB0002F5F3F4FE7CF8091AB02882341F08530C4
:105BC00041F08091E80083FFBECF81E0089582E03C
:105BD000089583E00895FC018091B2029091B30290
:105BE00086179707A0F06115710529F48091E800E8
:105BF0008E778093E80090E06115710551F4911162
:105C000008C08091E80082FF35C080E00895BC01A3
:105C1000F2CF8091AB028823C9F18530C9F1809120
:105C2000E80083FD31C08091E80082FDEACF8091D9
:105C3000E80080FFE1CF8091F3002091F200382F3F
:105C40006115710519F02830310558F091E02830C0
:105C5000310509F090E08091E8008E778093E800AC
:105C6000CBCF84918093F1003196615071092F5F01
:105C70003F4FE6CF8091AB02882341F0853041F061
:105C80008091E80083FFBDCF81E0089582E0089510
:105C900083E00895982F973028F08F708093E90063
:105CA00081E008959093E900242F762F50E0981713
:105CB00031F07091EC002091ED005091F00021FD49
:105CC00002C09F5FE8CF3091EB003E7F3093EB0046
:105CD0003091ED003D7F3093ED003091EB0031606D
:105CE0003093EB007093EC002093ED005093F000A4
:105CF0002091EE0027FDE5CF80E008958091AC0271
:105D000087FF13C08091E80082FF06C08091E80001
:105D10008B778093E80004C08091AB028111F2CFB1
:105D200008958091AB028823D9F38091E80080FF29
:105D3000F8CF8091E8008E77ECCF2091E40030918D
:105D4000E50095E6A9012091EC00822F817020FFEB
:105D500006C08091E80080FF06C080E00895209191
:105D6000E80022FD1AC08091AB02882389F08530BB
:105D700089F08091EB0085FD0FC02091E400309107
:105D8000E50042175307F9F29150E1F684E00895D7
:105D900082E0089583E0089581E008950E943C2FF9
:105DA0000E94442FE0EEF0E0808181608083E8ED86
:105DB000F0E080818F77808319BCA7EDB0E08C91F3
:105DC0008E7F8C9380818F7E80831092AA020895AB
:105DD0000F931F93CF93DF930E943C2F0E94442F79
:105DE000C8EDD0E088818F77888388818068888338
:105DF00088818F7D888319BC1092AB021092A70214
:105E00001092A9021092A80200EE10E0F801808121
:105E10008B7F808388818160888342E060E080E0BE
:105E20000E944A2EE1EEF0E080818E7F8083E2EED8
:105E3000F0E0808181608083808188608083F801C8
:105E400080818E7F8083888180618883DF91CF917C
:105E50001F910F910895E8EDF0E080818F7E80839F
:105E6000E7EDF0E080818160808384E082BF81E0A3
:105E70008093AA020C94E82EE8EDF0E080818E7FFA
:105E800080831092E20008951092DA001092E100EF
:105E900008951F920F920FB60F9211242F933F93E4
:105EA0004F935F936F937F938F939F93AF93BF9322
:105EB000EF93FF938091E10082FF0BC08091E2009D
:105EC00082FF07C08091E1008B7F8093E1000E94F8
:105ED000B3318091DA0080FF19C08091D80080FF33
:105EE00015C08091DA008E7F8093DA008091D9000E
:105EF00080FF96C080E189BD82E189BD09B400FEC2
:105F0000FDCF81E08093AB020E94A62B8091E1003F
:105F100080FF19C08091E20080FF15C08091E200EF
:105F20008E7F8093E2008091E20080618093E200A6
:105F30008091D80080628093D80019BC85E080935E
:105F4000AB020E94B82B8091E10084FF2BC08091AE
:105F5000E20084FF27C080E189BD82E189BD89B567
:105F6000982F917080FFFBCF8091D8008F7D809318
:105F7000D8008091E1008F7E8093E1008091E20063
:105F80008F7E8093E2008091E20081608093E20046
:105F90008091A702882309F449C084E08093AB0272
:105FA0000E94B92B8091E10083FF29C08091E2001B
:105FB00083FF25C08091E100877F8093E10082E02C
:105FC0008093AB021092A7028091E1008E7F8093B4
:105FD000E1008091E2008E7F8093E2008091E200F8
:105FE00080618093E20042E060E080E00E944A2EFF
:105FF0008091F00088608093F0000E94B72BFF91A1
:10600000EF91BF91AF919F918F917F916F915F9130
:106010004F913F912F910F900FBE0F901F901895A9
:1060200019BC1092AB020E94B42B70CF8091E30098
:1060300087FD93E09093AB02B3CF1F920F920FB600
:106040000F9211242F933F934F935F936F937F93FE
:106050008F939F93AF93BF93CF93DF93EF93FF9370
:10606000D091E900DF708091EC00C82FC17080FDF5
:10607000C0E81092E9008091F000877F8093F000E3
:1060800078940E9461301092E9008091F00088605D
:106090008093F000CD2BCF70C093E900FF91EF917A
:1060A000DF91CF91BF91AF919F918F917F916F9130
:1060B0005F914F913F912F910F900FBE0F901F90C6
:1060C00018951F93CF93DF93CDB7DEB7AA970FB67E
:1060D000F894DEBF0FBECDBF8CEA92E02091F100B4
:1060E000FC012193CF01F2E0843B9F07B9F70E94A6
:1060F000CA2B8091E80083FF1EC18091AC02909171
:10610000AD029A3008F017C1E92FF0E0EB51FA4CDC
:106110000C944035803899F0823809F00CC1809198
:10612000B0028F70873008F006C18093E90080913B
:10613000EB0085FB882780F91092E90006C080916A
:10614000A8029091A902911182609091E800977F36
:106150009093E8008093F1001092F1008091E800A4
:106160008E77E5C0882309F4D3C0823009F0E3C0FC
:106170008091AE028111D6C08091B0028F702FEF56
:10618000280F263008F0D7C08093E9002091EB005B
:1061900020FFC8C0933031F48091EB00806280937F
:1061A000EB00C0C09091EB0090619093EB0021E078
:1061B00030E001C0220F8A95EAF72093EA0010929E
:1061C000EA008091EB008860EACF8111B4C01091A1
