:100000000C9455070C94A8090C949C070C949C071D
:100010000C949C070C949C070C949C070C949C07D4
:100020000C949C070C949C070C94C6260C949A275D
:100030000C949A1D0C949C070C949C070C949C07A0
:100040000C949C070C949C070C949C070C949C07A4
:100050000C949C070C94001E0C949C070C949C0719
:100060000C949C070C949C070C949C070C949C0784
:100070000C949C070C949C070C949C070C949C0774
:100080000C949C070C949C070C949C070C949C0764
:100090000C949C070C949C070C949C070C949C0754
:1000A0000C949C070C949C070C949C0701E301E0C2
:1000B000014F024F02E002E30001E301E0015002C0
:1000C0005002E002E30001E30115021574FF02E3B0
:1000D00074FF010602060110021001070207012841
:1000E000022874FF01130213010C020C011102110A
:1000F000010A020A012C022C01E00119021902E096
:100100000001E30115021502E301060206011002D7
:1001100010010702070128022874FF74FF010C0276
:100120000C01130213010602060112021201110250
:100130001101090209010C020C010A020A012C0238
:100140002C0138023801040204010F020F010F02D2
:100150000F012802280001E30115021574FF02E3D4
:1001600074FF0106020601100210010702070128B0
:1001700002280001E0010402040106020602E00078
:1001800001E00119021902E00001E0010602060285
:10019000E000636D640128004143012800750A01F5
:1001A0002B022B010C020C01110211012B022B015D
:1001B000280228012B022B012B022B012B022B01E1
:1001C0000C020C01110211012B022B012802280044
:1001D000750A012B022B0112021201170217012BC3
:1001E000022B01280228012B022B012B022B012BB1
:1001F000022B011D021D01150215012B022B0128E6
:10020000022800750A012B022B01120212011302AF
:1002100013012B022B01280228012B022B012B0298
:100220002B012B022B011D021D01150215012B02B2
:100230002B01280228006970636F6E666967202FA2
:10024000616C6C00747300750A01270227010602B5
:1002500006012B022B012B022B01040204012B02AD
:100260002B00011B021B00750A01E0011702170198
:100270001902190128022802E0007777772E73759A
:1002800070706F72742E7865726F782E636F6D0167
:100290002800617061657A40676F746F636F732EB9
:1002A000636F6D0061646D696E012B313131310115
:1002B000280001E3012B022B02E3002E001E001F89
:1002C000002000210022002B4514001A0009001311
:1002D000000A00284004001500160017000700E17E
:1002E000001D001B00060019000500010001005060
:1002F000004F002A00DD5C0100010029613500008B
:100300003046002D00270026002500240023003160
:100310000033001C0018000F000D00280012000C14
:1003200000080011000B00350038003700360010BF
:10033000000E0001000100510052002C00280001B5
:100340000001004E004B00DE5C4C002E001E001F22
:10035000002000210022002B4514001A000800157F
:10036000001700284004001600070009000A00E1F9
:10037000001D001B0006001900050001004A0029AD
:100380000046000030DD5C2B451E001F00200021D0
:100390000022002D00270026002500240023003124
:1003A00000130012000C0018001C00280033000F7E
:1003B000000E000D000B003500380037003600102D
:1003C00000110001004D004A004C00DE5C28002DA9
:1003D000001F001F001F001F001F002E001E001F17
:1003E000002000210022002B0034003600370013CB
:1003F000001C00296104001200080018000C00E134
:1004000000330014000D000E001B002B451E001FC2
:10041000002000210022002B451E001F002000218B
:100420000022002D00270026002500240023002D97
:10043000000F00150006000A000900380016001120
:100440000017000B00070028401D0019001A0010BB
:100450000005002D001F001F001F001F001F002DA2
:10046000001F001F001F001F001F0035000C300D73
:10047000300E3001000100010001000330023001A4
:10048000000F3001000630010001000100010001F1
:100490000001000130010001000100005C010001C9
:1004A0000001000100005C2B45010001000100017A
:1004B000000100010030002F0001000100010001D7
:1004C000000A301030010001000100010001000BA2
:1004D00030520001000100010001004F00510050A6
:1004E000000100005C010001000100010001002D7D
:1004F000000100010001000100010035001E001F85
:100500000020002100220025001E0003301E001ED6
:10051000001E0025001E001E001E001E001E0025DD
:10052000001E001E001E001E001E002961E200E3E6
:10053000001E001E0035002B4501000100010001D6
:100540000001002D002700260025002400230000C4
:100550000056002300220021000000000057002068
:10056000001F001E000000000000003700270027C9
:10057000000000340001004F00500001004C002D2D
:10058000000100010001000100010045003A003BAC
:10059000003C003D003E0001002000200020002023
:1005A00000200001000100520001000100010029AB
:1005B00061E200E3000357DD5C2A002B451E001FAB
:1005C000002000210022002B451E001F00200021DA
:1005D000002200440043004200410040003F00016F
:1005E00000010001000100010001000100520001B2
:1005F000000100010001004F005100500034005282
:10060000002C002D00270026002500240023002DAB
:10061000001F001F001F001F001F0000000000003F
:1006200000000000000000000000000000000000CA
:1006300000000000000000000000000000000000BA
:1006400000000000000000000000000000000000AA
:10065000000000000000000000000000000000009A
:100BB00000000000000000000000000100DA5CDB23
:100BC0005CC15CC45CC35C0100DB5C01001D5C1E9D
:100BD0005C135C01001E001E000100010001000109
:100BE0000001000100DA5C010001000100010001C8
:100BF00000010001000100010001000100010001ED
:100C0000000100005C005CC75CC85CC55CC65C01A0
:100C100000015CDC5CDA5CDB5C0A5C010001000169
:100C200000010001000100010001000100010001BC
:100C300000010001000100010001000100010001AC
:100C4000000100010001000100010000000000009F
:100C50000000002A2B280000000000000000000017
:100C600000000000000029000000002C1E3420219C
:100C70002224342627252E362D3738271E1F2021E3
:100C800022232425263333362E37381F0405060742
:100C900008090A0B0C0D0E0F10111213141516175C
:100CA00018191A1B1C1D2F3130232D35040506077A
:100CB00008090A0B0C0D0E0F10111213141516173C
:100CC00018191A1B1C1D2F3130354C000000000074
:100CD0000000000000000000000000000000000014
:100CE0000000000000000000000000000101010100
:100CF00001010001010101000000000000000000EE
:100D000000000000000100010001010101010101DA
:100D100001010101010101010101010101010101C3
:100D200001010101010100000001010000000000BB
:100D300000000000000000000000000000000000B3
:100D40000000000000000101010100040330000068
:100D50000012034D0061006E00750066006F0072A6
:100D6000006D000000160343004800200062006F81
:100D70000078004D006F0064007300000004030958
:100D80000409025400030100A0FA09040000010351
:100D90000101000921110100012240000705810322
:100DA00008000A09040100010301020009211101E0
:100DB0000001224D000705820308000A0904020011
:100DC000010300000009211101000122360007057E
:100DD000830308000A1201100100000008EDFE6004
:100DE0003001000102030105010980A101850216FD
:100DF00001002603001A81002A83007510950181E5
:100E000000C0050C0901A1018503160100269C0202
:100E10001A01002A9C02751095018100C005010984
:100E200002A1010901A100050919012905150025E3
:100E3000019505750181029501750381010501097F
:100E40003009311581257F9502750881060938150D
:100E500081257F950175088106050C0A38021581E8
:100E6000257F950175088106C0C005010906A1010D
:100E7000050719E029E7150025019508750181028C
:100E80009501750881010508190129059505750168
:100E900091029501750391010507190029FF1500BD
:100EA00026FF00950675088100C011241FBECFEFF4
:100EB000DAE0DEBFCDBF04B603FE27C08091580242
:100EC00090915902A0915A02B0915B028730904BE9
:100ED000A740B04BD1F410925802109259021092D0
:100EE0005A0210925B0214BE84B7877F84BF0FB68C
:100EF000F894A895809160008861809360001092BA
:100F000060000FBEE0E0F8E3099511E0A0E0B1E079
:100F1000E4E2F4E502C005900D92A039B107D9F7DB
:100F200022E0A0E9B1E001C01D92A835B207E1F7C7
:100F30000E94F3230C94B0290C9400000C943A0BFB
:100F400080912B028B6080932B02ABE6B1E061E0D5
:100F500070E08D91E82FE295EF70F0E041A18F7085
:100F60009B0101C0220F8A95EAF7922F9095942356
:100F700091A382A1822B82A381E0A137B80749F710
:100F8000A5E6B1E061E070E08D91E82FE295EF70A9
:100F9000F0E041A18F709B0101C0220F8A95EAF712
:100FA000922F9095942391A382A1822B82A381E01A
:100FB000AB36B80749F7559A209AE0E9F1E0ADE978
:100FC000B1E08CE991E011921D928E179F07D9F73D
:100FD0000C94D60D3F924F925F926F927F928F92B8
:100FE0009F92AF92BF92CF92DF92EF92FF920F93B8
:100FF0001F93CF93DF9300D000D0CDB7DEB78091A1
:1010000000018111B0C086E090E09A838983098154
:101010001A8103561E4F8BE6E82E81E0F82E6801F8
:10102000AA24A394B12C8824839424E0922ED60180
:101030006D906D01FD011292FC83EB83D7018D91C0
:101040007D01E82FE295EF70F0E091A18F70B5017E
:1010500001C0660F8A95EAF7892F862B81A382A1AA
:10106000762E7094872182A3B0EABA95F1F745E60F
:1010700051E090E080E0DA015D90AD01252D2295F0
:101080002F7030E0D90190963C90AB81BC814C90A0
:10109000352D3F70D50102C0AA0FBB1F3A95E2F76C
:1010A0009D01232109F062C02A2D082E01C0220FC4
:1010B0000A94EAF72429AB81BC812C9301968630EF
:1010C0009105C9F681A1782271A282A1682B62A341
:1010D0008C91681659F08092A9010E94CA1D9093C4
:1010E000AB018093AA018BB189258BB9B1E7EB16CF
:1010F000B1E0FB0609F09BCF8091A9018823E1F0C4
:101100008091AA019091AB010E94D61D0697A0F094
:10111000E981FA81E057FE4FFA83E98380E0D80144
:101120009D918D01E981FA819193FA83E9838F5F23
:101130008630A9F71092A90181E00F900F900F90CF
:101140000F90DF91CF911F910F91FF90EF90DF9063
:10115000CF90BF90AF909F908F907F906F905F9057
:101160004F903F9008951A82198251CF20E0A2CF6C
:10117000CF93DF9380910001D0E0C0E0882311F08D
:10118000C6E0D0E00E940D0A009789F4C057DE4FF8
:1011900030E020E0F901E255FE4F408149932F5F96
:1011A0003F4F26303105B1F7DF91CF91089581E0AF
:1011B00090E0FACFCF930E94EA07C82F0E94B808A8
:1011C000892BE1F05D9880919C018F5F80939C0159
:1011D000863078F080910001F0E0E0E0882311F0A3
:1011E000E6E0F0E0E057FE4F86E090E011920197D4
:1011F000E9F70E94D80D8C2FCF9108955D9A109237
:101200009C01F7CF0E94EA0780910001E6E0F0E040
:10121000882311F0F0E0E0E0E057FE4F90E080E03E
:101220002191DC01A255BE4F2C9301968630910589
:10123000B9F70895E82FF0E0E057FE4F8081089558
:101240000895E8EDF0E08081806180838AE18A95ED
:10125000F1F700C08091D900817008958EE090E090
:101260000E947A2991E0811101C090E090930001E1
:101270000E942109882321F00E949B0978940895F7
:101280000E94C11D0E949F09F9CF0E94A0070E94E1
:101290000209FDCF0E942E090E942109811102C07E
:1012A0000E9445090895509A08955098589A0895B3
:1012B000589A08950E945509489BFECF80E88A9568
:1012C000F1F708950E94550998E080E029B1880F50
:1012D0002170822B20E82A95F1F725E02A95F1F775
:1012E0000000915099F708950F931F93CF93082F03
:1012F0000E945309C8E010E0C15020F4CF911F9123
:101300000F910895C8010C2E02C0959587950A94F7
:10131000E2F780FF06C00E94580980E88A95F1F73D
:10132000EBCF5898FACF0E945309589880E88A95D5
:10133000F1F70C9458090E9453090C9458090E9423
:101340005509E89AE9E6F0E080818C7F8083089572
:101350001F920F920FB60F921124EF92FF921F93DC
:101360002F933F934F935F936F937F938F939F93AD
:10137000AF93BF93CF93DF93EF93FF930E949309B3
:10138000D0E0C0E010E0CE0182559E4F7C01FC0110
:1013900080810E9474090E949309F7018081180FCF
:1013A0002196C630D10579F7812F0E9474090E94D9
:1013B0009309F0E8FA95F1F780E48A95F1F70E9435
:1013C00062098093AD010E949309D091AD010E9402
:1013D0006209C82F0E9493090E9455098091AC01AF
:1013E000DC17C9F081608093AC01FF91EF91DF9130
:1013F000CF91BF91AF919F918F917F916F915F91AD
:101400004F913F912F911F91FF90EF900F900FBE42
:101410000F901F9018958E7FE6CFEF92FF921F934B
:10142000CF93DF93F8940E945309589825E02A95AA
:10143000F1F700000E9455090E94580930E83A95DA
:10144000F1F789B1182F117080FF09C0789481E0FD
:1014500090E0DF91CF911F91FF90EF9008950E944F
:101460005A09D0E0C0E00E946209FE01E255FE4F39
:101470007F0180830E945A09F7018081180F21960D
:10148000C630D10581F70E946209C82F0E945A090F
:101490001C13DCCF8091AD010E9474090E945A098F
:1014A0008091AD010E9474090E945A090E9453095B
:1014B0000E945809789490E080E0CBCF0C94390BCF
:1014C000FC018081813021F489E891E00C944D1A6F
:1014D000823019F480E891E0F9CF83E791E0F6CF0C
:1014E000FC018081813021F486E591E00C944D1A55
:1014F000823019F481E091E0F9CF86EC90E0F6CFEC
:10150000FC018081813021F489EB90E00C944D1A2C
:10151000823019F48CEA90E0F9CF0895FC018081C3
:10152000813031F488E30E940D1388E30C94E813B2
:1015300081E30E940D1381E3F9CFCF93DF93EC0198
:101540000E94031DBE0190E080E0DF91CF910C94DA
:10155000D31ADC016131A0F4E62FF0E0EE54F64D31
:101560000C94602912968C91129781116DC012967D
:101570008C911297882339F084EA92E00E946D0DD5
:1015800090E080E0089512968C911297882319F0CC
:1015900082E992E0F3CF12968C911297882319F08A
:1015A0008AE792E0EBCF12968C91129781114FC08F
:1015B00015968C911597982F907F12962C91222337
:1015C00041F0992311F080FFDBCF83E00E94351BAF
:1015D000D7CF992311F080FF3DC083E00E94561BB6
:1015E000CFCF12968C911297811137C012968C91A1
:1015F0001297882319F084E492E0C0CF12968C9160
:101600001297882319F086E392E0B8CF12968C9156
:101610001297811125C012968C911297811123C0C7
:1016200012968C911297811121C012968C91882369
:1016300009F4A6CF88E991E0A1CF12968C9181118F
:101640009FCF82E991E09ACF82EB92E0089587E6FE
:1016500092E0089582E692E0089587E492E008958A
:1016600083E092E0089580ED91E008958DE991E0A6
:10167000089508950895CF93FB018C3D2CE59207C2
:1016800051F158F48A3D2CE59207B1F08B3D9C4511
:10169000E1F0C1E08C2FCF9108958E3D2CE59207AB
:1016A00061F1F8F0803E9C45A1F7C28180E1CC2336
:1016B00079F10E94351B07C0C28181E090E0CC2304
:1016C00049F30E949D0AC0E0E5CFC28182E090E02C
:1016D000CC2301F3F6CFC281CC23E1F284E090E089
:1016E000F0CFC28183E0CC2359F00E94351B40E14A
:1016F00064E083E00E94C40DE6CFC28184E0F3CFB2
:101700000E94561B40E164E083E00E94C40DC2CFFA
:101710000E94561BBFCF81E008950C943B0B0E94A2
:10172000DD162FEF84E39CE0215080409040E1F7EC
:1017300000C0000087E797E79093010880930008B6
:101740000C94241E0F931F93CF93DF938C01FC0105
:10175000C081D181CE010E94D11BBE010E94E20D49
:10176000EC01B8010E94EA10B801CE010E948D0B75
:10177000882309F459C0B801CE010E942E11882394
:1017800009F452C0B801CE010E943D10882309F42B
:101790004BC0C531FCE5DF0709F427C1B0F4C13007
:1017A000ECE5DE0709F446C008F056C0C115DC457B
:1017B000B1F181E08093B9018093BA01C801DF9152
:1017C000CF911F910F910C948B0BC53DECE5DE077B
:1017D00009F4F0C0B8F4C33D8CE5D80709F4AEC0F5
:1017E000C43DDC4531F7F8018281882309F4CDC07E
:1017F0001092BA010E94CA1D9093B8018093B7015C
:1018000080E2A9C0C83DFCE5DF07F1F0C93DDC4539
:1018100081F6F8018281882339F082E01AC0F8014C
:10182000828181110E948F0B80E0DF91CF911F9107
:101830000F910895F80182818823B1F380912B02E2
:10184000816080932B02F0CFF8018281882361F3BD
:1018500080E00E948E24E8CFF8018281882309F479
:10186000ADCF0E94F01C811102C00E94D61C0E94C4
:10187000081D90E090934A0280934902FE01E350D4
:10188000FC45809149028160E231F10538F4ED5365
:10189000F64D0C9460298091490282608093490240
:1018A000809149020E940C1D0E94DD16BDCF8091DF
:1018B00049028460F3CF809149028860EFCF809124
:1018C00049028061EBCF809149028062E7CF80912D
:1018D00049028064E3CF809149028068DFCF809124
:1018E00049028C60DBCF809149028E7FD7CF8091F7
:1018F00049028D7FD3CF809149028B7FCFCF8091DA
:101900004902877FCBCF809149028F7EC7CF8091DC
:1019100049028F7DC3CF809149028F7BBFCF8091D9
:1019200049028F77BBCF80914902837FB7CF9091D7
:101930004902892F97FB87F98058B0CFF80182813F
:10194000882361F01092B9010E94CA1D9093B601DC
:101950008093B50182E00E94371466CF8091B9016F
:1019600081110FC08091B5019091B6010E94D61DE2
:101970008639910530F486E20E940D1386E20E94BA
:10198000E81382E00E943E144FCF8091BA0181118A
:101990000FC08091B7019091B8010E94D61D863981
:1019A000910530F487E20E940D1387E20E94E8134C
:1019B00080E2E8CFF801828181111ACF8091BA01CB
:1019C0008111F6CF8091B7019091B8010E94D61D88
:1019D0008639910568F780E20E943E1488E20E94F1
:1019E0000D1388E20E94E8131FCF0E94971CF80194
:1019F0009281992381F08A7A91E009F490E09093A2
:101A0000B401811106C089E20E94201C0E94641C5E
:101A10000BCF85E3F9CF8091B401811104C089E235
:101A20000E94271CF3CF85E3FBCFCF9390E0FC010E
:101A3000E55BF34FC4918553934FFC018491882358
:101A400069F081EE0E940D138C2F0E940D138C2FD4
:101A50000E94E81381EECF910C94E8138C2F0E9422
:101A60000D138C2FF8CFFF920F931F93CF93DF931B
:101A70008C01F62EF8018491882349F1E801219622
:101A8000813049F4FE011491812F0E940D13812FA2
:101A90000E94E81306C0823089F4FE0184910E94FE
:101AA0000D138E010F5F1F4F8F2D815018F3EFE93B
:101AB000FFE03197F1F700C00000F7CF833019F451
:101AC000FE018491E5CF0E94150DE801EACFDF9178
:101AD000CF911F910F91FF90089560E00C94330D0A
:101AE0008F929F92AF92BF92CF92DF92EF92FF922E
:101AF0000F931F936B017C0181E090E0A0E0B0E0C8
:101B00004C015D0104C0880C991CAA1CBB1C4A95A1
:101B1000D2F7B501A4014C015D0104C0880C991CE9
:101B2000AA1CBB1C2A95D2F7482959296A297B2966
:101B300004C0880F991FAA1FBB1F0A95D2F78A01FC
:101B40009B010C211D212E213F210417150726077B
:101B5000370789F48C299D29AE29BF29BC01CD0105
:101B60001F910F91FF90EF90DF90CF90BF90AF90BB
:101B70009F908F90089580959095A095B0958C2119
:101B80009D21AE21BF21EACF0F93382F262F6091E0
:101B90001602709117028091180290911902042F79
:101BA000432F0E94700D0F910C940F1B0C945E0A32
:101BB0000E9488110C949E0708950C94DC0D0C94DF
:101BC000DD0D0895972F70E026E0929F600D711D46
:101BD0001124FB0198E4899FE00DF11D1124EE0F03
:101BE000FF1FE554FD4F859194910895FC01EE0F80
:101BF000FF1FE55BF24F859194910895CF93DF939A
:101C00000E94E20D0E949E0FEC01811520E59207D3
:101C100008F042C0811530E4930708F007C1883E00
:101C2000910528F5803E910508F09BC0883A910502
:101C300088F4853A910508F08AC08130910509F44D
:101C400090C0009709F48DC0049708F08AC0D0E0D6
:101C5000C0E087C08D3B910508F487C0805C910986
:101C6000C03CD105A0F30E94F60DEC017AC08115AD
:101C7000904250F4C11581E0D80708F072C0C03F0F
:101C8000D10528F3D0656DC0C11590E3D90708F0E0
:101C9000C3C0CE019F70E7CF811525E5920758F5A7
:101CA000811534E5930708F0F0C0811542E59407EB
:101CB00050F4C11581E5D80708F4BBC0DC2FCC2750
:101CC000C16FD06A4EC0982F969596959E0123704D
:101CD0003327C115D34508F0C9C0C1E0D0E002C028
:101CE000CC0FDD1F2A95E2F720E2929FC00111245C
:101CF000C82BD92BB9C0C11589E5D80780F4C11507
:101D000098E5D90708F0C6C0C11526E5D20708F046
:101D10009ECFDC2FCC27CC27DF71D06222C0CE0132
:101D2000C1153AE5D30708F4BAC090568115904220
:101D300008F08DCF8D2F8F710E94191090E0982F91
:101D4000882788279F719C012C2BE901E6CF853AD3
:101D5000910509F4AEC0863A910509F0ADC0C2E81C
:101D6000D0E4CE01DF91CF910895883A910509F42E
:101D7000A6C0893A910509F4A5C08A3A910509F4EB
:101D8000A4C08B3A910509F4A3C08C3A910509F4DB
:101D9000A2C08B3B910509F4A1C08C3B910509F4CD
:101DA000A0C08D3A910509F49FC0803B910509F4CC
:101DB0009EC08E3A910509F49DC08F3A910509F4B1
:101DC0009CC0813B910509F49BC0823B910509F4BD
:101DD0009AC0833B910509F499C0843B910509F4AD
:101DE00098C0853B910509F497C0863B910509F49D
:101DF00096C0873B910509F495C0883B910509F48D
:101E000094C0893B910509F493C08A3B910509F47C
:101E100092C0C0E0D4E4A5CFCE019927D3FF03C080
:101E2000EC01D86C9ECFEC01D06C9BCFDF70D06AF8
:101E300098CFCE01E4E096958795EA95E1F7837017
:101E40002C2F26952695237090E2299F900111242E
:101E5000382B8C2F8370C1E0D0E002C0CC0FDD1F87
:101E60008A95E2F7C22BD32BDC687BCFC1E0D0E0B0
:101E700002C0CC0FDD1F2A95E2F730E2939FC0012C
:101E80001124C82BD92BDA686CCFD82FCC27C46F7C
:101E9000D06A67CFDC2FCC27C06FD06A62CF34E026
:101EA000969587953A95E1F78F70CF70C06ED82FD1
:101EB000BECFC1E8D0E455CFC3E8D0E452CFC2EEE4
:101EC000D4E44FCFC9EED4E44CCFCAEED4E449CF2A
:101ED000C5EBD4E446CFC6EBD4E443CFC3EBD4E4A4
:101EE00040CFC4EBD4E43DCFC7EBD4E43ACFCCEC45
:101EF000D4E437CFCDECD4E434CFC3E8D5E431CF4C
:101F0000CAE8D5E42ECFC2E9D5E42BCFC4E9D5E4A5
:101F100028CFC1E2D6E425CFC3E2D6E422CFC4E283
:101F2000D6E41FCFC5E2D6E41CCFC6E2D6E419CF73
:101F3000C7E2D6E416CFCAE2D6E413CF82389105C1
:101F400049F1B0F48133910509F462C048F4893253
:101F5000910509F456C08A32910509F460C00895CC
:101F60008533910509F446C08933910599F00895A8
:101F7000833E910531F138F4803E910591F0823E27
:101F80009105B1F00895863E910521F1873E9105B6
:101F900051F10895209149022370D9F080EE90E02C
:101FA00008952091490220FF14C089E390E008952C
:101FB0002091490222FF0DC024FD09C083EE90E06C
:101FC00008952091490222FD31C024FF02C090E013
:101FD00080E008952091490223FFFBCF24FDF7CF35
:101FE00087EE90E008952091490223FFEECF86EE20
:101FF00090E008952091490225FFEBCF89E290E01F
:1020000008952091490225FFE4CF85E390E00895EB
:102010002091490226FFDDCF8AE290E008952091C9
:10202000490226FFD6CF81E390E0089582EE90E04A
:1020300008959091490292FF06C0282F28712830F8
:1020400069F4877F846093FF06C0282F28712831A8
:1020500061F4877E846194FD877E0895282F247122
:10206000243089F78B7F8860EECF282F24712431AC
:1020700091F78B7E8861EFCF08950F931F93CF93D5
:102080008C01FB018281811106C0C1E08C2FCF91B0
:102090001F910F910895C091C801C11125C006314B
:1020A0001C4599F70E943C1081E08093C8010E9472
:1020B000CA1D9093C7018093C6011092BB01109274
:1020C000BD011092BC011092BF011092BE0110928E
:1020D000C1011092C0011092C3011092C20110926E
:1020E000C5011092C401D2CF8091C6019091C70161
:1020F0000E94D61D8C32914040F68091BB01E82FA2
:10210000F0E0EE0FFF1FE454FE4F118300838F5F5A
:102110008093BB01C0E0BACFCF93DF93EC0181E0A5
:102120008F878F810E949A1C88850E94AD1C0E9417
:10213000641CEA81FB81309739F06A897B89CE0182
:102140000696DF91CF910994DF91CF910895EF9298
:10215000FF920F931F93CF93DF93EC01888581113A
:1021600032C0EB80FC8087E5F81A24E12E9DC00187
:102170002F9D900D1124DC01AF5FBE4F1496ED91A1
:10218000FC911597309731F052966D917C91895F53
:102190009E4F099584E18E9D80018F9D100D112425
:1021A0000F5F1E4FF80187810E94A01CF8018085F7
:1021B0000E94B31C0E94641C18821F821986109210
:1021C000CA011092C901DF91CF911F910F91FF9029
:1021D000EF900895DF92EF92FF920F931F93CF93AA
:1021E000DF937C01FB018281882391F08091510172
:1021F0008F3F71F0C1E0D1E010E000E0DD24D39426
:1022000080915101082E000C990B8017910744F41E
:10221000DF91CF911F910F91FF90EF90DF90089584
:102220008E818823B9F089859A858E159F0539F4AA
:102230008091C9019091CA018E159F0559F0DD86E4
:102240008F85811103C0CE010E948C10CE010696AD
:102250000E94A7100F5F1F4F6496D2CFEF92FF929C
:102260000F931F93CF93DF937C0197558F3F910579
:1022700009F0D8F520915101022E000C330B2817DC
:10228000390714F480935101FB01228134E1389F16
:102290008001399F100D1124E801CF5FDE4F2E879A
:1022A00092818E81992349F1FA86E9868F5F8E8328
:1022B0000E94CA1D9C878B870E94D31C8F830E941B
:1022C000971C88870E94AA1C9885892B8887E8819B
:1022D000F981309731F06A897B89C801895F9E4F07
:1022E0000995F092CA01E092C90181E0DF91CF9196
:1022F0001F910F91FF90EF9008958823B1F38F8580
:10230000882399F3C801895F9E4F0E94A710EDCFE3
:10231000EF92FF920F931F93CF93DF938091510120
:1023200010E004E18F3FC1F5DF91CF911F910F9134
:10233000FF90EF900895029FF001039FF00D11248C
:10234000EF5FFE4FE088F188E114F10419F486E9AB
:10235000E82EF12C029FE001039FD00D1124CF5FE6
:10236000DE4F8E818823B9F08B859C850E94D61D17
:10237000E816F90680F4109F700111248F858111F1
:1023800005C0C7018F5F9E4F0E948C10C701895FF7
:102390009E4F0E94A7101F5F212F30E080915101B6
:1023A000082E000C990B821793072CF6BDCF909343
:1023B000D0018093CF010895E091CF01F091D00139
:1023C000309721F00190F081E02D099480E008958C
:1023D000E091CF01F091D001309721F00280F3819C
:1023E000E02D09940895E091CF01F091D00130974C
:1023F00021F00480F581E02D099408952091CD010C
:102400003091CE012817390771F09093CE01809357
:10241000CD01E091CF01F091D001309721F00680FD
:10242000F781E02D099408952091CB013091CC01E2
:102430002817390771F09093CC018093CB01E0917C
:10244000CF01F091D001309721F00084F185E02D8B
:10245000099408950C944A0981E008950E94C11DD1
:102460000E94A0070C94351EBF92CF92DF92EF928C
:10247000FF920F931F93CF93DF93CDB7DEB72A97C9
:102480000FB6F894DEBF0FBECDBF0E94DA080E94DF
:102490002C12882309F471C082EDC82E81E0D82E59
:1024A00010E000E0B02E802F0E941A09E82EF601FD
:1024B000F1906F01F81609F45AC080912B0281FD4A
:1024C0000E94200990E080E0FE242F2D30E0482F6C
:1024D000B901082E02C0759567950A94E2F760FF6E
:1024E00041C08E83BF8281E090E06C0102C0CC0CC1
:1024F000DD1C4A95E2F72E2D30E02C213D21232BC7
:1025000009F480E088870E94CA1D8160782F9A872D
:1025100089874E815F8168858A850E94DE12F80175
:10252000EE52FE4F80818C2580830E94C31F0E9443
:10253000DC119091D101891789F10E94DC118093FF
:10254000D1012A960FB6F894DEBF0FBECDBFDF9142
:10255000CF911F910F91FF90EF90DF90CF90BF90A0
:102560000C94DF0D01968630910509F0B0CF0F5F16
:102570001F4F0C30110509F095CF8FEF89838A83A7
:102580001B820E94CA1D8160782F9D838C834981A4
:102590005A816B818D810E94DE12C7CF2A960FB6B9
:1025A000F894DEBF0FBECDBFDF91CF911F910F9189
:1025B000FF90EF90DF90CF90BF900895CF93DF937F
:1025C000CDB7DEB72B970FB6F894DEBF0FBECDBFE9
:1025D0004F83588769877A878B871E821D8285E0A3
:1025E000FE013796DE01119601900D928A95E1F772
:1025F00049815A816B817C818D819E812B960FB69A
:10260000F894DEBF0FBECDBFDF91CF910C94B3190C
:10261000FC01808191810C94131CCF93C82F8823D7
:1026200009F4D4C08238C1F40E94DC1181FDCEC00F
:1026300089E30E94201C0E94641C2FEF81EE94E02D
:10264000215080409040E1F700C0000089E30E94E3
:10265000271CCF910C94641C8338A1F40E94DC11D8
:1026600080FDB4C083E50E94201C0E94641C2FEFF3
:1026700081EE94E0215080409040E1F700C00000DE
:1026800083E5E5CF8438A1F40E94DC1182FD9EC071
:1026900087E40E94201C0E94641C2FEF81EE94E0CE
:1026A000215080409040E1F700C0000087E4CFCF88
:1026B0008CEF8C0F813A48F48C2F0E94C521811138
:1026C00085C08C2F0E94201CC4CF80E28C0F8830E4
:1026D00048F4C77081E001C0880FCA95EAF70E94EC
:1026E0009A1CB7CF8BE58C0F833068F481E890E0BB
:1026F000C53A31F083E890E0C63A11F482E890E000
:10270000CF910C94FE1188E58C0F853108F05EC0E6
:1027100082EE90E0C83A09F456C089EE90E0C93ADA
:1027200009F451C08AEE90E0CA3A09F44CC085EB36
:1027300090E0CB3A09F447C086EB90E0CC3A09F43C
:1027400042C083EB90E0CB3BF1F184EB90E0CC3BDB
:10275000D1F187EB90E0CD3AB1F18CEC90E0C03B49
:1027600091F18DEC90E0CE3A71F183E891E0CF3AAF
:1027700051F18AE891E0C13B31F182E991E0C23B3D
:1027800011F184E991E0C33BF1F081E292E0C43BB6
:10279000D1F083E292E0C53BB1F084E292E0C63B27
:1027A00091F085E292E0C73B71F086E292E0C83B8F
:1027B00051F087E292E0C93B31F090E080E0CA3B03
:1027C00011F48AE292E0CF910C941412CF91089503
:1027D000882309F44BC0823871F40E94DC1181FF18
:1027E00045C089E30E94201C0E94641C89E30E946A
:1027F000271C0C94641C833859F40E94DC1180FF60
:1028000035C083E50E94201C0E94641C83E5EFCF45
:10281000843859F40E94DC1182FF28C087E40E94AA
:10282000201C0E94641C87E4E2CF9CEF980F913A31
:10283000F0F290E2980F983050F4877091E001C068
:10284000990F8A95EAF7892F0E94A01CD2CF9BE5A9
:10285000980F933020F490E080E00C94FE11885A99
:10286000853120F490E080E00C94141208958823C0
:1028700021F00E949A1C0C94641C0895882321F076
:102880000E94A01C0C94641C08958F929F92AF929A
:10289000BF92CF92DF92EF92FF920F931F93CF934D
:1028A000DF937C01D62FC72FFC01058102950F70A5
:1028B000128111110E94BA1C0E945D1CC82E88232F
:1028C00071F01123B1F080E28D0F883090F082E03A
:1028D0000E94471C0E945D1C91E0C82EC926DC2E78
:1028E000D2949FE0D922ED2DF0E0EB52F64D0C94FE
:1028F0006029C12CF4CF0C2F0F70C07F11F002950E
:10290000007F1123A9F0002359F080E28D0F883059
:1029100010F0D11109C0802F0E949A1C0E94641CE3
:102920008D2F0E940D1314C0802F0E94AD1CF6CF76
:102930008D2F0E94E813002359F080E28D0F88301C
:1029400010F0D11133C0802F0E94A01C0E94641C83
:1029500098E0D91639F0D91648F086E08D0D8F70C1
:10296000823020F40E94DC110E94DF0DCC2009F49B
:10297000D9C10E943A1C80FDD5C1F70112820E9484
:10298000341C0E94351BC7010E949F160E94341CF4
:10299000DF91CF911F910F91FF90EF90DF90CF903B
:1029A000BF90AF909F908F900C94561B802F0E94E9
:1029B000B31CCCCFFC2FFF70BF2EC07FC03219F0EC
:1029C000B29480EFB822DD2369F0D13049F11123B0
:1029D00091F1002351F1F701858180FFA1CF8F7024
:1029E000858323C0112381F0011106C00E94D31CEE
:1029F0008B290E943714ACCF0130C1F70E94D31C41
:102A00008B290E94CD1CA4CF011106C00E94D01CAE
:102A10008B2D0E943E149CCF013009F499CFF6CF44
:102A2000112329F0063008F093CF8B2DE2CF05302B
:102A300008F08ECFEDCF002359F38D2F0E94E813BD
:102A400087CF8C2F86958695837069F0813009F049
:102A50007FCF8D2F9C2F9370111102C090E080E0EA
:102A60000E94141275CF8D2F9C2F9370111102C0EC
:102A700090E080E00E94FE116BCF112309F1D53F59
:102A800099F0D63FB9F0D43F49F480914302909138
:102A90004402816090934402809343028D2F0E94F0
:102AA000D11E0E94B81F54CF8091430290914402DE
:102AB0008260F0CF80914302909144028460EACF1B
:102AC000D53F89F0D63FA9F0D43F49F48091430225
:102AD000909144028E7F90934402809343028D2F05
:102AE0000E94391FDECF80914302909144028D7F76
:102AF000F2CF80914302909144028B7FECCF8C2FD8
:102B0000837009F047C0111123CF2D2F22952695F0
:102B10002770220F220F6D2F6F70862E912CB12CF3
:102B2000A12C022E04C0880C991CAA1CBB1C0A9460
:102B3000D2F760E070E0CB01D4FF0FC06FE070E02F
:102B400080E090E004C0660F771F881F991F2A95C8
:102B5000D2F76095709580959095C695C695C3708F
:102B6000C23051F080F4682979298A299B29C13023
:102B700071F00E94E71AECCE682979298A299B29ED
:102B80000E94F91AE5CE0E94E71AC501B4010E941D
:102B9000D51ADECE8695112311F08C2F81708823F3
:102BA00009F4D6CE2D2F229526952770220F220FBD
:102BB0006D2F6F70862E912CB12CA12C022E04C08B
:102BC000880C991CAA1CBB1C0A94D2F760E070E028
:102BD000CB01D4FF0FC06FE070E080E090E004C054
:102BE000660F771F881F991F2A95D2F760957095F9
:102BF00080959095C695C695C370C23051F080F40B
:102C0000682979298A299B29C13071F00E94AC1B5F
:102C10009FCE682979298A299B290E94BE1B98CEBC
:102C20000E94AC1BC501B4010E949A1B91CEE0E248
:102C3000ED0FE53108F04DC0F0E0EB51F64D0C948E
:102C40006029DF708C2F8F71112321F00E94351BBA
:102C50008D2FCFCE0E94561B8D2FDBCE112341F03E
:102C6000053008F075CE8C2F8F710E94791B70CEC5
:102C7000063008F06DCEF7CF8C2F8F71112339F00D
:102C80000E94351B65CE8C2F8F711123C9F30E94D2
:102C9000561B5ECE112329F08C2F8F710E94201BB2
:102CA00057CE0E941B1B54CE112349F0CF718C2F9D
:102CB0000E94351B63E08C2F0E943E1C49CE81E0B0
:102CC0000E94471C023008F443CE82E00E94471C59
:102CD0003FCE112329F0011123CE8C2F8F71D0CF3D
:102CE000002369F0D93309F0A8CEFFEF27EE83E087
:102CF000F15020408040E1F700C000009ECE8C2FB4
:102D00008F71C5CF4C2F4F706D2FC7010E94A90A3C
:102D10000E944D1A1DCE4C2F4F706D2FC7010E947F
:102D2000E10D16CEDF91CF911F910F91FF90EF90A3
:102D3000DF90CF90BF90AF909F908F9008950F93AA
:102D40001F93CF93DF93EC018B819C81892B29F01A
:102D50008881998189238F3F29F4DF91CF911F9139
:102D60000F910895CE010E94A20B8823B1F36881D0
:102D700079818A810E941D1C8C010E94D01B0E94B7
:102D8000D21AB801CE01DF91CF911F910F910C940F
:102D900045140E94BA1C0E94CA1C0E942E1C0E944C
:102DA000641C0E944D200E94B81F90E080E00E94A9
:102DB000FE1190E080E00C9414120E94A71C0C9469
:102DC000C9160E94131CE92FE295EF70E250EE3015
:102DD00070F4F0E0E650F64D0C946029803F19F055
:102DE00020F4803E20F481E00895843FE1F380E008
:102DF0000895803EC0F3813FD1F7F5CF93FB88273C
:102E000080F90895CF93DF9300D000D00F92CDB713
:102E1000DEB70F900F900F900F900F90DF91CF9132
:102E20000895CF93DF9300D000D000D0CDB7DEB7A8
:102E300026960FB6F894DEBF0FBECDBFDF91CF91BF
:102E400008951F93CF93DF93C091DE0116E0809128
:102E5000DF018C1304C0DF91CF911F910895D0E062
:102E60001C9FF0011D9FF00D1124E052FE4F408188
:102E7000518162817381848195810E94111721960D
:102E8000C770E5CF4091100250911102609112027B
:102E90007091130280911402909115020C941117F5
:102EA0002091DE019091DF0156E0291302C080E0FD
:102EB000089530E0529FF001539FF00D1124E0522D
:102EC000FE4F7181761306C07081781303C0728142
:102ED000741304C02F5F3F4F2770E7CF81E0089540
:102EE0001F93CF93DF9380911502807FC1F480916F
:102EF00012028823A1F08091DE01C091DF01609170
:102F00001002709111024091130250911402D62FB9
:102F1000D723DA01A095B09516E0C81304C0DF915D
:102F2000CF911F91089590E04115510511F0DF3FB9
:102F300031F401968770F1CF2A0F3B1F17C0189FFD
:102F4000F001199FF00D1124E052FE4F218127134B
:102F5000F0CF20812613EDCF22812111EACF2381EA
:102F600034812417350740F3241B350B26393105EE
:102F700000F7209115022F7020612093150226E0A2
:102F8000289FF001299FF00D1124EB51FE4F808105
:102F90008F708061808380E192E00E949F16DF91B4
:102FA000CF911F910C9421179F92AF92BF92CF9215
:102FB000DF92EF92FF920F931F93CF93DF93CDB7E2
:102FC000DEB761970FB6F894DEBF0FBECDBF8C01A0
:102FD00085E0F801DE011D9601900D928A95E1F7DA
:102FE000D801DC901196EC9011971296CC90129724
:102FF0008091130290911402009709F492C12091DC
:10300000100230911102422F43234F3F09F489C12E
:103010001396AD90BC9090901202992009F422C1B1
:10302000A816B906E0F1F501E81BF90BCF01FF2462
:10303000F3948639910508F0F12C80911502982FB0
:10304000907FFF2009F4C7C091118EC0FC2C3E1167
:103050002BC02D1129C0C11027C08F7080618093B3
:1030600015020E94421780E192E00E949F16809113
:103070001502D80115968C938F2D61960FB6F89492
:10308000DEBF0FBECDBFDF91CF911F910F91FF909B
:10309000EF90DF90CF90BF90AF909F900895809574
:1030A00090958A0D9B1DC3CFA114B10429F08E2DDC
:1030B0008D218F3F09F054C180E080FF16C04C2D58
:1030C0006E2D8D2D0E945017882379F080E192E0BB
:1030D0000E949F1686E0E0E1F2E0DF011D928A95F2
:1030E000E9F70E944217F12CC7CFAB2829F08E2DAB
:1030F0008D218F3F09F031C180E0B82FB170AB2E28
:1031000080FF29C04C2D6E2D8D2D0E945017B82E9A
:10311000811121C0DD86EE868D859E850E94131C5F
:10312000292F22952F70223050F0243078F49F7090
:1031300051F0F8019581907F31F4FB2C9DCF9F7069
:1031400011F08823D1F3805E8830B8F3C8010E9463
:103150009F16BA2CF2CFCC2009F48ECF80911502A5
:10316000816080931502BFCF3E1106C02D1104C0AF
:10317000D801CC2009F49CC0DD86EE868D859E8525
:103180000E94E116882319F1CC2009F180911502E3
:10319000803270F0209110023091110238872F8315
:1031A0001986BB86AA868C87CE0107960E949F1639
:1031B00086E0F801A0E1B2E001900D928A95E1F776
:1031C0000E9470170E944217FF24F39455CFC80144
:1031D0000E949F16F9CF911115C07A2DB98AA88A3D
:1031E0004D2D5E2D6C2D89890E94021780E192E0A1
:1031F0000E949F1686E0E0E1F2E0DF011D928A95D1
:10320000E9F763C03E1112C02D1110C0C1100EC0ED
:10321000F8018583C8010E949F16E0E1F2E086E094
:10322000DF011D928A95E9F7F92C26CFDD86EE861F
:103230008D859E850E94E116882349F2CC2039F2C3
:1032400080911502803208F4B3CF209110023091A2
:1032500011023A8329831B82BD82AC828E83CE0108
:103260000196A4CFA816B90698F1F501E81BF90B51
:10327000CF01F12C8639910508F049C0FC2CCC20F7
:1032800009F4A5CF3E1132C02D1130C08091150236
:1032900080FD23C0982F907F01F1D80115968C9363
:1032A0001597903F39F0982F907F905F8F70892B02
:1032B00015968C93C8010E949F1686E0F801A0E144
:1032C000B2E001900D928A95E1F70E944217D4CEA8
:1032D000809590958A0D9B1DCCCF86E0F801A0E1EA
:1032E000B2E001900D928A95E1F7C6CEDD86EE86BA
:1032F0008D859E850E94E11681115ACF809115021D
:10330000816080931502C8010E949F16B5CE7A2D68
:10331000B98AA88A4D2D5E2D6C2D89890E940217CD
:1033200069CFCC2009F453CFDD86EE868D859E854E
:103330000E94E116F82E882309F449CF86E0F801AF
:10334000A0E1B2E001900D928A95E1F780E192E070
:103350000E9408130E947017B8CF81E08C25CDCE53
:1033600081E08C25AACE1F93CF93DF93CDB7DEB734
:103370002C970FB6F894DEBF0FBECDBF4F83588792
:1033800069877A878B879C87CE0107960E94D4171E
:10339000882369F08A859B85892B39F04F81588570
:1033A000842F85238F3F09F071C016E05FC086E04F
:1033B000FE013796DE01119601900D928A95E1F794
:1033C0008A859B85892B89F388859F8189238F3FF7
:1033D00061F32091DF0130E0C901019687709927E0
:1033E0004091DE014817190671F40E94DD16109213
:1033F000DF011092DE0186E0E0E1F2E0DF011D92E4
:103400008A95E9F7D2CF96E0929FD001939FB00DB5
:103410001124A052BE4FFE01319601900D929A9553
:10342000E1F78093DF010E942117BFCF819FC00188
:10343000112480529E4F0E94D4178823E9F0E09116
:10344000DE011E9FF0011124E052FE4F40815181A8
:1034500062817381848195810E9411178091DE01C0
:1034600090E00196877099278093DE018091DE01BC
:103470009091DF018913DACF2C960FB6F894DEBF56
:103480000FBECDBFDF91CF911F91089569857A85D9
:103490008B859C850E94111788CFEF92FF920F9326
:1034A0001F93CF93DF938C01892B81F0F12CEE24B5
:1034B000E394E8012196F8018491843770F4843014
:1034C00008F05FC08130B1F08230A1F1DF91CF917F
:1034D0001F910F91FF90EF900895853709F44CC02C
:1034E00008F43DC09CE7980F903780F78F770E94D3
:1034F000E81349C00E5F1F4FFE01849190E2980FC0
:10350000983060F48770FE2D01C0FF0F8A95EAF7AE
:103510008F2F0E94BD1C0E94641C02C00E940D13CC
:103520008F2D815030F2EFE9FFE03197F1F700C0C5
:103530000000F7CF0E5F1F4FFE01849190E2980FBD
:10354000983050F48770FE2D01C0FF0F8A95EAF77E
:103550008F2F0E94C31CDFCF0E94E813E1CF0E5FC4
:103560001F4FFE01C491C150D8F28FE99FE001972F
:10357000F1F700C00000F7CF0E5F1F4FFE01F4907F
:10358000CFCF0E940D138E01CBCF08950E94C51A94
:1035900060931A0270931B0280931C0290931D0289
:1035A0000C94C91608950C94C61A0F931F9300919A
:1035B0001A0210911B0220911C0230911D02602BF7
:1035C000712B822B932B1F910F910C94C61A0F9382
:1035D0001F9300911A0210911B0220911C0230913E
:1035E0001D0260237123822393231F910F910C945A
:1035F000C61A0F931F9300911A0210911B0220917B
:103600001C0230911D0260277127822793271F918A
:103610000F910C94C61A0C94C51A0C940B1B0E94A3
:103620000D1B6093160270931702809318029093FB
:1036300019020C94C91660E070E0CB010C940F1BCA
:103640000F931F9341E050E060E070E08A019B011E
:1036500004C0000F111F221F331F8A95D2F7C90122
:10366000B8011F910F910C940F1B0F931F9341E012
:1036700050E060E070E004C0440F551F661F771FE4
:103680008A95D2F78091160290911702A0911802A4
:10369000B09119028A019B01082B192B2A2B3B2B75
:1036A000C901B8011F910F910C940F1B0F931F9329
:1036B00041E050E060E070E004C0440F551F661F19
:1036C000771F8A95D2F7CB01BA01609570958095E6
:1036D00090950091160210911702209118023091D6
:1036E000190260237123822393231F910F910C945D
:1036F0000F1B0F931F9341E050E060E070E004C0A7
:10370000440F551F661F771F8A95D2F780911602C6
:1037100090911702A0911802B09119028A019B01A1
:10372000082719272A273B27C901B8011F910F91A4
:103730000C940F1B0F931F93009116021091170208
:103740002091180230911902602B712B822B932B40
:103750001F910F910C940F1B0F931F930091160252
:1037600010911702209118023091190260237123E1
:10377000822393231F910F910C940F1B0F931F9380
:10378000009116021091170220911802309119022F
:1037900060277127822793271F910F910C940F1B8D
:1037A0000895BF92CF92DF92EF92FF920F931F93F3
:1037B000CF93DF938C01C0901602D0901702E09057
:1037C0001802F090190280911A0290911B02A091A8
:1037D0001C02B0911D02C82AD92AEA2AFB2ACFE18D
:1037E000D0E0BC2ED701C6010C2E04C0B695A7951B
:1037F000979587950A94D2F780FD0EC0219788F798
:10380000B12C8B2DDF91CF911F910F91FF90EF90F5
:10381000DF90CF90BF900895B8018C2F0E94FE0DCD
:10382000019761F3EECFCF93DF93EC010E94D11BA0
:10383000BE01DF91CF910C94FE0DCB010C94131CB3
:10384000682F80915201909153010C94451D682F6F
:1038500080915201909153010C94471D8091520127
:10386000909153010C94491D80911E028595859578
:103870008595089580911E028770089598E0899F2C
:1038800090011124622B60931E020C94351B9091C1
:103890001E028095892380931E02282F277061F4D1
:1038A000282F082E000C330B9217130629F085954C
:1038B000859585950C94561B089590911E029770DE
:1038C00081E009F480E00895E0915201F091530104
:1038D00080912A028083E0915201F091530180810E
:1038E00090912902892B8083E0915201F09153013C
:1038F000808190912802892B808390911F029923C7
:1039000081F0E0915201F09153018081892B8083F5
:1039100080915201909153010E94111D81111092CA
:103920001F0280915201909153010C94E8118091F3
:103930002A02089590912A02892B80932A020895E1
:10394000809590912A02982390932A0208951092CC
:103950002A02089580912902089590912902892BC5
:10396000809329020895809590912902982390933D
:103970002902089510922902089590912802892B16
:10398000809328020895809590912802982390931F
:103990002802089510922802089580931F02089526
:1039A00010921F02089580911F0208956DEE7EEF20
:1039B00090E080E00E949A2960E082E090E00E941E
:1039C000882960E083E090E00E94882960E084E03C
:1039D00090E00E94882960E085E090E00C948829BE
:1039E00090E080E00E94822921E08D3E9E4F09F008
:1039F00020E0822F089582E090E00C947A2983E001
:103A000090E00C947A29682F83E090E00C94882948
:103A100084E090E00C947A29682F84E090E00C9484
:103A20008829FC0131969C01285F3F4F80E09191ED
:103A300091118F5FE217F307D1F708959C01FC0104
:103A400032969FEF80E04191461751F09F3F19F465
:103A5000411101C0982F8F5F8630A9F79F3F09F46D
:103A60000895290F311D97FD3A95F9016283089554
:103A7000FC01329608962191261303C0DF011197AD
:103A80001C92E817F907B9F708950C941E1D0C94C1
:103A9000381DFC0111821282138214821582168253
:103AA0001782089580914F02843039F110922C02D0
:103AB00088E190E020E40FB6F894A8958093600028
:103AC0000FBE2093600080E00E94DF0D83B7817FEE
:103AD000846083BF83B7816083BF7894889583B700
:103AE0008E7F83BF0FB6F894A8958091600088619F
:103AF00080936000109260000FBE089508950895AD
:103B0000CF930E947E1D0E94DA080E947F1DC0E0B4
:103B10008C2F0E941A09811105C0CF5FCC30C1F7EC
:103B2000CF91089581E0FCCF0E94DD160E94DC1148
:103B30000C94DF0D1F921FB61F9211248F939F9339
:103B4000AF93BF9380912C02811113C080914502E5
:103B500090914602A0914702B09148024196A11D62
:103B6000B11D8093450290934602A0934702B09303
:103B70004802BF91AF919F918F911F901FBE1F90E0
:103B8000189582E084BD93E095BD9AEF97BD809330
:103B90006E0008952FB7F8948091450290914602E7
:103BA000A0914702B09148022FBF0895CF92DF92B3
:103BB000EF92FF920F931F932FB7F8944091450215
:103BC0005091460260914702709148022FBF6A01EE
:103BD0007B01EE24FF248C0130E020E0C016D106EA
:103BE000E206F30650F0481B590BCA011F910F91D2
:103BF000FF90EF90DF90CF90089541505109F3CF9F
:103C000078941F921FB61F9211248F939F93AF93A6
:103C1000BF938091450290914602A0914702B091D6
:103C200048020196A11DB11D809345029093460262
:103C3000A0934702B0934802BF91AF919F918F919B
:103C40001F901FBE1F90189587E797E79093010874
:103C50008093000888E19AE00FB6F894A8958093C5
:103C600060000FBE90936000FFCF0E94F01C811196
:103C700002C00E94D61C0E94FB1C80932B020E9453
:103C8000081D90E090934A02809349020E94FF1C15
:103C9000682F70E090E080E00C94D31A80912F029E
:103CA00080FF12C06091570185E0689FB001112428
:103CB000759567957595679560387105A8F56115D7
:103CC0007105A1F1862F089581FF09C06091570108
:103CD00085E0689FB001112475956795EDCF6091DF
:103CE000570182FD0AC0809130028823D1F0909163
:103CF000560160915701891728F085E0689FB0014F
:103D00001124DACF869FB001112485E0869F9001AF
:103D1000879F300D1124692F70E0C9010E944C2942
:103D2000CBCF65E070E0CECF8FE7089581E00895B6
:103D300080912F0280FF0CC06091550170E0759555
:103D40006795759567956115710549F1862F0895F9
:103D500081FF06C06091550170E075956795F3CFBE
:103D60006091550182FD0BC0909130029923A1F022
:103D70006091540180915501961738F0682F70E0DA
:103D80006038710500F38FE70895899FC001112401
:103D900070E00E944C29F4CF61E070E0D7CF81E061
:103DA0000895803F31F40E944E1E81958093330226
:103DB0000895813F19F40E944E1EF8CF823F31F4DE
:103DC0000E944E1E8195809332020895833F19F41C
:103DD0000E944E1EF8CF893F29F40E94981E8093BE
:103DE000340208958A3F21F40E94981E8195F7CFEE
:103DF0008B3F31F40E94981E81958093350208957F
:103E00008C3F19F40E94981EF8CF843F31F48091C2
:103E100031028160809331020895853F21F48091C1
:103E200031028260F7CF863F21F4809131028460B5
:103E3000F1CF873F21F4809131028860EBCF883F3A
:103E400021F4809131028061E5CF8D3F31F4809182
:103E50002F02816080932F0208958E3F21F480917C
:103E60002F028260F7CF8F3FB9F780912F028460D5
:103E7000F1CF90913202803F41F48091330287FD6F
:103E800010923302992371F00895813F29F48091B3
:103E900033021816ACF3F6CF823F81F497FFF2CFCE
:103EA000109232028091330290913402892B9091CA
:103EB0003502892B49F7109230020895833F19F497
:103EC000191674F3DFCF893F39F480913402181644
:103ED000CCF610923402D6CF8A3F29F48091340276
:103EE00087FFD0CFF6CF8B3F39F48091350287FF23
:103EF000C9CF10923502C6CF8C3F29F4809135028C
:103F00001816BCF3BFCF843F31F4809131028E7F0D
:103F100080933102B7CF853F21F4809131028D7FAC
:103F2000F7CF863F21F4809131028B7FF1CF873F1D
:103F300021F480913102877FEBCF883F21F480917B
:103F400031028F7EE5CF8D3F31F480912F028E7F3D
:103F500080932F0297CF8E3F21F480912F028D7F87
:103F6000F7CF8F3F09F08ECF80912F028B7FF0CF5C
:103F700081E392E00E94F3110E94CA1D90932E02E9
:103F800080932D0208951F93CF93DF9380912D028C
:103F900090912E020E94D61DAC019091300220918A
:103FA000580130E0911106C0209159018AE0289F04
:103FB000900111244217530778F020913202C091EA
:103FC0003302D091340210913502211109C08C2F97
:103FD0008D2B812B09F05DC0DF91CF911F9108954A
:103FE0009F3F19F09F5F90933002121624F40E94B5
:103FF0004E1E809332028091320287FF05C00E94DC
:104000004E1E8195809332021C1624F40E944E1E8F
:10401000809333028091330287FF05C00E944E1EB9
:1040200081958093330240913202442379F030919C
:104030003302332359F025EB4203A001112450939E
:104040003202320390011124309333021D1624F4FE
:104050000E94981E809334028091340287FF05C02D
:104060000E94981E819580933402111624F40E94B8
:10407000981E809335028091350287FF05C00E940B
:10408000981E819580933502DF91CF911F910C94FA
:10409000B81F9F3F09F0A6CFB7CF85E0E1E3F2E07C
:1040A000DF011D928A95E9F71092300210922F02DB
:1040B0000895833081F128F4813059F08230D1F0B5
:1040C0000895853009F449C0B8F1863009F456C026
:1040D000089580915901482F460F5527551F4F3F8E
:1040E000510524F4680F6093590108958FEF809370
:1040F0005901089580915801482F460F5527551FA3
:104100004F3F510524F4680F6093580108958FEFD5
:1041100080935801089580915701482F460F5527E5
:10412000551F4F3F510524F4680F609357010895C0
:104130008FEF80935701089580915601482F460FC5
:104140005527551F4F3F510524F4680F60935601C2
:1041500008958FEF80935601089580915501482F5F
:10416000460F5527551F4F3F510524F4680F6093A4
:10417000550108958FEF8093550108958091540162
:10418000482F460F5527551F4F3F510524F4680F00
:104190006093540108958FEF809354010895833004
:1041A00011F128F4813049F0823091F00895853082
:1041B00081F120F18630C1F108958091590168178D
:1041C00020F4861B80935901089510925901089597
:1041D00080915801681720F4861B80935801089538
:1041E00010925801089580915701681720F4861B9A
:1041F00080935701089510925701089580915601B8
:10420000681720F4861B809356010895109256017A
:10421000089580915501681720F4861B80935501FD
:10422000089510925501089580915401681720F463
:10423000861B8093540108951092540108950F93A2
:104240001F9341E050E060E070E08A019B0104C0F0
:10425000000F111F221F331F8A95D2F7C901B80121
:104260000E94D31A1F910F910C94DD168732A8F586
:104270008E3108F079C08E3009F46BC058F4873065
:1042800009F459C08B3009F44BC0863009F44AC098
:1042900080E00895863109F443C068F48031C1F7A5
:1042A00090912B02892F877F93FF886080932B0248
:1042B00083FD0FC035C0893199F18B3149F7909159
:1042C0002B02892F8D7F91FF826080932B0281FFCB
:1042D00027C080912B02816039C0883309F150F4E6
:1042E000893221F0853311F0873291F680E00E9407
:1042F0001F2116C08334D1F320F48A3348F2895346
:10430000F6CF883429F60E94DD162FEF83ED90E377
:10431000215080409040E1F700C000000E94241E20
:1043200081E0089580912B02807F80932B0281E0B1
:1043300080933702089590912B02892F8E7F90FFF2
:10434000816080932B0280FDEBCF817F80932B02D5
:10435000E7CF90912B02892F8B7F92FF846080930F
:104360002B0282FDB6CFDCCF8D51C1CF80E0089506
:104370000C94B6218E518A3030F4E82FF0E0E958E1
:10438000FE4F8081089580E00895CF93C82F8091DB
:1043900037028130D1F0882331F08230D1F1109290
:1043A000370280E010C0E0915201F091530180810A
:1043B0008232B9F78C2F0E94B62181111EC08C2F3A
:1043C0000E9436218170CF910895E0915201F091C1
:1043D00053018081823271F38C2F0E94B8218111A8
:1043E0000AC0C43199F060F4CB3029F0C03151F7E4
:1043F00082E08093370281E0E5CF81E090E0E2CF78
:10440000C93221F0C833B9F380E0DCCF1092370213
:10441000FBCFC93219F188F4C43101F120F4C7305F
:1044200081F181E0D0CF82EE8C0F8630D0F78C2FD7
:104430000E94BA2180933602F4CFCE3401F140F4C9
:104440006AE0CB3471F7809136020E945920E9CF9F
:10445000C13579F061E0C235B1F3E3CF8091360226
:10446000882319F010923602DCCF81E08093370266
:10447000AACF61E0809136020E94CF20D2CF6AE0BD
:10448000F9CF8EE18093590182E3809358018AE04D
:104490008093570184E18093560188E08093550111
:1044A00088E280935401BDCF8091400208950F931C
:1044B0001F93CF93DF9300D00F92CDB7DEB78C015F
:1044C0000E949E24823011F0843019F583E08983A4
:1044D0001B830A838093E9008FEF9091E80081505D
:1044E00095FD06C095ED9A95F1F700008111F5CF85
:1044F0008091E80085FF0DC050E040E063E070E08F
:10450000CE0101960E94BB248091E8008E778093B3
:10451000E8000F900F900F90DF91CF911F910F91B6
:104520000895CF93DF9300D00F92CDB7DEB72091DF
:104530004F02243031F522E02983805891099B8372
:104540008A8383E08093E9008FEF9091E8008150A7
:1045500095FD06C095ED9A95F1F700008111F5CF14
:104560008091E80085FF0DC050E040E063E070E01E
:10457000CE0101960E94BB248091E8008E77809343
:10458000E8000F900F900F90DF91CF910895CF9397
:10459000DF93EC010E949E24823011F08430F9F404
:1045A00082E08093E9008FEF9091E800815095FDC3
:1045B00006C095ED9A95F1F700008111F5CF809135
:1045C000E80085FF0CC050E040E065E070E0CE01FF
:1045D0000E94BB248091E8008E778093E800DF91F1
:1045E000CF910895CF93DF93EC010E949E248230F7
:1045F00011F0843039F581E08093E9008FEF9091DC
:10460000E800815095FD06C095ED9A95F1F7000000
:104610008111F5CF8091E80085FF14C050E040E0A3
:1046200068E070E0CE010E94BB248091E8008E77A4
:104630008093E80088E0FE01A8E3B2E001900D92CB
:104640008A95E1F7DF91CF91089580914E02811113
:1046500009C00E944B260E94A8268091E200846037
:104660008093E200089510924E02089508950895EF
:104670000C94941D42E061EC81E00E94C72542E069
:1046800061EC82E00E94C72542E061EC83E00C947B
:10469000C72580915102833009F452C030F4813033
:1046A00059F1823009F48EC008958A3009F47AC035
:1046B0008B3009F460C0893009F041C0809150020C
:1046C0008132E9F58091540290915502892BB9F518
:1046D0008091E800877F8093E8008091E80082FF66
:1046E0002AC08091F100809340028091E8008B778E
:1046F0008093E8000C94FB2580915002813AF9F4F4
:104700008091E800877F8093E80080915402909127
:104710005502892B61F468E088E392E070E00E9422
:104720000A258091E8008B778093E800089560E087
:1047300090E080E0F3CF80914F028111CECF0895B9
:1047400080915002813AD9F780915402909155029C
:10475000892BA9F78091E800877F8093E8008091FA
:10476000E80080FFFCCF809164018093F10080918C
:10477000E8008E77BDCF80915002813201F78091A1
:10478000540290915502892BD1F68091E800877FE1
:104790008093E8000E94FB2580915202809364017F
:1047A0000C94DD1680915002813249F68091E80028
:1047B000877F8093E8000E94FB25809153028093BD
:1047C0004102089580915002813A09F0B8CF80915A
:1047D000E800877F8093E8008091E80080FFFCCFAD
:1047E00080914102C2CF84B7877F84BF0FB6F8940F
:1047F000A8958091600088618093600010926000AD
:104800000FBE80E880936100109261000E942A121E
:104810000E944B260E94A8268091E200846080932B
:10482000E20078940E9431290E942E128AE591E0DC
:104830000E94D71180914F02853019F00E943412E6
:10484000F9CF0E94521D80914D02882399F30E9456
:10485000801D882379F30E94A524ECCF0C9430248A
:10486000292F33272330310521F168F42130310518
:1048700009F449C02230310509F44AC090E080E0D3
:1048800030E020E029C02132310581F122323105AA
:10489000A9F76330710590F7FB01EE0FFF1FEC578E
:1048A000FE4F208131816F577E4FFB01808190E068
:1048B00013C099278130910599F0009741F082301B
:1048C000910589F00397D1F6EBE4FDE002C0EDE736
:1048D000FDE0849190E09F01FA01318320830895E7
:1048E000E5E6FDE0F6CFE1E5FDE0F3CF63307105ED
:1048F00028F6660F771FFB01E657FE4F20813181B6
:1049000089E090E0E9CF82E190E025ED3DE0E4CF61
:1049100084E590E021E83DE0DFCF0895CF93C82FF4
:104920000E948D24C0934202CF91089580914F023E
:10493000843011F482E0089581E00895809142026C
:10494000811102C00C949624089580E189BD82E112
:1049500089BD09B400FEFDCF8091D8008F7D809382
:10496000D8008091E00082608093E0008091E000B8
:1049700081FDFCCF0895AF92BF92CF92DF92FF925C
:104980000F931F93CF93DF936C01EB018A010E9479
:104990001A26F82E811123C00115110539F0F801EE
:1049A00080819181C81BD90BC80ED91EB12CA12CB6
:1049B0002097A9F08091E80085FD22C08091E80051
:1049C0008E778093E80001151105A1F0F801808130
:1049D0009181A80EB91EB182A08285E0F82E8F2D9C
:1049E000DF91CF911F910F91FF90DF90CF90BF90FB
:1049F000AF9008950E941A268823D1F2F82EEFCFA7
:104A0000F60181916F018093F1002197FFEFAF1ABA
:104A1000BF0ACECFFC0180915602909157028617B3
:104A20009707A0F06115710529F49091E8009E7731
:104A30009093E80090E06115710551F4911108C060
:104A40008091E80082FF34C080E00895BC01F2CF7D
:104A500080914F028823C1F18530C1F18091E80037
:104A600083FD30C08091E80082FDEACF8091E800AC
:104A700080FFE1CF8091F3002091F200382F611583
:104A8000710519F02830310558F091E028303105D2
:104A900009F090E02091E8002E772093E800CBCF3A
:104AA00081918093F100615071092F5F3F4FE7CFF3
:104AB00080914F02882341F0853041F08091E800D9
:104AC00083FFBECF81E0089582E0089583E00895DA
:104AD000FC01809156029091570286179707A0F02B
:104AE0006115710529F48091E8008E778093E800C4
:104AF00090E06115710551F4911108C08091E800B2
:104B000082FF35C080E00895BC01F2CF80914F0252
:104B10008823C9F18530C9F18091E80083FD31C057
:104B20008091E80082FDEACF8091E80080FFE1CF2C
:104B30008091F3002091F200382F6115710519F072
:104B40002830310558F091E02830310509F090E027
:104B50008091E8008E778093E800CBCF849180939A
:104B6000F1003196615071092F5F3F4FE6CF809180
:104B70004F02882341F0853041F08091E80083FFA7
:104B8000BDCF81E0089582E0089583E00895982FD5
:104B9000973028F08F708093E90081E0089590931A
:104BA000E900242F762F50E0981731F07091EC0037
:104BB0002091ED005091F00021FD02C09F5FE8CFF1
:104BC0003091EB003E7F3093EB003091ED003D7F64
:104BD0003093ED003091EB0031603093EB00709337
:104BE000EC002093ED005093F0002091EE0027FDA3
:104BF000E5CF80E008958091500287FF13C0809137
:104C0000E80082FF06C08091E8008B778093E8007F
:104C100004C080914F028111F2CF089580914F021C
:104C20008823D9F38091E80080FFF8CF8091E800D5
:104C30008E77ECCF2091E4003091E50095E6A90154
:104C40002091EC00822F817020FF06C08091E80047
:104C500080FF06C080E008952091E80022FD1AC080
:104C600080914F02882389F0853089F08091EB0094
:104C700085FD0FC02091E4003091E50042175307F5
:104C8000F9F29150E1F684E0089582E0089583E01E
:104C9000089581E008950E94B9260E94C126E0EEA1
:104CA000F0E0808181608083E8EDF0E080818F77A3
:104CB000808319BCA7EDB0E08C918E7F8C938081AE
:104CC0008F7E808310924E0208950F931F93CF938F
:104CD000DF930E94B9260E94C126C8EDD0E08881EA
:104CE0008F77888388818068888388818F7D888397
:104CF00019BC10924F0210924B0210924D0210926A
:104D00004C0200EE10E0F80180818B7F8083888167
:104D10008160888342E060E080E00E94C725E1EE88
:104D2000F0E080818E7F8083E2EEF0E08081816020
:104D30008083808188608083F80180818E7F80837A
:104D4000888180618883DF91CF911F910F910895B1
:104D5000E8EDF0E080818F7E8083E7EDF0E08081F8
:104D60008160808384E082BF81E080934E020C9456
:104D70006526E8EDF0E080818E7F80831092E2006E
:104D800008951092DA001092E10008951F920F9298
:104D90000FB60F9211242F933F934F935F936F930E
:104DA0007F938F939F93AF93BF93EF93FF938091E4
:104DB000E10082FF0BC08091E20082FF07C080917A
:104DC000E1008B7F8093E1000E9430298091DA001E
:104DD00080FF19C08091D80080FF15C08091DA0053
:104DE0008E7F8093DA008091D90080FF96C080E1A9
:104DF00089BD82E189BD09B400FEFDCF81E08093C9
:104E00004F020E9425238091E10080FF19C080910C
:104E1000E20080FF15C08091E2008E7F8093E20067
:104E20008091E20080618093E2008091D8008062EE
:104E30008093D80019BC85E080934F020E943723ED
:104E40008091E10084FF2BC08091E20084FF27C0A5
:104E500080E189BD82E189BD89B5982F917080FF7D
:104E6000FBCF8091D8008F7D8093D8008091E100A6
:104E70008F7E8093E1008091E2008F7E8093E2003C
:104E80008091E20081608093E20080914B02882350
:104E900009F449C084E080934F020E943823809136
:104EA000E10083FF29C08091E20083FF25C080914B
:104EB000E100877F8093E10082E080934F021092AF
:104EC0004B028091E1008E7F8093E1008091E200AF
:104ED0008E7F8093E2008091E20080618093E20007
:104EE00042E060E080E00E94C7258091F000886089
:104EF0008093F0000E943623FF91EF91BF91AF9114
:104F00009F918F917F916F915F914F913F912F91E1
:104F10000F900FBE0F901F90189519BC10924F0262
:104F20000E94332370CF8091E30087FD93E090933C
:104F30004F02B3CF1F920F920FB60F9211242F93EF
:104F40003F934F935F936F937F938F939F93AF9311
:104F5000BF93CF93DF93EF93FF93D091E900DF707E
:104F60008091EC00C82FC17080FDC0E81092E9006C
:104F70008091F000877F8093F00078940E94DE2774
:104F80001092E9008091F00088608093F000CD2BB2
:104F9000CF70C093E900FF91EF91DF91CF91BF9166
:104FA000AF919F918F917F916F915F914F913F91C1
:104FB0002F910F900FBE0F901F9018951F93CF93B6
:104FC000DF93CDB7DEB7AA970FB6F894DEBF0FBE5A
:104FD000CDBF80E592E02091F100FC012193CF014B
:104FE000F2E088359F07B9F70E9449238091E800D5
:104FF00083FF1EC180915002909151029A3008F0B7
:1050000017C1E92FF0E0E85FF54D0C946029803876
:1050100099F0823809F00CC1809154028F7087306A
:1050200008F006C18093E9008091EB0085FB88279A
:1050300080F91092E90006C080914C0290914D02D7
:10504000911182609091E800977F9093E80080939F
:10505000F1001092F1008091E8008E77E5C088237E
:1050600009F4D3C0823009F0E3C08091520281116B
:10507000D6C0809154028F702FEF280F263008F091
:10508000D7C08093E9002091EB0020FFC8C0933087
:1050900031F48091EB0080628093EB00C0C090916E
:1050A000EB0090619093EB0021E030E001C0220F13
:1050B0008A95EAF72093EA001092EA008091EB00CB
:1050C0008860EACF8111B4C0109152021F7780919D
:1050D000E3008078812B8093E3008091E800877F54
:1050E0008093E8000E94FB258091E80080FFFCCFC0
:1050F0008091E30080688093E30082E0111183E0F7
:1051000080934F0295C08058823008F091C0809102
:105110005202909153028C3D23E09207A1F583E067
:105120008A838AE289834FB7F894DE01139620E0E0
:105130003EE051E2E32FF0E050935700E49120FF6E
:1051400003C0E295EF703F5FEF708E2F90E0EA3082
:10515000C0F0C7968D939D932F5F243159F74FBFB1
:105160008091E800877F8093E8006AE270E0CE01DA
:1051700001960E940A258091E8008B778093E800D1
:1051800057C0C096E7CF6091540270915502AE01AE
:105190004F5F5F4F0E942E24BC01892B09F448C049
:1051A0009091E800977F9093E80089819A810E940E
:1051B0006825E1CF8038E1F58091E800877F809312
:1051C000E80080914B028093F10045CF811130C0FF
:1051D00090915202923060F58091E800877F809331
:1051E000E80090934B020E94FB2580914B0288239C
:1051F00011F084E005C08091E30087FDFACF81E0E3
:1052000080934F020E943A2313C080915202813052
:1052100079F481E0933009F080E080934D021092A0
:10522000E9008091E800877F8093E8000E94FB25D9
:105230008091E80083FF0AC08091E800877F809317
:10524000E8008091EB0080628093EB00AA960FB695
:10525000F894DEBF0FBECDBFDF91CF911F910895AF
:105260000895CF9380914F028823A1F0C091E90067
:10527000CF709091EC00892F817090FD80E8C82B51
:105280001092E9008091E80083FD0E94DE27CF7034
:10529000C093E900CF91089597FB072E16F4009470
:1052A00007D077FD09D00E94662907FC05D03EF49F
:1052B000909581959F4F0895709561957F4F0895C2
:1052C000EE0FFF1F0590F491E02D0994AA1BBB1B64
:1052D00051E107C0AA1FBB1FA617B70710F0A61BF6
:1052E000B70B881F991F5A95A9F780959095BC0117
:1052F000CD010895F999FECF92BD81BDF89A992705
:1053000080B50895A8E1B0E042E050E00C94A229F5
:10531000262FF999FECF92BD81BDF89A019700B46E
:10532000021639F01FBA20BD0FB6F894FA9AF99A0E
:105330000FBE08950196272F0E9489290C94882971
:10534000DC01CB01FC01F999FECF06C0F2BDE1BD45
:10535000F89A319600B40D9241505040B8F7089534
:10536000F894FFCFB20AB70AC30ACB0AD30AD80A05
:10537000F10AC00AC00AC00AF60AFE0A060B0B0BA5
:10538000100B150B1D0B4B0C570C5B0C5F0C630CBF
:10539000670C6B0C6F0C730C770C7B0C7F0C830C05
:1053A000870C8B0C8F0C930C970C7B147B14DA14EA
:1053B000DA1421153D15A814A8147F15A814171682
:1053C00017168216A814A8148B162116211621165A
:1053D0002116211621162116211621162116211615
:1053E000211621162116211621162E163C164316BB
:1053F0004A165416EE16EE16F716F716F916F716A5
:10540000F716F716EE16EE16FE16F716F716FE1638
:1054100007282F2818292F281829622883281829B7
:04542000DA28E62878
:10542400010000600A00000000000000000000000D
:1054340000000000000000700A00000000000000EE
:1054440000000000000000000000008E0A000000C0
:1054540000000000000000000000000000000080C8
:105464000A0000000000000000000000000000002E
:1054740000FF20022808140A321E5422F222C722F6
:1054840091225722013534C697669436323331F768
:10549400F6000000000000010203040506070809E5
:1054A40000404D366A0E1D0EE70D930DAC0DC50D73
:00000001FF
