:100000000C941A080C946D0A0C9461080C94610805
:100010000C9461080C9461080C9461080C946108BC
:100020000C9461080C9461080C948B270C945F2845
:100030000C945F1E0C9461080C9461080C94610888
:100040000C9461080C9461080C9461080C9461088C
:100050000C9461080C94C51E0C9461080C94610802
:100060000C9461080C9461080C9461080C9461086C
:100070000C9461080C9461080C9461080C9461085C
:100080000C9461080C9461080C9461080C9461084C
:100090000C9461080C9461080C9461080C9461083C
:1000A0000C9461080C9461080C94610801E301E070
:1000B000014F024F02E002E30001E301E0015002C0
:1000C0005002E002E30001E30115021574FF02E3B0
:1000D00074FF010602060110021001070207012841
:1000E000022874FF01130213010C020C011102110A
:1000F000010A020A012C022C01E00119021902E096
:100100000001E30115021502E301060206011002D7
:1001100010010702070128022874FF74FF010C0276
:100120000C01130213010602060112021201110250
:100130001101090209010C020C010A020A012C0238
:100140002C0138023801040204010F020F010F02D2
:100150000F012802280001E30115021574FF02E3D4
:1001600074FF0106020601100210010702070128B0
:1001700002280001E0010402040106020602E00078
:1001800001E00119021902E00001E0010602060285
:10019000E000636D64012800012B012B012800752C
:1001A0000A012B022B010C020C01110211012B027E
:1001B0002B01280228012B022B012B022B012B02E1
:1001C0002B010C020C01110211012B022B01280240
:1001D0002800750A012B022B0112021201170217C7
:1001E000012B022B01280228012B022B012B022BB1
:1001F000012B022B011D021D01150215012B022BE3
:100200000128022800750A012B022B01120212019B
:10021000130213012B022B01280228012B022B01B0
:100220002B022B012B022B011D021D0115021501B2
:100230002B022B01280228006970636F6E666967C4
:10024000202F616C6C0000750A012702270106024D
:1002500006012B022B012B022B01040204012B02AD
:100260002B00011B021B00750A01E0011702170198
:100270001902190128022802E000467265717565AD
:100280006E7477656273697465012800596F7572C1
:10029000456D61696C0061646D696E012B313131AE
:1002A0003101280001E3012B022B02E3002E001E86
:1002B000001F002000210022002B4514001A000915
:1002C0000013000A0028400400150016001700075C
:1002D00000E1001D001B000600190005002961E275
:1002E00000E3001E001E0035000000000050004F1B
:1002F000002A00E1000000000000303500DD5C460F
:10030000002D0027002600250024002300310033A3
:10031000001C0018000F000D00280012000C00083F
:100320000011000B00350038003700360010000EB9
:1003300000340001004F00500001004C000000009C
:1003400000510052002C002800000000004D004A1F
:1003500000DE5C4C002E001E001F00200021002249
:10036000002B4514001A000800150017002840044F
:10037000001600070009000A00E1001D001B00062E
:1003800000190005002961E200E30050004F002A37
:10039000000000000050004F002A00E100000000B3
:1003A0000000303500DD5C46002D002700260025CA
:1003B00000240023003100130012000C0018001C60
:1003C00000280033000F000E000D000B0035003830
:1003D0000037003600100011003400510052004F69
:1003E0000050002C0000000000510052002C00289A
:1003F00000000000004D004A00DE5C4C002E001E94
:10040000001F002000210022002B0034003600379E
:100410000013001C00296104001200080018000CE1
:1004200000E100330014000D000E001B002B45E01E
:1004300000E200E300DD5C2C000000000050004FF3
:10044000002A00E1000000000000303500DD5C46BD
:10045000002D00270026002500240023002D000F7A
:1004600000150006000A00090038001600110017E8
:10047000000B00070028401D0019001A001000059D
:10048000004F0052005100500052002A00000000AE
:1004900000510052002C002800000000004D004ACE
:1004A00000DE5C4C0035000C300D300E30010001D8
:1004B00000010001000330023001000F300100068E
:1004C00030010001000100010001000100013001C4
:1004D0000001000100005C010001000100010000BA
:1004E0005C0000000050004F002A00E10000000006
:1004F0000000303500DD5C4600010030002F0001B7
:10050000000100010001000A30103001000100016B
:1005100000010001000B3052000100010001000148
:10052000004F00510050000100005C01000100017B
:10053000000100010000000000510052002C0028C2
:1005400000000000004D004A00DE5C4C0035001E3B
:10055000001F0020002100220025001E0003301E85
:10056000001E001E0025001E001E001E001E001E94
:100570000025001E001E001E001E001E00005C1E46
:10058000001E001E001E0001000000000050004F71
:10059000002A00E1000000000000303500DD5C466C
:1005A000002D00270026002500240023000000560F
:1005B0000023002200210000000000570020001F3F
:1005C000001E000000000000003700270027000088
:1005D00000005C0000000055005400005C000000BA
:1005E00000510052002C002800000000004D004A7D
:1005F00000DE5C4C0045003A003B003C003D003E04
:100600000001002000200020002000200001000147
:100610000052000100010001000100500051004F94
:1006200000010001002961E200E3000357DD5C2ABC
:10063000000000000050004F002A00E10000000010
:100640000000303500DD5C460044004300420041BC
:100650000040003F00010001000100010001000115
:10066000000100520001000100010001004F005193
:100670000050000100010001004F00510050003403
:100680000052002C0000000000510052002C0028F5
:1006900000000000004D004A00DE5C4C000000003D
:1006A000000000000000000000000000000000004A
:1006B000000000000000000000000000000000003A
:1006C000000000000000000000000000000000002A
:1006D000000000000000000000000000000000001A
:100D2000000000000000000000000000000100DAE8
:100D30005CDB5CC15CC45CC35C0100DB5C01001D6E
:100D40005C1E5C135C01001E001E0001000100011E
:100D500000010001000100DA5C0100010001000156
:100D6000000100010001000100000000000100017D
:100D7000000100010000000000010001000100016D
:100D800000005C005CC75CC85CC55CC65C0100011F
:100D90005CDC5CDA5CDB5C0A5C01000100010001E8
:100DA000000100010001000100010001000100013B
:100DB000000100010001000100010001000000002D
:100DC000000100010001000100000000000100011D
:100DD000000100010000000000000000002A2B2894
:100DE0000000000000000000000000000000000003
:100DF00029000000002C1E3420212224342627251F
:100E00002E362D3738271E1F202122232425263356
:100E100033362E37381F0405060708090A0B0C0D58
:100E20000E0F101112131415161718191A1B1C1D6A
:100E30002F3130232D350405060708090A0B0C0D48
:100E40000E0F101112131415161718191A1B1C1D4A
:100E50002F3130354C000000000000000000000081
:100E60000000000000000000000000000000000082
:100E70000000000000000101010101010001010169
:100E80000100000000000000000000000000000160
:100E90000001000101010101010101010101010144
:100EA0000101010101010101010101010101010132
:100EB0000000000101000000000000000000000030
:100EC0000000000000000000000000000000000022
:100ED000010101010004033000000012034D006114
:100EE000006E00750066006F0072006D0000001655
:100EF0000343004800200062006F0078004D006F3F
:100F00000064007300000004030904090254000394
:100F10000100A0FA090400000103010100092111E8
:100F20000100012240000705810308000A090401AD
:100F3000000103010200092111010001224D0007F7
:100F400005820308000A09040200010300000009E9
:100F500021110100012236000705830308000A124F
:100F600001100100000008EDFE60300100010203E5
:100F70000105010980A10185021601002603001A5E
:100F800081002A8300751095018100C0050C0901BC
:100F9000A1018503160100269C021A01002A9C0269
:100FA000751095018100C005010902A1010901A187
:100FB000000509190129051500250195057501810F
:100FC000029501750381010501093009311581255B
:100FD0007F95027508810609381581257F95017571
:100FE000088106050C0A38021581257F95017508D0
:100FF0008106C0C005010906A101050719E029E71E
:10100000150025019508750181029501750881017A
:1010100005081901290595057501910295017503CA
:1010200091010507190029FF150026FF0095067597
:10103000088100C011241FBECFEFDAE0DEBFCDBFB4
:1010400004B603FE27C08091610290916202A091D4
:101050006302B09164028730904BA740B04BD1F44B
:101060001092610210926202109263021092640266
:1010700014BE84B7877F84BF0FB6F894A89580917B
:101080006000886180936000109260000FBEE0E015
:10109000F8E3099511E0A0E0B1E0EEEAF5E502C061
:1010A00005900D92A239B107D9F722E0A2E9B1E08B
:1010B00001C01D92A136B207E1F70E94B8240C943A
:1010C000752A0C9400000C94FF0B809134028B6005
:1010D00080933402ABE6B1E061E070E08D91E82FDF
:1010E000E295EF70F0E041A18F709B0101C0220FEB
:1010F0008A95EAF7922F9095942391A382A1822B4F
:1011000082A381E0A237B80749F7A5E6B1E061E024
:1011100070E08D91E82FE295EF70F0E041A18F70C3
:101120009B0101C0220F8A95EAF7922F9095942394
:1011300091A382A1822B82A381E0AB36B80749F745
:10114000559A209AE2E9F1E0A1EAB1E080EA91E063
:1011500011921D928E179F07D9F70C949B0E3F9208
:101160004F925F926F927F928F929F92AF92BF92B7
:10117000CF92DF92EF92FF920F931F93CF93DF9363
:1011800000D000D0CDB7DEB7809100018111B0C092
:1011900087E090E09A83898309811A810F551E4F59
:1011A0008BE6E82E81E0F82E6801AA24A394B12CE6
:1011B0008824839424E0922ED6016D906D01FD0168
:1011C0001292FC83EB83D7018D917D01E82FE2958C
:1011D000EF70F0E091A18F70B50101C0660F8A95A4
:1011E000EAF7892F862B81A382A1762E709487211E
:1011F00082A3B0EABA95F1F745E651E090E080E0CD
:10120000DA015D90AD01252D22952F7030E0D901D6
:1012100090963C90AB81BC814C90352D3F70D501B0
:1012200002C0AA0FBB1F3A95E2F79D01232109F0E6
:1012300062C02A2D082E01C0220F0A94EAF7242941
:10124000AB81BC812C93019686309105C9F681A1B2
:10125000782271A282A1682B62A38C91681659F042
:101260008092AF010E948F1E9093B1018093B001D4
:101270008BB189258BB9B2E7EB16B1E0FB0609F01B
:101280009BCF8091AF018823E1F08091B0019091D4
:10129000B1010E949B1E0697A0F0E981FA81EE56EB
:1012A000FE4FFA83E98380E0D8019D918D01E981A9
:1012B000FA819193FA83E9838F5F8730A9F71092BF
:1012C000AF0181E00F900F900F900F90DF91CF91C1
:1012D0001F910F91FF90EF90DF90CF90BF90AF9054
:1012E0009F908F907F906F905F904F903F90089568
:1012F0001A82198251CF20E0A2CFCF93DF93809141
:101300000001D0E0C0E0882311F0C7E0D0E00E94E7
:10131000D20A009789F4CE56DE4F30E020E0F90182
:10132000EC54FE4F408149932F5F3F4F27303105EA
:10133000B1F7DF91CF91089581E090E0FACFCF939C
:101340000E94AF08C82F0E947D09892BE1F05D98AB
:101350008091A0018F5F8093A001863078F080910A
:101360000001F0E0E0E0882311F0E7E0F0E0EE5665
:10137000FE4F87E090E011920197E9F70E949D0EE1
:101380008C2FCF9108955D9A1092A001F7CF0E9403
:10139000AF0880910001E7E0F0E0882311F0F0E071
:1013A000E0E0EE56FE4F90E080E02191DC01AC548D
:1013B000BE4F2C93019687309105B9F70895E82F19
:1013C000F0E0EE56FE4F808108950895E8EDF0E0DC
:1013D0008081806180838AE18A95F1F700C08091E5
:1013E000D900817008958EE090E00E943F2A91E03C
:1013F000811101C090E0909300010E94E6098823CA
:1014000021F00E94600A789408950E94861E0E942E
:10141000640AF9CF0E9465080E94C709FDCF0E94A7
:10142000F3090E94E609811102C00E940A0A089588
:10143000509A08955098589A0895589A08950E947D
:101440001A0A489BFECF80E88A95F1F708950E941A
:101450001A0A98E080E029B1880F2170822B20E8D9
:101460002A95F1F725E02A95F1F70000915099F7B8
:1014700008950F931F93CF93082F0E94180AC8E076
:1014800010E0C15020F4CF911F910F910895C80131
:101490000C2E02C0959587950A94E2F780FF06C04E
:1014A0000E941D0A80E88A95F1F7EBCF5898FACF91
:1014B0000E94180A589880E88A95F1F70C941D0A42
:1014C0000E94180A0C941D0A0E941A0AE89AE9E67A
:1014D000F0E080818C7F808308951F920F920FB679
:1014E0000F921124EF92FF921F932F933F934F93EC
:1014F0005F936F937F938F939F93AF93BF93CF939C
:10150000DF93EF93FF930E94580AD0E0C0E010E011
:10151000CE018C549E4F7C01FC0180810E94390ACF
:101520000E94580AF7018081180F2196C730D10513
:1015300079F7812F0E94390A0E94580AF0E8FA953B
:10154000F1F780E48A95F1F70E94270A8093B301AE
:101550000E94580AD091B3010E94270AC82F0E9406
:10156000580A0E941A0A8091B201DC17C9F0816002
:101570008093B201FF91EF91DF91CF91BF91AF9135
:101580009F918F917F916F915F914F913F912F919B
:101590001F91FF90EF900F900FBE0F901F90189526
:1015A0008E7FE6CFEF92FF921F93CF93DF93F89455
:1015B0000E94180A589825E02A95F1F700000E9429
:1015C0001A0A0E941D0A30E83A95F1F789B1182FDE
:1015D000117080FF09C0789481E090E0DF91CF9195
:1015E0001F91FF90EF9008950E941F0AD0E0C0E085
:1015F0000E94270AFE01EC54FE4F7F0180830E9467
:101600001F0AF7018081180F2196C730D10581F795
:101610000E94270AC82F0E941F0A1C13DCCF80914A
:10162000B3010E94390A0E941F0A8091B3010E94EF
:10163000390A0E941F0A0E94180A0E941D0A789403
:1016400090E080E0CBCF0C94FE0BFC0180818130D8
:1016500021F489E891E00C94121B823019F480E89F
:1016600091E0F9CF83E791E0F6CFFC0180818130F2
:1016700021F486E591E00C94121B823019F481E08C
:1016800091E0F9CF86EC90E0F6CFFC0180818130CB
:1016900021F489EB90E00C94121B823019F48CEA4F
:1016A00090E0F9CF0895FC018081813031F488E326
:1016B0000E94D21388E30C94AD1481E30E94D213EC
:1016C00081E3F9CFCF93DF93EC010E94C81DBE01E7
:1016D00090E080E0DF91CF910C94981BDC016131A8
:1016E000A0F4E62FF0E0E958F54D0C94252A129667
:1016F0008C91129781116DC012968C91129788234C
:1017000039F086E992E00E94320E90E080E0089580
:1017100012968C911297882319F08CE892E0F3CFFF
:1017200012968C911297882319F08AE792E0EBCFFA
:1017300012968C91129781114FC015968C91159726
:10174000982F907F12962C91222341F0992311F02B
:1017500080FFDBCF83E00E94FA1BD7CF992311F0E3
:1017600080FF3DC083E00E941B1CCFCF12968C915E
:101770001297811137C012968C911297882319F015
:1017800086E492E0C0CF12968C911297882319F0CC
:1017900088E392E0B8CF12968C911297811125C000
:1017A00012968C911297811123C012968C911297E8
:1017B000811121C012968C91882309F4A6CF88E963
:1017C00091E0A1CF12968C9181119FCF82E991E097
:1017D0009ACF84EA92E0089587E692E0089582E63F
:1017E00092E0089587E492E0089585E092E00895FC
:1017F00082ED91E008958FE991E0089508950895AC
:10180000CF93FB018C3D2CE5920751F158F48A3DB2
:101810002CE59207B1F08B3D9C45E1F0C1E08C2FA7
:10182000CF9108958E3D2CE5920761F1F8F0803E4E
:101830009C45A1F7C28180E1CC2379F10E94FA1B7B
:1018400007C0C28181E090E0CC2349F30E94620B83
:10185000C0E0E5CFC28182E090E0CC2301F3F6CF77
:10186000C281CC23E1F284E090E0F0CFC28183E03A
:10187000CC2359F00E94FA1B40E164E083E00E940F
:10188000890EE6CFC28184E0F3CF0E941B1C40E1A9
:1018900064E083E00E94890EC2CF0E941B1CBFCF70
:1018A00081E008950C94000C0E94A2172FEF84E3AE
:1018B0009CE0215080409040E1F700C0000087E7A5
:1018C00097E790930108809300080C94E91E0F930A
:1018D0001F93CF93DF938C01FC01C081D181CE0196
:1018E0000E94961CBE010E94A70EEC01B8010E9446
:1018F000AF11B801CE010E94520C882309F459C0DF
:10190000B801CE010E94F311882309F452C0B80136
:10191000CE010E940211882309F44BC0C531FCE5B9
:10192000DF0709F427C1B0F4C130ECE5DE0709F4A4
:1019300046C008F056C0C115DC45B1F181E0809386
:10194000C0018093C101C801DF91CF911F910F9118
:101950000C94500CC53DECE5DE0709F4F0C0B8F47A
:10196000C33D8CE5D80709F4AEC0C43DDC4531F772
:10197000F8018281882309F4CDC01092C1010E9430
:101980008F1E9093BF018093BE0180E2A9C0C83D25
:10199000FCE5DF07F1F0C93DDC4581F6F801828105
:1019A000882339F082E01AC0F801828181110E94F7
:1019B000540C80E0DF91CF911F910F910895F801B1
:1019C00082818823B1F38091340281608093340254
:1019D000F0CFF8018281882361F380E00E945325D3
:1019E000E8CFF8018281882309F4ADCF0E94B51DAC
:1019F000811102C00E949B1D0E94CD1D90E090931A
:101A0000530280935202FE01E350FC458091520242
:101A10008160E231F10538F4E857F54D0C94252A40
:101A200080915202826080935202809152020E9401
:101A3000D11D0E94A217BDCF809152028460F3CFC6
:101A4000809152028860EFCF809152028061EBCF8B
:101A5000809152028062E7CF809152028064E3CF8E
:101A6000809152028068DFCF809152028C60DBCF80
:101A7000809152028E7FD7CF809152028D7FD3CF3B
:101A8000809152028B7FCFCF80915202877FCBCF44
:101A9000809152028F7EC7CF809152028F7DC3CF3B
:101AA000809152028F7BBFCF809152028F77BBCF44
:101AB00080915202837FB7CF90915202892F97FB7A
:101AC00087F98058B0CFF8018281882361F01092A5
:101AD000C0010E948F1E9093BD018093BC0182E0E3
:101AE0000E94FC1466CF8091C00181110FC08091CB
:101AF000BC019091BD010E949B1E8639910530F476
:101B000086E20E94D21386E20E94AD1482E00E9417
:101B100003154FCF8091C10181110FC08091BE018B
:101B20009091BF010E949B1E8639910530F487E297
:101B30000E94D21387E20E94AD1480E2E8CFF80140
:101B4000828181111ACF8091C1018111F6CF8091DC
:101B5000BE019091BF010E949B1E8639910568F7D6
:101B600080E20E94031588E20E94D21388E20E945C
:101B7000AD141FCF0E945C1DF8019281992381F062
:101B80008A7A91E009F490E09093BB01811106C03C
:101B900089E20E94E51C0E94291D0BCF85E3F9CF45
:101BA0008091BB01811104C089E20E94EC1CF3CF3B
:101BB00085E3FBCFCF9390E0FC01EB52F24FC49151
:101BC0008B5A914FFC018491882369F081EE0E9429
:101BD000D2138C2F0E94D2138C2F0E94AD1481EE51
:101BE000CF910C94AD148C2F0E94D2138C2FF8CF70
:101BF000FF920F931F93CF93DF938C01F62EF80182
:101C00008491882349F1E8012196813049F4FE014D
:101C10001491812F0E94D213812F0E94AD1406C00F
:101C2000823089F4FE0184910E94D2138E010F5FED
:101C30001F4F8F2D815018F3EFE9FFE03197F1F737
:101C400000C00000F7CF833019F4FE018491E5CF86
:101C50000E94DA0DE801EACFDF91CF911F910F9139
:101C6000FF90089560E00C94F80D8F929F92AF92D0
:101C7000BF92CF92DF92EF92FF920F931F936B016F
:101C80007C0181E090E0A0E0B0E04C015D0104C087
:101C9000880C991CAA1CBB1C4A95D2F7B501A4015B
:101CA0004C015D0104C0880C991CAA1CBB1C2A9520
:101CB000D2F7482959296A297B2904C0880F991F1E
:101CC000AA1FBB1F0A95D2F78A019B010C211D2177
:101CD0002E213F21041715072607370789F48C2981
:101CE0009D29AE29BF29BC01CD011F910F91FF9005
:101CF000EF90DF90CF90BF90AF909F908F9008951E
:101D000080959095A095B0958C219D21AE21BF2105
:101D1000EACF0F93382F262F60911F027091200277
:101D20008091210290912202042F432F0E94350EB0
:101D30000F910C94D41B0C94230B0E944D120C9405
:101D4000630808950C94A10E0C94A20E0895972F89
:101D500070E026E0929F600D711D1124FB0194E557
:101D6000899FE00DF11D1124EE0FFF1FE355FD4F7C
:101D7000859194910895FC01EE0FFF1FEB52F14FF6
:101D8000859194910895CF93DF930E94A70E0E94AE
:101D90006310EC01811520E5920708F042C081151F
:101DA00030E4930708F007C1883E910528F5803E8E
:101DB000910508F09BC0883A910588F4853A910511
:101DC00008F08AC08130910509F490C0009709F4A9
:101DD0008DC0049708F08AC0D0E0C0E087C08D3B7A
:101DE000910508F487C0805C9109C03CD105A0F33F
:101DF0000E94BB0EEC017AC08115904250F4C115CF
:101E000081E0D80708F072C0C03FD10528F3D06543
:101E10006DC0C11590E3D90708F0C3C0CE019F7013
:101E2000E7CF811525E5920758F5811534E593072D
:101E300008F0F0C0811542E5940750F4C11581E522
:101E4000D80708F4BBC0DC2FCC27C16FD06A4EC0C6
:101E5000982F969596959E0123703327C115D345EB
:101E600008F0C9C0C1E0D0E002C0CC0FDD1F2A9548
:101E7000E2F720E2929FC0011124C82BD92BB9C0F0
:101E8000C11589E5D80780F4C11598E5D90708F090
:101E9000C6C0C11526E5D20708F09ECFDC2FCC279F
:101EA000CC27DF71D06222C0CE01C1153AE5D3073D
:101EB00008F4BAC090568115904208F08DCF8D2F4E
:101EC0008F710E94DE1090E0982F882788279F71DD
:101ED0009C012C2BE901E6CF853A910509F4AEC0AF
:101EE000863A910509F0ADC0C2E8D0E4CE01DF9199
:101EF000CF910895883A910509F4A6C0893A9105D1
:101F000009F4A5C08A3A910509F4A4C08B3A910559
:101F100009F4A3C08C3A910509F4A2C08B3B91054A
:101F200009F4A1C08C3B910509F4A0C08D3A91053C
:101F300009F49FC0803B910509F49EC08E3A91053B
:101F400009F49DC08F3A910509F49CC0813B91052D
:101F500009F49BC0823B910509F49AC0833B91052B
:101F600009F499C0843B910509F498C0853B91051B
:101F700009F497C0863B910509F496C0873B91050B
:101F800009F495C0883B910509F494C0893B9105FB
:101F900009F493C08A3B910509F492C0C0E0D4E4EF
:101FA000A5CFCE019927D3FF03C0EC01D86C9ECFFB
:101FB000EC01D06C9BCFDF70D06A98CFCE01E4E00B
:101FC00096958795EA95E1F783702C2F26952695AF
:101FD000237090E2299F90011124382B8C2F83705D
:101FE000C1E0D0E002C0CC0FDD1F8A95E2F7C22B22
:101FF000D32BDC687BCFC1E0D0E002C0CC0FDD1F6B
:102000002A95E2F730E2939FC0011124C82BD92B07
:10201000DA686CCFD82FCC27C46FD06A67CFDC2F9B
:10202000CC27C06FD06A62CF34E0969587953A95F9
:10203000E1F78F70CF70C06ED82FBECFC1E8D0E46B
:1020400055CFC3E8D0E452CFC2EED4E44FCFC9EEAF
:10205000D4E44CCFCAEED4E449CFC5EBD4E446CFA8
:10206000C6EBD4E443CFC3EBD4E440CFC4EBD4E419
:102070003DCFC7EBD4E43ACFCCECD4E437CFCDECB2
:10208000D4E434CFC3E8D5E431CFCAE8D5E42ECFC9
:10209000C2E9D5E42BCFC4E9D5E428CFC1E2D6E428
:1020A00025CFC3E2D6E422CFC4E2D6E41FCFC5E2F7
:1020B000D6E41CCFC6E2D6E419CFC7E2D6E416CFE9
:1020C000CAE2D6E413CF8238910549F1B0F48133E6
:1020D000910509F462C048F48932910509F456C0AB
:1020E0008A32910509F460C008958533910509F499
:1020F00046C08933910599F00895833E910531F1E9
:1021000038F4803E910591F0823E9105B1F008953A
:10211000863E910521F1873E910551F10895209168
:1021200052022370D9F080EE90E00895209152027F
:1021300020FF14C089E390E008952091520222FF0D
:102140000DC024FD09C083EE90E008952091520255
:1021500022FD31C024FF02C090E080E0089520916C
:10216000520223FFFBCF24FDF7CF87EE90E00895C6
:102170002091520223FFEECF86EE90E00895209149
:10218000520225FFEBCF89E290E0089520915202A0
:1021900025FFE4CF85E390E008952091520226FFC9
:1021A000DDCF8AE290E008952091520226FFD6CF3B
:1021B00081E390E0089582EE90E0089590915202BC
:1021C00092FF06C0282F2871283069F4877F846029
:1021D00093FF06C0282F2871283161F4877E84611F
:1021E00094FD877E0895282F2471243089F78B7FF2
:1021F0008860EECF282F2471243191F78B7E88617F
:10220000EFCF08950F931F93CF938C01FB01828131
:10221000811106C0C1E08C2FCF911F910F910895BD
:10222000C091CF01C11125C006311C4599F70E940C
:10223000011181E08093CF010E948F1E9093CE0107
:102240008093CD011092C2011092C4011092C3017B
:102250001092C6011092C5011092C8011092C701D8
:102260001092CA011092C9011092CC011092CB01B8
:10227000D2CF8091CD019091CE010E949B1E8C32D5
:10228000914040F68091C201E82FF0E0EE0FFF1F71
:10229000ED53FE4F118300838F5F8093C201C0E036
:1022A000BACFCF93DF93EC0181E08F878F810E94BB
:1022B0005F1D88850E94721D0E94291DEA81FB8195
:1022C000309739F06A897B89CE010696DF91CF91EC
:1022D0000994DF91CF910895EF92FF920F931F938E
:1022E000CF93DF93EC018885811132C0EB80FC80B5
:1022F00087E5F81A24E12E9DC0012F9D900D112431
:10230000DC01AF5FBE4F1496ED91FC9115973097AD
:1023100031F052966D917C91895F9E4F099584E1D1
:102320008E9D80018F9D100D11240F5F1E4FF801AF
:1023300087810E94651DF80180850E94781D0E949A
:10234000291D18821F8219861092D1011092D00186
:10235000DF91CF911F910F91FF90EF900895DF9241
:10236000EF92FF920F931F93CF93DF937C01FB01BA
:102370008281882391F0809151018F3F71F0C1E0FB
:10238000D1E010E000E0DD24D39480915101082ECB
:10239000000C990B8017910744F4DF91CF911F91A6
:1023A0000F91FF90EF90DF9008958E818823B9F010
:1023B00089859A858E159F0539F48091D001909179
:1023C000D1018E159F0559F0DD868F85811103C0DF
:1023D000CE010E945111CE0106960E946C110F5F32
:1023E0001F4F6496D2CFEF92FF920F931F93CF931C
:1023F000DF937C0197558F3F910509F0D8F5209127
:102400005101022E000C330B2817390714F4809366
:102410005101FB01228134E1389F8001399F100D69
:102420001124E801CF5FDE4F2E8792818E819923A0
:1024300049F1FA86E9868F5F8E830E948F1E9C8702
:102440008B870E94981D8F830E945C1D88870E9445
:102450006F1D9885892B8887E881F981309731F045
:102460006A897B89C801895F9E4F0995F092D101E5
:10247000E092D00181E0DF91CF911F910F91FF9009
:10248000EF9008958823B1F38F85882399F3C801CD
:10249000895F9E4F0E946C11EDCFEF92FF920F93D8
:1024A0001F93CF93DF938091510110E004E18F3FA0
:1024B000C1F5DF91CF911F910F91FF90EF9008959B
:1024C000029FF001039FF00D1124EF5FFE4FE088A3
:1024D000F188E114F10419F486E9E82EF12C029F49
:1024E000E001039FD00D1124CF5FDE4F8E81882342
:1024F000B9F08B859C850E949B1EE816F90680F436
:10250000109F700111248F85811105C0C7018F5F55
:102510009E4F0E945111C701895F9E4F0E946C110E
:102520001F5F212F30E080915101082E000C990B84
:10253000821793072CF6BDCF9093D7018093D601D5
:102540000895E091D601F091D701309721F00190E4
:10255000F081E02D099480E00895E091D601F0919A
:10256000D701309721F00280F381E02D099408957E
:10257000E091D601F091D701309721F00480F581E8
:10258000E02D099408952091D4013091D5012817A8
:10259000390771F09093D5018093D401E091D60171
:1025A000F091D701309721F00680F781E02D099452
:1025B00008952091D2013091D3012817390771F085
:1025C0009093D3018093D201E091D601F091D7018D
:1025D000309721F00084F185E02D099408950C9442
:1025E0000F0A81E008950E94861E0E9465080C94DF
:1025F000FA1EBF92CF92DF92EF92FF920F931F933A
:10260000CF93DF93CDB7DEB72A970FB6F894DEBF2E
:102610000FBECDBF0E949F090E94F112882309F4CA
:1026200071C089EDC82E81E0D82E10E000E0B02EF8
:10263000802F0E94DF09E82EF601F1906F01F81655
:1026400009F45AC08091340281FD0E94E50990E0AE
:1026500080E0FE242F2D30E0482FB901082E02C063
:10266000759567950A94E2F760FF41C08E83BF823B
:1026700081E090E06C0102C0CC0CDD1C4A95E2F7D1
:102680002E2D30E02C213D21232B09F480E088877A
:102690000E948F1E8160782F9A8789874E815F8183
:1026A00068858A850E94A313F801E752FE4F808156
:1026B0008C2580830E9488200E94A1129091D801CD
:1026C000891789F10E94A1128093D8012A960FB62A
:1026D000F894DEBF0FBECDBFDF91CF911F910F9158
:1026E000FF90EF90DF90CF90BF900C94A40E0196D6
:1026F0008630910509F0B0CF0F5F1F4F0E301105E6
:1027000009F095CF8FEF89838A831B820E948F1EE9
:102710008160782F9D838C8349815A816B818D8163
:102720000E94A313C7CF2A960FB6F894DEBF0FBE40
:10273000CDBFDF91CF911F910F91FF90EF90DF9070
:10274000CF90BF900895CF93DF93CDB7DEB72B978F
:102750000FB6F894DEBF0FBECDBF4F835887698791
:102760007A878B871E821D8285E0FE013796DE0107
:10277000119601900D928A95E1F749815A816B81FA
:102780007C818D819E812B960FB6F894DEBF0FBEA3
:10279000CDBFDF91CF910C94781AFC01808191819B
:1027A0000C94D81CCF93C82F882309F4D4C0823846
:1027B000C1F40E94A11281FDCEC089E30E94E51CF4
:1027C0000E94291D2FEF81EE94E02150804090401F
:1027D000E1F700C0000089E30E94EC1CCF910C944B
:1027E000291D8338A1F40E94A11280FDB4C083E5A5
:1027F0000E94E51C0E94291D2FEF81EE94E02150DC
:1028000080409040E1F700C0000083E5E5CF8438C8
:10281000A1F40E94A11282FD9EC087E40E94E51CE3
:102820000E94291D2FEF81EE94E0215080409040BE
:10283000E1F700C0000087E4CFCF8CEF8C0F813A26
:1028400048F48C2F0E948A22811185C08C2F0E940F
:10285000E51CC4CF80E28C0F883048F4C77081E05B
:1028600001C0880FCA95EAF70E945F1DB7CF8BE5BC
:102870008C0F833068F481E890E0C53A31F083E84A
:1028800090E0C63A11F482E890E0CF910C94C31224
:1028900088E58C0F853108F05EC082EE90E0C83A82
:1028A00009F456C089EE90E0C93A09F451C08AEEA5
:1028B00090E0CA3A09F44CC085EB90E0CB3A09F4B9
:1028C00047C086EB90E0CC3A09F442C083EB90E03D
:1028D000CB3BF1F184EB90E0CC3BD1F187EB90E086
:1028E000CD3AB1F18CEC90E0C03B91F18DEC90E0F1
:1028F000CE3A71F183E891E0CF3A51F18AE891E064
:10290000C13B31F182E991E0C23B11F184E991E0F0
:10291000C33BF1F081E292E0C43BD1F083E292E06C
:10292000C53BB1F084E292E0C63B91F085E292E0D3
:10293000C73B71F086E292E0C83B51F087E292E03B
:10294000C93B31F090E080E0CA3B11F48AE292E0AA
:10295000CF910C94D912CF910895882309F44BC0DC
:10296000823871F40E94A11281FF45C089E30E9460
:10297000E51C0E94291D89E30E94EC1C0C94291D72
:10298000833859F40E94A11280FF35C083E50E946C
:10299000E51C0E94291D83E5EFCF843859F40E947D
:1029A000A11282FF28C087E40E94E51C0E94291D15
:1029B00087E4E2CF9CEF980F913AF0F290E2980F03
:1029C000983050F4877091E001C0990F8A95EAF72A
:1029D000892F0E94651DD2CF9BE5980F933020F47C
:1029E00090E080E00C94C312885A853120F490E086
:1029F00080E00C94D9120895882321F00E945F1D75
:102A00000C94291D0895882321F00E94651D0C94C3
:102A1000291D08958F929F92AF92BF92CF92DF921D
:102A2000EF92FF920F931F93CF93DF937C01D62FEA
:102A3000C72FFC01058102950F70128111110E94B0
:102A40007F1D0E94221DC82E882371F01123B1F032
:102A500080E28D0F883090F082E00E940C1D0E9471
:102A6000221D91E0C82EC926DC2ED2949FE0D922E7
:102A7000ED2DF0E0E656F54D0C94252AC12CF4CF4F
:102A80000C2F0F70C07F11F00295007F1123A9F069
:102A9000002359F080E28D0F883010F0D11109C069
:102AA000802F0E945F1D0E94291D8D2F0E94D2132E
:102AB00014C0802F0E94721DF6CF8D2F0E94AD147E
:102AC000002359F080E28D0F883010F0D11133C00F
:102AD000802F0E94651D0E94291D98E0D91639F0AB
:102AE000D91648F086E08D0D8F70823020F40E9458
:102AF000A1120E94A40ECC2009F4D9C10E94FF1C8F
:102B000080FDD5C1F70112820E94F91C0E94FA1BB8
:102B1000C7010E9464170E94F91CDF91CF911F9199
:102B20000F91FF90EF90DF90CF90BF90AF909F906C
:102B30008F900C941B1C802F0E94781DCCCFFC2FF3
:102B4000FF70BF2EC07FC03219F0B29480EFB82260
:102B5000DD2369F0D13049F1112391F1002351F1C6
:102B6000F701858180FFA1CF8F70858323C011235A
:102B700081F0011106C00E94981D8B290E94FC144F
:102B8000ACCF0130C1F70E94981D8B290E94921D85
:102B9000A4CF011106C00E94951D8B2D0E94031524
:102BA0009CCF013009F499CFF6CF112329F00630DC
:102BB00008F093CF8B2DE2CF053008F08ECFEDCF0C
:102BC000002359F38D2F0E94AD1487CF8C2F86954B
:102BD0008695837069F0813009F07FCF8D2F9C2F0F
:102BE0009370111102C090E080E00E94D91275CF5D
:102BF0008D2F9C2F9370111102C090E080E00E94F5
:102C0000C3126BCF112309F1D53F99F0D63FB9F02C
:102C1000D43F49F480914C0290914D028160909391
:102C20004D0280934C028D2F0E94961F0E947D20A2
:102C300054CF80914C0290914D028260F0CF8091F0
:102C40004C0290914D028460EACFD53F89F0D63F87
:102C5000A9F0D43F49F480914C0290914D028E7FAF
:102C600090934D0280934C028D2F0E94FE1FDECF69
:102C700080914C0290914D028D7FF2CF80914C0259
:102C800090914D028B7FECCF8C2F837009F047C061
:102C9000111123CF2D2F229526952770220F220F59
:102CA0006D2F6F70862E912CB12CA12C022E04C09A
:102CB000880C991CAA1CBB1C0A94D2F760E070E037
:102CC000CB01D4FF0FC06FE070E080E090E004C063
:102CD000660F771F881F991F2A95D2F76095709508
:102CE00080959095C695C695C370C23051F080F41A
:102CF000682979298A299B29C13071F00E94AC1B6F
:102D0000ECCE682979298A299B290E94BE1BE5CE31
:102D10000E94AC1BC501B4010E949A1BDECE8695B1
:102D2000112311F08C2F8170882309F4D6CE2D2F1A
:102D3000229526952770220F220F6D2F6F70862EF9
:102D4000912CB12CA12C022E04C0880C991CAA1C19
:102D5000BB1C0A94D2F760E070E0CB01D4FF0FC037
:102D60006FE070E080E090E004C0660F771F881F7E
:102D7000991F2A95D2F76095709580959095C69584
:102D8000C695C370C23051F080F4682979298A2928
:102D90009B29C13071F00E94711C9FCE682979294E
:102DA0008A299B290E94831C98CE0E94711CC50110
:102DB000B4010E945F1C91CEE0E2ED0FE53108F016
:102DC0004DC0F0E0E655F54D0C94252ADF708C2FB0
:102DD0008F71112321F00E94FA1B8D2FCFCE0E94FC
:102DE0001B1C8D2FDBCE112341F0053008F075CE72
:102DF0008C2F8F710E943E1C70CE063008F06DCE75
:102E0000F7CF8C2F8F71112339F00E94FA1B65CEFA
:102E10008C2F8F711123C9F30E941B1C5ECE1123CE
:102E200029F08C2F8F710E94E51B57CE0E94E01B6A
:102E300054CE112349F0CF718C2F0E94FA1B63E00E
:102E40008C2F0E94031D49CE81E00E940C1D023090
:102E500008F443CE82E00E940C1D3FCE112329F0DE
:102E6000011123CE8C2F8F71D0CF002369F0D9337D
:102E700009F0A8CEFFEF27EE83E0F150204080401C
:102E8000E1F700C000009ECE8C2F8F71C5CF4C2F74
:102E90004F706D2FC7010E946E0B0E94121B1DCE3A
:102EA0004C2F4F706D2FC7010E94A60E16CEDF91DA
:102EB000CF911F910F91FF90EF90DF90CF90BF9037
:102EC000AF909F908F9008950F931F93CF93DF93B0
:102ED000EC018B819C81892B29F088819981892340
:102EE0008F3F29F4DF91CF911F910F910895CE016B
:102EF0000E94670C8823B1F3688179818A810E94DE
:102F0000E21C8C010E94951C0E94971BB801CE0107
:102F1000DF91CF911F910F910C940A150E947F1D94
:102F20000E948F1D0E94F31C0E94291D0E941221E5
:102F30000E947D2090E080E00E94C31290E080E03B
:102F40000C94D9120E946C1D0C948E170E94D81CF0
:102F5000E92FE295EF70E250EE3070F4F0E0E154CA
:102F6000F54D0C94252A803F19F020F4803E20F482
:102F700081E00895843FE1F380E00895803EC0F34E
:102F8000813FD1F7F5CF93FB882780F90895CF9340
:102F9000DF9300D000D00F92CDB7DEB70F900F9027
:102FA0000F900F900F90DF91CF910895CF93DF9303
:102FB00000D000D000D0CDB7DEB726960FB6F8947B
:102FC000DEBF0FBECDBFDF91CF9108951F93CF938A
:102FD000DF93C091E70116E08091E8018C1304C0F3
:102FE000DF91CF911F910895D0E01C9FF0011D9FAC
:102FF000F00D1124E751FE4F4081518162817381B0
:10300000848195810E94D6172196C770E5CF4091A3
:10301000190250911A0260911B0270911C0280915A
:103020001D0290911E020C94D6172091E7019091F9
:10303000E80156E0291302C080E0089530E0529F75
:10304000F001539FF00D1124E751FE4F718176136B
:1030500006C07081781303C07281741304C02F5F9F
:103060003F4F2770E7CF81E008951F93CF93DF9301
:1030700080911E02807FC1F480911B028823A1F001
:103080008091E701C091E8016091190270911A02E4
:1030900040911C0250911D02D62FD723DA01A09532
:1030A000B09516E0C81304C0DF91CF911F91089529
:1030B00090E04115510511F0DF3F31F40196877022
:1030C000F1CF2A0F3B1F17C0189FF001199FF00D79
:1030D0001124E751FE4F21812713F0CF20812613C1
:1030E000EDCF22812111EACF2381348124173507C6
:1030F00040F3241B350B2639310500F720911E02C1
:103100002F70206120931E0226E0289FF001299F46
:10311000F00D1124E251FE4F80818F708061808319
:1031200089E192E00E946417DF91CF911F910C9486
:10313000E6179F92AF92BF92CF92DF92EF92FF92EB
:103140000F931F93CF93DF93CDB7DEB761970FB681
:10315000F894DEBF0FBECDBF8C0185E0F801DE0123
:103160001D9601900D928A95E1F7D801DC90119699
:10317000EC9011971296CC90129780911C0290912E
:103180001D02009709F492C12091190230911A0290
:10319000422F43234F3F09F489C11396AD90BC9051
:1031A00090901B02992009F422C1A816B906E0F1FB
:1031B000F501E81BF90BCF01FF24F3948639910543
:1031C00008F0F12C80911E02982F907FFF2009F4C7
:1031D000C7C091118EC0FC2C3E112BC02D1129C0EF
:1031E000C11027C08F70806180931E020E94071853
:1031F00089E192E00E94641780911E02D801159621
:103200008C938F2D61960FB6F894DEBF0FBECDBFA5
:10321000DF91CF911F910F91FF90EF90DF90CF90B2
:10322000BF90AF909F900895809590958A0D9B1DBB
:10323000C3CFA114B10429F08E2D8D218F3F09F049
:1032400054C180E080FF16C04C2D6E2D8D2D0E9444
:103250001518882379F089E192E00E94641786E0CE
:10326000E9E1F2E0DF011D928A95E9F70E94071873
:10327000F12CC7CFAB2829F08E2D8D218F3F09F07F
:1032800031C180E0B82FB170AB2E80FF29C04C2D2A
:103290006E2D8D2D0E941518B82E811121C0DD864E
:1032A000EE868D859E850E94D81C292F22952F7031
:1032B000223050F0243078F49F7051F0F80195815D
:1032C000907F31F4FB2C9DCF9F7011F08823D1F3B8
:1032D000805E8830B8F3C8010E946417BA2CF2CF20
:1032E000CC2009F48ECF80911E02816080931E0253
:1032F000BFCF3E1106C02D1104C0D801CC2009F467
:103300009CC0DD86EE868D859E850E94A61788234B
:1033100019F1CC2009F180911E02803270F02091C9
:10332000190230911A0238872F831986BB86AA8624
:103330008C87CE0107960E94641786E0F801A9E108
:10334000B2E001900D928A95E1F70E9435180E9433
:103350000718FF24F39455CFC8010E946417F9CFD2
:10336000911115C07A2DB98AA88A4D2D5E2D6C2D2C
:1033700089890E94C71789E192E00E94641786E05C
:10338000E9E1F2E0DF011D928A95E9F763C03E11A1
:1033900012C02D1110C0C1100EC0F8018583C801E4
:1033A0000E946417E9E1F2E086E0DF011D928A9550
:1033B000E9F7F92C26CFDD86EE868D859E850E9465
:1033C000A617882349F2CC2039F280911E02803260
:1033D00008F4B3CF2091190230911A023A8329835D
:1033E0001B82BD82AC828E83CE010196A4CFA8162B
:1033F000B90698F1F501E81BF90BCF01F12C8639DC
:10340000910508F049C0FC2CCC2009F4A5CF3E1151
:1034100032C02D1130C080911E0280FD23C0982F34
:10342000907F01F1D80115968C931597903F39F054
:10343000982F907F905F8F70892B15968C93C80181
:103440000E94641786E0F801A9E1B2E001900D92B4
:103450008A95E1F70E940718D4CE809590958A0D41
:103460009B1DCCCF86E0F801A9E1B2E001900D925E
:103470008A95E1F7C6CEDD86EE868D859E850E9413
:10348000A61781115ACF80911E02816080931E027F
:10349000C8010E946417B5CE7A2DB98AA88A4D2D2D
:1034A0005E2D6C2D89890E94C71769CFCC2009F445
:1034B00053CFDD86EE868D859E850E94A617F82E59
:1034C000882309F449CF86E0F801A9E1B2E0019030
:1034D0000D928A95E1F789E192E00E94CD130E9456
:1034E0003518B8CF81E08C25CDCE81E08C25AACED1
:1034F0001F93CF93DF93CDB7DEB72C970FB6F89419
:10350000DEBF0FBECDBF4F83588769877A878B8711
:103510009C87CE0107960E949918882369F08A85B6
:103520009B85892B39F04F815885842F85238F3FC8
:1035300009F071C016E05FC086E0FE013796DE013B
:10354000119601900D928A95E1F78A859B85892BCA
:1035500089F388859F8189238F3F61F32091E8015A
:1035600030E0C9010196877099274091E70148171B
:10357000190671F40E94A2171092E8011092E70157
:1035800086E0E9E1F2E0DF011D928A95E9F7D2CF0A
:1035900096E0929FD001939FB00D1124A751BE4F8A
:1035A000FE01319601900D929A95E1F78093E80122
:1035B0000E94E617BFCF819FC001112487519E4F03
:1035C0000E9499188823E9F0E091E7011E9FF0011D
:1035D0001124E751FE4F40815181628173818481C2
:1035E00095810E94D6178091E70190E0019687703F
:1035F00099278093E7018091E7019091E801891371
:10360000DACF2C960FB6F894DEBF0FBECDBFDF9198
:10361000CF911F91089569857A858B859C850E943D
:10362000D61788CFEF92FF920F931F93CF93DF931C
:103630008C01892B81F0F12CEE24E394E801219692
:10364000F8018491843770F4843008F05FC08130D1
:10365000B1F08230A1F1DF91CF911F910F91FF90D6
:10366000EF900895853709F44CC008F43DC09CE7FD
:10367000980F903780F78F770E94AD1449C00E5F86
:103680001F4FFE01849190E2980F983060F487708C
:10369000FE2D01C0FF0F8A95EAF78F2F0E94821D31
:1036A0000E94291D02C00E94D2138F2D815030F23A
:1036B000EFE9FFE03197F1F700C00000F7CF0E5FB0
:1036C0001F4FFE01849190E2980F983050F487705C
:1036D000FE2D01C0FF0F8A95EAF78F2F0E94881DEB
:1036E000DFCF0E94AD14E1CF0E5F1F4FFE01C491EA
:1036F000C150D8F28FE99FE00197F1F700C00000B8
:10370000F7CF0E5F1F4FFE01F490CFCF0E94D21370
:103710008E01CBCF08950E948A1B60932302709381
:10372000240280932502909326020C948E1708950C
:103730000C948B1B0F931F93009123021091240272
:103740002091250230912602602B712B822B932B26
:103750001F910F910C948B1B0F931F9300912302C9
:1037600010912402209125023091260260237123BA
:10377000822393231F910F910C948B1B0F931F9304
:1037800000912302109124022091250230912602FB
:1037900060277127822793271F910F910C948B1B11
:1037A0000C948A1B0C94D01B0E94D21B60931F02A6
:1037B0007093200280932102909322020C948E1722
:1037C00060E070E0CB010C94D41B0F931F9341E099
:1037D00050E060E070E08A019B0104C0000F111FFF
:1037E000221F331F8A95D2F7C901B8011F910F918B
:1037F0000C94D41B0F931F9341E050E060E070E005
:1038000004C0440F551F661F771F8A95D2F7809119
:103810001F0290912002A0912102B09122028A0100
:103820009B01082B192B2A2B3B2BC901B8011F9197
:103830000F910C94D41B0F931F9341E050E060E074
:1038400070E004C0440F551F661F771F8A95D2F79A
:10385000CB01BA01609570958095909500911F02FB
:1038600010912002209121023091220260237123C5
:10387000822393231F910F910C94D41B0F931F93BA
:1038800041E050E060E070E004C0440F551F661F47
:10389000771F8A95D2F780911F0290912002A09104
:1038A0002102B09122028A019B01082719272A27A9
:1038B0003B27C901B8011F910F910C94D41B0F93A2
:1038C0001F9300911F02109120022091210230913C
:1038D0002202602B712B822B932B1F910F910C9442
:1038E000D41B0F931F9300911F021091200220916F
:1038F00021023091220260237123822393231F919E
:103900000F910C94D41B0F931F9300911F021091E1
:103910002002209121023091220260277127822704
:1039200093271F910F910C94D41B0895BF92CF92AF
:10393000DF92EF92FF920F931F93CF93DF938C014F
:10394000C0901F02D0902002E0902102F09022024D
:103950008091230290912402A0912502B091260229
:10396000C82AD92AEA2AFB2ACFE1D0E0BC2ED70107
:10397000C6010C2E04C0B695A795979587950A9415
:10398000D2F780FD0EC0219788F7B12C8B2DDF91E7
:10399000CF911F910F91FF90EF90DF90CF90BF904C
:1039A0000895B8018C2F0E94C30E019761F3EECFEA
:1039B000CF93DF93EC010E94961CBE01DF91CF9163
:1039C0000C94C30ECB010C94D81C682F809152012B
:1039D000909153010C940A1E682F8091520190918E
:1039E00053010C940C1E80915201909153010C9440
:1039F0000E1E809127028595859585950895809165
:103A000027028770089598E0899F90011124622B06
:103A1000609327020C94FA1B9091270280958923CA
:103A200080932702282F277061F4282F082E000C7E
:103A3000330B9217130629F08595859585950C947F
:103A40001B1C089590912702977081E009F480E093
:103A50000895E0915201F0915301809133028083E7
:103A6000E0915201F0915301808190913202892BB3
:103A70008083E0915201F091530180819091310255
:103A8000892B808390912802992381F0E091520143
:103A9000F09153018081892B808380915201909114
:103AA00053010E94D61D811110922802809152016B
:103AB000909153010C94AD1280913302089590912E
:103AC0003302892B809333020895809590913302BD
:103AD00098239093330208951092330208958091B1
:103AE0003202089590913202892B80933202089518
:103AF000809590913202982390933202089510920B
:103B00003202089590913102892B809331020895F9
:103B100080959091310298239093310208951092EC
:103B20003102089580932802089510922802089582
:103B30008091280208956DEE7EEF90E080E00E9473
:103B40005F2A60E082E090E00E944D2A60E083E01E
:103B500090E00E944D2A60E084E090E00E944D2AAF
:103B600060E085E090E00C944D2A90E080E00E94B7
:103B7000472A21E08D3E9E4F09F020E0822F0895D4
:103B800082E090E00C943F2A83E090E00C943F2A7E
:103B9000682F83E090E00C944D2A84E090E00C9430
:103BA0003F2A682F84E090E00C944D2AFC01319666
:103BB0009C01285F3F4F80E0919191118F5FE21748
:103BC000F307D1F708959C01FC0132969FEF80E046
:103BD0004191461751F09F3F19F4411101C0982FB0
:103BE0008F5F8630A9F79F3F09F40895290F311D93
:103BF00097FD3A95F90162830895FC013296089683
:103C00002191261303C0DF0111971C92E817F907D1
:103C1000B9F708950C94E31D0C94FD1DFC0111826D
:103C2000128213821482158216821782089580915F
:103C30005802843039F11092350288E190E020E496
:103C40000FB6F894A895809360000FBE2093600093
:103C500080E00E94A40E83B7817F846083BF83B716
:103C6000816083BF7894889583B78E7F83BF0FB6BA
:103C7000F894A8958091600088618093600010920C
:103C800060000FBE089508950895CF930E94431ECB
:103C90000E949F090E94441EC0E08C2F0E94DF09F1
:103CA000811105C0CF5FCE30C1F7CF91089581E07B
:103CB000FCCF0E94A2170E94A1120C94A40E1F9286
:103CC0001FB61F9211248F939F93AF93BF93809140
:103CD0003502811113C080914E0290914F02A09144
:103CE0005002B09151024196A11DB11D80934E0228
:103CF00090934F02A0935002B0935102BF91AF91A5
:103D00009F918F911F901FBE1F90189582E084BDD8
:103D100093E095BD9AEF97BD80936E0008952FB7FD
:103D2000F89480914E0290914F02A0915002B09170
:103D300051022FBF0895CF92DF92EF92FF920F931F
:103D40001F932FB7F89440914E0250914F0260910B
:103D50005002709151022FBF6A017B01EE24FF24B3
:103D60008C0130E020E0C016D106E206F30650F0E8
:103D7000481B590BCA011F910F91FF90EF90DF90E4
:103D8000CF90089541505109F3CF78941F921FB6F8
:103D90001F9211248F939F93AF93BF9380914E02F4
:103DA00090914F02A0915002B09151020196A11D35
:103DB000B11D80934E0290934F02A0935002B09396
:103DC0005102BF91AF919F918F911F901FBE1F9085
:103DD000189587E797E7909301088093000888E19A
:103DE0009AE00FB6F894A895809360000FBE909368
:103DF0006000FFCF0E94B51D811102C00E949B1D73
:103E00000E94C01D809334020E94CD1D90E09093CB
:103E10005302809352020E94C41D682F70E090E00C
:103E200080E00C94981B8091380280FF12C0609152
:103E3000570185E0689FB0011124759567957595C8
:103E4000679560387105A8F561157105A1F1862F98
:103E5000089581FF09C06091570185E0689FB00116
:103E6000112475956795EDCF6091570182FD0AC0C9
:103E7000809139028823D1F09091560160915701C9
:103E8000891728F085E0689FB0011124DACF869F5A
:103E9000B001112485E0869F9001879F300D112489
:103EA000692F70E0C9010E94112ACBCF65E070E054
:103EB000CECF8FE7089581E008958091380280FF8A
:103EC0000CC06091550170E0759567957595679583
:103ED0006115710549F1862F089581FF06C0609133
:103EE000550170E075956795F3CF6091550182FD9E
:103EF0000BC0909139029923A1F0609154018091F7
:103F00005501961738F0682F70E06038710500F39E
:103F10008FE70895899FC001112470E00E94112A43
:103F2000F4CF61E070E0D7CF81E00895803F31F4B5
:103F30000E94131F819580933C020895813F19F4DC
:103F40000E94131FF8CF823F31F40E94131F819506
:103F500080933B020895833F19F40E94131FF8CF0A
:103F6000893F29F40E945D1F80933D0208958A3F96
:103F700021F40E945D1F8195F7CF8B3F31F40E94A1
:103F80005D1F819580933E0208958C3F19F40E9435
:103F90005D1FF8CF843F31F480913A0281608093B5
:103FA0003A020895853F21F480913A028260F7CF6A
:103FB000863F21F480913A028460F1CF873F21F45B
:103FC00080913A028860EBCF883F21F480913A02D9
:103FD0008061E5CF8D3F31F480913802816080931C
:103FE000380208958E3F21F4809138028260F7CF25
:103FF0008F3FB9F7809138028460F1CF90913B02F6
:10400000803F41F480913C0287FD10923C0299234D
:1040100071F00895813F29F480913C021816ACF3A9
:10402000F6CF823F81F497FFF2CF10923B0280914E
:104030003C0290913D02892B90913E02892B49F7D9
:10404000109239020895833F19F4191674F3DFCFE3
:10405000893F39F480913D021816CCF610923D024A
:10406000D6CF8A3F29F480913D0287FFD0CFF6CF8B
:104070008B3F39F480913E0287FFC9CF10923E02F8
:10408000C6CF8C3F29F480913E021816BCF3BFCFF7
:10409000843F31F480913A028E7F80933A02B7CF09
:1040A000853F21F480913A028D7FF7CF863F21F43E
:1040B00080913A028B7FF1CF873F21F480913A02C1
:1040C000877FEBCF883F21F480913A028F7EE5CF46
:1040D0008D3F31F4809138028E7F8093380297CFE4
:1040E0008E3F21F4809138028D7FF7CF8F3F09F00A
:1040F0008ECF809138028B7FF0CF8AE392E00E94CE
:10410000B8120E948F1E9093370280933602089552
:104110001F93CF93DF9380913602909137020E94D4
:104120009B1EAC01909139022091580130E0911111
:1041300006C0209159018AE0289F9001112442175E
:10414000530778F020913B02C0913C02D0913D0290
:1041500010913E02211109C08C2F8D2B812B09F06B
:104160005DC0DF91CF911F9108959F3F19F09F5F30
:1041700090933902121624F40E94131F80933B027D
:1041800080913B0287FF05C00E94131F8195809399
:104190003B021C1624F40E94131F80933C02809162
:1041A0003C0287FF05C00E94131F819580933C024B
:1041B00040913B02442379F030913C02332359F083
:1041C00025EB4203A001112450933B0232039001DE
:1041D000112430933C021D1624F40E945D1F80932D
:1041E0003D0280913D0287FF05C00E945D1F8195C1
:1041F00080933D02111624F40E945D1F80933E02BD
:1042000080913E0287FF05C00E945D1F81958093CB
:104210003E02DF91CF911F910C947D209F3F09F0CA
:10422000A6CFB7CF85E0EAE3F2E0DF011D928A95E1
:10423000E9F710923902109238020895833081F123
:1042400028F4813059F08230D1F00895853009F496
:1042500049C0B8F1863009F456C0089580915901DB
:10426000482F460F5527551F4F3F510524F4680F1F
:104270006093590108958FEF8093590108958091BB
:104280005801482F460F5527551F4F3F510524F41D
:10429000680F6093580108958FEF80935801089537
:1042A00080915701482F460F5527551F4F3F510505
:1042B00024F4680F6093570108958FEF809357019E
:1042C000089580915601482F460F5527551F4F3F9F
:1042D000510524F4680F6093560108958FEF809381
:1042E0005601089580915501482F460F5527551FB7
:1042F0004F3F510524F4680F6093550108958FEFE7
:1043000080935501089580915401482F460F5527F9
:10431000551F4F3F510524F4680F609354010895D1
:104320008FEF809354010895833011F128F4813088
:1043300049F0823091F00895853081F120F1863086
:10434000C1F1089580915901681720F4861B80936C
:1043500059010895109259010895809158016817E4
:1043600020F4861B809358010895109258010895F7
:1043700080915701681720F4861B80935701089598
:1043800010925701089580915601681720F4861BFA
:104390008093560108951092560108958091550119
:1043A000681720F4861B80935501089510925501DB
:1043B000089580915401681720F4861B809354015E
:1043C00008951092540108950F931F9341E050E017
:1043D00060E070E08A019B0104C0000F111F221FE2
:1043E000331F8A95D2F7C901B8010E94981B1F910B
:1043F0000F910C94A2178732A8F58E3108F079C07E
:104400008E3009F46BC058F4873009F459C08B30F2
:1044100009F44BC0863009F44AC080E00895863123
:1044200009F443C068F48031C1F790913402892FB8
:10443000877F93FF88608093340283FD0FC035C06F
:10444000893199F18B3149F790913402892F8D7F11
:1044500091FF82608093340281FF27C080913402F3
:10446000816039C0883309F150F4893221F08533F5
:1044700011F0873291F680E00E94E42116C0833467
:10448000D1F320F48A3348F28953F6CF883429F6E1
:104490000E94A2172FEF83ED90E3215080409040BF
:1044A000E1F700C000000E94E91E81E008958091BC
:1044B0003402807F8093340281E08093400208952B
:1044C00090913402892F8E7F90FF81608093340217
:1044D00080FDEBCF817F80933402E7CF909134024F
:1044E000892F8B7F92FF84608093340282FDB6CF48
:1044F000DCCF8D51C1CF80E008950C947B228E518A
:104500008A3030F4E82FF0E0E758FE4F80810895BC
:1045100080E00895CF93C82F809140028130D1F080
:10452000882331F08230D1F11092400280E010C037
:10453000E0915201F091530180818232B9F78C2FC2
:104540000E947B2281111EC08C2F0E94FB21817052
:10455000CF910895E0915201F09153018081823210
:1045600071F38C2F0E947D2281110AC0C43199F011
:1045700060F4CB3029F0C03151F782E080934002E3
:1045800081E0E5CF81E090E0E2CFC93221F0C8338D
:10459000B9F380E0DCCF10924002FBCFC93219F1B1
:1045A00088F4C43101F120F4C73081F181E0D0CF2B
:1045B00082EE8C0F8630D0F78C2F0E947F22809362
:1045C0003F02F4CFCE3401F140F46AE0CB3471F70E
:1045D00080913F020E941E21E9CFC13579F061E050
:1045E000C235B1F3E3CF80913F02882319F01092D6
:1045F0003F02DCCF81E080934002AACF61E080914E
:104600003F020E949421D2CF6AE0F9CF8EE18093DD
:10461000590182E3809358018AE08093570184E135
:104620008093560188E08093550188E2809354017D
:10463000BDCF8091490208950F931F93CF93DF93CD
:1046400000D00F92CDB7DEB78C010E946325823077
:1046500011F0843019F583E089831B830A838093EA
:10466000E9008FEF9091E800815095FD06C095ED2F
:104670009A95F1F700008111F5CF8091E80085FF50
:104680000DC050E040E063E070E0CE0101960E9472
:1046900080258091E8008E778093E8000F900F903E
:1046A0000F90DF91CF911F910F910895CF93DF93DA
:1046B00000D00F92CDB7DEB720915802243031F5EB
:1046C00022E02983805891099B838A8383E0809329
:1046D000E9008FEF9091E800815095FD06C095EDBF
:1046E0009A95F1F700008111F5CF8091E80085FFE0
:1046F0000DC050E040E063E070E0CE0101960E9402
:1047000080258091E8008E778093E8000F900F90CD
:104710000F90DF91CF910895CF93DF93EC010E942A
:104720006325823011F08430F9F482E08093E9004F
:104730008FEF9091E800815095FD06C095ED9A9518
:10474000F1F700008111F5CF8091E80085FF0CC0E2
:1047500050E040E065E070E0CE010E94802580914D
:10476000E8008E778093E800DF91CF910895CF9392
:10477000DF93EC010E946325823011F0843039F51B
:1047800081E08093E9008FEF9091E800815095FDE2
:1047900006C095ED9A95F1F700008111F5CF809153
:1047A000E80085FF14C050E040E068E070E0CE0112
:1047B0000E9480258091E8008E778093E80088E051
:1047C000FE01A1E4B2E001900D928A95E1F7DF913C
:1047D000CF91089580915702811109C00E9410273E
:1047E0000E946D278091E20084608093E20008952A
:1047F000109257020895089508950C94591E42E0AE
:1048000061EC81E00E948C2642E061EC82E00E9433
:104810008C2642E061EC83E00C948C2680915A0255
:10482000833009F452C030F4813059F1823009F4F8
:104830008EC008958A3009F47AC08B3009F460C0C4
:10484000893009F041C0809159028132E9F58091A7
:104850005D0290915E02892BB9F58091E800877F17
:104860008093E8008091E80082FF2AC08091F100E7
:10487000809349028091E8008B778093E8000C9444
:10488000C02680915902813AF9F48091E800877F2F
:104890008093E80080915D0290915E02892B61F423
:1048A00068E081E492E070E00E94CF258091E8000A
:1048B0008B778093E800089560E090E080E0F3CF8C
:1048C000809158028111CECF089580915902813A8A
:1048D000D9F780915D0290915E02892BA9F78091B2
:1048E000E800877F8093E8008091E80080FFFCCF9C
:1048F000809164018093F1008091E8008E77BDCFB4
:1049000080915902813201F780915D0290915E029F
:10491000892BD1F68091E800877F8093E8000E9480
:10492000C02680915B02809364010C94A217809151
:104930005902813249F68091E800877F8093E80030
:104940000E94C02680915C0280934A020895809163
:104950005902813A09F0B8CF8091E800877F8093AF
:10496000E8008091E80080FFFCCF80914A02C2CF2E
:1049700084B7877F84BF0FB6F894A89580916000B4
:10498000886180936000109260000FBE80E8809381
:104990006100109261000E94EF120E9410270E9495
:1049A0006D278091E20084608093E20078940E94F9
:1049B000F6290E94F3128AE591E00E949C128091F0
:1049C0005802853019F00E94F912F9CF0E94171E83
:1049D00080915602882399F30E94451E882379F31B
:1049E0000E946A25ECCF0C94F524292F332723301D
:1049F000310521F168F42130310509F449C0223034
:104A0000310509F44AC090E080E030E020E029C0A0
:104A10002132310581F122323105A9F76330710568
:104A200090F7FB01EE0FFF1FEA57FE4F2081318107
:104A30006D577E4FFB01808190E013C09927813034
:104A4000910599F0009741F08230910589F0039724
:104A5000D1F6E5EDFEE002C0E7E0FFE0849190E0F2
:104A60009F01FA01318320830895EFEEFEE0F6CF37
:104A7000EBEDFEE0F3CF6330710528F6660F771F8C
:104A8000FB01E457FE4F2081318189E090E0E9CFBE
:104A900082E190E02FE53FE0E4CF84E590E02BE079
:104AA0003FE0DFCF0895CF93C82F0E945225C093D7
:104AB0004B02CF91089580915802843011F482E026
:104AC000089581E0089580914B02811102C00C94F9
:104AD0005B25089580E189BD82E189BD09B400FEAE
:104AE000FDCF8091D8008F7D8093D8008091E00029
:104AF00082608093E0008091E00081FDFCCF08950A
:104B0000AF92BF92CF92DF92FF920F931F93CF93FA
:104B1000DF936C01EB018A010E94DF26F82E8111E0
:104B200023C00115110539F0F80180819181C81B5E
:104B3000D90BC80ED91EB12CA12C2097A9F08091B9
:104B4000E80085FD22C08091E8008E778093E80020
:104B500001151105A1F0F80180819181A80EB91EFF
:104B6000B182A08285E0F82E8F2DDF91CF911F9129
:104B70000F91FF90DF90CF90BF90AF9008950E946B
:104B8000DF268823D1F2F82EEFCFF60181916F0155
:104B90008093F1002197FFEFAF1ABF0ACECFFC013F
:104BA00080915F029091600286179707A0F06115CF
:104BB000710529F49091E8009E779093E80090E0C9
:104BC0006115710551F4911108C08091E80082FFD0
:104BD00034C080E00895BC01F2CF80915802882350
:104BE000C1F18530C1F18091E80083FD30C0809132
:104BF000E80082FDEACF8091E80080FFE1CF80915C
:104C0000F3002091F200382F6115710519F028305A
:104C1000310558F091E02830310509F090E02091FD
:104C2000E8002E772093E800CBCF81918093F100AC
:104C3000615071092F5F3F4FE7CF80915802882361
:104C400041F0853041F08091E80083FFBECF81E0E4
:104C5000089582E0089583E00895FC0180915F0249
:104C60009091600286179707A0F06115710529F4ED
:104C70008091E8008E778093E80090E061157105DF
:104C800051F4911108C08091E80082FF35C080E0A6
:104C90000895BC01F2CF809158028823C9F1853074
:104CA000C9F18091E80083FD31C08091E80082FD68
:104CB000EACF8091E80080FFE1CF8091F30020915E
:104CC000F200382F6115710519F02830310558F0C0
:104CD00091E02830310509F090E08091E8008E776E
:104CE0008093E800CBCF84918093F100319661509E
:104CF00071092F5F3F4FE6CF80915802882341F022
:104D0000853041F08091E80083FFBDCF81E00895B8
:104D100082E0089583E00895982F973028F08F70EF
:104D20008093E90081E008959093E900242F762F85
:104D300050E0981731F07091EC002091ED00509107
:104D4000F00021FD02C09F5FE8CF3091EB003E7F75
:104D50003093EB003091ED003D7F3093ED003091CA
:104D6000EB0031603093EB007093EC002093ED008A
:104D70005093F0002091EE0027FDE5CF80E00895EC
:104D80008091590287FF13C08091E80082FF06C01E
:104D90008091E8008B778093E80004C080915802EE
:104DA0008111F2CF0895809158028823D9F3809120
:104DB000E80080FFF8CF8091E8008E77ECCF20915B
:104DC000E4003091E50095E6A9012091EC00822FE6
:104DD000817020FF06C08091E80080FF06C080E05F
:104DE00008952091E80022FD1AC08091580288237E
:104DF00089F0853089F08091EB0085FD0FC020910E
:104E0000E4003091E50042175307F9F29150E1F6C2
:104E100084E0089582E0089583E0089581E0089594
:104E20000E947E270E948627E0EEF0E0808181606C
:104E30008083E8EDF0E080818F77808319BCA7ED57
:104E4000B0E08C918E7F8C9380818F7E80831092D6
:104E5000570208950F931F93CF93DF930E947E27ED
:104E60000E948627C8EDD0E088818F77888388816B
:104E70008068888388818F7D888319BC109258024E
:104E800010925402109256021092550200EE10E059
:104E9000F80180818B7F808388818160888342E0F4
:104EA00060E080E00E948C26E1EEF0E080818E7F61
:104EB0008083E2EEF0E08081816080838081886081
:104EC0008083F80180818E7F8083888180618883E0
:104ED000DF91CF911F910F910895E8EDF0E080816F
:104EE0008F7E8083E7EDF0E080818160808384E0C5
:104EF00082BF81E0809357020C942A27E8EDF0E00E
:104F000080818E7F80831092E20008951092DA00F3
:104F10001092E10008951F920F920FB60F92112484
:104F20002F933F934F935F936F937F938F939F93B1
:104F3000AF93BF93EF93FF938091E10082FF0BC08B
:104F40008091E20082FF07C08091E1008B7F809317
:104F5000E1000E94F5298091DA0080FF19C080915C
:104F6000D80080FF15C08091DA008E7F8093DA0030
:104F70008091D90080FF96C080E189BD82E189BD22
:104F800009B400FEFDCF81E0809358020E94EA231D
:104F90008091E10080FF19C08091E20080FF15C080
:104FA0008091E2008E7F8093E2008091E200806138
:104FB0008093E2008091D80080628093D80019BC71
:104FC00085E0809358020E94FC238091E10084FFD9
:104FD0002BC08091E20084FF27C080E189BD82E17F
:104FE00089BD89B5982F917080FFFBCF8091D80043
:104FF0008F7D8093D8008091E1008F7E8093E100C7
:105000008091E2008F7E8093E2008091E2008160D7
:105010008093E20080915402882309F449C084E01F
:10502000809358020E94FD238091E10083FF29C0F4
:105030008091E20083FF25C08091E100877F80930B
:10504000E10082E080935802109254028091E100C6
:105050008E7F8093E1008091E2008E7F8093E2005A
:105060008091E20080618093E20042E060E080E0B5
:105070000E948C268091F00088608093F0000E944E
:10508000FB23FF91EF91BF91AF919F918F917F9102
:105090006F915F914F913F912F910F900FBE0F90A5
:1050A0001F90189519BC109258020E94F82370CFD7
:1050B0008091E30087FD93E090935802B3CF1F9255
:1050C0000F920FB60F9211242F933F934F935F933C
:1050D0006F937F938F939F93AF93BF93CF93DF9300
:1050E000EF93FF93D091E900DF708091EC00C82F1F
:1050F000C17080FDC0E81092E9008091F000877FC8
:105100008093F00078940E94A3281092E900809187
:10511000F00088608093F000CD2BCF70C093E90041
:10512000FF91EF91DF91CF91BF91AF919F918F91BF
:105130007F916F915F914F913F912F910F900FBE93
:105140000F901F9018951F93CF93DF93CDB7DEB7C5
:10515000AA970FB6F894DEBF0FBECDBF89E592E0E7
:105160002091F100FC012193CF01F2E081369F07ED
:10517000B9F70E940E248091E80083FF1EC1809140
:10518000590290915A029A3008F017C1E92FF0E0C5
:10519000E353F54D0C94252A803899F0823809F0B4
:1051A0000CC180915D028F70873008F006C180933A
:1051B000E9008091EB0085FB882780F91092E900D7
:1051C00006C0809155029091560291118260909193
:1051D000E800977F9093E8008093F1001092F1002F
:1051E0008091E8008E77E5C0882309F4D3C082302F
:1051F00009F0E3C080915B028111D6C080915D020D
:105200008F702FEF280F263008F0D7C08093E90069
:105210002091EB0020FFC8C0933031F48091EB0067
:1052200080628093EB00C0C09091EB0090619093FE
:10523000EB0021E030E001C0220F8A95EAF72093CD
:10524000EA001092EA008091EB008860EACF8111B9
:10525000B4C010915B021F778091E3008078812BAE
:105260008093E3008091E800877F8093E8000E94AC
:10527000C0268091E80080FFFCCF8091E300806829
:105280008093E30082E0111183E08093580295C07F
:105290008058823008F091C080915B0290915C024E
:1052A0008C3D23E09207A1F583E08A838AE289831B
:1052B0004FB7F894DE01139620E03EE051E2E32F71
:1052C000F0E050935700E49120FF03C0E295EF70A7
:1052D0003F5FEF708E2F90E0EA30C0F0C7968D935D
:1052E0009D932F5F243159F74FBF8091E800877F4E
:1052F0008093E8006AE270E0CE0101960E94CF251B
:105300008091E8008B778093E80057C0C096E7CF84
:1053100060915D0270915E02AE014F5F5F4F0E942F
:10532000F324BC01892B09F448C09091E800977FD1
:105330009093E80089819A810E942D26E1CF8038E0
:10534000E1F58091E800877F8093E8008091540226
:105350008093F10045CF811130C090915B02923073
:1053600060F58091E800877F8093E8009093540275
:105370000E94C02680915402882311F084E005C069
:105380008091E30087FDFACF81E0809358020E946C
:10539000FF2313C080915B02813079F481E0933068
:1053A00009F080E0809356021092E9008091E800B5
:1053B000877F8093E8000E94C0268091E80083FFE9
:1053C0000AC08091E800877F8093E8008091EB001D
:1053D00080628093EB00AA960FB6F894DEBF0FBEF2
:1053E000CDBFDF91CF911F9108950895CF93809104
:1053F00058028823A1F0C091E900CF709091EC0091
:10540000892F817090FD80E8C82B1092E90080916F
:10541000E80083FD0E94A328CF70C093E900CF91DC
:10542000089597FB072E16F4009407D077FD09D056
:105430000E942B2A07FC05D03EF4909581959F4F42
:105440000895709561957F4F0895EE0FFF1F0590A9
:10545000F491E02D0994AA1BBB1B51E107C0AA1FC0
:10546000BB1FA617B70710F0A61BB70B881F991F05
:105470005A95A9F780959095BC01CD010895F999A9
:10548000FECF92BD81BDF89A992780B50895A8E115
:10549000B0E042E050E00C94672A262FF999FECF45
:1054A00092BD81BDF89A019700B4021639F01FBA77
:1054B00020BD0FB6F894FA9AF99A0FBE0895019696
:1054C000272F0E944E2A0C944D2ADC01CB01FC01AF
:1054D000F999FECF06C0F2BDE1BDF89A319600B44D
:1054E0000D9241505040B8F70895F894FFCF770BD4
:1054F0007C0B880B900B980B9D0BB60B850B850BCB
:10550000850BBB0BC30BCB0BD00BD50BDA0BE20B14
:10551000100D1C0D200D240D280D2C0D300D340DFB
:10552000380D3C0D400D440D480D4C0D500D540DE3
:10553000580D5C0D401540159F159F15E615021678
:105540006D156D1544166D15DC16DC1647176D15B7
:105550006D155017E616E616E616E616E616E6167A
:10556000E616E616E616E616E616E616E616E6165B
:10557000E616E616F316011708170F171917B317D3
:10558000B317BC17BC17BE17BC17BC17BC17B31793
:10559000B317C317BC17BC17C317CC28F428DD29D1
:0E55A000F428DD2927294829DD299F29AB2978
:1055AE00010000250B0000000000000000000000BC
:1055BE0000000000000000350B000000000000009D
:1055CE000000000000000000000000530B0000006F
:1055DE000000000000000000000000000000004578
:1055EE000B000000000000000000000000000000A2
:1055FE0000FF29022808140A321E1923B7238C2310
:10560E0056231C23013534C697669436323331F750
:10561E00F6F5000000000000000102030405060775
:10562E00080900404D36F40FA70F710F1D0F360FEE
:02563E004F0F0C
:00000001FF
