:100000000C94B5070C941F0A0C94FC070C94FC0785
:100010000C94FC070C94FC070C94FC070C94FC0754
:100020000C94FC070C94FC070C94DE270C94B0286D
:100030000C94811E0C94FC070C94FC070C94FC0798
:100040000C94FC070C94FC070C94FC070C94FC0724
:100050000C94FC070C94E91E0C94FC070C94FC0710
:100060000C94FC070C94FC070C94FC070C94FC0704
:100070000C94FC070C94FC070C94FC070C94FC07F4
:100080000C94FC070C94FC070C94FC070C94FC07E4
:100090000C94FC070C94FC070C94FC070C94FC07D4
:1000A0000C94FC070C94FC070C94FC07440B490BC4
:1000B000510B590B610B660B810BCA0BCA0BCA0B98
:1000C000860B8E0B960B9B0BA00BA50BAC0BC50CDC
:1000D000C70CD20CC90CCB0CCD0CCF0CD10CD40C52
:1000E000D60CD80CE30CDA0CDC0CDE0CE00CE20CC9
:1000F000E50C5415541586158615C415E4155417CA
:10010000541726165417D316D316441754175417DA
:100110004D17E016E016E016E016E016E016E016C1
:10012000E016E016E016E016E016E016E016E0161F
:10013000E016F116FF1606170D171717E317E3174A
:10014000F517F517EC17F517F517F517E317E3177C
:10015000F117F517F517F1171D294429362A4429F7
:10016000362A9029B329362A092A182A01E301E000
:10017000014F024F02E002E30001E301E0015002FF
:100180005002E002E30001E30115021574FF02E3EF
:1001900074FF010602060110021001070207012880
:1001A000022874FF01130213010C020C0111021149
:1001B000010A020A012C022C01E00119021902E0D5
:1001C0000001E30115021502E30106020601100217
:1001D00010010702070128022874FF74FF010C02B6
:1001E0000C01130213010602060112021201110290
:1001F0001101090209010C020C010A020A012C0278
:100200002C0138023801040204010F020F010F0211
:100210000F012802280001E30115021574FF02E313
:1002200074FF0106020601100210010702070128EF
:1002300002280001E0010402040106020602E000B7
:1002400001E00119021902E00001E00106020602C4
:10025000E000636D640128004143012800750A0134
:100260002B022B010C020C01110211012B022B019C
:10027000280228012B022B012B022B012B022B0120
:100280000C020C01110211012B022B012802280083
:10029000750A012B022B0112021201170217012B02
:1002A000022B01280228012B022B012B022B012BF0
:1002B000022B011D021D01150215012B022B012825
:1002C000022800750A012B022B01120212011302EF
:1002D00013012B022B01280228012B022B012B02D8
:1002E0002B012B022B011D021D01150215012B02F2
:1002F0002B01280228006970636F6E666967202FE2
:10030000616C6C00747300750A01270227010602F4
:1003100006012B022B012B022B01040204012B02EC
:100320002B00011B021B00750A01E00117021701D7
:100330001902190128022802E0007777772E7375D9
:1003400070706F72742E7865726F782E636F6D01A6
:100350002800617061657A40676F746F636F732EF8
:10036000636F6D0061646D696E012B313131310154
:10037000280001E3012B022B02E3002E001E001FC8
:10038000002000210022002B4514001A0009001350
:10039000000A00284004001500160017000700E1BD
:1003A000001D001B0006001900050001000100509F
:1003B000004F002A00DD5C010001002961350000CA
:1003C0003046002D002700260025002400230031A0
:1003D0000033001C0018000F000D00280012000C54
:1003E00000080011000B00350038003700360010FF
:1003F000000E0001000100510052002C00280001F5
:100400000001004E004B00DE5C4C002E001E001F61
:10041000002000210022002B4514001A00080015BE
:10042000001700284004001600070009000A00E138
:10043000001D001B0006001900050001004A0029EC
:100440000046000030DD5C2B451E001F002000210F
:100450000022002D00270026002500240023003163
:1004600000130012000C0018001C00280033000FBD
:10047000000E000D000B003500380037003600106C
:1004800000110001004D004A004C00DE5C28002DE8
:10049000001F001F001F001F001F002E001E001F56
:1004A000002000210022002B00340036003700130A
:1004B000001C00296104001200080018000C00E173
:1004C00000330014000D000E001B002B451E001F02
:1004D000002000210022002B451E001F00200021CB
:1004E0000022002D00270026002500240023002DD7
:1004F000000F00150006000A000900380016001160
:100500000017000B00070028401D0019001A0010FA
:100510000005002D001F001F001F001F001F002DE1
:10052000001F001F001F001F001F0035000C300DB2
:10053000300E3001000100010001000330023001E3
:10054000000F300100063001000100010001000130
:100550000001000130010001000100005C01000108
:100560000001000100005C2B4501000100010001B9
:10057000000100010030002F000100010001000116
:10058000000A301030010001000100010001000BE1
:1005900030520001000100010001004F00510050E5
:1005A000000100005C010001000100010001002DBC
:1005B000000100010001000100010035001E001FC4
:1005C0000020002100220025001E0003301E001E16
:1005D000001E0025001E001E001E001E001E00251D
:1005E000001E001E001E001E001E002961E200E326
:1005F000001E001E0035002B450100010001000116
:100600000001002D00270026002500240023000003
:1006100000560023002200210000000000570020A7
:10062000001F001E00000000000000370027002708
:10063000000000340001004F00500001004C002D6C
:10064000000100010001000100010045003A003BEB
:10065000003C003D003E0001002000200020002062
:1006600000200001000100520001000100010029EA
:1006700061E200E3000357DD5C2A002B451E001FEA
:10068000002000210022002B451E001F0020002119
:10069000002200440043004200410040003F0001AE
:1006A00000010001000100010001000100520001F1
:1006B000000100010001004F0051005000340052C1
:1006C000002C002D00270026002500240023002DEB
:1006D000001F001F001F001F001F0000000000007F
:1006E000000000000000000000000000000000000A
:1006F00000000000000000000000000000000000FA
:1007000000000000000000000000000000000000E9
:1007100000000000000000000000000000000000D9
:100C700000000000000000000000000100DA5CDB62
:100C80005CC15CC45CC35C0100DB5C01001D5C1EDC
:100C90005C135C01001E001E000100010001000148
:100CA0000001000100DA5C01000100010001000107
:100CB000000100010001000100010001000100012C
:100CC000000100005C005CC75CC85CC55CC65C01E0
:100CD00000015CDC5CDA5CDB5C0A5C0100010001A9
:100CE00000010001000100010001000100010001FC
:100CF00000010001000100010001000100010001EC
:100D000000010001000100010001000000000000DE
:100D10000000002A2B280000000000000000000056
:100D200000000000000029000000002C1E342021DB
:100D30002224342627252E362D3738271E1F202122
:100D400022232425263333362E37381F0405060781
:100D500008090A0B0C0D0E0F10111213141516179B
:100D600018191A1B1C1D2F3130232D3504050607B9
:100D700008090A0B0C0D0E0F10111213141516177B
:100D800018191A1B1C1D2F3130354C0000000000B3
:100D90000000000000000000000000000000000053
:100DA000000000000000000000000000010101013F
:100DB000010100010101010000000000000000002D
:100DC000000000000001000100010101010101011A
:100DD0000101010101010101010101010101010103
:100DE00001010101010100000001010000000000FB
:100DF00000000000000000000000000000000000F3
:100E000000000000000001010101000403300000A7
:100E10000012034D0061006E00750066006F0072E5
:100E2000006D000000160343004800200062006FC0
:100E30000078004D006F0064007300000004030997
:100E40000409025400030100A0FA09040000010390
:100E50000101000921110100012240000705810361
:100E600008000A090401000103010200092111011F
:100E70000001224D000705820308000A0904020050
:100E800001030000000921110100012236000705BD
:100E9000830308000A1201100100000008EDFE6043
:100EA0003001000102030105010980A1018502163C
:100EB00001002603001A81002A8300751095018124
:100EC00000C0050C0901A1018503160100269C0242
:100ED0001A01002A9C02751095018100C0050109C4
:100EE00002A1010901A10005091901290515002523
:100EF00001950575018102950175038101050109BF
:100F00003009311581257F9502750881060938154C
:100F100081257F950175088106050C0A3802158127
:100F2000257F950175088106C0C005010906A1014C
:100F3000050719E029E715002501950875018102CB
:100F400095017508810105081901290595057501A7
:100F500091029501750391010507190029FF1500FC
:100F600026FF00950675088100C011241FBECFEF33
:100F7000DAE0DEBFCDBF04B603FE27C08091580281
:100F800090915902A0915A02B0915B028730904B28
:100F9000A740B04BD1F4109258021092590210920F
:100FA0005A0210925B0214BE84B7877F84BF0FB6CB
:100FB000F894A895809160008861809360001092F9
:100FC00060000FBEE0E0F8E3099511E0A0E0B1E0B9
:100FD000E0EAF5E502C005900D92A039B107D9F716
:100FE00022E0A0E9B1E001C01D92A835B207E1F707
:100FF0000E9405250C94CE2A0C9400000C94CE0B74
:1010000080912B028360886080932B02ABE6B1E075
:1010100041E050E026E02A0F8D91E82FE295EF7035
:10102000F0E031A18F70BA0102C0660F771F8A9578
:10103000E2F7CB01962F9095932391A392A1892B50
:1010400082A32A13E9CFA5E6B1E041E050E026E013
:101050002A0F8D91E82FE295EF70F0E031A18F70AB
:10106000BA0102C0660F771F8A95E2F7CB01962F6F
:101070009095932391A392A1892B82A32A13E9CF60
:10108000559A209AADE9B1E0E0E9F1E08CE08E0FED
:1010900011921D928E13FCCF0C94610E2F923F92F1
:1010A0004F925F926F927F928F929F92AF92BF9278
:1010B000CF92DF92EF92FF920F931F93CF93DF9324
:1010C00000D000D0CDB7DEB780910001811104C0FF
:1010D00036E0C32ED12C02C0C12CD12C9601235650
:1010E0003E4F79013C832B830BE611E0AA24A394A5
:1010F000B12C8824839494E0992E26E0722E700EF1
:101100006B817C81DB015C901C92F80181918F01E5
:10111000E82FE295EF70F0E021A18F70A50102C0E9
:10112000440F551F8A95E2F7CA01242B21A322A15F
:10113000642E6094262122A350EA5A95F1F7A5E681
:10114000B1E0BA83A98320E030E0A981BA813D9063
:10115000BA83A983432D42954F7050E0DA019096EF
:101160002C90AB81BC814C90432D4F70D50102C0B7
:10117000AA0FBB1F4A95E2F7AD01422139F44A2D6F
:10118000022E01C0440F0A94EAF701C040E044294E
:10119000AB81BC814C932F5F3F4F26303105A9F6C0
:1011A00091A1692261A292A1892B82A31196BC838D
:1011B000AB83FB018081581659F08092A9010E94EF
:1011C000B31E9093AB018093AA018BB189258BB993
:1011D000701296CF8091A9018823D1F08091AA0145
:1011E0009091AB010E94BF1E069790F080E090E0C6
:1011F000FC01EC0DFD1DE057FE4FD701A80FB91FF4
:101200002C91208301968630910591F71092A901C7
:1012100081E00F900F900F900F90DF91CF911F9171
:101220000F91FF90EF90DF90CF90BF90AF909F9085
:101230008F907F906F905F904F903F902F90089588
:10124000CF93DF9380910001811103C0C0E0D0E013
:1012500002C0C6E0D0E00E94920A009791F420E01C
:1012600030E0F901E255FE4F4081F901EC0FFD1F1E
:10127000E057FE4F40832F5F3F4F2630310589F7FF
:1012800002C081E090E0DF91CF910895CF930E945A
:101290004E08C82F0E942009892BF9F05D98909183
:1012A0009C019F5F90939C019630D0F0809100014B
:1012B000811103C040E050E002C046E050E020E071
:1012C00030E0F901E40FF51FE057FE4F10822F5F69
:1012D0003F4F26303105A9F703C05D9A10929C015B
:1012E0000E94630E8C2FCF9108950E944E0880912A
:1012F0000001811103C026E030E002C020E030E0B0
:1013000080E090E0FC01E20FF31FE057FE4F4081C8
:10131000FC01E255FE4F408301968630910591F71E
:101320000895E82FF0E0E057FE4F8081089508957A
:10133000E8EDF0E08081806180838AE18A95F1F7B1
:1013400000C08091D900817008958EE090E00E94E5
:10135000982A91E0811101C090E0909300010E94D1
:101360009809882319F00E94120A04C00E94AA1E3C
:101370000E94160A789408950E9400080E94750938
:10138000FDCF0E94A5090E949809811102C00E9408
:10139000BC090895509A08955098589A0895589AFB
:1013A00008950E94CA09589880E88A95F1F70C942C
:1013B000CF090E94CC09489BFECF80E88A95F1F7BF
:1013C00008950E94CC0998E080E029B12170880F2F
:1013D000822B20E82A95F1F725E02A95F1F7000005
:1013E000915099F708950F931F93CF93082F0E9460
:1013F000CA09C8E010E0C15088F0C8010C2E02C034
:10140000959587950A94E2F780FF03C00E94CF0963
:1014100001C0589880E88A95F1F7EDCFCF911F91E0
:101420000F9108950E94CA090C94CF090E94CC091B
:10143000E89AE9E6F0E080818C7F808308951F922E
:101440000F920FB60F921124CF92DF92EF92FF927C
:101450001F932F933F934F935F936F937F938F933C
:101460009F93AF93BF93EF93FF93CF93DF931F921D
:10147000CDB7DEB70E94D109C12CD12C10E0C60136
:1014800082559E4F7C01FC0180810E94F3090E94DD
:10149000D109F7018081180FFFEFCF1ADF0A86E02C
:1014A000C816D10461F7812F0E94F3090E94D10967
:1014B00090E89A95F1F7E0E4EA95F1F70E94E109E6
:1014C0008093AD010E94D1091091AD010E94E10904
:1014D00089830E94D1090E94CC098981181721F0C3
:1014E0008091AC01816003C08091AC018E7F8093BC
:1014F000AC010F90DF91CF91FF91EF91BF91AF9130
:101500009F918F917F916F915F914F913F912F911B
:101510001F91FF90EF90DF90CF900F900FBE0F9034
:101520001F901895CF92DF92EF92FF921F93CF9367
:10153000DF931F92CDB7DEB7F8940E94CA0958987E
:1015400025E02A95F1F700000E94CC090E94CF09FE
:1015500030E83A95F1F7489934C00E94D909C12C76
:10156000D12C10E00E94E109F601E255FE4F7F0107
:1015700080830E94D909F7018081180FFFEFCF1AED
:10158000DF0A26E0C216D10469F70E94E1098983C7
:101590000E94D9098981181314C08091AD010E945D
:1015A000F3090E94D9098091AD010E94F3090E94BC
:1015B000D9090E94CA090E94CF09789480E090E07E
:1015C00003C0789481E090E00F90DF91CF911F915C
:1015D000FF90EF90DF90CF9008950C94CD0BFC011D
:1015E0008081813019F489E492E007C0823019F4D7
:1015F00080E492E002C083E392E00C94441BFC017F
:101600008081813019F486E192E007C0823019F4BC
:1016100081EC91E002C086E891E00C94441BFC014F
:101620008081813019F489E791E004C0823021F48F
:101630008CE691E00C94441B0895FC01808181307C
:1016400029F488E30E94A21388E304C081E30E9486
:10165000A21381E30C94B114CF93DF93EC010E94A9
:10166000EC1DBE0180E090E0DF91CF910C94CF1B88
:10167000462F50E04131510508F08CC0DC01FA01E1
:10168000EA5AFF4F0C947E2A12968C911297811180
:101690006CC012968C911297882319F084E693E01F
:1016A00061C012968C911297882319F082E593E01D
:1016B00059C012968C911297882319F08AE393E00F
:1016C00051C012968C911297811152C012969C9122
:1016D000129715968C91992351F0982F92959F709F
:1016E00011F080FF57C083E00E94301C53C0982F38
:1016F00092959F7011F080FF3EC083E00E94511CC4
:1017000049C012968C911297811138C012968C9113
:101710001297882319F084E093E024C012968C91EC
:101720001297882319F086EF92E01CC012968C91D4
:101730001297811126C012968C911297811124C0A4
:1017400012968C911297811122C012968C91882347
:1017500009F188E592E006C012968C9181111AC0B9
:1017600082E592E00E94F80D15C082E793E00895AB
:1017700087E293E0089582E293E0089587E093E0A2
:10178000089583EC92E0089580E992E008958DE554
:1017900092E0089580E090E0089508950895CF9331
:1017A000FB018C3D2CE5920701F140F48A3D2CE5CC
:1017B000920769F08B3D9C4581F03FC08E3D2CE542
:1017C0009207E1F0C0F0803E9C4561F136C0C281D5
:1017D000CC23A1F181E090E005C0C281CC2371F15E
:1017E00082E090E00E942C0B23C0C281CC2331F117
:1017F00084E090E0F7CFC28183E002C0C28184E040
:10180000CC2341F00E94301C40E164E083E00E9460
:101810004F0E0EC00E94511C40E164E083E00E9424
:101820004F0E0CC0C28180E1CC2321F00E94301CFD
:10183000C0E004C00E94511C01C0C1E08C2FCF91B8
:10184000089581E008950C94CF0B0E94D1172FEFDB
:1018500084E39CE0215080409040E1F700C000000C
:1018600087E797E790930108809300080C940F1F77
:101870000F931F93CF93DF938C01FC01C081D18123
:10188000CE010E94CE1CBE010E946D0EEC01B8017B
:101890000E947E11B801CE010E94230C882309F416
:1018A00048C1B801CE010E94C011882309F441C18A
:1018B000B801CE010E94CB10882309F43AC1C5318A
:1018C000FCE5DF0739F50E94801D282FF801828191
:1018D0004091520150915301882379F02A7A91E086
:1018E00009F490E09093B401911102C069E201C043
:1018F00065E3CA010E942D1E0AC08091B4018111C6
:1019000002C069E201C065E3CA010E942F1E0E9465
:101910004D1D0FC1C6318CE5D80708F07DC0C13020
:10192000ECE5DE0759F4F8018281882309F401C14E
:1019300080912B02816080932B02FBC0C230FCE5BA
:10194000DF0708F452C0F8018281882309F455C0EA
:101950000E94D91D811102C00E94BF1D0E94F11D6D
:1019600090E090934A0280934902FE01E350FC45C7
:10197000E231F10530F4E959FF4F809149020C94AE
:101980007E2A80914902816027C0826025C08460E0
:1019900023C0806121C080621FC080641DC0806838
:1019A0001BC08460886018C08E7F16C08D7F14C0F5
:1019B0008B7F12C08F7E10C08F7D0EC08F7B0CC0BE
:1019C0008F770AC08B7F877F07C087FB222720F98C
:1019D00091E0922790FB87F9809349028091490218
:1019E0000E94F51D0E94D117A4C0C115DC4561F00D
:1019F00081E08093B9018093BA01C801DF91CF9152
:101A00001F910F910C94210CF8018281882309F415
:101A100090C00E94250C8DC0C53DECE5DE0759F550
:101A2000F8018281882361F01092BA010E94B31EEE
:101A30009093B8018093B70180E20E94101579C09D
:101A40008091BA01882321F080E20E94171571C0AD
:101A50008091B7019091B8010E94BF1E863991050F
:101A600098F780E20E94171588E20E94A21388E28C
:101A70000E94B1145EC0C63DFCE5DF0708F044C01B
:101A8000C33D8CE5D80719F5F8018281882351F010
:101A90001092B9010E94B31E9093B6018093B501D4
:101AA00082E0CBCF8091B90181110FC08091B50147
:101AB0009091B6010E94BF1E8639910530F486E2EE
:101AC0000E94A21386E20E94B11482E0BECFC43D00
:101AD000DC4509F08DCFF80182818111A5CF80917D
:101AE000BA018111B1CF8091B7019091B8010E94E4
:101AF000BF1E8639910508F0A7CF87E20E94A21386
:101B000087E20E94B114A0CFC83DFCE5DF0731F4A5
:101B1000F8018281882369F080E009C0C93DDC4575
:101B200009F066CFF8018281882319F082E00E94D3
:101B3000A12580E0DF91CF911F910F910895CF9360
:101B4000282F30E0F901E55FF24FC491F901E55724
:101B5000F24F2491222359F081EE0E94A2138C2F80
:101B60000E94A2138C2F0E94B11481EE04C08C2F0E
:101B70000E94A2138C2FCF910C94B1140F931F933A
:101B8000CF93DF93EC01062FFE018491882359F156
:101B90009E012F5F3F4F813041F4E901F90114911B
:101BA000812F0E94A213812F0DC0823031F4E901F0
:101BB000F90184910E94A2130AC0833031F4E90133
:101BC000F90184910E94B11402C00E949F0D2196D8
:101BD000802F8823C9F2EFE9FFE03197F1F700C0C9
:101BE00000008150F6CFDF91CF911F910F910895A2
:101BF00060E00C94BE0D8F929F92AF92BF92CF92F5
:101C0000DF92EF92FF920F931F936B017C0181E0B3
:101C100090E0A0E0B0E04C015D0104C0880C991C8C
:101C2000AA1CBB1C4A95D2F7AC01BD0104C0440FED
:101C3000551F661F771F2A95D2F7482959296A2907
:101C40007B2904C0880F991FAA1FBB1F0A95D2F7D2
:101C50008A019B010C211D212E213F21041715070C
:101C60002607370739F4BC01CD016C297D298E295F
:101C70009F290AC080959095A095B095BC01CD0193
:101C80006C217D218E219F211F910F91FF90EF905C
:101C9000DF90CF90BF90AF909F908F9008950F935B
:101CA000382F262F6091160270911702809118022A
:101CB00090911902042F432F0E94FB0D0F910C9459
:101CC0000A1C0C94ED0A0E941C120C94FE07089545
:101CD0000C94670E0C94680E089596E0799FF001BD
:101CE000112498E4899FE00DF11D1124E60FF11DE8
:101CF000EE0FFF1FE558FC4F859194910895880FD2
:101D0000991FFC01E55FF14F859194910895CF9360
:101D1000DF930E946D0E0E942A10EC01811520E5D0
:101D20009207F0F5811530E4930708F018C1883E5A
:101D3000910500F5803E910508F088C1883A91052B
:101D400070F4853A910508F09AC08130910509F444
:101D50007DC108F434C1049708F078C130C18D3BCF
:101D6000910508F497C0803C910508F428C1805C77
:101D70009109E7C08115904258F4C11581E0D80758
:101D800008F064C1C03FD10508F419C1D0655EC137
:101D9000C11590E3D90708F0D8C0CE019F70D1C01B
:101DA000811525E5920708F043C0811534E59307B6
:101DB00008F0ECC0811542E5940708F5C11581E5EE
:101DC000D80708F0CFC02C2F237081E090E002C02C
:101DD000880F991F2A95E2F79C689E0174E036955A
:101DE00027957A95E1F72370922BCF70C695C6950B
:101DF00030E2C39FE0011124C82BD92B27C186955F
:101E000086959E0123703327C115D34508F0AFC0D6
:101E100040E2849FC0011124C1E0D0E002C0CC0F99
:101E2000DD1F2A95E2F78C2B9D2BEC01DC680EC19F
:101E3000811529E5920778F4811538E5930708F0B4
:101E4000AAC08115964508F0BAC0CF71DD27DC2FF6
:101E5000CC27D062FBC0C1158AE5D80708F4A0C022
:101E6000CE0190568115904208F0A9C08D2F8F7138
:101E70000E94A710DD27D0628F71D82BE7C0853A6A
:101E8000910509F49FC0863A910509F09EC0C2E809
:101E9000D0E4DCC0883A910509F49AC0893A9105EA
:101EA00009F499C08A3A910509F498C08B3A9105D2
:101EB00009F497C08C3A910509F496C08B3B9105C3
:101EC00009F495C08C3B910509F494C08D3A9105B5
:101ED00009F493C0803B910509F492C08E3A9105B4
:101EE00009F491C08F3A910509F490C0813B9105A6
:101EF00009F48FC0823B910509F48EC0833B9105A4
:101F000009F48DC0843B910509F48CC0853B910593
:101F100009F48BC0863B910509F48AC0873B910583
:101F200009F489C0883B910509F488C0893B910573
:101F300009F487C08A3B910509F486C0C0E0D4E467
:101F400085C00E947F0EEC0181C0CE019927D3FF8E
:101F500003C0EC01D86C7AC0EC01D06C77C0DF70A4
:101F6000D06A74C0DC2FCC27C16FD06A6FC040E24A
:101F7000849FC0011124C1E0D0E002C0CC0FDD1F5E
:101F80002A95E2F7C82BD92BDA6860C0D82FCC2766
:101F9000C46FD06A5BC0D82FCC27C06FD06A56C040
:101FA0008C2F8F70806E90E0906A24E0D695C79554
:101FB0002A95E1F7CF709C013C2BE90147C0C0E0B6
:101FC000D0E044C0C1E8D0E441C0C3E8D0E43EC0A2
:101FD000C2EED4E43BC0C9EED4E438C0CAEED4E4C7
:101FE00035C0C5EBD4E432C0C6EBD4E42FC0C3EB9C
:101FF000D4E42CC0C4EBD4E429C0C7EBD4E426C09D
:10200000CCECD4E423C0CDECD4E420C0C3E8D5E4C8
:102010001DC0CAE8D5E41AC0C2E9D5E417C0C4E9B6
:10202000D5E414C0C1E2D6E411C0C3E2D6E40EC0C8
:10203000C4E2D6E40BC0C5E2D6E408C0C6E2D6E4EA
:1020400005C0C7E2D6E402C0CAE2D6E4CE01DF9101
:10205000CF9108958238910549F1B0F4813391050B
:1020600009F458C048F48932910509F44EC08A3207
:10207000910509F454C008958533910509F440C0D1
:102080008933910599F00895833E910529F138F43B
:10209000803E910591F0823E9105A1F00895863E23
:1020A0009105F9F0873E910531F10895209149029B
:1020B00020FD3AC021FD38C008958091490280FD7D
:1020C00035C032C08091490282FF32C080914902FE
:1020D00084FD30C083EE39C08091490282FD28C062
:1020E000F5CF8091490283FF27C08091490284FD8A
:1020F00021C087EE2AC08091490283FD1DC0F5CF23
:102100008091490285FD1AC01BC08091490285FD5E
:1021100017C014C08091490286FD14C015C080917B
:10212000490286FD11C00EC080EE0FC089E30DC0CC
:1021300082EE0BC080E009C086EE07C089E205C0D0
:1021400085E303C08AE201C081E390E008959091A5
:10215000490292FF0DC0282F2871283019F4877F7B
:10216000846006C0282F2471243011F48B7F88608E
:1021700093FF0DC0282F2871283119F4877E8461C0
:1021800006C0282F2471243111F48B7E886194FDC0
:10219000877E089508950F931F93CF93FB012281AB
:1021A000211102C0C1E041C08C01C091C801C11120
:1021B00025C086319C45B1F70E94CA1081E080930A
:1021C000C8010E94B31E9093C7018093C60110926C
:1021D000BB011092BD011092BC011092BF01109280
:1021E000BE011092C1011092C0011092C301109261
:1021F000C2011092C5011092C40117C08091C6019E
:102200009091C7010E94BF1E8C32914058F6909168
:10221000BB01E92FF0E0EE0FFF1FE454FE4F1183E6
:1022200000839F5F9093BB01C0E08C2FCF911F91E3
:102230000F910895CF93DF93FC012785211116C0DC
:10224000EC0181E0878787810E94831D88850E9439
:10225000961D0E944D1DEA81FB816A897B89CE0112
:102260000696309719F0DF91CF910994DF91CF91C5
:102270000895EF92FF920F931F93CF93DF93FC018A
:102280002085211134C0EC01E380F480F7E5FF1ACA
:1022900024E12E9DC0012F9D900D1124DC01AF5F24
:1022A000BE4F1496ED91FC91159752966D917C91CD
:1022B0005397895F9E4F309709F0099584E18E9D71
:1022C00080018F9D100D11240F5F1E4FF801878133
:1022D0000E94891DF80180850E949C1D0E944D1D51
:1022E00018821F8219861092CA011092C901DF91CB
:1022F000CF911F910F91FF90EF900895DF92EF9291
:10230000FF920F931F93CF93DF93FB012281222330
:1023100079F1209151012F3F59F18C01C7E0D1E0B3
:10232000E12CF12CDD24D39480915101082E000C76
:10233000990B8E159F05E4F088818823A1F08B818D
:102340009C810817190739F48091C9019091CA013D
:102350000817190741F0DF82CE0106970E941A1173
:10236000CE010E943911FFEFEF1AFF0A6496DCCF0D
:10237000DF91CF911F910F91FF90EF90DF90089523
:10238000EF92FF920F931F93CF93DF939C013755EA
:102390002F3F310511F008F047C040915101042E44
:1023A000000C550B4217530714F420935101FB0105
:1023B0007C01828194E1929F8001939F100D1124F2
:1023C000E801CF5FDE4F8E8792818E81992311F1D4
:1023D000FA86E9868F5F8E830E94B31E9C878B8767
:1023E0000E94BC1D8F830E94801D88870E94931DC0
:1023F0009885892B8887E881F9816A897B89C8015A
:10240000895F9E4F309709F00995F092CA01E092DA
:10241000C9010AC0882341F08F85882329F0C801AB
:10242000895F9E4F0E94391181E0DF91CF911F910A
:102430000F91FF90EF900895CF92DF92EF92FF926D
:102440000F931F93CF93DF93809151018F3FC1F181
:10245000C0E0D4E12C2F30E080915101082E000C17
:10246000990B8217930764F1D29FF001D39FF00D6F
:102470001124EF5FFE4FE088F188E114F10419F4B4
:1024800086E9E82EF12CD29F6001D39FD00C112455
:1024900086010F5F1E4FF8018681882379F08385BE
:1024A00094850E94BF1EE816F90640F4C8010E94F8
:1024B0001A11C601895F9E4F0E943911CF5FCACFA2
:1024C000DF91CF911F910F91FF90EF90DF90CF9010
:1024D00008959093D0018093CF010895E091CF01AA
:1024E000F091D001309721F00190F081E02D099416
:1024F00080E00895E091CF01F091D001309721F074
:102500000280F381E02D09940895E091CF01F091CC
:10251000D001309721F00480F581E02D09940895D1
:102520002091CD013091CE018217930771F09093E5
:10253000CE018093CD01E091CF01F091D001309791
:1025400021F00680F781E02D099408952091CB01B8
:102550003091CC018217930771F09093CC01809356
:10256000CB01E091CF01F091D001309721F00084B0
:10257000F185E02D099408950C94C10981E0089536
:102580000E94AA1E0E9400080C94201FCF92DF9286
:10259000EF92FF920F931F93CF93DF93CDB7DEB7E8
:1025A0002B970FB6F894DEBF0FBECDBF0E94460931
:1025B0000E94BE12811111C08FEF89838A831B8212
:1025C0000E94B31E8160782F9D838C8349815A813C
:1025D0006B818D810E946E1356C082EDC82E81E002
:1025E000D82E00E010E0E02E802F0E949109F60125
:1025F00041916F01F42EF82631F40F5F1F4F0C301C
:10260000110589F7D9CF90912B0291FF04C08B87D8
:102610000E9497098B8520E030E04F2D50E0922FEB
:10262000BA01022E02C0759567950A94E2F760FF21
:1026300024C02E83EF8221E030E0690102C0CC0C7F
:10264000DD1C9A95E2F790E08C219D21892B09F4FD
:1026500020E028870E94B31E8160782F9A8789879F
:102660004E815F8168858A850E946E13F801EE5263
:10267000FE4F8081C826C08206C02F5F3F4F2630A4
:10268000310569F6BACF0E94B3201091D1010E94A2
:102690006E121817A1F00E946E128093D1012B9632
:1026A0000FB6F894DEBF0FBECDBFDF91CF911F9163
:1026B0000F91FF90EF90DF90CF900C946A0E2B96C5
:1026C0000FB6F894DEBF0FBECDBFDF91CF911F9143
:1026D0000F91FF90EF90DF90CF900895CF93DF930D
:1026E000CDB7DEB72B970FB6F894DEBF0FBECDBFC8
:1026F0004F83588769877A878B87DE01119686E03A
:10270000FD0111928A95E9F785E0FE013796019067
:102710000D928A95E1F749815A816B817C818D8187
:102720009E810E94A01A2B960FB6F894DEBF0FBEB2
:10273000CDBFDF91CF910895FC01808191810E94EE
:102740000D1D0895CF93DF931F92CDB7DEB7882379
:1027500009F403C1682F8238C1F40E946E1281FD12
:10276000FCC069E380915201909153010E942D1E9B
:102770000E944D1D2FEF81EE94E02150804090404B
:10278000E1F700C0000069E319C0833811F50E9429
:102790006E1280FDE2C063E5809152019091530179
:1027A0000E942D1E0E944D1D2FEF81EE94E02150BE
:1027B00080409040E1F700C0000063E58091520145
:1027C000909153010E942F1E0F90DF91CF910C9496
:1027D0004D1D8438C1F40E946E1282FDBEC067E4B4
:1027E00080915201909153010E942D1E0E944D1D17
:1027F0002FEF81EE94E0215080409040E1F700C03F
:10280000000067E4DBCF8CEF860F813A70F4862FEF
:1028100069830E94C922698181119FC08091520100
:10282000909153010E942D1ECFCF80E2860F8830F9
:1028300048F4677081E001C0880F6A95EAF70E944A
:10284000831DC2CF8BE5860F833088F4653A29F06B
:10285000663A31F083E890E005C081E890E002C07C
:1028600082E890E00F90DF91CF910C94901288E570
:10287000860F853108F071C0683A61F1693A69F1F3
:102880006A3A71F16B3A79F16C3A81F16B3B89F1FB
:102890006C3B91F16D3A99F1603BA1F16E3AA9F16F
:1028A0006F3AB1F1613BB9F1623BC1F1633BC9F1F0
:1028B000643BD1F1653BD9F1663BE1F1673BE9F15E
:1028C000683BF1F1693BF9F16A3B09F43FC080E0F4
:1028D00090E03EC082EE90E03BC089EE90E038C0D0
:1028E0008AEE90E035C085EB90E032C086EB90E058
:1028F0002FC083EB90E02CC084EB90E029C087EBE5
:1029000090E026C08CEC90E023C08DEC90E020C0DD
:1029100083E891E01DC08AE891E01AC082E991E065
:1029200017C084E991E014C081E292E011C083E213
:1029300092E00EC084E292E00BC085E292E008C013
:1029400086E292E005C087E292E002C08AE292E06D
:102950000F90DF91CF910C94A6120F90DF91CF9141
:102960000895882309F45BC0682F823879F40E94A7
:102970006E1281FF54C069E380915201909153011E
:102980000E942D1E0E944D1D69E310C08338B1F4D2
:102990000E946E1280FF43C063E5809152019091C6
:1029A00053010E942D1E0E944D1D63E5809152012E
:1029B000909153010E942F1E0C944D1D843879F480
:1029C0000E946E1282FF2BC067E4809152019091A9
:1029D00053010E942D1E0E944D1D67E4E7CF8CEF2E
:1029E000860F813A18F380E2860F883048F46770CA
:1029F00081E001C0880F6A95EAF70E94891DDCCF4B
:102A00008BE5860F833020F480E090E00C949012E8
:102A1000685A653120F480E090E00C94A612089585
:102A2000882321F00E94831D0C944D1D0895882356
:102A300021F00E94891D0C944D1D08954F925F92C4
:102A40006F927F92BF92CF92DF92EF92FF920F939D
:102A50001F93CF93DF937C01D62FC72FFC010581F5
:102A600002950F70128111110E94A31D0E94461D34
:102A7000882379F0112369F080E28D0F883048F0C7
:102A800082E00E942F1D0E94461D91E0B82EB926BB
:102A900001C0B12CCC2EC2948FE0C822D12CF601FB
:102AA000E758FF4F0C947E2A8C2F807FCF708823AD
:102AB00011F0C295C07F112399F0CC2309F4CFC146
:102AC00080E28D0F883010F0D11104C08C2F0E944D
:102AD000831D03C08C2F0E94961D0E944D1DBFC1F7
:102AE0008D2F0E94B114CC2309F4DEC180E28D0F3A
:102AF000883010F0D11104C08C2F0E94891D03C0B2
:102B00008C2F0E949C1D0E944D1DCEC18C2F807F5A
:102B1000CF70803211F0C295C07FDD2319F0D13023
:102B2000C9F022C0112371F0002341F0013031F4CB
:102B30000E94BC1D8C2B0E94B61DB6C10E94BC1DFC
:102B40008C2B46C1002319F0013009F4ADC10E945D
:102B5000B91D18C0112321F0063008F0A5C10EC020
:102B6000053008F0A1C10EC0112351F0002331F04F
:102B7000F701858180FF73C18F7085838C2F28C1F9
:102B800001117EC18C2F2AC18C2F8695869583706A
:102B900090E0009719F0019761F086C1112321F0B0
:102BA0008D2F9C2F937002C080E090E00E949012C5
:102BB0008BC1112321F08D2F9C2F937002C080E0D8
:102BC00090E00E94A61280C11123F9F0D53F51F088
:102BD000D63F71F0D43FA9F4809143029091440212
:102BE00081600BC08091430290914402826005C0D5
:102BF00080914302909144028460909344028093B8
:102C000043028D2F0E94BB1F1EC0D53F51F0D63FFF
:102C100071F0D43FA9F480914302909144028E7FD9
:102C20000BC080914302909144028D7F05C080913A
:102C30004302909144028B7F90934402809343021D
:102C40008D2F0E9423200E94A8203EC18C2F8370CC
:102C500009F050C0111134C18D2F8295869587706F
:102C6000880F880F9D2F9F70492E512C612C712C3D
:102C7000082E04C0440C551C661C771C0A94D2F71D
:102C8000D4FF14C00FE010E020E030E0B901A8014B
:102C900004C0440F551F661F771F8A95D2F7CB01DA
:102CA000BA01609570958095909503C060E070E0E2
:102CB000CB01C695C695C370D0E0C230D10561F096
:102CC000C330D10581F06429752986299729219778
:102CD00071F00E94E31BF4C06429752986299729A5
:102CE0000E94F51BEDC00E94E31BC301B2010E94CC
:102CF000D11BE6C0112319F08C2F817001C086957D
:102D0000882309F4DDC08D2F829586958770880F02
:102D1000880F9D2F9F70492E512C612C712C082EED
:102D200004C0440C551C661C771C0A94D2F7D4FFCF
:102D300014C00FE010E020E030E0B901A80104C0A9
:102D4000440F551F661F771F8A95D2F7CB01BA0132
:102D5000609570958095909503C060E070E0CB0120
:102D6000C695C695C3704C2F50E04230510569F0AE
:102D70004330510589F06429752986299729413006
:102D8000510571F00E94A91C9BC0642975298629F0
:102D900097290E94BB1C94C00E94A91CC301B201C8
:102DA0000E94971C8DC08D2F90E0FC01E05EF10920
:102DB000E531F10508F04FC0E757FF4F0C947E2A2C
:102DC000DF708C2F8F71112331F00E94301C8D2FFA
:102DD0000E94101569C00E94511C8D2F0E9417156A
:102DE00063C0112341F0053008F05EC08C2F8F7155
:102DF0000E94761C59C0063008F056C0F7CF112348
:102E000039F08C2F8F710E94301C4EC01123C9F3F2
:102E10008C2F8F710E94511C47C0112329F08C2FD9
:102E20008F710E941B1C40C00E94161C3DC01123C4
:102E300049F0CF718C2F0E94301C63E08C2F0E94D0
:102E4000261D32C081E00E942F1D023068F182E011
:102E50000E942F1D29C0112331F0002391F28D2FE4
:102E60000E94A21321C0002399F2D93349F45FEFE5
:102E700067EE73E0515060407040E1F700C0000021
:102E80008D2F0E94B11410C04C2F4F706D2FC701B1
:102E90000E94380B0E94441B17C04C2F4F706D2F9F
:102EA000C7010E946C0E10C088E0C816D10441F022
:102EB0005CF0EAE0CE1AD108F2E0CF16D10420F49B
:102EC0000E946E120E946A0EBB20F1F00E94221D29
:102ED00080FD1AC0F70112820E941C1D0E94301C46
:102EE000C7010E9492170E941C1DDF91CF911F9174
:102EF0000F91FF90EF90DF90CF90BF907F906F90F9
:102F00005F904F900C94511CDF91CF911F910F91C6
:102F1000FF90EF90DF90CF90BF907F906F905F9089
:102F20004F9008950F931F93CF93DF93EC01888107
:102F300099812B813C81232BB9F09F3F11F48F3F66
:102F400099F0CE010E94380C882371F06881798154
:102F50008A810E94181D8C010E94CD1C0E94CE1BEC
:102F6000B801CE010E941E15DF91CF911F910F91E4
:102F700008950E94A31D0E94B31D8091520190915B
:102F800053010E94311E0E944D1D0E9441210E944A
:102F9000A82080E090E00E94901280E090E00C94E5
:102FA000A6120E94901D0C94B9170E940D1DE92FC6
:102FB000E295EF70F0E03297EE30F105B0F4E256B2
:102FC000FF4F0C947E2A803F91F018F4803E68F405
:102FD0000EC0843F51F40BC0803E48F0813F29F47D
:102FE00006C093FB882780F9089580E0089581E06A
:102FF0000895CF93DF9300D000D01F92CDB7DEB7F6
:103000000F900F900F900F900F90DF91CF91089538
:10301000CF93DF9300D000D000D0CDB7DEB7269697
:103020000FB6F894DEBF0FBECDBFDF91CF910895EC
:103030001F93CF93DF93C091DE0116E08091DF01F3
:10304000C81799F0D0E01C9FF0011D9FF00D1124CE
:10305000E052FE4F4081518162817381848195816C
:103060000E9408182196C770E9CFDF91CF911F9178
:1030700008954091100250911102609112027091D6
:10308000130280911402909115020C94081820915B
:10309000DE019091DF0156E02917A9F030E0529F40
:1030A000F001539FF00D1124E052FE4F7181671320
:1030B00006C07081871303C07281471306C02F5F5B
:1030C0003F4F2770E9CF80E0089581E00895809117
:1030D000150282958F7009F054C0809112028823E6
:1030E00009F44FC08091DE01A091DF0160911002D0
:1030F000709111024091130250911402B6E08A17A8
:1031000009F43FC090E041155105C1F17F3F11F432
:103110006F3FA1F1B89FF001B99FF00D1124E0526B
:10312000FE4F218172132AC02081621327C02281A1
:10313000211124C0238134812417350710F4215034
:103140003109241B350B26393105C0F420911502B5
:103150002F7020612093150226E0289FF001299FFF
:10316000F00D1124EB51FE4F80818F7080618083C0
:1031700080E192E00E9492170C94181801968770D3
:10318000BECF0895AF92BF92CF92DF92EF92FF929F
:103190000F931F93CF93DF93CDB7DEB762970FB630
:1031A000F894DEBF0FBECDBF7C0185E0F701DE01E4
:1031B0001D9601900D928A95E1F7D7010C91119619
:1031C0005C9111971296BC9012971396CD90DC905B
:1031D0001497309110024091110280911302909146
:1031E0001402009709F47DC14F3F19F43F3F09F4E1
:1031F00078C1A0901202AA2009F40DC120911502F5
:10320000C816D90628F0F601E81BF90BCF0104C057
:10321000809590958C0D9D1D11E08639910588F063
:1032200010E0207F09F0BEC07C2DD98AC88A402FCB
:103230006B2D89890E94F91780E192E00E94921714
:1032400048C1822F807F09F075C0451314C0301328
:1032500012C0B11010C02F702061209315020E947F
:10326000391880E192E00E94921780911502D701EF
:1032700015968C9320C0CD2809F452C05F3F19F4F5
:103280000F3F09F44DC0B11018C040E0652F802FEA
:103290005A8B0E9447185A89882379F080E192E07E
:1032A0000E949217E0E1F2E086E0DF011D928A952C
:1032B000E9F70E94391810E031C15F3F11F40F3F68
:1032C00079F1B1102DC040E0652F802F5A8B0E94FC
:1032D0004718182F5A89811123C00D875E878D8565
:1032E0009E850E940D1D292F22952F7030E02230DF
:1032F000310524F02430310534F05EC09F7051F068
:10330000811108C00BC19F7029F0F7019581907F52
:1033100009F404C190E2980F983008F04DC0FEC047
:103320001B2DBB2009F4FAC08091150281608093A7
:103330001502C1CF451308C0301306C0B11004C038
:1033400080911502D7019DC00D875E878D859E8572
:103350000E94D517882381F1BB2071F120911502BD
:10336000822F82958F7090E0029774F08091100206
:103370009091110298878F831986DB86CA862C87E5
:10338000CE0107960E94921786E0F701A0E1B2E015
:1033900001900D928A95E1F70E9467180E943918F2
:1033A00011E0BCC0451761F00D875E878D859E8555
:1033B0000E94D517811118C0C7010E949217F0CF43
:1033C0003013F2CFB110F0CF80911502F701858351
:1033D000C7010E94921786E0E0E1F2E0DF011D9252
:1033E0008A95E9F71A2D9AC0BB2031F32091150276
:1033F000822F82958F7090E0029734F280911002B4
:10340000909111029A8389831B82DD82CC822E8364
:10341000CE010196B7CFC816D90628F0F601E81BF1
:10342000F90BCF0104C0809590958C0D9D1D8639B8
:10343000910550F010E07C2DD98AC88A402F6B2D61
:1034400089890E94F91745C01B2DBB2009F4B4CF10
:1034500045132EC030132CC02091150220FD1FC033
:10346000822F82958F70D9F0D70115962C931597DE
:103470008F3049F08F5F982F9295907F822F8F70B9
:10348000892B15968C93C7010E94921786E0F7014D
:10349000A0E1B2E001900D928A95E1F73DC086E08F
:1034A000F701A0E1B2E001900D928A95E1F736C0F4
:1034B0000D875E878D859E850E94D517811164CF0B
:1034C00080911502816080931502C7010E949217B6
:1034D00025C0E0E1F2E086E0DF011D928A95E9F780
:1034E0001BC0BB2009F468CF0D875E878D859E8544
:1034F0000E94D517182F882309F45ECF86E0F701C4
:10350000A0E1B2E001900D928A95E1F780E192E0AE
:103510000E949C130E9467180E943918812F62969E
:103520000FB6F894DEBF0FBECDBFDF91CF911F91D4
:103530000F91FF90EF90DF90CF90BF90AF900895E4
:103540001F93CF93DF93CDB7DEB72C970FB6F894C8
:10355000DEBF0FBECDBF4F83588769877A878B87C1
:103560009C87CE0107960E94C218882369F08F813C
:1035700098852A853B85232BF1F19F3F09F063C095
:103580008F3F09F060C037C086E0FE013796DE014C
:10359000119601900D928A95E1F76F817885EA8501
:1035A000FB85309741F17F3F11F46F3F21F120916E
:1035B000DF0130E0C9010196877099274091DE0153
:1035C00050E08417950709F447C069837A83FD8327
:1035D000EC8396E0929FD001939FB00D1124A052EE
:1035E000BE4FFE01319601900D929A95E1F78093BE
:1035F000DF010E94181816E08091DE019091DF0132
:103600008917C1F1189FC001112480529E4F0E945A
:10361000C218882379F1E091DE011E9FF001112488
:10362000E052FE4F40815181628173818481958196
:103630000E9408188091DE0190E00196877099271A
:103640008093DE01D9CF4F81588569857A858B8536
:103650009C850E940818CFCF0E94D1171092DF01DD
:103660001092DE01E0E1F2E086E0DF011D928A9532
:10367000E9F7C1CF2C960FB6F894DEBF0FBECDBFD1
:10368000DF91CF911F910895EF92FF920F931F93B7
:10369000CF93DF938C01892B09F46CC0F12CEE24BD
:1036A000E394E8012196F8018491843740F4843052
:1036B00008F051C0813081F0823019F15BC085374C
:1036C00009F444C0A8F19CE7980F903708F052C065
:1036D0008F770E94B11441C00E5F1F4FFE01C4914D
:1036E00080E28C0F883048F4C7708E2D01C0880F9F
:1036F000CA95EAF70E94A61D14C08C2F0E94A2133F
:103700002DC00E5F1F4FFE01C49180E28C0F8830E8
:1037100058F4C7708E2D01C0880FCA95EAF70E9431
:10372000AC1D0E944D1D1AC08C2F0E94B11416C0F2
:103730000E5F1F4FFE01C491CC2381F08FE99FE003
:103740000197F1F700C00000C150F6CF0E5F1F4F88
:10375000FE01F49003C00E94A2138E018F2D8823D6
:1037600009F49FCFEFE9FFE03197F1F700C00000C7
:103770008150F5CFDF91CF911F910F91FF90EF9086
:10378000089508950E94C11B60931A0270931B0252
:1037900080931C0290931D020C94B91708950C9409
:1037A000C21B0F931F9300911A0210911B022091CC
:1037B0001C0230911D02602B712B822B932B1F91C9
:1037C0000F910C94C21B0F931F9300911A0210913A
:1037D0001B0220911C0230911D0260237123822361
:1037E00093231F910F910C94C21B0F931F93009171
:1037F0001A0210911B0220911C0230911D026027B9
:103800007127822793271F910F910C94C21B089553
:103810000C94071C0E94081C6093160270931702F8
:1038200080931802909319020C94B91760E070E02D
:10383000CB010C940A1C0F931F9341E050E060E011
:1038400070E08A019B0104C0000F111F221F331F6B
:103850008A95D2F7C901B8011F910F910C940A1CE7
:103860000F931F9341E050E060E070E004C0440F0C
:10387000551F661F771F8A95D2F780911602909187
:103880001702A0911802B09119028A019B01082B1E
:10389000192B2A2B3B2BC901B8011F910F910C94B6
:1038A0000A1C0F931F9341E050E060E070E004C0F9
:1038B000440F551F661F771F8A95D2F74095509584
:1038C000609570958091160290911702A091180250
:1038D000B09119028A019B01082319232A233B2353
:1038E000C901B8011F910F910C940A1C0F931F93EB
:1038F00041E050E060E070E004C0440F551F661FD7
:10390000771F8A95D2F78091160290911702A091A5
:103910001802B09119028A019B01082719272A274A
:103920003B27C901B8011F910F910C940A1C0F93FA
:103930001F930091160210911702209118023091E6
:103940001902602B712B822B932B1F910F910C94DA
:103950000A1C0F931F9300911602109117022091D9
:1039600018023091190260237123822393231F913F
:103970000F910C940A1C0F931F9300911602109143
:1039800017022091180230911902602771278227AF
:1039900093271F910F910C940A1C0895CF92DF92E8
:1039A000EF92FF920F931F93CF93DF938C01C09000
:1039B0001A02D0901B02E0901C02F0901D02809130
:1039C000160290911702A0911802B0911902C82A0C
:1039D000D92AEA2AFB2ACFE1D0E0D701C6010C2E72
:1039E00004C0B695A795979587950A94D2F780FF5E
:1039F00006C0B8018C2F0E94870E019721F42197F1
:103A000060F780E001C08C2FDF91CF911F910F9163
:103A1000FF90EF90DF90CF900895CF93DF93EC016C
:103A20000E94CE1CBE010E94870EDF91CF910895A7
:103A3000CB010E940D1D089580911E0285958595EC
:103A40008595089580911E028770089598E0899F5A
:103A500090011124262B20931E020C94301C2091DF
:103A60001E028095822380931E02982F977069F41E
:103A700030E0482F082E000C550B2417350729F08D
:103A80008595859585950C94511C089590911E02FD
:103A9000977081E009F480E00895E0915201F0917F
:103AA000530180912A028083E0915201F0915301E9
:103AB000908180912902892B8083E0915201F091BD
:103AC0005301908180912802892B808380911F026D
:103AD000882381F0E0915201F09153019081892B6C
:103AE000808380915201909153010E94FA1D8111AF
:103AF00010921F0280915201909153010C947A12FE
:103B000080912A02089590912A02892B80932A029B
:103B10000895809590912A02892380932A0208951E
:103B200010922A0208958091290208959091290205
:103B3000892B8093290208958095909129028923E9
:103B400080932902089510922902089590912802E5
:103B5000892B8093280208958095909128028923CB
:103B600080932802089510922802089580931F02DE
:103B7000089510921F02089580911F0208956DEE1E
:103B80007EEF80E090E00E94B82A60E082E090E062
:103B90000E94A62A60E083E090E00E94A62A60E0EE
:103BA00084E090E00E94A62A60E085E090E00C941A
:103BB000A62A80E090E00E94A02A21E08D3E9E4F40
:103BC00009F020E0822F089582E090E00C94982A7A
:103BD00083E090E00C94982A682F83E090E00C94A6
:103BE000A62A84E090E00C94982A682F84E090E064
:103BF0000C94A62AFC0131969C01285F3F4F80E07F
:103C0000919191118F5FE217F307D1F708959C010D
:103C1000FC0132969FEF80E04191461789F09F3F6B
:103C200019F4411101C0982F8F5F8630A9F79F3F8B
:103C300039F0F901E90FF11D97FDFA9562830895B6
:103C40000895FC01329608962081261301C0108247
:103C50003196E817F907C1F708950C94071E0C94E4
:103C6000211EFC01319608961192E817F907E1F739
:103C7000089580914F02843039F110922C0220E493
:103C800088E190E00FB6F894A895809360000FBE8D
:103C90002093600080E00E946A0E83B7817F846079
:103CA00083BF83B7816083BF7894889583B78E7F05
:103CB00083BF0FB6F894A8958091600088618093C7
:103CC0006000109260000FBE089508950895CF938C
:103CD0000E94651E0E9446090E94661EC0E08C2F4D
:103CE0000E949109811104C0CF5FCC30C1F701C09F
:103CF00081E0CF9108950E94D1170E946E120C941A
:103D00006A0E1F920F920FB60F9211248F939F93FA
:103D1000AF93BF9380912C02811113C08091450213
:103D200090914602A0914702B09148024196A11D90
:103D3000B11D8093450290934602A0934702B09331
:103D40004802BF91AF919F918F910F900FBE0F903E
:103D50001F90189582E084BD93E095BD9AEF97BDC2
:103D600080936E0008952FB7F8948091450290914A
:103D70004602A0914702B09148022FBF0895CF920A
:103D8000DF92EF92FF920F931F932FB7F894409119
:103D900045025091460260914702709148022FBF40
:103DA0006A017B01EE24FF248C0120E030E0C01684
:103DB000D106E206F30610F4415051099A01281B7E
:103DC000390BC9011F910F91FF90EF90DF90CF90B9
:103DD000089578941F920F920FB60F9211248F932B
:103DE0009F93AF93BF938091450290914602A0911B
:103DF0004702B09148020196A11DB11D8093450272
:103E000090934602A0934702B0934802BF91AF91AE
:103E10009F918F910F900FBE0F901F90189587E77D
:103E200097E790930108809300089AE088E10FB625
:103E3000F894A895809360000FBE90936000FFCF28
:103E40000E94D91D811102C00E94BF1D0E94E41D65
:103E500080932B020E94F11D90E090934A02809380
:103E600049020E94E81D682F70E080E090E00C9409
:103E7000CF1B80912F0280FF0BC06091570185E01E
:103E8000689FB001112475956795759567952BC04E
:103E900081FF09C06091570185E0689FB00111243E
:103EA0007595679520C082FF07C06091570185E036
:103EB000689FB001112417C0909130029923D1F06E
:103EC00060915601961788F72091570185E0289F49
:103ED00090011124929FA001939F500D112470E036
:103EE000CA010E946A2A6038710540F461157105A3
:103EF00039F002C065E070E0862F08958FE70895DD
:103F000081E0089580912F0280FF08C060915501E3
:103F100070E0759567957595679521C081FF06C01E
:103F20006091550170E07595679519C082FF04C0D6
:103F30006091550170E010C0909130029923C1F05A
:103F4000609154019617A0F780915501899FC00197
:103F5000112470E00E946A2A6038710528F4611506
:103F6000710521F0862F08958FE7089581E0089567
:103F700061E070E0F4CF803F21F40E94391F819509
:103F800004C0813F29F40E94391F809333020895B1
:103F9000823F21F40E94391F819504C0833F29F498
:103FA0000E94391F809332020895893F19F40E94BC
:103FB000821F05C08A3F31F40E94821F8195809341
:103FC000340208958B3F21F40E94821F819504C022
:103FD0008C3F29F40E94821F809335020895843F0C
:103FE00021F480913102816017C0853F21F48091D6
:103FF0003102826011C0863F21F4809131028460D9
:104000000BC0873F21F480913102886005C0883F52
:1040100031F48091310280618093310208958D3FA7
:1040200021F480912F0281600BC08E3F21F480919A
:104030002F02826005C08F3F29F480912F02846097
:1040400080932F020895803F39F48091330287FFD7
:104050006CC01092330269C0813F29F48091330211
:104060001816BCF362C090913202823F29F497FF88
:104070005CC01092320259C0833F19F41916CCF378
:1040800054C0893F41F48091340218160CF04DC0A1
:10409000109234024AC08A3F29F48091340287FF8B
:1040A00044C0F6CF8B3F39F48091350287FF3DC085
:1040B000109235023AC08C3F29F4809135021816CF
:1040C000BCF333C0843F21F4809131028E7F17C04E
:1040D000853F21F4809131028D7F11C0863F21F40C
:1040E000809131028B7F0BC0873F21F48091310298
:1040F000877F05C0883F31F4809131028F7E8093A5
:10410000310213C08D3F21F480912F028E7F0BC0AE
:104110008E3F21F480912F028D7F05C08F3F29F4BF
:1041200080912F028B7F80932F0280913202811128
:104130000EC08091330281110AC080913402811136
:1041400006C080913502811102C01092300208959C
:1041500081E392E00E9485120E94B31E90932E028A
:1041600080932D0208951F93CF93DF9380912D02AA
:1041700090912E020E94BF1EAC01909130029923B3
:1041800021F02091580130E006C0209159018AE0C9
:10419000289F900111244217530708F46EC08091A4
:1041A0003202C0913302D091340210913502811154
:1041B00007C0C1115EC0D1115CC011115AC05DC0F1
:1041C0009F3F19F09F5F90933002181624F40E94CD
:1041D000391F809332028091320287FF05C00E940E
:1041E000391F8195809332021C1624F40E94391FD6
:1041F000809333028091330287FF05C00E94391FEC
:1042000081958093330240913202442379F03091BA
:104210003302332359F025EB4203A00111245093BC
:1042200032023203C0011124909333021D1624F48C
:104230000E94821F809334028091340287FF05C060
:104240000E94821F819580933402111624F40E94EB
:10425000821F809335028091350287FF05C00E943E
:10426000821F819580933502DF91CF911F910C942D
:10427000A8209F3F09F0A6CFAECFDF91CF911F912D
:104280000895E1E3F2E085E0DF011D928A95E9F708
:104290001092300210922F020895833081F128F499
:1042A000813059F08230D1F00895853009F449C049
:1042B000B8F1863009F456C0089580915901262F2F
:1042C00030E0280F311D2F3F310524F4680F609333
:1042D000590108958FEF80935901089580915801F5
:1042E000262F30E0280F311D2F3F310524F4680FB1
:1042F0006093580108958FEF80935801089580913D
:104300005701262F30E0280F311D2F3F310524F4AF
:10431000680F6093570108958FEF809357010895B8
:1043200080915601262F30E0280F311D2F3F310597
:1043300024F4680F6093560108958FEF809356011F
:10434000089580915501262F30E0280F311D2F3F11
:10435000310524F4680F6093550108958FEF809321
:104360005501089580915401262F30E0280F311D0A
:104370002F3F310524F4680F6093540108958FEFA7
:10438000809354010895833011F128F4813049F06D
:10439000823091F00895853081F120F18630C1F1AD
:1043A000089580915901681720F4861B8093590164
:1043B000089510925901089580915801681720F4CA
:1043C000861B80935801089510925801089580919A
:1043D0005701681720F4861B8093570108951092A7
:1043E0005701089580915601681720F4861B809329
:1043F000560108951092560108958091550168174D
:1044000020F4861B8093550108951092550108955C
:1044100080915401681720F4861B809354010895FD
:104420001092540108950F931F938732D8F58E315F
:1044300008F081C08E3009F46BC098F4873009F41D
:1044400059C08B3009F48BC0863009F08FC0809141
:104450002B02817F8E7F80932B0281E08093370235
:1044600086C0863109F47BC068F4803109F07EC0D3
:1044700080912B0283FB222720F991E0922790FB69
:1044800083F94FC0893109F46AC08B3109F06EC0DD
:1044900080912B0281FB222720F991E0922790FB4B
:1044A00081F93FC0883309F45AC050F4893209F4C5
:1044B00058C0853309F455C0873209F452C056C03C
:1044C000833409F44EC028F48A3308F44FC089536A
:1044D00033C0883409F04AC00E94D1170FEF13EDA2
:1044E00020E3015010402040E1F700C000000E948E
:1044F0000F1F35C080912B02982F9095917090FBE3
:1045000080F980932B0291112AC0897F877F10C088
:1045100080912B0282FB222720F991E0922790FBC9
:1045200082F980932B029923D1F080912B02816034
:1045300080932B0214C08D5141E050E060E070E0A8
:104540008A019B0104C0000F111F221F331F8A958F
:10455000D2F7C901B8010E94CF1B0E94D11781E098
:1045600006C061E070E080E090E0F5CF80E01F9150
:104570000F91089580E0089580E008958E518A306B
:1045800030F4E82FF0E0E958FE4F8081089580E094
:104590000895CF93C82F80913702813069F018F0C9
:1045A0008230C9F183C0E0915201F09153018081C2
:1045B000823209F07DC007C0E0915201F0915301B1
:1045C0008081823261F48C2F0E94BA22811104C052
:1045D0008C2F0E9413221DC081E090E01AC08C2F06
:1045E0000E94BC22811114C0C43179F048F4CB3050
:1045F00079F0C03109F060C082E08093370208C0D2
:10460000C93219F0C83321F057C01092370254C094
:1046100081E0817053C0C93289F118F5C43171F15C
:10462000B0F4C73009F046C08EE18093590182E3AF
:10463000809358018AE08093570184E1809356016A
:1046400088E08093550188E28093540133C082EE64
:104650008C0F863078F58C2F0E94BE228093360214
:1046600029C0CE34E9F020F4CB3421F56AE013C040
:10467000C13579F0C235F1F461E00DC080913602A8
:10468000882319F01092360215C081E0809337021A
:1046900015C061E006C0809136020E944D210AC01B
:1046A0006AE0809136020E94C32104C01092370252
:1046B00080E004C081E002C080E0ABCFCF910895DC
:1046C0008091400208950F931F93CF93DF9300D002
:1046D0001F92CDB7DEB78C010E94B125823011F058
:1046E000843019F593E099831B830A839093E90042
:1046F0008FEF9091E800815095FD06C095ED9A9559
:10470000F1F700008111F5CF8091E80085FF0DC021
:1047100040E050E063E070E0CE0101960E94CE25BB
:104720008091E8008E778093E8000F900F900F90B3
:10473000DF91CF911F910F910895CF93DF9300D018
:104740001F92CDB7DEB720914F02243031F522E021
:104750002983805891099B838A8383E08093E900B1
:104760008FEF9091E800815095FD06C095ED9A95E8
:10477000F1F700008111F5CF8091E80085FF0DC0B1
:1047800040E050E063E070E0CE0101960E94CE254B
:104790008091E8008E778093E8000F900F900F9043
:1047A000DF91CF910895CF93DF93EC010E94B12563
:1047B000823011F08430F9F482E08093E9009FEFB9
:1047C0008091E800915085FD06C085ED8A95F1F74E
:1047D00000009111F5CF8091E80085FF0CC040E00A
:1047E00050E065E070E0CE010E94CE258091E800A7
:1047F0008E778093E800DF91CF910895CF93DF9378
:10480000EC010E94B125823011F0843039F581E04D
:104810008093E9009FEF8091E800915085FD06C0EC
:1048200085ED8A95F1F700009111F5CF8091E800B0
:1048300085FF14C040E050E068E070E0CE010E94C7
:10484000CE259091E8009E779093E80098E0FE01D5
:10485000A8E3B2E001900D929A95E1F7DF91CF9134
:10486000089580914E02811109C00E9463270E9421
:10487000C0278091E20084608093E2000895109246
:104880004E020895089508950C947B1E42E061EC59
:1048900081E00E94DD2642E061EC82E00E94DD269C
:1048A00042E061EC83E00C94DD268091510283307C
:1048B00009F453C030F4813071F0823009F48CC0B7
:1048C00008958A3009F478C08B3009F45EC08930CD
:1048D00009F09AC020C080915002813A09F094C03A
:1048E0008091E800877F8093E80080915402909146
:1048F0005502892B21F468E088E392E003C060E070
:1049000080E090E070E00E9419268091E8008B77AB
:104910008093E800089580915002813209F074C0BC
:104920008091540290915502892B09F06DC08091BD
:10493000E800877F8093E8008091E80082FD05C051
:1049400080914F028111F8CF5FC08091F100809378
:1049500040028091E8008B7753C080915002813AE9
:1049600009F052C08091540290915502892B09F0B0
:104970004BC08091E800877F8093E8008091E80039
:1049800080FFFCCF8091640136C08091500281325B
:10499000D9F58091540290915502892BA9F5809107
:1049A000E800877F8093E8000E94122780915202DE
:1049B000809364010C94D11780915002813221F5CB
:1049C0008091E800877F8093E8000E941227809101
:1049D000530280934102089580915002813AA1F4DC
:1049E0008091E800877F8093E8008091E80080FF55
:1049F000FCCF809141028093F1008091E8008E7796
:104A00008093E8000C941227089584B7877F84BFB1
:104A10000FB6F894A895809160008861809360003B
:104A2000109260000FBE80E88093610010926100D8
:104A30000E94BC120E9463270E94C0278091E2005E
:104A400084608093E20078940E944F2A0E94C012F2
:104A50008AE591E00E94691280914F02853069F4E5
:104A60000E94391E80914D028823B1F30E94671E77
:104A7000882391F30E94B825EFCF0E94C612ECCF95
:104A80000C944225292F332723303105C9F064F4D3
:104A90002130310581F02230310509F049C084E52B
:104AA00090E021E43EE048C02132310521F122327C
:104AB000310571F13DC082E190E025E93EE03CC066
:104AC00099278130910571F02CF4892B89F5EDE35C
:104AD000FEE00DC08230910541F0039749F5EBE00F
:104AE000FEE005C0E5E2FEE002C0E1E1FEE0849107
:104AF00090E09F0121C063307105D0F4660F771FED
:104B0000FB01E657FE4F2081318189E090E014C01F
:104B10006330710568F4FB01EE0FFF1FEC57FE4F89
:104B200020813181FB01EF57FE4F808190E004C06E
:104B300080E090E020E030E0FA01318320830895A6
:104B40000895CF93C82F0E94A025C0934202CF9111
:104B5000089580914F02843011F081E0089582E041
:104B6000089580914202811102C00C94A9250895F4
:104B700080E189BD82E189BD09B400FEFDCF80914D
:104B8000D8008F7D8093D8008091E0008260809370
:104B9000E0008091E00081FDFCCF0895CF92DF928C
:104BA000EF92FF920F931F93CF93DF93EC018B0152
:104BB0006A010E943127811133C0C114D10439F038
:104BC000F60180819181081B190BC80FD91FE12CB8
:104BD000F12C0115110519F18091E80085FD16C031
:104BE0008091E8008E778093E800C114D10449F0E9
:104BF000F60180819181E80EF91EF182E08285E064
:104C00000FC00E943127882321F30AC08991809325
:104C1000F10001501109FFEFEF1AFF0ADACF80E02F
:104C2000DF91CF911F910F91FF90EF90DF90CF9088
:104C3000089520915602309157022617370748F001
:104C40006115710539F42091E8002E772093E80072
:104C500001C0B90140E061157105A9F120914F0231
:104C6000222309F443C0253009F442C02091E80012
:104C700023FD40C02091E80022FD32C02091E800D1
:104C800020FFE9CF4091F3002091F20030E0342B77
:104C9000FC01CF016115710559F02830310540F450
:104CA00081918093F100615071092F5F3F4FF1CFE7
:104CB00041E02830310509F040E02091E8002E77EE
:104CC0002093E800C8CF4111C9CF0AC080914F029C
:104CD000882361F0853061F08091E80083FD0AC08F
:104CE0008091E80082FFF2CF80E0089582E008958D
:104CF00083E0089581E00895209156023091570293
:104D00002617370748F06115710539F42091E8003E
:104D10002E772093E80001C0B901FC0120E0611565
:104D2000710591F180914F02882309F440C08530CC
:104D300009F43FC08091E80083FD3DC08091E80008
:104D400082FD2FC08091E80080FFE9CF2091F30021
:104D50008091F20090E0922B6115710559F0883036
:104D6000910540F424912093F1003196615071092E
:104D70000196F2CF21E0089709F020E08091E80049
:104D80008E778093E800CBCF2111CCCF0AC08091E1
:104D90004F02882361F0853061F08091E80083FD47
:104DA0000AC08091E80082FFF2CF80E0089582E09F
:104DB000089583E0089581E00895982F973058F57D
:104DC0009093E900981739F07091EC002091ED0074
:104DD0005091F00003C0242F762F50E021FF19C01E
:104DE0003091EB003E7F3093EB003091ED003D7F42
:104DF0003093ED003091EB0031603093EB00709315
:104E0000EC002093ED005093F0002091EE0027FF7E
:104E100007C09F5FD3CF8F708093E90081E0089532
:104E200080E008958091500287FF11C08091E800D2
:104E300082FD05C080914F028111F8CF11C0809191
:104E4000E8008B770BC080914F02882349F0809156
:104E5000E80080FFF8CF8091E8008E778093E8002B
:104E600008952091E4003091E50095E64091EC0032
:104E7000842F817040FF22C08091E80080FD1CC01B
:104E800080914F02882391F0853091F08091EB0062
:104E900085FD10C04091E4005091E5004217530792
:104EA00029F39A01915011F784E0089582E0089562
:104EB00083E0089581E0089580E008954091E8003E
:104EC00042FFDECF08950E94D1270E94D927E0EE4D
:104ED000F0E0808181608083E8EDF0E080818F7771
:104EE000808319BCA7EDB0E08C918E7F8C9380817C
:104EF0008F7E808310924E0208950F931F93CF935D
:104F0000DF930E94D1270E94D927C8EDD0E0888185
:104F10008F77888388818068888388818F7D888364
:104F200019BC10924F0210924B0210924D02109237
:104F30004C0200EE10E0F80180818B7F8083888135
:104F40008160888342E060E080E00E94DD26E1EE3F
:104F5000F0E080818E7F8083E2EEF0E080818160EE
:104F60008083808188608083F80180818E7F808348
:104F7000888180618883DF91CF911F910F9108957F
:104F8000E8EDF0E080818F7E8083E7EDF0E08081C6
:104F90008160808384E082BF81E080934E020C9424
:104FA0007D27E8EDF0E080818E7F80831092E20023
:104FB00008951092DA001092E10008951F920F9266
:104FC0000FB60F9211242F933F934F935F936F93DC
:104FD0007F938F939F93AF93BF93EF93FF938091B2
:104FE000E10082FF0BC08091E20082FF07C0809148
:104FF000E1008B7F8093E1000E944E2A8091DA00CD
:1050000080FF1FC08091D80080FF1BC08091DA0014
:105010008E7F8093DA008091D90080FF0DC080E1FF
:1050200089BD82E189BD09B400FEFDCF81E0809396
:105030004F020E94312405C019BC10924F020E94F9
:105040003F248091E10080FF19C08091E20080FF41
:1050500015C08091E2008E7F8093E2008091E20093
:1050600080618093E2008091D80080628093D800B4
:1050700019BC85E080934F020E9443248091E10097
:1050800084FF30C08091E20084FF2CC080E189BDA4
:1050900082E189BD09B400FEFDCF8091D8008F7DEB
:1050A0008093D8008091E1008F7E8093E100809111
:1050B000E2008F7E8093E2008091E2008160809325
:1050C000E20080914B02882311F084E007C08091B8
:1050D000E30087FD02C081E001C083E080934F02BE
:1050E0000E9444248091E10083FF29C08091E20066
:1050F00083FF25C08091E100877F8093E10082E0FB
:1051000080934F0210924B028091E1008E7F80933A
:10511000E1008091E2008E7F8093E2008091E200C6
:1051200080618093E20042E060E080E00E94DD2642
:105130008091F00088608093F0000E944224FF91EB
:10514000EF91BF91AF919F918F917F916F915F91FF
:105150004F913F912F910F900FBE0F901F90189578
:105160001F920F920FB60F9211242F933F934F93DC
:105170005F936F937F938F939F93AF93BF93CF93DF
:10518000DF93EF93FF93C091E900CF708091EC0023
:10519000D82FD17080FDD0E81092E9008091F00006
:1051A000877F8093F00078940E94F4281092E900A1
:1051B0008091F00088608093F000CD2BCF70C09379
:1051C000E900FF91EF91DF91CF91BF91AF919F9156
:1051D0008F917F916F915F914F913F912F910F90A0
:1051E0000FBE0F901F9018951F93CF93DF93CDB7ED
:1051F000DEB7AA970FB6F894DEBF0FBECDBFE0E5CD
:10520000F2E088E08E0F9091F10091938E13FBCF26
:105210000E9455248091E80083FF28C180915002AC
:1052200090915102492F50E04A30510508F01EC1BB
:10523000FA01E455FF4F0C947E2A803821F0823821
:1052400009F014C108C080914C0290914D0299233D
:1052500089F082600FC0809154028F70873008F00F
:1052600005C18093E9008091EB0085FB882780F9D8
:105270001092E9009091E800977F9093E800809366
:10528000F1001092F100D0C0282F2D7F09F0EEC060
:10529000882319F0823061F0E9C080915202813098
:1052A00009F0E4C0933009F080E080934D022EC0F5
:1052B0008091520281112AC0809154028F702FEF89
:1052C000280F263008F0D2C08093E9002091EB002F
:1052D00020FF1CC0933021F48091EB00806214C049
:1052E0009091EB0090619093EB0021E030E0A901F8
:1052F00002C0440F551F8A95E2F74093EA001092CE
:10530000EA008091EB0088608093EB001092E90046
:105310008091E800877F8093E8000E941227A6C052
:105320008111A4C0109152021F778091E300807810
:10533000812B8093E3008091E800877F8093E800D1
:105340000E9412278091E80080FFFCCF8091E3004B
:1053500080688093E300111102C082E001C083E005
:1053600080934F0283C08058823008F07FC08091C4
:105370005202909153028C3D53E0950779F583E0FA
:105380008A838AE289834FB7F894DE01139620E07E
:105390003EE051E2E32FF0E050935700E49120FF0C
:1053A00003C0E295EF703F5FEF708E2F90E0EA3020
:1053B00010F0C79601C0C0968D939D932F5F243146
:1053C00049F74FBF8091E800877F8093E8006AE249
:1053D00070E0CE0101960E94192615C0609154021A
:1053E00070915502AE014F5F5F4F0E944025BC0196
:1053F000892BE1F19091E800977F9093E8008981F3
:105400009A810E947C268091E8008B778093E80047
:105410002DC0803859F58091E800877F8093E8009F
:1054200080914B028093F1008091E8008E7773CFDA
:1054300081111CC0909152029230C0F48091E8001A
:10544000877F8093E80090934B020E9412278091FF
:105450004B02811106C08091E30087FD02C081E00C
:1054600001C084E080934F020E9446248091E800AE
:1054700083FF0AC08091E800877F8093E8008091D5
:10548000EB0080628093EB00AA960FB6F894DEBF23
:105490000FBECDBFDF91CF911F9108950895CF9397
:1054A00080914F028823A1F0C091E900CF709091C4
:1054B000EC00892F817090FD80E8C82B1092E900E4
:1054C0008091E80083FD0E94F428CF70C093E9002A
:1054D000CF91089597FB072E16F4009407D077FD1F
:1054E00009D00E94842A07FC05D03EF4909581954E
:1054F0009F4F0895709561957F4F0895EE0FFF1FA0
:105500000590F491E02D0994AA1BBB1B51E107C043
:10551000AA1FBB1FA617B70710F0A61BB70B881F43
:10552000991F5A95A9F780959095BC01CD010895D2
:10553000F999FECF92BD81BDF89A992780B508955B
:10554000A8E1B0E042E050E00C94C02A262FF9997F
:10555000FECF92BD81BDF89A019700B4021639F0D2
:105560001FBA20BD0FB6F894FA9AF99A0FBE0895A3
:105570000196272F0E94A72A0C94A62ADC01CB01B2
:10558000FC01F999FECF06C0F2BDE1BDF89A319653
:1055900000B40D9241505040B8F70895F894FFCFF1
:1055A000010000EF0A000000000000000000000001
:1055B00000000000000000FF0A00000000000000E2
:1055C00000000000000000000000001D0B000000B3
:1055D0000000000000000000000000000000000FBC
:1055E0000B000000000000000000000000000000B0
:1055F00000FF20022808140A321E6023FE23D32352
:105600009D236323013534C697669436323331F7D0
:10561000F600000000000001020304050607080967
:1056200000404D362A0FDD0EA70E530E6C0E850E70
:00000001FF
