:100000000C9489060C94DC080C94D0060C94D00651
:100010000C94D0060C94D0060C94D0060C94D00608
:100020000C94D0060C94D0060C94FA250C94CE2691
:100030000C94CE1C0C94D0060C94D0060C94D006D4
:100040000C94D0060C94D0060C94D0060C94D006D8
:100050000C94D0060C94341D0C94D0060C94D0064D
:100060000C94D0060C94D0060C94D0060C94D006B8
:100070000C94D0060C94D0060C94D0060C94D006A8
:100080000C94D0060C94D0060C94D0060C94D00698
:100090000C94D0060C94D0060C94D0060C94D00688
:1000A0000C94D0060C94D0060C94D00601E301E029
:1000B000014F024F02E002E30001E301E0015002C0
:1000C0005002E002E30001E30115021574FF02E3B0
:1000D00074FF010602060110021001070207012841
:1000E000022874FF01130213010C020C011102110A
:1000F000010A020A012C022C01E00119021902E096
:100100000001E30115021502E301060206011002D7
:1001100010010702070128022874FF74FF010C0276
:100120000C01130213010602060112021201110250
:100130001101090209010C020C010A020A012C0238
:100140002C0138023801040204010F020F010F02D2
:100150000F012802280001E30115021574FF02E3D4
:1001600074FF0106020601100210010702070128B0
:1001700002280001E0010402040106020602E00078
:1001800001E00119021902E00001E0010602060285
:10019000E000636D640128004143012800750A01F5
:1001A0002B022B010C020C01110211012B022B015D
:1001B000280228012B022B012B022B012B022B01E1
:1001C0000C020C01110211012B022B012802280044
:1001D000750A012B022B0112021201170217012BC3
:1001E000022B01280228012B022B012B022B012BB1
:1001F000022B011D021D01150215012B022B0128E6
:10020000022800750A012B022B01120212011302AF
:1002100013012B022B01280228012B022B012B0298
:100220002B012B022B011D021D01150215012B02B2
:100230002B01280228006970636F6E666967202FA2
:10024000616C6C00747300750A01270227010602B5
:1002500006012B022B012B022B01040204012B02AD
:100260002B00011B021B00750A01E0011702170198
:100270001902190128022802E0007777772E73759A
:1002800070706F72742E7865726F782E636F6D0167
:100290002800617061657A40676F746F636F732EB9
:1002A000636F6D0061646D696E012B313131310115
:1002B000280001E3012B022B02E3002B4514001A56
:1002C0000008001500170028400400160007000968
:1002D000000A00005C1D001B00060019000500005C
:1002E00000000050004F002A00DD5C0000000035D7
:1002F000004600296100303100130012000C001884
:10030000001C00280033000F000E000D000B000041
:100310005C3800370036001000110000000000516A
:100320000052002C002800000000004D004A00DEB2
:100330005C4C002B4514001A00090013000A002829
:100340004004001500160017000700E1001D001B07
:10035000000600190005000000000050004F002AB0
:1003600000DD5C00000000350046002961003031EE
:100370000033001C0018000F000D00280012000CB4
:1003800000080011000B003500380037003600105F
:10039000000E0000000000510052002C0028000058
:1003A0000000004D004A00DE5C4C002B003400369B
:1003B00000370013001C0029610400120008001817
:1003C000000C00E100330014000D000E001B0000C3
:1003D00000000050004F002A00DD5C0000000035E6
:1003E000004600296100302D000F00150006000AAC
:1003F00000090038001600110017000B0007002844
:10040000401D0019001A00100005000000000051F6
:100410000052002C002800000000004D004A00DEC1
:100420005C4C00010001000330023001000F30017C
:10043000000630010001000100010001000100017F
:10044000300100010001000000000050004F002AB0
:1004500000DD5C000000003500460029610030012D
:10046000000A301030010001000100010001000B02
:1004700030520001000100010001004F0051005006
:1004800000010000000000510052002C0028000074
:100490000000004D004A00DE5C4C0025001E0003F9
:1004A000301E001E001E0025001E001E001E001E25
:1004B000001E0025001E001E001E001E001E000063
:1004C00000000050004F002A00DD5C0000000035F5
:1004D0000046002961003000005600230022002160
:1004E0000000000000570020001F001E0000000058
:1004F0000000003700270027000000000000005126
:100500000052002C002800000000004D004A00DED0
:100510005C4C000100200020002000200020000191
:1005200000010052000100010001002961E200E326
:10053000000357DD5C2A000000000050004F002A35
:1005400000DD5C000000003500460029610030013C
:100550000001000100010001000100010052000142
:10056000000100010001004F005100500034005212
:10057000002C0000000000510052002C0028000058
:100580000000004D004A00DE5C4C0000000000004E
:10059000000000000000000000000000000000005B
:1005A000000000000000000000000000000000004B
:1005B000000000000000000000000000000000003B
:1005C000000000000000000000000000000000002B
:100A300000000000000000000000000100DB5CDAA4
:100A40005CC15CC45CC35C0100DA5C01001D5C1E1F
:100A50005C135C01001E001E00010001000100008B
:100A60000000000100010001000100000000000181
:100A700000010001000100005C005CC75CC85CC5AF
:100A80005CC65C0100015CDC5CDB5CDA5C0A5C017E
:100A9000000100010001000100010000000000DB76
:100AA0005C010001000100000000000100010001E4
:100AB00000010000000000000000002A2B280000B8
:100AC00000000000000000000000000000002900FD
:100AD0000000002C1E3420212224342627252E3607
:100AE0002D3738271E1F2021222324252633333675
:100AF0002E37381F0405060708090A0B0C0D0E0FC8
:100B0000101112131415161718191A1B1C1D2F314A
:100B100030232D350405060708090A0B0C0D0E0FAE
:100B2000101112131415161718191A1B1C1D2F312A
:100B300030354C0000000000000000000000000004
:100B400000000000000000000000000000000000A5
:100B5000000000000101010101010001010101008B
:100B60000000000000000000000000000001000183
:100B70000001010101010101010101010101010166
:100B80000101010101010101010101010101000057
:100B90000001010000000000000000000000000053
:100BA0000000000000000000000000000000010143
:100BB00001010004033000000012034D0061006ECB
:100BC00000750066006F0072006D000000160343A0
:100BD000004800200062006F0078004D006F006444
:100BE000007300000004030904090254000301001B
:100BF000A0FA09040000010301010009211101000C
:100C0000012240000705810308000A0904010001D0
:100C100003010200092111010001224D0007058294
:100C20000308000A09040200010300000009211161
:100C30000100012236000705830308000A12011093
:100C40000100000008EDFE60300100010203010513
:100C5000010980A10185021601002603001A810006
:100C60002A8300751095018100C0050C0901A101BE
:100C70008503160100269C021A01002A9C027510A9
:100C800095018100C005010902A1010901A100052A
:100C900009190129051500250195057501810295A0
:100CA00001750381010501093009311581257F9501
:100CB000027508810609381581257F95017508811F
:100CC00006050C0A38021581257F950175088106F5
:100CD000C0C005010906A101050719E029E71500B3
:100CE00025019508750181029501750881010508A6
:100CF0001901290595057501910295017503910169
:100D00000507190029FF150026FF009506750881C3
:100D100000C011241FBECFEFDAE0DEBFCDBF04B6A6
:100D200003FE27C080914F0290915002A091510282
:100D3000B09152028730904BA740B04BD1F4109243
:100D40004F0210925002109251021092520214BEA1
:100D500084B7877F84BF0FB6F894A8958091600010
:100D6000886180936000109260000FBEE0E0F8E3BD
:100D7000099511E0A0E0B1E0ECE8F2E502C00590D1
:100D80000D92AE38B107D9F722E0AEE8B1E001C06C
:100D90001D92AF34B207E1F70E9427230C94E42898
:100DA0000C9400000C946E0A809122028B60809358
:100DB0002202ABE6B1E061E070E08D91E82FE295B0
:100DC000EF70F0E041A18F709B0101C0220F8A9566
:100DD000EAF7922F9095942391A382A1822B82A36C
:100DE00081E0A037B80749F7A5E6B1E061E070E01F
:100DF0008D91E82FE295EF70F0E041A18F709B019B
:100E000001C0220F8A95EAF7922F9095942391A31F
:100E100082A1822B82A381E0AB36B80749F7559AAD
:100E2000209AEEE8F1E0A9E9B1E088E991E01192B9
:100E30001D928E179F07D9F70C940A0D3F924F927F
:100E40005F926F927F928F929F92AF92BF92CF925A
:100E5000DF92EF92FF920F931F93CF93DF9300D017
:100E600000D0CDB7DEB7809100018111B0C085E020
:100E700090E09A83898309811A8107561E4F8BE679
:100E8000E82E81E0F82E6801AA24A394B12C8824CE
:100E9000839424E0922ED6016D906D01FD01129293
:100EA000FC83EB83D7018D917D01E82FE295EF70F4
:100EB000F0E091A18F70B50101C0660F8A95EAF745
:100EC000892F862B81A382A1762E7094872182A3FD
:100ED000B0EABA95F1F745E651E090E080E0DA013A
:100EE0005D90AD01252D22952F7030E0D9019096AF
:100EF0003C90AB81BC814C90352D3F70D50102C038
:100F0000AA0FBB1F3A95E2F79D01232109F062C0A9
:100F10002A2D082E01C0220F0A94EAF72429AB815A
:100F2000BC812C93019686309105C9F681A1782267
:100F300071A282A1682B62A38C91681659F08092ED
:100F4000A3010E94FE1C9093A5018093A4018BB184
:100F500089258BB9B0E7EB16B1E0FB0609F09BCF12
:100F60008091A3018823E1F08091A4019091A501D3
:100F70000E940A1D0697A0F0E981FA81E257FE4F10
:100F8000FA83E98380E0D8019D918D01E981FA819E
:100F90009193FA83E9838F5F8530A9F71092A301BB
:100FA00081E00F900F900F900F90DF91CF911F91E4
:100FB0000F91FF90EF90DF90CF90BF90AF909F90F8
:100FC0008F907F906F905F904F903F9008951A821E
:100FD000198251CF20E0A2CFCF93DF9380910001FF
:100FE000D0E0C0E0882311F0C5E0D0E00E944109C4
:100FF000009789F4C257DE4F30E020E0F901E85550
:10100000FE4F408149932F5F3F4F25303105B1F7A7
:10101000DF91CF91089581E090E0FACFCF930E94C5
:101020001E07C82F0E94EC07892BE1F05D98809184
:1010300098018F5F80939801863078F0809100014D
:10104000F0E0E0E0882311F0E5E0F0E0E257FE4F49
:10105000108211821282138214820E940C0D8C2F36
:10106000CF9108955D9A10929801F7CF0E941E07C4
:1010700080910001E5E0F0E0882311F0F0E0E0E08D
:10108000E257FE4F90E080E02191DC01A855BE4F71
:101090002C93019685309105B9F70895E82FF0E07B
:1010A000E257FE4F808108950895E8EDF0E08081D9
:1010B000806180838AE18A95F1F700C08091D90030
:1010C000817008958EE090E00E94AE2891E0811139
:1010D00001C090E0909300010E945508882321F000
:1010E0000E94CF08789408950E94F51C0E94D308AE
:1010F000F9CF0E94D4060E943608FDCF0E946208F4
:101100000E945508811102C00E9479080895509AE2
:1011100008955098589A0895589A08950E948908F9
:10112000489BFECF80E88A95F1F708950E948908D0
:1011300098E080E029B1880F2170822B20E82A9561
:10114000F1F725E02A95F1F70000915099F70895FD
:101150000F931F93CF93082F0E948708C8E010E0D9
:10116000C15020F4CF911F910F910895C8010C2E0A
:1011700002C0959587950A94E2F780FF06C00E9409
:101180008C0880E88A95F1F7EBCF5898FACF0E9447
:101190008708589880E88A95F1F70C948C080E948B
:1011A00087080C948C080E948908E89AE9E6F0E028
:1011B00080818C7F808308951F920F920FB60F92CB
:1011C0001124EF92FF921F932F933F934F935F93BE
:1011D0006F937F938F939F93AF93BF93CF93DF933F
:1011E000EF93FF930E94C708D0E0C0E010E0CE016B
:1011F00088559E4F7C01FC0180810E94A8080E94B6
:10120000C708F7018081180F2196C530D10579F7FD
:10121000812F0E94A8080E94C708F0E8FA95F1F70C
:1012200080E48A95F1F70E9496088093A7010E94B6
:10123000C708D091A7010E949608C82F0E94C7082E
:101240000E9489088091A601DC17C9F08160809313
:10125000A601FF91EF91DF91CF91BF91AF919F9147
:101260008F917F916F915F914F913F912F911F913E
:10127000FF90EF900F900FBE0F901F9018958E7FEC
:10128000E6CFEF92FF921F93CF93DF93F8940E94E3
:101290008708589825E02A95F1F700000E948908F0
:1012A0000E948C0830E83A95F1F789B1182F117037
:1012B00080FF09C0789481E090E0DF91CF911F9189
:1012C000FF90EF9008950E948E08D0E0C0E00E9449
:1012D0009608FE01E855FE4F7F0180830E948E082C
:1012E000F7018081180F2196C530D10581F70E9442
:1012F0009608C82F0E948E081C13DCCF8091A7018E
:101300000E94A8080E948E088091A7010E94A80848
:101310000E948E080E9487080E948C08789490E0B2
:1013200080E0CBCF0C946D0AFC018081813021F4E8
:1013300089E891E00C948119823019F480E891E0F9
:10134000F9CF83E791E0F6CFFC018081813021F471
:1013500086E591E00C948119823019F481E091E0E6
:10136000F9CF86EC90E0F6CFFC018081813021F44A
:1013700089EB90E00C948119823019F48CEA90E0AA
:10138000F9CF0895FC018081813031F488E30E9417
:10139000411288E30C941C1381E30E94411281E303
:1013A000F9CFCF93DF93EC010E94371CBE0190E090
:1013B00080E0DF91CF910C94071ADC016131A0F439
:1013C000E62FF0E0EA51F74D0C94942812968C9198
:1013D000129781116DC012968C911297882339F063
:1013E00084EA92E00E94A10C90E080E008951296B9
:1013F0008C911297882319F082E992E0F3CF12962C
:101400008C911297882319F08AE792E0EBCF12961D
:101410008C91129781114FC015968C911597982F2A
:10142000907F12962C91222341F0992311F080FF96
:10143000DBCF83E00E94691AD7CF992311F080FF98
:101440003DC083E00E948A1ACFCF12968C911297EA
:10145000811137C012968C911297882319F084E479
:1014600092E0C0CF12968C911297882319F086E3F0
:1014700092E0B8CF12968C911297811125C01296E6
:101480008C911297811123C012968C911297811121
:1014900021C012968C91882309F4A6CF88E991E0A7
:1014A000A1CF12968C9181119FCF82E991E09ACFC2
:1014B00082EB92E0089587E692E0089582E692E05A
:1014C000089587E492E0089583E092E0089580ED26
:1014D00091E008958DE991E0089508950895CF93DE
:1014E000FB018C3D2CE5920751F158F48A3D2CE527
:1014F0009207F9F08B3D9C4599F0C1E08C2FCF917C
:1015000008958E3D2CE5920761F1F8F0803E9C45F0
:10151000A1F7C28180E1CC2379F10E94691A07C04A
:10152000C28182E090E0CC2349F30E94D109C0E05F
:10153000E5CFC28181E090E0CC2301F3F6CFC281F8
:10154000CC23E1F284E090E0F0CFC28183E0CC23B1
:1015500059F00E94691A40E164E083E00E94F80CAF
:10156000E6CFC28184E0F3CF0E948A1A40E164E0B2
:1015700083E00E94F80CC2CF0E948A1ABFCF81E09C
:1015800008950C946F0A0E9411162FEF84E39CE0DB
:10159000215080409040E1F700C0000087E797E7C6
:1015A00090930108809300080C94581D0F931F938B
:1015B000CF93DF938C01FC01C081D181CE010E94C9
:1015C000051BBE010E94160DEC01B8010E941E1001
:1015D000B801CE010E94C10A882309F459C0B8019C
:1015E000CE010E946210882309F452C0B801CE01D6
:1015F0000E94710F882309F44BC0C531FCE5DF0759
:1016000009F427C1B0F4C130ECE5DE0709F446C0A7
:1016100008F056C0C115DC45B1F181E08093B201FC
:101620008093B301C801DF91CF911F910F910C946A
:10163000BF0AC53DECE5DE0709F4F0C0B8F4C33DD0
:101640008CE5D80709F4AEC0C43DDC4531F7F8019C
:101650008281882309F4CDC01092B3010E94FE1C40
:101660009093B1018093B00180E2A9C0C83DFCE530
:10167000DF07F1F0C93DDC4581F6F801828188235E
:1016800039F082E01AC0F801828181110E94C30AF8
:1016900080E0DF91CF911F910F910895F801828131
:1016A0008823B1F380912202816080932202F0CFDF
:1016B000F8018281882361F380E00E94C223E8CF91
:1016C000F8018281882309F4ADCF0E94241C811186
:1016D00002C00E940A1C0E943C1C90E090934102B0
:1016E00080934002FE01E350FC45809140028160FE
:1016F000E231F10538F4E950F74D0C9494288091CB
:101700004002826080934002809140020E94401C0F
:101710000E941116BDCF809140028460F3CF80916A
:1017200040028860EFCF809140028061EBCF8091D2
:1017300040028062E7CF809140028064E3CF8091D5
:1017400040028068DFCF809140028C60DBCF8091C7
:1017500040028E7FD7CF809140028D7FD3CF809182
:1017600040028B7FCFCF80914002877FCBCF80918B
:1017700040028F7EC7CF809140028F7DC3CF809182
:1017800040028F7BBFCF809140028F77BBCF80918B
:101790004002837FB7CF90914002892F97FB87F952
:1017A0008058B0CFF8018281882361F01092B20195
:1017B0000E94FE1C9093AF018093AE0182E00E94D4
:1017C0006B1366CF8091B20181110FC08091AE0181
:1017D0009091AF010E940A1D8639910530F486E28E
:1017E0000E94411286E20E941C1382E00E94721342
:1017F0004FCF8091B30181110FC08091B0019091C2
:10180000B1010E940A1D8639910530F487E20E94D9
:10181000411287E20E941C1380E2E8CFF801828126
:1018200081111ACF8091B3018111F6CF8091B0015F
:101830009091B1010E940A1D8639910568F780E2F6
:101840000E94721388E20E94411288E20E941C13D7
:101850001FCF0E94CB1BF8019281992381F08A7AD5
:1018600091E009F490E09093AD01811106C089E206
:101870000E94541B0E94981B0BCF85E3F9CF8091E7
:10188000AD01811104C089E20E945B1BF3CF85E3A7
:10189000FBCFCF9390E0FC01ED54F54FC4918D5CEC
:1018A000944FFC018491882369F081EE0E944112DB
:1018B0008C2F0E9441128C2F0E941C1381EECF911D
:1018C0000C941C138C2F0E9441128C2FF8CFFF9286
:1018D0000F931F93CF93DF938C01F62EF801849121
:1018E000882349F1E8012196813049F4FE011491E1
:1018F000812F0E944112812F0E941C1306C082304A
:1019000089F4FE0184910E9441128E010F5F1F4FE6
:101910008F2D815018F3EFE9FFE03197F1F700C008
:101920000000F7CF833019F4FE018491E5CF0E94C7
:10193000490CE801EACFDF91CF911F910F91FF9001
:10194000089560E00C94670C8F929F92AF92BF92C3
:10195000CF92DF92EF92FF920F931F936B017C0166
:1019600081E090E0A0E0B0E04C015D0104C0880C93
:10197000991CAA1CBB1C4A95D2F7B501A4014C01C5
:101980005D0104C0880C991CAA1CBB1C2A95D2F7C7
:10199000482959296A297B2904C0880F991FAA1F41
:1019A000BB1F0A95D2F78A019B010C211D212E2114
:1019B0003F21041715072607370789F48C299D292D
:1019C000AE29BF29BC01CD011F910F91FF90EF906F
:1019D000DF90CF90BF90AF909F908F9008958095AB
:1019E0009095A095B0958C219D21AE21BF21EACF85
:1019F0000F93382F262F60910D0270910E02809167
:101A00000F0290911002042F432F0E94A40C0F91FB
:101A10000C94431A0C9492090E94BC100C94D206A8
:101A200008950C94100D0C94110D0895972F70E0EB
:101A300026E0929F600D711D1124FB019CE3899F9C
:101A4000E00DF11D1124EE0FFF1FE554FD4F8591B0
:101A500094910895FC01EE0FFF1FED54F44F859112
:101A600094910895CF93DF930E94160D0E94D20E99
:101A7000EC01811520E5920708F042C0811530E4A1
:101A8000930708F007C1883E910528F5803E91052F
:101A900008F09BC0883A910588F4853A910508F0D2
:101AA0008AC08130910509F490C0009709F48DC077
:101AB000049708F08AC0D0E0C0E087C08D3B910554
:101AC00008F487C0805C9109C03CD105A0F30E9456
:101AD0002A0DEC017AC08115904250F4C11581E0C5
:101AE000D80708F072C0C03FD10528F3D0656DC09B
:101AF000C11590E3D90708F0C3C0CE019F70E7CFAE
:101B0000811525E5920758F5811534E5930708F00E
:101B1000F0C0811542E5940750F4C11581E5D8075E
:101B200008F4BBC0DC2FCC27C16FD06A4EC0982F01
:101B3000969596959E0123703327C115D34508F0DD
:101B4000C9C0C1E0D0E002C0CC0FDD1F2A95E2F78A
:101B500020E2929FC0011124C82BD92BB9C0C11516
:101B600089E5D80780F4C11598E5D90708F0C6C003
:101B7000C11526E5D20708F09ECFDC2FCC27CC2755
:101B8000DF71D06222C0CE01C1153AE5D30708F457
:101B9000BAC090568115904208F08DCF8D2F8F716D
:101BA0000E944D0F90E0982F882788279F719C01F5
:101BB0002C2BE901E6CF853A910509F4AEC0863AAF
:101BC000910509F0ADC0C2E8D0E4CE01DF91CF911C
:101BD0000895883A910509F4A6C0893A910509F457
:101BE000A5C08A3A910509F4A4C08B3A910509F47D
:101BF000A3C08C3A910509F4A2C08B3B910509F46E
:101C0000A1C08C3B910509F4A0C08D3A910509F45F
:101C10009FC0803B910509F49EC08E3A910509F45E
:101C20009DC08F3A910509F49CC0813B910509F450
:101C30009BC0823B910509F49AC0833B910509F44E
:101C400099C0843B910509F498C0853B910509F43E
:101C500097C0863B910509F496C0873B910509F42E
:101C600095C0883B910509F494C0893B910509F41E
:101C700093C08A3B910509F492C0C0E0D4E4A5CF9B
:101C8000CE019927D3FF03C0EC01D86C9ECFEC01A5
:101C9000D06C9BCFDF70D06A98CFCE01E4E09695F0
:101CA0008795EA95E1F783702C2F2695269523706A
:101CB00090E2299F90011124382B8C2F8370C1E072
:101CC000D0E002C0CC0FDD1F8A95E2F7C22BD32BE8
:101CD000DC687BCFC1E0D0E002C0CC0FDD1F2A95CD
:101CE000E2F730E2939FC0011124C82BD92BDA68A8
:101CF0006CCFD82FCC27C46FD06A67CFDC2FCC270E
:101D0000C06FD06A62CF34E0969587953A95E1F737
:101D10008F70CF70C06ED82FBECFC1E8D0E455CF42
:101D2000C3E8D0E452CFC2EED4E44FCFC9EED4E43E
:101D30004CCFCAEED4E449CFC5EBD4E446CFC6EBD2
:101D4000D4E443CFC3EBD4E440CFC4EBD4E43DCFE1
:101D5000C7EBD4E43ACFCCECD4E437CFCDECD4E429
:101D600034CFC3E8D5E431CFCAE8D5E42ECFC2E9F9
:101D7000D5E42BCFC4E9D5E428CFC1E2D6E425CF02
:101D8000C3E2D6E422CFC4E2D6E41FCFC5E2D6E454
:101D90001CCFC6E2D6E419CFC7E2D6E416CFCAE21A
:101DA000D6E413CF8238910549F1B0F4813391051F
:101DB00009F462C048F48932910509F456C08A32A8
:101DC000910509F460C008958533910509F446C072
:101DD0008933910599F00895833E910531F138F4E6
:101DE000803E910591F0823E9105B1F00895863EC6
:101DF000910521F1873E910551F10895209140020E
:101E00002370D9F080EE90E008952091400220FFE9
:101E100014C089E390E008952091400222FF0DC094
:101E200024FD09C083EE90E008952091400222FD38
:101E300031C024FF02C090E080E00895209140026C
:101E400023FFFBCF24FDF7CF87EE90E0089520918C
:101E5000400223FFEECF86EE90E0089520914002ED
:101E600025FFEBCF89E290E008952091400225FF05
:101E7000E4CF85E390E008952091400226FFDDCF76
:101E80008AE290E008952091400226FFD6CF81E3B8
:101E900090E0089582EE90E008959091400292FFC4
:101EA00006C0282F2871283069F4877F846093FF4B
:101EB00006C0282F2871283161F4877E846194FD43
:101EC000877E0895282F2471243089F78B7F8860BE
:101ED000EECF282F2471243191F78B7E8861EFCFCC
:101EE00008950F931F93CF938C01FB018281811181
:101EF00006C0C1E08C2FCF911F910F910895C09122
:101F0000C101C11125C006311C4599F70E94700F0F
:101F100081E08093C1010E94FE1C9093C0018093D8
:101F2000BF011092B4011092B6011092B501109247
:101F3000B8011092B7011092BA011092B901109233
:101F4000BC011092BB011092BE011092BD01D2CF14
:101F50008091BF019091C0010E940A1D8C32914076
:101F600040F68091B401E82FF0E0EE0FFF1FEB5434
:101F7000FE4F118300838F5F8093B401C0E0BACF1E
:101F8000CF93DF93EC0181E08F878F810E94CE1B7E
:101F900088850E94E11B0E94981BEA81FB81309793
:101FA00039F06A897B89CE010696DF91CF91099439
:101FB000DF91CF910895EF92FF920F931F93CF93EC
:101FC000DF93EC018885811132C0EB80FC8087E5CE
:101FD000F81A24E12E9DC0012F9D900D1124DC01E3
:101FE000AF5FBE4F1496ED91FC911597309731F08D
:101FF00052966D917C91895F9E4F099584E18E9DEB
:1020000080018F9D100D11240F5F1E4FF8018781F5
:102010000E94D41BF80180850E94E71B0E94981B38
:1020200018821F8219861092C3011092C201DF919B
:10203000CF911F910F91FF90EF900895DF92EF9253
:10204000FF920F931F93CF93DF937C01FB0182815B
:10205000882391F0809151018F3F71F0C1E0D1E070
:1020600010E000E0DD24D39480915101082E000C93
:10207000990B8017910744F4DF91CF911F910F9135
:10208000FF90EF90DF9008958E818823B9F08985C5
:102090009A858E159F0539F48091C2019091C301F4
:1020A0008E159F0559F0DD868F85811103C0CE0105
:1020B0000E94C00FCE0106960E94DB0F0F5F1F4FDC
:1020C0006496D2CFEF92FF920F931F93CF93DF933B
:1020D0007C0197558F3F910509F0D8F5209151016A
:1020E000022E000C330B2817390714F4809351018A
:1020F000FB01228134E1389F8001399F100D1124AA
:10210000E801CF5FDE4F2E8792818E81992349F1BE
:10211000FA86E9868F5F8E830E94FE1C9C878B87E0
:102120000E94071C8F830E94CB1B88870E94DE1BA6
:102130009885892B8887E881F981309731F06A8901
:102140007B89C801895F9E4F0995F092C301E09297
:10215000C20181E0DF91CF911F910F91FF90EF902D
:1021600008958823B1F38F85882399F3C801895F87
:102170009E4F0E94DB0FEDCFEF92FF920F931F93C4
:10218000CF93DF938091510110E004E18F3FC1F5BF
:10219000DF91CF911F910F91FF90EF900895029FD3
:1021A000F001039FF00D1124EF5FFE4FE088F188EE
:1021B000E114F10419F486E9E82EF12C029FE00104
:1021C000039FD00D1124CF5FDE4F8E818823B9F09D
:1021D0008B859C850E940A1DE816F90680F4109FE5
:1021E000700111248F85811105C0C7018F5F9E4F3B
:1021F0000E94C00FC701895F9E4F0E94DB0F1F5FC7
:10220000212F30E080915101082E000C990B82178C
:1022100093072CF6BDCF9093C9018093C801089510
:10222000E091C801F091C901309721F00190F0814F
:10223000E02D099480E00895E091C801F091C90172
:10224000309721F00280F381E02D09940895E09108
:10225000C801F091C901309721F00480F581E02D8B
:10226000099408952091C6013091C70128173907B4
:1022700071F09093C7018093C601E091C801F0917D
:10228000C901309721F00680F781E02D0994089567
:102290002091C4013091C5012817390771F090933E
:1022A000C5018093C401E091C801F091C901309744
:1022B00021F00084F185E02D099408950C947E08A6
:1022C00081E008950E94F51C0E94D4060C94691DBB
:1022D000BF92CF92DF92EF92FF920F931F93CF9313
:1022E000DF93CDB7DEB72A970FB6F894DEBF0FBEE7
:1022F000CDBF0E940E080E946011882309F471C0AE
:102300008BECC82E81E0D82E10E000E0B02E802F9C
:102310000E944E08E82EF601F1906F01F81609F4BC
:102320005AC08091220281FD0E94540890E080E012
:10233000FE242F2D30E0482FB901082E02C07595DC
:1023400067950A94E2F760FF41C08E83BF8281E007
:1023500090E06C0102C0CC0CDD1C4A95E2F72E2DFA
:1023600030E02C213D21232B09F480E088870E9456
:10237000FE1C8160782F9A8789874E815F816885EE
:102380008A850E941212F801E553FE4F80818C2548
:1023900080830E94F71E0E9410119091CA01891734
:1023A00089F10E9410118093CA012A960FB6F89401
:1023B000DEBF0FBECDBFDF91CF911F910F91FF9078
:1023C000EF90DF90CF90BF900C94130D0196863064
:1023D000910509F0B0CF0F5F1F4F0A30110509F0CA
:1023E00095CF8FEF89838A831B820E94FE1C8160B8
:1023F000782F9D838C8349815A816B818D810E94C6
:102400001212C7CF2A960FB6F894DEBF0FBECDBF0B
:10241000DF91CF911F910F91FF90EF90DF90CF90C0
:10242000BF900895CF93DF93CDB7DEB72B970FB64C
:10243000F894DEBF0FBECDBF4F83588769877A8778
:102440008B871E821D8285E0FE013796DE01119684
:1024500001900D928A95E1F749815A816B817C81C7
:102460008D819E812B960FB6F894DEBF0FBECDBF37
:10247000DF91CF910C94E718FC01808191810C943D
:10248000471BCF93C82F882309F4D4C08238C1F4E6
:102490000E94101181FDCEC089E30E94541B0E944E
:1024A000981B2FEF81EE94E0215080409040E1F79F
:1024B00000C0000089E30E945B1BCF910C94981B25
:1024C0008338A1F40E94101180FDB4C083E50E94FE
:1024D000541B0E94981B2FEF81EE94E02150804006
:1024E0009040E1F700C0000083E5E5CF8438A1F417
:1024F0000E94101182FD9EC087E40E94541B0E941E
:10250000981B2FEF81EE94E0215080409040E1F73E
:1025100000C0000087E4CFCF8CEF8C0F813A48F4E5
:102520008C2F0E94F920811185C08C2F0E94541B92
:10253000C4CF80E28C0F883048F4C77081E001C0BE
:10254000880FCA95EAF70E94CE1BB7CF8BE58C0F98
:10255000833068F481E890E0C53A31F083E890E098
:10256000C63A11F482E890E0CF910C94321188E5DC
:102570008C0F853108F05EC082EE90E0C83A09F415
:1025800056C089EE90E0C93A09F451C08AEE90E055
:10259000CA3A09F44CC085EB90E0CB3A09F447C045
:1025A00086EB90E0CC3A09F442C083EB90E0CB3B61
:1025B000F1F184EB90E0CC3BD1F187EB90E0CD3AA8
:1025C000B1F18CEC90E0C03B91F18DEC90E0CE3A13
:1025D00071F183E891E0CF3A51F18AE891E0C13B93
:1025E00031F182E991E0C23B11F184E991E0C33B12
:1025F000F1F081E292E0C43BD1F083E292E0C53B8E
:10260000B1F084E292E0C63B91F085E292E0C73BF4
:1026100071F086E292E0C83B51F087E292E0C93B5C
:1026200031F090E080E0CA3B11F48AE292E0CF9171
:102630000C944811CF910895882309F44BC0823837
:1026400071F40E94101181FF45C089E30E94541B60
:102650000E94981B89E30E945B1B0C94981B833893
:1026600059F40E94101180FF35C083E50E94541B6D
:102670000E94981B83E5EFCF843859F40E94101113
:1026800082FF28C087E40E94541B0E94981B87E4A5
:10269000E2CF9CEF980F913AF0F290E2980F9830C9
:1026A00050F4877091E001C0990F8A95EAF7892F5D
:1026B0000E94D41BD2CF9BE5980F933020F490E07A
:1026C00080E00C943211885A853120F490E080E04B
:1026D0000C9448110895882321F00E94CE1B0C947D
:1026E000981B0895882321F00E94D41B0C94981BFA
:1026F00008958F929F92AF92BF92CF92DF92EF9206
:10270000FF920F931F93CF93DF937C01D62FC72F98
:10271000FC01058102950F70128111110E94EE1BC0
:102720000E94911BC82E882371F01123B1F080E222
:102730008D0F883090F082E00E947B1B0E94911BDD
:1027400091E0C82EC926DC2ED2949FE0D922ED2D2F
:10275000F0E0E75FF64D0C949428C12CF4CF0C2FD9
:102760000F70C07F11F00295007F1123A9F00023A4
:1027700059F080E28D0F883010F0D11109C0802F00
:102780000E94CE1B0E94981B8D2F0E94411214C0E4
:10279000802F0E94E11BF6CF8D2F0E941C13002377
:1027A00059F080E28D0F883010F0D11133C0802FA6
:1027B0000E94D41B0E94981B98E0D91639F0D916B4
:1027C00048F086E08D0D8F70823020F40E94101149
:1027D0000E94130DCC2009F4D9C10E946E1B80FD0C
:1027E000D5C1F70112820E94681B0E94691AC701B5
:1027F0000E94D3150E94681BDF91CF911F910F910A
:10280000FF90EF90DF90CF90BF90AF909F908F9010
:102810000C948A1A802F0E94E71BCCCFFC2FFF70EC
:10282000BF2EC07FC03219F0B29480EFB822DD23F2
:1028300069F0D13049F1112391F1002351F1F701F1
:10284000858180FFA1CF8F70858323C0112381F004
:10285000011106C00E94071C8B290E946B13ACCF8C
:102860000130C1F70E94071C8B290E94011CA4CFD4
:10287000011106C00E94041C8B2D0E9472139CCF74
:10288000013009F499CFF6CF112329F0063008F072
:1028900093CF8B2DE2CF053008F08ECFEDCF002304
:1028A00059F38D2F0E941C1387CF8C2F8695869508
:1028B000837069F0813009F07FCF8D2F9C2F93704A
:1028C000111102C090E080E00E94481175CF8D2F59
:1028D0009C2F9370111102C090E080E00E94321191
:1028E0006BCF112309F1D53F99F0D63FB9F0D43F12
:1028F00049F480913A0290913B02816090933B02AF
:1029000080933A028D2F0E94051E0E94EC1E54CF28
:1029100080913A0290913B028260F0CF80913A021E
:1029200090913B028460EACFD53F89F0D63FA9F071
:10293000D43F49F480913A0290913B028E7F90936C
:102940003B0280933A028D2F0E946D1EDECF809154
:102950003A0290913B028D7FF2CF80913A029091A2
:102960003B028B7FECCF8C2F837009F047C0111195
:1029700023CF2D2F229526952770220F220F6D2F02
:102980006F70862E912CB12CA12C022E04C0880CC5
:10299000991CAA1CBB1C0A94D2F760E070E0CB0122
:1029A000D4FF0FC06FE070E080E090E004C0660FDD
:1029B000771F881F991F2A95D2F76095709580958B
:1029C0009095C695C695C370C23051F080F46829C1
:1029D00079298A299B29C13071F00E941B1AECCEFB
:1029E000682979298A299B290E942D1AE5CE0E94FF
:1029F0001B1AC501B4010E94091ADECE8695112367
:102A000011F08C2F8170882309F4D6CE2D2F2295BA
:102A100026952770220F220F6D2F6F70862E912C16
:102A2000B12CA12C022E04C0880C991CAA1CBB1C22
:102A30000A94D2F760E070E0CB01D4FF0FC06FE0E2
:102A400070E080E090E004C0660F771F881F991F38
:102A50002A95D2F76095709580959095C695C69504
:102A6000C370C23051F080F4682979298A299B29E2
:102A7000C13071F00E94E01A9FCE682979298A2915
:102A80009B290E94F21A98CE0E94E01AC501B40157
:102A90000E94CE1A91CEE0E2ED0FE53108F04DC074
:102AA000F0E0E75EF64D0C949428DF708C2F8F7168
:102AB000112321F00E94691A8D2FCFCE0E948A1A0D
:102AC0008D2FDBCE112341F0053008F075CE8C2F11
:102AD0008F710E94AD1A70CE063008F06DCEF7CF20
:102AE0008C2F8F71112339F00E94691A65CE8C2FBB
:102AF0008F711123C9F30E948A1A5ECE112329F027
:102B00008C2F8F710E94541A57CE0E944F1A54CEA8
:102B1000112349F0CF718C2F0E94691A63E08C2F2A
:102B20000E94721B49CE81E00E947B1B023008F498
:102B300043CE82E00E947B1B3FCE112329F001117E
:102B400023CE8C2F8F71D0CF002369F0D93309F0B9
:102B5000A8CEFFEF27EE83E0F15020408040E1F760
:102B600000C000009ECE8C2F8F71C5CF4C2F4F70B0
:102B70006D2FC7010E94DD090E9481191DCE4C2FC7
:102B80004F706D2FC7010E94150D16CEDF91CF91AA
:102B90001F910F91FF90EF90DF90CF90BF90AF907B
:102BA0009F908F9008950F931F93CF93DF93EC0125
:102BB0008B819C81892B29F08881998189238F3F82
:102BC00029F4DF91CF911F910F910895CE010E94BA
:102BD000D60A8823B1F3688179818A810E94511BCA
:102BE0008C010E94041B0E94061AB801CE01DF91DD
:102BF000CF911F910F910C9479130E94EE1B0E94AC
:102C0000FE1B0E94621B0E94981B0E94811F0E9453
:102C1000EC1E90E080E00E94321190E080E00C9485
:102C200048110E94DB1B0C94FD150E94471BE92FE5
:102C3000E295EF70E250EE3070F4F0E0E25DF64DB8
:102C40000C949428803F19F020F4803E20F481E019
:102C50000895843FE1F380E00895803EC0F3813F12
:102C6000D1F7F5CF93FB882780F90895CF93DF93B1
:102C700000D000D00F92CDB7DEB70F900F900F901D
:102C80000F900F90DF91CF910895CF93DF9300D0F5
:102C900000D000D0CDB7DEB726960FB6F894DEBFD1
:102CA0000FBECDBFDF91CF9108951F93CF93DF93D8
:102CB000C091D50116E08091D6018C1304C0DF913C
:102CC000CF911F910895D0E01C9FF0011D9FF00D42
:102CD0001124E952FE4F40815181628173818481C8
:102CE00095810E9445162196C770E5CF4091070255
:102CF000509108026091090270910A0280910B02C2
:102D000090910C020C9445162091D5019091D6011A
:102D100056E0291302C080E0089530E0529FF00190
:102D2000539FF00D1124E952FE4F7181761306C0B6
:102D30007081781303C07281741304C02F5F3F4FFA
:102D40002770E7CF81E008951F93CF93DF938091A1
:102D50000C02807FC1F4809109028823A1F0809148
:102D6000D501C091D601609107027091080240918F
:102D70000A0250910B02D62FD723DA01A095B09505
:102D800016E0C81304C0DF91CF911F91089590E021
:102D90004115510511F0DF3F31F401968770F1CFF5
:102DA0002A0F3B1F17C0189FF001199FF00D112427
:102DB000E952FE4F21812713F0CF20812613EDCF5A
:102DC00022812111EACF238134812417350740F372
:102DD000241B350B2639310500F720910C022F708A
:102DE000206120930C0226E0289FF001299FF00D1E
:102DF0001124E452FE4F80818F708061808387E0D0
:102E000092E00E94D315DF91CF911F910C9455163B
:102E10009F92AF92BF92CF92DF92EF92FF920F9369
:102E20001F93CF93DF93CDB7DEB761970FB6F894BA
:102E3000DEBF0FBECDBF8C0185E0F801DE011D961F
:102E400001900D928A95E1F7D801DC901196EC90F3
:102E500011971296CC90129780910A0290910B02D2
:102E6000009709F492C12091070230910802422F85
:102E700043234F3F09F489C11396AD90BC909090C5
:102E80000902992009F422C1A816B906E0F1F5015A
:102E9000E81BF90BCF01FF24F3948639910508F064
:102EA000F12C80910C02982F907FFF2009F4C7C06D
:102EB00091118EC0FC2C3E112BC02D1129C0C110C8
:102EC00027C08F70806180930C020E94761687E085
:102ED00092E00E94D31580910C02D80115968C9334
:102EE0008F2D61960FB6F894DEBF0FBECDBFDF9178
:102EF000CF911F910F91FF90EF90DF90CF90BF90F7
:102F0000AF909F900895809590958A0D9B1DC3CF9B
:102F1000A114B10429F08E2D8D218F3F09F054C1E9
:102F200080E080FF16C04C2D6E2D8D2D0E948416E2
:102F3000882379F087E092E00E94D31586E0E7E0ED
:102F4000F2E0DF011D928A95E9F70E947616F12CD6
:102F5000C7CFAB2829F08E2D8D218F3F09F031C1CD
:102F600080E0B82FB170AB2E80FF29C04C2D6E2DA4
:102F70008D2D0E948416B82E811121C0DD86EE862B
:102F80008D859E850E94471B292F22952F70223008
:102F900050F0243078F49F7051F0F8019581907FC3
:102FA00031F4FB2C9DCF9F7011F08823D1F3805E0C
:102FB0008830B8F3C8010E94D315BA2CF2CFCC20C8
:102FC00009F48ECF80910C02816080930C02BFCFF8
:102FD0003E1106C02D1104C0D801CC2009F49CC0BC
:102FE000DD86EE868D859E850E941516882319F153
:102FF000CC2009F180910C02803270F02091070200
:103000003091080238872F831986BB86AA868C8761
:10301000CE0107960E94D31586E0F801A7E0B2E042
:1030200001900D928A95E1F70E94A4160E947616EF
:10303000FF24F39455CFC8010E94D315F9CF911105
:1030400015C07A2DB98AA88A4D2D5E2D6C2D8989DF
:103050000E94361687E092E00E94D31586E0E7E0F2
:10306000F2E0DF011D928A95E9F763C03E1112C0BC
:103070002D1110C0C1100EC0F8018583C8010E9437
:10308000D315E7E0F2E086E0DF011D928A95E9F7CB
:10309000F92C26CFDD86EE868D859E850E9415163D
:1030A000882349F2CC2039F280910C02803208F456
:1030B000B3CF20910702309108023A8329831B8203
:1030C000BD82AC828E83CE010196A4CFA816B9062C
:1030D00098F1F501E81BF90BCF01F12C8639910528
:1030E00008F049C0FC2CCC2009F4A5CF3E1132C019
:1030F0002D1130C080910C0280FD23C0982F907F4D
:1031000001F1D80115968C931597903F39F0982FBF
:10311000907F905F8F70892B15968C93C8010E94C9
:10312000D31586E0F801A7E0B2E001900D928A95F0
:10313000E1F70E947616D4CE809590958A0D9B1D5E
:10314000CCCF86E0F801A7E0B2E001900D928A951D
:10315000E1F7C6CEDD86EE868D859E850E9415162A
:1031600081115ACF80910C02816080930C02C801BA
:103170000E94D315B5CE7A2DB98AA88A4D2D5E2D21
:103180006C2D89890E94361669CFCC2009F453CF63
:10319000DD86EE868D859E850E941516F82E882385
:1031A00009F449CF86E0F801A7E0B2E001900D9262
:1031B0008A95E1F787E092E00E943C120E94A416F3
:1031C000B8CF81E08C25CDCE81E08C25AACE1F938F
:1031D000CF93DF93CDB7DEB72C970FB6F894DEBF51
:1031E0000FBECDBF4F83588769877A878B879C87AF
:1031F000CE0107960E940817882369F08A859B856F
:10320000892B39F04F815885842F85238F3F09F012
:1032100071C016E05FC086E0FE013796DE011196B0
:1032200001900D928A95E1F78A859B85892B89F318
:1032300088859F8189238F3F61F32091D60130E0FB
:10324000C9010196877099274091D5014817190641
:1032500071F40E9411161092D6011092D50186E0E9
:10326000E7E0F2E0DF011D928A95E9F7D2CF96E020
:10327000929FD001939FB00D1124A952BE4FFE0121
:10328000319601900D929A95E1F78093D6010E94B4
:103290005516BFCF819FC001112489529E4F0E94B5
:1032A00008178823E9F0E091D5011E9FF001112451
:1032B000E952FE4F40815181628173818481958101
:1032C0000E9445168091D50190E00196877099275C
:1032D0008093D5018091D5019091D6018913DACFE1
:1032E0002C960FB6F894DEBF0FBECDBFDF91CF9105
:1032F0001F91089569857A858B859C850E94451666
:1033000088CFEF92FF920F931F93CF93DF938C019F
:10331000892B81F0F12CEE24E394E8012196F80149
:103320008491843770F4843008F05FC08130B1F04C
:103330008230A1F1DF91CF911F910F91FF90EF901B
:103340000895853709F44CC008F43DC09CE7980FF8
:10335000903780F78F770E941C1349C00E5F1F4F74
:10336000FE01849190E2980F983060F48770FE2DF2
:1033700001C0FF0F8A95EAF78F2F0E94F11B0E9470
:10338000981B02C00E9441128F2D815030F2EFE94C
:10339000FFE03197F1F700C00000F7CF0E5F1F4F3D
:1033A000FE01849190E2980F983050F48770FE2DC2
:1033B00001C0FF0F8A95EAF78F2F0E94F71BDFCF1E
:1033C0000E941C13E1CF0E5F1F4FFE01C491C1503C
:1033D000D8F28FE99FE00197F1F700C00000F7CF26
:1033E0000E5F1F4FFE01F490CFCF0E9441128E015D
:1033F000CBCF08950E94F9196093110270931202C5
:1034000080931302909314020C94FD1508950C946C
:10341000FA190F931F93009111021091120220913B
:10342000130230911402602B712B822B932B1F916E
:103430000F910C94FA190F931F93009111021091A0
:10344000120220911302309114026023712382230F
:1034500093231F910F910C94FA190F931F930091CE
:103460001102109112022091130230911402602770
:103470007127822793271F910F910C94FA190C94AE
:10348000F9190C943F1A0E94411A60930D0270932F
:103490000E0280930F02909310020C94FD1560E0D1
:1034A00070E0CB010C94431A0F931F9341E050E05E
:1034B00060E070E08A019B0104C0000F111F221F11
:1034C000331F8A95D2F7C901B8011F910F910C944F
:1034D000431A0F931F9341E050E060E070E004C096
:1034E000440F551F661F771F8A95D2F780910D02F2
:1034F00090910E02A0910F02B09110028A019B01DF
:10350000082B192B2A2B3B2BC901B8011F910F91B6
:103510000C94431A0F931F9341E050E060E070E079
:1035200004C0440F551F661F771F8A95D2F7CB0141
:10353000BA01609570958095909500910D0210915B
:103540000E0220910F02309110026023712382231A
:1035500093231F910F910C94431A0F931F9341E0F3
:1035600050E060E070E004C0440F551F661F771FF5
:103570008A95D2F780910D0290910E02A0910F02D0
:10358000B09110028A019B01082719272A273B279F
:10359000C901B8011F910F910C94431A0F931F9307
:1035A00000910D0210910E0220910F023091100235
:1035B000602B712B822B932B1F910F910C94431A2C
:1035C0000F931F9300910D0210910E0220910F0294
:1035D0003091100260237123822393231F910F9156
:1035E0000C94431A0F931F9300910D0210910E0239
:1035F00020910F02309110026027712782279327B4
:103600001F910F910C94431A0895BF92CF92DF92AD
:10361000EF92FF920F931F93CF93DF938C01C09093
:103620000D02D0900E02E0900F02F09010028091F7
:10363000110290911202A0911302B0911402C82AB3
:10364000D92AEA2AFB2ACFE1D0E0BC2ED701C60155
:103650000C2E04C0B695A795979587950A94D2F736
:1036600080FD0EC0219788F7B12C8B2DDF91CF9173
:103670001F910F91FF90EF90DF90CF90BF90089532
:10368000B8018C2F0E94320D019761F3EECFCF93DA
:10369000DF93EC010E94051BBE01DF91CF910C94DA
:1036A000320DCB010C94471B682F809152019091F1
:1036B00053010C94791C682F809152019091530111
:1036C0000C947B1C80915201909153010C947D1CB1
:1036D00080911502859585958595089580911502AF
:1036E0008770089598E0899F90011124622B609360
:1036F00015020C94691A9091150280958923809384
:103700001502282F277061F4282F082E000C330B88
:103710009217130629F08595859585950C948A1A3C
:10372000089590911502977081E009F480E0089562
:10373000E0915201F0915301809121028083E09148
:103740005201F0915301808190912002892B808356
:10375000E0915201F0915301808190911F02892BD9
:10376000808390911602992381F0E0915201F091AB
:1037700053018081892B8083809152019091530164
:103780000E94451C81111092160280915201909165
:1037900053010C941C1180912102089590912102F3
:1037A000892B80932102089580959091210298237E
:1037B0009093210208951092210208958091200291
:1037C000089590912002892B80932002089580957E
:1037D0009091200298239093200208951092200245
:1037E000089590911F02892B80931F020895809560
:1037F00090911F02982390931F02089510921F0228
:1038000008958093160208951092160208958091EB
:10381000160208956DEE7EEF90E080E00E94CE28C3
:1038200060E082E090E00E94BC2860E083E090E0ED
:103830000E94BC2860E084E090E00E94BC2860E028
:1038400085E090E00C94BC2890E080E00E94B628CF
:1038500021E08D3E9E4F09F020E0822F089582E006
:1038600090E00C94AE2883E090E00C94AE28682F92
:1038700083E090E00C94BC2884E090E00C94AE28A7
:10388000682F84E090E00C94BC28FC0131969C01E8
:10389000285F3F4F80E0919191118F5FE217F3070E
:1038A000D1F708959C01FC0132969FEF80E0419191
:1038B000461751F09F3F19F4411101C0982F8F5FB7
:1038C0008630A9F79F3F09F40895290F311D97FD10
:1038D0003A95F90162830895FC0132960896219188
:1038E000261303C0DF0111971C92E817F907B9F7F7
:1038F00008950C94521C0C946C1CFC0111821282D1
:1039000013821482158216821782089580914602CE
:10391000843039F11092230288E190E020E40FB660
:10392000F894A895809360000FBE2093600080E01B
:103930000E94130D83B7817F846083BF83B781604A
:1039400083BF7894889583B78E7F83BF0FB6F89432
:10395000A89580916000886180936000109260005B
:103960000FBE089508950895CF930E94B21C0E943F
:103970000E080E94B31CC0E08C2F0E944E088111DB
:1039800005C0CF5FCA30C1F7CF91089581E0FCCF69
:103990000E9411160E9410110C94130D1F921FB655
:1039A0001F9211248F939F93AF93BF938091230213
:1039B000811113C080913C0290913D02A0913E0282
:1039C000B0913F024196A11DB11D80933C0290939E
:1039D0003D02A0933E02B0933F02BF91AF919F91F1
:1039E0008F911F901FBE1F90189582E084BD93E0B9
:1039F00095BD9AEF97BD80936E0008952FB7F89408
:103A000080913C0290913D02A0913E02B0913F0214
:103A10002FBF0895CF92DF92EF92FF920F931F93E3
:103A20002FB7F89440913C0250913D0260913E02C4
:103A300070913F022FBF6A017B01EE24FF248C01AD
:103A400030E020E0C016D106E206F30650F0481B35
:103A5000590BCA011F910F91FF90EF90DF90CF900B
:103A6000089541505109F3CF78941F921FB61F92C9
:103A700011248F939F93AF93BF9380913C029091B9
:103A80003D02A0913E02B0913F020196A11DB11DE1
:103A900080933C0290933D02A0933E02B0933F027C
:103AA000BF91AF919F918F911F901FBE1F9018954E
:103AB00087E797E7909301088093000888E19AE0F0
:103AC0000FB6F894A895809360000FBE90936000A5
:103AD000FFCF0E94241C811102C00E940A1C0E9478
:103AE0002F1C809322020E943C1C90E09093410284
:103AF000809340020E94331C682F70E090E080E0C9
:103B00000C94071A8091260280FF12C06091570121
:103B100085E0689FB0011124759567957595679547
:103B200060387105A8F561157105A1F1862F08951A
:103B300081FF09C06091570185E0689FB0011124A1
:103B400075956795EDCF6091570182FD0AC0809110
:103B500027028823D1F0909156016091570189176F
:103B600028F085E0689FB0011124DACF869FB0016C
:103B7000112485E0869F9001879F300D1124692FC5
:103B800070E0C9010E948028CBCF65E070E0CECF05
:103B90008FE7089581E008958091260280FF0CC090
:103BA0006091550170E075956795759567956115FC
:103BB000710549F1862F089581FF06C06091550176
:103BC00070E075956795F3CF6091550182FD0BC04C
:103BD000909127029923A1F06091540180915501A1
:103BE000961738F0682F70E06038710500F38FE7A2
:103BF0000895899FC001112470E00E948028F4CFAD
:103C000061E070E0D7CF81E00895803F31F40E94F9
:103C1000821D819580932A020895813F19F40E94A4
:103C2000821DF8CF823F31F40E94821D81958093DE
:103C300029020895833F19F40E94821DF8CF893F1D
:103C400029F40E94CC1D80932B0208958A3F21F411
:103C50000E94CC1D8195F7CF8B3F31F40E94CC1D83
:103C6000819580932C0208958C3F19F40E94CC1DFD
:103C7000F8CF843F31F4809128028160809328023C
:103C80000895853F21F4809128028260F7CF863F16
:103C900021F4809128028460F1CF873F21F4809144
:103CA00028028860EBCF883F21F480912802806150
:103CB000E5CF8D3F31F4809126028160809326020A
:103CC00008958E3F21F4809126028260F7CF8F3FC6
:103CD000B9F7809126028460F1CF90912902803F4C
:103CE00041F480912A0287FD10922A02992371F0F3
:103CF0000895813F29F480912A021816ACF3F6CF7B
:103D0000823F81F497FFF2CF1092290280912A021C
:103D100090912B02892B90912C02892B49F71092BC
:103D200027020895833F19F4191674F3DFCF893FF2
:103D300039F480912B021816CCF610922B02D6CFB4
:103D40008A3F29F480912B0287FFD0CFF6CF8B3F9B
:103D500039F480912C0287FFC9CF10922C02C6CF74
:103D60008C3F29F480912C021816BCF3BFCF843FFE
:103D700031F4809128028E7F80932802B7CF853F4F
:103D800021F4809128028D7FF7CF863F21F4809126
:103D900028028B7FF1CF873F21F480912802877F13
:103DA000EBCF883F21F4809128028F7EE5CF8D3FB5
:103DB00031F4809126028E7F8093260297CF8E3F2A
:103DC00021F4809126028D7FF7CF8F3F09F08ECFAF
:103DD000809126028B7FF0CF88E292E00E9427112B
:103DE0000E94FE1C909325028093240208951F9345
:103DF000CF93DF9380912402909125020E940A1DA7
:103E0000AC01909127022091580130E0911106C039
:103E1000209159018AE0289F9001112442175307ED
:103E200078F020912902C0912A02D0912B021091A2
:103E30002C02211109C08C2F8D2B812B09F05DC024
:103E4000DF91CF911F9108959F3F19F09F5F90934D
:103E50002702121624F40E94821D80932902809169
:103E6000290287FF05C00E94821D81958093290247
:103E70001C1624F40E94821D80932A0280912A023B
:103E800087FF05C00E94821D819580932A02409180
:103E90002902442379F030912A02332359F025EB8B
:103EA0004203A001112450932902320390011124EE
:103EB00030932A021D1624F40E94CC1D80932B02FD
:103EC00080912B0287FF05C00E94CC1D81958093B5
:103ED0002B02111624F40E94CC1D80932C02809199
:103EE0002C0287FF05C00E94CC1D819580932C0277
:103EF000DF91CF911F910C94EC1E9F3F09F0A6CF4C
:103F0000B7CF85E0E8E2F2E0DF011D928A95E9F79C
:103F100010922702109226020895833081F128F42E
:103F2000813059F08230D1F00895853009F449C0CC
:103F3000B8F1863009F456C0089580915901482F90
:103F4000460F5527551F4F3F510524F4680F6093C6
:103F5000590108958FEF8093590108958091580178
:103F6000482F460F5527551F4F3F510524F4680F22
:103F70006093580108958FEF8093580108958091C0
:103F80005701482F460F5527551F4F3F510524F421
:103F9000680F6093570108958FEF8093570108953C
:103FA00080915601482F460F5527551F4F3F510509
:103FB00024F4680F6093560108958FEF80935601A3
:103FC000089580915501482F460F5527551F4F3FA3
:103FD000510524F4680F6093550108958FEF809385
:103FE0005501089580915401482F460F5527551FBC
:103FF0004F3F510524F4680F6093540108958FEFEB
:10400000809354010895833011F128F4813049F0F0
:10401000823091F00895853081F120F18630C1F130
:10402000089580915901681720F4861B80935901E7
:10403000089510925901089580915801681720F44D
:10404000861B80935801089510925801089580911D
:104050005701681720F4861B80935701089510922A
:104060005701089580915601681720F4861B8093AC
:1040700056010895109256010895809155016817D0
:1040800020F4861B809355010895109255010895E0
:1040900080915401681720F4861B80935401089581
:1040A0001092540108950F931F9341E050E060E097
:1040B00070E08A019B0104C0000F111F221F331FF3
:1040C0008A95D2F7C901B8010E94071A1F910F9172
:1040D0000C9411168732A8F58E3108F079C08E3015
:1040E00009F46BC058F4873009F459C08B3009F4D7
:1040F0004BC0863009F44AC080E00895863109F447
:1041000043C068F48031C1F790912202892F877FE4
:1041100093FF88608093220283FD0FC035C08931F0
:1041200099F18B3149F790912202892F8D7F91FF70
:1041300082608093220281FF27C0809122028160E9
:1041400039C0883309F150F4893221F0853311F0F8
:10415000873291F680E00E94532016C08334D1F359
:1041600020F48A3348F28953F6CF883429F60E9426
:1041700011162FEF83ED90E3215080409040E1F73E
:1041800000C000000E94581D81E008958091220225
:10419000807F8093220281E080932E020895909187
:1041A0002202892F8E7F90FF81608093220280FD02
:1041B000EBCF817F80932202E7CF90912202892F5B
:1041C0008B7F92FF84608093220282FDB6CFDCCF8A
:1041D0008D51C1CF80E008950C94EA208E518A3031
:1041E00030F4E82FF0E0EB58FE4F8081089580E036
:1041F0000895CF93C82F80912E028130D1F088236B
:1042000031F08230D1F110922E0280E010C0E091A6
:104210005201F091530180818232B9F78C2F0E94B4
:10422000EA2081111EC08C2F0E946A208170CF91DC
:104230000895E0915201F09153018081823271F32F
:104240008C2F0E94EC2081110AC0C43199F060F4D7
:10425000CB3029F0C03151F782E080932E0281E00B
:10426000E5CF81E090E0E2CFC93221F0C833B9F365
:1042700080E0DCCF10922E02FBCFC93219F188F416
:10428000C43101F120F4C73081F181E0D0CF82EE5A
:104290008C0F8630D0F78C2F0E94EE2080932D0259
:1042A000F4CFCE3401F140F46AE0CB3471F7809161
:1042B0002D020E948D1FE9CFC13579F061E0C23532
:1042C000B1F3E3CF80912D02882319F010922D02D3
:1042D000DCCF81E080932E02AACF61E080912D0295
:1042E0000E940320D2CF6AE0F9CF8EE1809359017A
:1042F00082E3809358018AE08093570184E18093A0
:10430000560188E08093550188E280935401BDCF27
:104310008091370208950F931F93CF93DF9300D0BE
:104320000F92CDB7DEB78C010E94D223823011F0FC
:10433000843019F583E089831B830A838093E90025
:104340008FEF9091E800815095FD06C095ED9A950C
:10435000F1F700008111F5CF8091E80085FF0DC0D5
:1043600050E040E063E070E0CE0101960E94EF2350
:104370008091E8008E778093E8000F900F900F9067
:10438000DF91CF911F910F910895CF93DF9300D0CC
:104390000F92CDB7DEB720914602243031F522E0EE
:1043A0002983805891099B838A8383E08093E90065
:1043B0008FEF9091E800815095FD06C095ED9A959C
:1043C000F1F700008111F5CF8091E80085FF0DC065
:1043D00050E040E063E070E0CE0101960E94EF23E0
:1043E0008091E8008E778093E8000F900F900F90F7
:1043F000DF91CF910895CF93DF93EC010E94D223F8
:10440000823011F08430F9F482E08093E9008FEF7C
:104410009091E800815095FD06C095ED9A95F1F7D1
:1044200000008111F5CF8091E80085FF0CC050E0BD
:1044300040E065E070E0CE010E94EF238091E8004B
:104440008E778093E800DF91CF910895CF93DF932B
:10445000EC010E94D223823011F0843039F581E0E2
:104460008093E9008FEF9091E800815095FD06C0A0
:1044700095ED9A95F1F700008111F5CF8091E80054
:1044800085FF14C050E040E068E070E0CE010E947B
:10449000EF238091E8008E778093E80088E0FE01AA
:1044A000AFE2B2E001900D928A95E1F7DF91CF91F2
:1044B000089580914502811109C00E947F250E94C4
:1044C000DC258091E20084608093E20008951092E0
:1044D00045020895089508950C94C81C42E061ECCB
:1044E00081E00E94FB2442E061EC82E00E94FB2418
:1044F00042E061EC83E00C94FB248091480283301D
:1045000009F452C030F4813059F1823009F48EC080
:1045100008958A3009F47AC08B3009F460C089307C
:1045200009F041C0809147028132E9F580914B0248
:1045300090914C02892BB9F58091E800877F809398
:10454000E8008091E80082FF2AC08091F10080930A
:1045500037028091E8008B778093E8000C942F2538
:1045600080914702813AF9F48091E800877F809337
:10457000E80080914B0290914C02892B61F468E035
:104580008FE292E070E00E943E248091E8008B77F9
:104590008093E800089560E090E080E0F3CF8091A0
:1045A00046028111CECF089580914702813AD9F712
:1045B00080914B0290914C02892BA9F78091E800E1
:1045C000877F8093E8008091E80080FFFCCF809196
:1045D00064018093F1008091E8008E77BDCF8091D7
:1045E0004702813201F780914B0290914C02892B56
:1045F000D1F68091E800877F8093E8000E942F2504
:1046000080914902809364010C94111680914702B5
:10461000813249F68091E800877F8093E8000E940C
:104620002F2580914A028093380208958091470295
:10463000813A09F0B8CF8091E800877F8093E80045
:104640008091E80080FFFCCF80913802C2CF84B710
:10465000877F84BF0FB6F894A89580916000886129
:1046600080936000109260000FBE80E8809361002C
:10467000109261000E945E110E947F250E94DC253D
:104680008091E20084608093E20078940E94652823
:104690000E9462118AE591E00E940B11809146020E
:1046A000853019F00E946811F9CF0E94861C809114
:1046B0004402882399F30E94B41C882379F30E9452
:1046C000D923ECCF0C946423292F332723303105D1
:1046D00021F168F42130310509F449C02230310557
:1046E00009F44AC090E080E030E020E029C02132A7
:1046F000310581F122323105A9F76330710590F758
:10470000FB01EE0FFF1FEE57FE4F208131816158F4
:104710007E4FFB01808190E013C099278130910585
:1047200099F0009741F08230910589F00397D1F616
:10473000E3EBFBE002C0E5EEFBE0849190E09F013B
:10474000FA01318320830895EDECFBE0F6CFE9EB2D
:10475000FBE0F3CF6330710528F6660F771FFB018E
:10476000E857FE4F2081318189E090E0E9CF82E176
:1047700090E02DE33CE0E4CF84E590E029EE3BE0DF
:10478000DFCF0895CF93C82F0E94C123C093390271
:10479000CF91089580914602843011F482E008950B
:1047A00081E0089580913902811102C00C94CA23DE
:1047B000089580E189BD82E189BD09B400FEFDCF85
:1047C0008091D8008F7D8093D8008091E000826036
:1047D0008093E0008091E00081FDFCCF0895AF92CE
:1047E000BF92CF92DF92FF920F931F93CF93DF93ED
:1047F0006C01EB018A010E944E25F82E811123C025
:104800000115110539F0F80180819181C81BD90B80
:10481000C80ED91EB12CA12C2097A9F08091E800D8
:1048200085FD22C08091E8008E778093E800011515
:104830001105A1F0F80180819181A80EB91EB18205
:10484000A08285E0F82E8F2DDF91CF911F910F91DF
:10485000FF90DF90CF90BF90AF9008950E944E25BB
:104860008823D1F2F82EEFCFF60181916F0180936A
:10487000F1002197FFEFAF1ABF0ACECFFC01809164
:104880004D0290914E0286179707A0F061157105B1
:1048900029F49091E8009E779093E80090E06115EC
:1048A000710551F4911108C08091E80082FF34C075
:1048B00080E00895BC01F2CF809146028823C1F1C7
:1048C0008530C1F18091E80083FD30C08091E8001F
:1048D00082FDEACF8091E80080FFE1CF8091F30074
:1048E0002091F200382F6115710519F0283031053B
:1048F00058F091E02830310509F090E02091E8006F
:104900002E772093E800CBCF81918093F100615006
:1049100071092F5F3F4FE7CF80914602882341F016
:10492000853041F08091E80083FFBECF81E008959B
:1049300082E0089583E00895FC0180914D029091FA
:104940004E0286179707A0F06115710529F4809132
:10495000E8008E778093E80090E06115710551F4CE
:10496000911108C08091E80082FF35C080E0089571
:10497000BC01F2CF809146028823C9F18530C9F18C
:104980008091E80083FD31C08091E80082FDEACF8C
:104990008091E80080FFE1CF8091F3002091F20048
:1049A000382F6115710519F02830310558F091E064
:1049B0002830310509F090E08091E8008E778093EF
:1049C000E800CBCF84918093F1003196615071095A
:1049D0002F5F3F4FE6CF80914602882341F085301C
:1049E00041F08091E80083FFBDCF81E0089582E02F
:1049F000089583E00895982F973028F08F70809362
:104A0000E90081E008959093E900242F762F50E08B
:104A1000981731F07091EC002091ED005091F0006A
:104A200021FD02C09F5FE8CF3091EB003E7F3093C5
:104A3000EB003091ED003D7F3093ED003091EB00C5
:104A400031603093EB007093EC002093ED005093B5
:104A5000F0002091EE0027FDE5CF80E008958091E1
:104A6000470287FF13C08091E80082FF06C0809153
:104A7000E8008B778093E80004C0809146028111A2
:104A8000F2CF0895809146028823D9F38091E800FF
:104A900080FFF8CF8091E8008E77ECCF2091E40082
:104AA0003091E50095E6A9012091EC00822F8170FC
:104AB00020FF06C08091E80080FF06C080E00895D6
:104AC0002091E80022FD1AC080914602882389F0D7
:104AD000853089F08091EB0085FD0FC02091E400C6
:104AE0003091E50042175307F9F29150E1F684E066
:104AF000089582E0089583E0089581E008950E947A
:104B0000ED250E94F525E0EEF0E080818160808354
:104B1000E8EDF0E080818F77808319BCA7EDB0E0ED
:104B20008C918E7F8C9380818F7E80831092450242
:104B300008950F931F93CF93DF930E94ED250E945A
:104B4000F525C8EDD0E088818F77888388818068DB
:104B5000888388818F7D888319BC109246021092C9
:104B60004202109244021092430200EE10E0F8015B
:104B700080818B7F808388818160888342E060E0D0
:104B800080E00E94FB24E1EEF0E080818E7F808354
:104B9000E2EEF0E0808181608083808188608083A4
:104BA000F80180818E7F8083888180618883DF9196
:104BB000CF911F910F910895E8EDF0E080818F7EF5
:104BC0008083E7EDF0E080818160808384E082BFB4
:104BD00081E0809345020C949925E8EDF0E0808116
:104BE0008E7F80831092E20008951092DA00109276
:104BF000E10008951F920F920FB60F9211242F9388
:104C00003F934F935F936F937F938F939F93AF9354
:104C1000BF93EF93FF938091E10082FF0BC08091DF
:104C2000E20082FF07C08091E1008B7F8093E1006A
:104C30000E9464288091DA0080FF19C08091D8001A
:104C400080FF15C08091DA008E7F8093DA0080911A
:104C5000D90080FF96C080E189BD82E189BD09B499
:104C600000FEFDCF81E0809346020E945922809190
:104C7000E10080FF19C08091E20080FF15C08091A3
:104C8000E2008E7F8093E2008091E2008061809359
:104C9000E2008091D80080628093D80019BC85E042
:104CA000809346020E946B228091E10084FF2BC01A
:104CB0008091E20084FF27C080E189BD82E189BD47
:104CC00089B5982F917080FFFBCF8091D8008F7DA0
:104CD0008093D8008091E1008F7E8093E1008091E5
:104CE000E2008F7E8093E2008091E20081608093F9
:104CF000E20080914202882309F449C084E0809355
:104D000046020E946C228091E10083FF29C08091BD
:104D1000E20083FF25C08091E100877F8093E1005E
:104D200082E080934602109242028091E1008E7FE1
:104D30008093E1008091E2008E7F8093E200809179
:104D4000E20080618093E20042E060E080E00E9447
:104D5000FB248091F00088608093F0000E946A221A
:104D6000FF91EF91BF91AF919F918F917F916F9143
:104D70005F914F913F912F910F900FBE0F901F9019
:104D8000189519BC109246020E94672270CF80913C
:104D9000E30087FD93E090934602B3CF1F920F92FA
:104DA0000FB60F9211242F933F934F935F936F93FE
:104DB0007F938F939F93AF93BF93CF93DF93EF93A3
:104DC000FF93D091E900DF708091EC00C82FC17093
:104DD00080FDC0E81092E9008091F000877F809309
:104DE000F00078940E9412271092E9008091F00060
:104DF00088608093F000CD2BCF70C093E900FF91C5
:104E0000EF91DF91CF91BF91AF919F918F917F9162
:104E10006F915F914F913F912F910F900FBE0F9027
:104E20001F9018951F93CF93DF93CDB7DEB7AA9746
:104E30000FB6F894DEBF0FBECDBF87E492E020919D
:104E4000F100FC012193CF01F2E08F349F07B9F705
:104E50000E947D228091E80083FF1EC1809147025D
:104E6000909148029A3008F017C1E92FF0E0E45C15
:104E7000F64D0C949428803899F0823809F00CC1D2
:104E800080914B028F70873008F006C18093E90053
:104E90008091EB0085FB882780F91092E90006C01D
:104EA0008091430290914402911182609091E800B8
:104EB000977F9093E8008093F1001092F100809129
:104EC000E8008E77E5C0882309F4D3C0823009F06A
:104ED000E3C0809149028111D6C080914B028F704E
:104EE0002FEF280F263008F0D7C08093E9002091DB
:104EF000EB0020FFC8C0933031F48091EB0080625A
:104F00008093EB00C0C09091EB0090619093EB0018
:104F100021E030E001C0220F8A95EAF72093EA00F1
:104F20001092EA008091EB008860EACF8111B4C052
:104F3000109149021F778091E3008078812B809344
:104F4000E3008091E800877F8093E8000E942F258E
:104F50008091E80080FFFCCF8091E300806880931F
:104F6000E30082E0111183E08093460295C08058EF
:104F7000823008F091C08091490290914A028C3DA4
:104F800023E09207A1F583E08A838AE289834FB701
:104F9000F894DE01139620E03EE051E2E32FF0E0CA
:104FA00050935700E49120FF03C0E295EF703F5FFC
:104FB000EF708E2F90E0EA30C0F0C7968D939D93EE
:104FC0002F5F243159F74FBF8091E800877F80938E
:104FD000E8006AE270E0CE0101960E943E248091D2
:104FE000E8008B778093E80057C0C096E7CF6091C8
:104FF0004B0270914C02AE014F5F5F4F0E946223E3
:10500000BC01892B09F448C09091E800977F9093E8
:10501000E80089819A810E949C24E1CF8038E1F5E3
:105020008091E800877F8093E8008091420280931E
:10503000F10045CF811130C090914902923060F566
:105040008091E800877F8093E800909342020E945D
:105050002F2580914202882311F084E005C08091C1
:10506000E30087FDFACF81E0809346020E946E2222
:1050700013C080914902813079F481E0933009F0C6
:1050800080E0809344021092E9008091E800877FDD
:105090008093E8000E942F258091E80083FF0AC0DA
:1050A0008091E800877F8093E8008091EB00806228
:1050B0008093EB00AA960FB6F894DEBF0FBECDBF6B
:1050C000DF91CF911F9108950895CF93809146026B
:1050D0008823A1F0C091E900CF709091EC00892F56
:1050E000817090FD80E8C82B1092E9008091E80063
:1050F00083FD0E941227CF70C093E900CF910895DD
:1051000097FB072E16F4009407D077FD09D00E9474
:105110009A2807FC05D03EF4909581959F4F0895FD
:10512000709561957F4F0895EE0FFF1F0590F491E4
:10513000E02D0994AA1BBB1B51E107C0AA1FBB1F8E
:10514000A617B70710F0A61BB70B881F991F5A9513
:10515000A9F780959095BC01CD010895F999FECFEE
:1051600092BD81BDF89A992780B50895A8E1B0E075
:1051700042E050E00C94D628262FF999FECF92BD3C
:1051800081BDF89A019700B4021639F01FBA20BD0C
:105190000FB6F894FA9AF99A0FBE08950196272F40
:1051A0000E94BD280C94BC28DC01CB01FC01F999BC
:1051B000FECF06C0F2BDE1BDF89A319600B40D9263
:1051C00041505040B8F70895F894FFCFE609EB0935
:1051D000F709FF09070A0C0A250AF409F409F4097A
:1051E0002A0A320A3A0A3F0A440A490A510A7F0B3C
:1051F0008B0B8F0B930B970B9B0B9F0BA30BA70B8F
:10520000AB0BAF0BB30BB70BBB0BBF0BC30BC70B7E
:10521000CB0BAF13AF130E140E1455147114DC1313
:10522000DC13B314DC134B154B15B615DC13DC1370
:10523000BF155515551555155515551555155515B4
:10524000551555155515551555155515551555150E
:1052500055156215701577157E15881522162216BC
:105260002B162B162D162B162B162B162216221646
:1052700032162B162B1632163B2763274C28632732
:0C5280004C289627B7274C280E281A2827
:10528C000100009409000000000000000000000074
:10529C0000000000000000A4090000000000000055
:1052AC000000000000000000000000C20900000027
:1052BC00000000000000000000000000000000B42E
:1052CC0009000000000000000000000000000000C9
:1052DC0000FF17022808140A321E88212622FB21FF
:1052EC00C5218B21013534C697669436323331F79C
:1052FC000000000000010203040506070809004035
:0E530C004D36D20C850C4F0CFB0B140C2D0CE7
:00000001FF
