:100000000C94FD060C9450090C9441070C94410784
:100010000C9441070C9441070C9441070C94410740
:100020000C9441070C9441070C9453270C942528F9
:100030000C94091E0C9441070C9441070C94410741
:100040000C9441070C9441070C9441070C94410710
:100050000C9441070C94701E0C9441070C944107BA
:100060000C9441070C9441070C9441070C944107F0
:100070000C9441070C9441070C9441070C944107E0
:100080000C9441070C9441070C9441070C944107D0
:100090000C9441070C9441070C9441070C944107C0
:1000A0000C9441070C9441070C944107740A790A97
:1000B0007E0A860A8E0A930AAE0AF30AF30AF30A44
:1000C000B30ABB0AC30AC80ACD0AD20AEA0BF00B6C
:1000D000F40BF70BFB0BFF0B030C070C0C0C100CB9
:1000E000140C180C1B0C1F0C230C270C2B0C300CA5
:1000F00093149314CD14CD1410153215A116A11616
:100100007815A1161F161F169516A116A1169C1676
:100110002C162C162C162C162C162C162C162C16CF
:100120002C162C162C162C162C162C162C162C16BF
:100130003E164E1655165C166616351735174817B7
:1001400048173E17481748174817351735174417EB
:100150004817481744178A28B1289F29B1289F2992
:10016000F9281C299F297229812901E301E0014F07
:10017000024F02E002E30001E301E00150025002FD
:10018000E002E30001E30115021574FF02E374FFCE
:1001900001060206011002100107020701280228C9
:1001A00074FF01130213010C020C01110211010A68
:1001B000020A012C022C01E00119021902E00001DF
:1001C000E30115021502E301060206011002100107
:1001D0000702070128022874FF74FF010C020C01BA
:1001E000130213010602060112021201110211018B
:1001F000090209010C020C010A020A012C022C015D
:1002000038023801040204010F020F010F020F012E
:100210002802280001E30115021574FF02E374FFB0
:100220000106020601100210010702070128022838
:100230000001E0010402040106020602E00001E000
:100240000119021902E00001E00106020602E000C5
:10025000757365726E616D65012B70617373012B2F
:10026000012800750A012B022B010C020C0111025E
:1002700011012B022B01280228012B022B012B023A
:100280002B012B022B010C020C01110211012B027C
:100290002B0128022800750A012B022B01120212E1
:1002A00001170217012B022B01280228012B022B18
:1002B000012B022B012B022B011D021D0115021522
:1002C000012B022B0128022800750A012B022B01A9
:1002D00012021201130213012B022B012802280122
:1002E0002B022B012B022B012B022B011D021D01C6
:1002F000150215012B022B01280228006970636F7B
:100300006E666967202F616C6C0000750A01270218
:100310002701060206012B022B012B022B010402EE
:1003200004012B022B00011B021B00750A01E001D6
:10033000170217011902190128022802E000777735
:10034000772E737570706F72742E7865726F782E59
:10035000636F6D012800656D61696C00750A0104A9
:1003600002040107020701100210010C020C011126
:100370000211744B012B022B011E021E011E021ED4
:10038000011E021E011E021E012802280001E301B7
:100390002B022B02E30014001A00080015001700BE
:1003A000000004001600070009000A0000001D00FC
:1003B0001B0006001900050000004D004A00E20085
:1003C0002961000000004C002A000000000000002D
:1003D0000000130012000C0018001C000000330085
:1003E0000F000E000D000B00000038003700360033
:1003F0001000110000004E004B00E300E40000007C
:10040000000028002C000000000000000000140084
:100410001A00090013000A0000000400150016006D
:100420001700070000001D001B0006001900050052
:1004300000004D004A00E2002961000000004C006D
:100440002A00000000000000000033001C0018001B
:100450000F000D00000012000C00080011000B003E
:10046000000038003700360010000E0000004E007B
:100470004B00E300E4000000000028002C00000016
:1004800000000000000034003600370013001C009C
:10049000000004001200080018000C0000003300E7
:1004A00014000D000E001B0000004D004A00E20089
:1004B0002961000000004C002A000000000000003C
:1004C00000000F00150006000A00090000001600D9
:1004D000110017000B00070000001D0019001A0092
:1004E0001000050000004E004B00E300E400000097
:1004F000000028002C0000000000000000000100A7
:100500000330023001000F3000000630010001000E
:10051000010001000000005C013001000100010049
:100520000000003046004E004B0000000000E100DB
:100530002A0000000000000000000A300100010055
:1005400001000100000001000B3052000100010019
:100550000000005C4F005100500001000000DE5C14
:100560004C004A004D000000000028002C00000054
:100570000000000000001E0003301E001E001E00D0
:1005800000001E001E001E001E001E000000005C79
:100590001E001E001E001E000000003046004E001F
:1005A0004B0000000000E1002A00000000000000F5
:1005B0000000560023002200210000000000570028
:1005C00020001F001E000000000000003700270070
:1005D000270000000000DE5C4C004A004D000000D7
:1005E000000028002C000000000000000000200097
:1005F0002000200020002000000001005200010027
:10060000010001000000500051004F0001000100F6
:100610000000003046004E004B0000000000DD5C92
:100620002A0000000000000000000100010001009D
:100630000100010000000100520001000100010062
:1006400000004F0051005000010001000000DE5C7E
:100650004C004D004A000000000028002C00000063
:10066000000000000000000000000000000000008A
:10067000000000000000000000000000000000007A
:10068000000000000000000000000000000000006A
:10069000000000000000000000000000000000005A
:100B1000000000000000DB5CDC5CDA5CC15CC45CF3
:100B20000000DB5C01001D5C1E5C135C000001002A
:100B30000100DA5C01000100000001000100010079
:100B400001000000000001000100000000000000A2
:100B50000000C75CC85CC55CC65CC35C00000100EB
:100B6000DC5CDA5CDB5C0A5C0000005C010001001C
:100B7000010001000000010001000100010000006F
:100B80000000010001000000000000000000000063
:100B90000000000000002A2B2800000000000000D8
:100BA00000000000000000000029000000002C1ED2
:100BB0003420212224342627252E362D3738271E8F
:100BC0001F202122232425263333362E37381F04B5
:100BD00005060708090A0B0C0D0E0F10111213144D
:100BE00015161718191A1B1C1D2F3130232D35040B
:100BF00005060708090A0B0C0D0E0F10111213142D
:100C000015161718191A1B1C1D2F3130354C0000F2
:100C100000000000000000000000000000000000D4
:100C200000000000000000000000000000000001C3
:100C300001010101010001010101000000000000AB
:100C4000000000000000000001000100010101019E
:100C50000101010101010101010101010101010184
:100C60000101010101010101010000000101000079
:100C70000000000000000000000000000000000074
:100C80000000000000000000000101010100040359
:100C9000300000001603520065006E007400610011
:100CA0006C00200043006100720000001E032F0052
:100CB00075002F00630072007900730074006100FA
:100CC0006C00680061006E00640000000403090409
:100CD00009025400030100A0FA0904000001030105
:100CE00001000921110100012240000705810308CC
:100CF000000A090401000103010200092111010099
:100D000001224D000705820308000A0904020001C0
:100D100003000000092111010001223600070583AC
:100D20000308000A1201100100000008EDFE603007
:100D300001000102030105010980A10185021601DC
:100D4000002603001A81002A830075109501810096
:100D5000C0050C0901A1018503160100269C021A99
:100D600001002A9C02751095018100C0050109024D
:100D7000A1010901A1000509190129051500250195
:100D80009505750181029501750381010501093001
:100D900009311581257F950275088106093815816D
:100DA000257F950175088106050C0A3802158125F5
:100DB0007F950175088106C0C005010906A10105DE
:100DC0000719E029E71500250195087501810295AD
:100DD000017508810105081901290595057501911D
:100DE000029501750391010507190029FF150026D9
:100DF000FF00950675088100C00011241FBECFEFCB
:100E0000DAE0DEBFCDBF04B603FE24C080914F02FE
:100E100090915002A0915102B09152028730904BB4
:100E2000A740B04BB9F410924F02109250021092AA
:100E300051021092520214BE84B7877F84BF88E1AA
:100E40000FB6F89480936000109260000FBEE0E04F
:100E5000F8E3099511E0A0E0B1E0E6E7F4E502C0AF
:100E600005900D92AE38B107D9F712E0AEE8B1E0C7
:100E700001C01D92AF34B107E1F70E947F240C94AA
:100E8000392A0C9400000C94F70A809122028360A6
:100E9000886080932202ABE6B1E021E030E08D91E2
:100EA000E82FE295EF70F0E041A18F70B90102C028
:100EB000660F771F8A95E2F7CB01962F909549230D
:100EC00041A392A1982B92A371E0A037B70739F7FD
:100ED000A5E6B1E021E030E08D91E82FE295EF70DA
:100EE000F0E041A18F70B90102C0660F771F8A95AB
:100EF000E2F7CB01962F9095492341A392A1982B1D
:100F000092A371E0AB36B70739F7559A209AEEE80D
:100F1000F1E0A9E9B1E011921D9281E0E839F8070A
:100F2000D1F70C94BA0D2F923F924F925F926F922D
:100F30007F928F929F92AF92BF92CF92DF92EF9269
:100F4000FF920F931F93CF93DF938091000188232B
:100F500019F000E010E002C005E010E09BE6E92E89
:100F600091E0F92EA80147565E4F6A01EA01AA24D2
:100F7000A394B12C6624639434E0732E4E01588000
:100F80001882D7012D917D01E22FE295EF70F0E0FC
:100F900081A12F70A50102C0440F551F2A95E2F7C9
:100FA0009A01842B81A382A1442E4094842182A3A0
:100FB00050EA5A95F1F785E6282E81E0382E80E038
:100FC00090E0D1015D911D01652F62956F7070E019
:100FD000DB0190966C9178815F70D50102C0AA0FF9
:100FE000BB1F5A95E2F76A2339F44A2D082E01C037
:100FF000440F0A94EAF701C040E0472B488301966A
:1010000086309105F1F681A1842181A382A1822BF2
:1010100082A32196F4018081581659F06092A301B1
:101020000E943B1E9093A5018093A4018BB187255C
:101030008BB9F0E7EF16F1E0FF0609F09FCF809142
:10104000A3018823D1F08091A4019091A5010E9471
:10105000471E069790F080E090E002571E4FF8017F
:10106000E80FF91FD601A80FB91F2C912083019614
:1010700085309105A1F71092A30181E0DF91CF9116
:101080001F910F91FF90EF90DF90CF90BF90AF90A6
:101090009F908F907F906F905F904F903F902F9098
:1010A0000895CF93DF9380910001882319F0C5E064
:1010B000D0E002C0C0E0D0E00E94C209009791F4E5
:1010C00020E030E0C257DE4FF901E855FE4F408185
:1010D000FE01E20FF31F40832F5F3F4F25303105A4
:1010E00099F702C081E090E0DF91CF910895CF930E
:1010F0000E949307C82F0E945108892BF9F05D9830
:10110000909198019F5F909398019630D0F08091D4
:101110000001882319F045E050E002C040E050E0B3
:1011200020E030E042575E4FFA01E20FF31F1082D9
:101130002F5F3F4F25303105B9F703C05D9A1092FC
:1011400098010E94BC0D8C2FCF9108950E949307A7
:1011500080910001882319F020E030E002C025E0F2
:1011600030E080E090E022573E4FF901E80FF91F90
:101170004081FC01E855FE4F408301968530910582
:10118000A1F70895E82FF0E0E257FE4F808108951F
:101190000895E8EDF0E08081806180838AE18A959E
:1011A000F1F700C08091D900817008958EE090E041
:1011B0000E94032A91E0811101C090E09093000108
:1011C0000E94C908882319F00E94430904C00E94A4
:1011D000321E0E944709789408950E9445070E9494
:1011E000A608FDCF0E94D6080E94C908811102C03E
:1011F0000E94ED080895509A08955098589A0895BD
:10120000589A08951F93CF93DF93C82F0E94FB082D
:1012100018E0D0E0115088F0CE01012E02C0959563
:1012200087950A94E2F780FF03C00E94000901C07D
:10123000589880E88A95F1F7EDCFDF91CF911F9113
:1012400008950E94FD08489BFECF80E88A95F1F73B
:1012500008950E94FD0898E080E029B12170880F70
:10126000822B20E82A95F1F725E02A95F1F7000076
:10127000915099F708950E94FB08589880E88A9544
:10128000F1F70C9400090E94FB080C9400090E94DD
:10129000FD08E89AE9E6F0E080818C7F808308957C
:1012A0001F920F920FB60F921124CF92DF92FF92EE
:1012B0000F931F932F933F934F935F936F937F935E
:1012C0008F939F93AF93BF93EF93FF93CF93DF934E
:1012D0001F92CDB7DEB70E943B09C12CD12CF12C57
:1012E000860108551E4FF80180810E9402090E9464
:1012F0003B09F8018081F80EFFEFCF1ADF0A85E085
:10130000C816D10469F78F2D0E9402090E943B097B
:10131000E0E8EA95F1F7F0E4FA95F1F70E9429097F
:101320008093A7010E943B091091A7010E942909FF
:1013300089830E943B090E94FD088981181721F0CA
:101340008091A601816003C08091A6018E7F809369
:10135000A6010F90DF91CF91FF91EF91BF91AF91D7
:101360009F918F917F916F915F914F913F912F91BD
:101370001F910F91FF90DF90CF900F900FBE0F90B5
:101380001F901895CF92DF92FF920F931F93CF93E8
:10139000DF931F92CDB7DEB7F8940E94FB085898F0
:1013A00085E08A95F1F700000E94FD080E9400097F
:1013B000E0E8EA95F1F7489934C00E942109C12C70
:1013C000D12CF12C0E942909860108551E4FF801E5
:1013D00080830E942109F8018081F80EFFEFCF1A67
:1013E000DF0A85E0C816D10469F70E9429098983BC
:1013F0000E9421098981F81214C08091A7010E94DE
:1014000002090E9421098091A7010E9402090E94FD
:1014100021090E94FB080E940009789480E090E076
:1014200003C0789481E090E00F90DF91CF911F91FD
:101430000F91FF90DF90CF9008950C94F60AFC0175
:101440008081813019F487E492E007C0823019F47A
:101450008EE392E002C081E392E00C94D31AFC0187
:101460008081813019F484E192E007C0823019F460
:101470008FEB91E002C084E891E00C94D31AFC0158
:101480008081813019F487E791E004C0823021F433
:101490008AE691E00C94D31A0895FC018081813092
:1014A00029F488E30E94D31288E304C081E30E94F8
:1014B000D31281E30C94E213CF93DF93EC010E94EB
:1014C000691DBE0180E090E0DF91CF910C94631B19
:1014D000DC01462F50E04031510508F084C04A5AE3
:1014E0005F4FFA010C94E92912968C9112978111A1
:1014F00062C012968C911297811160C012968C91E5
:101500001297882319F086E593E052C012968C91C9
:101510001297882319F08EE393E04AC012968C91BB
:10152000129781114EC012969C91129715968C912C
:10153000992351F0982F92959F7011F080FF53C01E
:1015400083E00E94BE1B4FC0982F92959F7011F0B0
:1015500080FF3AC083E00E94D91B45C012968C914F
:101560001297811134C012968C911297882319F02A
:101570008AE093E01DC012968C911297882319F08F
:101580008CEF92E015C012968C911297811122C0B7
:1015900012968C911297811120C012968C911297FD
:1015A00081111EC012968C918823E9F080E592E0AB
:1015B0000E94450D18C08DE893E008958CE593E0F6
:1015C00008958BE293E0089586E293E008958BE01E
:1015D00093E0089589EC92E0089586E992E00895F9
:1015E00083E692E0089580E090E0089508950895DC
:1015F000CF93FB018C3D2CE5920701F140F48A3D2D
:101600002CE5920769F08B3D9C4581F03FC08E3DF3
:101610002CE59207E1F0C0F0803E9C4561F136C0B8
:10162000C281CC23A1F182E090E005C0C281CC232D
:1016300071F181E090E00E945C0A23C0C281CC235A
:1016400031F184E090E0F7CFC28183E002C0C28133
:1016500084E0CC2341F00E94BE1B40E164E083E0C3
:101660000E94A80D0EC00E94D91B40E164E083E0F7
:101670000E94A80D0CC0C28180E1CC2321F00E9401
:10168000BE1BC0E004C00E94D91B01C0C1E08C2F6A
:10169000CF91089581E008950C94F80A0E942317D1
:1016A0002FEF84E39CE0215080409040E1F700C0A0
:1016B000000087E797E790930108809300080C9457
:1016C000961E0F931F93CF93DF938C01FC01C08173
:1016D000D181CE010E944A1CBE010E94C60DEC01C0
:1016E000B8010E94C310B801CE010E944C0B8823A0
:1016F00009F46CC1B801CE010E940411882309F4D9
:1017000065C1B801CE010E942710882309F45EC18B
:10171000C531FCE5DF0729F50E94FD1C382FF801D3
:1017200022818091520190915301222371F03A7AE3
:1017300021E009F420E02093AD01222311F065E3BC
:1017400001C069E20E94B31D09C02091AD012223AE
:1017500011F065E301C069E20E94B51D0E94CA1C38
:1017600035C1C6318CE5D80708F0A3C0C130ECE51F
:10177000DE0759F4F8018281882309F427C180919A
:10178000220281608093220221C1C230FCE5DF0782
:1017900008F478C0F8018281882309F47BC00E9494
:1017A000561D811102C00E943C1D0E946E1D90E0DA
:1017B0009093410280934002FE01E350FC45E231E8
:1017C000F10520F4EA59FF4F0C94E9298091400279
:1017D000816003C0809140028260809340024BC0D0
:1017E000809140028460F9CF8091400213C08091C3
:1017F00040028061F2CF809140028062EECF809102
:1018000040028064EACF809140028068E6CF8091F8
:10181000400284608860E1CF809140028E7FDDCFFE
:10182000809140028D7FD9CF809140028B7FD5CFB0
:101830008091400213C0809140028F7ECECF809174
:1018400040028F7DCACF809140028F7BC6CF8091AE
:1018500040028F77C2CF809140028B7F877FBDCFC0
:101860009091400297FB882780F921E0822780FB36
:1018700097F990934002809140020E94721D0E944D
:101880002317A4C0C115DC4561F081E08093B2014B
:101890008093B301C801DF91CF911F910F910C94F8
:1018A0004A0BF8018281882309F490C00E944E0BF4
:1018B0008DC0C53DECE5DE0759F5F801828188232E
:1018C00061F01092B3010E943B1E9093B10180938E
:1018D000B00180E20E94431479C08091B301882353
:1018E00021F080E20E944A1471C08091B001909171
:1018F000B1010E94471E8639910598F780E20E9447
:101900004A1488E20E94D31288E20E94E2135EC069
:10191000C63DFCE5DF0708F044C0C33D8CE5D807B1
:1019200019F5F8018281882351F01092B2010E94CA
:101930003B1E9093AF018093AE0182E0CBCF8091AC
:10194000B20181110FC08091AE019091AF010E9450
:10195000471E8639910530F486E20E94D31286E252
:101960000E94E21382E0BECFC43DDC4509F08DCF7A
:10197000F80182818111A5CF8091B3018111B1CF8E
:101980008091B0019091B1010E94471E8639910566
:1019900008F0A7CF87E20E94D31287E20E94E213E9
:1019A000A0CFC83DFCE5DF0731F4F8018281882330
:1019B00069F080E009C0C93DDC4509F066CFF80157
:1019C0008281882319F082E00E94192580E0DF914E
:1019D000CF911F910F910895CF93282F30E0F901F7
:1019E000E257F44FC491F901E25FF34F24912223AF
:1019F00059F081EE0E94D3128C2F0E94D3128C2FAB
:101A00000E94E21381EE04C08C2F0E94D3128C2F0F
:101A1000CF910C94E2130F931F93CF93DF93EC01BC
:101A2000062FFE018491882359F19E012F5F3F4FBD
:101A3000813041F4E901F9011491812F0E94D31200
:101A4000812F0DC0823031F4E901F90184910E94A7
:101A5000D3120AC0833031F4E901F90184910E9464
:101A6000E21302C00E94EC0C2196802F8823C9F259
:101A7000EFE9FFE03197F1F700C000008150F6CFA9
:101A8000DF91CF911F910F91089560E00C940B0DA1
:101A90004F925F926F927F928F929F92AF92BF927E
:101AA000CF92DF92EF92FF920F931F932B013C0195
:101AB000C12CD12C7601C394D701C60104C0880F74
:101AC000991FAA1FBB1F4A95D2F7AC01BD01460161
:101AD000570104C0880C991CAA1CBB1C2A95D2F77C
:101AE000482959296A297B29D701C60104C0880FD2
:101AF000991FAA1FBB1F0A95D2F76A017B01C42058
:101B0000D520E620F720C416D506E606F70639F4F8
:101B1000BC01CD0164297529862997290AC0BC0119
:101B2000CD016095709580959095642175218621F1
:101B300097211F910F91FF90EF90DF90CF90BF9072
:101B4000AF909F908F907F906F905F904F9008958F
:101B50000F93382F262F60910D0270910E02809105
:101B60000F0290911002042F432F0E94480D0F91F5
:101B70000C949E1B0C941D0A0E945B110C9443074D
:101B800008950C94C00D0C94C10D089596E0799FB2
:101B9000F00111249CE3899FE00DF11D1124E60F53
:101BA000F11DEE0FFF1FEA56FC4F859194910895A9
:101BB000880F991F8257934FFC0185919491089546
:101BC000CF93DF930E94C60D0E94870FEC01811511
:101BD00020E5920708F040C0811530E4930708F033
:101BE0001BC1883E910508F5803E910508F08BC128
:101BF000883A910578F4853A910508F09DC08130C6
:101C0000910509F480C108F437C18430910508F0CA
:101C10007AC132C18D3B910508F499C0803C910591
:101C200008F42AC1805C9109E9C0C11580E2D80797
:101C300058F4C11591E0D90708F065C1C03FD1053E
:101C400008F41AC1D0655FC1C11520E3D20708F0BE
:101C5000D9C0CE019F70D2C0811535E5930708F039
:101C600043C0C11584E5D80708F0EDC0C11592E561
:101C7000D90708F5C11521E5D20708F0D0C02C2FEF
:101C8000237081E090E002C0880F991F2A95E2F747
:101C90009C689E01E4E036952795EA95E1F723706C
:101CA000922BCF70C695C69530E2C39FE0011124F8
:101CB000C82BD92B28C18C2F869586959E01237021
:101CC0003327C115D34508F0AFC090E2899FE001EA
:101CD000112481E090E002C0880F991F2A95E2F755
:101CE000C82BD92BDC680FC1811529E5920780F438
:101CF000811538E5930708F0ABC0C11586E5D80714
:101D000008F0BAC0CF71DD27DC2FCC27D062FBC032
:101D1000C1159AE5D90708F4A0C0CE0190568115E7
:101D2000904208F0A9C08D2F8F710E940310DD270B
:101D3000D0628F71D82BE7C0853A910509F49FC016
:101D4000863A910509F49EC0C3E8D0E4DCC0883A25
:101D5000910509F49AC0893A910509F499C08A3A23
:101D6000910509F498C08B3A910509F497C08C3A13
:101D7000910509F496C08B3B910509F495C08C3B05
:101D8000910509F494C08D3A910509F493C0803B04
:101D9000910509F492C08E3A910509F491C08F3AE9
:101DA000910509F490C0813B910509F48FC0823BF5
:101DB000910509F48EC0833B910509F48DC0843BE5
:101DC000910509F48CC0853B910509F48BC0863BD5
:101DD000910509F48AC0873B910509F489C0883BC5
:101DE000910509F488C0893B910509F487C08A3BB5
:101DF000910509F086C0CAE2D6E485C00E94D80DDC
:101E0000EC0181C0CE019927D3FF03C0EC01D86C4F
:101E10007AC0EC01D06C77C0DF70D06A74C0DC2F60
:101E2000CC27C16FD06A6FC090E2899FE001112476
:101E300081E090E002C0880F991F2A95E2F7C82B35
:101E4000D92BDA6860C0DC2FCC27C46FD06A5BC0A6
:101E5000D82FCC27C06FD06A56C08C2F8F70806E61
:101E600090E0906A34E0D695C7953A95E1F7CF7047
:101E70009C013C2BE90147C0C0E0D0E044C0C1E870
:101E8000D0E441C0C2E8D0E43EC0C2EED4E43BC0DE
:101E9000C9EED4E438C0CAEED4E435C0C5EBD4E40E
:101EA00032C0C6EBD4E42FC0C3EBD4E42CC0C4EBE7
:101EB000D4E429C0C7EBD4E426C0CCECD4E423C0DE
:101EC000CDECD4E420C0C3E8D5E41DC0CAE8D5E415
:101ED0001AC0C2E9D5E417C0C4E9D5E414C0C1E210
:101EE000D6E411C0C3E2D6E40EC0C4E2D6E40BC00F
:101EF000C5E2D6E408C0C6E2D6E405C0C7E2D6E42F
:101F000002C0C0E0D4E4CE01DF91CF9108958238C1
:101F1000910549F1B0F48133910509F459C048F4B1
:101F20008932910509F44FC08A32910509F455C0F0
:101F300008958533910509F441C08933910599F0DD
:101F40000895833E910531F138F4803E910591F07A
:101F5000823E9105A9F00895863E910501F1873EE4
:101F6000910539F108952091400220FD3BC021FDEB
:101F700039C008958091400280FF34C089E341C098
:101F80008091400282FF32C08091400284FF2CC0C9
:101F900080E037C08091400282FD28C0F5CF80915B
:101FA000400283FF25C08091400284FDF1CF87EE7F
:101FB00028C08091400283FD1BC0F5CF8091400274
:101FC00085FF18C019C08091400285FF15C012C05E
:101FD0008091400286FF12C013C08091400286FFAC
:101FE0000FC00CC080EE0DC083EE0BC082EE09C0A6
:101FF00086EE07C085E305C089E203C081E301C026
:102000008AE290E008959091400292FF0DC0282F3F
:102010002871283019F4877F846006C0282F247126
:10202000243011F48B7F886093FF0DC0282F287116
:10203000283119F4877E846106C0282F2471243149
:1020400011F48B7E886194FD877E08950895CF9367
:10205000DF93EC01FB018281811102C081E040C06D
:102060008091C101811125C0C631DC45B9F70E94BC
:10207000261081E08093C1010E943B1E9093C00115
:102080008093BF011092B4011092B6011092B50175
:102090001092B8011092B7011092BA011092B901D2
:1020A0001092BC011092BB011092BE011092BD01B2
:1020B00016C08091BF019091C0010E94471E8C32D2
:1020C000914060F68091B401E82FF0E0EE0FFF1F21
:1020D000EB54FE4FD183C0838F5F8093B40180E0C7
:1020E000DF91CF910895CF93DF93EC018F8581111C
:1020F00015C081E08F878F810E94001D88850E9416
:10210000131D0E94CA1CEA81FB816A897B89CE016A
:102110000696309719F0DF91CF910994DF91CF9116
:1021200008950F931F93CF93DF938C01FC0180855B
:10213000811124C083819481975524E1289FE00177
:10214000299FD00D1124CF5FDE4FEC81FD816A897C
:102150007B89CE010696309709F009958F810E9400
:10216000061D88850E94191D0E94CA1CF801108254
:10217000178211861092C3011092C201DF91CF9194
:102180001F910F910895DF92EF92FF920F931F938B
:10219000CF93DF937C01FB018281882369F18091D9
:1021A00051018F3F49F1C7E0D1E000E010E0DD24AC
:1021B000D39480915101992787FD909580179107BD
:1021C000DCF0CE0106972881222391F02B813C81FF
:1021D000E216F30639F42091C2013091C301E216F0
:1021E000F30631F0DF820E947310CE010E9491103D
:1021F0000F5F1F4F6496DDCFDF91CF911F910F913D
:10220000FF90EF90DF900895FF920F931F93CF936D
:10221000DF938C019C0137552F3F310511F008F0F9
:1022200043C080915101992787FD909582179307AC
:1022300014F42093510184E1829FE001839FD00D2B
:102240001124CF5FDE4FFB0182818E8792818E81C8
:10225000992309F11A8709878F5F8E830E943B1E9D
:102260009C878B870E94391D8F830E94FD1CF82E4E
:1022700088870E94101D8F298887E881F9816A89E3
:102280007B89CE010696309709F009951093C3011A
:102290000093C20109C0882339F08F85882321F07B
:1022A000CE0106960E94911081E0DF91CF911F919F
:1022B0000F91FF900895EF92FF920F931F93CF938A
:1022C000DF93809151018F3F71F1F12C84E1E82E71
:1022D0008F2D90E020915101332727FD309528174D
:1022E00039070CF1E89EE001E99ED00D1124CF5F83
:1022F000DE4F088919890115110511F406E910E06E
:102300008E81882371F08B859C850E94471E08175B
:10231000190738F4CE010E947310CE0106960E9470
:102320009110F394D5CFDF91CF911F910F91FF9032
:10233000EF9008959093C9018093C8010895E091AA
:10234000C801F091C901309721F00190F081E02D92
:10235000099480E00895E091C801F091C901309797
:1023600021F00280F381E02D09940895E091C801E5
:10237000F091C901309721F00480F581E02D099496
:1023800008952091C6013091C7018217930771F01B
:102390009093C7018093C601E091C801F091C901F3
:1023A000309721F00680F781E02D0994089520915F
:1023B000C4013091C5018217930771F09093C50154
:1023C0008093C401E091C801F091C901309721F0D8
:1023D0000084F185E02D099408950C94F20881E0C1
:1023E00008950E94321E0E9445070C94A81ECF92A9
:1023F000DF92EF92FF920F931F93CF93DF93CDB7AE
:10240000DEB72B970FB6F894DEBF0FBECDBF0E948C
:1024100077080E94EF11811111C08FEF89838A83A1
:102420001B820E943B1E8160782F9D838C83498193
:102430005A816B818D810E949F1256C03BECE32E26
:1024400031E0F32E00E010E0C02E802F0E94C20881
:10245000F701D1907F01D82631F40F5F1F4F0A306A
:10246000110591F7DACF9091220291FF04C08B877A
:102470000E94C8088B8520E030E04D2D50E0922F5F
:10248000BA01022E02C0759567950A94E2F760FFC3
:1024900025C02E83CF82EE24E394F12C02C0EE0CF3
:1024A000FF1C9A95E2F790E08E219F2121E0892B75
:1024B00009F420E028870E943B1E8160782F9A87CC
:1024C00089874E815F8168858A850E949F12F80105
:1024D000E553FE4F80818E25808306C02F5F3F4FDE
:1024E0002630310561F6B9CF0E943A201091CA0119
:1024F0000E949F111817A1F00E949F118093CA019A
:102500002B960FB6F894DEBF0FBECDBFDF91CF91F3
:102510001F910F91FF90EF90DF90CF900C94C30D1F
:102520002B960FB6F894DEBF0FBECDBFDF91CF91D3
:102530001F910F91FF90EF90DF90CF900895CF9370
:10254000DF93CDB7DEB72B970FB6F894DEBF0FBE83
:10255000CDBF4F83588769877A878B87DE011196B5
:1025600086E0FD0111928A95E9F785E0FE01379634
:1025700001900D928A95E1F749815A816B817C81A6
:102580008D819E810E94261A2B960FB6F894DEBF8D
:102590000FBECDBFDF91CF910895FC018081918165
:1025A0000E948A1C0895CF93DF931F92CDB7DEB7A8
:1025B000682F882309F402C18238C1F40E949F1158
:1025C00081FDFCC069E380915201909153010E940A
:1025D000B31D0E94CA1C2FEF81EE94E02150804071
:1025E0009040E1F700C0000069E319C0833811F59D
:1025F0000E949F1180FDE2C063E58091520190919D
:1026000053010E94B31D0E94CA1CEFEFF1EE24E0BB
:10261000E150F0402040E1F700C0000063E5809108
:102620005201909153010E94B51D0F90DF91CF91FF
:102630000C94CA1C8438C1F40E949F1182FDBEC054
:1026400067E480915201909153010E94B31D0E9452
:10265000CA1C8FEF91EEE4E081509040E040E1F73A
:1026600000C0000067E4DBCF8CEF860F813A70F486
:10267000862F69830E944622698181119FC08091C3
:102680005201909153010E94B31DCFCF80E2860F7B
:10269000883048F4677081E001C0880F6A95EAF7D6
:1026A0000E94001DC2CF8BE5860F833088F4653A07
:1026B00029F0663A31F482E890E005C081E890E0C4
:1026C00002C083E890E00F90DF91CF910C94C1118C
:1026D00088E5860F853108F071C0683A61F1693A82
:1026E00069F16A3A71F16B3A79F16C3A81F16B3BBD
:1026F00089F16C3B91F16D3A99F1603BA1F16E3A31
:10270000A9F16F3AB1F1613BB9F1623BC1F1633BB1
:10271000C9F1643BD1F1653BD9F1663BE1F1673B1F
:10272000E9F1683BF1F1693BF9F16A3B09F03FC01F
:102730008AE292E03EC082EE90E03BC089EE90E0FB
:1027400038C08AEE90E035C085EB90E032C086EB71
:1027500090E02FC083EB90E02CC084EB90E029C088
:1027600087EB90E026C08CEC90E023C08DEC90E0ED
:1027700020C083E891E01DC08AE891E01AC082E998
:1027800091E017C084E991E014C081E292E011C0A9
:1027900083E292E00EC084E292E00BC085E292E018
:1027A00008C086E292E005C087E292E002C080E0C5
:1027B00090E00F90DF91CF910C94D7110F90DF91A3
:1027C000CF910895882309F45DC0823879F40E947E
:1027D0009F1181FF57C069E380915201909153018D
:1027E0000E94B31D0E94CA1C69E310C08338B1F473
:1027F0000E949F1180FF46C063E580915201909135
:1028000053010E94B31D0E94CA1C63E580915201CE
:10281000909153010E94B51D0C94CA1C843879F420
:102820000E949F1182FF2EC067E480915201909117
:1028300053010E94B31D0E94CA1C67E4E7CF9CEFBE
:10284000980F913A10F4682FE1CF90E2980F9830EA
:1028500050F4877091E001C0990F8A95EAF7892FAB
:102860000E94061DD9CF9BE5980F933020F480E09D
:1028700090E00C94C111885A853120F480E090E0FA
:102880000C94D7110895882321F00E94001D0C9408
:10289000CA1C0895882321F00E94061D0C94CA1CAE
:1028A00008958F929F92BF92CF92DF92EF92FF9204
:1028B0000F931F93CF93DF9300D0CDB7DEB74C01BA
:1028C000472FFC01C580C2949FE0C922D280DD2041
:1028D00031F079836A830E94201D6A81498149838E
:1028E0006A830E94C31C49816A81882389F0DD20A4
:1028F00079F080E2860F883058F082E00E94AC1CAC
:102900000E94C31CBB24B394B82649816A8101C0CC
:10291000B12CE42EE2948FE0E822F12CF701E85884
:10292000FF4F0C94E929842F807F142F1F70882378
:1029300011F01295107FDD20C1F0112309F4E0C1E0
:1029400080E2860F883010F0611105C0812F6A8304
:102950000E94001D04C0812F6A830E94131D6A819A
:102960006A830E94CA1C6A81CBC1862F6A830E9437
:10297000E2136A81112309F4E4C180E2860F8830F2
:1029800010F0611104C0812F0E94061D03C0812F29
:102990000E94191D0E94CA1CD4C1842F807F142F4D
:1029A0001F70803211F01295107F662319F061308C
:1029B000D9F026C0DD2079F0CC2049F0F1E0CF122B
:1029C00006C00E94391D812B0E94331DBAC10E948E
:1029D000391D812B4AC1CC2021F021E0C21609F417
:1029E000B0C10E94361D46C1DD2029F085E08C155E
:1029F00008F4A7C139C194E09C1508F4A2C13AC1FA
:102A0000DD2051F0CC2009F42FC1F401858180FF35
:102A100077C18F70858328C1CC2009F42BC181C177
:102A2000242F26952695237030E02115310521F0BD
:102A30002130310561F085C1DD2021F0862F942FF2
:102A4000937002C080E090E00E94C1118AC1DD2035
:102A500021F0862F942F937002C080E090E00E94B6
:102A6000D7117FC1DD20F9F0653F51F0663F71F06D
:102A7000643FA9F480913A0290913B0281600BC0BF
:102A800080913A0290913B02826005C080913A02A7
:102A900090913B02846090933B0280933A02862F90
:102AA0000E94421F22C0653F51F0663F91F0643F93
:102AB000C9F480913A0290913B028E7F05C08091CB
:102AC0003A0290913B028D7F90933B0280933A02B1
:102AD00009C020913A0230913B022B7F30933B0298
:102AE00020933A02862F0E94AA1F0E942F2039C1EC
:102AF000842F837009F04EC0D1102FC1262F22954C
:102B000026952770220F220F862F8F70C82ED12C6A
:102B1000E12CF12C022E04C0CC0CDD1CEE1CFF1CA1
:102B20000A94D2F764FF10C06FE070E080E090E09C
:102B300004C0660F771F881F991F2A95D2F76095EA
:102B400070958095909503C060E070E0CB01242FD4
:102B500026952695237030E02230310569F0233028
:102B6000310589F06C297D298E299F292130310575
:102B700071F00E94771BF1C06C297D298E299F2955
:102B80000E94891BEAC00E94771BC701B6010E9400
:102B9000651BE3C0DD2019F0842F817001C086958C
:102BA000882309F4DAC0262F229526952770220F54
:102BB000220F862F8F70C82ED12CE12CF12C022EE3
:102BC00004C0CC0CDD1CEE1CFF1C0A94D2F764FF81
:102BD00010C06FE070E080E090E004C0660F771FE7
:102BE000881F991F2A95D2F76095709580959095CA
:102BF00003C060E070E0CB01242F2695269523705A
:102C000030E02230310569F02330310589F06C293C
:102C10007D298E299F292130310571F00E94251CC4
:102C20009CC06C297D298E299F290E94371C95C044
:102C30000E94251CC701B6010E94131C8EC0062FDE
:102C400010E0F801E05EF109E531F10508F054C04B
:102C5000E857FF4F0C94E929162F1F70842F8F71AE
:102C6000DD2031F00E94BE1B812F0E94431469C0F9
:102C70000E94D91B812F0E944A1463C0DD2049F0B5
:102C8000F4E0FC1508F45DC0842F8F710E94F81BDE
:102C900058C025E02C1508F454C0F6CFDD2039F0DB
:102CA000842F8F710E94BE1B4CC0DD20C9F3842F7E
:102CB0008F710E94D91B45C0DD2029F0842F8F71B0
:102CC0000E94AF1B3EC00E94AA1B3BC0DD2051F0FA
:102CD000142F1F71812F0E94BE1B63E0812F0E9461
:102CE000A31C2FC081E00E94AC1C81E08C1548F52C
:102CF00082E00E94AC1C25C0DD2031F0CC2081F2A6
:102D0000862F0E94D3121DC0CC2089F2693349F46A
:102D10009FEFE7EEF3E09150E040F040E1F700C0B4
:102D20000000862F0E94E2130CC04F70C4010E9465
:102D3000680A0E94D31A15C04F70C4010E94C50DC5
:102D400010C028E0E216F10441F05CF09AE0E91AC4
:102D5000F108E2E0EE16F10420F40E949F110E94B7
:102D6000C30DBB20F1F00E949F1C80FD1AC0F4012E
:102D700012820E94991C0E94BE1BC4010E94DF1691
:102D80000E94991C0F900F90DF91CF911F910F918E
:102D9000FF90EF90DF90CF90BF909F908F900C941A
:102DA000D91B0F900F90DF91CF911F910F91FF9042
:102DB000EF90DF90CF90BF909F908F9008950F93EA
:102DC0001F93CF93DF93EC01288139818B819C8104
:102DD000892B31F03F3F11F080E003C02F3FE1F736
:102DE00081E0811113C0CE010E94610B882371F034
:102DF000688179818A810E94951C8C010E94491CFE
:102E00000E94621BB801CE010E945114DF91CF9144
:102E10001F910F9108950E94201D0E94301D8091E6
:102E20005201909153010E94B71D0E94CA1C0E943A
:102E3000C3200E942F2080E090E00E94C11180E01A
:102E400090E00C94D7110E940D1D0C940B170E945A
:102E50008A1CE92FE295EF70F0E03297EE30F10531
:102E6000B8F4E356FF4F0C94E929803F59F018F469
:102E7000803E70F407C0843F59F404C0803E10F0D7
:102E8000813F31F481E0089593FB882780F908950C
:102E900080E00895CF93DF9300D000D01F92CDB78C
:102EA000DEB70F900F900F900F900F90DF91CF91A2
:102EB0000895CF93DF9300D000D000D0CDB7DEB718
:102EC00026960FB6F894DEBF0FBECDBFDF91CF912F
:102ED00008951F93CF93DF93C091D50116E08091A1
:102EE000D601C81799F0D0E01C9FF0011D9FF00D8E
:102EF0001124E952FE4F40815181628173818481A6
:102F000095810E9459172196C770E9CFDF91CF9123
:102F10001F910895409107025091080260910902A3
:102F200070910A0280910B0290910C020C94591737
:102F30002091D5019091D60156E02917A9F030E0F3
:102F4000529FF001539FF00D1124E952FE4F718101
:102F5000671306C07081871303C07281471306C0D0
:102F60002F5F3F4F2770E9CF80E0089581E00895FB
:102F7000CF9380910C0282958F7009F05FC0809191
:102F80000902882309F45AC02091D501A091D601E5
:102F9000609107027091080280910A0290910B02E1
:102FA00031E06F3F09F030E0B32FC6E02A1709F493
:102FB00045C0009721F07F3F21F44B2F03C041E033
:102FC00001C040E030E040FD35C0C29FF001C39F2A
:102FD000F00D1124E952FE4F418174132BC0408142
:102FE000641328C04281411125C043815481481790
:102FF000590710F441505109481B590B46395105E6
:10300000C8F480910C028F70806180930C0286E07E
:10301000829FF001839FF00D1124E452FE4F8081C6
:103020008F708061808387E092E00E94DF16CF91ED
:103030000C9469172F5F3F4F2770B8CFCF91089539
:10304000BF92CF92DF92EF92FF920F931F93CF9395
:10305000DF93CDB7DEB762970FB6F894DEBF0FBE31
:10306000CDBF8C0185E0F801DE011D9601900D9227
:103070008A95E1F7D801CC9011965C911197129640
:10308000BC9012971396ED90FC90149780910702D4
:103090009091080220910A0230910B02211531050E
:1030A00031F09F3F31F441E08F3F19F403C041E01C
:1030B00001C040E040FD9CC1D0900902DD2009F430
:1030C00024C140910C02E216F30628F0F701E21B3E
:1030D000F30B9F0104C0209530952E0D3F1D26391E
:1030E000310508F0C5C0242F207F09F087C0951353
:1030F00015C08C1113C0DB2CB11010C04F70406193
:1031000040930C020E948A1787E092E00E94DF162B
:1031100080910C02D80115968C9387C1E114F104BB
:1031200039F05F3F39F481E0BFEFCB1203C003C039
:1031300081E001C080E080FD03C081E08B2501C0FB
:1031400080E080FF09C04B2D652F8C2D5A8B0E948B
:1031500098175A89811197C0EF2839F05F3F39F4E9
:1031600081E0BFEFCB1203C003C081E001C080E06B
:1031700080FD03C081E08B2501C080E0E82FE17075
:10318000FE2E80FF31C04B2D652F8C2D5A8B0E9457
:103190009817D82E5A89811127C0CD865E878D85D4
:1031A0009E850E948A1C292F22952F7030E02230A4
:1031B000310524F02430310534F011C09F7059F0EE
:1031C000811109C032C19F7031F0D80115969C91D0
:1031D000907F09F42AC1805E883008F426C1C801B6
:1031E0000E94DF16DF2C21C1DB2CBB2009F41DC19E
:1031F00080910C02816080930C0252C0951307C02D
:103200008C1105C0B11003C0F8014583ABC0CD8659
:103210005E878D859E850E942717882319F1DB2CF8
:10322000BB2001F120910C02822F82958F7090E0DB
:1032300002970CF461C08091070290910802988770
:103240008F831986FB86EA862C87CE01079652C0AB
:10325000951741F1CD865E878D859E850E94271743
:10326000811131C0C8010E94DF16DD24D394DDC076
:10327000242F207F69F77E2DF98AE88A4C2D6B2D4B
:1032800089890E944A1787E092E00E94DF16E7E0F2
:10329000F2E086E0DF011D928A95E9F70E948A1725
:1032A000D12CC3C08C11D6CFB110D4CFF801458337
:1032B000C8010E94DF16E7E0F2E086E0DF011D9220
:1032C0008A95E9F7B2C0DB2CBB2061F220910C0299
:1032D000822F82958F7090E0029774F080910702A0
:1032E000909108029A8389831B82FD82EC822E834F
:1032F000CE0101960E94DF1686E0F801A7E0B2E059
:1033000001900D928A95E1F78CC0E216F30628F041
:10331000F701E21BF30B9F0104C0209530952E0DA1
:103320003F1D2639310508F053C0DB2CBB2009F4C2
:1033300099CF95132CC08C112AC080910C0280FD6E
:103340001DC0982F92959F70C9F0D80115968C9347
:1033500015979F3039F09F5F9295907F8F70892BE2
:1033600015968C93C8010E94DF1686E0F801A7E04D
:10337000B2E001900D928A95E1F755C086E0F80120
:10338000A7E0B2E001900D928A95E1F74EC0CD869C
:103390005E878D859E850E942717882381F096E0A1
:1033A000F801A7E0B2E001900D929A95E1F78A8BBF
:1033B0000E94B8170E948A178A89D82E36C0809139
:1033C0000C02816080930C02C8010E94DF162DC0A0
:1033D0007E2DF98AE88A4C2D6B2D89890E944A1727
:1033E000E7E0F2E086E0DF011D928A95E9F71BC075
:1033F000BB2009F437CFCD865E878D859E850E94E0
:103400002717D82E882309F42DCF86E0F801A7E0EE
:10341000B2E001900D928A95E1F787E092E00E9478
:10342000CD120E94B8170E948A178D2D62960FB692
:10343000F894DEBF0FBECDBFDF91CF911F910F91EA
:10344000FF90EF90DF90CF90BF9008951F93CF93A0
:10345000DF93CDB7DEB72C970FB6F894DEBF0FBE63
:10346000CDBF4F83588769877A878B879C87CE012A
:1034700007960E9420188823C1F02F8138858A85FD
:103480009B85892B31F03F3F11F080E003C02F3F37
:10349000E1F781E0811147C04F81588569857A85C0
:1034A0008B859C850E9459173EC086E0FE013796A9
:1034B000DE01119601900D928A95E1F7FF81E88572
:1034C0004A855B854115510531F0EF3F31F481E0CC
:1034D000FF3F19F403C081E001C080E080FD23C0FC
:1034E0002091D60130E0C90101968770992760913B
:1034F000D50170E086179707F1F1F983EA835D83C0
:103500004C8396E0929FD001939FB00D1124A95255
:10351000BE4FFE01319601900D929A95E1F780938E
:10352000D6010E94691716E08091D5019091D601CD
:10353000891779F1189FC001112489529E4F0E946A
:103540002018882331F1E091D5011E9FF00111244C
:10355000E952FE4F4081518162817381848195815E
:103560000E9459178091D50190E0019687709927A4
:103570008093D501D9CF0E9423171092D6011092C3
:10358000D501E7E0F2E086E0DF011D928A95E9F7D8
:10359000CACF2C960FB6F894DEBF0FBECDBFDF9119
:1035A000CF911F910895EF92FF920F931F93CF93A6
:1035B000DF939C01009709F471C0F12CEE24E39491
:1035C000E9012196F9018491843740F4843008F0B0
:1035D00056C0813081F0823021F160C0853709F416
:1035E00049C0C0F19CE7980F903708F057C08F771B
:1035F0000E94E21346C089010E5F1F4FFE018491B5
:1036000090E2980F983050F48770FE2D01C0FF0FA4
:103610008A95EAF78F2F0E94231D15C00E94D312AE
:1036200014C089010E5F1F4FFE01849190E2980F34
:10363000983068F48770FE2D01C0FF0F8A95EAF775
:103640008F2F0E94291D0E94CA1CE8011AC00E94E7
:10365000E213FBCF2E5F3F4FFE01C491CC2341F01C
:103660008FE99FE00197F1F700C00000C150F6CF4D
:10367000E90107C0FE01F490E901229602C00E9410
:10368000D3128F2D882341F0EFE9FFE03197F1F756
:1036900000C000008150F6CF9E0192CFDF91CF9104
:1036A0001F910F91FF90EF90089508950E94551B70
:1036B000609311027093120280931302909314028C
:1036C0000C940B1708950C94561B0F931F930091A5
:1036D0001102109112022091130230911402602BFA
:1036E000712B822B932B1F910F910C94561B0F93D0
:1036F0001F93009111021091120220911302309138
:10370000140260237123822393231F910F910C9441
:10371000561B0F931F9300911102109112022091DA
:1037200013023091140260277127822793271F917B
:103730000F910C94561B08950C949B1B0E949C1B8C
:1037400060930D0270930E0280930F02909310020B
:103750000C940B1760E070E0CB010C949E1B41E0D1
:1037600050E060E070E004C0440F551F661F771FF3
:103770008A95D2F7CB01BA010C949E1B41E050E030
:1037800060E070E004C0440F551F661F771F8A95E4
:10379000D2F780910D0290910E02A0910F02B0918C
:1037A0001002482B592B6A2B7B2BCB01BA010C94AE
:1037B0009E1B41E050E060E070E004C0440F551FE4
:1037C000661F771F8A95D2F7409550956095709542
:1037D00080910D0290910E02A0910F02B091100203
:1037E000482359236A237B23CB01BA010C949E1BE7
:1037F00041E050E060E070E004C0440F551F661FD8
:10380000771F8A95D2F780910D0290910E02A091B8
:103810000F02B0911002482759276A277B27CB0156
:10382000BA010C949E1B0F931F9300910D021091EF
:103830000E0220910F0230911002602B712B822B0F
:10384000932B1F910F910C949E1B0F931F9300912C
:103850000D0210910E0220910F0230911002602390
:103860007123822393231F910F910C949E1B0F931E
:103870001F9300910D0210910E0220910F023091C2
:10388000100260277127822793271F910F910C94B4
:103890009E1B0895CF92DF92EF92FF920F931F939A
:1038A000CF93DF93EC01C0901102D0901202E09010
:1038B0001302F090140280910D0290910E02A091DB
:1038C0000F02B0911002C82AD92AEA2AFB2A0FE176
:1038D00010E0B701A601002E04C0769567955795B4
:1038E00047950A94D2F740FD05C00150110988F7A9
:1038F00080E007C0BE01802F0E94E00D0197A9F370
:10390000802FDF91CF911F910F91FF90EF90DF906B
:10391000CF900895CF93DF93EC010E944A1CBE0123
:103920000E94E00DDF91CF910895CB010E948A1C87
:1039300008958091150285958595859508958091C6
:1039400015028770089598E0899F90011124622BD9
:10395000609315020C94BE1B409115028095842340
:1039600080931502982F977069F450E0282F332721
:1039700027FD30954217530729F085958595859544
:103980000C94D91B089590911502977081E009F469
:1039900080E00895E0915201F0915301809121025D
:1039A0008083E0915201F091530180819091200237
:1039B000892B8083E0915201F09153018081909195
:1039C0001F02892B808390911602992381F0E09148
:1039D0005201F09153018081892B808380915201A3
:1039E000909153010E94771D8111109216028091CF
:1039F0005201909153010C94AB11809121020895D2
:103A000090912102982B9093210208958095909196
:103A10002102982390932102089510922102089583
:103A200080912002089590912002982B909320027B
:103A300008958095909120029823909320020895F4
:103A400010922002089590911F02982B90931F02CC
:103A50000895809590911F02982390931F020895D6
:103A600010921F0208958093160208951092160274
:103A700008958091160208956DEE7EEF80E090E04B
:103A80000E94232A60E082E090E00E94112A60E018
:103A900083E090E00E94112A60E084E090E00E94C0
:103AA000112A60E085E090E00C94112A80E090E01B
:103AB0000E940B2A21E08D3E9E4F09F020E0822FCC
:103AC000089582E090E00C94032A83E090E00C9447
:103AD000032A682F83E090E00C94112A84E090E0A0
:103AE0000C94032A682F84E090E00C94112A20E0C3
:103AF00030E040E0FC01E20FF31F518151114F5FB4
:103B00002F5F3F4F27303105A9F7842F089520E01C
:103B100030E04FEFFC01E20FF31F5281561799F08E
:103B20004F3F19F4511101C0422F2F5F3F4F2630F4
:103B3000310581F74F3F39F0FC01E40FF11D47FDDE
:103B4000FA9562830895089520E030E0FC01E20FC9
:103B5000F31F4281461301C012822F5F3F4F263070
:103B60003105A1F708950C94871D0C94A41D20E045
:103B700030E0FC01E20FF31F11822F5F3F4F27302F
:103B80003105B9F7089580914602843021F11092F1
:103B9000230220E488E190E00FB6F894A895809382
:103BA00060000FBE2093600080E00E94C30D83B7C9
:103BB000817F846083BF83B7816083BF7894889559
:103BC00083B78E7F83BF88E10FB6F894809360003F
:103BD000109260000FBE089508950895CF930E943B
:103BE000EC1D0E9477080E94ED1DC0E08C2F0E9402
:103BF000C208811105C0CF5FCA30C1F780E001C0A3
:103C000081E0CF9108950E9423170E949F110C9488
:103C1000C30D1F920F920FB60F9211248F939F9393
:103C2000AF93BF9380912302811113C080913C0216
:103C300090913D02A0913E02B0913F024196A11D9C
:103C4000B11D80933C0290933D02A0933E02B0933D
:103C50003F02BF91AF919F918F910F900FBE0F9038
:103C60001F90189582E084BD93E095BD9AEF97BDB3
:103C700080936E0008952FB7F89480913C02909144
:103C80003D02A0913E02B0913F022FBF0895CF9216
:103C9000DF92EF92FF920F931F932FB7F89440910A
:103CA0003C0250913D0260913E0270913F022FBF55
:103CB0006A017B01EE24FF248C0120E030E0C01675
:103CC000D106E206F30610F441505109481B590B86
:103CD000CA011F910F91FF90EF90DF90CF90089550
:103CE00078941F920F920FB60F9211248F939F9387
:103CF000AF93BF9380913C0290913D02A0913E0210
:103D0000B0913F020196A11DB11D80933C0290939A
:103D10003D02A0933E02B0933F02BF91AF919F91AD
:103D20008F910F900FBE0F901F90189587E797E720
:103D300090930108809300082AE088E190E00FB694
:103D4000F894A895809360000FBE20936000FFCF89
:103D50000E94561D811102C00E943C1D0E94611DDF
:103D6000809322020E946E1D90E090934102809306
:103D700040020E94651D682F70E080E090E00C9486
:103D8000631B8091260280FF0BC06091570185E084
:103D9000689FB001112475956795759567952AC040
:103DA00081FF09C06091570185E0689FB00111242F
:103DB000759567951FC082FF07C06091570185E028
:103DC000689FB001112416C0409127024423C9F016
:103DD00060915601461788F72091570185E0289F8A
:103DE00090011124429FC001439F900D112470E067
:103DF0000E94D5296038710540F46115710539F0CC
:103E000002C065E070E0862F08958FE7089581E095
:103E100008958091260280FF08C06091550170E0EE
:103E2000759567957595679521C081FF06C060916E
:103E3000550170E07595679519C082FF04C06091C7
:103E4000550170E010C0809127028823C1F0609175
:103E500054018617A0F790915501989FC001112435
:103E600070E00E94D5296038710528F4611571054C
:103E700021F0862F08958FE7089581E0089561E08D
:103E800070E0F4CF803F21F40E94C11E819504C0F0
:103E9000813F29F40E94C11E80932A020895823F27
:103EA00021F40E94C11E819504C0833F29F40E9421
:103EB000C11E809329020895893F19F40E94091FA9
:103EC00005C08A3F31F40E94091F819580932B021F
:103ED00008958B3F21F40E94091F819504C08C3FF7
:103EE00029F40E94091F80932C020895843F21F435
:103EF00080912802816017C0853F21F480912802BB
:103F0000826011C0863F21F48091280284600BC03A
:103F1000873F21F480912802886005C0883F31F4F2
:103F20008091280280618093280208958D3F21F4BA
:103F30008091260281600BC08E3F21F48091260281
:103F4000826005C08F3F29F48091260284608093AF
:103F500026020895803F39F480912A0287FF6CC0C1
:103F600010922A0269C0813F29F480912A02181612
:103F7000BCF362C090912902823F29F497FF5CC094
:103F80001092290259C0833F19F41916CCF354C07A
:103F9000893F41F480912B0218160CF04DC010920D
:103FA0002B024AC08A3F29F480912B0287FF44C02C
:103FB000F6CF8B3F39F480912C0287FF3DC01092E1
:103FC0002C023AC08C3F29F480912C021816BCF3C5
:103FD00033C0843F21F4809128028E7F17C0853F33
:103FE00021F4809128028D7F11C0863F21F48091B9
:103FF00028028B7F0BC0873F21F480912802877FA6
:1040000005C0883F31F4809128028F7E809328027A
:1040100013C08D3F21F4809126028E7F0BC08E3F0E
:1040200021F4809126028D7F05C08F3F29F4809175
:1040300026028B7F809326028091290281110EC077
:1040400080912A0281110AC080912B02811106C041
:1040500080912C02811102C010922702089588E2FB
:1040600092E00E94B6110E943B1E9093250280931D
:10407000240208951F93CF93DF938091240290919F
:1040800025020E94471E40912702442321F02091DF
:10409000580130E006C0209159015AE0259F900157
:1040A00011248217930708F46AC0809129021091A5
:1040B0002A02D0912B02C0912C02811107C011114C
:1040C00005C0D11103C0CC2309F459C04F3F19F0EA
:1040D0004F5F40932702181624F40E94C11E80935C
:1040E00029028091290287FF05C00E94C11E819587
:1040F00080932902111624F40E94C11E80932A0283
:1041000080912A0287FF05C00E94C11E819580937D
:104110002A0220912902222379F040912A02442385
:1041200059F055EB250390011124309329024503E2
:10413000C001112490932A021D1624F40E94091F25
:1041400080932B0280912B0287FF05C00E94091FDC
:10415000819580932B021C1624F40E94091F8093E2
:104160002C0280912C0287FF05C00E94091F8195B7
:1041700080932C02DF91CF911F910C942F20DF911F
:10418000CF911F910895E8E2F2E085E0DF011D92F2
:104190008A95E9F71092270210922602089583303B
:1041A00081F128F4813059F08230D1F008958530C2
:1041B00009F449C0B8F1863009F456C00895209139
:1041C0005901862F90E0820F911D8F3F910520F4B9
:1041D000620F6093590108958FEF809359010895FC
:1041E00020915801862F90E0820F911D8F3F9105FD
:1041F00020F4620F6093580108958FEF8093580167
:10420000089520915701862F90E0820F911D8F3FD6
:10421000910520F4620F6093570108958FEF80930A
:104220005701089520915601862F90E0820F911D2D
:104230008F3F910520F4620F6093560108958FEF30
:1042400080935601089520915501862F90E0820FAA
:10425000911D8F3F910520F4620F609355010895E1
:104260008FEF80935501089520915401862F90E09F
:10427000820F911D8F3F910520F4620F60935401CE
:1042800008958FEF809354010895833011F128F43D
:10429000813049F0823091F00895853081F120F12C
:1042A0008630C1F1089580915901681720F4861B6A
:1042B00080935901089510925901089580915801F1
:1042C000681720F4861B80935801089510925801B6
:1042D000089580915701681720F4861B8093570139
:1042E000089510925701089580915601681720F49F
:1042F000861B80935601089510925601089580916F
:104300005501681720F4861B80935501089510927B
:104310005501089580915401681720F4861B8093FD
:10432000540108951092540108958732F8F48E31A3
:1043300008F085C08E3009F465C048F4873009F470
:1043400047C08B3009F491C0863051F127C08631C7
:1043500009F48BC020F4803109F45EC01FC089319C
:1043600009F483C08B3109F443C018C0883309F4C1
:104370007CC050F4893209F470C0853309F46DC0F3
:10438000873209F46AC00AC0833409F466C020F495
:104390008A3308F052C002C0883461F080E008958A
:1043A00080912202817F8E7F8093220281E0809320
:1043B0002E0208950E9423172FEF83ED90E32150E2
:1043C00080409040E1F700C000000E94961E4DC062
:1043D00090912202892F8095817080FB90F99093B3
:1043E0002202811142C0997F977F909322023DC0A3
:1043F0009091220291FB882780F921E0822780FB9F
:1044000091F913C09091220292FB882780F921E054
:10441000822780FB92F909C09091220293FB8827A2
:1044200080F921E0822780FB93F990932202882370
:10443000E1F0916090932202089527EC01C023EEF1
:10444000280F61E070E080E090E004C0660F771F05
:10445000881F991F2A95D2F704C061E070E080E0C0
:1044600090E00E94631B0E94231781E0089580E082
:10447000089580E008958E518A3030F4E82FF0E0FE
:10448000EB58FE4F8081089580E00895CF93C82FA8
:1044900080912E02813069F018F08230B1F180C035
:1044A000E0915201F09153018081823209F07AC08B
:1044B00007C0E0915201F09153018081823249F4AA
:1044C0008C2F0E94372281111DC08C2F0E949521B4
:1044D0001AC08C2F0E943922811114C0C43179F086
:1044E00048F4CB3079F0C03109F060C082E08093AD
:1044F0002E0208C0C93219F0C83321F057C01092FB
:104500002E0254C081E0817053C0C93289F118F580
:10451000C43171F1B0F4C73009F046C08EE1809328
:10452000590182E3809358018AE08093570184E126
:104530008093560188E08093550188E2809354016E
:1045400033C082EE8C0F863078F58C2F0E943B2290
:1045500080932D0229C0CE34E9F020F4CB3421F52C
:104560006AE013C0C13579F0C235F1F461E00DC0E5
:1045700080912D02882319F010922D0215C081E040
:1045800080932E0215C061E006C080912D020E942A
:10459000CF200AC06AE080912D020E94452104C00C
:1045A00010922E0280E004C081E002C080E0ABCF18
:1045B000CF9108958091370208950F931F93CF9361
:1045C000DF9300D01F92CDB7DEB78C010E94292562
:1045D000823011F0843019F583E089831B830A83CC
:1045E0008093E9008FEF9091E800815095FD06C01F
:1045F00095ED9A95F1F700008111F5CF8091E800D3
:1046000085FF0DC040E050E063E070E0CE01019610
:104610000E9446258091E8008E778093E8000F90F5
:104620000F900F90DF91CF911F910F910895CF932D
:10463000DF9300D01F92CDB7DEB720914602243021
:1046400031F522E02983805891099B838A8383E096
:104650008093E9008FEF9091E800815095FD06C0AE
:1046600095ED9A95F1F700008111F5CF8091E80062
:1046700085FF0DC040E050E063E070E0CE010196A0
:104680000E9446258091E8008E778093E8000F9085
:104690000F900F90DF91CF910895CF93DF93EC01AE
:1046A0000E942925823011F08430F9F482E0809351
:1046B000E9008FEF9091E800815095FD06C095EDDF
:1046C0009A95F1F700008111F5CF8091E80085FF00
:1046D0000CC040E050E065E070E0CE010E9446254D
:1046E0008091E8008E778093E800DF91CF91089564
:1046F000CF93DF93EC010E942925823011F08430A2
:1047000039F581E08093E9008FEF9091E8008150C6
:1047100095FD06C095ED9A95F1F700008111F5CF52
:104720008091E80085FF14C040E050E068E070E050
:10473000CE010E9446258091E8008E778093E800A4
:1047400088E0FE01AFE2B2E001900D928A95E1F7B8
:10475000DF91CF91089580914502811109C00E9497
:10476000D8260E9435278091E20084608093E20081
:104770000895109245020895089508950C94031E1B
:1047800042E061EC81E00E94522642E061EC82E06E
:104790000E94522642E061EC83E00C945226809104
:1047A0004802833009F453C030F4813071F0823014
:1047B00009F48CC008958A3009F478C08B3009F46C
:1047C0005EC0893009F09AC020C080914702813ACA
:1047D00009F094C08091E800877F8093E800809181
:1047E0004B0290914C02892B21F060E080E090E038
:1047F00003C068E08FE292E070E00E948F25809114
:10480000E8008B778093E800089580914702813219
:1048100009F074C080914B0290914C02892B09F0F1
:104820006DC08091E800877F8093E8008091E80068
:1048300082FD05C0809146028111F8CF5FC0809152
:10484000F100809337028091E8008B7753C080910C
:104850004702813A09F052C080914B0290914C027C
:10486000892B09F04BC08091E800877F8093E80096
:104870008091E80080FFFCCF8091640136C0809178
:1048800047028132D9F580914B0290914C02892BDD
:10489000A9F58091E800877F8093E8000E94872631
:1048A00080914902809364010C9423178091470200
:1048B000813221F58091E800877F8093E8000E9493
:1048C000872680914A02809338020895809147029A
:1048D000813AA1F48091E800877F8093E80080917D
:1048E000E80080FFFCCF809138028093F100809136
:1048F000E8008E778093E8000C948726089584B7AB
:10490000877F84BF88E10FB6F8948093600010928F
:1049100060000FBE80E880936100109261000E94E9
:10492000ED110E94D8260E9435278091E200846014
:104930008093E20078940E94B8290E94F1118AE5E0
:1049400091E00E949A1180914602853069F40E949C
:10495000C31D809144028823B1F30E94EE1D882379
:1049600091F30E943025EFCF0E94F711ECCF0C9409
:10497000B924292F332723303105A9F06CF42130D5
:10498000310509F448C02230310509F049C084E5F9
:1049900090E020ED3CE048C021323105F9F02232B0
:1049A000310549F13DC099278130910571F02CF412
:1049B000892BB1F5ECECFCE00DC08230910541F0A3
:1049C000039771F5EEE8FCE005C0ECEAFCE002C0FC
:1049D000E4E9FCE0849190E09F0126C0633071051A
:1049E000F8F4FB01EE0FFF1FE857FE4F20813181E5
:1049F00089E090E019C06330710590F4FB01EE0F7F
:104A0000FF1FEE57FE4F20813181FB01E158FE4F21
:104A1000808190E009C082E190E024E23DE004C0A2
:104A200080E090E020E030E0FA01318320830895B7
:104A30000895CF93C82F0E941825C0933902CF91B3
:104A4000089580914602843011F482E0089581E057
:104A5000089580913902811102C00C942125089596
:104A600080E189BD82E189BD09B400FEFDCF80915E
:104A7000D8008F7D8093D8008091E0008260809381
:104A8000E0008091E00081FDFCCF0895CF92DF929D
:104A9000EF92FF920F931F93CF93DF937C018B01D3
:104AA000EA010E94A826811131C0209731F0888147
:104AB0009981081B190BE80EF91EC12CD12C011588
:104AC000110519F18091E80085FD14C08091E8007E
:104AD0008E778093E800209741F0888199818C0D32
:104AE0009D1D9983888385E011C00E94A826882394
:104AF00031F30CC0F70181917F018093F1000150E7
:104B00001109FFEFCF1ADF0ADACF80E0DF91CF91F2
:104B10001F910F91FF90EF90DF90CF90089520911B
:104B20004D0230914E022617370748F06115710586
:104B300039F42091E8002E772093E80001C0B901F4
:104B4000FC0120E061157105B9F1809146028823CE
:104B500009F440C0853009F43FC08091E80083FD2E
:104B60003DC08091E80082FF06C08091E80082FF8E
:104B700026C080E008958091E80080FFE3CF209177
:104B8000F3008091F20090E0922B6115710551F0D5
:104B90008830910538F421912093F100615071091A
:104BA0000196F3CF21E0089709F020E08091E8001A
:104BB0008E778093E800C6CF2111C7CFD6CF8091E2
:104BC0004602882339F0853039F08091E80083FF70
:104BD000CCCF04C082E0089583E0089581E0089579
:104BE00020914D0230914E022617370748F061158B
:104BF000710539F42091E8002E772093E80001C078
:104C0000B901FC0120E061157105C1F180914602F6
:104C1000882309F441C0853009F440C08091E80040
:104C200083FD3EC08091E80082FF06C08091E800CD
:104C300082FF27C080E008958091E80080FFE3CFE5
:104C40002091F3008091F20090E0922B61157105A4
:104C500059F08830910540F424912093F100319669
:104C6000615071090196F2CF21E0089709F020E028
:104C70008091E8008E778093E800C5CF2111C6CFE0
:104C8000D5CF80914602882339F0853039F0809164
:104C9000E80083FFCBCF04C082E0089583E008954D
:104CA00081E00895982F973058F59093E900981770
:104CB00039F07091EC002091ED005091F00003C0AC
:104CC000242F762F50E021FF19C03091EB003E7F5A
:104CD0003093EB003091ED003D7F3093ED0030914B
:104CE000EB0031603093EB007093EC002093ED000B
:104CF0005093F0002091EE0027FF07C09F5FD3CFB5
:104D00008F708093E90081E0089580E0089580919C
:104D1000470287FD05C08091E80080FF0EC012C0E9
:104D20008091E80082FD05C0809146028111F8CF94
:104D300008958091E8008B7708C080914602811128
:104D4000EACF08958091E8008E778093E800089577
:104D50008091E4009091E50045E62091EC0020FF71
:104D600021C02091E80020FD21C02091460222238D
:104D700089F0253089F02091EB0025FD0FC02091AE
:104D8000E4003091E5002817390739F3415041F02C
:104D9000C901E3CF82E0089583E0089581E008959A
:104DA00084E008952091E80022FFDFCF80E008959D
:104DB0000E9446270E944E27E0EEF0E0808181604D
:104DC0008083E8EDF0E080818F77808319BCA7EDC8
:104DD000B0E08C918E7F8C9380818F7E8083109247
:104DE000450208950F931F93CF93DF930E944627A8
:104DF0000E944E27C8EDD0E088818F778883888114
:104E00008068888388818F7D888319BC10924602D0
:104E100010924202109244021092430200EE10E0FF
:104E2000F80180818B7F808388818160888342E064
:104E300060E080E00E945226E1EEF0E080818E7F0B
:104E40008083E2EEF0E080818160808380818860F1
:104E50008083F80180818E7F808388818061888350
:104E6000DF91CF911F910F910895E8EDF0E08081DF
:104E70008F7E8083E7EDF0E080818160808384E035
:104E800082BF81E0809345020C94F226E8EDF0E0C9
:104E900080818E7F80831092E20008951092DA0064
:104EA0001092E10008951F920F920FB60F921124F5
:104EB0002F933F934F935F936F937F938F939F9322
:104EC000AF93BF93EF93FF938091E10082FF0BC0FC
:104ED0008091E20082FF07C08091E1008B7F809388
:104EE000E1000E94B7298091DA0080FF1FC0809105
:104EF000D80080FF1BC08091DA008E7F8093DA009B
:104F00008091D90080FF0DC080E189BD82E189BD1B
:104F100009B400FEFDCF81E0809346020E94AB23DE
:104F200005C019BC109246020E94B9238091E1008D
:104F300080FF19C08091E20080FF15C08091E200DF
:104F40008E7F8093E2008091E20080618093E20096
:104F50008091D80080628093D80019BC85E080934E
:104F600046020E94BD238091E10084FF30C0809101
:104F7000E20084FF2CC080E189BD82E189BD09B4D3
:104F800000FEFDCF8091D8008F7D8093D800809166
:104F9000E1008F7E8093E1008091E2008F7E80931C
:104FA000E2008091E20081608093E2008091420201
:104FB000882311F084E007C08091E30087FF02C0DE
:104FC00083E001C081E0809346020E94BE2380916D
:104FD000E10083FF29C08091E20083FF25C080911A
:104FE000E100877F8093E10082E080934602109287
:104FF00042028091E1008E7F8093E1008091E20087
:105000008E7F8093E2008091E20080618093E200D5
:1050100042E060E080E00E9452268091F0008860CB
:105020008093F0000E94BC23FF91EF91BF91AF915C
:105030009F918F917F916F915F914F913F912F91B0
:105040000F900FBE0F901F9018951F920F920FB6E2
:105050000F9211242F933F934F935F936F937F93FE
:105060008F939F93AF93BF93CF93EF93FF93C09191
:10507000E900CF708091EC001092E9008091F0007F
:10508000877F8093F00078940E9461281092E90055
:105090008091F00088608093F000C093E900FF9158
:1050A000EF91CF91BF91AF919F918F917F916F9130
:1050B0005F914F913F912F910F900FBE0F901F90D6
:1050C00018951F93CF93DF93CDB7DEB7AA970FB68E
:1050D000F894DEBF0FBECDBFE7E4F2E08091F100AF
:1050E000819322E0EF34F207C9F70E94CF23809129
:1050F000E80083FF24C12091470230914802832FAA
:1051000090E08A30910508F01AC1FC01E555FF4F87
:105110000C94E929203821F0223809F010C108C088
:105120008091430290914402992389F082600FC0DC
:1051300080914B028F70873008F001C18093E900A5
:105140008091EB0085FB882780F91092E90090910F
:10515000E800977F9093E8008093F1001092F100AF
:10516000CCC0822F8D7F09F0EAC0222319F02230B3
:1051700061F0E5C080914902813009F0E0C0333030
:1051800009F080E0809344022AC080914902811195
:1051900026C020914B022F708FEF820F863008F0CF
:1051A000CEC02093E9008091EB0080FF18C0809171
:1051B000EB00333011F4806210C080618093EB000B
:1051C00081E090E001C0880F2A95EAF78093EA0019
:1051D0001092EA008091EB0088608093EB001092BF
:1051E000E9008091E800877F8093E8000E9487268D
:1051F000A6C02111A4C0109149021F778091E3003D
:105200008078812B8093E3008091E800877F8093F2
:10521000E8000E9487268091E80080FFFCCF809103
:10522000E30080688093E300112311F083E001C064
:1052300082E08093460283C02058223008F07FC06D
:105240008091490290914A028C3D23E0920779F5C2
:1052500083E08A838AE289834FB7F894DE0113964C
:1052600020E03EE051E2E32FF0E050935700E4915C
:1052700020FF03C0E295EF703F5FEF708E2F90E04C
:10528000EA3010F0C79601C0C0968D939D932F5FB2
:10529000243149F74FBF8091E800877F8093E80071
:1052A0006AE270E0CE0101960E948F2515C06091E0
:1052B0004B0270914C02AE014F5F5F4F0E94B724CA
:1052C0000097E9F12091E800277F2093E800BC01D6
:1052D00089819A810E94F0258091E8008B778093E4
:1052E000E8002DC0203859F58091E800877F809331
:1052F000E800809142028093F1008091E8008E776F
:1053000073CF21111CC0909149029230C0F480915A
:10531000E800877F8093E800909342020E948726EE
:1053200080914202811104C08091E30087FF02C096
:1053300084E001C081E0809346020E94C0238091F6
:10534000E80083FF0AC08091E800877F8093E8002F
:105350008091EB0080628093EB00AA960FB6F894E0
:10536000DEBF0FBECDBFDF91CF911F91089508958D
:10537000CF93809146028823B1F08091E9008F702D
:105380009091EC0090FF02C090E801C090E0C92F1E
:10539000C82B1092E9008091E80083FD0E946128EB
:1053A000CF70C093E900CF91089597FB072E16F4B4
:1053B000009407D077FD09D00E94EF2907FC05D0A3
:1053C0003EF4909581959F4F0895709561957F4F1C
:1053D0000895EE0FFF1F0590F491E02D0994AA1B8C
:1053E000BB1B51E107C0AA1FBB1FA617B70710F0D0
:1053F000A61BB70B881F991F5A95A9F78095909502
:10540000BC01CD010895F999FECF92BD81BDF89AF6
:10541000992780B50895A8E1B0E042E050E00C94EF
:105420002B2A262FF999FECF92BD81BDF89A0197BC
:1054300000B4021639F01FBA20BD0FB6F894FA9ADC
:10544000F99A0FBE08950196272F0E94122A0C94F4
:10545000112ADC01CB01FC01F999FECF06C0F2BD97
:10546000E1BDF89A319600B40D9241505040B8F722
:065470000895F894FFCF3F
:105476000100001F0A0000000000000000000000FC
:10548600000000000000002F0A00000000000000DD
:1054960000000000000000000000004D0A000000AF
:1054A6000000000000000000000000000000003FB7
:1054B6000A000000000000000000000000000000DC
:1054C60000FF17022808140A321EDA2278234D2319
:1054D6001723DD22013534C697660036323331F79D
:1054E6000000000000010203040506070809004049
:0E54F6004D36B90D6C0D360DE20CFB0C140D8D
:00000001FF
