:100000000C946A070C94BD090C94B1070C94B107C9
:100010000C94B1070C94B1070C94B1070C94B10780
:100020000C94B1070C94B1070C94D4260C94A82717
:100030000C94A81D0C94B1070C94B1070C94B10753
:100040000C94B1070C94B1070C94B1070C94B10750
:100050000C94B1070C940E1E0C94B1070C94B107CC
:100060000C94B1070C94B1070C94B1070C94B10730
:100070000C94B1070C94B1070C94B1070C94B10720
:100080000C94B1070C94B1070C94B1070C94B10710
:100090000C94B1070C94B1070C94B1070C94B10700
:1000A0000C94B1070C94B1070C94B10701E301E083
:1000B000014F024F02E002E30001E301E0015002C0
:1000C0005002E002E30001E30115021574FF02E3B0
:1000D00074FF010602060110021001070207012841
:1000E000022874FF01130213010C020C011102110A
:1000F000010A020A012C022C01E00119021902E096
:100100000001E30115021502E301060206011002D7
:1001100010010702070128022874FF74FF010C0276
:100120000C01130213010602060112021201110250
:100130001101090209010C020C010A020A012C0238
:100140002C0138023801040204010F020F010F02D2
:100150000F012802280001E30115021574FF02E3D4
:1001600074FF0106020601100210010702070128B0
:1001700002280001E0010402040106020602E00078
:1001800001E00119021902E00001E0010602060285
:10019000E000757365726E616D65012B706173733C
:1001A000012B012800750A012B022B010C020C0106
:1001B000110211012B022B01280228012B022B0115
:1001C0002B022B012B022B010C020C01110211013D
:1001D0002B022B0128022800750A012B022B011289
:1001E000021201170217012B022B01280228012BF2
:1001F000022B012B022B012B022B011D021D0115CD
:100200000215012B022B0128022800750A012B027E
:100210002B0112021201130213012B022B012802DF
:1002200028012B022B012B022B012B022B011D027B
:100230001D01150215012B022B01280228006970EF
:10024000636F6E666967202F616C6C0000750A0130
:1002500027022701060206012B022B012B022B018C
:10026000040204012B022B00011B021B00750A0172
:10027000E001170217011902190128022802E00003
:100280007777772E737570706F72742E7865726FD2
:10029000782E636F6D012800656D61696C00750AC9
:1002A000010402040107020701100210010C020CF4
:1002B00001110211744B012B022B011E021E011EA3
:1002C000021E011E021E011E021E0128022800013C
:1002D000E3012B022B02E3002B0014001A0008009C
:1002E00015001700280004001600070009000A0086
:1002F000E1001D001B000600190005004D004A002A
:10030000E2002961000000004C002A00000000000B
:10031000000000003100130012000C0018001C0047
:10032000340033000F000E000D000B00E500380014
:1003300037003600100011004E004B00E300E400CF
:100340000000000028002C00000000000000000059
:10035000000000000000000000000000000000009D
:1003600000000000000000002B0014001A0009002B
:1003700013000A00280004001500160017000700EB
:10038000E1001D001B000600190005004D004A0099
:10039000E2002961000000004C002A00000000007B
:1003A00000000000310033001C0018000F000D0099
:1003B000280012000C00080011000B003500380066
:1003C0003700360010000E004E004B00E300E40042
:1003D0000000000028002C000000000000000000C9
:1003E000000000000000000000000000000000000D
:1003F00000000000000000002B0034003600370031
:1004000013001C00280004001200080018000C0053
:10041000E100330014000D000E001B004D004A00E7
:10042000E2002961000000004C002A0000000000EA
:100430000000000031000F00150006000A0009004E
:1004400038001600110017000B00070035001D00D2
:1004500019001A00100005004E004B00E300E400F4
:100460000000000028002C00000000000000000038
:10047000000000000000000000000000000000007C
:100480000000000000000000010001000330023005
:1004900001000F30010006300100010001000100E1
:1004A000005C010001300100010001000030460045
:1004B0004E004B0000000000E1002A000000000098
:1004C0000000000001000A300100010001000100ED
:1004D000010001000B30520001000100005C01002E
:1004E0004F00510050000100DE5C4C004A004D00FE
:1004F0000000000028002C000000000000000000A8
:1005000000000000000000000000000000000000EB
:10051000000000000000000025001E0003301E0047
:100520001E001E0025001E001E001E001E001E00D4
:10053000005C1E001E001E001E001E000030460053
:100540004E004B0000000000E1002A000000000007
:1005500000000000000056002300220021000000DF
:100560000000570020001F001E000000005C00007B
:100570003700270027000000DE5C4C004A004D00D9
:100580000000000028002C00000000000000000017
:10059000000000000000000000000000000000005B
:1005A00000000000000000000100200020002000EA
:1005B00020002000010001005200010001000100A4
:1005C0000100500051004F000100010000304600C2
:1005D0004E004B0000000000DD5C2A00000000001F
:1005E0000000000001000100010001000100010005
:1005F0000100520001000100010001004F00510004
:100600005000010001000100DE5C4C004D004A007A
:100610000000000028002C00000000000000000086
:1006200000000000000000000000000000000000CA
:1006300000000000000000000000000000000000BA
:1006400000000000000000000000000000000000AA
:10065000000000000000000000000000000000009A
:100BD00000000000000000000100DB5CDC5CDA5C6F
:100BE000C15CC45C0100DB5C01001D5C1E5C135C2D
:100BF000010001000100DA5C0100010001000100B8
:100C000001000100000000000100010000000000E0
:100C1000000000000100C75CC85CC55CC65CC35C2A
:100C200001000100DC5CDA5CDB5C0A5C005C01005A
:100C300001000100010001000100010001000100AC
:100C400000000000010001000000000000000000A2
:100C50000000000000000000000000000000000094
:100C60000000000000000000000000000000000084
:100C70002A2B2800000000000000000000000000F7
:100C800000000029000000002C1E34202122243402
:100C90002627252E362D3738271E1F2021222324D4
:100CA00025263333362E37381F0405060708090A70
:100CB0000B0C0D0E0F101112131415161718191A0C
:100CC0001B1C1D2F3130232D350405060708090A8A
:100CD0000B0C0D0E0F101112131415161718191AEC
:100CE0001B1C1D2F3130354C00000000000000009F
:100CF00000000000000000000000000000000000F4
:100D000000000000000000000001010101010100DD
:100D100001010101000000000000000000000000CF
:100D200000000100010001010101010101010101B7
:100D300001010101010101010101010101010101A3
:100D4000010101000000010100000000000000009E
:100D50000000000000000000000000000000000093
:100D6000000000010101010004033000000016032F
:100D7000520065006E00740061006C0020004300AA
:100D80006100720000001E032F0075002F00630039
:100D9000720079007300740061006C0068006100EB
:100DA0006E006400000004030904090254000301FA
:100DB00000A0FA090400000103010100092111014A
:100DC00000012240000705810308000A0904010010
:100DD0000103010200092111010001224D00070554
:100DE000820308000A09040200010300000009212F
:100DF000110100012236000705830308000A1201D1
:100E0000100100000008EDFE603001000102030146
:100E100005010980A10185021601002603001A813F
:100E2000002A8300751095018100C0050C0901A1FD
:100E3000018503160100269C021A01002A9C0275F6
:100E40001095018100C005010902A1010901A1005D
:100E5000050919012905150025019505750181026E
:100E60009501750381010501093009311581257F3F
:100E700095027508810609381581257F9501750849
:100E80008106050C0A38021581257F9501750881B8
:100E900006C0C005010906A101050719E029E715EB
:100EA00000250195087501810295017508810105EC
:100EB00008190129059505750191029501750391A0
:100EC000010507190029FF150026FF009506750882
:100ED0008100C00011241FBECFEFDAE0DEBFCDBF1E
:100EE00004B603FE27C08091580290915902A09148
:100EF0005A02B0915B028730904BA740B04BD1F4BF
:100F0000109258021092590210925A0210925B02EB
:100F100014BE84B7877F84BF0FB6F894A8958091DC
:100F20006000886180936000109260000FBEE0E076
:100F3000F8E3099511E0A0E0B1E0EEE3F4E502C0CA
:100F400005900D92A039B107D9F722E0A0E9B1E0F0
:100F500001C01D92A835B207E1F70E9401240C944C
:100F6000BE290C9400000C94480B80912B028B60DE
:100F700080932B02ABE6B1E061E070E08D91E82F49
:100F8000E295EF70F0E041A18F709B0101C0220F4C
:100F90008A95EAF7922F9095942391A382A1822BB0
:100FA00082A381E0A137B80749F7A5E6B1E061E087
:100FB00070E08D91E82FE295EF70F0E041A18F7025
:100FC0009B0101C0220F8A95EAF7922F90959423F6
:100FD00091A382A1822B82A381E0AB36B80749F7A7
:100FE000559A209AE0E9F1E0ADE9B1E08CE991E0B1
:100FF00011921D928E179F07D9F70C94E40D3F9222
:101000004F925F926F927F928F929F92AF92BF9218
:10101000CF92DF92EF92FF920F931F93CF93DF93C4
:1010200000D000D0CDB7DEB7809100018111B0C0F3
:1010300086E090E09A83898309811A8103561E4FC6
:101040008BE6E82E81E0F82E6801AA24A394B12C47
:101050008824839424E0922ED6016D906D01FD01C9
:101060001292FC83EB83D7018D917D01E82FE295ED
:10107000EF70F0E091A18F70B50101C0660F8A9505
:10108000EAF7892F862B81A382A1762E709487217F
:1010900082A3B0EABA95F1F745E651E090E080E02E
:1010A000DA015D90AD01252D22952F7030E0D90138
:1010B00090963C90AB81BC814C90352D3F70D50112
:1010C00002C0AA0FBB1F3A95E2F79D01232109F048
:1010D00062C02A2D082E01C0220F0A94EAF72429A3
:1010E000AB81BC812C93019686309105C9F681A114
:1010F000782271A282A1682B62A38C91681659F0A4
:101100008092A9010E94D81D9093AB018093AA01FF
:101110008BB189258BB9B1E7EB16B1E0FB0609F07D
:101120009BCF8091A9018823E1F08091AA01909141
:10113000AB010E94E41D0697A0F0E981FA81E05717
:10114000FE4FFA83E98380E0D8019D918D01E9810A
:10115000FA819193FA83E9838F5F8630A9F7109221
:10116000A90181E00F900F900F900F90DF91CF9128
:101170001F910F91FF90EF90DF90CF90BF90AF90B5
:101180009F908F907F906F905F904F903F900895C9
:101190001A82198251CF20E0A2CFCF93DF938091A2
:1011A0000001D0E0C0E0882311F0C6E0D0E00E944A
:1011B000220A009789F4C057DE4F30E020E0F901A1
:1011C000E255FE4F408149932F5F3F4F2630310556
:1011D000B1F7DF91CF91089581E090E0FACFCF93FE
:1011E0000E94FF07C82F0E94CD08892BE1F05D986F
:1011F00080919C018F5F80939C01863078F0809174
:101200000001F0E0E0E0882311F0E6E0F0E0E057D4
:10121000FE4F86E090E011920197E9F70E94E60DFB
:101220008C2FCF9108955D9A10929C01F7CF0E9468
:10123000FF0780910001E6E0F0E0882311F0F0E084
:10124000E0E0E057FE4F90E080E02191DC01A25504
:10125000BE4F2C93019686309105B9F70895E82F7B
:10126000F0E0E057FE4F808108950895E8EDF0E04A
:101270008081806180838AE18A95F1F700C0809146
:10128000D900817008958EE090E00E94882991E055
:10129000811101C090E0909300010E9436098823DB
:1012A00021F00E94B009789408950E94CF1D0E94F9
:1012B000B409F9CF0E94B5070E941709FDCF0E941B
:1012C00043090E943609811102C00E945A090895FB
:1012D000509A08955098589A0895589A08950E94DF
:1012E0006A09489BFECF80E88A95F1F708950E942D
:1012F0006A0998E080E029B1880F2170822B20E8EC
:101300002A95F1F725E02A95F1F70000915099F719
:1013100008950F931F93CF93082F0E946809C8E088
:1013200010E0C15020F4CF911F910F910895C80192
:101330000C2E02C0959587950A94E2F780FF06C0AF
:101340000E946D0980E88A95F1F7EBCF5898FACFA3
:101350000E946809589880E88A95F1F70C946D0905
:101360000E9468090C946D090E946A09E89AE9E6EE
:10137000F0E080818C7F808308951F920F920FB6DA
:101380000F921124EF92FF921F932F933F934F934D
:101390005F936F937F938F939F93AF93BF93CF93FD
:1013A000DF93EF93FF930E94A809D0E0C0E010E024
:1013B000CE0182559E4F7C01FC0180810E948909EB
:1013C0000E94A809F7018081180F2196C630D10527
:1013D00079F7812F0E9489090E94A809F0E8FA95FF
:1013E000F1F780E48A95F1F70E9477098093AD01C7
:1013F0000E94A809D091AD010E947709C82F0E94D0
:10140000A8090E946A098091AC01DC17C9F08160CB
:101410008093AC01FF91EF91DF91CF91BF91AF919C
:101420009F918F917F916F915F914F913F912F91FC
:101430001F91FF90EF900F900FBE0F901F90189587
:101440008E7FE6CFEF92FF921F93CF93DF93F894B6
:101450000E946809589825E02A95F1F700000E943B
:101460006A090E946D0930E83A95F1F789B1182FA1
:10147000117080FF09C0789481E090E0DF91CF91F6
:101480001F91FF90EF9008950E946F09D0E0C0E097
:101490000E947709FE01E255FE4F7F0180830E9482
:1014A0006F09F7018081180F2196C630D10581F7A9
:1014B0000E947709C82F0E946F091C13DCCF80910E
:1014C000AD010E9489090E946F098091AD010E94BF
:1014D00089090E946F090E9468090E946D09789429
:1014E00090E080E0CBCF0C94470BFC0180818130F1
:1014F00021F489E891E00C945B1A823019F480E8B9
:1015000091E0F9CF83E791E0F6CFFC018081813053
:1015100021F486E591E00C945B1A823019F481E0A5
:1015200091E0F9CF86EC90E0F6CFFC01808181302C
:1015300021F489EB90E00C945B1A823019F48CEA68
:1015400090E0F9CF0895FC018081813031F488E387
:101550000E941B1388E30C94F61381E30E941B1373
:1015600081E3F9CFCF93DF93EC010E94111DBE01FF
:1015700090E080E0DF91CF910C94E11ADC016031C2
:10158000C8F4E62FF0E0E054F64D0C946E29129664
:101590008C911297811163C012968C9112978111D0
:1015A00061C012968C911297882339F088E992E0F5
:1015B0000E947B0D90E080E0089512968C91129726
:1015C000882319F080E892E0F3CF12968C9112975D
:1015D00081114BC015968C911597982F907F12967C
:1015E0002C91222341F0992311F080FFE3CF83E077
:1015F0000E94431BDFCF992311F080FF39C083E0A5
:101600000E94641BD7CF12968C911297811133C020
:1016100012968C911297882319F08CE492E0C8CF2F
:1016200012968C911297882319F08EE392E0C0CF26
:1016300012968C911297811121C012968C9112975B
:1016400081111FC012968C91129781111DC01296A4
:101650008C91882309F4AECF82E991E0A9CF8FEC79
:1016600092E008958EE992E008958DE692E0089563
:1016700088E692E008958DE492E008958BE092E090
:10168000089588ED91E0089585EA91E00895089520
:101690000895CF93FB018C3D2CE5920751F158F44E
:1016A0008A3D2CE59207B1F08B3D9C45E1F0C1E00D
:1016B0008C2FCF9108958E3D2CE5920761F1F8F0C3
:1016C000803E9C45A1F7C28180E1CC2379F10E9444
:1016D000431B07C0C28182E090E0CC2349F30E9403
:1016E000B20AC0E0E5CFC28181E090E0CC2301F3F3
:1016F000F6CFC281CC23E1F284E090E0F0CFC2814A
:1017000083E0CC2359F00E94431B40E164E083E076
:101710000E94D20DE6CFC28184E0F3CF0E94641B09
:1017200040E164E083E00E94D20DC2CF0E94641BBE
:10173000BFCF81E008950C94490B0E94EB162FEF68
:1017400084E39CE0215080409040E1F700C000001D
:1017500087E797E790930108809300080C94321E66
:101760000F931F93CF93DF938C01FC01C081D18134
:10177000CE010E94DF1BBE010E94F00DEC01B801FA
:101780000E94F810B801CE010E949B0B882309F437
:1017900059C0B801CE010E943C11882309F452C0FF
:1017A000B801CE010E944B10882309F44BC0C5310B
:1017B000FCE5DF0709F427C1B0F4C130ECE5DE0732
:1017C00009F446C008F056C0C115DC45B1F181E00E
:1017D0008093B9018093BA01C801DF91CF911F9125
:1017E0000F910C94990BC53DECE5DE0709F4F0C0B0
:1017F000B8F4C33D8CE5D80709F4AEC0C43DDC4560
:1018000031F7F8018281882309F4CDC01092BA0122
:101810000E94D81D9093B8018093B70180E2A9C0BF
:10182000C83DFCE5DF07F1F0C93DDC4581F6F80174
:101830008281882339F082E01AC0F8018281811107
:101840000E949D0B80E0DF91CF911F910F91089531
:10185000F80182818823B1F380912B02816080930B
:101860002B02F0CFF8018281882361F380E00E948F
:101870009C24E8CFF8018281882309F4ADCF0E942F
:10188000FE1C811102C00E94E41C0E94161D90E003
:1018900090934A0280934902FE01E350FC458091F7
:1018A00049028160E231F10538F4E053F64D0C94C1
:1018B0006E29809149028260809349028091490299
:1018C0000E941A1D0E94EB16BDCF809149028460D0
:1018D000F3CF809149028860EFCF80914902806107
:1018E000EBCF809149028062E7CF8091490280640A
:1018F000E3CF809149028068DFCF809149028C60FC
:10190000DBCF809149028E7FD7CF809149028D7FB6
:10191000D3CF809149028B7FCFCF80914902877FBF
:10192000CBCF809149028F7EC7CF809149028F7DB6
:10193000C3CF809149028F7BBFCF809149028F77BF
:10194000BBCF80914902837FB7CF90914902892F05
:1019500097FB87F98058B0CFF8018281882361F026
:101960001092B9010E94D81D9093B6018093B501E1
:1019700082E00E94451466CF8091B90181110FC0A9
:101980008091B5019091B6010E94E41D86399105C0
:1019900030F486E20E941B1386E20E94F61382E076
:1019A0000E944C144FCF8091BA0181110FC08091D9
:1019B000B7019091B8010E94E41D8639910530F479
:1019C00087E20E941B1387E20E94F61380E2E8CFB1
:1019D000F801828181111ACF8091BA018111F6CF6D
:1019E0008091B7019091B8010E94E41D863991055C
:1019F00068F780E20E944C1488E20E941B1388E280
:101A00000E94F6131FCF0E94A51CF8019281992312
:101A100081F08A7A91E009F490E09093B401811109
:101A200006C089E20E942E1C0E94721C0BCF85E327
:101A3000F9CF8091B401811104C089E20E94351C64
:101A4000F3CF85E3FBCFCF9390E0FC01E859F34F50
:101A5000C4918851934FFC018491882369F081EEF1
:101A60000E941B138C2F0E941B138C2F0E94F613B5
:101A700081EECF910C94F6138C2F0E941B138C2FA8
:101A8000F8CFFF920F931F93CF93DF938C01F62E25
:101A9000F8018491882349F1E8012196813049F4C5
:101AA000FE011491812F0E941B13812F0E94F613B7
:101AB00006C0823089F4FE0184910E941B138E01BE
:101AC0000F5F1F4F8F2D815018F3EFE9FFE0319723
:101AD000F1F700C00000F7CF833019F4FE018491C4
:101AE000E5CF0E94230DE801EACFDF91CF911F914E
:101AF0000F91FF90089560E00C94410D8F929F929A
:101B0000AF92BF92CF92DF92EF92FF920F931F930B
:101B10006B017C0181E090E0A0E0B0E04C015D0150
:101B200004C0880C991CAA1CBB1C4A95D2F7B501AD
:101B3000A4014C015D0104C0880C991CAA1CBB1CAB
:101B40002A95D2F7482959296A297B2904C0880F88
:101B5000991FAA1FBB1F0A95D2F78A019B010C216E
:101B60001D212E213F21041715072607370789F469
:101B70008C299D29AE29BF29BC01CD011F910F9150
:101B8000FF90EF90DF90CF90BF90AF909F908F909D
:101B9000089580959095A095B0958C219D21AE21BA
:101BA000BF21EACF0F93382F262F60911602709134
:101BB00017028091180290911902042F432F0E945E
:101BC0007E0D0F910C941D1B0C94730A0E949611AC
:101BD0000C94B30708950C94EA0D0C94EB0D089542
:101BE000972F70E026E0929F600D711D1124FB017C
:101BF00098E4899FE00DF11D1124EE0FFF1FE852BC
:101C0000FD4F859194910895FC01EE0FFF1FE85957
:101C1000F24F859194910895CF93DF930E94F00D38
:101C20000E94AC0FEC01811520E5920708F042C03C
:101C3000811530E4930708F007C1883E910528F527
:101C4000803E910508F09BC0883A910588F4853A5A
:101C5000910508F08AC08130910509F490C0009781
:101C600009F48DC0049708F08AC0D0E0C0E087C0B6
:101C70008D3B910508F487C0805C9109C03CD1057B
:101C8000A0F30E94040EEC017AC08115904250F43A
:101C9000C11581E0D80708F072C0C03FD10528F314
:101CA000D0656DC0C11590E3D90708F0C3C0CE015F
:101CB0009F70E7CF811525E5920758F5811534E52A
:101CC000930708F0F0C0811542E5940750F4C11560
:101CD00081E5D80708F4BBC0DC2FCC27C16FD06AE0
:101CE0004EC0982F969596959E0123703327C11567
:101CF000D34508F0C9C0C1E0D0E002C0CC0FDD1F61
:101D00002A95E2F720E2929FC0011124C82BD92B1B
:101D1000B9C0C11589E5D80780F4C11598E5D90780
:101D200008F0C6C0C11526E5D20708F09ECFDC2F0B
:101D3000CC27CC27DF71D06222C0CE01C1153AE595
:101D4000D30708F4BAC090568115904208F08DCFA1
:101D50008D2F8F710E94271090E0982F8827882759
:101D60009F719C012C2BE901E6CF853A910509F47E
:101D7000AEC0863A910509F0ADC0C2E8D0E4CE010C
:101D8000DF91CF910895883A910509F4A6C0893A68
:101D9000910509F4A5C08A3A910509F4A4C08B3ACB
:101DA000910509F4A3C08C3A910509F4A2C08B3BBC
:101DB000910509F4A1C08C3B910509F4A0C08D3AAE
:101DC000910509F49FC0803B910509F49EC08E3AAD
:101DD000910509F49DC08F3A910509F49CC0813B9F
:101DE000910509F49BC0823B910509F49AC0833B9D
:101DF000910509F499C0843B910509F498C0853B8D
:101E0000910509F497C0863B910509F496C0873B7C
:101E1000910509F495C0883B910509F494C0893B6C
:101E2000910509F493C08A3B910509F492C0C0E082
:101E3000D4E4A5CFCE019927D3FF03C0EC01D86C21
:101E40009ECFEC01D06C9BCFDF70D06A98CFCE01D3
:101E5000E4E096958795EA95E1F783702C2F269517
:101E60002695237090E2299F90011124382B8C2F06
:101E70008370C1E0D0E002C0CC0FDD1F8A95E2F78D
:101E8000C22BD32BDC687BCFC1E0D0E002C0CC0FEB
:101E9000DD1F2A95E2F730E2939FC0011124C82B81
:101EA000D92BDA686CCFD82FCC27C46FD06A67CF14
:101EB000DC2FCC27C06FD06A62CF34E0969587952F
:101EC0003A95E1F78F70CF70C06ED82FBECFC1E8C2
:101ED000D0E455CFC3E8D0E452CFC2EED4E44FCF24
:101EE000C9EED4E44CCFCAEED4E449CFC5EBD4E478
:101EF00046CFC6EBD4E443CFC3EBD4E440CFC4EB2E
:101F0000D4E43DCFC7EBD4E43ACFCCECD4E437CF24
:101F1000CDECD4E434CFC3E8D5E431CFCAE8D5E47E
:101F20002ECFC2E9D5E42BCFC4E9D5E428CFC1E256
:101F3000D6E425CFC3E2D6E422CFC4E2D6E41FCF55
:101F4000C5E2D6E41CCFC6E2D6E419CFC7E2D6E498
:101F500016CFCAE2D6E413CF8238910549F1B0F426
:101F60008133910509F462C048F48932910509F47E
:101F700056C08A32910509F460C0089585339105F1
:101F800009F446C08933910599F00895833E91057F
:101F900031F138F4803E910591F0823E9105B1F027
:101FA0000895863E910521F1873E910551F10895EE
:101FB000209149022370D9F080EE90E0089520919D
:101FC000490220FF14C089E390E00895209149025E
:101FD00022FF0DC024FD09C083EE90E008952091FA
:101FE000490222FD31C024FF02C090E080E0089544
:101FF0002091490223FFFBCF24FDF7CF87EE90E02D
:1020000008952091490223FFEECF86EE90E00895D7
:102010002091490225FFEBCF89E290E008952091BD
:10202000490225FFE4CF85E390E00895209149021D
:1020300026FFDDCF8AE290E008952091490226FF35
:10204000D6CF81E390E0089582EE90E008959091DC
:10205000490292FF06C0282F2871283069F4877F33
:10206000846093FF06C0282F2871283161F4877E91
:10207000846194FD877E0895282F2471243089F788
:102080008B7F8860EECF282F2471243191F78B7ECF
:102090008861EFCF08950F931F93CF938C01FB01BD
:1020A0008281811106C0C1E08C2FCF911F910F91C9
:1020B0000895C091C801C11125C006311C4599F78A
:1020C0000E944A1081E08093C8010E94D81D90931D
:1020D000C7018093C6011092BB011092BD011092FE
:1020E000BC011092BF011092BE011092C10110926A
:1020F000C0011092C3011092C2011092C50110924A
:10210000C401D2CF8091C6019091C7010E94E41D05
:102110008C32914040F68091BB01E82FF0E0EE0F49
:10212000FF1FE454FE4F118300838F5F8093BB0138
:10213000C0E0BACFCF93DF93EC0181E08F878F812E
:102140000E94A81C88850E94BB1C0E94721CEA8108
:10215000FB81309739F06A897B89CE010696DF9141
:10216000CF910994DF91CF910895EF92FF920F9351
:102170001F93CF93DF93EC018885811132C0EB80F0
:10218000FC8087E5F81A24E12E9DC0012F9D900D5B
:102190001124DC01AF5FBE4F1496ED91FC911597B1
:1021A000309731F052966D917C91895F9E4F0995E1
:1021B00084E18E9D80018F9D100D11240F5F1E4FB5
:1021C000F80187810E94AE1CF80180850E94C11C25
:1021D0000E94721C18821F8219861092CA011092E6
:1021E000C901DF91CF911F910F91FF90EF9008955A
:1021F000DF92EF92FF920F931F93CF93DF937C01B7
:10220000FB018281882391F0809151018F3F71F011
:10221000C1E0D1E010E000E0DD24D39480915101D1
:10222000082E000C990B8017910744F4DF91CF9191
:102230001F910F91FF90EF90DF9008958E8188237A
:10224000B9F089859A858E159F0539F48091C90169
:102250009091CA018E159F0559F0DD868F858111F9
:1022600003C0CE010E949A10CE0106960E94B510BE
:102270000F5F1F4F6496D2CFEF92FF920F931F9381
:10228000CF93DF937C0197558F3F910509F0D8F5E7
:1022900020915101022E000C330B2817390714F43A
:1022A00080935101FB01228134E1389F8001399FE5
:1022B000100D1124E801CF5FDE4F2E8792818E81B1
:1022C000992349F1FA86E9868F5F8E830E94D81D93
:1022D0009C878B870E94E11C8F830E94A51C8887A6
:1022E0000E94B81C9885892B8887E881F9813097EE
:1022F00031F06A897B89C801895F9E4F0995F09208
:10230000CA01E092C90181E0DF91CF911F910F9145
:10231000FF90EF9008958823B1F38F85882399F378
:10232000C801895F9E4F0E94B510EDCFEF92FF92DA
:102330000F931F93CF93DF938091510110E004E13D
:102340008F3FC1F5DF91CF911F910F91FF90EF90DB
:102350000895029FF001039FF00D1124EF5FFE4FDF
:10236000E088F188E114F10419F486E9E82EF12CF3
:10237000029FE001039FD00D1124CF5FDE4F8E81BD
:102380008823B9F08B859C850E94E41DE816F90628
:1023900080F4109F700111248F85811105C0C70141
:1023A0008F5F9E4F0E949A10C701895F9E4F0E94C7
:1023B000B5101F5F212F30E080915101082E000CD5
:1023C000990B821793072CF6BDCF9093D001809381
:1023D000CF010895E091CF01F091D001309721F025
:1023E0000190F081E02D099480E00895E091CF0103
:1023F000F091D001309721F00280F381E02D099413
:102400000895E091CF01F091D001309721F0048040
:10241000F581E02D099408952091CD013091CE01F0
:102420002817390771F09093CE018093CD01E09188
:10243000CF01F091D001309721F00680F781E02D97
:10244000099408952091CB013091CC0128173907C8
:1024500071F09093CC018093CB01E091CF01F0918A
:10246000D001309721F00084F185E02D0994089582
:102470000C945F0981E008950E94CF1D0E94B5076A
:102480000C94431EBF92CF92DF92EF92FF920F9374
:102490001F93CF93DF93CDB7DEB72A970FB6F8948B
:1024A000DEBF0FBECDBF0E94EF080E943A12882304
:1024B00009F471C082EDC82E81E0D82E10E000E052
:1024C000B02E802F0E942F09E82EF601F1906F01A7
:1024D000F81609F45AC080912B0281FD0E9435093B
:1024E00090E080E0FE242F2D30E0482FB901082E27
:1024F00002C0759567950A94E2F760FF41C08E832C
:10250000BF8281E090E06C0102C0CC0CDD1C4A95DA
:10251000E2F72E2D30E02C213D21232B09F480E021
:1025200088870E94D81D8160782F9A8789874E817D
:102530005F8168858A850E94EC12F801EE52FE4F99
:1025400080818C2580830E94D11F0E94EA11909186
:10255000D101891789F10E94EA118093D1012A964D
:102560000FB6F894DEBF0FBECDBFDF91CF911F91A4
:102570000F91FF90EF90DF90CF90BF900C94ED0DF6
:1025800001968630910509F0B0CF0F5F1F4F0C30D8
:10259000110509F095CF8FEF89838A831B820E94F2
:1025A000D81D8160782F9D838C8349815A816B81EE
:1025B0008D810E94EC12C7CF2A960FB6F894DEBF29
:1025C0000FBECDBFDF91CF911F910F91FF90EF9084
:1025D000DF90CF90BF900895CF93DF93CDB7DEB754
:1025E0002B970FB6F894DEBF0FBECDBF4F83588731
:1025F00069877A878B871E821D8285E0FE01379668
:10260000DE01119601900D928A95E1F749815A8178
:102610006B817C818D819E812B960FB6F894DEBFF5
:102620000FBECDBFDF91CF910C94C119FC01808109
:1026300091810C94211CCF93C82F882309F4D4C016
:102640008238C1F40E94EA1181FDCEC089E30E9464
:102650002E1C0E94721C2FEF81EE94E021508040CE
:102660009040E1F700C0000089E30E94351CCF9143
:102670000C94721C8338A1F40E94EA1180FDB4C04E
:1026800083E50E942E1C0E94721C2FEF81EE94E0C5
:10269000215080409040E1F700C0000083E5E5CF85
:1026A0008438A1F40E94EA1182FD9EC087E40E9452
:1026B0002E1C0E94721C2FEF81EE94E0215080406E
:1026C0009040E1F700C0000087E4CFCF8CEF8C0F83
:1026D000813A48F48C2F0E94D321811185C08C2F20
:1026E0000E942E1CC4CF80E28C0F883048F4C77043
:1026F00081E001C0880FCA95EAF70E94A81CB7CFF5
:102700008BE58C0F833068F481E890E0C53A31F0B6
:1027100083E890E0C63A11F482E890E0CF910C94FF
:102720000C1288E58C0F853108F05EC082EE90E0D7
:10273000C83A09F456C089EE90E0C93A09F451C08C
:102740008AEE90E0CA3A09F44CC085EB90E0CB3AAF
:1027500009F447C086EB90E0CC3A09F442C083EB21
:1027600090E0CB3BF1F184EB90E0CC3BD1F187EBF7
:1027700090E0CD3AB1F18CEC90E0C03B91F18DEC62
:1027800090E0CE3A71F183E891E0CF3A51F18AE8D6
:1027900091E0C13B31F182E991E0C23B11F184E962
:1027A00091E0C33BF1F081E292E0C43BD1F083E2DF
:1027B00092E0C53BB1F084E292E0C63B91F085E245
:1027C00092E0C73B71F086E292E0C83B51F087E2AD
:1027D00092E0C93B31F090E080E0CA3B11F48AE21C
:1027E00092E0CF910C942212CF910895882309F49E
:1027F0004BC0823871F40E94EA1181FF45C089E321
:102800000E942E1C0E94721C89E30E94351C0C94AD
:10281000721C833859F40E94EA1180FF35C083E5A9
:102820000E942E1C0E94721C83E5EFCF843859F45D
:102830000E94EA1182FF28C087E40E942E1C0E9499
:10284000721C87E4E2CF9CEF980F913AF0F290E28D
:10285000980F983050F4877091E001C0990F8A95D5
:10286000EAF7892F0E94AE1CD2CF9BE5980F9330D8
:1028700020F490E080E00C940C12885A853120F40A
:1028800090E080E00C9422120895882321F00E94A9
:10289000A81C0C94721C0895882321F00E94AE1C81
:1028A0000C94721C08958F929F92AF92BF92CF9218
:1028B000DF92EF92FF920F931F93CF93DF937C01F0
:1028C000D62FC72FFC01058102950F7012811111BF
:1028D0000E94C81C0E946B1CC82E882371F0112313
:1028E000B1F080E28D0F883090F082E00E94551C9C
:1028F0000E946B1C91E0C82EC926DC2ED2949FE06A
:10290000D922ED2DF0E0EE51F64D0C946E29C12C3C
:10291000F4CF0C2F0F70C07F11F00295007F1123B0
:10292000A9F0002359F080E28D0F883010F0D1110A
:1029300009C0802F0E94A81C0E94721C8D2F0E942B
:102940001B1314C0802F0E94BB1CF6CF8D2F0E943A
:10295000F613002359F080E28D0F883010F0D1116A
:1029600033C0802F0E94AE1C0E94721C98E0D916C2
:1029700039F0D91648F086E08D0D8F70823020F442
:102980000E94EA110E94ED0DCC2009F4D9C10E94E9
:10299000481C80FDD5C1F70112820E94421C0E9492
:1029A000431BC7010E94AD160E94421CDF91CF91CC
:1029B0001F910F91FF90EF90DF90CF90BF90AF905D
:1029C0009F908F900C94641B802F0E94C11CCCCFD1
:1029D000FC2FFF70BF2EC07FC03219F0B29480EF81
:1029E000B822DD2369F0D13049F1112391F10023A0
:1029F00051F1F701858180FFA1CF8F70858323C0BE
:102A0000112381F0011106C00E94E11C8B290E9454
:102A10004514ACCF0130C1F70E94E11C8B290E9404
:102A2000DB1CA4CF011106C00E94DE1C8B2D0E946E
:102A30004C149CCF013009F499CFF6CF112329F023
:102A4000063008F093CF8B2DE2CF053008F08ECF03
:102A5000EDCF002359F38D2F0E94F61387CF8C2FD3
:102A600086958695837069F0813009F07FCF8D2F30
:102A70009C2F9370111102C090E080E00E942212FE
:102A800075CF8D2F9C2F9370111102C090E080E0C4
:102A90000E940C126BCF112309F1D53F99F0D63F5C
:102AA000B9F0D43F49F4809143029091440281608F
:102AB00090934402809343028D2F0E94DF1E0E9458
:102AC000C61F54CF80914302909144028260F0CFA0
:102AD00080914302909144028460EACFD53F89F00F
:102AE000D63FA9F0D43F49F480914302909144022B
:102AF0008E7F90934402809343028D2F0E94471F44
:102B0000DECF80914302909144028D7FF2CF80917D
:102B10004302909144028B7FECCF8C2F837009F09D
:102B200047C0111123CF2D2F229526952770220FF4
:102B3000220F6D2F6F70862E912CB12CA12C022E9E
:102B400004C0880C991CAA1CBB1C0A94D2F760E034
:102B500070E0CB01D4FF0FC06FE070E080E090E048
:102B600004C0660F771F881F991F2A95D2F76095BA
:102B7000709580959095C695C695C370C23051F0FA
:102B800080F4682979298A299B29C13071F00E9433
:102B9000F51AECCE682979298A299B290E94071BFE
:102BA000E5CE0E94F51AC501B4010E94E31ADECEFB
:102BB0008695112311F08C2F8170882309F4D6CECD
:102BC0002D2F229526952770220F220F6D2F6F70C3
:102BD000862E912CB12CA12C022E04C0880C991C9D
:102BE000AA1CBB1C0A94D2F760E070E0CB01D4FFB2
:102BF0000FC06FE070E080E090E004C0660F771FC8
:102C0000881F991F2A95D2F76095709580959095A9
:102C1000C695C695C370C23051F080F468297929F1
:102C20008A299B29C13071F00E94BA1B9FCE682966
:102C300079298A299B290E94CC1B98CE0E94BA1B15
:102C4000C501B4010E94A81B91CEE0E2ED0FE53171
:102C500008F04DC0F0E0EE50F64D0C946E29DF7098
:102C60008C2F8F71112321F00E94431B8D2FCFCE0B
:102C70000E94641B8D2FDBCE112341F0053008F03C
:102C800075CE8C2F8F710E94871B70CE063008F096
:102C90006DCEF7CF8C2F8F71112339F00E94431B1B
:102CA00065CE8C2F8F711123C9F30E94641B5ECEF9
:102CB000112329F08C2F8F710E942E1B57CE0E945A
:102CC000291B54CE112349F0CF718C2F0E94431B36
:102CD00063E08C2F0E944C1C49CE81E00E94551C61
:102CE000023008F443CE82E00E94551C3FCE1123EF
:102CF00029F0011123CE8C2F8F71D0CF002369F0E2
:102D0000D93309F0A8CEFFEF27EE83E0F150204041
:102D10008040E1F700C000009ECE8C2F8F71C5CFA0
:102D20004C2F4F706D2FC7010E94BE0A0E945B1A84
:102D30001DCE4C2F4F706D2FC7010E94EF0D16CE88
:102D4000DF91CF911F910F91FF90EF90DF90CF9087
:102D5000BF90AF909F908F9008950F931F93CF9344
:102D6000DF93EC018B819C81892B29F088819981EB
:102D700089238F3F29F4DF91CF911F910F910895FF
:102D8000CE010E94B00B8823B1F3688179818A81DA
:102D90000E942B1C8C010E94DE1B0E94E01AB801CD
:102DA000CE01DF91CF911F910F910C9453140E948B
:102DB000C81C0E94D81C0E943C1C0E94721C0E94CD
:102DC0005B200E94C61F90E080E00E940C1290E001
:102DD00080E00C9422120E94B51C0C94D7160E941D
:102DE000211CE92FE295EF70E250EE3070F4F0E034
:102DF000E95FF54D0C946E29803F19F020F4803E78
:102E000020F481E00895843FE1F380E00895803E5E
:102E1000C0F3813FD1F7F5CF93FB882780F9089560
:102E2000CF93DF9300D000D00F92CDB7DEB70F90D5
:102E30000F900F900F900F90DF91CF910895CF9347
:102E4000DF9300D000D000D0CDB7DEB726960FB606
:102E5000F894DEBF0FBECDBFDF91CF9108951F93D1
:102E6000CF93DF93C091DE0116E08091DF018C13D8
:102E700004C0DF91CF911F910895D0E01C9FF00115
:102E80001D9FF00D1124E052FE4F4081518162815F
:102E90007381848195810E941F172196C770E5CFA9
:102EA0004091100250911102609112027091130230
:102EB00080911402909115020C941F172091DE014D
:102EC0009091DF0156E0291302C080E0089530E0C0
:102ED000529FF001539FF00D1124E052FE4F71817B
:102EE000761306C07081781303C07281741304C016
:102EF0002F5F3F4F2770E7CF81E008951F93CF9357
:102F0000DF9380911502807FC1F4809112028823A3
:102F1000A1F08091DE01C091DF01609110027091FB
:102F200011024091130250911402D62FD723DA01D7
:102F3000A095B09516E0C81304C0DF91CF911F9102
:102F4000089590E04115510511F0DF3F31F40196ED
:102F50008770F1CF2A0F3B1F17C0189FF001199FF0
:102F6000F00D1124E052FE4F21812713F0CF208174
:102F70002613EDCF22812111EACF2381348124173A
:102F8000350740F3241B350B2639310500F7209116
:102F900015022F7020612093150226E0289FF00172
:102FA000299FF00D1124EB51FE4F80818F708061BD
:102FB000808380E192E00E94AD16DF91CF911F9156
:102FC0000C942F179F92AF92BF92CF92DF92EF9205
:102FD000FF920F931F93CF93DF93CDB7DEB7619727
:102FE0000FB6F894DEBF0FBECDBF8C0185E0F801AF
:102FF000DE011D9601900D928A95E1F7D801DC90D3
:103000001196EC9011971296CC9012978091130222
:1030100090911402009709F492C12091100230910E
:103020001102422F43234F3F09F489C11396AD90FB
:10303000BC9090901202992009F422C1A816B906FA
:10304000E0F1F501E81BF90BCF01FF24F394863979
:10305000910508F0F12C80911502982F907FFF20A8
:1030600009F4C7C091118EC0FC2C3E112BC02D114C
:1030700029C0C11027C08F708061809315020E9403
:10308000501780E192E00E94AD1680911502D801A0
:1030900015968C938F2D61960FB6F894DEBF0FBEF8
:1030A000CDBFDF91CF911F910F91FF90EF90DF90F7
:1030B000CF90BF90AF909F900895809590958A0D86
:1030C0009B1DC3CFA114B10429F08E2D8D218F3FFC
:1030D00009F054C180E080FF16C04C2D6E2D8D2D5F
:1030E0000E945E17882379F080E192E00E94AD167D
:1030F00086E0E0E1F2E0DF011D928A95E9F70E94A7
:103100005017F12CC7CFAB2829F08E2D8D218F3F82
:1031100009F031C180E0B82FB170AB2E80FF29C01B
:103120004C2D6E2D8D2D0E945E17B82E811121C061
:10313000DD86EE868D859E850E94211C292F229595
:103140002F70223050F0243078F49F7051F0F80145
:103150009581907F31F4FB2C9DCF9F7011F08823D7
:10316000D1F3805E8830B8F3C8010E94AD16BA2C46
:10317000F2CFCC2009F48ECF80911502816080932C
:103180001502BFCF3E1106C02D1104C0D801CC20BE
:1031900009F49CC0DD86EE868D859E850E94EF1623
:1031A000882319F1CC2009F180911502803270F04A
:1031B000209110023091110238872F831986BB8627
:1031C000AA868C87CE0107960E94AD1686E0F8018C
:1031D000A0E1B2E001900D928A95E1F70E947E177E
:1031E0000E945017FF24F39455CFC8010E94AD16DA
:1031F000F9CF911115C07A2DB98AA88A4D2D5E2D6F
:103200006C2D89890E94101780E192E00E94AD1612
:1032100086E0E0E1F2E0DF011D928A95E9F763C004
:103220003E1112C02D1110C0C1100EC0F8018583CF
:10323000C8010E94AD16E0E1F2E086E0DF011D92D8
:103240008A95E9F7F92C26CFDD86EE868D859E8559
:103250000E94EF16882349F2CC2039F280911502A2
:10326000803208F4B3CF20911002309111023A83DA
:1032700029831B82BD82AC828E83CE010196A4CFAE
:10328000A816B90698F1F501E81BF90BCF01F12C4E
:103290008639910508F049C0FC2CCC2009F4A5CF53
:1032A0003E1132C02D1130C08091150280FD23C027
:1032B000982F907F01F1D80115968C931597903F28
:1032C00039F0982F907F905F8F70892B15968C9393
:1032D000C8010E94AD1686E0F801A0E1B2E00190BD
:1032E0000D928A95E1F70E945017D4CE8095909563
:1032F0008A0D9B1DCCCF86E0F801A0E1B2E00190E1
:103300000D928A95E1F7C6CEDD86EE868D859E8587
:103310000E94EF1681115ACF80911502816080932F
:103320001502C8010E94AD16B5CE7A2DB98AA88AB9
:103330004D2D5E2D6C2D89890E94101769CFCC20F0
:1033400009F453CFDD86EE868D859E850E94EF16AB
:10335000F82E882309F449CF86E0F801A0E1B2E015
:1033600001900D928A95E1F780E192E00E94161398
:103370000E947E17B8CF81E08C25CDCE81E08C25D0
:10338000AACE1F93CF93DF93CDB7DEB72C970FB69E
:10339000F894DEBF0FBECDBF4F83588769877A8709
:1033A0008B879C87CE0107960E94E217882369F0DD
:1033B0008A859B85892B39F04F815885842F8523F9
:1033C0008F3F09F071C016E05FC086E0FE013796BE
:1033D000DE01119601900D928A95E1F78A859B8511
:1033E000892B89F388859F8189238F3F61F3209101
:1033F000DF0130E0C9010196877099274091DE0115
:103400004817190671F40E94EB161092DF01109212
:10341000DE0186E0E0E1F2E0DF011D928A95E9F746
:10342000D2CF96E0929FD001939FB00D1124A0526D
:10343000BE4FFE01319601900D929A95E1F780936F
:10344000DF010E942F17BFCF819FC001112480523E
:103450009E4F0E94E2178823E9F0E091DE011E9F53
:10346000F0011124E052FE4F40815181628173814D
:10347000848195810E941F178091DE0190E0019662
:10348000877099278093DE018091DE019091DF01A2
:103490008913DACF2C960FB6F894DEBF0FBECDBFDE
:1034A000DF91CF911F91089569857A858B859C85E1
:1034B0000E941F1788CFEF92FF920F931F93CF9315
:1034C000DF938C01892B81F0F12CEE24E394E80149
:1034D0002196F8018491843770F4843008F05FC03D
:1034E0008130B1F08230A1F1DF91CF911F910F9126
:1034F000FF90EF900895853709F44CC008F43DC063
:103500009CE7980F903780F78F770E94F61349C099
:103510000E5F1F4FFE01849190E2980F983060F487
:103520008770FE2D01C0FF0F8A95EAF78F2F0E944A
:10353000CB1C0E94721C02C00E941B138F2D815055
:1035400030F2EFE9FFE03197F1F700C00000F7CF6C
:103550000E5F1F4FFE01849190E2980F983050F457
:103560008770FE2D01C0FF0F8A95EAF78F2F0E940A
:10357000D11CDFCF0E94F613E1CF0E5F1F4FFE017B
:10358000C491C150D8F28FE99FE00197F1F700C0D4
:103590000000F7CF0E5F1F4FFE01F490CFCF0E94C7
:1035A0001B138E01CBCF08950E94D31A60931A0289
:1035B00070931B0280931C0290931D020C94D716EB
:1035C00008950C94D41A0F931F9300911A0210912E
:1035D0001B0220911C0230911D02602B712B822B4B
:1035E000932B1F910F910C94D41A0F931F9300915A
:1035F0001A0210911B0220911C0230911D026023BF
:103600007123822393231F910F910C94D41A0F934B
:103610001F9300911A0210911B0220911C023091FD
:103620001D0260277127822793271F910F910C9409
:10363000D41A0C94D31A0C94191B0E941B1B609370
:1036400016027093170280931802909319020C943B
:10365000D71660E070E0CB010C941D1B0F931F93F5
:1036600041E050E060E070E08A019B0104C0000F7F
:10367000111F221F331F8A95D2F7C901B8011F916C
:103680000F910C941D1B0F931F9341E050E060E0DD
:1036900070E004C0440F551F661F771F8A95D2F74C
:1036A0008091160290911702A0911802B091190210
:1036B0008A019B01082B192B2A2B3B2BC901B8012E
:1036C0001F910F910C941D1B0F931F9341E050E02D
:1036D00060E070E004C0440F551F661F771F8A9595
:1036E000D2F7CB01BA0160957095809590950091C5
:1036F00016021091170220911802309119026023CE
:103700007123822393231F910F910C941D1B0F9300
:103710001F9341E050E060E070E004C0440F551F8B
:10372000661F771F8A95D2F7809116029091170233
:10373000A0911802B09119028A019B01082719274C
:103740002A273B27C901B8011F910F910C941D1B1B
:103750000F931F93009116021091170220911802E7
:1037600030911902602B712B822B932B1F910F919B
:103770000C941D1B0F931F930091160210911702BA
:103780002091180230911902602371238223932320
:103790001F910F910C941D1B0F931F930091160204
:1037A0001091170220911802309119026027712799
:1037B000822793271F910F910C941D1B0895BF9290
:1037C000CF92DF92EF92FF920F931F93CF93DF93ED
:1037D0008C01C0901602D0901702E0901802F09071
:1037E000190280911A0290911B02A0911C02B091C3
:1037F0001D02C82AD92AEA2AFB2ACFE1D0E0BC2E32
:10380000D701C6010C2E04C0B695A795979587954C
:103810000A94D2F780FD0EC0219788F7B12C8B2D2A
:10382000DF91CF911F910F91FF90EF90DF90CF909C
:10383000BF900895B8018C2F0E940C0E019761F380
:10384000EECFCF93DF93EC010E94DF1BBE01DF912F
:10385000CF910C940C0ECB010C94211C682F8091FD
:103860005201909153010C94531D682F8091520185
:10387000909153010C94551D8091520190915301E8
:103880000C94571D80911E02859585958595089508
:1038900080911E028770089598E0899F90011124FD
:1038A000622B60931E020C94431B90911E02809524
:1038B000892380931E02282F277061F4282F082E59
:1038C000000C330B9217130629F085958595859585
:1038D0000C94641B089590911E02977081E009F486
:1038E00080E00895E0915201F091530180912A0205
:1038F0008083E0915201F0915301808190912902DF
:10390000892B8083E0915201F09153018081909145
:103910002802892B808390911F02992381F0E091E6
:103920005201F09153018081892B80838091520153
:10393000909153010E941F1D811110921F028091CE
:103940005201909153010C94F61180912A0208952E
:1039500090912A02892B80932A0208958095909154
:103960002A02982390932A02089510922A02089519
:1039700080912902089590912902892B8093290230
:103980000895809590912902982390932902089593
:1039900010922902089590912802892B8093280281
:1039A0000895809590912802982390932802089575
:1039B00010922802089580931F02089510921F020A
:1039C000089580911F0208956DEE7EEF90E080E0F3
:1039D0000E94A82960E082E090E00E94962960E0C1
:1039E00083E090E00E94962960E084E090E00E94ED
:1039F000962960E085E090E00C94962990E080E0C4
:103A00000E94902921E08D3E9E4F09F020E0822FF8
:103A1000089582E090E00C94882983E090E00C9473
:103A20008829682F83E090E00C94962984E090E048
:103A30000C948829682F84E090E00C949629FC016E
:103A400031969C01285F3F4F80E0919191118F5FEB
:103A5000E217F307D1F708959C01FC0132969FEF1E
:103A600080E04191461751F09F3F19F4411101C088
:103A7000982F8F5F8630A9F79F3F09F40895290F8B
:103A8000311D97FD3A95F90162830895FC01329644
:103A900008962191261303C0DF0111971C92E817A5
:103AA000F907B9F708950C942C1D0C94461DFC01E0
:103AB000118212821382148215821682178208954F
:103AC00080914F02843039F110922C0288E190E00D
:103AD00020E40FB6F894A895809360000FBE209361
:103AE000600080E00E94ED0D83B7817F846083BF1A
:103AF00083B7816083BF7894889583B78E7F83BFB7
:103B00000FB6F894A895809160008861809360005A
:103B1000109260000FBE089508950895CF930E94FB
:103B20008C1D0E94EF080E948D1DC0E08C2F0E940A
:103B30002F09811105C0CF5FCC30C1F7CF91089517
:103B400081E0FCCF0E94EB160E94EA110C94ED0D6F
:103B50001F921FB61F9211248F939F93AF93BF9311
:103B600080912C02811113C08091450290914602F0
:103B7000A0914702B09148024196A11DB11D8093CA
:103B8000450290934602A0934702B0934802BF912A
:103B9000AF919F918F911F901FBE1F90189582E04B
:103BA00084BD93E095BD9AEF97BD80936E00089514
:103BB0002FB7F8948091450290914602A091470258
:103BC000B09148022FBF0895CF92DF92EF92FF92FB
:103BD0000F931F932FB7F8944091450250914602DE
:103BE00060914702709148022FBF6A017B01EE2469
:103BF000FF248C0130E020E0C016D106E206F30677
:103C000050F0481B590BCA011F910F91FF90EF9084
:103C1000DF90CF90089541505109F3CF78941F92CF
:103C20001FB61F9211248F939F93AF93BF938091E0
:103C3000450290914602A0914702B0914802019638
:103C4000A11DB11D8093450290934602A0934702A7
:103C5000B0934802BF91AF919F918F911F901FBE6B
:103C60001F90189587E797E79093010880930008C5
:103C700088E19AE00FB6F894A895809360000FBE93
:103C800090936000FFCF0E94FE1C811102C00E9431
:103C9000E41C0E94091D80932B020E94161D90E0D7
:103CA00090934A02809349020E940D1D682F70E094
:103CB00090E080E00C94E11A80912F0280FF12C006
:103CC0006091570185E0689FB00111247595679553
:103CD0007595679560387105A8F561157105A1F1B5
:103CE000862F089581FF09C06091570185E0689F84
:103CF000B001112475956795EDCF6091570182FD54
:103D00000AC0809130028823D1F0909156016091D1
:103D10005701891728F085E0689FB0011124DACF98
:103D2000869FB001112485E0869F9001879F300D0A
:103D30001124692F70E0C9010E945A29CBCF65E098
:103D400070E0CECF8FE7089581E0089580912F0233
:103D500080FF0CC06091550170E075956795759571
:103D600067956115710549F1862F089581FF06C099
:103D70006091550170E075956795F3CF609155019D
:103D800082FD0BC0909130029923A1F06091540103
:103D900080915501961738F0682F70E060387105F2
:103DA00000F38FE70895899FC001112470E00E94FD
:103DB0005A29F4CF61E070E0D7CF81E00895803FC9
:103DC00031F40E945C1E8195809333020895813FF7
:103DD00019F40E945C1EF8CF823F31F40E945C1EF1
:103DE0008195809332020895833F19F40E945C1EEE
:103DF000F8CF893F29F40E94A61E809334020895CB
:103E00008A3F21F40E94A61E8195F7CF8B3F31F4A3
:103E10000E94A61E81958093350208958C3F19F467
:103E20000E94A61EF8CF843F31F480913102816058
:103E3000809331020895853F21F4809131028260A0
:103E4000F7CF863F21F4809131028460F1CF873F24
:103E500021F4809131028860EBCF883F21F480917A
:103E600031028061E5CF8D3F31F480912F02816076
:103E700080932F0208958E3F21F480912F0282605B
:103E8000F7CF8F3FB9F780912F028460F1CF9091E7
:103E90003202803F41F48091330287FD1092330259
:103EA000992371F00895813F29F480913302181607
:103EB000ACF3F6CF823F81F497FFF2CF109232023B
:103EC0008091330290913402892B90913502892B95
:103ED00049F7109230020895833F19F4191674F3CC
:103EE000DFCF893F39F4809134021816CCF6109256
:103EF0003402D6CF8A3F29F48091340287FFD0CF95
:103F0000F6CF8B3F39F48091350287FFC9CF1092ED
:103F10003502C6CF8C3F29F4809135021816BCF3C8
:103F2000BFCF843F31F4809131028E7F8093310284
:103F3000B7CF853F21F4809131028D7FF7CF863F47
:103F400021F4809131028B7FF1CF873F21F4809162
:103F50003102877FEBCF883F21F4809131028F7E41
:103F6000E5CF8D3F31F480912F028E7F80932F0219
:103F700097CF8E3F21F480912F028D7FF7CF8F3F17
:103F800009F08ECF80912F028B7FF0CF81E392E0FA
:103F90000E9401120E94D81D90932E0280932D0240
:103FA00008951F93CF93DF9380912D0290912E025D
:103FB0000E94E41DAC01909130022091580130E044
:103FC000911106C0209159018AE0289F9001112487
:103FD0004217530778F020913202C0913302D091FA
:103FE000340210913502211109C08C2F8D2B812BA9
:103FF00009F05DC0DF91CF911F9108959F3F19F0A7
:104000009F5F90933002121624F40E945C1E8093EE
:1040100032028091320287FF05C00E945C1E8195AA
:10402000809332021C1624F40E945C1E809333029B
:104030008091330287FF05C00E945C1E81958093AA
:10404000330240913202442379F03091330233231A
:1040500059F025EB4203A0011124509332023203A0
:1040600090011124309333021D1624F40E94A61EE1
:10407000809334028091340287FF05C00E94A61EFF
:10408000819580933402111624F40E94A61E809319
:1040900035028091350287FF05C00E94A61E8195DA
:1040A00080933502DF91CF911F910C94C61F9F3FE3
:1040B00009F0A6CFB7CF85E0E1E3F2E0DF011D9282
:1040C0008A95E9F71092300210922F0208958330FA
:1040D00081F128F4813059F08230D1F00895853093
:1040E00009F449C0B8F1863009F456C008958091AA
:1040F0005901482F460F5527551F4F3F510524F4AE
:10410000680F6093590108958FEF809359010895C6
:1041100080915801482F460F5527551F4F3F510595
:1041200024F4680F6093580108958FEF809358012D
:10413000089580915701482F460F5527551F4F3F2F
:10414000510524F4680F6093570108958FEF809311
:104150005701089580915601482F460F5527551F46
:104160004F3F510524F4680F6093560108958FEF77
:1041700080935601089580915501482F460F552789
:10418000551F4F3F510524F4680F60935501089562
:104190008FEF80935501089580915401482F460F69
:1041A0005527551F4F3F510524F4680F6093540164
:1041B00008958FEF809354010895833011F128F40E
:1041C000813049F0823091F00895853081F120F1FD
:1041D0008630C1F1089580915901681720F4861B3B
:1041E00080935901089510925901089580915801C2
:1041F000681720F4861B8093580108951092580187
:10420000089580915701681720F4861B8093570109
:10421000089510925701089580915601681720F46F
:10422000861B80935601089510925601089580913F
:104230005501681720F4861B80935501089510924C
:104240005501089580915401681720F4861B8093CE
:10425000540108951092540108950F931F9341E063
:1042600050E060E070E08A019B0104C0000F111F64
:10427000221F331F8A95D2F7C901B8010E94E11AA3
:104280001F910F910C94EB168732A8F58E3108F030
:1042900079C08E3009F46BC058F4873009F459C0E6
:1042A0008B3009F44BC0863009F44AC080E0089591
:1042B000863109F443C068F48031C1F790912B0234
:1042C000892F877F93FF886080932B0283FD0FC027
:1042D00035C0893199F18B3149F790912B02892FA3
:1042E0008D7F91FF826080932B0281FF27C0809198
:1042F0002B02816039C0883309F150F4893221F0F2
:10430000853311F0873291F680E00E942D2116C08E
:104310008334D1F320F48A3348F28953F6CF8834BA
:1043200029F60E94EB162FEF83ED90E32150804099
:104330009040E1F700C000000E94321E81E0089525
:1043400080912B02807F80932B0281E08093370243
:10435000089590912B02892F8E7F90FF816080932A
:104360002B0280FDEBCF817F80932B02E7CF9091D2
:104370002B02892F8B7F92FF846080932B0282FD1A
:10438000B6CFDCCF8D51C1CF80E008950C94C4210D
:104390008E518A3030F4E82FF0E0E958FE4F8081EA
:1043A000089580E00895CF93C82F8091370281301F
:1043B000D1F0882331F08230D1F11092370280E0C1
:1043C00010C0E0915201F091530180818232B9F71F
:1043D0008C2F0E94C42181111EC08C2F0E94442169
:1043E0008170CF910895E0915201F0915301808145
:1043F000823271F38C2F0E94C62181110AC0C43110
:1044000099F060F4CB3029F0C03151F782E080930D
:10441000370281E0E5CF81E090E0E2CFC93221F0C0
:10442000C833B9F380E0DCCF10923702FBCFC9323A
:1044300019F188F4C43101F120F4C73081F181E031
:10444000D0CF82EE8C0F8630D0F78C2F0E94C821FF
:1044500080933602F4CFCE3401F140F46AE0CB34DD
:1044600071F7809136020E946720E9CFC13579F05B
:1044700061E0C235B1F3E3CF80913602882319F0B1
:1044800010923602DCCF81E080933702AACF61E040
:10449000809136020E94DD20D2CF6AE0F9CF8EE112
:1044A0008093590182E3809358018AE080935701F9
:1044B00084E18093560188E08093550188E28093DF
:1044C0005401BDCF8091400208950F931F93CF9365
:1044D000DF9300D00F92CDB7DEB78C010E94AC24E1
:1044E000823011F0843019F583E089831B830A83BD
:1044F0008093E9008FEF9091E800815095FD06C010
:1045000095ED9A95F1F700008111F5CF8091E800C3
:1045100085FF0DC050E040E063E070E0CE01019601
:104520000E94C9248091E8008E778093E8000F9064
:104530000F900F90DF91CF911F910F910895CF931E
:10454000DF9300D00F92CDB7DEB720914F02243019
:1045500031F522E02983805891099B838A8383E087
:104560008093E9008FEF9091E800815095FD06C09F
:1045700095ED9A95F1F700008111F5CF8091E80053
:1045800085FF0DC050E040E063E070E0CE01019691
:104590000E94C9248091E8008E778093E8000F90F4
:1045A0000F900F90DF91CF910895CF93DF93EC019F
:1045B0000E94AC24823011F08430F9F482E08093C0
:1045C000E9008FEF9091E800815095FD06C095EDD0
:1045D0009A95F1F700008111F5CF8091E80085FFF1
:1045E0000CC050E040E065E070E0CE010E94C924BC
:1045F0008091E8008E778093E800DF91CF91089555
:10460000CF93DF93EC010E94AC24823011F0843010
:1046100039F581E08093E9008FEF9091E8008150B7
:1046200095FD06C095ED9A95F1F700008111F5CF43
:104630008091E80085FF14C050E040E068E070E041
:10464000CE010E94C9248091E8008E778093E80013
:1046500088E0FE01A8E3B2E001900D928A95E1F7AF
:10466000DF91CF91089580914E02811109C00E947F
:1046700059260E94B6268091E20084608093E20071
:10468000089510924E020895089508950C94A21D65
:1046900042E061EC81E00E94D52542E061EC82E0DD
:1046A0000E94D52542E061EC83E00C94D5258091F1
:1046B0005102833009F452C030F4813059F1823014
:1046C00009F48EC008958A3009F47AC08B3009F459
:1046D00060C0893009F041C0809150028132E9F513
:1046E0008091540290915502892BB9F58091E80090
:1046F000877F8093E8008091E80082FF2AC0809144
:10470000F100809340028091E8008B778093E8006D
:104710000C94092680915002813AF9F48091E800C6
:10472000877F8093E8008091540290915502892BF5
:1047300061F468E088E392E070E00E9418258091BF
:10474000E8008B778093E800089560E090E080E0D7
:10475000F3CF80914F028111CECF08958091500206
:10476000813AD9F78091540290915502892BA9F78B
:104770008091E800877F8093E8008091E80080FFC7
:10478000FCCF809164018093F1008091E8008E77E6
:10479000BDCF80915002813201F7809154029091F7
:1047A0005502892BD1F68091E800877F8093E8003D
:1047B0000E94092680915202809364010C94EB16AA
:1047C00080915002813249F68091E800877F809382
:1047D000E8000E94092680915302809341020895C7
:1047E00080915002813A09F0B8CF8091E800877F2C
:1047F0008093E8008091E80080FFFCCF8091410227
:10480000C2CF84B7877F84BF0FB6F894A8958091F4
:104810006000886180936000109260000FBE80E8A5
:1048200080936100109261000E9438120E94592604
:104830000E94B6268091E20084608093E200789422
:104840000E943F290E943C128AE591E00E94E511F6
:1048500080914F02853019F00E944212F9CF0E94D8
:10486000601D80914D02882399F30E948E1D88233C
:1048700079F30E94B324ECCF0C943E24292F3327E4
:104880002330310521F168F42130310509F449C0A4
:104890002230310509F44AC090E080E030E020E0A9
:1048A00029C02132310581F122323105A9F7633067
:1048B000710590F7FB01EE0FFF1FEC57FE4F2081B3
:1048C00031816F577E4FFB01808190E013C09927A3
:1048D0008130910599F0009741F08230910589F07F
:1048E0000397D1F6E8E6FDE002C0E6EAFDE0849138
:1048F00090E09F01FA01318320830895E6E8FDE00E
:10490000F6CFEEE6FDE0F3CF6330710528F6660FD3
:10491000771FFB01E657FE4F2081318189E090E04F
:10492000E9CF82E190E02EEF3DE0E4CF84E590E036
:104930002AEA3DE0DFCF0895CF93C82F0E949B2441
:10494000C0934202CF91089580914F02843011F4B8
:1049500082E0089581E0089580914202811102C0B1
:104960000C94A424089580E189BD82E189BD09B435
:1049700000FEFDCF8091D8008F7D8093D80080917C
:10498000E00082608093E0008091E00081FDFCCF38
:104990000895AF92BF92CF92DF92FF920F931F9331
:1049A000CF93DF936C01EB018A010E942826F82E39
:1049B000811123C00115110539F0F8018081918121
:1049C000C81BD90BC80ED91EB12CA12C2097A9F059
:1049D0008091E80085FD22C08091E8008E77809369
:1049E000E80001151105A1F0F80180819181A80E60
:1049F000B91EB182A08285E0F82E8F2DDF91CF9174
:104A00001F910F91FF90DF90CF90BF90AF900895CE
:104A10000E9428268823D1F2F82EEFCFF60181914B
:104A20006F018093F1002197FFEFAF1ABF0ACECF3D
:104A3000FC01809156029091570286179707A0F0CB
:104A40006115710529F49091E8009E779093E80034
:104A500090E06115710551F4911108C08091E80052
:104A600082FF34C080E00895BC01F2CF80914F02F4
:104A70008823C1F18530C1F18091E80083FD30C009
:104A80008091E80082FDEACF8091E80080FFE1CFCD
:104A90008091F3002091F200382F6115710519F013
:104AA0002830310558F091E02830310509F090E0C8
:104AB0002091E8002E772093E800CBCF819180935E
:104AC000F100615071092F5F3F4FE7CF80914F0296
:104AD000882341F0853041F08091E80083FFBECF0C
:104AE00081E0089582E0089583E00895FC018091BB
:104AF00056029091570286179707A0F0611571052D
:104B000029F48091E8008E778093E80090E06115A9
:104B1000710551F4911108C08091E80082FF35C001
:104B200080E00895BC01F2CF80914F028823C9F143
:104B30008530C9F18091E80083FD31C08091E800A3
:104B400082FDEACF8091E80080FFE1CF8091F30001
:104B50002091F200382F6115710519F028303105C8
:104B600058F091E02830310509F090E08091E8009C
:104B70008E778093E800CBCF84918093F1003196BB
:104B8000615071092F5F3F4FE6CF80914F0288231C
:104B900041F0853041F08091E80083FFBDCF81E096
:104BA000089582E0089583E00895982F973028F0C3
:104BB0008F708093E90081E008959093E900242F9D
:104BC000762F50E0981731F07091EC002091ED00B5
:104BD0005091F00021FD02C09F5FE8CF3091EB00C3
:104BE0003E7F3093EB003091ED003D7F3093ED0040
:104BF0003091EB0031603093EB007093EC00209328
:104C0000ED005093F0002091EE0027FDE5CF80E00D
:104C100008958091500287FF13C08091E80082FFC1
:104C200006C08091E8008B778093E80004C08091F3
:104C30004F028111F2CF089580914F028823D9F35A
:104C40008091E80080FFF8CF8091E8008E77ECCF6C
:104C50002091E4003091E50095E6A9012091EC0057
:104C6000822F817020FF06C08091E80080FF06C07F
:104C700080E008952091E80022FD1AC080914F0243
:104C8000882389F0853089F08091EB0085FD0FC085
:104C90002091E4003091E50042175307F9F291505A
:104CA000E1F684E0089582E0089583E0089581E0CC
:104CB00008950E94C7260E94CF26E0EEF0E0808192
:104CC00081608083E8EDF0E080818F77808319BC7C
:104CD000A7EDB0E08C918E7F8C9380818F7E808356
:104CE00010924E0208950F931F93CF93DF930E946B
:104CF000C7260E94CF26C8EDD0E088818F778883B1
:104D000088818068888388818F7D888319BC109210
:104D10004F0210924B0210924D0210924C0200EE84
:104D200010E0F80180818B7F808388818160888397
:104D300042E060E080E00E94D525E1EEF0E0808175
:104D40008E7F8083E2EEF0E08081816080838081CD
:104D500088608083F80180818E7F80838881806174
:104D60008883DF91CF911F910F910895E8EDF0E0D6
:104D700080818F7E8083E7EDF0E080818160808399
:104D800084E082BF81E080934E020C947326E8EDAC
:104D9000F0E080818E7F80831092E200089510926F
:104DA000DA001092E10008951F920F920FB60F9251
:104DB00011242F933F934F935F936F937F938F9320
:104DC0009F93AF93BF93EF93FF938091E10082FF96
:104DD0000BC08091E20082FF07C08091E1008B7FD1
:104DE0008093E1000E943E298091DA0080FF19C083
:104DF0008091D80080FF15C08091DA008E7F80936B
:104E0000DA008091D90080FF96C080E189BD82E1FF
:104E100089BD09B400FEFDCF81E080934F020E945E
:104E200033238091E10080FF19C08091E20080FF70
:104E300015C08091E2008E7F8093E2008091E200B5
:104E400080618093E2008091D80080628093D800D6
:104E500019BC85E080934F020E9445238091E100B8
:104E600084FF2BC08091E20084FF27C080E189BDD0
:104E700082E189BD89B5982F917080FFFBCF809129
:104E8000D8008F7D8093D8008091E1008F7E809341
:104E9000E1008091E2008F7E8093E2008091E20049
:104EA00081608093E20080914B02882309F449C01D
:104EB00084E080934F020E9446238091E10083FFAB
:104EC00029C08091E20083FF25C08091E100877FA7
:104ED0008093E10082E080934F0210924B02809118
:104EE000E1008E7F8093E1008091E2008E7F8093CD
:104EF000E2008091E20080618093E20042E060E0A5
:104F000080E00E94D5258091F00088608093F000B9
:104F10000E944423FF91EF91BF91AF919F918F9198
:104F20007F916F915F914F913F912F910F900FBEA5
:104F30000F901F90189519BC10924F020E944123A8
:104F400070CF8091E30087FD93E090934F02B3CF41
:104F50001F920F920FB60F9211242F933F934F93EE
:104F60005F936F937F938F939F93AF93BF93CF93F1
:104F7000DF93EF93FF93D091E900DF708091EC0015
:104F8000C82FC17080FDC0E81092E9008091F00048
:104F9000877F8093F00078940E94EC271092E900BC
:104FA0008091F00088608093F000CD2BCF70C0938B
:104FB000E900FF91EF91DF91CF91BF91AF919F9168
:104FC0008F917F916F915F914F913F912F910F90B2
:104FD0000FBE0F901F9018951F93CF93DF93CDB7FF
:104FE000DEB7AA970FB6F894DEBF0FBECDBF80E53F
:104FF00092E02091F100FC012193CF01F2E088358D
:105000009F07B9F70E9457238091E80083FF1EC1D4
:1050100080915002909151029A3008F017C1E92F07
:10502000F0E0EB5EF54D0C946E29803899F08238F3
:1050300009F00CC1809154028F70873008F006C1CE
:105040008093E9008091EB0085FB882780F910921E
:10505000E90006C080914C0290914D02911182604E
:105060009091E800977F9093E8008093F100109270
:10507000F1008091E8008E77E5C0882309F4D3C061
:10508000823009F0E3C0809152028111D6C0809134
:1050900054028F702FEF280F263008F0D7C080936E
:1050A000E9002091EB0020FFC8C0933031F48091DB
:1050B000EB0080628093EB00C0C09091EB009061A8
:1050C0009093EB0021E030E001C0220F8A95EAF7CF
:1050D0002093EA001092EA008091EB008860EACF0A
:1050E0008111B4C0109152021F778091E300807843
:1050F000812B8093E3008091E800877F8093E80014
:105100000E9409268091E80080FFFCCF8091E30097
:1051100080688093E30082E0111183E080934F0266
:1051200095C08058823008F091C0809152029091D1
:1051300053028C3D23E09207A1F583E08A838AE243
:1051400089834FB7F894DE01139620E03EE051E2E8
:10515000E32FF0E050935700E49120FF03C0E29565
:10516000EF703F5FEF708E2F90E0EA30C0F0C7968F
:105170008D939D932F5F243159F74FBF8091E800A5
:10518000877F8093E8006AE270E0CE0101960E947A
:1051900018258091E8008B778093E80057C0C0966F
:1051A000E7CF6091540270915502AE014F5F5F4F9F
:1051B0000E943C24BC01892B09F448C09091E8006E
:1051C000977F9093E80089819A810E947625E1CFAC
:1051D0008038E1F58091E800877F8093E800809136
:1051E0004B028093F10045CF811130C09091520263
:1051F000923060F58091E800877F8093E80090937B
:105200004B020E94092680914B02882311F084E012
:1052100005C08091E30087FDFACF81E080934F02C3
:105220000E94482313C080915202813079F481E0BA
:10523000933009F080E080934D021092E900809154
:10524000E800877F8093E8000E9409268091E800AB
:1052500083FF0AC08091E800877F8093E8008091F7
:10526000EB0080628093EB00AA960FB6F894DEBF45
:105270000FBECDBFDF91CF911F9108950895CF93B9
:1052800080914F028823A1F0C091E900CF709091E6
:10529000EC00892F817090FD80E8C82B1092E90006
:1052A0008091E80083FD0E94EC27CF70C093E90055
:1052B000CF91089597FB072E16F4009407D077FD41
:1052C00009D00E94742907FC05D03EF49095819581
:1052D0009F4F0895709561957F4F0895EE0FFF1FC2
:1052E0000590F491E02D0994AA1BBB1B51E107C066
:1052F000AA1FBB1FA617B70710F0A61BB70B881F66
:10530000991F5A95A9F780959095BC01CD010895F4
:10531000F999FECF92BD81BDF89A992780B508957D
:10532000A8E1B0E042E050E00C94B029262FF999B2
:10533000FECF92BD81BDF89A019700B4021639F0F4
:105340001FBA20BD0FB6F894FA9AF99A0FBE0895C5
:105350000196272F0E9497290C949629DC01CB01F6
:10536000FC01F999FECF06C0F2BDE1BDF89A319675
:1053700000B40D9241505040B8F70895F894FFCF13
:10538000C70ACC0AD10ADD0AE50AEA0A030BDA0ADF
:10539000DA0ADA0A080B100B180B1D0B220B270B6D
:1053A000590C650C690C6D0C710C750C790C7D0C2D
:1053B000810C850C890C8D0C910C950C990C9D0C15
:1053C000A10CA50C89148914E814E8142F154B15A9
:1053D000B614B6148D15B614251625169016B614E7
:1053E000B61499162F162F162F162F162F162F16A6
:1053F0002F162F162F162F162F162F162F162F1685
:105400002F162F163C164A16511658166216FC1601
:10541000FC16051705170717051705170517FC16BE
:10542000FC160C17051705170C1715283D282629FB
:0E5430003D282629702891282629E828F428EE
:10543E00010000750A0000000000000000000000DE
:10544E0000000000000000850A00000000000000BF
:10545E000000000000000000000000A30A00000091
:10546E000000000000000000000000000000009599
:10547E000A00000000000000000000000000000014
:10548E0000FF20022808140A321E62220023D522B1
:10549E009F226522013534C697660036323331F7C6
:1054AE0000000000000000010203040506070809C1
:1054BE0000404D36930E460E100EBC0DD50DEE0D62
:00000001FF
